{
  "_format": "hh-sol-artifact-1",
  "contractName": "AaveV3LeverageModule",
  "sourceName": "contracts/protocol/modules/v1/AaveV3LeverageModule.sol",
  "abi": [
    {
      "inputs": [
        {
          "internalType": "contract IController",
          "name": "_controller",
          "type": "address"
        },
        {
          "internalType": "contract IPoolAddressesProvider",
          "name": "_lendingPoolAddressesProvider",
          "type": "address"
        }
      ],
      "stateMutability": "nonpayable",
      "type": "constructor"
    },
    {
      "anonymous": false,
      "inputs": [
        {
          "indexed": true,
          "internalType": "bool",
          "name": "_anySetAllowed",
          "type": "bool"
        }
      ],
      "name": "AnySetAllowedUpdated",
      "type": "event"
    },
    {
      "anonymous": false,
      "inputs": [
        {
          "indexed": true,
          "internalType": "contract ISetToken",
          "name": "_setToken",
          "type": "address"
        },
        {
          "indexed": true,
          "internalType": "bool",
          "name": "_added",
          "type": "bool"
        },
        {
          "indexed": false,
          "internalType": "contract IERC20[]",
          "name": "_assets",
          "type": "address[]"
        }
      ],
      "name": "BorrowAssetsUpdated",
      "type": "event"
    },
    {
      "anonymous": false,
      "inputs": [
        {
          "indexed": true,
          "internalType": "contract ISetToken",
          "name": "_setToken",
          "type": "address"
        },
        {
          "indexed": true,
          "internalType": "bool",
          "name": "_added",
          "type": "bool"
        },
        {
          "indexed": false,
          "internalType": "contract IERC20[]",
          "name": "_assets",
          "type": "address[]"
        }
      ],
      "name": "CollateralAssetsUpdated",
      "type": "event"
    },
    {
      "anonymous": false,
      "inputs": [
        {
          "indexed": true,
          "internalType": "contract ISetToken",
          "name": "_setToken",
          "type": "address"
        },
        {
          "indexed": true,
          "internalType": "contract IERC20",
          "name": "_collateralAsset",
          "type": "address"
        },
        {
          "indexed": true,
          "internalType": "contract IERC20",
          "name": "_repayAsset",
          "type": "address"
        },
        {
          "indexed": false,
          "internalType": "contract IExchangeAdapter",
          "name": "_exchangeAdapter",
          "type": "address"
        },
        {
          "indexed": false,
          "internalType": "uint256",
          "name": "_totalRedeemAmount",
          "type": "uint256"
        },
        {
          "indexed": false,
          "internalType": "uint256",
          "name": "_totalRepayAmount",
          "type": "uint256"
        },
        {
          "indexed": false,
          "internalType": "uint256",
          "name": "_protocolFee",
          "type": "uint256"
        }
      ],
      "name": "LeverageDecreased",
      "type": "event"
    },
    {
      "anonymous": false,
      "inputs": [
        {
          "indexed": true,
          "internalType": "contract ISetToken",
          "name": "_setToken",
          "type": "address"
        },
        {
          "indexed": true,
          "internalType": "contract IERC20",
          "name": "_borrowAsset",
          "type": "address"
        },
        {
          "indexed": true,
          "internalType": "contract IERC20",
          "name": "_collateralAsset",
          "type": "address"
        },
        {
          "indexed": false,
          "internalType": "contract IExchangeAdapter",
          "name": "_exchangeAdapter",
          "type": "address"
        },
        {
          "indexed": false,
          "internalType": "uint256",
          "name": "_totalBorrowAmount",
          "type": "uint256"
        },
        {
          "indexed": false,
          "internalType": "uint256",
          "name": "_totalReceiveAmount",
          "type": "uint256"
        },
        {
          "indexed": false,
          "internalType": "uint256",
          "name": "_protocolFee",
          "type": "uint256"
        }
      ],
      "name": "LeverageIncreased",
      "type": "event"
    },
    {
      "anonymous": false,
      "inputs": [
        {
          "indexed": true,
          "internalType": "address",
          "name": "previousOwner",
          "type": "address"
        },
        {
          "indexed": true,
          "internalType": "address",
          "name": "newOwner",
          "type": "address"
        }
      ],
      "name": "OwnershipTransferred",
      "type": "event"
    },
    {
      "anonymous": false,
      "inputs": [
        {
          "indexed": true,
          "internalType": "contract IERC20",
          "name": "_underlying",
          "type": "address"
        },
        {
          "indexed": true,
          "internalType": "contract IAToken",
          "name": "_aToken",
          "type": "address"
        },
        {
          "indexed": true,
          "internalType": "contract IVariableDebtToken",
          "name": "_variableDebtToken",
          "type": "address"
        }
      ],
      "name": "ReserveTokensUpdated",
      "type": "event"
    },
    {
      "anonymous": false,
      "inputs": [
        {
          "indexed": true,
          "internalType": "contract ISetToken",
          "name": "_setToken",
          "type": "address"
        },
        {
          "indexed": true,
          "internalType": "bool",
          "name": "_added",
          "type": "bool"
        }
      ],
      "name": "SetTokenStatusUpdated",
      "type": "event"
    },
    {
      "inputs": [
        {
          "internalType": "contract ISetToken",
          "name": "_setToken",
          "type": "address"
        },
        {
          "internalType": "contract IERC20[]",
          "name": "_newBorrowAssets",
          "type": "address[]"
        }
      ],
      "name": "addBorrowAssets",
      "outputs": [],
      "stateMutability": "nonpayable",
      "type": "function",
      "gas": "0xa7d8c0"
    },
    {
      "inputs": [
        {
          "internalType": "contract ISetToken",
          "name": "_setToken",
          "type": "address"
        },
        {
          "internalType": "contract IERC20[]",
          "name": "_newCollateralAssets",
          "type": "address[]"
        }
      ],
      "name": "addCollateralAssets",
      "outputs": [],
      "stateMutability": "nonpayable",
      "type": "function",
      "gas": "0xa7d8c0"
    },
    {
      "inputs": [
        {
          "internalType": "contract IERC20",
          "name": "_underlying",
          "type": "address"
        }
      ],
      "name": "addUnderlyingToReserveTokensMapping",
      "outputs": [],
      "stateMutability": "nonpayable",
      "type": "function",
      "gas": "0xa7d8c0"
    },
    {
      "inputs": [
        {
          "internalType": "contract ISetToken",
          "name": "",
          "type": "address"
        }
      ],
      "name": "allowedSetTokens",
      "outputs": [
        {
          "internalType": "bool",
          "name": "",
          "type": "bool"
        }
      ],
      "stateMutability": "view",
      "type": "function",
      "gas": "0xa7d8c0"
    },
    {
      "inputs": [],
      "name": "anySetAllowed",
      "outputs": [
        {
          "internalType": "bool",
          "name": "",
          "type": "bool"
        }
      ],
      "stateMutability": "view",
      "type": "function",
      "gas": "0xa7d8c0"
    },
    {
      "inputs": [
        {
          "internalType": "contract ISetToken",
          "name": "",
          "type": "address"
        },
        {
          "internalType": "contract IERC20",
          "name": "",
          "type": "address"
        }
      ],
      "name": "borrowAssetEnabled",
      "outputs": [
        {
          "internalType": "bool",
          "name": "",
          "type": "bool"
        }
      ],
      "stateMutability": "view",
      "type": "function",
      "gas": "0xa7d8c0"
    },
    {
      "inputs": [
        {
          "internalType": "contract ISetToken",
          "name": "",
          "type": "address"
        },
        {
          "internalType": "contract IERC20",
          "name": "",
          "type": "address"
        }
      ],
      "name": "collateralAssetEnabled",
      "outputs": [
        {
          "internalType": "bool",
          "name": "",
          "type": "bool"
        }
      ],
      "stateMutability": "view",
      "type": "function",
      "gas": "0xa7d8c0"
    },
    {
      "inputs": [
        {
          "internalType": "contract ISetToken",
          "name": "_setToken",
          "type": "address"
        },
        {
          "internalType": "uint256",
          "name": "_setTokenQuantity",
          "type": "uint256"
        },
        {
          "internalType": "contract IERC20",
          "name": "_component",
          "type": "address"
        },
        {
          "internalType": "bool",
          "name": "_isEquity",
          "type": "bool"
        }
      ],
      "name": "componentIssueHook",
      "outputs": [],
      "stateMutability": "nonpayable",
      "type": "function",
      "gas": "0xa7d8c0"
    },
    {
      "inputs": [
        {
          "internalType": "contract ISetToken",
          "name": "_setToken",
          "type": "address"
        },
        {
          "internalType": "uint256",
          "name": "_setTokenQuantity",
          "type": "uint256"
        },
        {
          "internalType": "contract IERC20",
          "name": "_component",
          "type": "address"
        },
        {
          "internalType": "bool",
          "name": "_isEquity",
          "type": "bool"
        }
      ],
      "name": "componentRedeemHook",
      "outputs": [],
      "stateMutability": "nonpayable",
      "type": "function",
      "gas": "0xa7d8c0"
    },
    {
      "inputs": [],
      "name": "controller",
      "outputs": [
        {
          "internalType": "contract IController",
          "name": "",
          "type": "address"
        }
      ],
      "stateMutability": "view",
      "type": "function",
      "gas": "0xa7d8c0"
    },
    {
      "inputs": [
        {
          "internalType": "contract ISetToken",
          "name": "_setToken",
          "type": "address"
        },
        {
          "internalType": "contract IERC20",
          "name": "_collateralAsset",
          "type": "address"
        },
        {
          "internalType": "contract IERC20",
          "name": "_repayAsset",
          "type": "address"
        },
        {
          "internalType": "uint256",
          "name": "_redeemQuantityUnits",
          "type": "uint256"
        },
        {
          "internalType": "uint256",
          "name": "_minRepayQuantityUnits",
          "type": "uint256"
        },
        {
          "internalType": "string",
          "name": "_tradeAdapterName",
          "type": "string"
        },
        {
          "internalType": "bytes",
          "name": "_tradeData",
          "type": "bytes"
        }
      ],
      "name": "delever",
      "outputs": [],
      "stateMutability": "nonpayable",
      "type": "function",
      "gas": "0xa7d8c0"
    },
    {
      "inputs": [
        {
          "internalType": "contract ISetToken",
          "name": "_setToken",
          "type": "address"
        },
        {
          "internalType": "contract IERC20",
          "name": "_collateralAsset",
          "type": "address"
        },
        {
          "internalType": "contract IERC20",
          "name": "_repayAsset",
          "type": "address"
        },
        {
          "internalType": "uint256",
          "name": "_redeemQuantityUnits",
          "type": "uint256"
        },
        {
          "internalType": "string",
          "name": "_tradeAdapterName",
          "type": "string"
        },
        {
          "internalType": "bytes",
          "name": "_tradeData",
          "type": "bytes"
        }
      ],
      "name": "deleverToZeroBorrowBalance",
      "outputs": [
        {
          "internalType": "uint256",
          "name": "",
          "type": "uint256"
        }
      ],
      "stateMutability": "nonpayable",
      "type": "function",
      "gas": "0xa7d8c0"
    },
    {
      "inputs": [
        {
          "internalType": "contract ISetToken",
          "name": "_setToken",
          "type": "address"
        }
      ],
      "name": "getEnabledAssets",
      "outputs": [
        {
          "internalType": "address[]",
          "name": "",
          "type": "address[]"
        },
        {
          "internalType": "address[]",
          "name": "",
          "type": "address[]"
        }
      ],
      "stateMutability": "view",
      "type": "function",
      "gas": "0xa7d8c0"
    },
    {
      "inputs": [
        {
          "internalType": "contract ISetToken",
          "name": "_setToken",
          "type": "address"
        },
        {
          "internalType": "contract IERC20[]",
          "name": "_collateralAssets",
          "type": "address[]"
        },
        {
          "internalType": "contract IERC20[]",
          "name": "_borrowAssets",
          "type": "address[]"
        }
      ],
      "name": "initialize",
      "outputs": [],
      "stateMutability": "nonpayable",
      "type": "function",
      "gas": "0xa7d8c0"
    },
    {
      "inputs": [],
      "name": "lendingPoolAddressesProvider",
      "outputs": [
        {
          "internalType": "contract IPoolAddressesProvider",
          "name": "",
          "type": "address"
        }
      ],
      "stateMutability": "view",
      "type": "function",
      "gas": "0xa7d8c0"
    },
    {
      "inputs": [
        {
          "internalType": "contract ISetToken",
          "name": "_setToken",
          "type": "address"
        },
        {
          "internalType": "contract IERC20",
          "name": "_borrowAsset",
          "type": "address"
        },
        {
          "internalType": "contract IERC20",
          "name": "_collateralAsset",
          "type": "address"
        },
        {
          "internalType": "uint256",
          "name": "_borrowQuantityUnits",
          "type": "uint256"
        },
        {
          "internalType": "uint256",
          "name": "_minReceiveQuantityUnits",
          "type": "uint256"
        },
        {
          "internalType": "string",
          "name": "_tradeAdapterName",
          "type": "string"
        },
        {
          "internalType": "bytes",
          "name": "_tradeData",
          "type": "bytes"
        }
      ],
      "name": "lever",
      "outputs": [],
      "stateMutability": "nonpayable",
      "type": "function",
      "gas": "0xa7d8c0"
    },
    {
      "inputs": [
        {
          "internalType": "contract ISetToken",
          "name": "_setToken",
          "type": "address"
        },
        {
          "internalType": "uint256",
          "name": "",
          "type": "uint256"
        }
      ],
      "name": "moduleIssueHook",
      "outputs": [],
      "stateMutability": "nonpayable",
      "type": "function",
      "gas": "0xa7d8c0"
    },
    {
      "inputs": [
        {
          "internalType": "contract ISetToken",
          "name": "_setToken",
          "type": "address"
        },
        {
          "internalType": "uint256",
          "name": "",
          "type": "uint256"
        }
      ],
      "name": "moduleRedeemHook",
      "outputs": [],
      "stateMutability": "nonpayable",
      "type": "function",
      "gas": "0xa7d8c0"
    },
    {
      "inputs": [],
      "name": "owner",
      "outputs": [
        {
          "internalType": "address",
          "name": "",
          "type": "address"
        }
      ],
      "stateMutability": "view",
      "type": "function",
      "gas": "0xa7d8c0"
    },
    {
      "inputs": [],
      "name": "protocolDataProvider",
      "outputs": [
        {
          "internalType": "contract IAaveProtocolDataProvider",
          "name": "",
          "type": "address"
        }
      ],
      "stateMutability": "view",
      "type": "function",
      "gas": "0xa7d8c0"
    },
    {
      "inputs": [
        {
          "internalType": "contract ISetToken",
          "name": "_setToken",
          "type": "address"
        },
        {
          "internalType": "contract IDebtIssuanceModule",
          "name": "_debtIssuanceModule",
          "type": "address"
        }
      ],
      "name": "registerToModule",
      "outputs": [],
      "stateMutability": "nonpayable",
      "type": "function",
      "gas": "0xa7d8c0"
    },
    {
      "inputs": [
        {
          "internalType": "contract ISetToken",
          "name": "_setToken",
          "type": "address"
        },
        {
          "internalType": "contract IERC20[]",
          "name": "_borrowAssets",
          "type": "address[]"
        }
      ],
      "name": "removeBorrowAssets",
      "outputs": [],
      "stateMutability": "nonpayable",
      "type": "function",
      "gas": "0xa7d8c0"
    },
    {
      "inputs": [
        {
          "internalType": "contract ISetToken",
          "name": "_setToken",
          "type": "address"
        },
        {
          "internalType": "contract IERC20[]",
          "name": "_collateralAssets",
          "type": "address[]"
        }
      ],
      "name": "removeCollateralAssets",
      "outputs": [],
      "stateMutability": "nonpayable",
      "type": "function",
      "gas": "0xa7d8c0"
    },
    {
      "inputs": [],
      "name": "removeModule",
      "outputs": [],
      "stateMutability": "nonpayable",
      "type": "function",
      "gas": "0xa7d8c0"
    },
    {
      "inputs": [],
      "name": "renounceOwnership",
      "outputs": [],
      "stateMutability": "nonpayable",
      "type": "function",
      "gas": "0xa7d8c0"
    },
    {
      "inputs": [
        {
          "internalType": "contract ISetToken",
          "name": "_setToken",
          "type": "address"
        },
        {
          "internalType": "uint8",
          "name": "_categoryId",
          "type": "uint8"
        }
      ],
      "name": "setEModeCategory",
      "outputs": [],
      "stateMutability": "nonpayable",
      "type": "function",
      "gas": "0xa7d8c0"
    },
    {
      "inputs": [
        {
          "internalType": "contract ISetToken",
          "name": "_setToken",
          "type": "address"
        }
      ],
      "name": "sync",
      "outputs": [],
      "stateMutability": "nonpayable",
      "type": "function",
      "gas": "0xa7d8c0"
    },
    {
      "inputs": [
        {
          "internalType": "address",
          "name": "newOwner",
          "type": "address"
        }
      ],
      "name": "transferOwnership",
      "outputs": [],
      "stateMutability": "nonpayable",
      "type": "function",
      "gas": "0xa7d8c0"
    },
    {
      "inputs": [
        {
          "internalType": "contract IERC20",
          "name": "",
          "type": "address"
        }
      ],
      "name": "underlyingToReserveTokens",
      "outputs": [
        {
          "internalType": "contract IAToken",
          "name": "aToken",
          "type": "address"
        },
        {
          "internalType": "contract IVariableDebtToken",
          "name": "variableDebtToken",
          "type": "address"
        }
      ],
      "stateMutability": "view",
      "type": "function",
      "gas": "0xa7d8c0"
    },
    {
      "inputs": [
        {
          "internalType": "contract ISetToken",
          "name": "_setToken",
          "type": "address"
        },
        {
          "internalType": "bool",
          "name": "_status",
          "type": "bool"
        }
      ],
      "name": "updateAllowedSetToken",
      "outputs": [],
      "stateMutability": "nonpayable",
      "type": "function",
      "gas": "0xa7d8c0"
    },
    {
      "inputs": [
        {
          "internalType": "bool",
          "name": "_anySetAllowed",
          "type": "bool"
        }
      ],
      "name": "updateAnySetAllowed",
      "outputs": [],
      "stateMutability": "nonpayable",
      "type": "function",
      "gas": "0xa7d8c0"
    }
  ],
  "bytecode": "0x60c06040523480156200001157600080fd5b50604051620065533803806200655383398101604081905262000034916200050e565b600080546001600160a01b0319166001600160a01b038416178155600180556200005d62000334565b600280546001600160a01b0319166001600160a01b038316908117909155604051919250906000907f8be0079c531659141344cd1fd0a4f28419497f9722a3daafe3b4186f6b6457e0908290a350806001600160a01b031660a0816001600160a01b031660601b815250506000816001600160a01b031663e860accb6040518163ffffffff1660e01b815260040160206040518083038186803b1580156200010457600080fd5b505afa15801562000119573d6000803e3d6000fd5b505050506040513d601f19601f820116820180604052508101906200013f9190620003f1565b9050806001600160a01b03166080816001600160a01b031660601b815250506060816001600160a01b031663b316ff896040518163ffffffff1660e01b815260040160006040518083038186803b1580156200019a57600080fd5b505afa158015620001af573d6000803e3d6000fd5b505050506040513d6000823e601f3d908101601f19168201604052620001d991908101906200046a565b905060005b81518110156200032957600080846001600160a01b031663d2493b6c8585815181106200020757fe5b6020026020010151602001516040518263ffffffff1660e01b81526004016200023191906200054c565b60606040518083038186803b1580156200024a57600080fd5b505afa1580156200025f573d6000803e3d6000fd5b505050506040513d601f19601f8201168201806040525081019062000285919062000417565b92505091506040518060400160405280836001600160a01b03168152602001826001600160a01b031681525060036000868681518110620002c257fe5b6020908102919091018101518101516001600160a01b039081168352828201939093526040909101600020835181549084166001600160a01b0319918216178255939091015160019182018054919093169316929092179055929092019150620001de9050565b5050505050620005d3565b3390565b6000604082840312156200034a578081fd5b62000356604062000560565b82519091506001600160401b03808211156200037157600080fd5b81840185601f8201126200038457600080fd5b80519250818311156200039657600080fd5b60209150620003ae601f8401601f1916830162000560565b8381528683858401011115620003c357600080fd5b620003d48484830185850162000587565b845250838101519150620003e882620005ba565b82015292915050565b60006020828403121562000403578081fd5b81516200041081620005ba565b9392505050565b6000806000606084860312156200042c578182fd5b83516200043981620005ba565b60208501519093506200044c81620005ba565b60408501519092506200045f81620005ba565b809150509250925092565b600060208083850312156200047d578182fd5b82516001600160401b038082111562000494578384fd5b81850186601f820112620004a6578485fd5b8051925081831115620004b7578485fd5b620004c6848585020162000560565b8381528481019250818501865b858110156200050057620004ed8a88845187010162000338565b85529386019390860190600101620004d3565b509098975050505050505050565b6000806040838503121562000521578182fd5b82516200052e81620005ba565b60208401519092506200054181620005ba565b809150509250929050565b6001600160a01b0391909116815260200190565b6040518181016001600160401b03811182821017156200057f57600080fd5b604052919050565b60005b83811015620005a45781810151838201526020016200058a565b83811115620005b4576000848401525b50505050565b6001600160a01b0381168114620005d057600080fd5b50565b60805160601c60a05160601c615f1a62000639600039806117785280611c8652806122f65280612d3e528061313052806131f35250806107115280610e945280612bdf5280612e295280613851528061391e5280613a7e5280613b505250615f1a6000f3fe608060405234801561001057600080fd5b50600436106101e55760003560e01c8063847ef08d1161010f578063c690a74c116100a2578063ee78244f11610071578063ee78244f146103e4578063f2fde38b146103f7578063f77c47911461040a578063ffbad25c14610412576101e5565b8063c690a74c1461038b578063d4fd27eb1461039e578063d9b210d3146103be578063e4e9ce92146103d1576101e5565b8063b1dd4d92116100de578063b1dd4d9214610368578063bba00ba514610370578063c137f4d714610378578063c153dd0714610251576101e5565b8063847ef08d146103245780638da5cb5b1461032c578063a584119414610334578063b1c0267814610347576101e5565b80634fdd283c116101875780635b136512116101565780635b136512146102e3578063715018a6146102f6578063717ca2a5146102fe5780637c7a624e14610311576101e5565b80634fdd283c14610297578063516595fc146102aa5780635199e418146102bd5780635809ae27146102d0576101e5565b80633f843bce116101c35780633f843bce1461023c5780633fe6106b14610251578063427eddb5146102645780634a200fa514610284576101e5565b806302577224146101ea5780630df96ef6146102145780630fb96b2114610229575b600080fd5b6101fd6101f8366004614daf565b610425565b60405161020b929190615490565b60405180910390f35b610227610222366004614f92565b61044b565b005b610227610237366004615226565b61061a565b61024461070f565b60405161020b919061547c565b61022761025f3660046151fb565b610733565b610277610272366004615081565b61074b565b60405161020b91906155fa565b610227610292366004614fe0565b61076b565b6102276102a536600461514f565b6109f0565b6102276102b8366004614f92565b610b1a565b6102276102cb366004614f27565b610b2e565b6102276102de366004614f92565b610ba0565b6102276102f1366004615081565b610cb3565b610227610daf565b61022761030c366004614f92565b610e2e565b61022761031f366004614daf565b610e42565b610227610f4f565b6102446112fb565b610227610342366004614daf565b61130b565b61035a610355366004614daf565b61168f565b60405161020b929190615588565b61027761176d565b610244611776565b610227610386366004615226565b61179a565b610227610399366004615049565b611880565b6103b16103ac3660046150ae565b6119c8565b60405161020b9190615e21565b6102276103cc366004615278565b611c54565b6102776103df366004615081565b611d60565b6102776103f2366004614daf565b611d80565b610227610405366004614daf565b611d95565b610244611e4c565b61022761042036600461514f565b611e5b565b600360205260009081526040902080546001909101546001600160a01b03918216911682565b8161045581611f6f565b60005b82518110156105cf57600083828151811061046f57fe5b6020908102919091018101516001600160a01b0380881660009081526005845260408082209284168252919093529091205490915060ff166104cc5760405162461bcd60e51b81526004016104c39061590f565b60405180910390fd5b6001600160a01b03808216600090815260036020526040908190206001015490516370a0823160e01b81529116906370a082319061050e90889060040161547c565b60206040518083038186803b15801561052657600080fd5b505afa15801561053a573d6000803e3d6000fd5b505050506040513d601f19601f8201168201806040525081019061055e91906152c9565b1561057b5760405162461bcd60e51b81526004016104c3906158d5565b6001600160a01b0380861660008181526005602090815260408083209486168352938152838220805460ff191690559181526006909152206105c6906001018263ffffffff611fbd16565b50600101610458565b5060001515836001600160a01b03167f1c400b459725a0446742d6688375dffe941d5f9a65fe3900c93e07d9e772250b8460405161060d91906155ad565b60405180910390a3505050565b83610624816120ea565b81610708576040516308bafae960e21b81526000906001600160a01b038716906322ebeba49061065a9087903090600401615490565b60206040518083038186803b15801561067257600080fd5b505afa158015610686573d6000803e3d6000fd5b505050506040513d601f19601f820116820180604052508101906106aa91906152c9565b9050600081126106cc5760405162461bcd60e51b81526004016104c39061595b565b60006106f8866106ec6106e78560001963ffffffff61222c16565b6122a0565b9063ffffffff6122c616565b90506107058786836122f0565b50505b5050505050565b7f000000000000000000000000000000000000000000000000000000000000000081565b8161073d816120ea565b6107468361130b565b505050565b600460209081526000928352604080842090915290825290205460ff1681565b8233610777828261238c565b84610781816123b2565b60085460ff166107c3576001600160a01b03861660009081526007602052604090205460ff166107c35760405162461bcd60e51b81526004016104c390615813565b856001600160a01b0316630ffe0f1e6040518163ffffffff1660e01b8152600401600060405180830381600087803b1580156107fe57600080fd5b505af1158015610812573d6000803e3d6000fd5b50505050856001600160a01b031663d7f1b27c61085b6040518060400160405280601581526020017444656661756c7449737375616e63654d6f64756c6560581b815250612473565b6040518263ffffffff1660e01b8152600401610877919061547c565b60206040518083038186803b15801561088f57600080fd5b505afa1580156108a3573d6000803e3d6000fd5b505050506040513d601f19601f820116820180604052508101906108c79190614f43565b6108e35760405162461bcd60e51b81526004016104c390615a45565b6060866001600160a01b031663b2494df36040518163ffffffff1660e01b815260040160006040518083038186803b15801561091e57600080fd5b505afa158015610932573d6000803e3d6000fd5b505050506040513d6000823e601f3d908101601f1916820160405261095a9190810190614e8b565b905060005b81518110156109db5781818151811061097457fe5b60200260200101516001600160a01b031663d9b1b6e0896040518263ffffffff1660e01b81526004016109a7919061547c565b600060405180830381600087803b1580156109c157600080fd5b505af19250505080156109d2575060015b5060010161095f565b506109e68787612491565b610705878661257e565b60026001541415610a135760405162461bcd60e51b81526004016104c390615d73565b600260015586610a2281611f6f565b610a2a614c1e565b610a3a8989898989896000612655565b9050610a54816000015182602001518a846080015161270d565b6000610a62828a8a876127a3565b90506000610a718b8a84612a32565b90506000610a85838363ffffffff612a5516565b9050610a9b846000015185602001518c84612a97565b610aa5848b612afb565b896001600160a01b03168b6001600160a01b03168d6001600160a01b03167f7cda30123ddfc96659344700585861a8670352b9cc86d1b1054d10083b1dcdd4876040015188608001518688604051610b009493929190615605565b60405180910390a450506001805550505050505050505050565b81610b2481611f6f565b610746838361257e565b610b36612bc1565b6002546001600160a01b03908116911614610b635760405162461bcd60e51b81526004016104c390615b0f565b6008805460ff19168215159081179091556040517f563e1633136cdd43b8793897cb53ba2a9e31c18b3ae0b6827fbbb03b9902e6c690600090a250565b81610baa81611f6f565b60005b8251811015610c75576000838281518110610bc457fe5b6020908102919091018101516001600160a01b0380881660009081526004845260408082209284168252919093529091205490915060ff16610c185760405162461bcd60e51b81526004016104c390615768565b610c2485826000612bc5565b6001600160a01b0380861660008181526004602090815260408083209486168352938152838220805460ff19169055918152600690915220610c6c908263ffffffff611fbd16565b50600101610bad565b5060001515836001600160a01b03167fdd2a86f23a66f86496c82312e991b49f87ad96c4f25094a43c49f7aca0ea35428460405161060d91906155ad565b81610cbd81611f6f565b6040516335fc6c9f60e21b81526001600160a01b0384169063d7f1b27c90610ce990859060040161547c565b60206040518083038186803b158015610d0157600080fd5b505afa158015610d15573d6000803e3d6000fd5b505050506040513d601f19601f82011682018060405250810190610d399190614f43565b610d555760405162461bcd60e51b81526004016104c390615a45565b6040516306cd8db760e51b81526001600160a01b0383169063d9b1b6e090610d8190869060040161547c565b600060405180830381600087803b158015610d9b57600080fd5b505af1158015610705573d6000803e3d6000fd5b610db7612bc1565b6002546001600160a01b03908116911614610de45760405162461bcd60e51b81526004016104c390615b0f565b6002546040516000916001600160a01b0316907f8be0079c531659141344cd1fd0a4f28419497f9722a3daafe3b4186f6b6457e0908390a3600280546001600160a01b0319169055565b81610e3881611f6f565b6107468383612491565b6001600160a01b038181166000908152600360205260409020541615610e7a5760405162461bcd60e51b81526004016104c390615dda565b604051633e15014160e01b81526000906001600160a01b037f00000000000000000000000000000000000000000000000000000000000000001690633e15014190610ec990859060040161547c565b6101406040518083038186803b158015610ee257600080fd5b505afa158015610ef6573d6000803e3d6000fd5b505050506040513d601f19601f82011682018060405250810190610f1a91906152e1565b509850505050505050505080610f425760405162461bcd60e51b81526004016104c39061574b565b610f4b82612e24565b5050565b33610f5981611f95565b33610f638161130b565b6001600160a01b038116600090815260066020908152604091829020600101805483518184028101840190945280845260609392830182828015610fd057602002820191906000526020600020905b81546001600160a01b03168152600190910190602001808311610fb2575b50939450600093505050505b81518110156110eb576000828281518110610ff357fe5b6020908102919091018101516001600160a01b03808216600090815260039093526040928390206001015492516370a0823160e01b815291935091909116906370a082319061104690879060040161547c565b60206040518083038186803b15801561105e57600080fd5b505afa158015611072573d6000803e3d6000fd5b505050506040513d601f19601f8201168201806040525081019061109691906152c9565b156110b35760405162461bcd60e51b81526004016104c3906158d5565b6001600160a01b038085166000908152600560209081526040808320949093168252929092529020805460ff19169055600101610fdc565b506001600160a01b03821660009081526006602090815260409182902080548351818402810184019094528084526060939283018282801561115657602002820191906000526020600020905b81546001600160a01b03168152600190910190602001808311611138575b50939450600093505050505b81518110156111c757600082828151811061117957fe5b6020026020010151905061118f85826000612bc5565b6001600160a01b038086166000908152600460209081526040808320949093168252929092529020805460ff19169055600101611162565b506001600160a01b0383166000908152600660205260408120906111eb8282614c6a565b6111f9600183016000614c6a565b50506060836001600160a01b031663b2494df36040518163ffffffff1660e01b815260040160006040518083038186803b15801561123657600080fd5b505afa15801561124a573d6000803e3d6000fd5b505050506040513d6000823e601f3d908101601f191682016040526112729190810190614e8b565b905060005b81518110156112f35781818151811061128c57fe5b60200260200101516001600160a01b031663e0799620866040518263ffffffff1660e01b81526004016112bf919061547c565b600060405180830381600087803b1580156112d957600080fd5b505af19250505080156112ea575060015b50600101611277565b505050505050565b6002546001600160a01b03165b90565b6002600154141561132e5760405162461bcd60e51b81526004016104c390615d73565b60026001558061133d81611f95565b6000826001600160a01b03166318160ddd6040518163ffffffff1660e01b815260040160206040518083038186803b15801561137857600080fd5b505afa15801561138c573d6000803e3d6000fd5b505050506040513d601f19601f820116820180604052508101906113b091906152c9565b90508015611686576001600160a01b03831660009081526006602090815260409182902080548351818402810184019094528084526060939283018282801561142257602002820191906000526020600020905b81546001600160a01b03168152600190910190602001808311611404575b50939450600093505050505b81518110156115395760006003600084848151811061144957fe5b60200260200101516001600160a01b03166001600160a01b0316815260200190815260200160002060000160009054906101000a90046001600160a01b03169050600061150b876001600160a01b03166366cb8d2f846040518263ffffffff1660e01b81526004016114bb919061547c565b60206040518083038186803b1580156114d357600080fd5b505afa1580156114e7573d6000803e3d6000fd5b505050506040513d601f19601f820116820180604052508101906106e791906152c9565b9050600061151a888488612f3b565b905080821461152e5761152e888483612fd5565b50505060010161142e565b506001600160a01b0384166000908152600660209081526040918290206001018054835181840281018401909452808452606093928301828280156115a757602002820191906000526020600020905b81546001600160a01b03168152600190910190602001808311611589575b50939450600093505050505b81518110156116825760008282815181106115ca57fe5b602002602001015190506000876001600160a01b03166322ebeba483306040518363ffffffff1660e01b8152600401611604929190615490565b60206040518083038186803b15801561161c57600080fd5b505afa158015611630573d6000803e3d6000fd5b505050506040513d601f19601f8201168201806040525081019061165491906152c9565b90506000611663898489612fef565b9050818114611677576116778984836130b0565b5050506001016115b3565b5050505b50506001805550565b6001600160a01b038116600090815260066020908152604091829020805483518184028101840190945280845260609384936001840192849183018282801561170157602002820191906000526020600020905b81546001600160a01b031681526001909101906020018083116116e3575b505050505091508080548060200260200160405190810160405280929190818152602001828054801561175d57602002820191906000526020600020905b81546001600160a01b0316815260019091019060200180831161173f575b5050505050905091509150915091565b60085460ff1681565b7f000000000000000000000000000000000000000000000000000000000000000081565b836117a4816120ea565b81610708576040516308bafae960e21b81526000906001600160a01b038716906322ebeba4906117da9087903090600401615490565b60206040518083038186803b1580156117f257600080fd5b505afa158015611806573d6000803e3d6000fd5b505050506040513d601f19601f8201168201806040525081019061182a91906152c9565b90506000811261184c5760405162461bcd60e51b81526004016104c39061595b565b6000611873866118676106e78560001963ffffffff61222c16565b9063ffffffff6130df16565b905061070587868361312a565b611888612bc1565b6002546001600160a01b039081169116146118b55760405162461bcd60e51b81526004016104c390615b0f565b600054604051631d3af8fb60e21b81526001600160a01b03909116906374ebe3ec906118e590859060040161547c565b60206040518083038186803b1580156118fd57600080fd5b505afa158015611911573d6000803e3d6000fd5b505050506040513d601f19601f820116820180604052508101906119359190614f43565b8061195857506001600160a01b03821660009081526007602052604090205460ff165b6119745760405162461bcd60e51b81526004016104c390615bdf565b6001600160a01b038216600081815260076020526040808220805460ff191685151590811790915590519092917f2035981b48691b10f6ac65174e570b4d0a8a889ae01bef3e5e7759ff9444f0c491a35050565b6000600260015414156119ed5760405162461bcd60e51b81526004016104c390615d73565b6002600155866119fc81611f6f565b6000886001600160a01b03166318160ddd6040518163ffffffff1660e01b815260040160206040518083038186803b158015611a3757600080fd5b505afa158015611a4b573d6000803e3d6000fd5b505050506040513d601f19601f82011682018060405250810190611a6f91906152c9565b90506000611a83878363ffffffff6122c616565b6001600160a01b03808c166000908152600560209081526040808320938d168352929052205490915060ff16611acb5760405162461bcd60e51b81526004016104c39061590f565b6001600160a01b038089166000908152600360205260408082206001015490516370a0823160e01b8152919216906370a0823190611b0d908e9060040161547c565b60206040518083038186803b158015611b2557600080fd5b505afa158015611b39573d6000803e3d6000fd5b505050506040513d601f19601f82011682018060405250810190611b5d91906152c9565b905060008111611b7f5760405162461bcd60e51b81526004016104c390615d56565b611b87614c1e565b611b988c8c8c86868d60008b6131c6565b9050611bb2816000015182602001518d846080015161270d565b611bbe818c8c8a6127a3565b50611bd3816000015182602001518c85612a97565b611bdd818b612afb565b896001600160a01b03168b6001600160a01b03168d6001600160a01b03167f7cda30123ddfc96659344700585861a8670352b9cc86d1b1054d10083b1dcdd484604001518560800151876000604051611c399493929190615605565b60405180910390a450600180559a9950505050505050505050565b81611c5e81611f6f565b826001600160a01b031673__$2acd73dbef26b73907493cf3a99b81b527$__63c09b1b0890917f00000000000000000000000000000000000000000000000000000000000000006001600160a01b031663026b1d5f6040518163ffffffff1660e01b815260040160206040518083038186803b158015611cdd57600080fd5b505afa158015611cf1573d6000803e3d6000fd5b505050506040513d601f19601f82011682018060405250810190611d159190614dcb565b856040518463ffffffff1660e01b8152600401611d34939291906156b3565b60006040518083038186803b158015611d4c57600080fd5b505af4158015610705573d6000803e3d6000fd5b600560209081526000928352604080842090915290825290205460ff1681565b60076020526000908152604090205460ff1681565b611d9d612bc1565b6002546001600160a01b03908116911614611dca5760405162461bcd60e51b81526004016104c390615b0f565b6001600160a01b038116611df05760405162461bcd60e51b81526004016104c3906157cd565b6002546040516001600160a01b038084169216907f8be0079c531659141344cd1fd0a4f28419497f9722a3daafe3b4186f6b6457e090600090a3600280546001600160a01b0319166001600160a01b0392909216919091179055565b6000546001600160a01b031681565b60026001541415611e7e5760405162461bcd60e51b81526004016104c390615d73565b600260015586611e8d81611f6f565b611e95614c1e565b611ea58989898989896001612655565b9050611ec3816000015182602001518360e001518460800151613378565b6000611ed1828a8a876127a3565b90506000611ee08b8a84612a32565b90506000611ef4838363ffffffff612a5516565b9050611f0a846000015185602001518c846133c1565b611f14848c613422565b896001600160a01b03168b6001600160a01b03168d6001600160a01b03167f359f8b62a966cfd521a3815681266407201b20a7c334925faa49e7d9d5dd57ab876040015188608001518688604051610b009493929190615605565b611f798133613486565b611f955760405162461bcd60e51b81526004016104c390615d02565b611f9e81613514565b611fba5760405162461bcd60e51b81526004016104c390615785565b50565b6000806120238480548060200260200160405190810160405280929190818152602001828054801561201857602002820191906000526020600020905b81546001600160a01b03168152600190910190602001808311611ffa575b505050505084613618565b91509150806120445760405162461bcd60e51b81526004016104c39061571c565b8354600019018281146120b65784818154811061205d57fe5b9060005260206000200160009054906101000a90046001600160a01b031685848154811061208757fe5b9060005260206000200160006101000a8154816001600160a01b0302191690836001600160a01b031602179055505b848054806120c057fe5b600082815260209020810160001990810180546001600160a01b0319169055019055505b50505050565b6002604051631ade272960e11b81526001600160a01b038316906335bc4e529061211890339060040161547c565b60206040518083038186803b15801561213057600080fd5b505afa158015612144573d6000803e3d6000fd5b505050506040513d601f19601f8201168201806040525081019061216891906152aa565b600281111561217357fe5b146121905760405162461bcd60e51b81526004016104c390615a0e565b6000546040516342f6e38960e01b81526001600160a01b03909116906342f6e389906121c090339060040161547c565b60206040518083038186803b1580156121d857600080fd5b505afa1580156121ec573d6000803e3d6000fd5b505050506040513d601f19601f820116820180604052508101906122109190614f43565b611fba5760405162461bcd60e51b81526004016104c390615c7b565b60008261223b5750600061229a565b8260001914801561224f5750600160ff1b82145b1561226c5760405162461bcd60e51b81526004016104c390615b61565b8282028284828161227957fe5b05146122975760405162461bcd60e51b81526004016104c390615b61565b90505b92915050565b6000808212156122c25760405162461bcd60e51b81526004016104c390615996565b5090565b6000612297670de0b6b3a76400006122e4858563ffffffff61367e16565b9063ffffffff6136b816565b610746837f00000000000000000000000000000000000000000000000000000000000000006001600160a01b031663026b1d5f6040518163ffffffff1660e01b815260040160206040518083038186803b15801561234d57600080fd5b505afa158015612361573d6000803e3d6000fd5b505050506040513d601f19601f820116820180604052508101906123859190614dcb565b8484613378565b6123968282613486565b610f4b5760405162461bcd60e51b81526004016104c390615d02565b600054604051631d3af8fb60e21b81526001600160a01b03909116906374ebe3ec906123e290849060040161547c565b60206040518083038186803b1580156123fa57600080fd5b505afa15801561240e573d6000803e3d6000fd5b505050506040513d601f19601f820116820180604052508101906124329190614f43565b61244e5760405162461bcd60e51b81526004016104c390615cbf565b612457816136fa565b611fba5760405162461bcd60e51b81526004016104c39061589e565b60008061247f83613729565b905061248a81613734565b9392505050565b60005b81518110156125345760008282815181106124ab57fe5b602002602001015190506124bf84826137f1565b6124cb84826001612bc5565b6001600160a01b03808516600081815260046020908152604080832095909416808352948152838220805460ff19166001908117909155928252600681529281208054808401825590825292902090910180546001600160a01b03191690921790915501612494565b5060011515826001600160a01b03167fdd2a86f23a66f86496c82312e991b49f87ad96c4f25094a43c49f7aca0ea35428360405161257291906155ad565b60405180910390a35050565b60005b815181101561261757600082828151811061259857fe5b602002602001015190506125ac8482613a1e565b6001600160a01b03808516600081815260056020908152604080832095909416808352948152838220805460ff191660019081179091559282526006815292812082018054808401825590825292902090910180546001600160a01b03191690921790915501612581565b5060011515826001600160a01b03167f1c400b459725a0446742d6688375dffe941d5f9a65fe3900c93e07d9e772250b8360405161257291906155ad565b61265d614c1e565b6000886001600160a01b03166318160ddd6040518163ffffffff1660e01b815260040160206040518083038186803b15801561269857600080fd5b505afa1580156126ac573d6000803e3d6000fd5b505050506040513d601f19601f820116820180604052508101906126d091906152c9565b90506127008989896126e88a8663ffffffff6122c616565b6126f88a8763ffffffff6122c616565b8989886131c6565b9998505050505050505050565b60405163c56df3ab60e01b815273__$2acd73dbef26b73907493cf3a99b81b527$__9063c56df3ab90612753906001600160a01b03881690879087908790600401615655565b60206040518083038186803b15801561276b57600080fd5b505af415801561277f573d6000803e3d6000fd5b505050506040513d601f19601f8201168201806040525081019061070891906152c9565b600080856000015190506000866080015190506128478688604001516001600160a01b031663334fc2896040518163ffffffff1660e01b815260040160206040518083038186803b1580156127f757600080fd5b505afa15801561280b573d6000803e3d6000fd5b505050506040513d601f19601f8201168201806040525081019061282f9190614dcb565b6001600160a01b03851691908463ffffffff613c5016565b600080606089604001516001600160a01b031663e171fcab8a8a88888f60a001518d6040518763ffffffff1660e01b815260040161288a969594939291906154aa565b60006040518083038186803b1580156128a257600080fd5b505afa1580156128b6573d6000803e3d6000fd5b505050506040513d6000823e601f3d908101601f191682016040526128de9190810190614e33565b925092509250846001600160a01b0316638f6f03328484846040518463ffffffff1660e01b815260040161291493929190615561565b600060405180830381600087803b15801561292e57600080fd5b505af1158015612942573d6000803e3d6000fd5b505050506040513d6000823e601f3d908101601f1916820160405261296a9190810190614f5f565b5060006129fe8b61010001518a6001600160a01b03166370a08231896040518263ffffffff1660e01b81526004016129a2919061547c565b60206040518083038186803b1580156129ba57600080fd5b505afa1580156129ce573d6000803e3d6000fd5b505050506040513d601f19601f820116820180604052508101906129f291906152c9565b9063ffffffff612a5516565b90508a60a00151811015612a245760405162461bcd60e51b81526004016104c390615d39565b9a9950505050505050505050565b600080612a40600084613d17565b9050612a4d858583613dac565b949350505050565b600061229783836040518060400160405280601e81526020017f536166654d6174683a207375627472616374696f6e206f766572666c6f770000815250613e53565b612ab26001600160a01b03851683858463ffffffff613c5016565b6040516380395c1560e01b815273__$2acd73dbef26b73907493cf3a99b81b527$__906380395c1590612753906001600160a01b0388169087908790879060029060040161567f565b81516040516370a0823160e01b81526000916001600160a01b038416916370a0823191612b2a9160040161547c565b60206040518083038186803b158015612b4257600080fd5b505afa158015612b56573d6000803e3d6000fd5b505050506040513d601f19601f82011682018060405250810190612b7a91906152c9565b90508261010001518114612bb75760608301516101008401518451612bb3926001600160a01b039091169185919063ffffffff613e7f16565b5050505b6107468383613422565b3390565b6040516328dd2d0160e01b81526000906001600160a01b037f000000000000000000000000000000000000000000000000000000000000000016906328dd2d0190612c169086908890600401615490565b6101206040518083038186803b158015612c2f57600080fd5b505afa158015612c43573d6000803e3d6000fd5b505050506040513d601f19601f82011682018060405250810190612c679190615387565b9850505050505050505081151581151514158015612d1157506001600160a01b038084166000908152600360205260408082205490516370a0823160e01b8152919216906370a0823190612cbf90889060040161547c565b60206040518083038186803b158015612cd757600080fd5b505afa158015612ceb573d6000803e3d6000fd5b505050506040513d601f19601f82011682018060405250810190612d0f91906152c9565b115b156120e457836001600160a01b031673__$2acd73dbef26b73907493cf3a99b81b527$__6378dabb1390917f00000000000000000000000000000000000000000000000000000000000000006001600160a01b031663026b1d5f6040518163ffffffff1660e01b815260040160206040518083038186803b158015612d9557600080fd5b505afa158015612da9573d6000803e3d6000fd5b505050506040513d601f19601f82011682018060405250810190612dcd9190614dcb565b86866040518563ffffffff1660e01b8152600401612dee949392919061562b565b60006040518083038186803b158015612e0657600080fd5b505af4158015612e1a573d6000803e3d6000fd5b5050505050505050565b6000807f00000000000000000000000000000000000000000000000000000000000000006001600160a01b031663d2493b6c846040518263ffffffff1660e01b8152600401612e73919061547c565b60606040518083038186803b158015612e8b57600080fd5b505afa158015612e9f573d6000803e3d6000fd5b505050506040513d601f19601f82011682018060405250810190612ec39190614de7565b6001600160a01b0380871660008181526003602052604080822080548589166001600160a01b03199182168117835560019092018054968816969091168617905590519698509396509194929350917fc45243255b6bdd38d8648b8c5e5b9429c7143b47e850cad1601dc1edbb6a3b5b9190a4505050565b600080836001600160a01b03166370a08231866040518263ffffffff1660e01b8152600401612f6a919061547c565b60206040518083038186803b158015612f8257600080fd5b505afa158015612f96573d6000803e3d6000fd5b505050506040513d601f19601f82011682018060405250810190612fba91906152c9565b9050612fcc818463ffffffff613f7016565b95945050505050565b6107466001600160a01b038416838363ffffffff613f8e16565b6001600160a01b038083166000908152600360205260408082206001015490516370a0823160e01b8152919283929116906370a082319061303490889060040161547c565b60206040518083038186803b15801561304c57600080fd5b505afa158015613060573d6000803e3d6000fd5b505050506040513d601f19601f8201168201806040525081019061308491906152c9565b9050612fcc6000196130a461309f848763ffffffff61410216565b614155565b9063ffffffff61222c16565b604080516020810190915260008152610746906001600160a01b0385169084903090859063ffffffff61417a16565b60008215806130ec575081155b156130f95750600061229a565b612297600161311e670de0b6b3a76400006122e4836129f2898963ffffffff61367e16565b9063ffffffff61473216565b610746837f00000000000000000000000000000000000000000000000000000000000000006001600160a01b031663026b1d5f6040518163ffffffff1660e01b815260040160206040518083038186803b15801561318757600080fd5b505afa15801561319b573d6000803e3d6000fd5b505050506040513d601f19601f820116820180604052508101906131bf9190614dcb565b8484612a97565b6131ce614c1e565b6131d6614c1e565b6040518061012001604052808b6001600160a01b031681526020017f00000000000000000000000000000000000000000000000000000000000000006001600160a01b031663026b1d5f6040518163ffffffff1660e01b815260040160206040518083038186803b15801561324a57600080fd5b505afa15801561325e573d6000803e3d6000fd5b505050506040513d601f19601f820116820180604052508101906132829190614dcb565b6001600160a01b0316815260200161329987612473565b6001600160a01b03168152602001848152602001888152602001878152602001856132c4578a6132c6565b895b6001600160a01b03168152602001856132df57896132e1565b8a5b6001600160a01b03168152602001896001600160a01b03166370a082318d6040518263ffffffff1660e01b815260040161331b919061547c565b60206040518083038186803b15801561333357600080fd5b505afa158015613347573d6000803e3d6000fd5b505050506040513d601f19601f8201168201806040525081019061336b91906152c9565b9052905061270081614757565b604051634738693b60e11b815273__$2acd73dbef26b73907493cf3a99b81b527$__90638e70d27690612dee906001600160a01b0388169087908790879060029060040161567f565b6133dc6001600160a01b03851683858463ffffffff613c5016565b6040516390c41e5560e01b815273__$2acd73dbef26b73907493cf3a99b81b527$__906390c41e5590612dee906001600160a01b03881690879087908790600401615655565b60c08201516001600160a01b039081166000908152600360205260409020548351606085015191909216916134659183906134609083908390612f3b565b612fd5565b6107468360000151836134818660000151868860600151612fef565b6130b0565b6000816001600160a01b0316836001600160a01b031663481c6a756040518163ffffffff1660e01b815260040160206040518083038186803b1580156134cb57600080fd5b505afa1580156134df573d6000803e3d6000fd5b505050506040513d601f19601f820116820180604052508101906135039190614dcb565b6001600160a01b0316149392505050565b60008054604051631d3af8fb60e21b81526001600160a01b03909116906374ebe3ec9061354590859060040161547c565b60206040518083038186803b15801561355d57600080fd5b505afa158015613571573d6000803e3d6000fd5b505050506040513d601f19601f820116820180604052508101906135959190614f43565b801561229a57506040516335fc6c9f60e21b81526001600160a01b0383169063d7f1b27c906135c890309060040161547c565b60206040518083038186803b1580156135e057600080fd5b505afa1580156135f4573d6000803e3d6000fd5b505050506040513d601f19601f8201168201806040525081019061229a9190614f43565b81516000908190815b8181101561366b57846001600160a01b031686828151811061363f57fe5b60200260200101516001600160a01b03161415613663579250600191506136779050565b600101613621565b50600019600092509250505b9250929050565b60008261368d5750600061229a565b8282028284828161369a57fe5b04146122975760405162461bcd60e51b81526004016104c390615ace565b600061229783836040518060400160405280601a81526020017f536166654d6174683a206469766973696f6e206279207a65726f00000000000081525061484d565b6040516353bae5f760e01b81526000906001600160a01b038316906353bae5f7906135c890309060040161547c565b805160209091012090565b60008054819061374c906001600160a01b0316614884565b6001600160a01b031663e6d642c530856040518363ffffffff1660e01b8152600401613779929190615548565b60206040518083038186803b15801561379157600080fd5b505afa1580156137a5573d6000803e3d6000fd5b505050506040513d601f19601f820116820180604052508101906137c99190614dcb565b90506001600160a01b03811661229a5760405162461bcd60e51b81526004016104c39061592c565b6001600160a01b0380831660009081526004602090815260408083209385168352929052205460ff16156138375760405162461bcd60e51b81526004016104c390615867565b6040516334924edb60e21b81526000906001600160a01b037f0000000000000000000000000000000000000000000000000000000000000000169063d2493b6c9061388690859060040161547c565b60606040518083038186803b15801561389e57600080fd5b505afa1580156138b2573d6000803e3d6000fd5b505050506040513d601f19601f820116820180604052508101906138d69190614de7565b50506001600160a01b038381166000908152600360205260409020549192508281169116146139175760405162461bcd60e51b81526004016104c3906156ec565b60008060007f00000000000000000000000000000000000000000000000000000000000000006001600160a01b0316633e150141866040518263ffffffff1660e01b8152600401613968919061547c565b6101406040518083038186803b15801561398157600080fd5b505afa158015613995573d6000803e3d6000fd5b505050506040513d601f19601f820116820180604052508101906139b991906152e1565b99509950505097505050505050816139e35760405162461bcd60e51b81526004016104c390615979565b8015613a015760405162461bcd60e51b81526004016104c390615b44565b826112f35760405162461bcd60e51b81526004016104c390615768565b6001600160a01b0380831660009081526005602090815260408083209385168352929052205460ff1615613a645760405162461bcd60e51b81526004016104c390615daa565b6040516334924edb60e21b81526000906001600160a01b037f0000000000000000000000000000000000000000000000000000000000000000169063d2493b6c90613ab390859060040161547c565b60606040518083038186803b158015613acb57600080fd5b505afa158015613adf573d6000803e3d6000fd5b505050506040513d601f19601f82011682018060405250810190613b039190614de7565b6001600160a01b038581166000908152600360205260409020600101549194508481169116149150613b4990505760405162461bcd60e51b81526004016104c3906159cb565b60008060007f00000000000000000000000000000000000000000000000000000000000000006001600160a01b0316633e150141866040518263ffffffff1660e01b8152600401613b9a919061547c565b6101406040518083038186803b158015613bb357600080fd5b505afa158015613bc7573d6000803e3d6000fd5b505050506040513d601f19601f82011682018060405250810190613beb91906152e1565b9950995050985050505050505081613c155760405162461bcd60e51b81526004016104c390615979565b8015613c335760405162461bcd60e51b81526004016104c390615b44565b826112f35760405162461bcd60e51b81526004016104c39061590f565b60608282604051602401613c65929190615548565b60408051601f198184030181529181526020820180516001600160e01b031663095ea7b360e01b179052516347b7819960e11b81529091506001600160a01b03861690638f6f033290613cc19087906000908690600401615561565b600060405180830381600087803b158015613cdb57600080fd5b505af1158015613cef573d6000803e3d6000fd5b505050506040513d6000823e601f3d908101601f191682016040526112f39190810190614f5f565b6000805460405163792aa04f60e01b815282916001600160a01b03169063792aa04f90613d4a9030908890600401615548565b60206040518083038186803b158015613d6257600080fd5b505afa158015613d76573d6000803e3d6000fd5b505050506040513d601f19601f82011682018060405250810190613d9a91906152c9565b9050612a4d838263ffffffff6122c616565b801561074657610746826000809054906101000a90046001600160a01b03166001600160a01b031663469048406040518163ffffffff1660e01b815260040160206040518083038186803b158015613e0357600080fd5b505afa158015613e17573d6000803e3d6000fd5b505050506040513d601f19601f82011682018060405250810190613e3b9190614dcb565b6001600160a01b03861691908463ffffffff61490316565b60008184841115613e775760405162461bcd60e51b81526004016104c391906156d9565b505050900390565b600080600080866001600160a01b03166370a08231896040518263ffffffff1660e01b8152600401613eb1919061547c565b60206040518083038186803b158015613ec957600080fd5b505afa158015613edd573d6000803e3d6000fd5b505050506040513d601f19601f82011682018060405250810190613f0191906152c9565b90506000613f34896001600160a01b03166366cb8d2f8a6040518263ffffffff1660e01b81526004016114bb919061547c565b905060008215613f5157613f4a88888585614a45565b9050613f55565b5060005b613f608a8a83613f8e565b9199909850909650945050505050565b6000612297826122e485670de0b6b3a764000063ffffffff61367e16565b6000613f9a8484614a94565b905080158015613faa5750600082115b1561402157613fb98484614b1b565b61401c576040516304e3532760e41b81526001600160a01b03851690634e35327090613fe990869060040161547c565b600060405180830381600087803b15801561400357600080fd5b505af1158015614017573d6000803e3d6000fd5b505050505b61409e565b80801561402c575081155b1561409e5761403b8484614b1b565b61409e57604051636f86c89760e01b81526001600160a01b03851690636f86c8979061406b90869060040161547c565b600060405180830381600087803b15801561408557600080fd5b505af1158015614099573d6000803e3d6000fd5b505050505b836001600160a01b0316632ba57d17846140b785614155565b6040518363ffffffff1660e01b81526004016140d4929190615548565b600060405180830381600087803b1580156140ee57600080fd5b505af1158015612e1a573d6000803e3d6000fd5b6000816141215760405162461bcd60e51b81526004016104c390615df7565b60008311614130576000612297565b612297600161311e846122e4836129f289670de0b6b3a764000063ffffffff61367e16565b6000600160ff1b82106122c25760405162461bcd60e51b81526004016104c390615c33565b811561446f5760405163df5e9b2960e01b81526001600160a01b0386169063df5e9b29906141ac90879060040161547c565b60206040518083038186803b1580156141c457600080fd5b505afa1580156141d8573d6000803e3d6000fd5b505050506040513d601f19601f820116820180604052508101906141fc9190614f43565b6142c3576040516304e3532760e41b81526001600160a01b03861690634e3532709061422c90879060040161547c565b600060405180830381600087803b15801561424657600080fd5b505af115801561425a573d6000803e3d6000fd5b505060405163ea0ee55960e01b81526001600160a01b038816925063ea0ee559915061428c9087908790600401615490565b600060405180830381600087803b1580156142a657600080fd5b505af11580156142ba573d6000803e3d6000fd5b505050506143a6565b604051637d96659360e01b81526001600160a01b03861690637d966593906142f19087908790600401615490565b60206040518083038186803b15801561430957600080fd5b505afa15801561431d573d6000803e3d6000fd5b505050506040513d601f19601f820116820180604052508101906143419190614f43565b6143a65760405163ea0ee55960e01b81526001600160a01b0386169063ea0ee559906143739087908790600401615490565b600060405180830381600087803b15801561438d57600080fd5b505af11580156143a1573d6000803e3d6000fd5b505050505b6040516363a90fc160e01b81526001600160a01b038616906363a90fc1906143d690879087908790600401615524565b600060405180830381600087803b1580156143f057600080fd5b505af1158015614404573d6000803e3d6000fd5b50506040516326898fe160e01b81526001600160a01b03881692506326898fe19150614438908790879086906004016154f8565b600060405180830381600087803b15801561445257600080fd5b505af1158015614466573d6000803e3d6000fd5b50505050610708565b80511561448e5760405162461bcd60e51b81526004016104c390615bfc565b6040516308bafae960e21b81526001600160a01b038616906322ebeba4906144bc9087908790600401615490565b60206040518083038186803b1580156144d457600080fd5b505afa1580156144e8573d6000803e3d6000fd5b505050506040513d601f19601f8201168201806040525081019061450c91906152c9565b156107085760405163a7bdad0360e01b81526060906001600160a01b0387169063a7bdad039061454090889060040161547c565b60006040518083038186803b15801561455857600080fd5b505afa15801561456c573d6000803e3d6000fd5b505050506040513d6000823e601f3d908101601f191682016040526145949190810190614e8b565b6040516366cb8d2f60e01b81529091506001600160a01b038716906366cb8d2f906145c390889060040161547c565b60206040518083038186803b1580156145db57600080fd5b505afa1580156145ef573d6000803e3d6000fd5b505050506040513d601f19601f8201168201806040525081019061461391906152c9565b158015614621575080516001145b156146ca57836001600160a01b03168160008151811061463d57fe5b60200260200101516001600160a01b03161461466b5760405162461bcd60e51b81526004016104c390615a62565b604051636f86c89760e01b81526001600160a01b03871690636f86c8979061469790889060040161547c565b600060405180830381600087803b1580156146b157600080fd5b505af11580156146c5573d6000803e3d6000fd5b505050505b60405163acf3f07760e01b81526001600160a01b0387169063acf3f077906146f89088908890600401615490565b600060405180830381600087803b15801561471257600080fd5b505af1158015614726573d6000803e3d6000fd5b50505050505050505050565b6000828201838110156122975760405162461bcd60e51b81526004016104c390615830565b80516001600160a01b03908116600090815260046020908152604080832060c08601519094168352929052205460ff166147a35760405162461bcd60e51b81526004016104c390615768565b80516001600160a01b03908116600090815260056020908152604080832060e08601519094168352929052205460ff166147ef5760405162461bcd60e51b81526004016104c39061590f565b8060e001516001600160a01b03168160c001516001600160a01b031614156148295760405162461bcd60e51b81526004016104c3906158f2565b6000816080015111611fba5760405162461bcd60e51b81526004016104c390615ab2565b6000818361486e5760405162461bcd60e51b81526004016104c391906156d9565b50600083858161487a57fe5b0495945050505050565b6040516373b2e76b60e11b81526000906001600160a01b0383169063e765ced6906148b3908490600401615e21565b60206040518083038186803b1580156148cb57600080fd5b505afa1580156148df573d6000803e3d6000fd5b505050506040513d601f19601f8201168201806040525081019061229a9190614dcb565b80156120e4576040516370a0823160e01b81526000906001600160a01b038516906370a082319061493890889060040161547c565b60206040518083038186803b15801561495057600080fd5b505afa158015614964573d6000803e3d6000fd5b505050506040513d601f19601f8201168201806040525081019061498891906152c9565b905061499685858585614ba7565b6040516370a0823160e01b81526000906001600160a01b038616906370a08231906149c590899060040161547c565b60206040518083038186803b1580156149dd57600080fd5b505afa1580156149f1573d6000803e3d6000fd5b505050506040513d601f19601f82011682018060405250810190614a1591906152c9565b9050614a27828463ffffffff612a5516565b81146112f35760405162461bcd60e51b81526004016104c390615ba8565b600080614a68614a5b848863ffffffff6122c616565b869063ffffffff612a5516565b9050614a8a86614a7e868463ffffffff612a5516565b9063ffffffff613f7016565b9695505050505050565b600080836001600160a01b03166366cb8d2f846040518263ffffffff1660e01b8152600401614ac3919061547c565b60206040518083038186803b158015614adb57600080fd5b505afa158015614aef573d6000803e3d6000fd5b505050506040513d601f19601f82011682018060405250810190614b1391906152c9565b139392505050565b600080836001600160a01b031663a7bdad03846040518263ffffffff1660e01b8152600401614b4a919061547c565b60006040518083038186803b158015614b6257600080fd5b505afa158015614b76573d6000803e3d6000fd5b505050506040513d6000823e601f3d908101601f19168201604052614b9e9190810190614e8b565b51119392505050565b80156120e45760608282604051602401614bc2929190615548565b60408051601f198184030181529181526020820180516001600160e01b031663a9059cbb60e01b179052516347b7819960e11b81529091506001600160a01b03861690638f6f033290613cc19087906000908690600401615561565b6040805161012081018252600080825260208201819052918101829052606081018290526080810182905260a0810182905260c0810182905260e0810182905261010081019190915290565b5080546000825590600052602060002090810190611fba919061130891905b808211156122c25760008155600101614c89565b600082601f830112614cad578081fd5b8135614cc0614cbb82615e51565b615e2a565b818152915060208083019084810181840286018201871015614ce157600080fd5b60005b84811015614d09578135614cf781615ec1565b84529282019290820190600101614ce4565b505050505092915050565b600082601f830112614d24578081fd5b8135614d32614cbb82615e71565b9150808252836020828501011115614d4957600080fd5b8060208401602084013760009082016020015292915050565b600082601f830112614d72578081fd5b8151614d80614cbb82615e71565b9150808252836020828501011115614d9757600080fd5b614da8816020840160208601615e95565b5092915050565b600060208284031215614dc0578081fd5b813561229781615ec1565b600060208284031215614ddc578081fd5b815161229781615ec1565b600080600060608486031215614dfb578182fd5b8351614e0681615ec1565b6020850151909350614e1781615ec1565b6040850151909250614e2881615ec1565b809150509250925092565b600080600060608486031215614e47578283fd5b8351614e5281615ec1565b60208501516040860151919450925067ffffffffffffffff811115614e75578182fd5b614e8186828701614d62565b9150509250925092565b60006020808385031215614e9d578182fd5b825167ffffffffffffffff811115614eb3578283fd5b80840185601f820112614ec4578384fd5b80519150614ed4614cbb83615e51565b8281528381019082850185850284018601891015614ef0578687fd5b8693505b84841015614f1b578051614f0781615ec1565b835260019390930192918501918501614ef4565b50979650505050505050565b600060208284031215614f38578081fd5b813561229781615ed6565b600060208284031215614f54578081fd5b815161229781615ed6565b600060208284031215614f70578081fd5b815167ffffffffffffffff811115614f86578182fd5b612a4d84828501614d62565b60008060408385031215614fa4578182fd5b8235614faf81615ec1565b9150602083013567ffffffffffffffff811115614fca578182fd5b614fd685828601614c9d565b9150509250929050565b600080600060608486031215614ff4578081fd5b8335614fff81615ec1565b9250602084013567ffffffffffffffff8082111561501b578283fd5b61502787838801614c9d565b9350604086013591508082111561503c578283fd5b50614e8186828701614c9d565b6000806040838503121561505b578182fd5b823561506681615ec1565b9150602083013561507681615ed6565b809150509250929050565b60008060408385031215615093578182fd5b823561509e81615ec1565b9150602083013561507681615ec1565b60008060008060008060c087890312156150c6578384fd5b86356150d181615ec1565b955060208701356150e181615ec1565b945060408701356150f181615ec1565b935060608701359250608087013567ffffffffffffffff80821115615114578384fd5b6151208a838b01614d14565b935060a0890135915080821115615135578283fd5b5061514289828a01614d14565b9150509295509295509295565b600080600080600080600060e0888a031215615169578485fd5b873561517481615ec1565b9650602088013561518481615ec1565b9550604088013561519481615ec1565b9450606088013593506080880135925060a088013567ffffffffffffffff808211156151be578283fd5b6151ca8b838c01614d14565b935060c08a01359150808211156151df578283fd5b506151ec8a828b01614d14565b91505092959891949750929550565b6000806040838503121561520d578182fd5b823561521881615ec1565b946020939093013593505050565b6000806000806080858703121561523b578182fd5b843561524681615ec1565b935060208501359250604085013561525d81615ec1565b9150606085013561526d81615ed6565b939692955090935050565b6000806040838503121561528a578182fd5b823561529581615ec1565b9150602083013560ff81168114615076578182fd5b6000602082840312156152bb578081fd5b815160038110612297578182fd5b6000602082840312156152da578081fd5b5051919050565b6000806000806000806000806000806101408b8d031215615300578384fd5b8a51995060208b0151985060408b0151975060608b0151965060808b0151955060a08b015161532e81615ed6565b60c08c015190955061533f81615ed6565b60e08c015190945061535081615ed6565b6101008c015190935061536281615ed6565b6101208c015190925061537481615ed6565b809150509295989b9194979a5092959850565b60008060008060008060008060006101208a8c0312156153a5578283fd5b8951985060208a0151975060408a0151965060608a0151955060808a0151945060a08a0151935060c08a0151925060e08a015164ffffffffff811681146153ea578283fd5b6101008b01519092506153fc81615ed6565b809150509295985092959850929598565b6000815180845260208085019450808401835b838110156154455781516001600160a01b031687529582019590820190600101615420565b509495945050505050565b60008151808452615468816020860160208601615e95565b601f01601f19169290920160200192915050565b6001600160a01b0391909116815260200190565b6001600160a01b0392831681529116602082015260400190565b6001600160a01b038781168252868116602083015285166040820152606081018490526080810183905260c060a082018190526000906154ec90830184615450565b98975050505050505050565b6001600160a01b03848116825283166020820152606060408201819052600090612fcc90830184615450565b6001600160a01b039384168152919092166020820152604081019190915260600190565b6001600160a01b03929092168252602082015260400190565b600060018060a01b038516825283602083015260606040830152612fcc6060830184615450565b60006040825261559b604083018561540d565b8281036020840152612fcc818561540d565b6020808252825182820181905260009190848201906040850190845b818110156155ee5783516001600160a01b0316835292840192918401916001016155c9565b50909695505050505050565b901515815260200190565b6001600160a01b0394909416845260208401929092526040830152606082015260800190565b6001600160a01b039485168152928416602084015292166040820152901515606082015260800190565b6001600160a01b039485168152928416602084015292166040820152606081019190915260800190565b6001600160a01b03958616815293851660208501529190931660408301526060820192909252608081019190915260a00190565b6001600160a01b03938416815291909216602082015260ff909116604082015260600190565b6000602082526122976020830184615450565b602080825260169082015275496e76616c69642061546f6b656e206164647265737360501b604082015260600190565b60208082526015908201527420b2323932b9b9903737ba1034b71030b93930bc9760591b604082015260600190565b60208082526003908201526249414560e81b604082015260600190565b602080825260039082015262434e4560e81b604082015260600190565b60208082526028908201527f4d75737420626520612076616c696420616e6420696e697469616c697a65642060408201526729b2ba2a37b5b2b760c11b606082015260800190565b60208082526026908201527f4f776e61626c653a206e6577206f776e657220697320746865207a65726f206160408201526564647265737360d01b606082015260800190565b6020808252600390820152624e415360e81b604082015260600190565b6020808252601b908201527f536166654d6174683a206164646974696f6e206f766572666c6f770000000000604082015260600190565b6020808252601a908201527f436f6c6c61746572616c20616c726561647920656e61626c6564000000000000604082015260600190565b6020808252601e908201527f4d7573742062652070656e64696e6720696e697469616c697a6174696f6e0000604082015260600190565b6020808252600390820152622b222960e91b604082015260600190565b60208082526003908201526243424560e81b604082015260600190565b602080825260039082015262424e4560e81b604082015260600190565b60208082526015908201527426bab9ba103132903b30b634b21030b230b83a32b960591b604082015260600190565b60208082526004908201526321a6a12760e11b604082015260600190565b60208082526003908201526224a0a960e91b604082015260600190565b6020808252818101527f53616665436173743a2076616c7565206d75737420626520706f736974697665604082015260600190565b60208082526023908201527f496e76616c6964207661726961626c65206465627420746f6b656e206164647260408201526265737360e81b606082015260800190565b60208082526018908201527f4f6e6c7920746865206d6f64756c652063616e2063616c6c0000000000000000604082015260600190565b602080825260039082015262494e4960e81b604082015260600190565b60208082526030908201527f45787465726e616c20706f736974696f6e73206d757374206265203020746f2060408201526f1c995b5bdd994818dbdb5c1bdb995b9d60821b606082015260800190565b6020808252600290820152615a5160f01b604082015260600190565b60208082526021908201527f536166654d6174683a206d756c7469706c69636174696f6e206f766572666c6f6040820152607760f81b606082015260800190565b6020808252818101527f4f776e61626c653a2063616c6c6572206973206e6f7420746865206f776e6572604082015260600190565b6020808252600390820152622320a960e91b604082015260600190565b60208082526027908201527f5369676e6564536166654d6174683a206d756c7469706c69636174696f6e206f604082015266766572666c6f7760c81b606082015260800190565b6020808252601d908201527f496e76616c696420706f7374207472616e736665722062616c616e6365000000604082015260600190565b6020808252600390820152621254d560ea1b604082015260600190565b60208082526018908201527f5061737365642064617461206d757374206265206e756c6c0000000000000000604082015260600190565b60208082526028908201527f53616665436173743a2076616c756520646f65736e27742066697420696e2061604082015267371034b73a191a9b60c11b606082015260800190565b60208082526024908201527f4d6f64756c65206d75737420626520656e61626c6564206f6e20636f6e74726f604082015263363632b960e11b606082015260800190565b60208082526023908201527f4d75737420626520636f6e74726f6c6c65722d656e61626c656420536574546f60408201526235b2b760e91b606082015260800190565b6020808252601c908201527f4d7573742062652074686520536574546f6b656e206d616e6167657200000000604082015260600190565b6020808252600390820152620a6a8960eb1b604082015260600190565b60208082526003908201526221212d60e91b604082015260600190565b6020808252601f908201527f5265656e7472616e637947756172643a207265656e7472616e742063616c6c00604082015260600190565b602080825260169082015275109bdc9c9bddc8185b1c9958591e48195b98589b195960521b604082015260600190565b6020808252600390820152624d414560e81b604082015260600190565b60208082526010908201526f043616e742064697669646520627920360841b604082015260600190565b90815260200190565b60405181810167ffffffffffffffff81118282101715615e4957600080fd5b604052919050565b600067ffffffffffffffff821115615e67578081fd5b5060209081020190565b600067ffffffffffffffff821115615e87578081fd5b50601f01601f191660200190565b60005b83811015615eb0578181015183820152602001615e98565b838111156120e45750506000910152565b6001600160a01b0381168114611fba57600080fd5b8015158114611fba57600080fdfea264697066735822122017151a13eb8367a3f7a7c413574825ff3331520edae7ee5b8b93f9de060aff8c64736f6c634300060a0033",
  "linkReferences": {
    "contracts/protocol/integration/lib/AaveV3.sol": {
      "AaveV3": [
        {
          "length": 20,
          "start": 8867
        },
        {
          "length": 20,
          "start": 11605
        },
        {
          "length": 20,
          "start": 12538
        },
        {
          "length": 20,
          "start": 13147
        },
        {
          "length": 20,
          "start": 14784
        },
        {
          "length": 20,
          "start": 14884
        }
      ]
    }
  },
  "deployedLinkReferences": {
    "contracts/protocol/integration/lib/AaveV3.sol": {
      "AaveV3": [
        {
          "length": 20,
          "start": 7274
        },
        {
          "length": 20,
          "start": 10012
        },
        {
          "length": 20,
          "start": 10945
        },
        {
          "length": 20,
          "start": 11554
        },
        {
          "length": 20,
          "start": 13191
        },
        {
          "length": 20,
          "start": 13291
        }
      ]
    }
  }
}