{
  "_format": "hh-sol-artifact-1",
  "contractName": "AaveV3LeverageModule",
  "sourceName": "contracts/protocol/modules/v1/AaveV3LeverageModule.sol",
  "abi": [
    {
      "inputs": [
        {
          "internalType": "contract IController",
          "name": "_controller",
          "type": "address"
        },
        {
          "internalType": "contract IPoolAddressesProvider",
          "name": "_poolAddressesProvider",
          "type": "address"
        }
      ],
      "stateMutability": "nonpayable",
      "type": "constructor"
    },
    {
      "anonymous": false,
      "inputs": [
        {
          "indexed": true,
          "internalType": "bool",
          "name": "_anySetAllowed",
          "type": "bool"
        }
      ],
      "name": "AnySetAllowedUpdated",
      "type": "event"
    },
    {
      "anonymous": false,
      "inputs": [
        {
          "indexed": true,
          "internalType": "contract ISetToken",
          "name": "_setToken",
          "type": "address"
        },
        {
          "indexed": true,
          "internalType": "bool",
          "name": "_added",
          "type": "bool"
        },
        {
          "indexed": false,
          "internalType": "contract IERC20[]",
          "name": "_assets",
          "type": "address[]"
        }
      ],
      "name": "BorrowAssetsUpdated",
      "type": "event"
    },
    {
      "anonymous": false,
      "inputs": [
        {
          "indexed": true,
          "internalType": "contract ISetToken",
          "name": "_setToken",
          "type": "address"
        },
        {
          "indexed": true,
          "internalType": "bool",
          "name": "_added",
          "type": "bool"
        },
        {
          "indexed": false,
          "internalType": "contract IERC20[]",
          "name": "_assets",
          "type": "address[]"
        }
      ],
      "name": "CollateralAssetsUpdated",
      "type": "event"
    },
    {
      "anonymous": false,
      "inputs": [
        {
          "indexed": true,
          "internalType": "contract ISetToken",
          "name": "_setToken",
          "type": "address"
        },
        {
          "indexed": true,
          "internalType": "contract IERC20",
          "name": "_collateralAsset",
          "type": "address"
        },
        {
          "indexed": true,
          "internalType": "contract IERC20",
          "name": "_repayAsset",
          "type": "address"
        },
        {
          "indexed": false,
          "internalType": "contract IExchangeAdapter",
          "name": "_exchangeAdapter",
          "type": "address"
        },
        {
          "indexed": false,
          "internalType": "uint256",
          "name": "_totalRedeemAmount",
          "type": "uint256"
        },
        {
          "indexed": false,
          "internalType": "uint256",
          "name": "_totalRepayAmount",
          "type": "uint256"
        },
        {
          "indexed": false,
          "internalType": "uint256",
          "name": "_protocolFee",
          "type": "uint256"
        }
      ],
      "name": "LeverageDecreased",
      "type": "event"
    },
    {
      "anonymous": false,
      "inputs": [
        {
          "indexed": true,
          "internalType": "contract ISetToken",
          "name": "_setToken",
          "type": "address"
        },
        {
          "indexed": true,
          "internalType": "contract IERC20",
          "name": "_borrowAsset",
          "type": "address"
        },
        {
          "indexed": true,
          "internalType": "contract IERC20",
          "name": "_collateralAsset",
          "type": "address"
        },
        {
          "indexed": false,
          "internalType": "contract IExchangeAdapter",
          "name": "_exchangeAdapter",
          "type": "address"
        },
        {
          "indexed": false,
          "internalType": "uint256",
          "name": "_totalBorrowAmount",
          "type": "uint256"
        },
        {
          "indexed": false,
          "internalType": "uint256",
          "name": "_totalReceiveAmount",
          "type": "uint256"
        },
        {
          "indexed": false,
          "internalType": "uint256",
          "name": "_protocolFee",
          "type": "uint256"
        }
      ],
      "name": "LeverageIncreased",
      "type": "event"
    },
    {
      "anonymous": false,
      "inputs": [
        {
          "indexed": true,
          "internalType": "address",
          "name": "previousOwner",
          "type": "address"
        },
        {
          "indexed": true,
          "internalType": "address",
          "name": "newOwner",
          "type": "address"
        }
      ],
      "name": "OwnershipTransferred",
      "type": "event"
    },
    {
      "anonymous": false,
      "inputs": [
        {
          "indexed": true,
          "internalType": "contract IERC20",
          "name": "_underlying",
          "type": "address"
        },
        {
          "indexed": true,
          "internalType": "contract IAToken",
          "name": "_aToken",
          "type": "address"
        },
        {
          "indexed": true,
          "internalType": "contract IVariableDebtToken",
          "name": "_variableDebtToken",
          "type": "address"
        }
      ],
      "name": "ReserveTokensUpdated",
      "type": "event"
    },
    {
      "anonymous": false,
      "inputs": [
        {
          "indexed": true,
          "internalType": "contract ISetToken",
          "name": "_setToken",
          "type": "address"
        },
        {
          "indexed": true,
          "internalType": "bool",
          "name": "_added",
          "type": "bool"
        }
      ],
      "name": "SetTokenStatusUpdated",
      "type": "event"
    },
    {
      "inputs": [
        {
          "internalType": "contract ISetToken",
          "name": "_setToken",
          "type": "address"
        },
        {
          "internalType": "contract IERC20[]",
          "name": "_newBorrowAssets",
          "type": "address[]"
        }
      ],
      "name": "addBorrowAssets",
      "outputs": [],
      "stateMutability": "nonpayable",
      "type": "function",
      "gas": "0xa7d8c0"
    },
    {
      "inputs": [
        {
          "internalType": "contract ISetToken",
          "name": "_setToken",
          "type": "address"
        },
        {
          "internalType": "contract IERC20[]",
          "name": "_newCollateralAssets",
          "type": "address[]"
        }
      ],
      "name": "addCollateralAssets",
      "outputs": [],
      "stateMutability": "nonpayable",
      "type": "function",
      "gas": "0xa7d8c0"
    },
    {
      "inputs": [
        {
          "internalType": "contract IERC20",
          "name": "_underlying",
          "type": "address"
        }
      ],
      "name": "addUnderlyingToReserveTokensMapping",
      "outputs": [],
      "stateMutability": "nonpayable",
      "type": "function",
      "gas": "0xa7d8c0"
    },
    {
      "inputs": [
        {
          "internalType": "contract ISetToken",
          "name": "",
          "type": "address"
        }
      ],
      "name": "allowedSetTokens",
      "outputs": [
        {
          "internalType": "bool",
          "name": "",
          "type": "bool"
        }
      ],
      "stateMutability": "view",
      "type": "function",
      "gas": "0xa7d8c0"
    },
    {
      "inputs": [],
      "name": "anySetAllowed",
      "outputs": [
        {
          "internalType": "bool",
          "name": "",
          "type": "bool"
        }
      ],
      "stateMutability": "view",
      "type": "function",
      "gas": "0xa7d8c0"
    },
    {
      "inputs": [
        {
          "internalType": "contract ISetToken",
          "name": "",
          "type": "address"
        },
        {
          "internalType": "contract IERC20",
          "name": "",
          "type": "address"
        }
      ],
      "name": "borrowAssetEnabled",
      "outputs": [
        {
          "internalType": "bool",
          "name": "",
          "type": "bool"
        }
      ],
      "stateMutability": "view",
      "type": "function",
      "gas": "0xa7d8c0"
    },
    {
      "inputs": [
        {
          "internalType": "contract ISetToken",
          "name": "",
          "type": "address"
        },
        {
          "internalType": "contract IERC20",
          "name": "",
          "type": "address"
        }
      ],
      "name": "collateralAssetEnabled",
      "outputs": [
        {
          "internalType": "bool",
          "name": "",
          "type": "bool"
        }
      ],
      "stateMutability": "view",
      "type": "function",
      "gas": "0xa7d8c0"
    },
    {
      "inputs": [
        {
          "internalType": "contract ISetToken",
          "name": "_setToken",
          "type": "address"
        },
        {
          "internalType": "uint256",
          "name": "_setTokenQuantity",
          "type": "uint256"
        },
        {
          "internalType": "contract IERC20",
          "name": "_component",
          "type": "address"
        },
        {
          "internalType": "bool",
          "name": "_isEquity",
          "type": "bool"
        }
      ],
      "name": "componentIssueHook",
      "outputs": [],
      "stateMutability": "nonpayable",
      "type": "function",
      "gas": "0xa7d8c0"
    },
    {
      "inputs": [
        {
          "internalType": "contract ISetToken",
          "name": "_setToken",
          "type": "address"
        },
        {
          "internalType": "uint256",
          "name": "_setTokenQuantity",
          "type": "uint256"
        },
        {
          "internalType": "contract IERC20",
          "name": "_component",
          "type": "address"
        },
        {
          "internalType": "bool",
          "name": "_isEquity",
          "type": "bool"
        }
      ],
      "name": "componentRedeemHook",
      "outputs": [],
      "stateMutability": "nonpayable",
      "type": "function",
      "gas": "0xa7d8c0"
    },
    {
      "inputs": [],
      "name": "controller",
      "outputs": [
        {
          "internalType": "contract IController",
          "name": "",
          "type": "address"
        }
      ],
      "stateMutability": "view",
      "type": "function",
      "gas": "0xa7d8c0"
    },
    {
      "inputs": [
        {
          "internalType": "contract ISetToken",
          "name": "_setToken",
          "type": "address"
        },
        {
          "internalType": "contract IERC20",
          "name": "_collateralAsset",
          "type": "address"
        },
        {
          "internalType": "contract IERC20",
          "name": "_repayAsset",
          "type": "address"
        },
        {
          "internalType": "uint256",
          "name": "_redeemQuantityUnits",
          "type": "uint256"
        },
        {
          "internalType": "uint256",
          "name": "_minRepayQuantityUnits",
          "type": "uint256"
        },
        {
          "internalType": "string",
          "name": "_tradeAdapterName",
          "type": "string"
        },
        {
          "internalType": "bytes",
          "name": "_tradeData",
          "type": "bytes"
        }
      ],
      "name": "delever",
      "outputs": [],
      "stateMutability": "nonpayable",
      "type": "function",
      "gas": "0xa7d8c0"
    },
    {
      "inputs": [
        {
          "internalType": "contract ISetToken",
          "name": "_setToken",
          "type": "address"
        },
        {
          "internalType": "contract IERC20",
          "name": "_collateralAsset",
          "type": "address"
        },
        {
          "internalType": "contract IERC20",
          "name": "_repayAsset",
          "type": "address"
        },
        {
          "internalType": "uint256",
          "name": "_redeemQuantityUnits",
          "type": "uint256"
        },
        {
          "internalType": "string",
          "name": "_tradeAdapterName",
          "type": "string"
        },
        {
          "internalType": "bytes",
          "name": "_tradeData",
          "type": "bytes"
        }
      ],
      "name": "deleverToZeroBorrowBalance",
      "outputs": [
        {
          "internalType": "uint256",
          "name": "",
          "type": "uint256"
        }
      ],
      "stateMutability": "nonpayable",
      "type": "function",
      "gas": "0xa7d8c0"
    },
    {
      "inputs": [
        {
          "internalType": "contract ISetToken",
          "name": "_setToken",
          "type": "address"
        }
      ],
      "name": "getEnabledAssets",
      "outputs": [
        {
          "internalType": "address[]",
          "name": "",
          "type": "address[]"
        },
        {
          "internalType": "address[]",
          "name": "",
          "type": "address[]"
        }
      ],
      "stateMutability": "view",
      "type": "function",
      "gas": "0xa7d8c0"
    },
    {
      "inputs": [
        {
          "internalType": "contract ISetToken",
          "name": "_setToken",
          "type": "address"
        },
        {
          "internalType": "contract IERC20[]",
          "name": "_collateralAssets",
          "type": "address[]"
        },
        {
          "internalType": "contract IERC20[]",
          "name": "_borrowAssets",
          "type": "address[]"
        }
      ],
      "name": "initialize",
      "outputs": [],
      "stateMutability": "nonpayable",
      "type": "function",
      "gas": "0xa7d8c0"
    },
    {
      "inputs": [],
      "name": "lendingPoolAddressesProvider",
      "outputs": [
        {
          "internalType": "contract IPoolAddressesProvider",
          "name": "",
          "type": "address"
        }
      ],
      "stateMutability": "view",
      "type": "function",
      "gas": "0xa7d8c0"
    },
    {
      "inputs": [
        {
          "internalType": "contract ISetToken",
          "name": "_setToken",
          "type": "address"
        },
        {
          "internalType": "contract IERC20",
          "name": "_borrowAsset",
          "type": "address"
        },
        {
          "internalType": "contract IERC20",
          "name": "_collateralAsset",
          "type": "address"
        },
        {
          "internalType": "uint256",
          "name": "_borrowQuantityUnits",
          "type": "uint256"
        },
        {
          "internalType": "uint256",
          "name": "_minReceiveQuantityUnits",
          "type": "uint256"
        },
        {
          "internalType": "string",
          "name": "_tradeAdapterName",
          "type": "string"
        },
        {
          "internalType": "bytes",
          "name": "_tradeData",
          "type": "bytes"
        }
      ],
      "name": "lever",
      "outputs": [],
      "stateMutability": "nonpayable",
      "type": "function",
      "gas": "0xa7d8c0"
    },
    {
      "inputs": [
        {
          "internalType": "contract ISetToken",
          "name": "_setToken",
          "type": "address"
        },
        {
          "internalType": "uint256",
          "name": "",
          "type": "uint256"
        }
      ],
      "name": "moduleIssueHook",
      "outputs": [],
      "stateMutability": "nonpayable",
      "type": "function",
      "gas": "0xa7d8c0"
    },
    {
      "inputs": [
        {
          "internalType": "contract ISetToken",
          "name": "_setToken",
          "type": "address"
        },
        {
          "internalType": "uint256",
          "name": "",
          "type": "uint256"
        }
      ],
      "name": "moduleRedeemHook",
      "outputs": [],
      "stateMutability": "nonpayable",
      "type": "function",
      "gas": "0xa7d8c0"
    },
    {
      "inputs": [],
      "name": "owner",
      "outputs": [
        {
          "internalType": "address",
          "name": "",
          "type": "address"
        }
      ],
      "stateMutability": "view",
      "type": "function",
      "gas": "0xa7d8c0"
    },
    {
      "inputs": [],
      "name": "protocolDataProvider",
      "outputs": [
        {
          "internalType": "contract IAaveProtocolDataProvider",
          "name": "",
          "type": "address"
        }
      ],
      "stateMutability": "view",
      "type": "function",
      "gas": "0xa7d8c0"
    },
    {
      "inputs": [
        {
          "internalType": "contract ISetToken",
          "name": "_setToken",
          "type": "address"
        },
        {
          "internalType": "contract IDebtIssuanceModule",
          "name": "_debtIssuanceModule",
          "type": "address"
        }
      ],
      "name": "registerToModule",
      "outputs": [],
      "stateMutability": "nonpayable",
      "type": "function",
      "gas": "0xa7d8c0"
    },
    {
      "inputs": [
        {
          "internalType": "contract ISetToken",
          "name": "_setToken",
          "type": "address"
        },
        {
          "internalType": "contract IERC20[]",
          "name": "_borrowAssets",
          "type": "address[]"
        }
      ],
      "name": "removeBorrowAssets",
      "outputs": [],
      "stateMutability": "nonpayable",
      "type": "function",
      "gas": "0xa7d8c0"
    },
    {
      "inputs": [
        {
          "internalType": "contract ISetToken",
          "name": "_setToken",
          "type": "address"
        },
        {
          "internalType": "contract IERC20[]",
          "name": "_collateralAssets",
          "type": "address[]"
        }
      ],
      "name": "removeCollateralAssets",
      "outputs": [],
      "stateMutability": "nonpayable",
      "type": "function",
      "gas": "0xa7d8c0"
    },
    {
      "inputs": [],
      "name": "removeModule",
      "outputs": [],
      "stateMutability": "nonpayable",
      "type": "function",
      "gas": "0xa7d8c0"
    },
    {
      "inputs": [],
      "name": "renounceOwnership",
      "outputs": [],
      "stateMutability": "nonpayable",
      "type": "function",
      "gas": "0xa7d8c0"
    },
    {
      "inputs": [
        {
          "internalType": "contract ISetToken",
          "name": "_setToken",
          "type": "address"
        },
        {
          "internalType": "uint8",
          "name": "_categoryId",
          "type": "uint8"
        }
      ],
      "name": "setEModeCategory",
      "outputs": [],
      "stateMutability": "nonpayable",
      "type": "function",
      "gas": "0xa7d8c0"
    },
    {
      "inputs": [
        {
          "internalType": "contract ISetToken",
          "name": "_setToken",
          "type": "address"
        }
      ],
      "name": "sync",
      "outputs": [],
      "stateMutability": "nonpayable",
      "type": "function",
      "gas": "0xa7d8c0"
    },
    {
      "inputs": [
        {
          "internalType": "address",
          "name": "newOwner",
          "type": "address"
        }
      ],
      "name": "transferOwnership",
      "outputs": [],
      "stateMutability": "nonpayable",
      "type": "function",
      "gas": "0xa7d8c0"
    },
    {
      "inputs": [
        {
          "internalType": "contract IERC20",
          "name": "",
          "type": "address"
        }
      ],
      "name": "underlyingToReserveTokens",
      "outputs": [
        {
          "internalType": "contract IAToken",
          "name": "aToken",
          "type": "address"
        },
        {
          "internalType": "contract IVariableDebtToken",
          "name": "variableDebtToken",
          "type": "address"
        }
      ],
      "stateMutability": "view",
      "type": "function",
      "gas": "0xa7d8c0"
    },
    {
      "inputs": [
        {
          "internalType": "contract ISetToken",
          "name": "_setToken",
          "type": "address"
        },
        {
          "internalType": "bool",
          "name": "_status",
          "type": "bool"
        }
      ],
      "name": "updateAllowedSetToken",
      "outputs": [],
      "stateMutability": "nonpayable",
      "type": "function",
      "gas": "0xa7d8c0"
    },
    {
      "inputs": [
        {
          "internalType": "bool",
          "name": "_anySetAllowed",
          "type": "bool"
        }
      ],
      "name": "updateAnySetAllowed",
      "outputs": [],
      "stateMutability": "nonpayable",
      "type": "function",
      "gas": "0xa7d8c0"
    }
  ],
  "bytecode": "0x60c06040523480156200001157600080fd5b506040516200661e3803806200661e833981016040819052620000349162000542565b600080546001600160a01b0319166001600160a01b038416178155600180556200005d62000334565b600280546001600160a01b0319166001600160a01b038316908117909155604051919250906000907f8be0079c531659141344cd1fd0a4f28419497f9722a3daafe3b4186f6b6457e0908290a350806001600160a01b031660a0816001600160a01b031660601b815250506000816001600160a01b031663e860accb6040518163ffffffff1660e01b815260040160206040518083038186803b1580156200010457600080fd5b505afa15801562000119573d6000803e3d6000fd5b505050506040513d601f19601f820116820180604052508101906200013f9190620003da565b9050806001600160a01b03166080816001600160a01b031660601b815250506060816001600160a01b031663b316ff896040518163ffffffff1660e01b815260040160006040518083038186803b1580156200019a57600080fd5b505afa158015620001af573d6000803e3d6000fd5b505050506040513d6000823e601f3d908101601f19168201604052620001d9919081019062000453565b905060005b81518110156200032957600080846001600160a01b031663d2493b6c8585815181106200020757fe5b6020026020010151602001516040518263ffffffff1660e01b815260040162000231919062000580565b60606040518083038186803b1580156200024a57600080fd5b505afa1580156200025f573d6000803e3d6000fd5b505050506040513d601f19601f8201168201806040525081019062000285919062000400565b92505091506040518060400160405280836001600160a01b03168152602001826001600160a01b031681525060036000868681518110620002c257fe5b6020908102919091018101518101516001600160a01b039081168352828201939093526040909101600020835181549084166001600160a01b0319918216178255939091015160019182018054919093169316929092179055929092019150620001de9050565b5050505050620005d4565b3390565b80516200034581620005bb565b92915050565b600082601f8301126200035c578081fd5b81516001600160401b0381111562000372578182fd5b602062000388601f8301601f1916820162000594565b925081835284818386010111156200039f57600080fd5b60005b82811015620003bf578481018201518482018301528101620003a2565b82811115620003d15760008284860101525b50505092915050565b600060208284031215620003ec578081fd5b8151620003f981620005bb565b9392505050565b60008060006060848603121562000415578182fd5b83516200042281620005bb565b60208501519093506200043581620005bb565b60408501519092506200044881620005bb565b809150509250925092565b6000602080838503121562000466578182fd5b82516001600160401b03808211156200047d578384fd5b81850186601f8201126200048f578485fd5b8051925081831115620004a0578485fd5b620004af848585020162000594565b83815284810190828601875b86811015620005335781518501604080601f19838f03011215620004dd578a8bfd5b620004e88162000594565b8a83015189811115620004f9578c8dfd5b620005098f8d838701016200034b565b8252506200051a8e83850162000338565b818c0152865250509287019290870190600101620004bb565b50909998505050505050505050565b6000806040838503121562000555578182fd5b82516200056281620005bb565b60208401519092506200057581620005bb565b809150509250929050565b6001600160a01b0391909116815260200190565b6040518181016001600160401b0381118282101715620005b357600080fd5b604052919050565b6001600160a01b0381168114620005d157600080fd5b50565b60805160601c60a05160601c615fe46200063a600039806117785280611c8652806122f65280612d1e528061311052806131d35250806107115280610e945280612bbf5280612e09528061382252806138ef5280613a4f5280613b215250615fe46000f3fe608060405234801561001057600080fd5b50600436106101e55760003560e01c8063847ef08d1161010f578063c690a74c116100a2578063ee78244f11610071578063ee78244f146103e4578063f2fde38b146103f7578063f77c47911461040a578063ffbad25c14610412576101e5565b8063c690a74c1461038b578063d4fd27eb1461039e578063d9b210d3146103be578063e4e9ce92146103d1576101e5565b8063b1dd4d92116100de578063b1dd4d9214610368578063bba00ba514610370578063c137f4d714610378578063c153dd0714610251576101e5565b8063847ef08d146103245780638da5cb5b1461032c578063a584119414610334578063b1c0267814610347576101e5565b80634fdd283c116101875780635b136512116101565780635b136512146102e3578063715018a6146102f6578063717ca2a5146102fe5780637c7a624e14610311576101e5565b80634fdd283c14610297578063516595fc146102aa5780635199e418146102bd5780635809ae27146102d0576101e5565b80633f843bce116101c35780633f843bce1461023c5780633fe6106b14610251578063427eddb5146102645780634a200fa514610284576101e5565b806302577224146101ea5780630df96ef6146102145780630fb96b2114610229575b600080fd5b6101fd6101f8366004614e4a565b610425565b60405161020b92919061552b565b60405180910390f35b61022761022236600461502d565b61044b565b005b6102276102373660046152c1565b61061a565b61024461070f565b60405161020b9190615517565b61022761025f366004615296565b610733565b61027761027236600461511c565b61074b565b60405161020b9190615695565b61022761029236600461507b565b61076b565b6102276102a53660046151ea565b6109f0565b6102276102b836600461502d565b610b1a565b6102276102cb366004614fc2565b610b2e565b6102276102de36600461502d565b610ba0565b6102276102f136600461511c565b610cb3565b610227610daf565b61022761030c36600461502d565b610e2e565b61022761031f366004614e4a565b610e42565b610227610f4f565b6102446112fb565b610227610342366004614e4a565b61130b565b61035a610355366004614e4a565b61168f565b60405161020b929190615623565b61027761176d565b610244611776565b6102276103863660046152c1565b61179a565b6102276103993660046150e4565b611880565b6103b16103ac366004615149565b6119c8565b60405161020b9190615eeb565b6102276103cc366004615313565b611c54565b6102776103df36600461511c565b611d60565b6102776103f2366004614e4a565b611d80565b610227610405366004614e4a565b611d95565b610244611e4c565b6102276104203660046151ea565b611e5b565b600360205260009081526040902080546001909101546001600160a01b03918216911682565b8161045581611f6f565b60005b82518110156105cf57600083828151811061046f57fe5b6020908102919091018101516001600160a01b0380881660009081526005845260408082209284168252919093529091205490915060ff166104cc5760405162461bcd60e51b81526004016104c3906159d9565b60405180910390fd5b6001600160a01b03808216600090815260036020526040908190206001015490516370a0823160e01b81529116906370a082319061050e908890600401615517565b60206040518083038186803b15801561052657600080fd5b505afa15801561053a573d6000803e3d6000fd5b505050506040513d601f19601f8201168201806040525081019061055e9190615364565b1561057b5760405162461bcd60e51b81526004016104c39061599f565b6001600160a01b0380861660008181526005602090815260408083209486168352938152838220805460ff191690559181526006909152206105c6906001018263ffffffff611fbd16565b50600101610458565b5060001515836001600160a01b03167f1c400b459725a0446742d6688375dffe941d5f9a65fe3900c93e07d9e772250b8460405161060d9190615648565b60405180910390a3505050565b83610624816120ea565b81610708576040516308bafae960e21b81526000906001600160a01b038716906322ebeba49061065a908790309060040161552b565b60206040518083038186803b15801561067257600080fd5b505afa158015610686573d6000803e3d6000fd5b505050506040513d601f19601f820116820180604052508101906106aa9190615364565b9050600081126106cc5760405162461bcd60e51b81526004016104c390615a25565b60006106f8866106ec6106e78560001963ffffffff61222c16565b6122a0565b9063ffffffff6122c616565b90506107058786836122f0565b50505b5050505050565b7f000000000000000000000000000000000000000000000000000000000000000081565b8161073d816120ea565b6107468361130b565b505050565b600460209081526000928352604080842090915290825290205460ff1681565b8233610777828261238c565b84610781816123b2565b60085460ff166107c3576001600160a01b03861660009081526007602052604090205460ff166107c35760405162461bcd60e51b81526004016104c3906158dd565b856001600160a01b0316630ffe0f1e6040518163ffffffff1660e01b8152600401600060405180830381600087803b1580156107fe57600080fd5b505af1158015610812573d6000803e3d6000fd5b50505050856001600160a01b031663d7f1b27c61085b6040518060400160405280601581526020017444656661756c7449737375616e63654d6f64756c6560581b815250612473565b6040518263ffffffff1660e01b81526004016108779190615517565b60206040518083038186803b15801561088f57600080fd5b505afa1580156108a3573d6000803e3d6000fd5b505050506040513d601f19601f820116820180604052508101906108c79190614fde565b6108e35760405162461bcd60e51b81526004016104c390615b0f565b6060866001600160a01b031663b2494df36040518163ffffffff1660e01b815260040160006040518083038186803b15801561091e57600080fd5b505afa158015610932573d6000803e3d6000fd5b505050506040513d6000823e601f3d908101601f1916820160405261095a9190810190614f26565b905060005b81518110156109db5781818151811061097457fe5b60200260200101516001600160a01b031663d9b1b6e0896040518263ffffffff1660e01b81526004016109a79190615517565b600060405180830381600087803b1580156109c157600080fd5b505af19250505080156109d2575060015b5060010161095f565b506109e68787612491565b610705878661257e565b60026001541415610a135760405162461bcd60e51b81526004016104c390615e3d565b600260015586610a2281611f6f565b610a2a614cb9565b610a3a8989898989896000612655565b9050610a54816000015182602001518a846080015161270d565b6000610a62828a8a876127a3565b90506000610a718b8a84612a21565b90506000610a85838363ffffffff612a4416565b9050610a9b846000015185602001518c84612a86565b610aa5848b612adb565b896001600160a01b03168b6001600160a01b03168d6001600160a01b03167f7cda30123ddfc96659344700585861a8670352b9cc86d1b1054d10083b1dcdd4876040015188608001518688604051610b0094939291906156a0565b60405180910390a450506001805550505050505050505050565b81610b2481611f6f565b610746838361257e565b610b36612ba1565b6002546001600160a01b03908116911614610b635760405162461bcd60e51b81526004016104c390615bd9565b6008805460ff19168215159081179091556040517f563e1633136cdd43b8793897cb53ba2a9e31c18b3ae0b6827fbbb03b9902e6c690600090a250565b81610baa81611f6f565b60005b8251811015610c75576000838281518110610bc457fe5b6020908102919091018101516001600160a01b0380881660009081526004845260408082209284168252919093529091205490915060ff16610c185760405162461bcd60e51b81526004016104c390615832565b610c2485826000612ba5565b6001600160a01b0380861660008181526004602090815260408083209486168352938152838220805460ff19169055918152600690915220610c6c908263ffffffff611fbd16565b50600101610bad565b5060001515836001600160a01b03167fdd2a86f23a66f86496c82312e991b49f87ad96c4f25094a43c49f7aca0ea35428460405161060d9190615648565b81610cbd81611f6f565b6040516335fc6c9f60e21b81526001600160a01b0384169063d7f1b27c90610ce9908590600401615517565b60206040518083038186803b158015610d0157600080fd5b505afa158015610d15573d6000803e3d6000fd5b505050506040513d601f19601f82011682018060405250810190610d399190614fde565b610d555760405162461bcd60e51b81526004016104c390615b0f565b6040516306cd8db760e51b81526001600160a01b0383169063d9b1b6e090610d81908690600401615517565b600060405180830381600087803b158015610d9b57600080fd5b505af1158015610705573d6000803e3d6000fd5b610db7612ba1565b6002546001600160a01b03908116911614610de45760405162461bcd60e51b81526004016104c390615bd9565b6002546040516000916001600160a01b0316907f8be0079c531659141344cd1fd0a4f28419497f9722a3daafe3b4186f6b6457e0908390a3600280546001600160a01b0319169055565b81610e3881611f6f565b6107468383612491565b6001600160a01b038181166000908152600360205260409020541615610e7a5760405162461bcd60e51b81526004016104c390615ea4565b604051633e15014160e01b81526000906001600160a01b037f00000000000000000000000000000000000000000000000000000000000000001690633e15014190610ec9908590600401615517565b6101406040518083038186803b158015610ee257600080fd5b505afa158015610ef6573d6000803e3d6000fd5b505050506040513d601f19601f82011682018060405250810190610f1a919061537c565b509850505050505050505080610f425760405162461bcd60e51b81526004016104c3906157e6565b610f4b82612e04565b5050565b33610f5981611f95565b33610f638161130b565b6001600160a01b038116600090815260066020908152604091829020600101805483518184028101840190945280845260609392830182828015610fd057602002820191906000526020600020905b81546001600160a01b03168152600190910190602001808311610fb2575b50939450600093505050505b81518110156110eb576000828281518110610ff357fe5b6020908102919091018101516001600160a01b03808216600090815260039093526040928390206001015492516370a0823160e01b815291935091909116906370a0823190611046908790600401615517565b60206040518083038186803b15801561105e57600080fd5b505afa158015611072573d6000803e3d6000fd5b505050506040513d601f19601f820116820180604052508101906110969190615364565b156110b35760405162461bcd60e51b81526004016104c39061599f565b6001600160a01b038085166000908152600560209081526040808320949093168252929092529020805460ff19169055600101610fdc565b506001600160a01b03821660009081526006602090815260409182902080548351818402810184019094528084526060939283018282801561115657602002820191906000526020600020905b81546001600160a01b03168152600190910190602001808311611138575b50939450600093505050505b81518110156111c757600082828151811061117957fe5b6020026020010151905061118f85826000612ba5565b6001600160a01b038086166000908152600460209081526040808320949093168252929092529020805460ff19169055600101611162565b506001600160a01b0383166000908152600660205260408120906111eb8282614d05565b6111f9600183016000614d05565b50506060836001600160a01b031663b2494df36040518163ffffffff1660e01b815260040160006040518083038186803b15801561123657600080fd5b505afa15801561124a573d6000803e3d6000fd5b505050506040513d6000823e601f3d908101601f191682016040526112729190810190614f26565b905060005b81518110156112f35781818151811061128c57fe5b60200260200101516001600160a01b031663e0799620866040518263ffffffff1660e01b81526004016112bf9190615517565b600060405180830381600087803b1580156112d957600080fd5b505af19250505080156112ea575060015b50600101611277565b505050505050565b6002546001600160a01b03165b90565b6002600154141561132e5760405162461bcd60e51b81526004016104c390615e3d565b60026001558061133d81611f95565b6000826001600160a01b03166318160ddd6040518163ffffffff1660e01b815260040160206040518083038186803b15801561137857600080fd5b505afa15801561138c573d6000803e3d6000fd5b505050506040513d601f19601f820116820180604052508101906113b09190615364565b90508015611686576001600160a01b03831660009081526006602090815260409182902080548351818402810184019094528084526060939283018282801561142257602002820191906000526020600020905b81546001600160a01b03168152600190910190602001808311611404575b50939450600093505050505b81518110156115395760006003600084848151811061144957fe5b60200260200101516001600160a01b03166001600160a01b0316815260200190815260200160002060000160009054906101000a90046001600160a01b03169050600061150b876001600160a01b03166366cb8d2f846040518263ffffffff1660e01b81526004016114bb9190615517565b60206040518083038186803b1580156114d357600080fd5b505afa1580156114e7573d6000803e3d6000fd5b505050506040513d601f19601f820116820180604052508101906106e79190615364565b9050600061151a888488612f1b565b905080821461152e5761152e888483612fb5565b50505060010161142e565b506001600160a01b0384166000908152600660209081526040918290206001018054835181840281018401909452808452606093928301828280156115a757602002820191906000526020600020905b81546001600160a01b03168152600190910190602001808311611589575b50939450600093505050505b81518110156116825760008282815181106115ca57fe5b602002602001015190506000876001600160a01b03166322ebeba483306040518363ffffffff1660e01b815260040161160492919061552b565b60206040518083038186803b15801561161c57600080fd5b505afa158015611630573d6000803e3d6000fd5b505050506040513d601f19601f820116820180604052508101906116549190615364565b90506000611663898489612fcf565b905081811461167757611677898483613090565b5050506001016115b3565b5050505b50506001805550565b6001600160a01b038116600090815260066020908152604091829020805483518184028101840190945280845260609384936001840192849183018282801561170157602002820191906000526020600020905b81546001600160a01b031681526001909101906020018083116116e3575b505050505091508080548060200260200160405190810160405280929190818152602001828054801561175d57602002820191906000526020600020905b81546001600160a01b0316815260019091019060200180831161173f575b5050505050905091509150915091565b60085460ff1681565b7f000000000000000000000000000000000000000000000000000000000000000081565b836117a4816120ea565b81610708576040516308bafae960e21b81526000906001600160a01b038716906322ebeba4906117da908790309060040161552b565b60206040518083038186803b1580156117f257600080fd5b505afa158015611806573d6000803e3d6000fd5b505050506040513d601f19601f8201168201806040525081019061182a9190615364565b90506000811261184c5760405162461bcd60e51b81526004016104c390615a25565b6000611873866118676106e78560001963ffffffff61222c16565b9063ffffffff6130bf16565b905061070587868361310a565b611888612ba1565b6002546001600160a01b039081169116146118b55760405162461bcd60e51b81526004016104c390615bd9565b600054604051631d3af8fb60e21b81526001600160a01b03909116906374ebe3ec906118e5908590600401615517565b60206040518083038186803b1580156118fd57600080fd5b505afa158015611911573d6000803e3d6000fd5b505050506040513d601f19601f820116820180604052508101906119359190614fde565b8061195857506001600160a01b03821660009081526007602052604090205460ff165b6119745760405162461bcd60e51b81526004016104c390615ca9565b6001600160a01b038216600081815260076020526040808220805460ff191685151590811790915590519092917f2035981b48691b10f6ac65174e570b4d0a8a889ae01bef3e5e7759ff9444f0c491a35050565b6000600260015414156119ed5760405162461bcd60e51b81526004016104c390615e3d565b6002600155866119fc81611f6f565b6000886001600160a01b03166318160ddd6040518163ffffffff1660e01b815260040160206040518083038186803b158015611a3757600080fd5b505afa158015611a4b573d6000803e3d6000fd5b505050506040513d601f19601f82011682018060405250810190611a6f9190615364565b90506000611a83878363ffffffff6122c616565b6001600160a01b03808c166000908152600560209081526040808320938d168352929052205490915060ff16611acb5760405162461bcd60e51b81526004016104c3906159d9565b6001600160a01b038089166000908152600360205260408082206001015490516370a0823160e01b8152919216906370a0823190611b0d908e90600401615517565b60206040518083038186803b158015611b2557600080fd5b505afa158015611b39573d6000803e3d6000fd5b505050506040513d601f19601f82011682018060405250810190611b5d9190615364565b905060008111611b7f5760405162461bcd60e51b81526004016104c390615e20565b611b87614cb9565b611b988c8c8c86868d60008b6131a6565b9050611bb2816000015182602001518d846080015161270d565b611bbe818c8c8a6127a3565b50611bd3816000015182602001518c85612a86565b611bdd818b612adb565b896001600160a01b03168b6001600160a01b03168d6001600160a01b03167f7cda30123ddfc96659344700585861a8670352b9cc86d1b1054d10083b1dcdd484604001518560800151876000604051611c3994939291906156a0565b60405180910390a450600180559a9950505050505050505050565b81611c5e81611f6f565b826001600160a01b031673__$2acd73dbef26b73907493cf3a99b81b527$__63c09b1b0890917f00000000000000000000000000000000000000000000000000000000000000006001600160a01b031663026b1d5f6040518163ffffffff1660e01b815260040160206040518083038186803b158015611cdd57600080fd5b505afa158015611cf1573d6000803e3d6000fd5b505050506040513d601f19601f82011682018060405250810190611d159190614e66565b856040518463ffffffff1660e01b8152600401611d349392919061574e565b60006040518083038186803b158015611d4c57600080fd5b505af4158015610705573d6000803e3d6000fd5b600560209081526000928352604080842090915290825290205460ff1681565b60076020526000908152604090205460ff1681565b611d9d612ba1565b6002546001600160a01b03908116911614611dca5760405162461bcd60e51b81526004016104c390615bd9565b6001600160a01b038116611df05760405162461bcd60e51b81526004016104c390615897565b6002546040516001600160a01b038084169216907f8be0079c531659141344cd1fd0a4f28419497f9722a3daafe3b4186f6b6457e090600090a3600280546001600160a01b0319166001600160a01b0392909216919091179055565b6000546001600160a01b031681565b60026001541415611e7e5760405162461bcd60e51b81526004016104c390615e3d565b600260015586611e8d81611f6f565b611e95614cb9565b611ea58989898989896001612655565b9050611ec3816000015182602001518360e001518460800151613358565b6000611ed1828a8a876127a3565b90506000611ee08b8a84612a21565b90506000611ef4838363ffffffff612a4416565b9050611f0a846000015185602001518c846133a1565b611f14848c6133f3565b896001600160a01b03168b6001600160a01b03168d6001600160a01b03167f359f8b62a966cfd521a3815681266407201b20a7c334925faa49e7d9d5dd57ab876040015188608001518688604051610b0094939291906156a0565b611f798133613457565b611f955760405162461bcd60e51b81526004016104c390615dcc565b611f9e816134e5565b611fba5760405162461bcd60e51b81526004016104c39061584f565b50565b6000806120238480548060200260200160405190810160405280929190818152602001828054801561201857602002820191906000526020600020905b81546001600160a01b03168152600190910190602001808311611ffa575b5050505050846135e9565b91509150806120445760405162461bcd60e51b81526004016104c3906157b7565b8354600019018281146120b65784818154811061205d57fe5b9060005260206000200160009054906101000a90046001600160a01b031685848154811061208757fe5b9060005260206000200160006101000a8154816001600160a01b0302191690836001600160a01b031602179055505b848054806120c057fe5b600082815260209020810160001990810180546001600160a01b0319169055019055505b50505050565b6002604051631ade272960e11b81526001600160a01b038316906335bc4e5290612118903390600401615517565b60206040518083038186803b15801561213057600080fd5b505afa158015612144573d6000803e3d6000fd5b505050506040513d601f19601f820116820180604052508101906121689190615345565b600281111561217357fe5b146121905760405162461bcd60e51b81526004016104c390615ad8565b6000546040516342f6e38960e01b81526001600160a01b03909116906342f6e389906121c0903390600401615517565b60206040518083038186803b1580156121d857600080fd5b505afa1580156121ec573d6000803e3d6000fd5b505050506040513d601f19601f820116820180604052508101906122109190614fde565b611fba5760405162461bcd60e51b81526004016104c390615d45565b60008261223b5750600061229a565b8260001914801561224f5750600160ff1b82145b1561226c5760405162461bcd60e51b81526004016104c390615c2b565b8282028284828161227957fe5b05146122975760405162461bcd60e51b81526004016104c390615c2b565b90505b92915050565b6000808212156122c25760405162461bcd60e51b81526004016104c390615a60565b5090565b6000612297670de0b6b3a76400006122e4858563ffffffff61364f16565b9063ffffffff61368916565b610746837f00000000000000000000000000000000000000000000000000000000000000006001600160a01b031663026b1d5f6040518163ffffffff1660e01b815260040160206040518083038186803b15801561234d57600080fd5b505afa158015612361573d6000803e3d6000fd5b505050506040513d601f19601f820116820180604052508101906123859190614e66565b8484613358565b6123968282613457565b610f4b5760405162461bcd60e51b81526004016104c390615dcc565b600054604051631d3af8fb60e21b81526001600160a01b03909116906374ebe3ec906123e2908490600401615517565b60206040518083038186803b1580156123fa57600080fd5b505afa15801561240e573d6000803e3d6000fd5b505050506040513d601f19601f820116820180604052508101906124329190614fde565b61244e5760405162461bcd60e51b81526004016104c390615d89565b612457816136cb565b611fba5760405162461bcd60e51b81526004016104c390615968565b60008061247f836136fa565b905061248a81613705565b9392505050565b60005b81518110156125345760008282815181106124ab57fe5b602002602001015190506124bf84826137c2565b6124cb84826001612ba5565b6001600160a01b03808516600081815260046020908152604080832095909416808352948152838220805460ff19166001908117909155928252600681529281208054808401825590825292902090910180546001600160a01b03191690921790915501612494565b5060011515826001600160a01b03167fdd2a86f23a66f86496c82312e991b49f87ad96c4f25094a43c49f7aca0ea3542836040516125729190615648565b60405180910390a35050565b60005b815181101561261757600082828151811061259857fe5b602002602001015190506125ac84826139ef565b6001600160a01b03808516600081815260056020908152604080832095909416808352948152838220805460ff191660019081179091559282526006815292812082018054808401825590825292902090910180546001600160a01b03191690921790915501612581565b5060011515826001600160a01b03167f1c400b459725a0446742d6688375dffe941d5f9a65fe3900c93e07d9e772250b836040516125729190615648565b61265d614cb9565b6000886001600160a01b03166318160ddd6040518163ffffffff1660e01b815260040160206040518083038186803b15801561269857600080fd5b505afa1580156126ac573d6000803e3d6000fd5b505050506040513d601f19601f820116820180604052508101906126d09190615364565b90506127008989896126e88a8663ffffffff6122c616565b6126f88a8763ffffffff6122c616565b8989886131a6565b9998505050505050505050565b60405163c56df3ab60e01b815273__$2acd73dbef26b73907493cf3a99b81b527$__9063c56df3ab90612753906001600160a01b038816908790879087906004016156f0565b60206040518083038186803b15801561276b57600080fd5b505af415801561277f573d6000803e3d6000fd5b505050506040513d601f19601f820116820180604052508101906107089190615364565b60008085600001519050600086608001519050612836828789604001516001600160a01b031663334fc2896040518163ffffffff1660e01b815260040160206040518083038186803b1580156127f857600080fd5b505afa15801561280c573d6000803e3d6000fd5b505050506040513d601f19601f820116820180604052508101906128309190614e66565b84613c21565b600080606089604001516001600160a01b031663e171fcab8a8a88888f60a001518d6040518763ffffffff1660e01b815260040161287996959493929190615545565b60006040518083038186803b15801561289157600080fd5b505afa1580156128a5573d6000803e3d6000fd5b505050506040513d6000823e601f3d908101601f191682016040526128cd9190810190614ece565b925092509250846001600160a01b0316638f6f03328484846040518463ffffffff1660e01b8152600401612903939291906155fc565b600060405180830381600087803b15801561291d57600080fd5b505af1158015612931573d6000803e3d6000fd5b505050506040513d6000823e601f3d908101601f191682016040526129599190810190614ffa565b5060006129ed8b61010001518a6001600160a01b03166370a08231896040518263ffffffff1660e01b81526004016129919190615517565b60206040518083038186803b1580156129a957600080fd5b505afa1580156129bd573d6000803e3d6000fd5b505050506040513d601f19601f820116820180604052508101906129e19190615364565b9063ffffffff612a4416565b90508a60a00151811015612a135760405162461bcd60e51b81526004016104c390615e03565b9a9950505050505050505050565b600080612a2f600084613c58565b9050612a3c858583613ced565b949350505050565b600061229783836040518060400160405280601e81526020017f536166654d6174683a207375627472616374696f6e206f766572666c6f770000815250613d94565b612a9284838584613c21565b6040516380395c1560e01b815273__$2acd73dbef26b73907493cf3a99b81b527$__906380395c1590612753906001600160a01b0388169087908790879060029060040161571a565b81516040516370a0823160e01b81526000916001600160a01b038416916370a0823191612b0a91600401615517565b60206040518083038186803b158015612b2257600080fd5b505afa158015612b36573d6000803e3d6000fd5b505050506040513d601f19601f82011682018060405250810190612b5a9190615364565b90508261010001518114612b975760608301516101008401518451612b93926001600160a01b039091169185919063ffffffff613dc016565b5050505b61074683836133f3565b3390565b6040516328dd2d0160e01b81526000906001600160a01b037f000000000000000000000000000000000000000000000000000000000000000016906328dd2d0190612bf6908690889060040161552b565b6101206040518083038186803b158015612c0f57600080fd5b505afa158015612c23573d6000803e3d6000fd5b505050506040513d601f19601f82011682018060405250810190612c479190615422565b9850505050505050505081151581151514158015612cf157506001600160a01b038084166000908152600360205260408082205490516370a0823160e01b8152919216906370a0823190612c9f908890600401615517565b60206040518083038186803b158015612cb757600080fd5b505afa158015612ccb573d6000803e3d6000fd5b505050506040513d601f19601f82011682018060405250810190612cef9190615364565b115b156120e457836001600160a01b031673__$2acd73dbef26b73907493cf3a99b81b527$__6378dabb1390917f00000000000000000000000000000000000000000000000000000000000000006001600160a01b031663026b1d5f6040518163ffffffff1660e01b815260040160206040518083038186803b158015612d7557600080fd5b505afa158015612d89573d6000803e3d6000fd5b505050506040513d601f19601f82011682018060405250810190612dad9190614e66565b86866040518563ffffffff1660e01b8152600401612dce94939291906156c6565b60006040518083038186803b158015612de657600080fd5b505af4158015612dfa573d6000803e3d6000fd5b5050505050505050565b6000807f00000000000000000000000000000000000000000000000000000000000000006001600160a01b031663d2493b6c846040518263ffffffff1660e01b8152600401612e539190615517565b60606040518083038186803b158015612e6b57600080fd5b505afa158015612e7f573d6000803e3d6000fd5b505050506040513d601f19601f82011682018060405250810190612ea39190614e82565b6001600160a01b0380871660008181526003602052604080822080548589166001600160a01b03199182168117835560019092018054968816969091168617905590519698509396509194929350917fc45243255b6bdd38d8648b8c5e5b9429c7143b47e850cad1601dc1edbb6a3b5b9190a4505050565b600080836001600160a01b03166370a08231866040518263ffffffff1660e01b8152600401612f4a9190615517565b60206040518083038186803b158015612f6257600080fd5b505afa158015612f76573d6000803e3d6000fd5b505050506040513d601f19601f82011682018060405250810190612f9a9190615364565b9050612fac818463ffffffff613eb116565b95945050505050565b6107466001600160a01b038416838363ffffffff613ecf16565b6001600160a01b038083166000908152600360205260408082206001015490516370a0823160e01b8152919283929116906370a0823190613014908890600401615517565b60206040518083038186803b15801561302c57600080fd5b505afa158015613040573d6000803e3d6000fd5b505050506040513d601f19601f820116820180604052508101906130649190615364565b9050612fac60001961308461307f848763ffffffff61404316565b614096565b9063ffffffff61222c16565b604080516020810190915260008152610746906001600160a01b0385169084903090859063ffffffff6140bb16565b60008215806130cc575081155b156130d95750600061229a565b61229760016130fe670de0b6b3a76400006122e4836129e1898963ffffffff61364f16565b9063ffffffff61467316565b610746837f00000000000000000000000000000000000000000000000000000000000000006001600160a01b031663026b1d5f6040518163ffffffff1660e01b815260040160206040518083038186803b15801561316757600080fd5b505afa15801561317b573d6000803e3d6000fd5b505050506040513d601f19601f8201168201806040525081019061319f9190614e66565b8484612a86565b6131ae614cb9565b6131b6614cb9565b6040518061012001604052808b6001600160a01b031681526020017f00000000000000000000000000000000000000000000000000000000000000006001600160a01b031663026b1d5f6040518163ffffffff1660e01b815260040160206040518083038186803b15801561322a57600080fd5b505afa15801561323e573d6000803e3d6000fd5b505050506040513d601f19601f820116820180604052508101906132629190614e66565b6001600160a01b0316815260200161327987612473565b6001600160a01b03168152602001848152602001888152602001878152602001856132a4578a6132a6565b895b6001600160a01b03168152602001856132bf57896132c1565b8a5b6001600160a01b03168152602001896001600160a01b03166370a082318d6040518263ffffffff1660e01b81526004016132fb9190615517565b60206040518083038186803b15801561331357600080fd5b505afa158015613327573d6000803e3d6000fd5b505050506040513d601f19601f8201168201806040525081019061334b9190615364565b9052905061270081614698565b604051634738693b60e11b815273__$2acd73dbef26b73907493cf3a99b81b527$__90638e70d27690612dce906001600160a01b0388169087908790879060029060040161571a565b6133ad84838584613c21565b604051636d6c328f60e01b815273__$2acd73dbef26b73907493cf3a99b81b527$__90636d6c328f90612dce906001600160a01b038816908790879087906004016156f0565b60c08201516001600160a01b039081166000908152600360205260409020548351606085015191909216916134369183906134319083908390612f1b565b612fb5565b6107468360000151836134528660000151868860600151612fcf565b613090565b6000816001600160a01b0316836001600160a01b031663481c6a756040518163ffffffff1660e01b815260040160206040518083038186803b15801561349c57600080fd5b505afa1580156134b0573d6000803e3d6000fd5b505050506040513d601f19601f820116820180604052508101906134d49190614e66565b6001600160a01b0316149392505050565b60008054604051631d3af8fb60e21b81526001600160a01b03909116906374ebe3ec90613516908590600401615517565b60206040518083038186803b15801561352e57600080fd5b505afa158015613542573d6000803e3d6000fd5b505050506040513d601f19601f820116820180604052508101906135669190614fde565b801561229a57506040516335fc6c9f60e21b81526001600160a01b0383169063d7f1b27c90613599903090600401615517565b60206040518083038186803b1580156135b157600080fd5b505afa1580156135c5573d6000803e3d6000fd5b505050506040513d601f19601f8201168201806040525081019061229a9190614fde565b81516000908190815b8181101561363c57846001600160a01b031686828151811061361057fe5b60200260200101516001600160a01b03161415613634579250600191506136489050565b6001016135f2565b50600019600092509250505b9250929050565b60008261365e5750600061229a565b8282028284828161366b57fe5b04146122975760405162461bcd60e51b81526004016104c390615b98565b600061229783836040518060400160405280601a81526020017f536166654d6174683a206469766973696f6e206279207a65726f00000000000081525061478e565b6040516353bae5f760e01b81526000906001600160a01b038316906353bae5f790613599903090600401615517565b805160209091012090565b60008054819061371d906001600160a01b03166147c5565b6001600160a01b031663e6d642c530856040518363ffffffff1660e01b815260040161374a9291906155e3565b60206040518083038186803b15801561376257600080fd5b505afa158015613776573d6000803e3d6000fd5b505050506040513d601f19601f8201168201806040525081019061379a9190614e66565b90506001600160a01b03811661229a5760405162461bcd60e51b81526004016104c3906159f6565b6001600160a01b0380831660009081526004602090815260408083209385168352929052205460ff16156138085760405162461bcd60e51b81526004016104c390615931565b6040516334924edb60e21b81526000906001600160a01b037f0000000000000000000000000000000000000000000000000000000000000000169063d2493b6c90613857908590600401615517565b60606040518083038186803b15801561386f57600080fd5b505afa158015613883573d6000803e3d6000fd5b505050506040513d601f19601f820116820180604052508101906138a79190614e82565b50506001600160a01b038381166000908152600360205260409020549192508281169116146138e85760405162461bcd60e51b81526004016104c390615787565b60008060007f00000000000000000000000000000000000000000000000000000000000000006001600160a01b0316633e150141866040518263ffffffff1660e01b81526004016139399190615517565b6101406040518083038186803b15801561395257600080fd5b505afa158015613966573d6000803e3d6000fd5b505050506040513d601f19601f8201168201806040525081019061398a919061537c565b99509950505097505050505050816139b45760405162461bcd60e51b81526004016104c390615a43565b80156139d25760405162461bcd60e51b81526004016104c390615c0e565b826112f35760405162461bcd60e51b81526004016104c390615832565b6001600160a01b0380831660009081526005602090815260408083209385168352929052205460ff1615613a355760405162461bcd60e51b81526004016104c390615e74565b6040516334924edb60e21b81526000906001600160a01b037f0000000000000000000000000000000000000000000000000000000000000000169063d2493b6c90613a84908590600401615517565b60606040518083038186803b158015613a9c57600080fd5b505afa158015613ab0573d6000803e3d6000fd5b505050506040513d601f19601f82011682018060405250810190613ad49190614e82565b6001600160a01b038581166000908152600360205260409020600101549194508481169116149150613b1a90505760405162461bcd60e51b81526004016104c390615a95565b60008060007f00000000000000000000000000000000000000000000000000000000000000006001600160a01b0316633e150141866040518263ffffffff1660e01b8152600401613b6b9190615517565b6101406040518083038186803b158015613b8457600080fd5b505afa158015613b98573d6000803e3d6000fd5b505050506040513d601f19601f82011682018060405250810190613bbc919061537c565b9950995050985050505050505081613be65760405162461bcd60e51b81526004016104c390615a43565b8015613c045760405162461bcd60e51b81526004016104c390615c0e565b826112f35760405162461bcd60e51b81526004016104c3906159d9565b613c3d6001600160a01b0385168484600063ffffffff61484416565b6120e46001600160a01b03851684848463ffffffff61484416565b6000805460405163792aa04f60e01b815282916001600160a01b03169063792aa04f90613c8b90309088906004016155e3565b60206040518083038186803b158015613ca357600080fd5b505afa158015613cb7573d6000803e3d6000fd5b505050506040513d601f19601f82011682018060405250810190613cdb9190615364565b9050612a3c838263ffffffff6122c616565b801561074657610746826000809054906101000a90046001600160a01b03166001600160a01b031663469048406040518163ffffffff1660e01b815260040160206040518083038186803b158015613d4457600080fd5b505afa158015613d58573d6000803e3d6000fd5b505050506040513d601f19601f82011682018060405250810190613d7c9190614e66565b6001600160a01b03861691908463ffffffff61490b16565b60008184841115613db85760405162461bcd60e51b81526004016104c39190615774565b505050900390565b600080600080866001600160a01b03166370a08231896040518263ffffffff1660e01b8152600401613df29190615517565b60206040518083038186803b158015613e0a57600080fd5b505afa158015613e1e573d6000803e3d6000fd5b505050506040513d601f19601f82011682018060405250810190613e429190615364565b90506000613e75896001600160a01b03166366cb8d2f8a6040518263ffffffff1660e01b81526004016114bb9190615517565b905060008215613e9257613e8b88888585614a4d565b9050613e96565b5060005b613ea18a8a83613ecf565b9199909850909650945050505050565b6000612297826122e485670de0b6b3a764000063ffffffff61364f16565b6000613edb8484614a9c565b905080158015613eeb5750600082115b15613f6257613efa8484614b23565b613f5d576040516304e3532760e41b81526001600160a01b03851690634e35327090613f2a908690600401615517565b600060405180830381600087803b158015613f4457600080fd5b505af1158015613f58573d6000803e3d6000fd5b505050505b613fdf565b808015613f6d575081155b15613fdf57613f7c8484614b23565b613fdf57604051636f86c89760e01b81526001600160a01b03851690636f86c89790613fac908690600401615517565b600060405180830381600087803b158015613fc657600080fd5b505af1158015613fda573d6000803e3d6000fd5b505050505b836001600160a01b0316632ba57d1784613ff885614096565b6040518363ffffffff1660e01b81526004016140159291906155e3565b600060405180830381600087803b15801561402f57600080fd5b505af1158015612dfa573d6000803e3d6000fd5b6000816140625760405162461bcd60e51b81526004016104c390615ec1565b60008311614071576000612297565b61229760016130fe846122e4836129e189670de0b6b3a764000063ffffffff61364f16565b6000600160ff1b82106122c25760405162461bcd60e51b81526004016104c390615cfd565b81156143b05760405163df5e9b2960e01b81526001600160a01b0386169063df5e9b29906140ed908790600401615517565b60206040518083038186803b15801561410557600080fd5b505afa158015614119573d6000803e3d6000fd5b505050506040513d601f19601f8201168201806040525081019061413d9190614fde565b614204576040516304e3532760e41b81526001600160a01b03861690634e3532709061416d908790600401615517565b600060405180830381600087803b15801561418757600080fd5b505af115801561419b573d6000803e3d6000fd5b505060405163ea0ee55960e01b81526001600160a01b038816925063ea0ee55991506141cd908790879060040161552b565b600060405180830381600087803b1580156141e757600080fd5b505af11580156141fb573d6000803e3d6000fd5b505050506142e7565b604051637d96659360e01b81526001600160a01b03861690637d96659390614232908790879060040161552b565b60206040518083038186803b15801561424a57600080fd5b505afa15801561425e573d6000803e3d6000fd5b505050506040513d601f19601f820116820180604052508101906142829190614fde565b6142e75760405163ea0ee55960e01b81526001600160a01b0386169063ea0ee559906142b4908790879060040161552b565b600060405180830381600087803b1580156142ce57600080fd5b505af11580156142e2573d6000803e3d6000fd5b505050505b6040516363a90fc160e01b81526001600160a01b038616906363a90fc190614317908790879087906004016155bf565b600060405180830381600087803b15801561433157600080fd5b505af1158015614345573d6000803e3d6000fd5b50506040516326898fe160e01b81526001600160a01b03881692506326898fe1915061437990879087908690600401615593565b600060405180830381600087803b15801561439357600080fd5b505af11580156143a7573d6000803e3d6000fd5b50505050610708565b8051156143cf5760405162461bcd60e51b81526004016104c390615cc6565b6040516308bafae960e21b81526001600160a01b038616906322ebeba4906143fd908790879060040161552b565b60206040518083038186803b15801561441557600080fd5b505afa158015614429573d6000803e3d6000fd5b505050506040513d601f19601f8201168201806040525081019061444d9190615364565b156107085760405163a7bdad0360e01b81526060906001600160a01b0387169063a7bdad0390614481908890600401615517565b60006040518083038186803b15801561449957600080fd5b505afa1580156144ad573d6000803e3d6000fd5b505050506040513d6000823e601f3d908101601f191682016040526144d59190810190614f26565b6040516366cb8d2f60e01b81529091506001600160a01b038716906366cb8d2f90614504908890600401615517565b60206040518083038186803b15801561451c57600080fd5b505afa158015614530573d6000803e3d6000fd5b505050506040513d601f19601f820116820180604052508101906145549190615364565b158015614562575080516001145b1561460b57836001600160a01b03168160008151811061457e57fe5b60200260200101516001600160a01b0316146145ac5760405162461bcd60e51b81526004016104c390615b2c565b604051636f86c89760e01b81526001600160a01b03871690636f86c897906145d8908890600401615517565b600060405180830381600087803b1580156145f257600080fd5b505af1158015614606573d6000803e3d6000fd5b505050505b60405163acf3f07760e01b81526001600160a01b0387169063acf3f07790614639908890889060040161552b565b600060405180830381600087803b15801561465357600080fd5b505af1158015614667573d6000803e3d6000fd5b50505050505050505050565b6000828201838110156122975760405162461bcd60e51b81526004016104c3906158fa565b80516001600160a01b03908116600090815260046020908152604080832060c08601519094168352929052205460ff166146e45760405162461bcd60e51b81526004016104c390615832565b80516001600160a01b03908116600090815260056020908152604080832060e08601519094168352929052205460ff166147305760405162461bcd60e51b81526004016104c3906159d9565b8060e001516001600160a01b03168160c001516001600160a01b0316141561476a5760405162461bcd60e51b81526004016104c3906159bc565b6000816080015111611fba5760405162461bcd60e51b81526004016104c390615b7c565b600081836147af5760405162461bcd60e51b81526004016104c39190615774565b5060008385816147bb57fe5b0495945050505050565b6040516373b2e76b60e11b81526000906001600160a01b0383169063e765ced6906147f4908490600401615eeb565b60206040518083038186803b15801561480c57600080fd5b505afa158015614820573d6000803e3d6000fd5b505050506040513d601f19601f8201168201806040525081019061229a9190614e66565b606082826040516024016148599291906155e3565b60408051601f198184030181529181526020820180516001600160e01b031663095ea7b360e01b179052516347b7819960e11b81529091506001600160a01b03861690638f6f0332906148b590879060009086906004016155fc565b600060405180830381600087803b1580156148cf57600080fd5b505af11580156148e3573d6000803e3d6000fd5b505050506040513d6000823e601f3d908101601f191682016040526112f39190810190614ffa565b80156120e4576040516370a0823160e01b81526000906001600160a01b038516906370a0823190614940908890600401615517565b60206040518083038186803b15801561495857600080fd5b505afa15801561496c573d6000803e3d6000fd5b505050506040513d601f19601f820116820180604052508101906149909190615364565b905061499e85858585614baf565b6040516370a0823160e01b81526000906001600160a01b038616906370a08231906149cd908990600401615517565b60206040518083038186803b1580156149e557600080fd5b505afa1580156149f9573d6000803e3d6000fd5b505050506040513d601f19601f82011682018060405250810190614a1d9190615364565b9050614a2f828463ffffffff612a4416565b81146112f35760405162461bcd60e51b81526004016104c390615c72565b600080614a70614a63848863ffffffff6122c616565b869063ffffffff612a4416565b9050614a9286614a86868463ffffffff612a4416565b9063ffffffff613eb116565b9695505050505050565b600080836001600160a01b03166366cb8d2f846040518263ffffffff1660e01b8152600401614acb9190615517565b60206040518083038186803b158015614ae357600080fd5b505afa158015614af7573d6000803e3d6000fd5b505050506040513d601f19601f82011682018060405250810190614b1b9190615364565b139392505050565b600080836001600160a01b031663a7bdad03846040518263ffffffff1660e01b8152600401614b529190615517565b60006040518083038186803b158015614b6a57600080fd5b505afa158015614b7e573d6000803e3d6000fd5b505050506040513d6000823e601f3d908101601f19168201604052614ba69190810190614f26565b51119392505050565b80156120e45760608282604051602401614bca9291906155e3565b60408051601f198184030181529181526020820180516001600160e01b031663a9059cbb60e01b179052516347b7819960e11b81529091506060906001600160a01b03871690638f6f033290614c2990889060009087906004016155fc565b600060405180830381600087803b158015614c4357600080fd5b505af1158015614c57573d6000803e3d6000fd5b505050506040513d6000823e601f3d908101601f19168201604052614c7f9190810190614ffa565b8051909150156112f35780806020019051810190614c9d9190614fde565b6112f35760405162461bcd60e51b81526004016104c390615803565b6040805161012081018252600080825260208201819052918101829052606081018290526080810182905260a0810182905260c0810182905260e0810182905261010081019190915290565b5080546000825590600052602060002090810190611fba919061130891905b808211156122c25760008155600101614d24565b600082601f830112614d48578081fd5b8135614d5b614d5682615f1b565b615ef4565b818152915060208083019084810181840286018201871015614d7c57600080fd5b60005b84811015614da4578135614d9281615f8b565b84529282019290820190600101614d7f565b505050505092915050565b600082601f830112614dbf578081fd5b8135614dcd614d5682615f3b565b9150808252836020828501011115614de457600080fd5b8060208401602084013760009082016020015292915050565b600082601f830112614e0d578081fd5b8151614e1b614d5682615f3b565b9150808252836020828501011115614e3257600080fd5b614e43816020840160208601615f5f565b5092915050565b600060208284031215614e5b578081fd5b813561229781615f8b565b600060208284031215614e77578081fd5b815161229781615f8b565b600080600060608486031215614e96578182fd5b8351614ea181615f8b565b6020850151909350614eb281615f8b565b6040850151909250614ec381615f8b565b809150509250925092565b600080600060608486031215614ee2578283fd5b8351614eed81615f8b565b60208501516040860151919450925067ffffffffffffffff811115614f10578182fd5b614f1c86828701614dfd565b9150509250925092565b60006020808385031215614f38578182fd5b825167ffffffffffffffff811115614f4e578283fd5b80840185601f820112614f5f578384fd5b80519150614f6f614d5683615f1b565b8281528381019082850185850284018601891015614f8b578687fd5b8693505b84841015614fb6578051614fa281615f8b565b835260019390930192918501918501614f8f565b50979650505050505050565b600060208284031215614fd3578081fd5b813561229781615fa0565b600060208284031215614fef578081fd5b815161229781615fa0565b60006020828403121561500b578081fd5b815167ffffffffffffffff811115615021578182fd5b612a3c84828501614dfd565b6000806040838503121561503f578182fd5b823561504a81615f8b565b9150602083013567ffffffffffffffff811115615065578182fd5b61507185828601614d38565b9150509250929050565b60008060006060848603121561508f578081fd5b833561509a81615f8b565b9250602084013567ffffffffffffffff808211156150b6578283fd5b6150c287838801614d38565b935060408601359150808211156150d7578283fd5b50614f1c86828701614d38565b600080604083850312156150f6578182fd5b823561510181615f8b565b9150602083013561511181615fa0565b809150509250929050565b6000806040838503121561512e578182fd5b823561513981615f8b565b9150602083013561511181615f8b565b60008060008060008060c08789031215615161578384fd5b863561516c81615f8b565b9550602087013561517c81615f8b565b9450604087013561518c81615f8b565b935060608701359250608087013567ffffffffffffffff808211156151af578384fd5b6151bb8a838b01614daf565b935060a08901359150808211156151d0578283fd5b506151dd89828a01614daf565b9150509295509295509295565b600080600080600080600060e0888a031215615204578485fd5b873561520f81615f8b565b9650602088013561521f81615f8b565b9550604088013561522f81615f8b565b9450606088013593506080880135925060a088013567ffffffffffffffff80821115615259578283fd5b6152658b838c01614daf565b935060c08a013591508082111561527a578283fd5b506152878a828b01614daf565b91505092959891949750929550565b600080604083850312156152a8578182fd5b82356152b381615f8b565b946020939093013593505050565b600080600080608085870312156152d6578182fd5b84356152e181615f8b565b93506020850135925060408501356152f881615f8b565b9150606085013561530881615fa0565b939692955090935050565b60008060408385031215615325578182fd5b823561533081615f8b565b9150602083013560ff81168114615111578182fd5b600060208284031215615356578081fd5b815160038110612297578182fd5b600060208284031215615375578081fd5b5051919050565b6000806000806000806000806000806101408b8d03121561539b578384fd5b8a51995060208b0151985060408b0151975060608b0151965060808b0151955060a08b01516153c981615fa0565b60c08c01519095506153da81615fa0565b60e08c01519094506153eb81615fa0565b6101008c01519093506153fd81615fa0565b6101208c015190925061540f81615fa0565b809150509295989b9194979a5092959850565b60008060008060008060008060006101208a8c031215615440578283fd5b8951985060208a0151975060408a0151965060608a0151955060808a0151945060a08a0151935060c08a0151925060e08a015164ffffffffff81168114615485578283fd5b6101008b015190925061549781615fa0565b809150509295985092959850929598565b6000815180845260208085019450808401835b838110156154e05781516001600160a01b0316875295820195908201906001016154bb565b509495945050505050565b60008151808452615503816020860160208601615f5f565b601f01601f19169290920160200192915050565b6001600160a01b0391909116815260200190565b6001600160a01b0392831681529116602082015260400190565b6001600160a01b038781168252868116602083015285166040820152606081018490526080810183905260c060a08201819052600090615587908301846154eb565b98975050505050505050565b6001600160a01b03848116825283166020820152606060408201819052600090612fac908301846154eb565b6001600160a01b039384168152919092166020820152604081019190915260600190565b6001600160a01b03929092168252602082015260400190565b600060018060a01b038516825283602083015260606040830152612fac60608301846154eb565b60006040825261563660408301856154a8565b8281036020840152612fac81856154a8565b6020808252825182820181905260009190848201906040850190845b818110156156895783516001600160a01b031683529284019291840191600101615664565b50909695505050505050565b901515815260200190565b6001600160a01b0394909416845260208401929092526040830152606082015260800190565b6001600160a01b039485168152928416602084015292166040820152901515606082015260800190565b6001600160a01b039485168152928416602084015292166040820152606081019190915260800190565b6001600160a01b03958616815293851660208501529190931660408301526060820192909252608081019190915260a00190565b6001600160a01b03938416815291909216602082015260ff909116604082015260600190565b60006020825261229760208301846154eb565b602080825260169082015275496e76616c69642061546f6b656e206164647265737360501b604082015260600190565b60208082526015908201527420b2323932b9b9903737ba1034b71030b93930bc9760591b604082015260600190565b60208082526003908201526249414560e81b604082015260600190565b602080825260159082015274115490cc8c081d1c985b9cd9995c8819985a5b1959605a1b604082015260600190565b602080825260039082015262434e4560e81b604082015260600190565b60208082526028908201527f4d75737420626520612076616c696420616e6420696e697469616c697a65642060408201526729b2ba2a37b5b2b760c11b606082015260800190565b60208082526026908201527f4f776e61626c653a206e6577206f776e657220697320746865207a65726f206160408201526564647265737360d01b606082015260800190565b6020808252600390820152624e415360e81b604082015260600190565b6020808252601b908201527f536166654d6174683a206164646974696f6e206f766572666c6f770000000000604082015260600190565b6020808252601a908201527f436f6c6c61746572616c20616c726561647920656e61626c6564000000000000604082015260600190565b6020808252601e908201527f4d7573742062652070656e64696e6720696e697469616c697a6174696f6e0000604082015260600190565b6020808252600390820152622b222960e91b604082015260600190565b60208082526003908201526243424560e81b604082015260600190565b602080825260039082015262424e4560e81b604082015260600190565b60208082526015908201527426bab9ba103132903b30b634b21030b230b83a32b960591b604082015260600190565b60208082526004908201526321a6a12760e11b604082015260600190565b60208082526003908201526224a0a960e91b604082015260600190565b6020808252818101527f53616665436173743a2076616c7565206d75737420626520706f736974697665604082015260600190565b60208082526023908201527f496e76616c6964207661726961626c65206465627420746f6b656e206164647260408201526265737360e81b606082015260800190565b60208082526018908201527f4f6e6c7920746865206d6f64756c652063616e2063616c6c0000000000000000604082015260600190565b602080825260039082015262494e4960e81b604082015260600190565b60208082526030908201527f45787465726e616c20706f736974696f6e73206d757374206265203020746f2060408201526f1c995b5bdd994818dbdb5c1bdb995b9d60821b606082015260800190565b6020808252600290820152615a5160f01b604082015260600190565b60208082526021908201527f536166654d6174683a206d756c7469706c69636174696f6e206f766572666c6f6040820152607760f81b606082015260800190565b6020808252818101527f4f776e61626c653a2063616c6c6572206973206e6f7420746865206f776e6572604082015260600190565b6020808252600390820152622320a960e91b604082015260600190565b60208082526027908201527f5369676e6564536166654d6174683a206d756c7469706c69636174696f6e206f604082015266766572666c6f7760c81b606082015260800190565b6020808252601d908201527f496e76616c696420706f7374207472616e736665722062616c616e6365000000604082015260600190565b6020808252600390820152621254d560ea1b604082015260600190565b60208082526018908201527f5061737365642064617461206d757374206265206e756c6c0000000000000000604082015260600190565b60208082526028908201527f53616665436173743a2076616c756520646f65736e27742066697420696e2061604082015267371034b73a191a9b60c11b606082015260800190565b60208082526024908201527f4d6f64756c65206d75737420626520656e61626c6564206f6e20636f6e74726f604082015263363632b960e11b606082015260800190565b60208082526023908201527f4d75737420626520636f6e74726f6c6c65722d656e61626c656420536574546f60408201526235b2b760e91b606082015260800190565b6020808252601c908201527f4d7573742062652074686520536574546f6b656e206d616e6167657200000000604082015260600190565b6020808252600390820152620a6a8960eb1b604082015260600190565b60208082526003908201526221212d60e91b604082015260600190565b6020808252601f908201527f5265656e7472616e637947756172643a207265656e7472616e742063616c6c00604082015260600190565b602080825260169082015275109bdc9c9bddc8185b1c9958591e48195b98589b195960521b604082015260600190565b6020808252600390820152624d414560e81b604082015260600190565b60208082526010908201526f043616e742064697669646520627920360841b604082015260600190565b90815260200190565b60405181810167ffffffffffffffff81118282101715615f1357600080fd5b604052919050565b600067ffffffffffffffff821115615f31578081fd5b5060209081020190565b600067ffffffffffffffff821115615f51578081fd5b50601f01601f191660200190565b60005b83811015615f7a578181015183820152602001615f62565b838111156120e45750506000910152565b6001600160a01b0381168114611fba57600080fd5b8015158114611fba57600080fdfea26469706673582212208a7803ce5579138763aefe2cd060fb7ba128f990dab0632ca8087cb8afb05af564736f6c634300060a0033",
  "linkReferences": {
    "contracts/protocol/integration/lib/AaveV3.sol": {
      "AaveV3": [
        {
          "length": 20,
          "start": 8868
        },
        {
          "length": 20,
          "start": 11606
        },
        {
          "length": 20,
          "start": 12507
        },
        {
          "length": 20,
          "start": 13116
        },
        {
          "length": 20,
          "start": 14753
        },
        {
          "length": 20,
          "start": 14838
        }
      ]
    }
  },
  "deployedLinkReferences": {
    "contracts/protocol/integration/lib/AaveV3.sol": {
      "AaveV3": [
        {
          "length": 20,
          "start": 7274
        },
        {
          "length": 20,
          "start": 10012
        },
        {
          "length": 20,
          "start": 10913
        },
        {
          "length": 20,
          "start": 11522
        },
        {
          "length": 20,
          "start": 13159
        },
        {
          "length": 20,
          "start": 13244
        }
      ]
    }
  }
}