{
  "_format": "hh-sol-artifact-1",
  "contractName": "AaveV3",
  "sourceName": "contracts/protocol/integration/lib/AaveV3.sol",
  "abi": [
    {
      "inputs": [
        {
          "internalType": "contract IPool",
          "name": "_pool",
          "type": "IPool"
        },
        {
          "internalType": "address",
          "name": "_asset",
          "type": "address"
        },
        {
          "internalType": "uint256",
          "name": "_amountNotional",
          "type": "uint256"
        },
        {
          "internalType": "uint256",
          "name": "_interestRateMode",
          "type": "uint256"
        },
        {
          "internalType": "uint16",
          "name": "_referralCode",
          "type": "uint16"
        },
        {
          "internalType": "address",
          "name": "_onBehalfOf",
          "type": "address"
        }
      ],
      "name": "getBorrowCalldata",
      "outputs": [
        {
          "internalType": "address",
          "name": "",
          "type": "address"
        },
        {
          "internalType": "uint256",
          "name": "",
          "type": "uint256"
        },
        {
          "internalType": "bytes",
          "name": "",
          "type": "bytes"
        }
      ],
      "stateMutability": "pure",
      "type": "function",
      "gas": "0xa7d8c0"
    },
    {
      "inputs": [
        {
          "internalType": "contract IPool",
          "name": "_pool",
          "type": "IPool"
        },
        {
          "internalType": "address",
          "name": "_asset",
          "type": "address"
        },
        {
          "internalType": "uint256",
          "name": "_amountNotional",
          "type": "uint256"
        },
        {
          "internalType": "uint256",
          "name": "_interestRateMode",
          "type": "uint256"
        },
        {
          "internalType": "address",
          "name": "_onBehalfOf",
          "type": "address"
        }
      ],
      "name": "getRepayCalldata",
      "outputs": [
        {
          "internalType": "address",
          "name": "",
          "type": "address"
        },
        {
          "internalType": "uint256",
          "name": "",
          "type": "uint256"
        },
        {
          "internalType": "bytes",
          "name": "",
          "type": "bytes"
        }
      ],
      "stateMutability": "pure",
      "type": "function",
      "gas": "0xa7d8c0"
    },
    {
      "inputs": [
        {
          "internalType": "contract IPool",
          "name": "_pool",
          "type": "IPool"
        },
        {
          "internalType": "uint8",
          "name": "_categoryId",
          "type": "uint8"
        }
      ],
      "name": "getSetUserEmodeCalldata",
      "outputs": [
        {
          "internalType": "address",
          "name": "",
          "type": "address"
        },
        {
          "internalType": "uint256",
          "name": "",
          "type": "uint256"
        },
        {
          "internalType": "bytes",
          "name": "",
          "type": "bytes"
        }
      ],
      "stateMutability": "pure",
      "type": "function",
      "gas": "0xa7d8c0"
    },
    {
      "inputs": [
        {
          "internalType": "contract IPool",
          "name": "_pool",
          "type": "IPool"
        },
        {
          "internalType": "address",
          "name": "_asset",
          "type": "address"
        },
        {
          "internalType": "bool",
          "name": "_useAsCollateral",
          "type": "bool"
        }
      ],
      "name": "getSetUserUseReserveAsCollateralCalldata",
      "outputs": [
        {
          "internalType": "address",
          "name": "",
          "type": "address"
        },
        {
          "internalType": "uint256",
          "name": "",
          "type": "uint256"
        },
        {
          "internalType": "bytes",
          "name": "",
          "type": "bytes"
        }
      ],
      "stateMutability": "pure",
      "type": "function",
      "gas": "0xa7d8c0"
    },
    {
      "inputs": [
        {
          "internalType": "contract IPool",
          "name": "_pool",
          "type": "IPool"
        },
        {
          "internalType": "address",
          "name": "_asset",
          "type": "address"
        },
        {
          "internalType": "uint256",
          "name": "_amountNotional",
          "type": "uint256"
        },
        {
          "internalType": "address",
          "name": "_onBehalfOf",
          "type": "address"
        },
        {
          "internalType": "uint16",
          "name": "_referralCode",
          "type": "uint16"
        }
      ],
      "name": "getSupplyCalldata",
      "outputs": [
        {
          "internalType": "address",
          "name": "",
          "type": "address"
        },
        {
          "internalType": "uint256",
          "name": "",
          "type": "uint256"
        },
        {
          "internalType": "bytes",
          "name": "",
          "type": "bytes"
        }
      ],
      "stateMutability": "pure",
      "type": "function",
      "gas": "0xa7d8c0"
    },
    {
      "inputs": [
        {
          "internalType": "contract IPool",
          "name": "_pool",
          "type": "IPool"
        },
        {
          "internalType": "address",
          "name": "_asset",
          "type": "address"
        },
        {
          "internalType": "uint256",
          "name": "_rateMode",
          "type": "uint256"
        }
      ],
      "name": "getSwapBorrowRateModeCalldata",
      "outputs": [
        {
          "internalType": "address",
          "name": "",
          "type": "address"
        },
        {
          "internalType": "uint256",
          "name": "",
          "type": "uint256"
        },
        {
          "internalType": "bytes",
          "name": "",
          "type": "bytes"
        }
      ],
      "stateMutability": "pure",
      "type": "function",
      "gas": "0xa7d8c0"
    },
    {
      "inputs": [
        {
          "internalType": "contract IPool",
          "name": "_pool",
          "type": "IPool"
        },
        {
          "internalType": "address",
          "name": "_asset",
          "type": "address"
        },
        {
          "internalType": "uint256",
          "name": "_amountNotional",
          "type": "uint256"
        },
        {
          "internalType": "address",
          "name": "_receiver",
          "type": "address"
        }
      ],
      "name": "getWithdrawCalldata",
      "outputs": [
        {
          "internalType": "address",
          "name": "",
          "type": "address"
        },
        {
          "internalType": "uint256",
          "name": "",
          "type": "uint256"
        },
        {
          "internalType": "bytes",
          "name": "",
          "type": "bytes"
        }
      ],
      "stateMutability": "pure",
      "type": "function",
      "gas": "0xa7d8c0"
    }
  ],
  "bytecode": "0x61117e610026600b82828239805160001a60731461001957fe5b30600052607381538281f3fe73000000000000000000000000000000000000000030146080604052600436106100f45760003560e01c806399c67a6d11610096578063c09b1b0811610070578063c09b1b081461044e578063c56df3ab14610495578063e4d8a3be146104de578063fcb4588c14610516576100f4565b806399c67a6d1461039a578063a4e324cc146103c9578063b7686c0314610412576100f4565b80636ea7af53116100d25780636ea7af531461025657806378dabb131461029f57806380395c15146102ea5780638e70d2761461034b576100f4565b8063366849b1146100f95780633da184b0146101d55780636d6c328f1461020b575b600080fd5b61013d600480360360a081101561010f57600080fd5b506001600160a01b038135811691602081013582169160408201359160608101359160809091013516610562565b60405180846001600160a01b03166001600160a01b0316815260200183815260200180602001828103825283818151815260200191508051906020019080838360005b83811015610198578181015183820152602001610180565b50505050905090810190601f1680156101c55780820380516001836020036101000a031916815260200191505b5094505050505060405180910390f35b61013d600480360360608110156101eb57600080fd5b506001600160a01b038135811691602081013590911690604001356105c6565b81801561021757600080fd5b506102546004803603608081101561022e57600080fd5b506001600160a01b03813581169160208101358216916040820135169060600135610618565b005b61013d600480360360a081101561026c57600080fd5b5080356001600160a01b039081169160208101358216916040820135916060810135909116906080013561ffff166107ea565b8180156102ab57600080fd5b50610254600480360360808110156102c257600080fd5b506001600160a01b038135811691602081013582169160408201351690606001351515610852565b8180156102f657600080fd5b50610339600480360360a081101561030d57600080fd5b506001600160a01b0381358116916020810135821691604082013516906060810135906080013561085f565b60408051918252519081900360200190f35b81801561035757600080fd5b50610254600480360360a081101561036e57600080fd5b506001600160a01b03813581169160208101358216916040820135169060608101359060800135610a4b565b61013d600480360360408110156103b057600080fd5b5080356001600160a01b0316906020013560ff16610c1f565b8180156103d557600080fd5b50610254600480360360808110156103ec57600080fd5b506001600160a01b03813581169160208101358216916040820135169060600135610c65565b61013d6004803603608081101561042857600080fd5b506001600160a01b03813581169160208101358216916040820135916060013516610c72565b81801561045a57600080fd5b506102546004803603606081101561047157600080fd5b5080356001600160a01b03908116916020810135909116906040013560ff16610ccd565b8180156104a157600080fd5b50610339600480360360808110156104b857600080fd5b506001600160a01b03813581169160208101358216916040820135169060600135610e9a565b61013d600480360360608110156104f457600080fd5b506001600160a01b038135811691602081013590911690604001351515611084565b61013d600480360360c081101561052c57600080fd5b506001600160a01b038135811691602081013582169160408201359160608101359161ffff6080830135169160a00135166110d8565b604080516001600160a01b039586166024820152604481019490945260648401929092529092166084808301919091528251808303909101815260a49091019091526020810180516001600160e01b031663573ade8160e01b179052909160009190565b604080516001600160a01b039390931660248401526044808401929092528051808403909201825260649092019091526020810180516001600160e01b0316634a5d44d160e11b179052909160009190565b60606106288484848860006107ea565b92505050846001600160a01b0316638f6f0332856000846040518463ffffffff1660e01b815260040180846001600160a01b03166001600160a01b0316815260200183815260200180602001828103825283818151815260200191508051906020019080838360005b838110156106a9578181015183820152602001610691565b50505050905090810190601f1680156106d65780820380516001836020036101000a031916815260200191505b50945050505050600060405180830381600087803b1580156106f757600080fd5b505af115801561070b573d6000803e3d6000fd5b505050506040513d6000823e601f3d908101601f19168201604052602081101561073457600080fd5b8101908080516040519392919084600160201b82111561075357600080fd5b90830190602082018581111561076857600080fd5b8251600160201b81118282018810171561078157600080fd5b82525081516020918201929091019080838360005b838110156107ae578181015183820152602001610796565b50505050905090810190601f1680156107db5780820380516001836020036101000a031916815260200191505b50604052505050505050505050565b604080516001600160a01b039586166024820152604481019490945291909316606483015261ffff9092166084808301919091528251808303909101815260a49091019091526020810180516001600160e01b031663617ba03760e01b179052909160009190565b6060610628848484611084565b60006060610870868686868b610562565b92505050866001600160a01b0316638f6f0332876000846040518463ffffffff1660e01b815260040180846001600160a01b03166001600160a01b0316815260200183815260200180602001828103825283818151815260200191508051906020019080838360005b838110156108f15781810151838201526020016108d9565b50505050905090810190601f16801561091e5780820380516001836020036101000a031916815260200191505b50945050505050600060405180830381600087803b15801561093f57600080fd5b505af1158015610953573d6000803e3d6000fd5b505050506040513d6000823e601f3d908101601f19168201604052602081101561097c57600080fd5b8101908080516040519392919084600160201b82111561099b57600080fd5b9083019060208201858111156109b057600080fd5b8251600160201b8111828201881017156109c957600080fd5b82525081516020918201929091019080838360005b838110156109f65781810151838201526020016109de565b50505050905090810190601f168015610a235780820380516001836020036101000a031916815260200191505b506040525050508060200190516020811015610a3e57600080fd5b5051979650505050505050565b6060610a5c8585858560008b6110d8565b92505050856001600160a01b0316638f6f0332866000846040518463ffffffff1660e01b815260040180846001600160a01b03166001600160a01b0316815260200183815260200180602001828103825283818151815260200191508051906020019080838360005b83811015610add578181015183820152602001610ac5565b50505050905090810190601f168015610b0a5780820380516001836020036101000a031916815260200191505b50945050505050600060405180830381600087803b158015610b2b57600080fd5b505af1158015610b3f573d6000803e3d6000fd5b505050506040513d6000823e601f3d908101601f191682016040526020811015610b6857600080fd5b8101908080516040519392919084600160201b821115610b8757600080fd5b908301906020820185811115610b9c57600080fd5b8251600160201b811182820188101715610bb557600080fd5b82525081516020918201929091019080838360005b83811015610be2578181015183820152602001610bca565b50505050905090810190601f168015610c0f5780820380516001836020036101000a031916815260200191505b5060405250505050505050505050565b6040805160ff9290921660248084019190915281518084039091018152604490920190526020810180516001600160e01b03166328530a4760e01b179052909160009190565b60606106288484846105c6565b604080516001600160a01b039485166024820152604481019390935292166064808301919091528251808303909101815260849091019091526020810180516001600160e01b0316631a4ca37b60e21b179052909160009190565b6060610cd98383610c1f565b92505050836001600160a01b0316638f6f0332846000846040518463ffffffff1660e01b815260040180846001600160a01b03166001600160a01b0316815260200183815260200180602001828103825283818151815260200191508051906020019080838360005b83811015610d5a578181015183820152602001610d42565b50505050905090810190601f168015610d875780820380516001836020036101000a031916815260200191505b50945050505050600060405180830381600087803b158015610da857600080fd5b505af1158015610dbc573d6000803e3d6000fd5b505050506040513d6000823e601f3d908101601f191682016040526020811015610de557600080fd5b8101908080516040519392919084600160201b821115610e0457600080fd5b908301906020820185811115610e1957600080fd5b8251600160201b811182820188101715610e3257600080fd5b82525081516020918201929091019080838360005b83811015610e5f578181015183820152602001610e47565b50505050905090810190601f168015610e8c5780820380516001836020036101000a031916815260200191505b506040525050505050505050565b60006060610eaa85858589610c72565b92505050856001600160a01b0316638f6f0332866000846040518463ffffffff1660e01b815260040180846001600160a01b03166001600160a01b0316815260200183815260200180602001828103825283818151815260200191508051906020019080838360005b83811015610f2b578181015183820152602001610f13565b50505050905090810190601f168015610f585780820380516001836020036101000a031916815260200191505b50945050505050600060405180830381600087803b158015610f7957600080fd5b505af1158015610f8d573d6000803e3d6000fd5b505050506040513d6000823e601f3d908101601f191682016040526020811015610fb657600080fd5b8101908080516040519392919084600160201b821115610fd557600080fd5b908301906020820185811115610fea57600080fd5b8251600160201b81118282018810171561100357600080fd5b82525081516020918201929091019080838360005b83811015611030578181015183820152602001611018565b50505050905090810190601f16801561105d5780820380516001836020036101000a031916815260200191505b50604052505050806020019051602081101561107857600080fd5b50519695505050505050565b604080516001600160a01b0393909316602484015290151560448084019190915281518084039091018152606490920190526020810180516001600160e01b0316635a3b74b960e01b179052909160009190565b604080516001600160a01b0396871660248201526044810195909552606485019390935261ffff91909116608484015290921660a4808301919091528251808303909101815260c49091019091526020810180516001600160e01b031663a415bcad60e01b17905290916000919056fea26469706673582212206f9e2b067fba4b5273bca4f3d9609a10bd35495904523e06756e0791805697a464736f6c634300060a0033",
  "linkReferences": {},
  "deployedLinkReferences": {}
}