{
  "_format": "hh-sol-artifact-1",
  "contractName": "AaveLeverageModule",
  "sourceName": "contracts/protocol/modules/AaveLeverageModule.sol",
  "abi": [
    {
      "inputs": [
        {
          "internalType": "contract IController",
          "name": "_controller",
          "type": "address"
        },
        {
          "internalType": "contract ILendingPoolAddressesProvider",
          "name": "_lendingPoolAddressesProvider",
          "type": "address"
        },
        {
          "internalType": "contract IProtocolDataProvider",
          "name": "_protocolDataProvider",
          "type": "address"
        }
      ],
      "stateMutability": "nonpayable",
      "type": "constructor"
    },
    {
      "anonymous": false,
      "inputs": [
        {
          "indexed": true,
          "internalType": "contract IERC20",
          "name": "_underlying",
          "type": "address"
        },
        {
          "components": [
            {
              "internalType": "contract IAToken",
              "name": "aToken",
              "type": "address"
            },
            {
              "internalType": "contract IVariableDebtToken",
              "name": "variableDebtToken",
              "type": "address"
            }
          ],
          "indexed": true,
          "internalType": "struct AaveLeverageModule.ReserveTokens",
          "name": "_reserveTokens",
          "type": "tuple"
        }
      ],
      "name": "AaveReserveUpdated",
      "type": "event"
    },
    {
      "anonymous": false,
      "inputs": [
        {
          "indexed": true,
          "internalType": "bool",
          "name": "_anySetAllowed",
          "type": "bool"
        }
      ],
      "name": "AnySetAllowedUpdated",
      "type": "event"
    },
    {
      "anonymous": false,
      "inputs": [
        {
          "indexed": true,
          "internalType": "contract ISetToken",
          "name": "_setToken",
          "type": "address"
        },
        {
          "indexed": true,
          "internalType": "bool",
          "name": "_added",
          "type": "bool"
        },
        {
          "indexed": false,
          "internalType": "contract IERC20[]",
          "name": "_assets",
          "type": "address[]"
        }
      ],
      "name": "BorrowAssetsUpdated",
      "type": "event"
    },
    {
      "anonymous": false,
      "inputs": [
        {
          "indexed": true,
          "internalType": "contract ISetToken",
          "name": "_setToken",
          "type": "address"
        },
        {
          "indexed": true,
          "internalType": "bool",
          "name": "_added",
          "type": "bool"
        },
        {
          "indexed": false,
          "internalType": "contract IERC20[]",
          "name": "_assets",
          "type": "address[]"
        }
      ],
      "name": "CollateralAssetsUpdated",
      "type": "event"
    },
    {
      "anonymous": false,
      "inputs": [
        {
          "indexed": true,
          "internalType": "contract ILendingPool",
          "name": "_LendingPool",
          "type": "address"
        }
      ],
      "name": "LendingPoolUpdated",
      "type": "event"
    },
    {
      "anonymous": false,
      "inputs": [
        {
          "indexed": true,
          "internalType": "contract ISetToken",
          "name": "_setToken",
          "type": "address"
        },
        {
          "indexed": true,
          "internalType": "contract IERC20",
          "name": "_collateralAsset",
          "type": "address"
        },
        {
          "indexed": true,
          "internalType": "contract IERC20",
          "name": "_repayAsset",
          "type": "address"
        },
        {
          "indexed": false,
          "internalType": "contract IExchangeAdapter",
          "name": "_exchangeAdapter",
          "type": "address"
        },
        {
          "indexed": false,
          "internalType": "uint256",
          "name": "_totalRedeemAmount",
          "type": "uint256"
        },
        {
          "indexed": false,
          "internalType": "uint256",
          "name": "_totalRepayAmount",
          "type": "uint256"
        },
        {
          "indexed": false,
          "internalType": "uint256",
          "name": "_protocolFee",
          "type": "uint256"
        }
      ],
      "name": "LeverageDecreased",
      "type": "event"
    },
    {
      "anonymous": false,
      "inputs": [
        {
          "indexed": true,
          "internalType": "contract ISetToken",
          "name": "_setToken",
          "type": "address"
        },
        {
          "indexed": true,
          "internalType": "contract IERC20",
          "name": "_borrowAsset",
          "type": "address"
        },
        {
          "indexed": true,
          "internalType": "contract IERC20",
          "name": "_collateralAsset",
          "type": "address"
        },
        {
          "indexed": false,
          "internalType": "contract IExchangeAdapter",
          "name": "_exchangeAdapter",
          "type": "address"
        },
        {
          "indexed": false,
          "internalType": "uint256",
          "name": "_totalBorrowAmount",
          "type": "uint256"
        },
        {
          "indexed": false,
          "internalType": "uint256",
          "name": "_totalReceiveAmount",
          "type": "uint256"
        },
        {
          "indexed": false,
          "internalType": "uint256",
          "name": "_protocolFee",
          "type": "uint256"
        }
      ],
      "name": "LeverageIncreased",
      "type": "event"
    },
    {
      "anonymous": false,
      "inputs": [
        {
          "indexed": true,
          "internalType": "address",
          "name": "previousOwner",
          "type": "address"
        },
        {
          "indexed": true,
          "internalType": "address",
          "name": "newOwner",
          "type": "address"
        }
      ],
      "name": "OwnershipTransferred",
      "type": "event"
    },
    {
      "anonymous": false,
      "inputs": [
        {
          "indexed": true,
          "internalType": "contract ISetToken",
          "name": "_setToken",
          "type": "address"
        },
        {
          "indexed": true,
          "internalType": "bool",
          "name": "_added",
          "type": "bool"
        }
      ],
      "name": "SetTokenStatusUpdated",
      "type": "event"
    },
    {
      "inputs": [
        {
          "internalType": "contract ISetToken",
          "name": "_setToken",
          "type": "address"
        },
        {
          "internalType": "contract IERC20[]",
          "name": "_newBorrowAssets",
          "type": "address[]"
        }
      ],
      "name": "addBorrowAssets",
      "outputs": [],
      "stateMutability": "nonpayable",
      "type": "function",
      "gas": "0xaeb690"
    },
    {
      "inputs": [
        {
          "internalType": "contract ISetToken",
          "name": "_setToken",
          "type": "address"
        },
        {
          "internalType": "contract IERC20[]",
          "name": "_newCollateralAssets",
          "type": "address[]"
        }
      ],
      "name": "addCollateralAssets",
      "outputs": [],
      "stateMutability": "nonpayable",
      "type": "function",
      "gas": "0xaeb690"
    },
    {
      "inputs": [
        {
          "internalType": "contract ISetToken",
          "name": "",
          "type": "address"
        }
      ],
      "name": "allowedSetTokens",
      "outputs": [
        {
          "internalType": "bool",
          "name": "",
          "type": "bool"
        }
      ],
      "stateMutability": "view",
      "type": "function",
      "gas": "0xaeb690"
    },
    {
      "inputs": [],
      "name": "anySetAllowed",
      "outputs": [
        {
          "internalType": "bool",
          "name": "",
          "type": "bool"
        }
      ],
      "stateMutability": "view",
      "type": "function",
      "gas": "0xaeb690"
    },
    {
      "inputs": [
        {
          "internalType": "contract ISetToken",
          "name": "",
          "type": "address"
        },
        {
          "internalType": "contract IERC20",
          "name": "",
          "type": "address"
        }
      ],
      "name": "borrowAssetEnabled",
      "outputs": [
        {
          "internalType": "bool",
          "name": "",
          "type": "bool"
        }
      ],
      "stateMutability": "view",
      "type": "function",
      "gas": "0xaeb690"
    },
    {
      "inputs": [
        {
          "internalType": "contract ISetToken",
          "name": "",
          "type": "address"
        },
        {
          "internalType": "contract IERC20",
          "name": "",
          "type": "address"
        }
      ],
      "name": "collateralAssetEnabled",
      "outputs": [
        {
          "internalType": "bool",
          "name": "",
          "type": "bool"
        }
      ],
      "stateMutability": "view",
      "type": "function",
      "gas": "0xaeb690"
    },
    {
      "inputs": [
        {
          "internalType": "contract ISetToken",
          "name": "_setToken",
          "type": "address"
        },
        {
          "internalType": "uint256",
          "name": "_setTokenQuantity",
          "type": "uint256"
        },
        {
          "internalType": "contract IERC20",
          "name": "_component",
          "type": "address"
        },
        {
          "internalType": "bool",
          "name": "",
          "type": "bool"
        }
      ],
      "name": "componentIssueHook",
      "outputs": [],
      "stateMutability": "nonpayable",
      "type": "function",
      "gas": "0xaeb690"
    },
    {
      "inputs": [
        {
          "internalType": "contract ISetToken",
          "name": "_setToken",
          "type": "address"
        },
        {
          "internalType": "uint256",
          "name": "_setTokenQuantity",
          "type": "uint256"
        },
        {
          "internalType": "contract IERC20",
          "name": "_component",
          "type": "address"
        },
        {
          "internalType": "bool",
          "name": "",
          "type": "bool"
        }
      ],
      "name": "componentRedeemHook",
      "outputs": [],
      "stateMutability": "nonpayable",
      "type": "function",
      "gas": "0xaeb690"
    },
    {
      "inputs": [],
      "name": "controller",
      "outputs": [
        {
          "internalType": "contract IController",
          "name": "",
          "type": "address"
        }
      ],
      "stateMutability": "view",
      "type": "function",
      "gas": "0xaeb690"
    },
    {
      "inputs": [
        {
          "internalType": "contract ISetToken",
          "name": "_setToken",
          "type": "address"
        },
        {
          "internalType": "contract IERC20",
          "name": "_collateralAsset",
          "type": "address"
        },
        {
          "internalType": "contract IERC20",
          "name": "_repayAsset",
          "type": "address"
        },
        {
          "internalType": "uint256",
          "name": "_redeemQuantity",
          "type": "uint256"
        },
        {
          "internalType": "uint256",
          "name": "_minRepayQuantity",
          "type": "uint256"
        },
        {
          "internalType": "string",
          "name": "_tradeAdapterName",
          "type": "string"
        },
        {
          "internalType": "bytes",
          "name": "_tradeData",
          "type": "bytes"
        }
      ],
      "name": "delever",
      "outputs": [],
      "stateMutability": "nonpayable",
      "type": "function",
      "gas": "0xaeb690"
    },
    {
      "inputs": [
        {
          "internalType": "contract ISetToken",
          "name": "_setToken",
          "type": "address"
        },
        {
          "internalType": "contract IERC20",
          "name": "_collateralAsset",
          "type": "address"
        },
        {
          "internalType": "contract IERC20",
          "name": "_repayAsset",
          "type": "address"
        },
        {
          "internalType": "uint256",
          "name": "_redeemQuantity",
          "type": "uint256"
        },
        {
          "internalType": "string",
          "name": "_tradeAdapterName",
          "type": "string"
        },
        {
          "internalType": "bytes",
          "name": "_tradeData",
          "type": "bytes"
        }
      ],
      "name": "deleverToZeroBorrowBalance",
      "outputs": [
        {
          "internalType": "uint256",
          "name": "",
          "type": "uint256"
        }
      ],
      "stateMutability": "nonpayable",
      "type": "function",
      "gas": "0xaeb690"
    },
    {
      "inputs": [
        {
          "internalType": "contract ISetToken",
          "name": "_setToken",
          "type": "address"
        }
      ],
      "name": "getEnabledAssets",
      "outputs": [
        {
          "internalType": "address[]",
          "name": "",
          "type": "address[]"
        },
        {
          "internalType": "address[]",
          "name": "",
          "type": "address[]"
        }
      ],
      "stateMutability": "view",
      "type": "function",
      "gas": "0xaeb690"
    },
    {
      "inputs": [
        {
          "internalType": "contract ISetToken",
          "name": "_setToken",
          "type": "address"
        },
        {
          "internalType": "contract IERC20[]",
          "name": "_collateralAssets",
          "type": "address[]"
        },
        {
          "internalType": "contract IERC20[]",
          "name": "_borrowAssets",
          "type": "address[]"
        }
      ],
      "name": "initialize",
      "outputs": [],
      "stateMutability": "nonpayable",
      "type": "function",
      "gas": "0xaeb690"
    },
    {
      "inputs": [],
      "name": "lendingPool",
      "outputs": [
        {
          "internalType": "contract ILendingPool",
          "name": "",
          "type": "address"
        }
      ],
      "stateMutability": "view",
      "type": "function",
      "gas": "0xaeb690"
    },
    {
      "inputs": [],
      "name": "lendingPoolAddressesProvider",
      "outputs": [
        {
          "internalType": "contract ILendingPoolAddressesProvider",
          "name": "",
          "type": "address"
        }
      ],
      "stateMutability": "view",
      "type": "function",
      "gas": "0xaeb690"
    },
    {
      "inputs": [
        {
          "internalType": "contract ISetToken",
          "name": "_setToken",
          "type": "address"
        },
        {
          "internalType": "contract IERC20",
          "name": "_borrowAsset",
          "type": "address"
        },
        {
          "internalType": "contract IERC20",
          "name": "_collateralAsset",
          "type": "address"
        },
        {
          "internalType": "uint256",
          "name": "_borrowQuantity",
          "type": "uint256"
        },
        {
          "internalType": "uint256",
          "name": "_minReceiveQuantity",
          "type": "uint256"
        },
        {
          "internalType": "string",
          "name": "_tradeAdapterName",
          "type": "string"
        },
        {
          "internalType": "bytes",
          "name": "_tradeData",
          "type": "bytes"
        }
      ],
      "name": "lever",
      "outputs": [],
      "stateMutability": "nonpayable",
      "type": "function",
      "gas": "0xaeb690"
    },
    {
      "inputs": [
        {
          "internalType": "contract ISetToken",
          "name": "_setToken",
          "type": "address"
        },
        {
          "internalType": "uint256",
          "name": "",
          "type": "uint256"
        }
      ],
      "name": "moduleIssueHook",
      "outputs": [],
      "stateMutability": "nonpayable",
      "type": "function",
      "gas": "0xaeb690"
    },
    {
      "inputs": [
        {
          "internalType": "contract ISetToken",
          "name": "_setToken",
          "type": "address"
        },
        {
          "internalType": "uint256",
          "name": "",
          "type": "uint256"
        }
      ],
      "name": "moduleRedeemHook",
      "outputs": [],
      "stateMutability": "nonpayable",
      "type": "function",
      "gas": "0xaeb690"
    },
    {
      "inputs": [],
      "name": "owner",
      "outputs": [
        {
          "internalType": "address",
          "name": "",
          "type": "address"
        }
      ],
      "stateMutability": "view",
      "type": "function",
      "gas": "0xaeb690"
    },
    {
      "inputs": [],
      "name": "protocolDataProvider",
      "outputs": [
        {
          "internalType": "contract IProtocolDataProvider",
          "name": "",
          "type": "address"
        }
      ],
      "stateMutability": "view",
      "type": "function",
      "gas": "0xaeb690"
    },
    {
      "inputs": [
        {
          "internalType": "contract ISetToken",
          "name": "_setToken",
          "type": "address"
        },
        {
          "internalType": "contract IDebtIssuanceModule",
          "name": "_debtIssuanceModule",
          "type": "address"
        }
      ],
      "name": "registerToModule",
      "outputs": [],
      "stateMutability": "nonpayable",
      "type": "function",
      "gas": "0xaeb690"
    },
    {
      "inputs": [
        {
          "internalType": "contract ISetToken",
          "name": "_setToken",
          "type": "address"
        },
        {
          "internalType": "contract IERC20[]",
          "name": "_borrowAssets",
          "type": "address[]"
        }
      ],
      "name": "removeBorrowAssets",
      "outputs": [],
      "stateMutability": "nonpayable",
      "type": "function",
      "gas": "0xaeb690"
    },
    {
      "inputs": [
        {
          "internalType": "contract ISetToken",
          "name": "_setToken",
          "type": "address"
        },
        {
          "internalType": "contract IERC20[]",
          "name": "_collateralAssets",
          "type": "address[]"
        }
      ],
      "name": "removeCollateralAssets",
      "outputs": [],
      "stateMutability": "nonpayable",
      "type": "function",
      "gas": "0xaeb690"
    },
    {
      "inputs": [],
      "name": "removeModule",
      "outputs": [],
      "stateMutability": "nonpayable",
      "type": "function",
      "gas": "0xaeb690"
    },
    {
      "inputs": [],
      "name": "renounceOwnership",
      "outputs": [],
      "stateMutability": "nonpayable",
      "type": "function",
      "gas": "0xaeb690"
    },
    {
      "inputs": [
        {
          "internalType": "contract ISetToken",
          "name": "_setToken",
          "type": "address"
        }
      ],
      "name": "sync",
      "outputs": [],
      "stateMutability": "nonpayable",
      "type": "function",
      "gas": "0xaeb690"
    },
    {
      "inputs": [
        {
          "internalType": "address",
          "name": "newOwner",
          "type": "address"
        }
      ],
      "name": "transferOwnership",
      "outputs": [],
      "stateMutability": "nonpayable",
      "type": "function",
      "gas": "0xaeb690"
    },
    {
      "inputs": [
        {
          "internalType": "contract IERC20",
          "name": "",
          "type": "address"
        }
      ],
      "name": "underlyingToReserveTokens",
      "outputs": [
        {
          "internalType": "contract IAToken",
          "name": "aToken",
          "type": "address"
        },
        {
          "internalType": "contract IVariableDebtToken",
          "name": "variableDebtToken",
          "type": "address"
        }
      ],
      "stateMutability": "view",
      "type": "function",
      "gas": "0xaeb690"
    },
    {
      "inputs": [
        {
          "internalType": "contract IERC20",
          "name": "_underlying",
          "type": "address"
        }
      ],
      "name": "updateAaveReserve",
      "outputs": [],
      "stateMutability": "nonpayable",
      "type": "function",
      "gas": "0xaeb690"
    },
    {
      "inputs": [
        {
          "internalType": "contract ISetToken",
          "name": "_setToken",
          "type": "address"
        },
        {
          "internalType": "bool",
          "name": "_status",
          "type": "bool"
        }
      ],
      "name": "updateAllowedSetToken",
      "outputs": [],
      "stateMutability": "nonpayable",
      "type": "function",
      "gas": "0xaeb690"
    },
    {
      "inputs": [
        {
          "internalType": "bool",
          "name": "_anySetAllowed",
          "type": "bool"
        }
      ],
      "name": "updateAnySetAllowed",
      "outputs": [],
      "stateMutability": "nonpayable",
      "type": "function",
      "gas": "0xaeb690"
    },
    {
      "inputs": [],
      "name": "updateLendingPool",
      "outputs": [],
      "stateMutability": "nonpayable",
      "type": "function",
      "gas": "0xaeb690"
    }
  ],
  "bytecode": "0x60806040523480156200001157600080fd5b5060405162005b5c38038062005b5c8339810160408190526200003491620004da565b600080546001600160a01b0319166001600160a01b038516178155600180556200005d62000230565b600280546001600160a01b0319166001600160a01b038316908117909155604051919250906000907f8be0079c531659141344cd1fd0a4f28419497f9722a3daafe3b4186f6b6457e0908290a350600680546001600160a01b038085166001600160a01b03199283168117909355600580549185169190921617905560408051630261bf8b60e01b81529051630261bf8b91600480820192602092909190829003018186803b1580156200011057600080fd5b505afa15801562000125573d6000803e3d6000fd5b505050506040513d601f19601f820116820180604052508101906200014b9190620003bd565b600480546001600160a01b0319166001600160a01b039283161781556005546040805163b316ff8960e01b81529051606094929092169263b316ff89928282019260009290829003018186803b158015620001a557600080fd5b505afa158015620001ba573d6000803e3d6000fd5b505050506040513d6000823e601f3d908101601f19168201604052620001e4919081019062000436565b905060005b815181101562000225576200021c8282815181106200020457fe5b6020026020010151602001516200023460201b60201c565b600101620001e9565b505050505062000576565b3390565b6005546040516334924edb60e21b815260009182916001600160a01b039091169063d2493b6c906200026b908690600401620004ef565b60606040518083038186803b1580156200028457600080fd5b505afa15801562000299573d6000803e3d6000fd5b505050506040513d601f19601f82011682018060405250810190620002bf9190620003e3565b6001600160a01b03958616600090815260036020526040902080549387166001600160a01b031994851617815560010180549690911695909216949094179055505050565b60006040828403121562000316578081fd5b62000322604062000503565b82519091506001600160401b03808211156200033d57600080fd5b81840185601f8201126200035057600080fd5b80519250818311156200036257600080fd5b602091506200037a601f8401601f1916830162000503565b83815286838584010111156200038f57600080fd5b620003a0848483018585016200052a565b845250838101519150620003b4826200055d565b82015292915050565b600060208284031215620003cf578081fd5b8151620003dc816200055d565b9392505050565b600080600060608486031215620003f8578182fd5b835162000405816200055d565b602085015190935062000418816200055d565b60408501519092506200042b816200055d565b809150509250925092565b6000602080838503121562000449578182fd5b82516001600160401b038082111562000460578384fd5b81850186601f82011262000472578485fd5b805192508183111562000483578485fd5b62000492848585020162000503565b8381528481019250818501865b85811015620004cc57620004b98a88845187010162000304565b855293860193908601906001016200049f565b509098975050505050505050565b600080600060608486031215620003f8578283fd5b6001600160a01b0391909116815260200190565b6040518181016001600160401b03811182821017156200052257600080fd5b604052919050565b60005b83811015620005475781810151838201526020016200052d565b8381111562000557576000848401525b50505050565b6001600160a01b03811681146200057357600080fd5b50565b6155d680620005866000396000f3fe608060405234801561001057600080fd5b50600436106101f05760003560e01c80638da5cb5b1161010f578063c153dd07116100a2578063ee78244f11610071578063ee78244f146103ec578063f2fde38b146103ff578063f77c479114610412578063ffbad25c1461041a576101f0565b8063c153dd0714610264578063c690a74c146103a6578063d4fd27eb146103b9578063e4e9ce92146103d9576101f0565b8063b1dd4d92116100de578063b1dd4d9214610370578063b3e829ef14610378578063bba00ba51461038b578063c137f4d714610393576101f0565b80638da5cb5b1461032c578063a584119414610334578063a59a997314610347578063b1c026781461034f576101f0565b80634fdd283c116101875780635b136512116101565780635b136512146102f6578063715018a614610309578063717ca2a514610311578063847ef08d14610324576101f0565b80634fdd283c146102aa578063516595fc146102bd5780635199e418146102d05780635809ae27146102e3576101f0565b80633f843bce116101c35780633f843bce1461024f5780633fe6106b14610264578063427eddb5146102775780634a200fa514610297576101f0565b806302577224146101f55780630df96ef61461021f5780630fb96b211461023457806323f14b2114610247575b600080fd5b61020861020336600461452a565b61042d565b604051610216929190614b76565b60405180910390f35b61023261022d36600461470d565b610453565b005b6102326102423660046149a1565b61062b565b61023261071a565b6102576107ec565b6040516102169190614b62565b610232610272366004614976565b6107fb565b61028a6102853660046147fc565b610813565b6040516102169190614ce0565b6102326102a536600461475b565b610833565b6102326102b83660046148ca565b610ab8565b6102326102cb36600461470d565b610bd8565b6102326102de3660046146a2565b610cb9565b6102326102f136600461470d565b610d2b565b6102326103043660046147fc565b610e3b565b610232610f37565b61023261031f36600461470d565b610fb6565b610232611095565b610257611441565b61023261034236600461452a565b611451565b6102576117f5565b61036261035d36600461452a565b611804565b604051610216929190614c6e565b61028a6118e2565b61023261038636600461452a565b6118eb565b610257611958565b6102326103a13660046149a1565b611967565b6102326103b43660046147c4565b611a3c565b6103cc6103c7366004614829565b611ac5565b60405161021691906154dd565b61028a6103e73660046147fc565b611d49565b61028a6103fa36600461452a565b611d69565b61023261040d36600461452a565b611d7e565b610257611e35565b6102326104283660046148ca565b611e44565b600360205260009081526040902080546001909101546001600160a01b03918216911682565b8161045d81611f4e565b61046683611451565b60005b82518110156105e057600083828151811061048057fe5b6020908102919091018101516001600160a01b0380881660009081526008845260408082209284168252919093529091205490915060ff166104dd5760405162461bcd60e51b81526004016104d49061505b565b60405180910390fd5b6001600160a01b03808216600090815260036020526040908190206001015490516370a0823160e01b81529116906370a082319061051f908890600401614b62565b60206040518083038186803b15801561053757600080fd5b505afa15801561054b573d6000803e3d6000fd5b505050506040513d601f19601f8201168201806040525081019061056f9190614a12565b1561058c5760405162461bcd60e51b81526004016104d4906152cb565b6001600160a01b0380861660008181526008602090815260408083209486168352938152838220805460ff191690559181526009909152206105d7906001018263ffffffff611f9c16565b50600101610469565b5060001515836001600160a01b03167f1c400b459725a0446742d6688375dffe941d5f9a65fe3900c93e07d9e772250b8460405161061e9190614c93565b60405180910390a3505050565b83610635816120c9565b6040516308bafae960e21b81526000906001600160a01b038716906322ebeba4906106669087903090600401614b76565b60206040518083038186803b15801561067e57600080fd5b505afa158015610692573d6000803e3d6000fd5b505050506040513d601f19601f820116820180604052508101906106b69190614a12565b9050600081126106d85760405162461bcd60e51b81526004016104d490614db1565b6000610704866106f86106f38560001963ffffffff61220b16565b61227f565b9063ffffffff6122a516565b9050610711878683612308565b50505050505050565b600660009054906101000a90046001600160a01b03166001600160a01b0316630261bf8b6040518163ffffffff1660e01b815260040160206040518083038186803b15801561076857600080fd5b505afa15801561077c573d6000803e3d6000fd5b505050506040513d601f19601f820116820180604052508101906107a09190614546565b600480546001600160a01b0319166001600160a01b0392831617908190556040519116907fc4e6c6cdf28d0edbd8bcf071d724d33cc2e7a30be7d06443925656e9cb492aa490600090a2565b6005546001600160a01b031681565b81610805816120c9565b61080e83611451565b505050565b600760209081526000928352604080842090915290825290205460ff1681565b823361083f8282612380565b84610849816123aa565b600b5460ff1661088b576001600160a01b0386166000908152600a602052604090205460ff1661088b5760405162461bcd60e51b81526004016104d4906151f0565b856001600160a01b0316630ffe0f1e6040518163ffffffff1660e01b8152600401600060405180830381600087803b1580156108c657600080fd5b505af11580156108da573d6000803e3d6000fd5b50505050856001600160a01b031663d7f1b27c6109236040518060400160405280601581526020017444656661756c7449737375616e63654d6f64756c6560581b81525061246b565b6040518263ffffffff1660e01b815260040161093f9190614b62565b60206040518083038186803b15801561095757600080fd5b505afa15801561096b573d6000803e3d6000fd5b505050506040513d601f19601f8201168201806040525081019061098f91906146be565b6109ab5760405162461bcd60e51b81526004016104d4906150f3565b6060866001600160a01b031663b2494df36040518163ffffffff1660e01b815260040160006040518083038186803b1580156109e657600080fd5b505afa1580156109fa573d6000803e3d6000fd5b505050506040513d6000823e601f3d908101601f19168201604052610a229190810190614606565b905060005b8151811015610aa357818181518110610a3c57fe5b60200260200101516001600160a01b031663d9b1b6e0896040518263ffffffff1660e01b8152600401610a6f9190614b62565b600060405180830381600087803b158015610a8957600080fd5b505af1925050508015610a9a575060015b50600101610a27565b50610aae8787610fb6565b6107118786610bd8565b60026001541415610adb5760405162461bcd60e51b81526004016104d490615476565b600260015586610aea81611f4e565b610af261437c565b610b028989898989896000612489565b9050610b178160000151898360600151612540565b6000610b25828a8a876125da565b90506000610b348b8a8461285c565b90506000610b48838363ffffffff61287f16565b9050610b5984600001518b836128c1565b610b63848b612930565b896001600160a01b03168b6001600160a01b03168d6001600160a01b03167f7cda30123ddfc96659344700585861a8670352b9cc86d1b1054d10083b1dcdd4876020015188606001518688604051610bbe9493929190614ceb565b60405180910390a450506001805550505050505050505050565b81610be281611f4e565b60005b8251811015610c7b576000838281518110610bfc57fe5b60200260200101519050610c10858261299f565b6001600160a01b03808616600081815260086020908152604080832095909416808352948152838220805460ff191660019081179091559282526009815292812082018054808401825590825292902090910180546001600160a01b03191690921790915501610be5565b5060011515836001600160a01b03167f1c400b459725a0446742d6688375dffe941d5f9a65fe3900c93e07d9e772250b8460405161061e9190614c93565b610cc1612ad7565b6002546001600160a01b03908116911614610cee5760405162461bcd60e51b81526004016104d4906151bb565b600b805460ff19168215159081179091556040517f563e1633136cdd43b8793897cb53ba2a9e31c18b3ae0b6827fbbb03b9902e6c690600090a250565b81610d3581611f4e565b610d3e83611451565b60005b8251811015610dfd576000838281518110610d5857fe5b6020908102919091018101516001600160a01b0380881660009081526007845260408082209284168252919093529091205490915060ff16610dac5760405162461bcd60e51b81526004016104d49061502b565b6001600160a01b0380861660008181526007602090815260408083209486168352938152838220805460ff19169055918152600990915220610df4908263ffffffff611f9c16565b50600101610d41565b5060001515836001600160a01b03167fdd2a86f23a66f86496c82312e991b49f87ad96c4f25094a43c49f7aca0ea35428460405161061e9190614c93565b81610e4581611f4e565b6040516335fc6c9f60e21b81526001600160a01b0384169063d7f1b27c90610e71908590600401614b62565b60206040518083038186803b158015610e8957600080fd5b505afa158015610e9d573d6000803e3d6000fd5b505050506040513d601f19601f82011682018060405250810190610ec191906146be565b610edd5760405162461bcd60e51b81526004016104d4906150f3565b6040516306cd8db760e51b81526001600160a01b0383169063d9b1b6e090610f09908690600401614b62565b600060405180830381600087803b158015610f2357600080fd5b505af1158015610711573d6000803e3d6000fd5b610f3f612ad7565b6002546001600160a01b03908116911614610f6c5760405162461bcd60e51b81526004016104d4906151bb565b6002546040516000916001600160a01b0316907f8be0079c531659141344cd1fd0a4f28419497f9722a3daafe3b4186f6b6457e0908390a3600280546001600160a01b0319169055565b81610fc081611f4e565b60005b8251811015611057576000838281518110610fda57fe5b60200260200101519050610fee8582612adb565b6001600160a01b03808616600081815260076020908152604080832095909416808352948152838220805460ff19166001908117909155928252600981529281208054808401825590825292902090910180546001600160a01b03191690921790915501610fc3565b5060011515836001600160a01b03167fdd2a86f23a66f86496c82312e991b49f87ad96c4f25094a43c49f7aca0ea35428460405161061e9190614c93565b3361109f81611f74565b336110a981611451565b6001600160a01b03811660009081526009602090815260409182902060010180548351818402810184019094528084526060939283018282801561111657602002820191906000526020600020905b81546001600160a01b031681526001909101906020018083116110f8575b50939450600093505050505b815181101561123157600082828151811061113957fe5b6020908102919091018101516001600160a01b03808216600090815260039093526040928390206001015492516370a0823160e01b815291935091909116906370a082319061118c908790600401614b62565b60206040518083038186803b1580156111a457600080fd5b505afa1580156111b8573d6000803e3d6000fd5b505050506040513d601f19601f820116820180604052508101906111dc9190614a12565b156111f95760405162461bcd60e51b81526004016104d4906152cb565b6001600160a01b038085166000908152600860209081526040808320949093168252929092529020805460ff19169055600101611122565b506001600160a01b03821660009081526009602090815260409182902080548351818402810184019094528084526060939283018282801561129c57602002820191906000526020600020905b81546001600160a01b0316815260019091019060200180831161127e575b50939450600093505050505b815181101561130d576001600160a01b038416600090815260076020526040812083519091908490849081106112da57fe5b6020908102919091018101516001600160a01b03168252810191909152604001600020805460ff191690556001016112a8565b506001600160a01b03831660009081526009602052604081209061133182826143e5565b61133f6001830160006143e5565b50506060836001600160a01b031663b2494df36040518163ffffffff1660e01b815260040160006040518083038186803b15801561137c57600080fd5b505afa158015611390573d6000803e3d6000fd5b505050506040513d6000823e601f3d908101601f191682016040526113b89190810190614606565b905060005b8151811015611439578181815181106113d257fe5b60200260200101516001600160a01b031663e0799620866040518263ffffffff1660e01b81526004016114059190614b62565b600060405180830381600087803b15801561141f57600080fd5b505af1925050508015611430575060015b506001016113bd565b505050505050565b6002546001600160a01b03165b90565b600260015414156114745760405162461bcd60e51b81526004016104d490615476565b60026001558061148381611f74565b6000826001600160a01b03166318160ddd6040518163ffffffff1660e01b815260040160206040518083038186803b1580156114be57600080fd5b505afa1580156114d2573d6000803e3d6000fd5b505050506040513d601f19601f820116820180604052508101906114f69190614a12565b905080156117ec576001600160a01b03831660009081526009602090815260409182902080548351818402810184019094528084526060939283018282801561156857602002820191906000526020600020905b81546001600160a01b0316815260019091019060200180831161154a575b50939450600093505050505b815181101561167f5760006003600084848151811061158f57fe5b60200260200101516001600160a01b03166001600160a01b0316815260200190815260200160002060000160009054906101000a90046001600160a01b031690506000611651876001600160a01b03166366cb8d2f846040518263ffffffff1660e01b81526004016116019190614b62565b60206040518083038186803b15801561161957600080fd5b505afa15801561162d573d6000803e3d6000fd5b505050506040513d601f19601f820116820180604052508101906106f39190614a12565b90506000611660888488612c0c565b905080821461167457611674888483612ca6565b505050600101611574565b506001600160a01b0384166000908152600960209081526040918290206001018054835181840281018401909452808452606093928301828280156116ed57602002820191906000526020600020905b81546001600160a01b031681526001909101906020018083116116cf575b50939450600093505050505b81518110156117e8576000866001600160a01b03166322ebeba484848151811061171f57fe5b6020026020010151306040518363ffffffff1660e01b8152600401611745929190614b76565b60206040518083038186803b15801561175d57600080fd5b505afa158015611771573d6000803e3d6000fd5b505050506040513d601f19601f820116820180604052508101906117959190614a12565b905060006117b7888585815181106117a957fe5b602002602001015188612cc0565b90508181146117de576117de888585815181106117d057fe5b602002602001015183612d81565b50506001016116f9565b5050505b50506001805550565b6004546001600160a01b031681565b6001600160a01b038116600090815260096020908152604091829020805483518184028101840190945280845260609384936001840192849183018282801561187657602002820191906000526020600020905b81546001600160a01b03168152600190910190602001808311611858575b50505050509150808054806020026020016040519081016040528092919081815260200182805480156118d257602002820191906000526020600020905b81546001600160a01b031681526001909101906020018083116118b4575b5050505050905091509150915091565b600b5460ff1681565b6118f481612db0565b6001600160a01b03811660009081526003602052604090819020905161191a9190614b3f565b604051908190038120906001600160a01b038316907f04861fe4a0b3b99806e445ecde5d0b4aed8a5ea7effe4f6c3e657b9c163b7c4f90600090a350565b6006546001600160a01b031681565b83611971816120c9565b6040516308bafae960e21b81526000906001600160a01b038716906322ebeba4906119a29087903090600401614b76565b60206040518083038186803b1580156119ba57600080fd5b505afa1580156119ce573d6000803e3d6000fd5b505050506040513d601f19601f820116820180604052508101906119f29190614a12565b905060008112611a145760405162461bcd60e51b81526004016104d490614db1565b6000611a2f866106f86106f38560001963ffffffff61220b16565b90506107118786836128c1565b611a44612ad7565b6002546001600160a01b03908116911614611a715760405162461bcd60e51b81526004016104d4906151bb565b6001600160a01b0382166000818152600a6020526040808220805460ff191685151590811790915590519092917f2035981b48691b10f6ac65174e570b4d0a8a889ae01bef3e5e7759ff9444f0c491a35050565b600060026001541415611aea5760405162461bcd60e51b81526004016104d490615476565b600260015586611af981611f4e565b6000611b7c896001600160a01b03166318160ddd6040518163ffffffff1660e01b815260040160206040518083038186803b158015611b3757600080fd5b505afa158015611b4b573d6000803e3d6000fd5b505050506040513d601f19601f82011682018060405250810190611b6f9190614a12565b879063ffffffff612e7a16565b6001600160a01b03808b166000908152600860209081526040808320938c168352929052205490915060ff16611bc45760405162461bcd60e51b81526004016104d49061505b565b6001600160a01b038088166000908152600360205260408082206001015490516370a0823160e01b8152919216906370a0823190611c06908d90600401614b62565b60206040518083038186803b158015611c1e57600080fd5b505afa158015611c32573d6000803e3d6000fd5b505050506040513d601f19601f82011682018060405250810190611c569190614a12565b9050611c6061437c565b611c708b8b8b86868c6000612e98565b9050611c8581600001518b8360600151612540565b611c91818b8b896125da565b508051611c9f908a846128c1565b604081015160e0820151611cc6916001600160a01b038e16918c919063ffffffff61302016565b505050611cd3818a612930565b886001600160a01b03168a6001600160a01b03168c6001600160a01b03167f7cda30123ddfc96659344700585861a8670352b9cc86d1b1054d10083b1dcdd484602001518560600151876000604051611d2f9493929190614ceb565b60405180910390a450600180559998505050505050505050565b600860209081526000928352604080842090915290825290205460ff1681565b600a6020526000908152604090205460ff1681565b611d86612ad7565b6002546001600160a01b03908116911614611db35760405162461bcd60e51b81526004016104d4906151bb565b6001600160a01b038116611dd95760405162461bcd60e51b81526004016104d490614e5b565b6002546040516001600160a01b038084169216907f8be0079c531659141344cd1fd0a4f28419497f9722a3daafe3b4186f6b6457e090600090a3600280546001600160a01b0319166001600160a01b0392909216919091179055565b6000546001600160a01b031681565b60026001541415611e675760405162461bcd60e51b81526004016104d490615476565b600260015586611e7681611f4e565b611e7e61437c565b611e8e8989898989896001612489565b9050611ea781600001518260c001518360600151612308565b6000611eb5828a8a876125da565b90506000611ec48b8a8461285c565b90506000611ed8838363ffffffff61287f16565b9050611ee984600001518b83613111565b611ef3848c612930565b896001600160a01b03168b6001600160a01b03168d6001600160a01b03167f359f8b62a966cfd521a3815681266407201b20a7c334925faa49e7d9d5dd57ab876020015188606001518688604051610bbe9493929190614ceb565b611f58813361317d565b611f745760405162461bcd60e51b81526004016104d490615408565b611f7d8161320b565b611f995760405162461bcd60e51b81526004016104d490614de8565b50565b60008061200284805480602002602001604051908101604052809291908181526020018280548015611ff757602002820191906000526020600020905b81546001600160a01b03168152600190910190602001808311611fd9575b50505050508461330f565b91509150806120235760405162461bcd60e51b81526004016104d490614d82565b8354600019018281146120955784818154811061203c57fe5b9060005260206000200160009054906101000a90046001600160a01b031685848154811061206657fe5b9060005260206000200160006101000a8154816001600160a01b0302191690836001600160a01b031602179055505b8480548061209f57fe5b600082815260209020810160001990810180546001600160a01b0319169055019055505b50505050565b6002604051631ade272960e11b81526001600160a01b038316906335bc4e52906120f7903390600401614b62565b60206040518083038186803b15801561210f57600080fd5b505afa158015612123573d6000803e3d6000fd5b505050506040513d601f19601f8201168201806040525081019061214791906149f3565b600281111561215257fe5b1461216f5760405162461bcd60e51b81526004016104d4906150bc565b6000546040516342f6e38960e01b81526001600160a01b03909116906342f6e3899061219f903390600401614b62565b60206040518083038186803b1580156121b757600080fd5b505afa1580156121cb573d6000803e3d6000fd5b505050506040513d601f19601f820116820180604052508101906121ef91906146be565b611f995760405162461bcd60e51b81526004016104d490615381565b60008261221a57506000612279565b8260001914801561222e5750600160ff1b82145b1561224b5760405162461bcd60e51b81526004016104d49061524d565b8282028284828161225857fe5b05146122765760405162461bcd60e51b81526004016104d49061524d565b90505b92915050565b6000808212156122a15760405162461bcd60e51b81526004016104d490615087565b5090565b60008215806122b2575081155b156122bf57506000612279565b61227660016122fc670de0b6b3a76400006122f0836122e4898963ffffffff61337516565b9063ffffffff61287f16565b9063ffffffff6133af16565b9063ffffffff6133f116565b6004805460405162b0489960e41b815273__$d1cd077b474da5315a1dacfa3ba5fdc42a$__92630b04899092612354926001600160a01b03808a16939216918891889160029101614d3b565b60006040518083038186803b15801561236c57600080fd5b505af4158015610711573d6000803e3d6000fd5b61238a828261317d565b6123a65760405162461bcd60e51b81526004016104d490615408565b5050565b600054604051631d3af8fb60e21b81526001600160a01b03909116906374ebe3ec906123da908490600401614b62565b60206040518083038186803b1580156123f257600080fd5b505afa158015612406573d6000803e3d6000fd5b505050506040513d601f19601f8201168201806040525081019061242a91906146be565b6124465760405162461bcd60e51b81526004016104d4906153c5565b61244f81613416565b611f995760405162461bcd60e51b81526004016104d490614f3c565b60008061247783613445565b905061248281613450565b9392505050565b61249161437c565b6000886001600160a01b03166318160ddd6040518163ffffffff1660e01b815260040160206040518083038186803b1580156124cc57600080fd5b505afa1580156124e0573d6000803e3d6000fd5b505050506040513d601f19601f820116820180604052508101906125049190614a12565b905061253389898961251c8a8663ffffffff612e7a16565b61252c8a8763ffffffff612e7a16565b8989612e98565b9998505050505050505050565b6004805460405163ab36d4d560e01b815273__$d1cd077b474da5315a1dacfa3ba5fdc42a$__9263ab36d4d59261258a926001600160a01b03808a16939216918891889101614d11565b60206040518083038186803b1580156125a257600080fd5b505af41580156125b6573d6000803e3d6000fd5b505050506040513d601f19601f820116820180604052508101906120c39190614a12565b6000808560000151905060008660600151905061267e8688602001516001600160a01b031663334fc2896040518163ffffffff1660e01b815260040160206040518083038186803b15801561262e57600080fd5b505afa158015612642573d6000803e3d6000fd5b505050506040513d601f19601f820116820180604052508101906126669190614546565b6001600160a01b03851691908463ffffffff61350d16565b600080606089602001516001600160a01b031663e171fcab8a8a88888f608001518d6040518763ffffffff1660e01b81526004016126c196959493929190614b90565b60006040518083038186803b1580156126d957600080fd5b505afa1580156126ed573d6000803e3d6000fd5b505050506040513d6000823e601f3d908101601f1916820160405261271591908101906145ae565b925092509250846001600160a01b0316638f6f03328484846040518463ffffffff1660e01b815260040161274b93929190614c47565b600060405180830381600087803b15801561276557600080fd5b505af1158015612779573d6000803e3d6000fd5b505050506040513d6000823e601f3d908101601f191682016040526127a191908101906146da565b5060006128288b60e001518a6001600160a01b03166370a08231896040518263ffffffff1660e01b81526004016127d89190614b62565b60206040518083038186803b1580156127f057600080fd5b505afa158015612804573d6000803e3d6000fd5b505050506040513d601f19601f820116820180604052508101906122e49190614a12565b90508a6080015181101561284e5760405162461bcd60e51b81526004016104d490615000565b9a9950505050505050505050565b60008061286a6000846135d4565b9050612877858583613669565b949350505050565b600061227683836040518060400160405280601e81526020017f536166654d6174683a207375627472616374696f6e206f766572666c6f770000815250613710565b6004546128e3906001600160a01b03858116918591168463ffffffff61350d16565b60048054604051630cca200b60e31b815273__$d1cd077b474da5315a1dacfa3ba5fdc42a$__9263665100589261258a926001600160a01b03808a16939216918891889160029101614d3b565b815160a0830180516001600160a01b0390811660009081526003602052604080822054875194518416835291819020549087015161297e95949284169361297993921690612c0c565b612ca6565b6123a682600001518261299a8560000151858760400151612cc0565b612d81565b6001600160a01b0380831660009081526008602090815260408083209385168352929052205460ff16156129e55760405162461bcd60e51b81526004016104d4906154ad565b600554604051633e15014160e01b8152600091829182916001600160a01b031690633e15014190612a1a908790600401614b62565b6101406040518083038186803b158015612a3357600080fd5b505afa158015612a47573d6000803e3d6000fd5b505050506040513d601f19601f82011682018060405250810190612a6b9190614a2a565b9950995050985050505050505081612a955760405162461bcd60e51b81526004016104d49061521e565b8015612ab35760405162461bcd60e51b81526004016104d490614ed8565b82612ad05760405162461bcd60e51b81526004016104d490614f73565b5050505050565b3390565b6001600160a01b0380831660009081526007602090815260408083209385168352929052205460ff1615612b215760405162461bcd60e51b81526004016104d490614f05565b600554604051633e15014160e01b8152600091829182916001600160a01b031690633e15014190612b56908790600401614b62565b6101406040518083038186803b158015612b6f57600080fd5b505afa158015612b83573d6000803e3d6000fd5b505050506040513d601f19601f82011682018060405250810190612ba79190614a2a565b9950995050509750505050505081612bd15760405162461bcd60e51b81526004016104d49061521e565b8015612bef5760405162461bcd60e51b81526004016104d490614ed8565b82612ad05760405162461bcd60e51b81526004016104d49061543f565b600080836001600160a01b03166370a08231866040518263ffffffff1660e01b8152600401612c3b9190614b62565b60206040518083038186803b158015612c5357600080fd5b505afa158015612c67573d6000803e3d6000fd5b505050506040513d601f19601f82011682018060405250810190612c8b9190614a12565b9050612c9d818463ffffffff61373c16565b95945050505050565b61080e6001600160a01b038416838363ffffffff61375a16565b6001600160a01b038083166000908152600360205260408082206001015490516370a0823160e01b8152919283929116906370a0823190612d05908890600401614b62565b60206040518083038186803b158015612d1d57600080fd5b505afa158015612d31573d6000803e3d6000fd5b505050506040513d601f19601f82011682018060405250810190612d559190614a12565b9050612c9d600019612d75612d70848763ffffffff61373c16565b6138d8565b9063ffffffff61220b16565b60408051602081019091526000815261080e906001600160a01b0385169084903090859063ffffffff6138fd16565b6005546040516334924edb60e21b815260009182916001600160a01b039091169063d2493b6c90612de5908690600401614b62565b60606040518083038186803b158015612dfd57600080fd5b505afa158015612e11573d6000803e3d6000fd5b505050506040513d601f19601f82011682018060405250810190612e359190614562565b6001600160a01b03958616600090815260036020526040902080549387166001600160a01b031994851617815560010180549690911695909216949094179055505050565b6000612276670de0b6b3a76400006122f0858563ffffffff61337516565b612ea061437c565b6000886001600160a01b03166318160ddd6040518163ffffffff1660e01b815260040160206040518083038186803b158015612edb57600080fd5b505afa158015612eef573d6000803e3d6000fd5b505050506040513d601f19601f82011682018060405250810190612f139190614a12565b9050612f1d61437c565b6040518061010001604052808b6001600160a01b03168152602001612f418761246b565b6001600160a01b0316815260200183815260200188815260200187815260200185612f6c578a612f6e565b895b6001600160a01b0316815260200185612f875789612f89565b8a5b6001600160a01b03168152602001896001600160a01b03166370a082318d6040518263ffffffff1660e01b8152600401612fc39190614b62565b60206040518083038186803b158015612fdb57600080fd5b505afa158015612fef573d6000803e3d6000fd5b505050506040513d601f19601f820116820180604052508101906130139190614a12565b9052905061253381613eb5565b600080600080866001600160a01b03166370a08231896040518263ffffffff1660e01b81526004016130529190614b62565b60206040518083038186803b15801561306a57600080fd5b505afa15801561307e573d6000803e3d6000fd5b505050506040513d601f19601f820116820180604052508101906130a29190614a12565b905060006130d5896001600160a01b03166366cb8d2f8a6040518263ffffffff1660e01b81526004016116019190614b62565b9050600082156130f2576130eb88888585613fab565b90506130f6565b5060005b6131018a8a8361375a565b9199909850909650945050505050565b600454613133906001600160a01b03858116918591168463ffffffff61350d16565b60048054604051630460b91f60e41b815273__$d1cd077b474da5315a1dacfa3ba5fdc42a$__9263460b91f092612354926001600160a01b03808a16939216918891889101614d11565b6000816001600160a01b0316836001600160a01b031663481c6a756040518163ffffffff1660e01b815260040160206040518083038186803b1580156131c257600080fd5b505afa1580156131d6573d6000803e3d6000fd5b505050506040513d601f19601f820116820180604052508101906131fa9190614546565b6001600160a01b0316149392505050565b60008054604051631d3af8fb60e21b81526001600160a01b03909116906374ebe3ec9061323c908590600401614b62565b60206040518083038186803b15801561325457600080fd5b505afa158015613268573d6000803e3d6000fd5b505050506040513d601f19601f8201168201806040525081019061328c91906146be565b801561227957506040516335fc6c9f60e21b81526001600160a01b0383169063d7f1b27c906132bf903090600401614b62565b60206040518083038186803b1580156132d757600080fd5b505afa1580156132eb573d6000803e3d6000fd5b505050506040513d601f19601f8201168201806040525081019061227991906146be565b81516000908190815b8181101561336257846001600160a01b031686828151811061333657fe5b60200260200101516001600160a01b0316141561335a5792506001915061336e9050565b600101613318565b50600019600092509250505b9250929050565b60008261338457506000612279565b8282028284828161339157fe5b04146122765760405162461bcd60e51b81526004016104d49061517a565b600061227683836040518060400160405280601a81526020017f536166654d6174683a206469766973696f6e206279207a65726f000000000000815250613ffa565b6000828201838110156122765760405162461bcd60e51b81526004016104d490614ea1565b6040516353bae5f760e01b81526000906001600160a01b038316906353bae5f7906132bf903090600401614b62565b805160209091012090565b600080548190613468906001600160a01b0316614031565b6001600160a01b031663e6d642c530856040518363ffffffff1660e01b8152600401613495929190614c2e565b60206040518083038186803b1580156134ad57600080fd5b505afa1580156134c1573d6000803e3d6000fd5b505050506040513d601f19601f820116820180604052508101906134e59190614546565b90506001600160a01b0381166122795760405162461bcd60e51b81526004016104d490614fd1565b60608282604051602401613522929190614c2e565b60408051601f198184030181529181526020820180516001600160e01b031663095ea7b360e01b179052516347b7819960e11b81529091506001600160a01b03861690638f6f03329061357e9087906000908690600401614c47565b600060405180830381600087803b15801561359857600080fd5b505af11580156135ac573d6000803e3d6000fd5b505050506040513d6000823e601f3d908101601f1916820160405261143991908101906146da565b6000805460405163792aa04f60e01b815282916001600160a01b03169063792aa04f906136079030908890600401614c2e565b60206040518083038186803b15801561361f57600080fd5b505afa158015613633573d6000803e3d6000fd5b505050506040513d601f19601f820116820180604052508101906136579190614a12565b9050612877838263ffffffff612e7a16565b801561080e5761080e826000809054906101000a90046001600160a01b03166001600160a01b031663469048406040518163ffffffff1660e01b815260040160206040518083038186803b1580156136c057600080fd5b505afa1580156136d4573d6000803e3d6000fd5b505050506040513d601f19601f820116820180604052508101906136f89190614546565b6001600160a01b03861691908463ffffffff6140b016565b600081848411156137345760405162461bcd60e51b81526004016104d49190614d6f565b505050900390565b6000612276826122f085670de0b6b3a764000063ffffffff61337516565b600061376684846141f2565b9050801580156137765750600082115b156137ed576137858484614279565b6137e8576040516304e3532760e41b81526001600160a01b03851690634e353270906137b5908690600401614b62565b600060405180830381600087803b1580156137cf57600080fd5b505af11580156137e3573d6000803e3d6000fd5b505050505b61386a565b8080156137f8575081155b1561386a576138078484614279565b61386a57604051636f86c89760e01b81526001600160a01b03851690636f86c89790613837908690600401614b62565b600060405180830381600087803b15801561385157600080fd5b505af1158015613865573d6000803e3d6000fd5b505050505b836001600160a01b0316632ba57d1784613883856138d8565b6040518363ffffffff1660e01b81526004016138a0929190614c2e565b600060405180830381600087803b1580156138ba57600080fd5b505af11580156138ce573d6000803e3d6000fd5b5050505050505050565b6000600160ff1b82106122a15760405162461bcd60e51b81526004016104d490615339565b8115613bf25760405163df5e9b2960e01b81526001600160a01b0386169063df5e9b299061392f908790600401614b62565b60206040518083038186803b15801561394757600080fd5b505afa15801561395b573d6000803e3d6000fd5b505050506040513d601f19601f8201168201806040525081019061397f91906146be565b613a46576040516304e3532760e41b81526001600160a01b03861690634e353270906139af908790600401614b62565b600060405180830381600087803b1580156139c957600080fd5b505af11580156139dd573d6000803e3d6000fd5b505060405163ea0ee55960e01b81526001600160a01b038816925063ea0ee5599150613a0f9087908790600401614b76565b600060405180830381600087803b158015613a2957600080fd5b505af1158015613a3d573d6000803e3d6000fd5b50505050613b29565b604051637d96659360e01b81526001600160a01b03861690637d96659390613a749087908790600401614b76565b60206040518083038186803b158015613a8c57600080fd5b505afa158015613aa0573d6000803e3d6000fd5b505050506040513d601f19601f82011682018060405250810190613ac491906146be565b613b295760405163ea0ee55960e01b81526001600160a01b0386169063ea0ee55990613af69087908790600401614b76565b600060405180830381600087803b158015613b1057600080fd5b505af1158015613b24573d6000803e3d6000fd5b505050505b6040516363a90fc160e01b81526001600160a01b038616906363a90fc190613b5990879087908790600401614c0a565b600060405180830381600087803b158015613b7357600080fd5b505af1158015613b87573d6000803e3d6000fd5b50506040516326898fe160e01b81526001600160a01b03881692506326898fe19150613bbb90879087908690600401614bde565b600060405180830381600087803b158015613bd557600080fd5b505af1158015613be9573d6000803e3d6000fd5b50505050612ad0565b805115613c115760405162461bcd60e51b81526004016104d490615302565b6040516308bafae960e21b81526001600160a01b038616906322ebeba490613c3f9087908790600401614b76565b60206040518083038186803b158015613c5757600080fd5b505afa158015613c6b573d6000803e3d6000fd5b505050506040513d601f19601f82011682018060405250810190613c8f9190614a12565b15612ad05760405163a7bdad0360e01b81526060906001600160a01b0387169063a7bdad0390613cc3908890600401614b62565b60006040518083038186803b158015613cdb57600080fd5b505afa158015613cef573d6000803e3d6000fd5b505050506040513d6000823e601f3d908101601f19168201604052613d179190810190614606565b6040516366cb8d2f60e01b81529091506001600160a01b038716906366cb8d2f90613d46908890600401614b62565b60206040518083038186803b158015613d5e57600080fd5b505afa158015613d72573d6000803e3d6000fd5b505050506040513d601f19601f82011682018060405250810190613d969190614a12565b158015613da4575080516001145b15613e4d57836001600160a01b031681600081518110613dc057fe5b60200260200101516001600160a01b031614613dee5760405162461bcd60e51b81526004016104d49061512a565b604051636f86c89760e01b81526001600160a01b03871690636f86c89790613e1a908890600401614b62565b600060405180830381600087803b158015613e3457600080fd5b505af1158015613e48573d6000803e3d6000fd5b505050505b60405163acf3f07760e01b81526001600160a01b0387169063acf3f07790613e7b9088908890600401614b76565b600060405180830381600087803b158015613e9557600080fd5b505af1158015613ea9573d6000803e3d6000fd5b50505050505050505050565b80516001600160a01b03908116600090815260076020908152604080832060a08601519094168352929052205460ff16613f015760405162461bcd60e51b81526004016104d49061502b565b80516001600160a01b03908116600090815260086020908152604080832060c08601519094168352929052205460ff16613f4d5760405162461bcd60e51b81526004016104d49061505b565b8060c001516001600160a01b03168160a001516001600160a01b03161415613f875760405162461bcd60e51b81526004016104d490614e30565b6000816060015111611f995760405162461bcd60e51b81526004016104d490614faa565b600080613fce613fc1848863ffffffff612e7a16565b869063ffffffff61287f16565b9050613ff086613fe4868463ffffffff61287f16565b9063ffffffff61373c16565b9695505050505050565b6000818361401b5760405162461bcd60e51b81526004016104d49190614d6f565b50600083858161402757fe5b0495945050505050565b6040516373b2e76b60e11b81526000906001600160a01b0383169063e765ced6906140609084906004016154dd565b60206040518083038186803b15801561407857600080fd5b505afa15801561408c573d6000803e3d6000fd5b505050506040513d601f19601f820116820180604052508101906122799190614546565b80156120c3576040516370a0823160e01b81526000906001600160a01b038516906370a08231906140e5908890600401614b62565b60206040518083038186803b1580156140fd57600080fd5b505afa158015614111573d6000803e3d6000fd5b505050506040513d601f19601f820116820180604052508101906141359190614a12565b905061414385858585614305565b6040516370a0823160e01b81526000906001600160a01b038616906370a0823190614172908990600401614b62565b60206040518083038186803b15801561418a57600080fd5b505afa15801561419e573d6000803e3d6000fd5b505050506040513d601f19601f820116820180604052508101906141c29190614a12565b90506141d4828463ffffffff61287f16565b81146114395760405162461bcd60e51b81526004016104d490615294565b600080836001600160a01b03166366cb8d2f846040518263ffffffff1660e01b81526004016142219190614b62565b60206040518083038186803b15801561423957600080fd5b505afa15801561424d573d6000803e3d6000fd5b505050506040513d601f19601f820116820180604052508101906142719190614a12565b139392505050565b600080836001600160a01b031663a7bdad03846040518263ffffffff1660e01b81526004016142a89190614b62565b60006040518083038186803b1580156142c057600080fd5b505afa1580156142d4573d6000803e3d6000fd5b505050506040513d6000823e601f3d908101601f191682016040526142fc9190810190614606565b51119392505050565b80156120c35760608282604051602401614320929190614c2e565b60408051601f198184030181529181526020820180516001600160e01b031663a9059cbb60e01b179052516347b7819960e11b81529091506001600160a01b03861690638f6f03329061357e9087906000908690600401614c47565b60405180610100016040528060006001600160a01b0316815260200160006001600160a01b0316815260200160008152602001600081526020016000815260200160006001600160a01b0316815260200160006001600160a01b03168152602001600081525090565b5080546000825590600052602060002090810190611f99919061144e91905b808211156122a15760008155600101614404565b600082601f830112614428578081fd5b813561443b6144368261550d565b6154e6565b81815291506020808301908481018184028601820187101561445c57600080fd5b60005b848110156144845781356144728161557d565b8452928201929082019060010161445f565b505050505092915050565b600082601f83011261449f578081fd5b81356144ad6144368261552d565b91508082528360208285010111156144c457600080fd5b8060208401602084013760009082016020015292915050565b600082601f8301126144ed578081fd5b81516144fb6144368261552d565b915080825283602082850101111561451257600080fd5b614523816020840160208601615551565b5092915050565b60006020828403121561453b578081fd5b81356122768161557d565b600060208284031215614557578081fd5b81516122768161557d565b600080600060608486031215614576578182fd5b83516145818161557d565b60208501519093506145928161557d565b60408501519092506145a38161557d565b809150509250925092565b6000806000606084860312156145c2578283fd5b83516145cd8161557d565b60208501516040860151919450925067ffffffffffffffff8111156145f0578182fd5b6145fc868287016144dd565b9150509250925092565b60006020808385031215614618578182fd5b825167ffffffffffffffff81111561462e578283fd5b80840185601f82011261463f578384fd5b8051915061464f6144368361550d565b828152838101908285018585028401860189101561466b578687fd5b8693505b848410156146965780516146828161557d565b83526001939093019291850191850161466f565b50979650505050505050565b6000602082840312156146b3578081fd5b813561227681615592565b6000602082840312156146cf578081fd5b815161227681615592565b6000602082840312156146eb578081fd5b815167ffffffffffffffff811115614701578182fd5b612877848285016144dd565b6000806040838503121561471f578182fd5b823561472a8161557d565b9150602083013567ffffffffffffffff811115614745578182fd5b61475185828601614418565b9150509250929050565b60008060006060848603121561476f578081fd5b833561477a8161557d565b9250602084013567ffffffffffffffff80821115614796578283fd5b6147a287838801614418565b935060408601359150808211156147b7578283fd5b506145fc86828701614418565b600080604083850312156147d6578182fd5b82356147e18161557d565b915060208301356147f181615592565b809150509250929050565b6000806040838503121561480e578182fd5b82356148198161557d565b915060208301356147f18161557d565b60008060008060008060c08789031215614841578384fd5b863561484c8161557d565b9550602087013561485c8161557d565b9450604087013561486c8161557d565b935060608701359250608087013567ffffffffffffffff8082111561488f578384fd5b61489b8a838b0161448f565b935060a08901359150808211156148b0578283fd5b506148bd89828a0161448f565b9150509295509295509295565b600080600080600080600060e0888a0312156148e4578485fd5b87356148ef8161557d565b965060208801356148ff8161557d565b9550604088013561490f8161557d565b9450606088013593506080880135925060a088013567ffffffffffffffff80821115614939578283fd5b6149458b838c0161448f565b935060c08a013591508082111561495a578283fd5b506149678a828b0161448f565b91505092959891949750929550565b60008060408385031215614988578182fd5b82356149938161557d565b946020939093013593505050565b600080600080608085870312156149b6578182fd5b84356149c18161557d565b93506020850135925060408501356149d88161557d565b915060608501356149e881615592565b939692955090935050565b600060208284031215614a04578081fd5b815160038110612276578182fd5b600060208284031215614a23578081fd5b5051919050565b6000806000806000806000806000806101408b8d031215614a49578384fd5b8a51995060208b0151985060408b0151975060608b0151965060808b0151955060a08b0151614a7781615592565b60c08c0151909550614a8881615592565b60e08c0151909450614a9981615592565b6101008c0151909350614aab81615592565b6101208c0151909250614abd81615592565b809150509295989b9194979a5092959850565b6000815180845260208085019450808401835b83811015614b085781516001600160a01b031687529582019590820190600101614ae3565b509495945050505050565b60008151808452614b2b816020860160208601615551565b601f01601f19169290920160200192915050565b81546001600160a01b039081168252600190920154909116602082015260400190565b6001600160a01b0391909116815260200190565b6001600160a01b0392831681529116602082015260400190565b6001600160a01b038781168252868116602083015285166040820152606081018490526080810183905260c060a08201819052600090614bd290830184614b13565b98975050505050505050565b6001600160a01b03848116825283166020820152606060408201819052600090612c9d90830184614b13565b6001600160a01b039384168152919092166020820152604081019190915260600190565b6001600160a01b03929092168252602082015260400190565b600060018060a01b038516825283602083015260606040830152612c9d6060830184614b13565b600060408252614c816040830185614ad0565b8281036020840152612c9d8185614ad0565b6020808252825182820181905260009190848201906040850190845b81811015614cd45783516001600160a01b031683529284019291840191600101614caf565b50909695505050505050565b901515815260200190565b6001600160a01b0394909416845260208401929092526040830152606082015260800190565b6001600160a01b039485168152928416602084015292166040820152606081019190915260800190565b6001600160a01b03958616815293851660208501529190931660408301526060820192909252608081019190915260a00190565b6000602082526122766020830184614b13565b60208082526015908201527420b2323932b9b9903737ba1034b71030b93930bc9760591b604082015260600190565b6020808252601a908201527f436f6d706f6e656e74206d757374206265206e65676174697665000000000000604082015260600190565b60208082526028908201527f4d75737420626520612076616c696420616e6420696e697469616c697a65642060408201526729b2ba2a37b5b2b760c11b606082015260800190565b602080825260119082015270135d5cdd08189948191a5999995c995b9d607a1b604082015260600190565b60208082526026908201527f4f776e61626c653a206e6577206f776e657220697320746865207a65726f206160408201526564647265737360d01b606082015260800190565b6020808252601b908201527f536166654d6174683a206164646974696f6e206f766572666c6f770000000000604082015260600190565b60208082526013908201527246726f7a656e2061617665207265736572766560681b604082015260600190565b6020808252601a908201527f436f6c6c61746572616c20616c726561647920656e61626c6564000000000000604082015260600190565b6020808252601e908201527f4d7573742062652070656e64696e6720696e697469616c697a6174696f6e0000604082015260600190565b6020808252601a908201527f426f72726f77696e672064697361626c6564206f6e2041617665000000000000604082015260600190565b6020808252600d908201526c05175616e74697479206973203609c1b604082015260600190565b60208082526015908201527426bab9ba103132903b30b634b21030b230b83a32b960591b604082015260600190565b6020808252601190820152700a6d8d2e0e0c2ceca40e8dede40d0d2ced607b1b604082015260600190565b60208082526016908201527510dbdb1b185d195c985b081b9bdd08195b98589b195960521b604082015260600190565b602080825260129082015271109bdc9c9bddc81b9bdd08195b98589b195960721b604082015260600190565b6020808252818101527f53616665436173743a2076616c7565206d75737420626520706f736974697665604082015260600190565b60208082526018908201527f4f6e6c7920746865206d6f64756c652063616e2063616c6c0000000000000000604082015260600190565b60208082526018908201527f49737375616e6365206e6f7420696e697469616c697a65640000000000000000604082015260600190565b60208082526030908201527f45787465726e616c20706f736974696f6e73206d757374206265203020746f2060408201526f1c995b5bdd994818dbdb5c1bdb995b9d60821b606082015260800190565b60208082526021908201527f536166654d6174683a206d756c7469706c69636174696f6e206f766572666c6f6040820152607760f81b606082015260800190565b6020808252818101527f4f776e61626c653a2063616c6c6572206973206e6f7420746865206f776e6572604082015260600190565b6020808252601490820152732737ba1030b63637bbb2b21029b2ba2a37b5b2b760611b604082015260600190565b602080825260159082015274496e6163746976652061617665207265736572766560581b604082015260600190565b60208082526027908201527f5369676e6564536166654d6174683a206d756c7469706c69636174696f6e206f604082015266766572666c6f7760c81b606082015260800190565b6020808252601d908201527f496e76616c696420706f7374207472616e736665722062616c616e6365000000604082015260600190565b60208082526017908201527f5661726961626c6520646562742072656d61696e696e67000000000000000000604082015260600190565b60208082526018908201527f5061737365642064617461206d757374206265206e756c6c0000000000000000604082015260600190565b60208082526028908201527f53616665436173743a2076616c756520646f65736e27742066697420696e2061604082015267371034b73a191a9b60c11b606082015260800190565b60208082526024908201527f4d6f64756c65206d75737420626520656e61626c6564206f6e20636f6e74726f604082015263363632b960e11b606082015260800190565b60208082526023908201527f4d75737420626520636f6e74726f6c6c65722d656e61626c656420536574546f60408201526235b2b760e91b606082015260800190565b6020808252601c908201527f4d7573742062652074686520536574546f6b656e206d616e6167657200000000604082015260600190565b6020808252601b908201527f436f6c6c61746572616c2064697361626c6564206f6e20416176650000000000604082015260600190565b6020808252601f908201527f5265656e7472616e637947756172643a207265656e7472616e742063616c6c00604082015260600190565b602080825260169082015275109bdc9c9bddc8185b1c9958591e48195b98589b195960521b604082015260600190565b90815260200190565b60405181810167ffffffffffffffff8111828210171561550557600080fd5b604052919050565b600067ffffffffffffffff821115615523578081fd5b5060209081020190565b600067ffffffffffffffff821115615543578081fd5b50601f01601f191660200190565b60005b8381101561556c578181015183820152602001615554565b838111156120c35750506000910152565b6001600160a01b0381168114611f9957600080fd5b8015158114611f9957600080fdfea26469706673582212201ff1c20569e20a45903f4aa187c731acb657ddae1908db02eb03f9d94a048b7e64736f6c634300060a0033",
  "linkReferences": {
    "contracts/protocol/integration/lib/AaveV2.sol": {
      "AaveV2": [
        {
          "length": 20,
          "start": 10400
        },
        {
          "length": 20,
          "start": 10969
        },
        {
          "length": 20,
          "start": 11900
        },
        {
          "length": 20,
          "start": 14028
        }
      ]
    }
  },
  "deployedLinkReferences": {
    "contracts/protocol/integration/lib/AaveV2.sol": {
      "AaveV2": [
        {
          "length": 20,
          "start": 8986
        },
        {
          "length": 20,
          "start": 9555
        },
        {
          "length": 20,
          "start": 10486
        },
        {
          "length": 20,
          "start": 12614
        }
      ]
    }
  }
}