{
  "_format": "hh-sol-artifact-1",
  "contractName": "AaveV3",
  "sourceName": "contracts/protocol/integration/lib/AaveV3.sol",
  "abi": [
    {
      "inputs": [
        {
          "internalType": "contract IPool",
          "name": "_lendingPool",
          "type": "IPool"
        },
        {
          "internalType": "address",
          "name": "_asset",
          "type": "address"
        },
        {
          "internalType": "uint256",
          "name": "_amountNotional",
          "type": "uint256"
        },
        {
          "internalType": "uint256",
          "name": "_interestRateMode",
          "type": "uint256"
        },
        {
          "internalType": "uint16",
          "name": "_referralCode",
          "type": "uint16"
        },
        {
          "internalType": "address",
          "name": "_onBehalfOf",
          "type": "address"
        }
      ],
      "name": "getBorrowCalldata",
      "outputs": [
        {
          "internalType": "address",
          "name": "",
          "type": "address"
        },
        {
          "internalType": "uint256",
          "name": "",
          "type": "uint256"
        },
        {
          "internalType": "bytes",
          "name": "",
          "type": "bytes"
        }
      ],
      "stateMutability": "pure",
      "type": "function",
      "gas": "0xa7d8c0"
    },
    {
      "inputs": [
        {
          "internalType": "contract IPool",
          "name": "_lendingPool",
          "type": "IPool"
        },
        {
          "internalType": "address",
          "name": "_asset",
          "type": "address"
        },
        {
          "internalType": "uint256",
          "name": "_amountNotional",
          "type": "uint256"
        },
        {
          "internalType": "address",
          "name": "_onBehalfOf",
          "type": "address"
        },
        {
          "internalType": "uint16",
          "name": "_referralCode",
          "type": "uint16"
        }
      ],
      "name": "getDepositCalldata",
      "outputs": [
        {
          "internalType": "address",
          "name": "",
          "type": "address"
        },
        {
          "internalType": "uint256",
          "name": "",
          "type": "uint256"
        },
        {
          "internalType": "bytes",
          "name": "",
          "type": "bytes"
        }
      ],
      "stateMutability": "pure",
      "type": "function",
      "gas": "0xa7d8c0"
    },
    {
      "inputs": [
        {
          "internalType": "contract IPool",
          "name": "_lendingPool",
          "type": "IPool"
        },
        {
          "internalType": "address",
          "name": "_asset",
          "type": "address"
        },
        {
          "internalType": "uint256",
          "name": "_amountNotional",
          "type": "uint256"
        },
        {
          "internalType": "uint256",
          "name": "_interestRateMode",
          "type": "uint256"
        },
        {
          "internalType": "address",
          "name": "_onBehalfOf",
          "type": "address"
        }
      ],
      "name": "getRepayCalldata",
      "outputs": [
        {
          "internalType": "address",
          "name": "",
          "type": "address"
        },
        {
          "internalType": "uint256",
          "name": "",
          "type": "uint256"
        },
        {
          "internalType": "bytes",
          "name": "",
          "type": "bytes"
        }
      ],
      "stateMutability": "pure",
      "type": "function",
      "gas": "0xa7d8c0"
    },
    {
      "inputs": [
        {
          "internalType": "contract IPool",
          "name": "_lendingPool",
          "type": "IPool"
        },
        {
          "internalType": "uint8",
          "name": "_categoryId",
          "type": "uint8"
        }
      ],
      "name": "getSetUserEmodeCalldata",
      "outputs": [
        {
          "internalType": "address",
          "name": "",
          "type": "address"
        },
        {
          "internalType": "uint256",
          "name": "",
          "type": "uint256"
        },
        {
          "internalType": "bytes",
          "name": "",
          "type": "bytes"
        }
      ],
      "stateMutability": "pure",
      "type": "function",
      "gas": "0xa7d8c0"
    },
    {
      "inputs": [
        {
          "internalType": "contract IPool",
          "name": "_lendingPool",
          "type": "IPool"
        },
        {
          "internalType": "address",
          "name": "_asset",
          "type": "address"
        },
        {
          "internalType": "bool",
          "name": "_useAsCollateral",
          "type": "bool"
        }
      ],
      "name": "getSetUserUseReserveAsCollateralCalldata",
      "outputs": [
        {
          "internalType": "address",
          "name": "",
          "type": "address"
        },
        {
          "internalType": "uint256",
          "name": "",
          "type": "uint256"
        },
        {
          "internalType": "bytes",
          "name": "",
          "type": "bytes"
        }
      ],
      "stateMutability": "pure",
      "type": "function",
      "gas": "0xa7d8c0"
    },
    {
      "inputs": [
        {
          "internalType": "contract IPool",
          "name": "_lendingPool",
          "type": "IPool"
        },
        {
          "internalType": "address",
          "name": "_asset",
          "type": "address"
        },
        {
          "internalType": "uint256",
          "name": "_rateMode",
          "type": "uint256"
        }
      ],
      "name": "getSwapBorrowRateModeCalldata",
      "outputs": [
        {
          "internalType": "address",
          "name": "",
          "type": "address"
        },
        {
          "internalType": "uint256",
          "name": "",
          "type": "uint256"
        },
        {
          "internalType": "bytes",
          "name": "",
          "type": "bytes"
        }
      ],
      "stateMutability": "pure",
      "type": "function",
      "gas": "0xa7d8c0"
    },
    {
      "inputs": [
        {
          "internalType": "contract IPool",
          "name": "_lendingPool",
          "type": "IPool"
        },
        {
          "internalType": "address",
          "name": "_asset",
          "type": "address"
        },
        {
          "internalType": "uint256",
          "name": "_amountNotional",
          "type": "uint256"
        },
        {
          "internalType": "address",
          "name": "_receiver",
          "type": "address"
        }
      ],
      "name": "getWithdrawCalldata",
      "outputs": [
        {
          "internalType": "address",
          "name": "",
          "type": "address"
        },
        {
          "internalType": "uint256",
          "name": "",
          "type": "uint256"
        },
        {
          "internalType": "bytes",
          "name": "",
          "type": "bytes"
        }
      ],
      "stateMutability": "pure",
      "type": "function",
      "gas": "0xa7d8c0"
    }
  ],
  "bytecode": "0x61117e610026600b82828239805160001a60731461001957fe5b30600052607381538281f3fe73000000000000000000000000000000000000000030146080604052600436106100f45760003560e01c8063a4e324cc11610096578063c56df3ab11610070578063c56df3ab1461044c578063e4d8a3be14610495578063fcb4588c146104cd578063ffd3358a14610519576100f4565b8063a4e324cc14610380578063b7686c03146103c9578063c09b1b0814610405576100f4565b806380395c15116100d257806380395c15146102585780638e70d276146102b957806390c41e551461030857806399c67a6d14610351576100f4565b8063366849b1146100f95780633da184b0146101d557806378dabb131461020b575b600080fd5b61013d600480360360a081101561010f57600080fd5b506001600160a01b038135811691602081013582169160408201359160608101359160809091013516610562565b60405180846001600160a01b03166001600160a01b0316815260200183815260200180602001828103825283818151815260200191508051906020019080838360005b83811015610198578181015183820152602001610180565b50505050905090810190601f1680156101c55780820380516001836020036101000a031916815260200191505b5094505050505060405180910390f35b61013d600480360360608110156101eb57600080fd5b506001600160a01b038135811691602081013590911690604001356105c6565b81801561021757600080fd5b506102566004803603608081101561022e57600080fd5b506001600160a01b038135811691602081013582169160408201351690606001351515610618565b005b81801561026457600080fd5b506102a7600480360360a081101561027b57600080fd5b506001600160a01b038135811691602081013582169160408201351690606081013590608001356107e7565b60408051918252519081900360200190f35b8180156102c557600080fd5b50610256600480360360a08110156102dc57600080fd5b506001600160a01b038135811691602081013582169160408201351690606081013590608001356109d3565b81801561031457600080fd5b506102566004803603608081101561032b57600080fd5b506001600160a01b03813581169160208101358216916040820135169060600135610ba7565b61013d6004803603604081101561036757600080fd5b5080356001600160a01b0316906020013560ff16610bb7565b81801561038c57600080fd5b50610256600480360360808110156103a357600080fd5b506001600160a01b03813581169160208101358216916040820135169060600135610bfd565b61013d600480360360808110156103df57600080fd5b506001600160a01b03813581169160208101358216916040820135916060013516610c0a565b81801561041157600080fd5b506102566004803603606081101561042857600080fd5b5080356001600160a01b03908116916020810135909116906040013560ff16610c65565b81801561045857600080fd5b506102a76004803603608081101561046f57600080fd5b506001600160a01b03813581169160208101358216916040820135169060600135610e32565b61013d600480360360608110156104ab57600080fd5b506001600160a01b03813581169160208101359091169060400135151561101c565b61013d600480360360c08110156104e357600080fd5b506001600160a01b038135811691602081013582169160408201359160608101359161ffff6080830135169160a0013516611070565b61013d600480360360a081101561052f57600080fd5b5080356001600160a01b039081169160208101358216916040820135916060810135909116906080013561ffff166110e0565b604080516001600160a01b039586166024820152604481019490945260648401929092529092166084808301919091528251808303909101815260a49091019091526020810180516001600160e01b031663573ade8160e01b179052909160009190565b604080516001600160a01b039390931660248401526044808401929092528051808403909201825260649092019091526020810180516001600160e01b0316634a5d44d160e11b179052909160009190565b606061062584848461101c565b92505050846001600160a01b0316638f6f0332856000846040518463ffffffff1660e01b815260040180846001600160a01b03166001600160a01b0316815260200183815260200180602001828103825283818151815260200191508051906020019080838360005b838110156106a657818101518382015260200161068e565b50505050905090810190601f1680156106d35780820380516001836020036101000a031916815260200191505b50945050505050600060405180830381600087803b1580156106f457600080fd5b505af1158015610708573d6000803e3d6000fd5b505050506040513d6000823e601f3d908101601f19168201604052602081101561073157600080fd5b8101908080516040519392919084600160201b82111561075057600080fd5b90830190602082018581111561076557600080fd5b8251600160201b81118282018810171561077e57600080fd5b82525081516020918201929091019080838360005b838110156107ab578181015183820152602001610793565b50505050905090810190601f1680156107d85780820380516001836020036101000a031916815260200191505b50604052505050505050505050565b600060606107f8868686868b610562565b92505050866001600160a01b0316638f6f0332876000846040518463ffffffff1660e01b815260040180846001600160a01b03166001600160a01b0316815260200183815260200180602001828103825283818151815260200191508051906020019080838360005b83811015610879578181015183820152602001610861565b50505050905090810190601f1680156108a65780820380516001836020036101000a031916815260200191505b50945050505050600060405180830381600087803b1580156108c757600080fd5b505af11580156108db573d6000803e3d6000fd5b505050506040513d6000823e601f3d908101601f19168201604052602081101561090457600080fd5b8101908080516040519392919084600160201b82111561092357600080fd5b90830190602082018581111561093857600080fd5b8251600160201b81118282018810171561095157600080fd5b82525081516020918201929091019080838360005b8381101561097e578181015183820152602001610966565b50505050905090810190601f1680156109ab5780820380516001836020036101000a031916815260200191505b5060405250505080602001905160208110156109c657600080fd5b5051979650505050505050565b60606109e48585858560008b611070565b92505050856001600160a01b0316638f6f0332866000846040518463ffffffff1660e01b815260040180846001600160a01b03166001600160a01b0316815260200183815260200180602001828103825283818151815260200191508051906020019080838360005b83811015610a65578181015183820152602001610a4d565b50505050905090810190601f168015610a925780820380516001836020036101000a031916815260200191505b50945050505050600060405180830381600087803b158015610ab357600080fd5b505af1158015610ac7573d6000803e3d6000fd5b505050506040513d6000823e601f3d908101601f191682016040526020811015610af057600080fd5b8101908080516040519392919084600160201b821115610b0f57600080fd5b908301906020820185811115610b2457600080fd5b8251600160201b811182820188101715610b3d57600080fd5b82525081516020918201929091019080838360005b83811015610b6a578181015183820152602001610b52565b50505050905090810190601f168015610b975780820380516001836020036101000a031916815260200191505b5060405250505050505050505050565b60606106258484848860006110e0565b6040805160ff9290921660248084019190915281518084039091018152604490920190526020810180516001600160e01b03166328530a4760e01b179052909160009190565b60606106258484846105c6565b604080516001600160a01b039485166024820152604481019390935292166064808301919091528251808303909101815260849091019091526020810180516001600160e01b0316631a4ca37b60e21b179052909160009190565b6060610c718383610bb7565b92505050836001600160a01b0316638f6f0332846000846040518463ffffffff1660e01b815260040180846001600160a01b03166001600160a01b0316815260200183815260200180602001828103825283818151815260200191508051906020019080838360005b83811015610cf2578181015183820152602001610cda565b50505050905090810190601f168015610d1f5780820380516001836020036101000a031916815260200191505b50945050505050600060405180830381600087803b158015610d4057600080fd5b505af1158015610d54573d6000803e3d6000fd5b505050506040513d6000823e601f3d908101601f191682016040526020811015610d7d57600080fd5b8101908080516040519392919084600160201b821115610d9c57600080fd5b908301906020820185811115610db157600080fd5b8251600160201b811182820188101715610dca57600080fd5b82525081516020918201929091019080838360005b83811015610df7578181015183820152602001610ddf565b50505050905090810190601f168015610e245780820380516001836020036101000a031916815260200191505b506040525050505050505050565b60006060610e4285858589610c0a565b92505050856001600160a01b0316638f6f0332866000846040518463ffffffff1660e01b815260040180846001600160a01b03166001600160a01b0316815260200183815260200180602001828103825283818151815260200191508051906020019080838360005b83811015610ec3578181015183820152602001610eab565b50505050905090810190601f168015610ef05780820380516001836020036101000a031916815260200191505b50945050505050600060405180830381600087803b158015610f1157600080fd5b505af1158015610f25573d6000803e3d6000fd5b505050506040513d6000823e601f3d908101601f191682016040526020811015610f4e57600080fd5b8101908080516040519392919084600160201b821115610f6d57600080fd5b908301906020820185811115610f8257600080fd5b8251600160201b811182820188101715610f9b57600080fd5b82525081516020918201929091019080838360005b83811015610fc8578181015183820152602001610fb0565b50505050905090810190601f168015610ff55780820380516001836020036101000a031916815260200191505b50604052505050806020019051602081101561101057600080fd5b50519695505050505050565b604080516001600160a01b0393909316602484015290151560448084019190915281518084039091018152606490920190526020810180516001600160e01b0316635a3b74b960e01b179052909160009190565b604080516001600160a01b0396871660248201526044810195909552606485019390935261ffff91909116608484015290921660a4808301919091528251808303909101815260c49091019091526020810180516001600160e01b031663a415bcad60e01b179052909160009190565b604080516001600160a01b039586166024820152604481019490945291909316606483015261ffff9092166084808301919091528251808303909101815260a49091019091526020810180516001600160e01b031663e8eda9df60e01b17905290916000919056fea26469706673582212204a2dc4131c23d9b7a7cbd13747b3eb7ec58db8045b82fb5f6e4284c08750c83d64736f6c634300060a0033",
  "linkReferences": {},
  "deployedLinkReferences": {}
}