{
  "_format": "hh-sol-artifact-1",
  "contractName": "AaveLeverageModule",
  "sourceName": "contracts/protocol/modules/AaveLeverageModule.sol",
  "abi": [
    {
      "inputs": [
        {
          "internalType": "contract IController",
          "name": "_controller",
          "type": "address"
        },
        {
          "internalType": "contract ILendingPoolAddressesProvider",
          "name": "_lendingPoolAddressesProvider",
          "type": "address"
        },
        {
          "internalType": "contract IProtocolDataProvider",
          "name": "_protocolDataProvider",
          "type": "address"
        }
      ],
      "stateMutability": "nonpayable",
      "type": "constructor"
    },
    {
      "anonymous": false,
      "inputs": [
        {
          "indexed": true,
          "internalType": "bool",
          "name": "_anySetAllowed",
          "type": "bool"
        }
      ],
      "name": "AnySetAllowedUpdated",
      "type": "event"
    },
    {
      "anonymous": false,
      "inputs": [
        {
          "indexed": true,
          "internalType": "contract ISetToken",
          "name": "_setToken",
          "type": "address"
        },
        {
          "indexed": true,
          "internalType": "bool",
          "name": "_added",
          "type": "bool"
        },
        {
          "indexed": false,
          "internalType": "contract IERC20[]",
          "name": "_assets",
          "type": "address[]"
        }
      ],
      "name": "BorrowAssetsUpdated",
      "type": "event"
    },
    {
      "anonymous": false,
      "inputs": [
        {
          "indexed": true,
          "internalType": "contract ISetToken",
          "name": "_setToken",
          "type": "address"
        },
        {
          "indexed": true,
          "internalType": "bool",
          "name": "_added",
          "type": "bool"
        },
        {
          "indexed": false,
          "internalType": "contract IERC20[]",
          "name": "_assets",
          "type": "address[]"
        }
      ],
      "name": "CollateralAssetsUpdated",
      "type": "event"
    },
    {
      "anonymous": false,
      "inputs": [
        {
          "indexed": true,
          "internalType": "contract ISetToken",
          "name": "_setToken",
          "type": "address"
        },
        {
          "indexed": true,
          "internalType": "contract IERC20",
          "name": "_collateralAsset",
          "type": "address"
        },
        {
          "indexed": true,
          "internalType": "contract IERC20",
          "name": "_repayAsset",
          "type": "address"
        },
        {
          "indexed": false,
          "internalType": "contract IExchangeAdapter",
          "name": "_exchangeAdapter",
          "type": "address"
        },
        {
          "indexed": false,
          "internalType": "uint256",
          "name": "_totalRedeemAmount",
          "type": "uint256"
        },
        {
          "indexed": false,
          "internalType": "uint256",
          "name": "_totalRepayAmount",
          "type": "uint256"
        },
        {
          "indexed": false,
          "internalType": "uint256",
          "name": "_protocolFee",
          "type": "uint256"
        }
      ],
      "name": "LeverageDecreased",
      "type": "event"
    },
    {
      "anonymous": false,
      "inputs": [
        {
          "indexed": true,
          "internalType": "contract ISetToken",
          "name": "_setToken",
          "type": "address"
        },
        {
          "indexed": true,
          "internalType": "contract IERC20",
          "name": "_borrowAsset",
          "type": "address"
        },
        {
          "indexed": true,
          "internalType": "contract IERC20",
          "name": "_collateralAsset",
          "type": "address"
        },
        {
          "indexed": false,
          "internalType": "contract IExchangeAdapter",
          "name": "_exchangeAdapter",
          "type": "address"
        },
        {
          "indexed": false,
          "internalType": "uint256",
          "name": "_totalBorrowAmount",
          "type": "uint256"
        },
        {
          "indexed": false,
          "internalType": "uint256",
          "name": "_totalReceiveAmount",
          "type": "uint256"
        },
        {
          "indexed": false,
          "internalType": "uint256",
          "name": "_protocolFee",
          "type": "uint256"
        }
      ],
      "name": "LeverageIncreased",
      "type": "event"
    },
    {
      "anonymous": false,
      "inputs": [
        {
          "indexed": true,
          "internalType": "address",
          "name": "previousOwner",
          "type": "address"
        },
        {
          "indexed": true,
          "internalType": "address",
          "name": "newOwner",
          "type": "address"
        }
      ],
      "name": "OwnershipTransferred",
      "type": "event"
    },
    {
      "anonymous": false,
      "inputs": [
        {
          "indexed": true,
          "internalType": "contract IERC20",
          "name": "_underlying",
          "type": "address"
        },
        {
          "indexed": true,
          "internalType": "contract IAToken",
          "name": "_aToken",
          "type": "address"
        },
        {
          "indexed": true,
          "internalType": "contract IVariableDebtToken",
          "name": "_variableDebtToken",
          "type": "address"
        }
      ],
      "name": "ReserveTokensUpdated",
      "type": "event"
    },
    {
      "anonymous": false,
      "inputs": [
        {
          "indexed": true,
          "internalType": "contract ISetToken",
          "name": "_setToken",
          "type": "address"
        },
        {
          "indexed": true,
          "internalType": "bool",
          "name": "_added",
          "type": "bool"
        }
      ],
      "name": "SetTokenStatusUpdated",
      "type": "event"
    },
    {
      "inputs": [
        {
          "internalType": "contract ISetToken",
          "name": "_setToken",
          "type": "address"
        },
        {
          "internalType": "contract IERC20[]",
          "name": "_newBorrowAssets",
          "type": "address[]"
        }
      ],
      "name": "addBorrowAssets",
      "outputs": [],
      "stateMutability": "nonpayable",
      "type": "function",
      "gas": "0xaeb690"
    },
    {
      "inputs": [
        {
          "internalType": "contract ISetToken",
          "name": "_setToken",
          "type": "address"
        },
        {
          "internalType": "contract IERC20[]",
          "name": "_newCollateralAssets",
          "type": "address[]"
        }
      ],
      "name": "addCollateralAssets",
      "outputs": [],
      "stateMutability": "nonpayable",
      "type": "function",
      "gas": "0xaeb690"
    },
    {
      "inputs": [
        {
          "internalType": "contract IERC20",
          "name": "_underlying",
          "type": "address"
        }
      ],
      "name": "addUnderlyingToReserveTokensMapping",
      "outputs": [],
      "stateMutability": "nonpayable",
      "type": "function",
      "gas": "0xaeb690"
    },
    {
      "inputs": [
        {
          "internalType": "contract ISetToken",
          "name": "",
          "type": "address"
        }
      ],
      "name": "allowedSetTokens",
      "outputs": [
        {
          "internalType": "bool",
          "name": "",
          "type": "bool"
        }
      ],
      "stateMutability": "view",
      "type": "function",
      "gas": "0xaeb690"
    },
    {
      "inputs": [],
      "name": "anySetAllowed",
      "outputs": [
        {
          "internalType": "bool",
          "name": "",
          "type": "bool"
        }
      ],
      "stateMutability": "view",
      "type": "function",
      "gas": "0xaeb690"
    },
    {
      "inputs": [
        {
          "internalType": "contract ISetToken",
          "name": "",
          "type": "address"
        },
        {
          "internalType": "contract IERC20",
          "name": "",
          "type": "address"
        }
      ],
      "name": "borrowAssetEnabled",
      "outputs": [
        {
          "internalType": "bool",
          "name": "",
          "type": "bool"
        }
      ],
      "stateMutability": "view",
      "type": "function",
      "gas": "0xaeb690"
    },
    {
      "inputs": [
        {
          "internalType": "contract ISetToken",
          "name": "",
          "type": "address"
        },
        {
          "internalType": "contract IERC20",
          "name": "",
          "type": "address"
        }
      ],
      "name": "collateralAssetEnabled",
      "outputs": [
        {
          "internalType": "bool",
          "name": "",
          "type": "bool"
        }
      ],
      "stateMutability": "view",
      "type": "function",
      "gas": "0xaeb690"
    },
    {
      "inputs": [
        {
          "internalType": "contract ISetToken",
          "name": "_setToken",
          "type": "address"
        },
        {
          "internalType": "uint256",
          "name": "_setTokenQuantity",
          "type": "uint256"
        },
        {
          "internalType": "contract IERC20",
          "name": "_component",
          "type": "address"
        },
        {
          "internalType": "bool",
          "name": "",
          "type": "bool"
        }
      ],
      "name": "componentIssueHook",
      "outputs": [],
      "stateMutability": "nonpayable",
      "type": "function",
      "gas": "0xaeb690"
    },
    {
      "inputs": [
        {
          "internalType": "contract ISetToken",
          "name": "_setToken",
          "type": "address"
        },
        {
          "internalType": "uint256",
          "name": "_setTokenQuantity",
          "type": "uint256"
        },
        {
          "internalType": "contract IERC20",
          "name": "_component",
          "type": "address"
        },
        {
          "internalType": "bool",
          "name": "",
          "type": "bool"
        }
      ],
      "name": "componentRedeemHook",
      "outputs": [],
      "stateMutability": "nonpayable",
      "type": "function",
      "gas": "0xaeb690"
    },
    {
      "inputs": [],
      "name": "controller",
      "outputs": [
        {
          "internalType": "contract IController",
          "name": "",
          "type": "address"
        }
      ],
      "stateMutability": "view",
      "type": "function",
      "gas": "0xaeb690"
    },
    {
      "inputs": [
        {
          "internalType": "contract ISetToken",
          "name": "_setToken",
          "type": "address"
        },
        {
          "internalType": "contract IERC20",
          "name": "_collateralAsset",
          "type": "address"
        },
        {
          "internalType": "contract IERC20",
          "name": "_repayAsset",
          "type": "address"
        },
        {
          "internalType": "uint256",
          "name": "_redeemQuantityUnits",
          "type": "uint256"
        },
        {
          "internalType": "uint256",
          "name": "_minRepayQuantityUnits",
          "type": "uint256"
        },
        {
          "internalType": "string",
          "name": "_tradeAdapterName",
          "type": "string"
        },
        {
          "internalType": "bytes",
          "name": "_tradeData",
          "type": "bytes"
        }
      ],
      "name": "delever",
      "outputs": [],
      "stateMutability": "nonpayable",
      "type": "function",
      "gas": "0xaeb690"
    },
    {
      "inputs": [
        {
          "internalType": "contract ISetToken",
          "name": "_setToken",
          "type": "address"
        },
        {
          "internalType": "contract IERC20",
          "name": "_collateralAsset",
          "type": "address"
        },
        {
          "internalType": "contract IERC20",
          "name": "_repayAsset",
          "type": "address"
        },
        {
          "internalType": "uint256",
          "name": "_redeemQuantityUnits",
          "type": "uint256"
        },
        {
          "internalType": "string",
          "name": "_tradeAdapterName",
          "type": "string"
        },
        {
          "internalType": "bytes",
          "name": "_tradeData",
          "type": "bytes"
        }
      ],
      "name": "deleverToZeroBorrowBalance",
      "outputs": [
        {
          "internalType": "uint256",
          "name": "",
          "type": "uint256"
        }
      ],
      "stateMutability": "nonpayable",
      "type": "function",
      "gas": "0xaeb690"
    },
    {
      "inputs": [
        {
          "internalType": "contract ISetToken",
          "name": "_setToken",
          "type": "address"
        }
      ],
      "name": "getEnabledAssets",
      "outputs": [
        {
          "internalType": "address[]",
          "name": "",
          "type": "address[]"
        },
        {
          "internalType": "address[]",
          "name": "",
          "type": "address[]"
        }
      ],
      "stateMutability": "view",
      "type": "function",
      "gas": "0xaeb690"
    },
    {
      "inputs": [
        {
          "internalType": "contract ISetToken",
          "name": "_setToken",
          "type": "address"
        },
        {
          "internalType": "contract IERC20[]",
          "name": "_collateralAssets",
          "type": "address[]"
        },
        {
          "internalType": "contract IERC20[]",
          "name": "_borrowAssets",
          "type": "address[]"
        }
      ],
      "name": "initialize",
      "outputs": [],
      "stateMutability": "nonpayable",
      "type": "function",
      "gas": "0xaeb690"
    },
    {
      "inputs": [],
      "name": "lendingPool",
      "outputs": [
        {
          "internalType": "contract ILendingPool",
          "name": "",
          "type": "address"
        }
      ],
      "stateMutability": "view",
      "type": "function",
      "gas": "0xaeb690"
    },
    {
      "inputs": [],
      "name": "lendingPoolAddressesProvider",
      "outputs": [
        {
          "internalType": "contract ILendingPoolAddressesProvider",
          "name": "",
          "type": "address"
        }
      ],
      "stateMutability": "view",
      "type": "function",
      "gas": "0xaeb690"
    },
    {
      "inputs": [
        {
          "internalType": "contract ISetToken",
          "name": "_setToken",
          "type": "address"
        },
        {
          "internalType": "contract IERC20",
          "name": "_borrowAsset",
          "type": "address"
        },
        {
          "internalType": "contract IERC20",
          "name": "_collateralAsset",
          "type": "address"
        },
        {
          "internalType": "uint256",
          "name": "_borrowQuantityUnits",
          "type": "uint256"
        },
        {
          "internalType": "uint256",
          "name": "_minReceiveQuantityUnits",
          "type": "uint256"
        },
        {
          "internalType": "string",
          "name": "_tradeAdapterName",
          "type": "string"
        },
        {
          "internalType": "bytes",
          "name": "_tradeData",
          "type": "bytes"
        }
      ],
      "name": "lever",
      "outputs": [],
      "stateMutability": "nonpayable",
      "type": "function",
      "gas": "0xaeb690"
    },
    {
      "inputs": [
        {
          "internalType": "contract ISetToken",
          "name": "_setToken",
          "type": "address"
        },
        {
          "internalType": "uint256",
          "name": "",
          "type": "uint256"
        }
      ],
      "name": "moduleIssueHook",
      "outputs": [],
      "stateMutability": "nonpayable",
      "type": "function",
      "gas": "0xaeb690"
    },
    {
      "inputs": [
        {
          "internalType": "contract ISetToken",
          "name": "_setToken",
          "type": "address"
        },
        {
          "internalType": "uint256",
          "name": "",
          "type": "uint256"
        }
      ],
      "name": "moduleRedeemHook",
      "outputs": [],
      "stateMutability": "nonpayable",
      "type": "function",
      "gas": "0xaeb690"
    },
    {
      "inputs": [],
      "name": "owner",
      "outputs": [
        {
          "internalType": "address",
          "name": "",
          "type": "address"
        }
      ],
      "stateMutability": "view",
      "type": "function",
      "gas": "0xaeb690"
    },
    {
      "inputs": [],
      "name": "protocolDataProvider",
      "outputs": [
        {
          "internalType": "contract IProtocolDataProvider",
          "name": "",
          "type": "address"
        }
      ],
      "stateMutability": "view",
      "type": "function",
      "gas": "0xaeb690"
    },
    {
      "inputs": [
        {
          "internalType": "contract ISetToken",
          "name": "_setToken",
          "type": "address"
        },
        {
          "internalType": "contract IDebtIssuanceModule",
          "name": "_debtIssuanceModule",
          "type": "address"
        }
      ],
      "name": "registerToModule",
      "outputs": [],
      "stateMutability": "nonpayable",
      "type": "function",
      "gas": "0xaeb690"
    },
    {
      "inputs": [
        {
          "internalType": "contract ISetToken",
          "name": "_setToken",
          "type": "address"
        },
        {
          "internalType": "contract IERC20[]",
          "name": "_borrowAssets",
          "type": "address[]"
        }
      ],
      "name": "removeBorrowAssets",
      "outputs": [],
      "stateMutability": "nonpayable",
      "type": "function",
      "gas": "0xaeb690"
    },
    {
      "inputs": [
        {
          "internalType": "contract ISetToken",
          "name": "_setToken",
          "type": "address"
        },
        {
          "internalType": "contract IERC20[]",
          "name": "_collateralAssets",
          "type": "address[]"
        }
      ],
      "name": "removeCollateralAssets",
      "outputs": [],
      "stateMutability": "nonpayable",
      "type": "function",
      "gas": "0xaeb690"
    },
    {
      "inputs": [],
      "name": "removeModule",
      "outputs": [],
      "stateMutability": "nonpayable",
      "type": "function",
      "gas": "0xaeb690"
    },
    {
      "inputs": [],
      "name": "renounceOwnership",
      "outputs": [],
      "stateMutability": "nonpayable",
      "type": "function",
      "gas": "0xaeb690"
    },
    {
      "inputs": [
        {
          "internalType": "contract ISetToken",
          "name": "_setToken",
          "type": "address"
        }
      ],
      "name": "sync",
      "outputs": [],
      "stateMutability": "nonpayable",
      "type": "function",
      "gas": "0xaeb690"
    },
    {
      "inputs": [
        {
          "internalType": "address",
          "name": "newOwner",
          "type": "address"
        }
      ],
      "name": "transferOwnership",
      "outputs": [],
      "stateMutability": "nonpayable",
      "type": "function",
      "gas": "0xaeb690"
    },
    {
      "inputs": [
        {
          "internalType": "contract IERC20",
          "name": "",
          "type": "address"
        }
      ],
      "name": "underlyingToReserveTokens",
      "outputs": [
        {
          "internalType": "contract IAToken",
          "name": "aToken",
          "type": "address"
        },
        {
          "internalType": "contract IVariableDebtToken",
          "name": "variableDebtToken",
          "type": "address"
        }
      ],
      "stateMutability": "view",
      "type": "function",
      "gas": "0xaeb690"
    },
    {
      "inputs": [
        {
          "internalType": "contract ISetToken",
          "name": "_setToken",
          "type": "address"
        },
        {
          "internalType": "bool",
          "name": "_status",
          "type": "bool"
        }
      ],
      "name": "updateAllowedSetToken",
      "outputs": [],
      "stateMutability": "nonpayable",
      "type": "function",
      "gas": "0xaeb690"
    },
    {
      "inputs": [
        {
          "internalType": "bool",
          "name": "_anySetAllowed",
          "type": "bool"
        }
      ],
      "name": "updateAnySetAllowed",
      "outputs": [],
      "stateMutability": "nonpayable",
      "type": "function",
      "gas": "0xaeb690"
    }
  ],
  "bytecode": "0x60806040523480156200001157600080fd5b5060405162006123380380620061238339810160408190526200003491620004e5565b600080546001600160a01b0319166001600160a01b038516178155600180556200005d62000230565b600280546001600160a01b0319166001600160a01b038316908117909155604051919250906000907f8be0079c531659141344cd1fd0a4f28419497f9722a3daafe3b4186f6b6457e0908290a350600680546001600160a01b038085166001600160a01b03199283168117909355600580549185169190921617905560408051630261bf8b60e01b81529051630261bf8b91600480820192602092909190829003018186803b1580156200011057600080fd5b505afa15801562000125573d6000803e3d6000fd5b505050506040513d601f19601f820116820180604052508101906200014b919062000337565b600480546001600160a01b0319166001600160a01b039283161781556005546040805163b316ff8960e01b81529051606094929092169263b316ff89928282019260009290829003018186803b158015620001a557600080fd5b505afa158015620001ba573d6000803e3d6000fd5b505050506040513d6000823e601f3d908101601f19168201604052620001e49190810190620003b0565b905060005b815181101562000225576200021c8282815181106200020457fe5b6020026020010151602001516200023460201b60201c565b600101620001e9565b5050505050620005a5565b3390565b6005546040516334924edb60e21b815260009182916001600160a01b039091169063d2493b6c906200026b908690600401620004fa565b60606040518083038186803b1580156200028457600080fd5b505afa15801562000299573d6000803e3d6000fd5b505050506040513d601f19601f82011682018060405250810190620002bf91906200035d565b6001600160a01b0380871660008181526003602052604080822080548589166001600160a01b03199182168117835560019092018054968816969091168617905590519698509396509194929350917fc45243255b6bdd38d8648b8c5e5b9429c7143b47e850cad1601dc1edbb6a3b5b9190a4505050565b60006020828403121562000349578081fd5b815162000356816200058c565b9392505050565b60008060006060848603121562000372578182fd5b83516200037f816200058c565b602085015190935062000392816200058c565b6040850151909250620003a5816200058c565b809150509250925092565b60006020808385031215620003c3578182fd5b82516001600160401b0380821115620003da578384fd5b81850186601f820112620003ec578485fd5b8051925081831115620003fd578485fd5b6200040c84858502016200050e565b83815284810190828601875b86811015620004d657815185016040818d03601f190112156200043957898afd5b6200044560406200050e565b898201518881111562000456578b8cfd5b8083018e603f82011262000468578c8dfd5b8b8101519150620004836200047d8362000535565b6200050e565b8281528f604084840101111562000498578d8efd5b620004aa838e83016040850162000559565b835250506040820151620004be816200058c565b818b0152855250928701929087019060010162000418565b50909998505050505050505050565b60008060006060848603121562000372578283fd5b6001600160a01b0391909116815260200190565b6040518181016001600160401b03811182821017156200052d57600080fd5b604052919050565b60006001600160401b038211156200054b578081fd5b50601f01601f191660200190565b60005b83811015620005765781810151838201526020016200055c565b8381111562000586576000848401525b50505050565b6001600160a01b0381168114620005a257600080fd5b50565b615b6e80620005b56000396000f3fe608060405234801561001057600080fd5b50600436106101e55760003560e01c8063847ef08d1161010f578063c153dd07116100a2578063ee78244f11610071578063ee78244f146103d9578063f2fde38b146103ec578063f77c4791146103ff578063ffbad25c14610407576101e5565b8063c153dd0714610251578063c690a74c14610393578063d4fd27eb146103a6578063e4e9ce92146103c6576101e5565b8063b1c02678116100de578063b1c026781461034f578063b1dd4d9214610370578063bba00ba514610378578063c137f4d714610380576101e5565b8063847ef08d146103245780638da5cb5b1461032c578063a584119414610334578063a59a997314610347576101e5565b80634fdd283c116101875780635b136512116101565780635b136512146102e3578063715018a6146102f6578063717ca2a5146102fe5780637c7a624e14610311576101e5565b80634fdd283c14610297578063516595fc146102aa5780635199e418146102bd5780635809ae27146102d0576101e5565b80633f843bce116101c35780633f843bce1461023c5780633fe6106b14610251578063427eddb5146102645780634a200fa514610284576101e5565b806302577224146101ea5780630df96ef6146102145780630fb96b2114610229575b600080fd5b6101fd6101f83660046148ed565b61041a565b60405161020b929190614f9c565b60405180910390f35b610227610222366004614ad0565b610440565b005b610227610237366004614d64565b61060f565b6102446106fe565b60405161020b9190614f88565b61022761025f366004614d39565b61070d565b610277610272366004614bbf565b610725565b60405161020b9190615106565b610227610292366004614b1e565b610745565b6102276102a5366004614c8d565b6109ca565b6102276102b8366004614ad0565b610aea565b6102276102cb366004614a65565b610afe565b6102276102de366004614ad0565b610b70565b6102276102f1366004614bbf565b610c83565b610227610d7f565b61022761030c366004614ad0565b610dfe565b61022761031f3660046148ed565b610e12565b610227610f01565b6102446112ad565b6102276103423660046148ed565b6112bd565b610244611641565b61036261035d3660046148ed565b611650565b60405161020b929190615094565b61027761172e565b610244611737565b61022761038e366004614d64565b611746565b6102276103a1366004614b87565b611827565b6103b96103b4366004614bec565b61196f565b60405161020b9190615a75565b6102776103d4366004614bbf565b611c19565b6102776103e73660046148ed565b611c39565b6102276103fa3660046148ed565b611c4e565b610244611d05565b610227610415366004614c8d565b611d14565b600360205260009081526040902080546001909101546001600160a01b03918216911682565b8161044a81611e1e565b60005b82518110156105c457600083828151811061046457fe5b6020908102919091018101516001600160a01b0380881660009081526008845260408082209284168252919093529091205490915060ff166104c15760405162461bcd60e51b81526004016104b89061550e565b60405180910390fd5b6001600160a01b03808216600090815260036020526040908190206001015490516370a0823160e01b81529116906370a0823190610503908890600401614f88565b60206040518083038186803b15801561051b57600080fd5b505afa15801561052f573d6000803e3d6000fd5b505050506040513d601f19601f820116820180604052508101906105539190614dd5565b156105705760405162461bcd60e51b81526004016104b8906157bc565b6001600160a01b0380861660008181526008602090815260408083209486168352938152838220805460ff191690559181526009909152206105bb906001018263ffffffff611e6c16565b5060010161044d565b5060001515836001600160a01b03167f1c400b459725a0446742d6688375dffe941d5f9a65fe3900c93e07d9e772250b8460405161060291906150b9565b60405180910390a3505050565b8361061981611f99565b6040516308bafae960e21b81526000906001600160a01b038716906322ebeba49061064a9087903090600401614f9c565b60206040518083038186803b15801561066257600080fd5b505afa158015610676573d6000803e3d6000fd5b505050506040513d601f19601f8201168201806040525081019061069a9190614dd5565b9050600081126106bc5760405162461bcd60e51b81526004016104b890615261565b60006106e8866106dc6106d78560001963ffffffff6120db16565b61214f565b9063ffffffff61217516565b90506106f587868361219f565b50505050505050565b6005546001600160a01b031681565b8161071781611f99565b610720836112bd565b505050565b600760209081526000928352604080842090915290825290205460ff1681565b82336107518282612217565b8461075b8161223d565b600b5460ff1661079d576001600160a01b0386166000908152600a602052604090205460ff1661079d5760405162461bcd60e51b81526004016104b890615710565b856001600160a01b0316630ffe0f1e6040518163ffffffff1660e01b8152600401600060405180830381600087803b1580156107d857600080fd5b505af11580156107ec573d6000803e3d6000fd5b50505050856001600160a01b031663d7f1b27c6108356040518060400160405280601581526020017444656661756c7449737375616e63654d6f64756c6560581b8152506122fe565b6040518263ffffffff1660e01b81526004016108519190614f88565b60206040518083038186803b15801561086957600080fd5b505afa15801561087d573d6000803e3d6000fd5b505050506040513d601f19601f820116820180604052508101906108a19190614a81565b6108bd5760405162461bcd60e51b81526004016104b8906155e9565b6060866001600160a01b031663b2494df36040518163ffffffff1660e01b815260040160006040518083038186803b1580156108f857600080fd5b505afa15801561090c573d6000803e3d6000fd5b505050506040513d6000823e601f3d908101601f1916820160405261093491908101906149c9565b905060005b81518110156109b55781818151811061094e57fe5b60200260200101516001600160a01b031663d9b1b6e0896040518263ffffffff1660e01b81526004016109819190614f88565b600060405180830381600087803b15801561099b57600080fd5b505af19250505080156109ac575060015b50600101610939565b506109c0878761231c565b6106f58786612409565b600260015414156109ed5760405162461bcd60e51b81526004016104b890615997565b6002600155866109fc81611e1e565b610a0461473f565b610a1489898989898960006124e0565b9050610a298160000151898360600151612598565b6000610a37828a8a87612632565b90506000610a468b8a846128c0565b90506000610a5a838363ffffffff6128e316565b9050610a6b84600001518b83612925565b610a75848b612994565b896001600160a01b03168b6001600160a01b03168d6001600160a01b03167f7cda30123ddfc96659344700585861a8670352b9cc86d1b1054d10083b1dcdd4876020015188606001518688604051610ad09493929190615111565b60405180910390a450506001805550505050505050505050565b81610af481611e1e565b6107208383612409565b610b066129f8565b6002546001600160a01b03908116911614610b335760405162461bcd60e51b81526004016104b8906156db565b600b805460ff19168215159081179091556040517f563e1633136cdd43b8793897cb53ba2a9e31c18b3ae0b6827fbbb03b9902e6c690600090a250565b81610b7a81611e1e565b60005b8251811015610c45576000838281518110610b9457fe5b6020908102919091018101516001600160a01b0380881660009081526007845260408082209284168252919093529091205490915060ff16610be85760405162461bcd60e51b81526004016104b8906154de565b610bf4858260006129fc565b6001600160a01b0380861660008181526007602090815260408083209486168352938152838220805460ff19169055918152600990915220610c3c908263ffffffff611e6c16565b50600101610b7d565b5060001515836001600160a01b03167fdd2a86f23a66f86496c82312e991b49f87ad96c4f25094a43c49f7aca0ea35428460405161060291906150b9565b81610c8d81611e1e565b6040516335fc6c9f60e21b81526001600160a01b0384169063d7f1b27c90610cb9908590600401614f88565b60206040518083038186803b158015610cd157600080fd5b505afa158015610ce5573d6000803e3d6000fd5b505050506040513d601f19601f82011682018060405250810190610d099190614a81565b610d255760405162461bcd60e51b81526004016104b8906155e9565b6040516306cd8db760e51b81526001600160a01b0383169063d9b1b6e090610d51908690600401614f88565b600060405180830381600087803b158015610d6b57600080fd5b505af11580156106f5573d6000803e3d6000fd5b610d876129f8565b6002546001600160a01b03908116911614610db45760405162461bcd60e51b81526004016104b8906156db565b6002546040516000916001600160a01b0316907f8be0079c531659141344cd1fd0a4f28419497f9722a3daafe3b4186f6b6457e0908390a3600280546001600160a01b0319169055565b81610e0881611e1e565b610720838361231c565b6001600160a01b038181166000908152600360205260409020541615610e4a5760405162461bcd60e51b81526004016104b890615231565b600554604051633e15014160e01b81526000916001600160a01b031690633e15014190610e7b908590600401614f88565b6101406040518083038186803b158015610e9457600080fd5b505afa158015610ea8573d6000803e3d6000fd5b505050506040513d601f19601f82011682018060405250810190610ecc9190614ded565b509850505050505050505080610ef45760405162461bcd60e51b81526004016104b890615456565b610efd82612baf565b5050565b33610f0b81611e44565b33610f15816112bd565b6001600160a01b038116600090815260096020908152604091829020600101805483518184028101840190945280845260609392830182828015610f8257602002820191906000526020600020905b81546001600160a01b03168152600190910190602001808311610f64575b50939450600093505050505b815181101561109d576000828281518110610fa557fe5b6020908102919091018101516001600160a01b03808216600090815260039093526040928390206001015492516370a0823160e01b815291935091909116906370a0823190610ff8908790600401614f88565b60206040518083038186803b15801561101057600080fd5b505afa158015611024573d6000803e3d6000fd5b505050506040513d601f19601f820116820180604052508101906110489190614dd5565b156110655760405162461bcd60e51b81526004016104b8906157bc565b6001600160a01b038085166000908152600860209081526040808320949093168252929092529020805460ff19169055600101610f8e565b506001600160a01b03821660009081526009602090815260409182902080548351818402810184019094528084526060939283018282801561110857602002820191906000526020600020905b81546001600160a01b031681526001909101906020018083116110ea575b50939450600093505050505b815181101561117957600082828151811061112b57fe5b60200260200101519050611141858260006129fc565b6001600160a01b038086166000908152600760209081526040808320949093168252929092529020805460ff19169055600101611114565b506001600160a01b03831660009081526009602052604081209061119d82826147a8565b6111ab6001830160006147a8565b50506060836001600160a01b031663b2494df36040518163ffffffff1660e01b815260040160006040518083038186803b1580156111e857600080fd5b505afa1580156111fc573d6000803e3d6000fd5b505050506040513d6000823e601f3d908101601f1916820160405261122491908101906149c9565b905060005b81518110156112a55781818151811061123e57fe5b60200260200101516001600160a01b031663e0799620866040518263ffffffff1660e01b81526004016112719190614f88565b600060405180830381600087803b15801561128b57600080fd5b505af192505050801561129c575060015b50600101611229565b505050505050565b6002546001600160a01b03165b90565b600260015414156112e05760405162461bcd60e51b81526004016104b890615997565b6002600155806112ef81611e44565b6000826001600160a01b03166318160ddd6040518163ffffffff1660e01b815260040160206040518083038186803b15801561132a57600080fd5b505afa15801561133e573d6000803e3d6000fd5b505050506040513d601f19601f820116820180604052508101906113629190614dd5565b90508015611638576001600160a01b0383166000908152600960209081526040918290208054835181840281018401909452808452606093928301828280156113d457602002820191906000526020600020905b81546001600160a01b031681526001909101906020018083116113b6575b50939450600093505050505b81518110156114eb576000600360008484815181106113fb57fe5b60200260200101516001600160a01b03166001600160a01b0316815260200190815260200160002060000160009054906101000a90046001600160a01b0316905060006114bd876001600160a01b03166366cb8d2f846040518263ffffffff1660e01b815260040161146d9190614f88565b60206040518083038186803b15801561148557600080fd5b505afa158015611499573d6000803e3d6000fd5b505050506040513d601f19601f820116820180604052508101906106d79190614dd5565b905060006114cc888488612cac565b90508082146114e0576114e0888483612d46565b5050506001016113e0565b506001600160a01b03841660009081526009602090815260409182902060010180548351818402810184019094528084526060939283018282801561155957602002820191906000526020600020905b81546001600160a01b0316815260019091019060200180831161153b575b50939450600093505050505b815181101561163457600082828151811061157c57fe5b602002602001015190506000876001600160a01b03166322ebeba483306040518363ffffffff1660e01b81526004016115b6929190614f9c565b60206040518083038186803b1580156115ce57600080fd5b505afa1580156115e2573d6000803e3d6000fd5b505050506040513d601f19601f820116820180604052508101906116069190614dd5565b90506000611615898489612d60565b905081811461162957611629898483612e21565b505050600101611565565b5050505b50506001805550565b6004546001600160a01b031681565b6001600160a01b03811660009081526009602090815260409182902080548351818402810184019094528084526060938493600184019284918301828280156116c257602002820191906000526020600020905b81546001600160a01b031681526001909101906020018083116116a4575b505050505091508080548060200260200160405190810160405280929190818152602001828054801561171e57602002820191906000526020600020905b81546001600160a01b03168152600190910190602001808311611700575b5050505050905091509150915091565b600b5460ff1681565b6006546001600160a01b031681565b8361175081611f99565b6040516308bafae960e21b81526000906001600160a01b038716906322ebeba4906117819087903090600401614f9c565b60206040518083038186803b15801561179957600080fd5b505afa1580156117ad573d6000803e3d6000fd5b505050506040513d601f19601f820116820180604052508101906117d19190614dd5565b9050600081126117f35760405162461bcd60e51b81526004016104b890615261565b600061181a8661180e6106d78560001963ffffffff6120db16565b9063ffffffff612e5016565b90506106f5878683612925565b61182f6129f8565b6002546001600160a01b0390811691161461185c5760405162461bcd60e51b81526004016104b8906156db565b600054604051631d3af8fb60e21b81526001600160a01b03909116906374ebe3ec9061188c908590600401614f88565b60206040518083038186803b1580156118a457600080fd5b505afa1580156118b8573d6000803e3d6000fd5b505050506040513d601f19601f820116820180604052508101906118dc9190614a81565b806118ff57506001600160a01b0382166000908152600a602052604090205460ff165b61191b5760405162461bcd60e51b81526004016104b8906156b1565b6001600160a01b0382166000818152600a6020526040808220805460ff191685151590811790915590519092917f2035981b48691b10f6ac65174e570b4d0a8a889ae01bef3e5e7759ff9444f0c491a35050565b6000600260015414156119945760405162461bcd60e51b81526004016104b890615997565b6002600155866119a381611e1e565b6000886001600160a01b03166318160ddd6040518163ffffffff1660e01b815260040160206040518083038186803b1580156119de57600080fd5b505afa1580156119f2573d6000803e3d6000fd5b505050506040513d601f19601f82011682018060405250810190611a169190614dd5565b90506000611a2a878363ffffffff61217516565b6001600160a01b03808c166000908152600860209081526040808320938d168352929052205490915060ff16611a725760405162461bcd60e51b81526004016104b89061550e565b6001600160a01b038089166000908152600360205260408082206001015490516370a0823160e01b8152919216906370a0823190611ab4908e90600401614f88565b60206040518083038186803b158015611acc57600080fd5b505afa158015611ae0573d6000803e3d6000fd5b505050506040513d601f19601f82011682018060405250810190611b049190614dd5565b905060008111611b265760405162461bcd60e51b81526004016104b890615967565b611b2e61473f565b611b3f8c8c8c86868d60008b612e9b565b9050611b5481600001518c8360600151612598565b611b60818c8c8a612632565b508051611b6e908b84612925565b604081015160e0820151611b95916001600160a01b038f16918d919063ffffffff612fae16565b505050611ba2818b612994565b896001600160a01b03168b6001600160a01b03168d6001600160a01b03167f7cda30123ddfc96659344700585861a8670352b9cc86d1b1054d10083b1dcdd484602001518560600151876000604051611bfe9493929190615111565b60405180910390a450600180559a9950505050505050505050565b600860209081526000928352604080842090915290825290205460ff1681565b600a6020526000908152604090205460ff1681565b611c566129f8565b6002546001600160a01b03908116911614611c835760405162461bcd60e51b81526004016104b8906156db565b6001600160a01b038116611ca95760405162461bcd60e51b81526004016104b8906152e0565b6002546040516001600160a01b038084169216907f8be0079c531659141344cd1fd0a4f28419497f9722a3daafe3b4186f6b6457e090600090a3600280546001600160a01b0319166001600160a01b0392909216919091179055565b6000546001600160a01b031681565b60026001541415611d375760405162461bcd60e51b81526004016104b890615997565b600260015586611d4681611e1e565b611d4e61473f565b611d5e89898989898960016124e0565b9050611d7781600001518260c00151836060015161219f565b6000611d85828a8a87612632565b90506000611d948b8a846128c0565b90506000611da8838363ffffffff6128e316565b9050611db984600001518b8361309f565b611dc3848c612994565b896001600160a01b03168b6001600160a01b03168d6001600160a01b03167f359f8b62a966cfd521a3815681266407201b20a7c334925faa49e7d9d5dd57ab876020015188606001518688604051610ad09493929190615111565b611e28813361310b565b611e445760405162461bcd60e51b81526004016104b8906158f9565b611e4d81613199565b611e695760405162461bcd60e51b81526004016104b890615298565b50565b600080611ed284805480602002602001604051908101604052809291908181526020018280548015611ec757602002820191906000526020600020905b81546001600160a01b03168152600190910190602001808311611ea9575b50505050508461329d565b9150915080611ef35760405162461bcd60e51b81526004016104b890615202565b835460001901828114611f6557848181548110611f0c57fe5b9060005260206000200160009054906101000a90046001600160a01b0316858481548110611f3657fe5b9060005260206000200160006101000a8154816001600160a01b0302191690836001600160a01b031602179055505b84805480611f6f57fe5b600082815260209020810160001990810180546001600160a01b0319169055019055505b50505050565b6002604051631ade272960e11b81526001600160a01b038316906335bc4e5290611fc7903390600401614f88565b60206040518083038186803b158015611fdf57600080fd5b505afa158015611ff3573d6000803e3d6000fd5b505050506040513d601f19601f820116820180604052508101906120179190614db6565b600281111561202257fe5b1461203f5760405162461bcd60e51b81526004016104b8906155b2565b6000546040516342f6e38960e01b81526001600160a01b03909116906342f6e3899061206f903390600401614f88565b60206040518083038186803b15801561208757600080fd5b505afa15801561209b573d6000803e3d6000fd5b505050506040513d601f19601f820116820180604052508101906120bf9190614a81565b611e695760405162461bcd60e51b81526004016104b890615872565b6000826120ea57506000612149565b826000191480156120fe5750600160ff1b82145b1561211b5760405162461bcd60e51b81526004016104b89061573e565b8282028284828161212857fe5b05146121465760405162461bcd60e51b81526004016104b89061573e565b90505b92915050565b6000808212156121715760405162461bcd60e51b81526004016104b89061553a565b5090565b6000612146670de0b6b3a7640000612193858563ffffffff61330316565b9063ffffffff61333d16565b6004805460405162b0489960e41b815273__$d1cd077b474da5315a1dacfa3ba5fdc42a$__92630b048990926121eb926001600160a01b03808a1693921691889188916002910161518b565b60006040518083038186803b15801561220357600080fd5b505af41580156106f5573d6000803e3d6000fd5b612221828261310b565b610efd5760405162461bcd60e51b81526004016104b8906158f9565b600054604051631d3af8fb60e21b81526001600160a01b03909116906374ebe3ec9061226d908490600401614f88565b60206040518083038186803b15801561228557600080fd5b505afa158015612299573d6000803e3d6000fd5b505050506040513d601f19601f820116820180604052508101906122bd9190614a81565b6122d95760405162461bcd60e51b81526004016104b8906158b6565b6122e28161337f565b611e695760405162461bcd60e51b81526004016104b8906153c1565b60008061230a836133ae565b9050612315816133b9565b9392505050565b60005b81518110156123bf57600082828151811061233657fe5b6020026020010151905061234a8482613476565b612356848260016129fc565b6001600160a01b03808516600081815260076020908152604080832095909416808352948152838220805460ff19166001908117909155928252600981529281208054808401825590825292902090910180546001600160a01b0319169092179091550161231f565b5060011515826001600160a01b03167fdd2a86f23a66f86496c82312e991b49f87ad96c4f25094a43c49f7aca0ea3542836040516123fd91906150b9565b60405180910390a35050565b60005b81518110156124a257600082828151811061242357fe5b602002602001015190506124378482613669565b6001600160a01b03808516600081815260086020908152604080832095909416808352948152838220805460ff191660019081179091559282526009815292812082018054808401825590825292902090910180546001600160a01b0319169092179091550161240c565b5060011515826001600160a01b03167f1c400b459725a0446742d6688375dffe941d5f9a65fe3900c93e07d9e772250b836040516123fd91906150b9565b6124e861473f565b6000886001600160a01b03166318160ddd6040518163ffffffff1660e01b815260040160206040518083038186803b15801561252357600080fd5b505afa158015612537573d6000803e3d6000fd5b505050506040513d601f19601f8201168201806040525081019061255b9190614dd5565b905061258b8989896125738a8663ffffffff61217516565b6125838a8763ffffffff61217516565b898988612e9b565b9998505050505050505050565b6004805460405163ab36d4d560e01b815273__$d1cd077b474da5315a1dacfa3ba5fdc42a$__9263ab36d4d5926125e2926001600160a01b03808a16939216918891889101615161565b60206040518083038186803b1580156125fa57600080fd5b505af415801561260e573d6000803e3d6000fd5b505050506040513d601f19601f82011682018060405250810190611f939190614dd5565b600080856000015190506000866060015190506126d68688602001516001600160a01b031663334fc2896040518163ffffffff1660e01b815260040160206040518083038186803b15801561268657600080fd5b505afa15801561269a573d6000803e3d6000fd5b505050506040513d601f19601f820116820180604052508101906126be9190614909565b6001600160a01b03851691908463ffffffff61386116565b600080606089602001516001600160a01b031663e171fcab8a8a88888f608001518d6040518763ffffffff1660e01b815260040161271996959493929190614fb6565b60006040518083038186803b15801561273157600080fd5b505afa158015612745573d6000803e3d6000fd5b505050506040513d6000823e601f3d908101601f1916820160405261276d9190810190614971565b925092509250846001600160a01b0316638f6f03328484846040518463ffffffff1660e01b81526004016127a39392919061506d565b600060405180830381600087803b1580156127bd57600080fd5b505af11580156127d1573d6000803e3d6000fd5b505050506040513d6000823e601f3d908101601f191682016040526127f99190810190614a9d565b50600061288c8b60e001518a6001600160a01b03166370a08231896040518263ffffffff1660e01b81526004016128309190614f88565b60206040518083038186803b15801561284857600080fd5b505afa15801561285c573d6000803e3d6000fd5b505050506040513d601f19601f820116820180604052508101906128809190614dd5565b9063ffffffff6128e316565b90508a608001518110156128b25760405162461bcd60e51b81526004016104b8906154b3565b9a9950505050505050505050565b6000806128ce600084613928565b90506128db8585836139bd565b949350505050565b600061214683836040518060400160405280601e81526020017f536166654d6174683a207375627472616374696f6e206f766572666c6f770000815250613a64565b600454612947906001600160a01b03858116918591168463ffffffff61386116565b60048054604051630cca200b60e31b815273__$d1cd077b474da5315a1dacfa3ba5fdc42a$__926366510058926125e2926001600160a01b03808a1693921691889188916002910161518b565b60a08201516001600160a01b0390811660009081526003602052604090819020548451918501519216916129d7919083906129d29083908390612cac565b612d46565b6107208360000151836129f38660000151868860400151612d60565b612e21565b3390565b6005546040516328dd2d0160e01b81526000916001600160a01b0316906328dd2d0190612a2f9086908890600401614f9c565b6101206040518083038186803b158015612a4857600080fd5b505afa158015612a5c573d6000803e3d6000fd5b505050506040513d601f19601f82011682018060405250810190612a809190614e93565b9850505050505050505081151581151514158015612b2a57506001600160a01b038084166000908152600360205260408082205490516370a0823160e01b8152919216906370a0823190612ad8908890600401614f88565b60206040518083038186803b158015612af057600080fd5b505afa158015612b04573d6000803e3d6000fd5b505050506040513d601f19601f82011682018060405250810190612b289190614dd5565b115b15611f9357600480546040516378c8823960e01b815273__$d1cd077b474da5315a1dacfa3ba5fdc42a$__926378c8823992612b79926001600160a01b03808b16939216918991899101615137565b60006040518083038186803b158015612b9157600080fd5b505af4158015612ba5573d6000803e3d6000fd5b5050505050505050565b6005546040516334924edb60e21b815260009182916001600160a01b039091169063d2493b6c90612be4908690600401614f88565b60606040518083038186803b158015612bfc57600080fd5b505afa158015612c10573d6000803e3d6000fd5b505050506040513d601f19601f82011682018060405250810190612c349190614925565b6001600160a01b0380871660008181526003602052604080822080548589166001600160a01b03199182168117835560019092018054968816969091168617905590519698509396509194929350917fc45243255b6bdd38d8648b8c5e5b9429c7143b47e850cad1601dc1edbb6a3b5b9190a4505050565b600080836001600160a01b03166370a08231866040518263ffffffff1660e01b8152600401612cdb9190614f88565b60206040518083038186803b158015612cf357600080fd5b505afa158015612d07573d6000803e3d6000fd5b505050506040513d601f19601f82011682018060405250810190612d2b9190614dd5565b9050612d3d818463ffffffff613a9016565b95945050505050565b6107206001600160a01b038416838363ffffffff613aae16565b6001600160a01b038083166000908152600360205260408082206001015490516370a0823160e01b8152919283929116906370a0823190612da5908890600401614f88565b60206040518083038186803b158015612dbd57600080fd5b505afa158015612dd1573d6000803e3d6000fd5b505050506040513d601f19601f82011682018060405250810190612df59190614dd5565b9050612d3d600019612e15612e10848763ffffffff613c2216565b613c75565b9063ffffffff6120db16565b604080516020810190915260008152610720906001600160a01b0385169084903090859063ffffffff613c9a16565b6000821580612e5d575081155b15612e6a57506000612149565b6121466001612e8f670de0b6b3a764000061219383612880898963ffffffff61330316565b9063ffffffff61425316565b612ea361473f565b612eab61473f565b6040518061010001604052808b6001600160a01b03168152602001612ecf876122fe565b6001600160a01b0316815260200184815260200188815260200187815260200185612efa578a612efc565b895b6001600160a01b0316815260200185612f155789612f17565b8a5b6001600160a01b03168152602001896001600160a01b03166370a082318d6040518263ffffffff1660e01b8152600401612f519190614f88565b60206040518083038186803b158015612f6957600080fd5b505afa158015612f7d573d6000803e3d6000fd5b505050506040513d601f19601f82011682018060405250810190612fa19190614dd5565b9052905061258b81614278565b600080600080866001600160a01b03166370a08231896040518263ffffffff1660e01b8152600401612fe09190614f88565b60206040518083038186803b158015612ff857600080fd5b505afa15801561300c573d6000803e3d6000fd5b505050506040513d601f19601f820116820180604052508101906130309190614dd5565b90506000613063896001600160a01b03166366cb8d2f8a6040518263ffffffff1660e01b815260040161146d9190614f88565b905060008215613080576130798888858561436e565b9050613084565b5060005b61308f8a8a83613aae565b9199909850909650945050505050565b6004546130c1906001600160a01b03858116918591168463ffffffff61386116565b60048054604051630460b91f60e41b815273__$d1cd077b474da5315a1dacfa3ba5fdc42a$__9263460b91f0926121eb926001600160a01b03808a16939216918891889101615161565b6000816001600160a01b0316836001600160a01b031663481c6a756040518163ffffffff1660e01b815260040160206040518083038186803b15801561315057600080fd5b505afa158015613164573d6000803e3d6000fd5b505050506040513d601f19601f820116820180604052508101906131889190614909565b6001600160a01b0316149392505050565b60008054604051631d3af8fb60e21b81526001600160a01b03909116906374ebe3ec906131ca908590600401614f88565b60206040518083038186803b1580156131e257600080fd5b505afa1580156131f6573d6000803e3d6000fd5b505050506040513d601f19601f8201168201806040525081019061321a9190614a81565b801561214957506040516335fc6c9f60e21b81526001600160a01b0383169063d7f1b27c9061324d903090600401614f88565b60206040518083038186803b15801561326557600080fd5b505afa158015613279573d6000803e3d6000fd5b505050506040513d601f19601f820116820180604052508101906121499190614a81565b81516000908190815b818110156132f057846001600160a01b03168682815181106132c457fe5b60200260200101516001600160a01b031614156132e8579250600191506132fc9050565b6001016132a6565b50600019600092509250505b9250929050565b60008261331257506000612149565b8282028284828161331f57fe5b04146121465760405162461bcd60e51b81526004016104b890615670565b600061214683836040518060400160405280601a81526020017f536166654d6174683a206469766973696f6e206279207a65726f0000000000008152506143bd565b6040516353bae5f760e01b81526000906001600160a01b038316906353bae5f79061324d903090600401614f88565b805160209091012090565b6000805481906133d1906001600160a01b03166143f4565b6001600160a01b031663e6d642c530856040518363ffffffff1660e01b81526004016133fe929190615054565b60206040518083038186803b15801561341657600080fd5b505afa15801561342a573d6000803e3d6000fd5b505050506040513d601f19601f8201168201806040525081019061344e9190614909565b90506001600160a01b0381166121495760405162461bcd60e51b81526004016104b890615484565b6001600160a01b0380831660009081526007602090815260408083209385168352929052205460ff16156134bc5760405162461bcd60e51b81526004016104b89061538a565b6005546040516334924edb60e21b81526000916001600160a01b03169063d2493b6c906134ed908590600401614f88565b60606040518083038186803b15801561350557600080fd5b505afa158015613519573d6000803e3d6000fd5b505050506040513d601f19601f8201168201806040525081019061353d9190614925565b50506001600160a01b0383811660009081526003602052604090205491925082811691161461357e5760405162461bcd60e51b81526004016104b8906151d2565b600554604051633e15014160e01b8152600091829182916001600160a01b031690633e150141906135b3908890600401614f88565b6101406040518083038186803b1580156135cc57600080fd5b505afa1580156135e0573d6000803e3d6000fd5b505050506040513d601f19601f820116820180604052508101906136049190614ded565b995099505050975050505050508161362e5760405162461bcd60e51b81526004016104b890615456565b801561364c5760405162461bcd60e51b81526004016104b89061535d565b826112a55760405162461bcd60e51b81526004016104b890615930565b6001600160a01b0380831660009081526008602090815260408083209385168352929052205460ff16156136af5760405162461bcd60e51b81526004016104b8906159ce565b6005546040516334924edb60e21b81526000916001600160a01b03169063d2493b6c906136e0908590600401614f88565b60606040518083038186803b1580156136f857600080fd5b505afa15801561370c573d6000803e3d6000fd5b505050506040513d601f19601f820116820180604052508101906137309190614925565b6001600160a01b03858116600090815260036020526040902060010154919450848116911614915061377690505760405162461bcd60e51b81526004016104b89061556f565b600554604051633e15014160e01b8152600091829182916001600160a01b031690633e150141906137ab908890600401614f88565b6101406040518083038186803b1580156137c457600080fd5b505afa1580156137d8573d6000803e3d6000fd5b505050506040513d601f19601f820116820180604052508101906137fc9190614ded565b99509950509850505050505050816138265760405162461bcd60e51b81526004016104b890615456565b80156138445760405162461bcd60e51b81526004016104b89061535d565b826112a55760405162461bcd60e51b81526004016104b8906153f8565b60608282604051602401613876929190615054565b60408051601f198184030181529181526020820180516001600160e01b031663095ea7b360e01b179052516347b7819960e11b81529091506001600160a01b03861690638f6f0332906138d2908790600090869060040161506d565b600060405180830381600087803b1580156138ec57600080fd5b505af1158015613900573d6000803e3d6000fd5b505050506040513d6000823e601f3d908101601f191682016040526112a59190810190614a9d565b6000805460405163792aa04f60e01b815282916001600160a01b03169063792aa04f9061395b9030908890600401615054565b60206040518083038186803b15801561397357600080fd5b505afa158015613987573d6000803e3d6000fd5b505050506040513d601f19601f820116820180604052508101906139ab9190614dd5565b90506128db838263ffffffff61217516565b801561072057610720826000809054906101000a90046001600160a01b03166001600160a01b031663469048406040518163ffffffff1660e01b815260040160206040518083038186803b158015613a1457600080fd5b505afa158015613a28573d6000803e3d6000fd5b505050506040513d601f19601f82011682018060405250810190613a4c9190614909565b6001600160a01b03861691908463ffffffff61447316565b60008184841115613a885760405162461bcd60e51b81526004016104b891906151bf565b505050900390565b60006121468261219385670de0b6b3a764000063ffffffff61330316565b6000613aba84846145b5565b905080158015613aca5750600082115b15613b4157613ad9848461463c565b613b3c576040516304e3532760e41b81526001600160a01b03851690634e35327090613b09908690600401614f88565b600060405180830381600087803b158015613b2357600080fd5b505af1158015613b37573d6000803e3d6000fd5b505050505b613bbe565b808015613b4c575081155b15613bbe57613b5b848461463c565b613bbe57604051636f86c89760e01b81526001600160a01b03851690636f86c89790613b8b908690600401614f88565b600060405180830381600087803b158015613ba557600080fd5b505af1158015613bb9573d6000803e3d6000fd5b505050505b836001600160a01b0316632ba57d1784613bd785613c75565b6040518363ffffffff1660e01b8152600401613bf4929190615054565b600060405180830381600087803b158015613c0e57600080fd5b505af1158015612ba5573d6000803e3d6000fd5b600081613c415760405162461bcd60e51b81526004016104b890615a4b565b60008311613c50576000612146565b6121466001612e8f846121938361288089670de0b6b3a764000063ffffffff61330316565b6000600160ff1b82106121715760405162461bcd60e51b81526004016104b89061582a565b8115613f8f5760405163df5e9b2960e01b81526001600160a01b0386169063df5e9b2990613ccc908790600401614f88565b60206040518083038186803b158015613ce457600080fd5b505afa158015613cf8573d6000803e3d6000fd5b505050506040513d601f19601f82011682018060405250810190613d1c9190614a81565b613de3576040516304e3532760e41b81526001600160a01b03861690634e35327090613d4c908790600401614f88565b600060405180830381600087803b158015613d6657600080fd5b505af1158015613d7a573d6000803e3d6000fd5b505060405163ea0ee55960e01b81526001600160a01b038816925063ea0ee5599150613dac9087908790600401614f9c565b600060405180830381600087803b158015613dc657600080fd5b505af1158015613dda573d6000803e3d6000fd5b50505050613ec6565b604051637d96659360e01b81526001600160a01b03861690637d96659390613e119087908790600401614f9c565b60206040518083038186803b158015613e2957600080fd5b505afa158015613e3d573d6000803e3d6000fd5b505050506040513d601f19601f82011682018060405250810190613e619190614a81565b613ec65760405163ea0ee55960e01b81526001600160a01b0386169063ea0ee55990613e939087908790600401614f9c565b600060405180830381600087803b158015613ead57600080fd5b505af1158015613ec1573d6000803e3d6000fd5b505050505b6040516363a90fc160e01b81526001600160a01b038616906363a90fc190613ef690879087908790600401615030565b600060405180830381600087803b158015613f1057600080fd5b505af1158015613f24573d6000803e3d6000fd5b50506040516326898fe160e01b81526001600160a01b03881692506326898fe19150613f5890879087908690600401615004565b600060405180830381600087803b158015613f7257600080fd5b505af1158015613f86573d6000803e3d6000fd5b5050505061424c565b805115613fae5760405162461bcd60e51b81526004016104b8906157f3565b6040516308bafae960e21b81526001600160a01b038616906322ebeba490613fdc9087908790600401614f9c565b60206040518083038186803b158015613ff457600080fd5b505afa158015614008573d6000803e3d6000fd5b505050506040513d601f19601f8201168201806040525081019061402c9190614dd5565b1561424c5760405163a7bdad0360e01b81526060906001600160a01b0387169063a7bdad0390614060908890600401614f88565b60006040518083038186803b15801561407857600080fd5b505afa15801561408c573d6000803e3d6000fd5b505050506040513d6000823e601f3d908101601f191682016040526140b491908101906149c9565b6040516366cb8d2f60e01b81529091506001600160a01b038716906366cb8d2f906140e3908890600401614f88565b60206040518083038186803b1580156140fb57600080fd5b505afa15801561410f573d6000803e3d6000fd5b505050506040513d601f19601f820116820180604052508101906141339190614dd5565b158015614141575080516001145b156141ea57836001600160a01b03168160008151811061415d57fe5b60200260200101516001600160a01b03161461418b5760405162461bcd60e51b81526004016104b890615620565b604051636f86c89760e01b81526001600160a01b03871690636f86c897906141b7908890600401614f88565b600060405180830381600087803b1580156141d157600080fd5b505af11580156141e5573d6000803e3d6000fd5b505050505b60405163acf3f07760e01b81526001600160a01b0387169063acf3f077906142189088908890600401614f9c565b600060405180830381600087803b15801561423257600080fd5b505af1158015614246573d6000803e3d6000fd5b50505050505b5050505050565b6000828201838110156121465760405162461bcd60e51b81526004016104b890615326565b80516001600160a01b03908116600090815260076020908152604080832060a08601519094168352929052205460ff166142c45760405162461bcd60e51b81526004016104b8906154de565b80516001600160a01b03908116600090815260086020908152604080832060c08601519094168352929052205460ff166143105760405162461bcd60e51b81526004016104b89061550e565b8060c001516001600160a01b03168160a001516001600160a01b0316141561434a5760405162461bcd60e51b81526004016104b8906159fe565b6000816060015111611e695760405162461bcd60e51b81526004016104b89061542f565b600080614391614384848863ffffffff61217516565b869063ffffffff6128e316565b90506143b3866143a7868463ffffffff6128e316565b9063ffffffff613a9016565b9695505050505050565b600081836143de5760405162461bcd60e51b81526004016104b891906151bf565b5060008385816143ea57fe5b0495945050505050565b6040516373b2e76b60e11b81526000906001600160a01b0383169063e765ced690614423908490600401615a75565b60206040518083038186803b15801561443b57600080fd5b505afa15801561444f573d6000803e3d6000fd5b505050506040513d601f19601f820116820180604052508101906121499190614909565b8015611f93576040516370a0823160e01b81526000906001600160a01b038516906370a08231906144a8908890600401614f88565b60206040518083038186803b1580156144c057600080fd5b505afa1580156144d4573d6000803e3d6000fd5b505050506040513d601f19601f820116820180604052508101906144f89190614dd5565b9050614506858585856146c8565b6040516370a0823160e01b81526000906001600160a01b038616906370a0823190614535908990600401614f88565b60206040518083038186803b15801561454d57600080fd5b505afa158015614561573d6000803e3d6000fd5b505050506040513d601f19601f820116820180604052508101906145859190614dd5565b9050614597828463ffffffff6128e316565b81146112a55760405162461bcd60e51b81526004016104b890615785565b600080836001600160a01b03166366cb8d2f846040518263ffffffff1660e01b81526004016145e49190614f88565b60206040518083038186803b1580156145fc57600080fd5b505afa158015614610573d6000803e3d6000fd5b505050506040513d601f19601f820116820180604052508101906146349190614dd5565b139392505050565b600080836001600160a01b031663a7bdad03846040518263ffffffff1660e01b815260040161466b9190614f88565b60006040518083038186803b15801561468357600080fd5b505afa158015614697573d6000803e3d6000fd5b505050506040513d6000823e601f3d908101601f191682016040526146bf91908101906149c9565b51119392505050565b8015611f9357606082826040516024016146e3929190615054565b60408051601f198184030181529181526020820180516001600160e01b031663a9059cbb60e01b179052516347b7819960e11b81529091506001600160a01b03861690638f6f0332906138d2908790600090869060040161506d565b60405180610100016040528060006001600160a01b0316815260200160006001600160a01b0316815260200160008152602001600081526020016000815260200160006001600160a01b0316815260200160006001600160a01b03168152602001600081525090565b5080546000825590600052602060002090810190611e6991906112ba91905b8082111561217157600081556001016147c7565b600082601f8301126147eb578081fd5b81356147fe6147f982615aa5565b615a7e565b81815291506020808301908481018184028601820187101561481f57600080fd5b60005b8481101561484757813561483581615b15565b84529282019290820190600101614822565b505050505092915050565b600082601f830112614862578081fd5b81356148706147f982615ac5565b915080825283602082850101111561488757600080fd5b8060208401602084013760009082016020015292915050565b600082601f8301126148b0578081fd5b81516148be6147f982615ac5565b91508082528360208285010111156148d557600080fd5b6148e6816020840160208601615ae9565b5092915050565b6000602082840312156148fe578081fd5b813561214681615b15565b60006020828403121561491a578081fd5b815161214681615b15565b600080600060608486031215614939578182fd5b835161494481615b15565b602085015190935061495581615b15565b604085015190925061496681615b15565b809150509250925092565b600080600060608486031215614985578283fd5b835161499081615b15565b60208501516040860151919450925067ffffffffffffffff8111156149b3578182fd5b6149bf868287016148a0565b9150509250925092565b600060208083850312156149db578182fd5b825167ffffffffffffffff8111156149f1578283fd5b80840185601f820112614a02578384fd5b80519150614a126147f983615aa5565b8281528381019082850185850284018601891015614a2e578687fd5b8693505b84841015614a59578051614a4581615b15565b835260019390930192918501918501614a32565b50979650505050505050565b600060208284031215614a76578081fd5b813561214681615b2a565b600060208284031215614a92578081fd5b815161214681615b2a565b600060208284031215614aae578081fd5b815167ffffffffffffffff811115614ac4578182fd5b6128db848285016148a0565b60008060408385031215614ae2578182fd5b8235614aed81615b15565b9150602083013567ffffffffffffffff811115614b08578182fd5b614b14858286016147db565b9150509250929050565b600080600060608486031215614b32578081fd5b8335614b3d81615b15565b9250602084013567ffffffffffffffff80821115614b59578283fd5b614b65878388016147db565b93506040860135915080821115614b7a578283fd5b506149bf868287016147db565b60008060408385031215614b99578182fd5b8235614ba481615b15565b91506020830135614bb481615b2a565b809150509250929050565b60008060408385031215614bd1578182fd5b8235614bdc81615b15565b91506020830135614bb481615b15565b60008060008060008060c08789031215614c04578384fd5b8635614c0f81615b15565b95506020870135614c1f81615b15565b94506040870135614c2f81615b15565b935060608701359250608087013567ffffffffffffffff80821115614c52578384fd5b614c5e8a838b01614852565b935060a0890135915080821115614c73578283fd5b50614c8089828a01614852565b9150509295509295509295565b600080600080600080600060e0888a031215614ca7578485fd5b8735614cb281615b15565b96506020880135614cc281615b15565b95506040880135614cd281615b15565b9450606088013593506080880135925060a088013567ffffffffffffffff80821115614cfc578283fd5b614d088b838c01614852565b935060c08a0135915080821115614d1d578283fd5b50614d2a8a828b01614852565b91505092959891949750929550565b60008060408385031215614d4b578182fd5b8235614d5681615b15565b946020939093013593505050565b60008060008060808587031215614d79578182fd5b8435614d8481615b15565b9350602085013592506040850135614d9b81615b15565b91506060850135614dab81615b2a565b939692955090935050565b600060208284031215614dc7578081fd5b815160038110612146578182fd5b600060208284031215614de6578081fd5b5051919050565b6000806000806000806000806000806101408b8d031215614e0c578384fd5b8a51995060208b0151985060408b0151975060608b0151965060808b0151955060a08b0151614e3a81615b2a565b60c08c0151909550614e4b81615b2a565b60e08c0151909450614e5c81615b2a565b6101008c0151909350614e6e81615b2a565b6101208c0151909250614e8081615b2a565b809150509295989b9194979a5092959850565b60008060008060008060008060006101208a8c031215614eb1578283fd5b8951985060208a0151975060408a0151965060608a0151955060808a0151945060a08a0151935060c08a0151925060e08a015164ffffffffff81168114614ef6578283fd5b6101008b0151909250614f0881615b2a565b809150509295985092959850929598565b6000815180845260208085019450808401835b83811015614f515781516001600160a01b031687529582019590820190600101614f2c565b509495945050505050565b60008151808452614f74816020860160208601615ae9565b601f01601f19169290920160200192915050565b6001600160a01b0391909116815260200190565b6001600160a01b0392831681529116602082015260400190565b6001600160a01b038781168252868116602083015285166040820152606081018490526080810183905260c060a08201819052600090614ff890830184614f5c565b98975050505050505050565b6001600160a01b03848116825283166020820152606060408201819052600090612d3d90830184614f5c565b6001600160a01b039384168152919092166020820152604081019190915260600190565b6001600160a01b03929092168252602082015260400190565b600060018060a01b038516825283602083015260606040830152612d3d6060830184614f5c565b6000604082526150a76040830185614f19565b8281036020840152612d3d8185614f19565b6020808252825182820181905260009190848201906040850190845b818110156150fa5783516001600160a01b0316835292840192918401916001016150d5565b50909695505050505050565b901515815260200190565b6001600160a01b0394909416845260208401929092526040830152606082015260800190565b6001600160a01b039485168152928416602084015292166040820152901515606082015260800190565b6001600160a01b039485168152928416602084015292166040820152606081019190915260800190565b6001600160a01b03958616815293851660208501529190931660408301526060820192909252608081019190915260a00190565b6000602082526121466020830184614f5c565b602080825260169082015275496e76616c69642061546f6b656e206164647265737360501b604082015260600190565b60208082526015908201527420b2323932b9b9903737ba1034b71030b93930bc9760591b604082015260600190565b6020808252601690820152754d617070696e6720616c72656164792065786973747360501b604082015260600190565b6020808252601a908201527f436f6d706f6e656e74206d757374206265206e65676174697665000000000000604082015260600190565b60208082526028908201527f4d75737420626520612076616c696420616e6420696e697469616c697a65642060408201526729b2ba2a37b5b2b760c11b606082015260800190565b60208082526026908201527f4f776e61626c653a206e6577206f776e657220697320746865207a65726f206160408201526564647265737360d01b606082015260800190565b6020808252601b908201527f536166654d6174683a206164646974696f6e206f766572666c6f770000000000604082015260600190565b60208082526013908201527246726f7a656e2061617665207265736572766560681b604082015260600190565b6020808252601a908201527f436f6c6c61746572616c20616c726561647920656e61626c6564000000000000604082015260600190565b6020808252601e908201527f4d7573742062652070656e64696e6720696e697469616c697a6174696f6e0000604082015260600190565b6020808252601a908201527f426f72726f77696e672064697361626c6564206f6e2041617665000000000000604082015260600190565b6020808252600d908201526c05175616e74697479206973203609c1b604082015260600190565b602080825260149082015273496e76616c69642061617665207265736572766560601b604082015260600190565b60208082526015908201527426bab9ba103132903b30b634b21030b230b83a32b960591b604082015260600190565b6020808252601190820152700a6d8d2e0e0c2ceca40e8dede40d0d2ced607b1b604082015260600190565b60208082526016908201527510dbdb1b185d195c985b081b9bdd08195b98589b195960521b604082015260600190565b602080825260129082015271109bdc9c9bddc81b9bdd08195b98589b195960721b604082015260600190565b6020808252818101527f53616665436173743a2076616c7565206d75737420626520706f736974697665604082015260600190565b60208082526023908201527f496e76616c6964207661726961626c65206465627420746f6b656e206164647260408201526265737360e81b606082015260800190565b60208082526018908201527f4f6e6c7920746865206d6f64756c652063616e2063616c6c0000000000000000604082015260600190565b60208082526018908201527f49737375616e6365206e6f7420696e697469616c697a65640000000000000000604082015260600190565b60208082526030908201527f45787465726e616c20706f736974696f6e73206d757374206265203020746f2060408201526f1c995b5bdd994818dbdb5c1bdb995b9d60821b606082015260800190565b60208082526021908201527f536166654d6174683a206d756c7469706c69636174696f6e206f766572666c6f6040820152607760f81b606082015260800190565b60208082526010908201526f24b73b30b634b21029b2ba2a37b5b2b760811b604082015260600190565b6020808252818101527f4f776e61626c653a2063616c6c6572206973206e6f7420746865206f776e6572604082015260600190565b6020808252601490820152732737ba1030b63637bbb2b21029b2ba2a37b5b2b760611b604082015260600190565b60208082526027908201527f5369676e6564536166654d6174683a206d756c7469706c69636174696f6e206f604082015266766572666c6f7760c81b606082015260800190565b6020808252601d908201527f496e76616c696420706f7374207472616e736665722062616c616e6365000000604082015260600190565b60208082526017908201527f5661726961626c6520646562742072656d61696e696e67000000000000000000604082015260600190565b60208082526018908201527f5061737365642064617461206d757374206265206e756c6c0000000000000000604082015260600190565b60208082526028908201527f53616665436173743a2076616c756520646f65736e27742066697420696e2061604082015267371034b73a191a9b60c11b606082015260800190565b60208082526024908201527f4d6f64756c65206d75737420626520656e61626c6564206f6e20636f6e74726f604082015263363632b960e11b606082015260800190565b60208082526023908201527f4d75737420626520636f6e74726f6c6c65722d656e61626c656420536574546f60408201526235b2b760e91b606082015260800190565b6020808252601c908201527f4d7573742062652074686520536574546f6b656e206d616e6167657200000000604082015260600190565b6020808252601b908201527f436f6c6c61746572616c2064697361626c6564206f6e20416176650000000000604082015260600190565b602080825260169082015275426f72726f772062616c616e6365206973207a65726f60501b604082015260600190565b6020808252601f908201527f5265656e7472616e637947756172643a207265656e7472616e742063616c6c00604082015260600190565b602080825260169082015275109bdc9c9bddc8185b1c9958591e48195b98589b195960521b604082015260600190565b6020808252602d908201527f436f6c6c61746572616c20616e6420626f72726f77206173736574206d75737460408201526c08189948191a5999995c995b9d609a1b606082015260800190565b60208082526010908201526f043616e742064697669646520627920360841b604082015260600190565b90815260200190565b60405181810167ffffffffffffffff81118282101715615a9d57600080fd5b604052919050565b600067ffffffffffffffff821115615abb578081fd5b5060209081020190565b600067ffffffffffffffff821115615adb578081fd5b50601f01601f191660200190565b60005b83811015615b04578181015183820152602001615aec565b83811115611f935750506000910152565b6001600160a01b0381168114611e6957600080fd5b8015158114611e6957600080fdfea2646970667358221220945fc13657ddacbe728436bf0d25ffcca52001580b0fcbe98ea4da0ff2ea3fb064736f6c634300060a0033",
  "linkReferences": {
    "contracts/protocol/integration/lib/AaveV2.sol": {
      "AaveV2": [
        {
          "length": 20,
          "start": 10086
        },
        {
          "length": 20,
          "start": 11104
        },
        {
          "length": 20,
          "start": 12047
        },
        {
          "length": 20,
          "start": 12535
        },
        {
          "length": 20,
          "start": 13961
        }
      ]
    }
  },
  "deployedLinkReferences": {
    "contracts/protocol/integration/lib/AaveV2.sol": {
      "AaveV2": [
        {
          "length": 20,
          "start": 8625
        },
        {
          "length": 20,
          "start": 9643
        },
        {
          "length": 20,
          "start": 10586
        },
        {
          "length": 20,
          "start": 11074
        },
        {
          "length": 20,
          "start": 12500
        }
      ]
    }
  }
}