{
  "_format": "hh-sol-artifact-1",
  "contractName": "AaveV2",
  "sourceName": "contracts/protocol/integration/lib/AaveV2.sol",
  "abi": [
    {
      "inputs": [
        {
          "internalType": "contract ILendingPool",
          "name": "_lendingPool",
          "type": "ILendingPool"
        },
        {
          "internalType": "address",
          "name": "_asset",
          "type": "address"
        },
        {
          "internalType": "uint256",
          "name": "_amountNotional",
          "type": "uint256"
        },
        {
          "internalType": "uint256",
          "name": "_interestRateMode",
          "type": "uint256"
        },
        {
          "internalType": "uint16",
          "name": "_referralCode",
          "type": "uint16"
        },
        {
          "internalType": "address",
          "name": "_onBehalfOf",
          "type": "address"
        }
      ],
      "name": "getBorrowCalldata",
      "outputs": [
        {
          "internalType": "address",
          "name": "",
          "type": "address"
        },
        {
          "internalType": "uint256",
          "name": "",
          "type": "uint256"
        },
        {
          "internalType": "bytes",
          "name": "",
          "type": "bytes"
        }
      ],
      "stateMutability": "pure",
      "type": "function",
      "gas": "0xaeb690"
    },
    {
      "inputs": [
        {
          "internalType": "contract ILendingPool",
          "name": "_lendingPool",
          "type": "ILendingPool"
        },
        {
          "internalType": "address",
          "name": "_asset",
          "type": "address"
        },
        {
          "internalType": "uint256",
          "name": "_amountNotional",
          "type": "uint256"
        },
        {
          "internalType": "address",
          "name": "_onBehalfOf",
          "type": "address"
        },
        {
          "internalType": "uint16",
          "name": "_referralCode",
          "type": "uint16"
        }
      ],
      "name": "getDepositCalldata",
      "outputs": [
        {
          "internalType": "address",
          "name": "",
          "type": "address"
        },
        {
          "internalType": "uint256",
          "name": "",
          "type": "uint256"
        },
        {
          "internalType": "bytes",
          "name": "",
          "type": "bytes"
        }
      ],
      "stateMutability": "pure",
      "type": "function",
      "gas": "0xaeb690"
    },
    {
      "inputs": [
        {
          "internalType": "contract ILendingPool",
          "name": "_lendingPool",
          "type": "ILendingPool"
        },
        {
          "internalType": "address",
          "name": "_asset",
          "type": "address"
        },
        {
          "internalType": "uint256",
          "name": "_amountNotional",
          "type": "uint256"
        },
        {
          "internalType": "uint256",
          "name": "_interestRateMode",
          "type": "uint256"
        },
        {
          "internalType": "address",
          "name": "_onBehalfOf",
          "type": "address"
        }
      ],
      "name": "getRepayCalldata",
      "outputs": [
        {
          "internalType": "address",
          "name": "",
          "type": "address"
        },
        {
          "internalType": "uint256",
          "name": "",
          "type": "uint256"
        },
        {
          "internalType": "bytes",
          "name": "",
          "type": "bytes"
        }
      ],
      "stateMutability": "pure",
      "type": "function",
      "gas": "0xaeb690"
    },
    {
      "inputs": [
        {
          "internalType": "contract ILendingPool",
          "name": "_lendingPool",
          "type": "ILendingPool"
        },
        {
          "internalType": "address",
          "name": "_asset",
          "type": "address"
        },
        {
          "internalType": "bool",
          "name": "_useAsCollateral",
          "type": "bool"
        }
      ],
      "name": "getSetUserUseReserveAsCollateralCalldata",
      "outputs": [
        {
          "internalType": "address",
          "name": "",
          "type": "address"
        },
        {
          "internalType": "uint256",
          "name": "",
          "type": "uint256"
        },
        {
          "internalType": "bytes",
          "name": "",
          "type": "bytes"
        }
      ],
      "stateMutability": "pure",
      "type": "function",
      "gas": "0xaeb690"
    },
    {
      "inputs": [
        {
          "internalType": "contract ILendingPool",
          "name": "_lendingPool",
          "type": "ILendingPool"
        },
        {
          "internalType": "address",
          "name": "_asset",
          "type": "address"
        },
        {
          "internalType": "uint256",
          "name": "_rateMode",
          "type": "uint256"
        }
      ],
      "name": "getSwapBorrowRateModeCalldata",
      "outputs": [
        {
          "internalType": "address",
          "name": "",
          "type": "address"
        },
        {
          "internalType": "uint256",
          "name": "",
          "type": "uint256"
        },
        {
          "internalType": "bytes",
          "name": "",
          "type": "bytes"
        }
      ],
      "stateMutability": "pure",
      "type": "function",
      "gas": "0xaeb690"
    },
    {
      "inputs": [
        {
          "internalType": "contract ILendingPool",
          "name": "_lendingPool",
          "type": "ILendingPool"
        },
        {
          "internalType": "address",
          "name": "_asset",
          "type": "address"
        },
        {
          "internalType": "uint256",
          "name": "_amountNotional",
          "type": "uint256"
        },
        {
          "internalType": "address",
          "name": "_receiver",
          "type": "address"
        }
      ],
      "name": "getWithdrawCalldata",
      "outputs": [
        {
          "internalType": "address",
          "name": "",
          "type": "address"
        },
        {
          "internalType": "uint256",
          "name": "",
          "type": "uint256"
        },
        {
          "internalType": "bytes",
          "name": "",
          "type": "bytes"
        }
      ],
      "stateMutability": "pure",
      "type": "function",
      "gas": "0xaeb690"
    }
  ],
  "bytecode": "0x610ebb610026600b82828239805160001a60731461001957fe5b30600052607381538281f3fe73000000000000000000000000000000000000000030146080604052600436106100be5760003560e01c806378c882391161007b57806378c8823914610316578063899dc59d14610361578063ab36d4d5146103a5578063c52dcc9f146103ee578063cded5ee214610437578063f6e7e64214610480576100be565b80630b048990146100c3578063460b91f0146101145780634c1c15b61461015d5780634c93b90f1461022d57806359a58d591461026957806366510058146102b5575b600080fd5b8180156100cf57600080fd5b50610112600480360360a08110156100e657600080fd5b506001600160a01b038135811691602081013582169160408201351690606081013590608001356104b6565b005b81801561012057600080fd5b506101126004803603608081101561013757600080fd5b506001600160a01b0381358116916020810135821691604082013516906060013561068a565b6101956004803603606081101561017357600080fd5b506001600160a01b03813581169160208101359091169060400135151561085c565b60405180846001600160a01b03166001600160a01b0316815260200183815260200180602001828103825283818151815260200191508051906020019080838360005b838110156101f05781810151838201526020016101d8565b50505050905090810190601f16801561021d5780820380516001836020036101000a031916815260200191505b5094505050505060405180910390f35b6101956004803603608081101561024357600080fd5b506001600160a01b038135811691602081013582169160408201359160600135166108b0565b610195600480360360c081101561027f57600080fd5b506001600160a01b038135811691602081013582169160408201359160608101359161ffff6080830135169160a001351661090b565b8180156102c157600080fd5b50610304600480360360a08110156102d857600080fd5b506001600160a01b0381358116916020810135821691604082013516906060810135906080013561097b565b60408051918252519081900360200190f35b81801561032257600080fd5b506101126004803603608081101561033957600080fd5b506001600160a01b038135811691602081013582169160408201351690606001351515610b67565b610195600480360360a081101561037757600080fd5b506001600160a01b038135811691602081013582169160408201359160608101359160809091013516610b74565b8180156103b157600080fd5b50610304600480360360808110156103c857600080fd5b506001600160a01b03813581169160208101358216916040820135169060600135610bd8565b610195600480360360a081101561040457600080fd5b5080356001600160a01b039081169160208101358216916040820135916060810135909116906080013561ffff16610dc2565b81801561044357600080fd5b506101126004803603608081101561045a57600080fd5b506001600160a01b03813581169160208101358216916040820135169060600135610e2a565b6101956004803603606081101561049657600080fd5b506001600160a01b03813581169160208101359091169060400135610e33565b60606104c78585858560008b61090b565b92505050856001600160a01b0316638f6f0332866000846040518463ffffffff1660e01b815260040180846001600160a01b03166001600160a01b0316815260200183815260200180602001828103825283818151815260200191508051906020019080838360005b83811015610548578181015183820152602001610530565b50505050905090810190601f1680156105755780820380516001836020036101000a031916815260200191505b50945050505050600060405180830381600087803b15801561059657600080fd5b505af11580156105aa573d6000803e3d6000fd5b505050506040513d6000823e601f3d908101601f1916820160405260208110156105d357600080fd5b8101908080516040519392919084600160201b8211156105f257600080fd5b90830190602082018581111561060757600080fd5b8251600160201b81118282018810171561062057600080fd5b82525081516020918201929091019080838360005b8381101561064d578181015183820152602001610635565b50505050905090810190601f16801561067a5780820380516001836020036101000a031916815260200191505b5060405250505050505050505050565b606061069a848484886000610dc2565b92505050846001600160a01b0316638f6f0332856000846040518463ffffffff1660e01b815260040180846001600160a01b03166001600160a01b0316815260200183815260200180602001828103825283818151815260200191508051906020019080838360005b8381101561071b578181015183820152602001610703565b50505050905090810190601f1680156107485780820380516001836020036101000a031916815260200191505b50945050505050600060405180830381600087803b15801561076957600080fd5b505af115801561077d573d6000803e3d6000fd5b505050506040513d6000823e601f3d908101601f1916820160405260208110156107a657600080fd5b8101908080516040519392919084600160201b8211156107c557600080fd5b9083019060208201858111156107da57600080fd5b8251600160201b8111828201881017156107f357600080fd5b82525081516020918201929091019080838360005b83811015610820578181015183820152602001610808565b50505050905090810190601f16801561084d5780820380516001836020036101000a031916815260200191505b50604052505050505050505050565b604080516001600160a01b0393909316602484015290151560448084019190915281518084039091018152606490920190526020810180516001600160e01b0316635a3b74b960e01b179052909160009190565b604080516001600160a01b039485166024820152604481019390935292166064808301919091528251808303909101815260849091019091526020810180516001600160e01b0316631a4ca37b60e21b179052909160009190565b604080516001600160a01b0396871660248201526044810195909552606485019390935261ffff91909116608484015290921660a4808301919091528251808303909101815260c49091019091526020810180516001600160e01b031663a415bcad60e01b179052909160009190565b6000606061098c868686868b610b74565b92505050866001600160a01b0316638f6f0332876000846040518463ffffffff1660e01b815260040180846001600160a01b03166001600160a01b0316815260200183815260200180602001828103825283818151815260200191508051906020019080838360005b83811015610a0d5781810151838201526020016109f5565b50505050905090810190601f168015610a3a5780820380516001836020036101000a031916815260200191505b50945050505050600060405180830381600087803b158015610a5b57600080fd5b505af1158015610a6f573d6000803e3d6000fd5b505050506040513d6000823e601f3d908101601f191682016040526020811015610a9857600080fd5b8101908080516040519392919084600160201b821115610ab757600080fd5b908301906020820185811115610acc57600080fd5b8251600160201b811182820188101715610ae557600080fd5b82525081516020918201929091019080838360005b83811015610b12578181015183820152602001610afa565b50505050905090810190601f168015610b3f5780820380516001836020036101000a031916815260200191505b506040525050508060200190516020811015610b5a57600080fd5b5051979650505050505050565b606061069a84848461085c565b604080516001600160a01b039586166024820152604481019490945260648401929092529092166084808301919091528251808303909101815260a49091019091526020810180516001600160e01b031663573ade8160e01b179052909160009190565b60006060610be8858585896108b0565b92505050856001600160a01b0316638f6f0332866000846040518463ffffffff1660e01b815260040180846001600160a01b03166001600160a01b0316815260200183815260200180602001828103825283818151815260200191508051906020019080838360005b83811015610c69578181015183820152602001610c51565b50505050905090810190601f168015610c965780820380516001836020036101000a031916815260200191505b50945050505050600060405180830381600087803b158015610cb757600080fd5b505af1158015610ccb573d6000803e3d6000fd5b505050506040513d6000823e601f3d908101601f191682016040526020811015610cf457600080fd5b8101908080516040519392919084600160201b821115610d1357600080fd5b908301906020820185811115610d2857600080fd5b8251600160201b811182820188101715610d4157600080fd5b82525081516020918201929091019080838360005b83811015610d6e578181015183820152602001610d56565b50505050905090810190601f168015610d9b5780820380516001836020036101000a031916815260200191505b506040525050508060200190516020811015610db657600080fd5b50519695505050505050565b604080516001600160a01b039586166024820152604481019490945291909316606483015261ffff9092166084808301919091528251808303909101815260a49091019091526020810180516001600160e01b031663e8eda9df60e01b179052909160009190565b606061069a8484845b604080516001600160a01b039390931660248401526044808401929092528051808403909201825260649092019091526020810180516001600160e01b0316634a5d44d160e11b17905290916000919056fea2646970667358221220bff4184f831c8701e4d9d830a496ef0a226a73e7cb8548a5f627ae0a30808eb064736f6c634300060a0033",
  "linkReferences": {},
  "deployedLinkReferences": {}
}