{
  "_format": "hh-sol-artifact-1",
  "contractName": "AirdropModule",
  "sourceName": "contracts/protocol/modules/AirdropModule.sol",
  "abi": [
    {
      "inputs": [
        {
          "internalType": "contract IController",
          "name": "_controller",
          "type": "address"
        }
      ],
      "stateMutability": "nonpayable",
      "type": "constructor"
    },
    {
      "anonymous": false,
      "inputs": [
        {
          "indexed": true,
          "internalType": "contract ISetToken",
          "name": "_setToken",
          "type": "address"
        },
        {
          "indexed": false,
          "internalType": "address",
          "name": "_absorbedToken",
          "type": "address"
        },
        {
          "indexed": false,
          "internalType": "uint256",
          "name": "_absorbedQuantity",
          "type": "uint256"
        },
        {
          "indexed": false,
          "internalType": "uint256",
          "name": "_managerFee",
          "type": "uint256"
        },
        {
          "indexed": false,
          "internalType": "uint256",
          "name": "_protocolFee",
          "type": "uint256"
        }
      ],
      "name": "ComponentAbsorbed",
      "type": "event"
    },
    {
      "inputs": [],
      "name": "AIRDROP_MODULE_PROTOCOL_FEE_INDEX",
      "outputs": [
        {
          "internalType": "uint256",
          "name": "",
          "type": "uint256"
        }
      ],
      "stateMutability": "view",
      "type": "function",
      "gas": "0xaeb690"
    },
    {
      "inputs": [
        {
          "internalType": "contract ISetToken",
          "name": "_setToken",
          "type": "address"
        },
        {
          "internalType": "address",
          "name": "_token",
          "type": "address"
        }
      ],
      "name": "absorb",
      "outputs": [],
      "stateMutability": "nonpayable",
      "type": "function",
      "gas": "0xaeb690"
    },
    {
      "inputs": [
        {
          "internalType": "contract ISetToken",
          "name": "_setToken",
          "type": "address"
        },
        {
          "internalType": "address",
          "name": "_airdrop",
          "type": "address"
        }
      ],
      "name": "addAirdrop",
      "outputs": [],
      "stateMutability": "nonpayable",
      "type": "function",
      "gas": "0xaeb690"
    },
    {
      "inputs": [
        {
          "internalType": "contract ISetToken",
          "name": "",
          "type": "address"
        }
      ],
      "name": "airdropSettings",
      "outputs": [
        {
          "internalType": "address",
          "name": "feeRecipient",
          "type": "address"
        },
        {
          "internalType": "uint256",
          "name": "airdropFee",
          "type": "uint256"
        },
        {
          "internalType": "bool",
          "name": "anyoneAbsorb",
          "type": "bool"
        }
      ],
      "stateMutability": "view",
      "type": "function",
      "gas": "0xaeb690"
    },
    {
      "inputs": [
        {
          "internalType": "contract ISetToken",
          "name": "_setToken",
          "type": "address"
        },
        {
          "internalType": "address[]",
          "name": "_tokens",
          "type": "address[]"
        }
      ],
      "name": "batchAbsorb",
      "outputs": [],
      "stateMutability": "nonpayable",
      "type": "function",
      "gas": "0xaeb690"
    },
    {
      "inputs": [],
      "name": "controller",
      "outputs": [
        {
          "internalType": "contract IController",
          "name": "",
          "type": "address"
        }
      ],
      "stateMutability": "view",
      "type": "function",
      "gas": "0xaeb690"
    },
    {
      "inputs": [
        {
          "internalType": "contract ISetToken",
          "name": "_setToken",
          "type": "address"
        }
      ],
      "name": "getAirdrops",
      "outputs": [
        {
          "internalType": "address[]",
          "name": "",
          "type": "address[]"
        }
      ],
      "stateMutability": "view",
      "type": "function",
      "gas": "0xaeb690"
    },
    {
      "inputs": [
        {
          "internalType": "contract ISetToken",
          "name": "_setToken",
          "type": "address"
        },
        {
          "components": [
            {
              "internalType": "address[]",
              "name": "airdrops",
              "type": "address[]"
            },
            {
              "internalType": "address",
              "name": "feeRecipient",
              "type": "address"
            },
            {
              "internalType": "uint256",
              "name": "airdropFee",
              "type": "uint256"
            },
            {
              "internalType": "bool",
              "name": "anyoneAbsorb",
              "type": "bool"
            }
          ],
          "internalType": "struct AirdropModule.AirdropSettings",
          "name": "_airdropSettings",
          "type": "tuple"
        }
      ],
      "name": "initialize",
      "outputs": [],
      "stateMutability": "nonpayable",
      "type": "function",
      "gas": "0xaeb690"
    },
    {
      "inputs": [
        {
          "internalType": "contract ISetToken",
          "name": "_setToken",
          "type": "address"
        },
        {
          "internalType": "address",
          "name": "_token",
          "type": "address"
        }
      ],
      "name": "isAirdropToken",
      "outputs": [
        {
          "internalType": "bool",
          "name": "",
          "type": "bool"
        }
      ],
      "stateMutability": "view",
      "type": "function",
      "gas": "0xaeb690"
    },
    {
      "inputs": [
        {
          "internalType": "contract ISetToken",
          "name": "_setToken",
          "type": "address"
        },
        {
          "internalType": "address",
          "name": "_airdrop",
          "type": "address"
        }
      ],
      "name": "removeAirdrop",
      "outputs": [],
      "stateMutability": "nonpayable",
      "type": "function",
      "gas": "0xaeb690"
    },
    {
      "inputs": [],
      "name": "removeModule",
      "outputs": [],
      "stateMutability": "nonpayable",
      "type": "function",
      "gas": "0xaeb690"
    },
    {
      "inputs": [
        {
          "internalType": "contract ISetToken",
          "name": "_setToken",
          "type": "address"
        },
        {
          "internalType": "uint256",
          "name": "_newFee",
          "type": "uint256"
        }
      ],
      "name": "updateAirdropFee",
      "outputs": [],
      "stateMutability": "nonpayable",
      "type": "function",
      "gas": "0xaeb690"
    },
    {
      "inputs": [
        {
          "internalType": "contract ISetToken",
          "name": "_setToken",
          "type": "address"
        }
      ],
      "name": "updateAnyoneAbsorb",
      "outputs": [],
      "stateMutability": "nonpayable",
      "type": "function",
      "gas": "0xaeb690"
    },
    {
      "inputs": [
        {
          "internalType": "contract ISetToken",
          "name": "_setToken",
          "type": "address"
        },
        {
          "internalType": "address",
          "name": "_newFeeRecipient",
          "type": "address"
        }
      ],
      "name": "updateFeeRecipient",
      "outputs": [],
      "stateMutability": "nonpayable",
      "type": "function",
      "gas": "0xaeb690"
    }
  ],
  "bytecode": "0x608060405234801561001057600080fd5b5060405162002481380380620024818339810160408190526100319161005a565b600080546001600160a01b0319166001600160a01b039290921691909117905560018055610088565b60006020828403121561006b578081fd5b81516001600160a01b0381168114610081578182fd5b9392505050565b6123e980620000986000396000f3fe608060405234801561001057600080fd5b50600436106100ea5760003560e01c806370eaf3591161008c578063cd8b529c11610066578063cd8b529c146101af578063e30a3a14146101cf578063e92f0935146101f1578063f77c479114610211576100ea565b806370eaf35914610181578063847ef08d1461019457806391ad34651461019c576100ea565b806339de2849116100c857806339de28491461012a5780635a3a92fb146101485780635d98c3731461015b5780636cf8293d1461016e576100ea565b8063032a3bd6146100ef5780631bc1e9ba146101045780631bee032d14610117575b600080fd5b6101026100fd366004611c8e565b610226565b005b610102610112366004611c40565b61035f565b610102610125366004611c08565b6103cb565b61013261043b565b60405161013f9190612314565b60405180910390f35b610102610156366004611bec565b610440565b610102610169366004611c08565b610477565b61010261017c366004611c08565b6104e7565b61010261018f366004611d40565b6105cd565b6101026106a6565b6101026101aa366004611c08565b6106e7565b6101c26101bd366004611c08565b610749565b60405161013f9190611e99565b6101e26101dd366004611bec565b61076d565b60405161013f93929190611e03565b6102046101ff366004611bec565b61079f565b60405161013f9190611e4c565b6102196107aa565b60405161013f9190611daf565b813361023282826107b9565b8361023c816107e3565b8351516102645760405162461bcd60e51b815260040161025b906120dc565b60405180910390fd5b61026c6108a7565b8460400151111561028f5760405162461bcd60e51b815260040161025b90612038565b6001600160a01b03851660009081526002602090815260409091208551805187936102be92849291019061194d565b5060208201516001820180546001600160a01b0319166001600160a01b0392831617905560408084015160028401556060909301516003909201805460ff19169215159290921790915581516307ff078f60e11b8152915190871691630ffe0f1e91600480830192600092919082900301818387803b15801561034057600080fd5b505af1158015610354573d6000803e3d6000fd5b505050505050505050565b600260015414156103825760405162461bcd60e51b815260040161025b906122b3565b600260015581610391816108b4565b6103ad5760405162461bcd60e51b815260040161025b90611f1d565b826103b7816108e3565b6103c18484610908565b5050600180555050565b816103d58161093e565b6103df8383610749565b156103fc5760405162461bcd60e51b815260040161025b9061211e565b506001600160a01b0391821660009081526002602090815260408220805460018101825590835291200180546001600160a01b03191691909216179055565b600081565b8061044a8161093e565b506001600160a01b03166000908152600260205260409020600301805460ff19811660ff90911615179055565b813361048382826107b9565b8361048d816108e3565b6001600160a01b0384166104b35760405162461bcd60e51b815260040161025b90611f4b565b5050506001600160a01b03918216600090815260026020526040902060010180546001600160a01b03191691909216179055565b816104f18161093e565b6104fb8383610749565b6105175760405162461bcd60e51b815260040161025b906122ea565b6001600160a01b038316600090815260026020908152604091829020805483518184028101840190945280845261059a9386939092919083018282801561058757602002820191906000526020600020905b81546001600160a01b03168152600190910190602001808311610569575b505050505061096490919063ffffffff16565b6001600160a01b038416600090815260026020908152604090912082516105c7939192919091019061194d565b50505050565b81336105d982826107b9565b836105e3816108e3565b6105eb6108a7565b84106106095760405162461bcd60e51b815260040161025b90612183565b6001600160a01b03851660009081526002602090815260409182902080548351818402810184019094528084526106839389939092919083018282801561067957602002820191906000526020600020905b81546001600160a01b0316815260019091019060200180831161065b575b5050505050610908565b5050506001600160a01b0390911660009081526002602081905260409091200155565b336000908152600260205260408120906106c082826119ae565b506001810180546001600160a01b031916905560006002820155600301805460ff19169055565b6002600154141561070a5760405162461bcd60e51b815260040161025b906122b3565b600260015581610719816108b4565b6107355760405162461bcd60e51b815260040161025b90611f1d565b8261073f816108e3565b6103c184846109ac565b600061076482610758856109dc565b9063ffffffff610a5216565b90505b92915050565b60026020819052600091825260409091206001810154918101546003909101546001600160a01b039092169160ff1683565b6060610767826109dc565b6000546001600160a01b031681565b6107c38282610a68565b6107df5760405162461bcd60e51b815260040161025b90612245565b5050565b600054604051631d3af8fb60e21b81526001600160a01b03909116906374ebe3ec90610813908490600401611daf565b60206040518083038186803b15801561082b57600080fd5b505afa15801561083f573d6000803e3d6000fd5b505050506040513d601f19601f820116820180604052508101906108639190611b44565b61087f5760405162461bcd60e51b815260040161025b90612202565b61088881610af6565b6108a45760405162461bcd60e51b815260040161025b90612001565b50565b670de0b6b3a76400005b90565b6001600160a01b03811660009081526002602052604081206003015460ff168061076757506107678233610a68565b6108ec81610b75565b6108a45760405162461bcd60e51b815260040161025b90611f82565b60005b8151811015610939576109318383838151811061092457fe5b60200260200101516109ac565b60010161090b565b505050565b6109488133610a68565b6108e35760405162461bcd60e51b815260040161025b90612245565b60606000806109738585610c29565b91509150806109945760405162461bcd60e51b815260040161025b90611eb7565b60606109a08684610c8f565b50935061076792505050565b6109b68282610749565b6109d25760405162461bcd60e51b815260040161025b9061227c565b6107df8282610dbe565b6001600160a01b038116600090815260026020908152604091829020805483518184028101840190945280845260609392830182828015610a4657602002820191906000526020600020905b81546001600160a01b03168152600190910190602001808311610a28575b50505050509050919050565b600080610a5f8484610c29565b95945050505050565b6000816001600160a01b0316836001600160a01b031663481c6a756040518163ffffffff1660e01b815260040160206040518083038186803b158015610aad57600080fd5b505afa158015610ac1573d6000803e3d6000fd5b505050506040513d601f19601f82011682018060405250810190610ae59190611a8c565b6001600160a01b0316149392505050565b6040516353bae5f760e01b81526000906001600160a01b038316906353bae5f790610b25903090600401611daf565b60206040518083038186803b158015610b3d57600080fd5b505afa158015610b51573d6000803e3d6000fd5b505050506040513d601f19601f820116820180604052508101906107679190611b44565b60008054604051631d3af8fb60e21b81526001600160a01b03909116906374ebe3ec90610ba6908590600401611daf565b60206040518083038186803b158015610bbe57600080fd5b505afa158015610bd2573d6000803e3d6000fd5b505050506040513d601f19601f82011682018060405250810190610bf69190611b44565b801561076757506040516335fc6c9f60e21b81526001600160a01b0383169063d7f1b27c90610b25903090600401611daf565b81516000908190815b81811015610c7c57846001600160a01b0316868281518110610c5057fe5b60200260200101516001600160a01b03161415610c7457925060019150610c889050565b600101610c32565b50600019600092509250505b9250929050565b8151606090600090808410610cb65760405162461bcd60e51b815260040161025b90611ee6565b60606001820367ffffffffffffffff81118015610cd257600080fd5b50604051908082528060200260200182016040528015610cfc578160200160208202803683370190505b50905060005b85811015610d4a57868181518110610d1657fe5b6020026020010151828281518110610d2a57fe5b6001600160a01b0390921660209283029190910190910152600101610d02565b50600185015b82811015610d9b57868181518110610d6457fe5b6020026020010151826001830381518110610d7b57fe5b6001600160a01b0390921660209283029190910190910152600101610d50565b5080868681518110610da957fe5b60200260200101519350935050509250929050565b6040516370a0823160e01b81526000906001600160a01b038316906370a0823190610ded908690600401611daf565b60206040518083038186803b158015610e0557600080fd5b505afa158015610e19573d6000803e3d6000fd5b505050506040513d601f19601f82011682018060405250810190610e3d9190611d6b565b90506000610e6a610e5d6001600160a01b0386168563ffffffff610f0216565b839063ffffffff61101416565b905080156105c7576000806000610e82878786611056565b9250925092506000610e9588878461112a565b9050610eb16001600160a01b038916888363ffffffff6111c016565b876001600160a01b03167f55973614a7f79cfa12e7b54f93f3ad973a4eb12d31bbeacb485279ad5b690b4c88878787604051610ef09493929190611e26565b60405180910390a25050505050505050565b600080836001600160a01b03166366cb8d2f846040518263ffffffff1660e01b8152600401610f319190611daf565b60206040518083038186803b158015610f4957600080fd5b505afa158015610f5d573d6000803e3d6000fd5b505050506040513d601f19601f82011682018060405250810190610f819190611d6b565b905061100c610f8f8261133e565b856001600160a01b03166318160ddd6040518163ffffffff1660e01b815260040160206040518083038186803b158015610fc857600080fd5b505afa158015610fdc573d6000803e3d6000fd5b505050506040513d601f19601f820116820180604052508101906110009190611d6b565b9063ffffffff61136416565b949350505050565b600061076483836040518060400160405280601e81526020017f536166654d6174683a207375627472616374696f6e206f766572666c6f77000081525061138e565b6001600160a01b03831660009081526002602081905260408220015481908190801561111557600061108e868363ffffffff61136416565b9050600061109d6000836113ba565b905060006110b1838363ffffffff61101416565b905060006110c5828463ffffffff61144f16565b6001600160a01b03808d166000818152600260205260409020600101549293506110fa9290918d91168563ffffffff61147416565b6111058b8b85611549565b9096509094509250611121915050565b50600092508291508190505b93509350939050565b600080846001600160a01b03166318160ddd6040518163ffffffff1660e01b815260040160206040518083038186803b15801561116657600080fd5b505afa15801561117a573d6000803e3d6000fd5b505050506040513d601f19601f8201168201806040525081019061119e9190611d6b565b9050610a5f6111b3858563ffffffff61101416565b829063ffffffff6115f016565b60006111cc8484611602565b9050801580156111dc5750600082115b15611253576111eb8484611689565b61124e576040516304e3532760e41b81526001600160a01b03851690634e3532709061121b908690600401611daf565b600060405180830381600087803b15801561123557600080fd5b505af1158015611249573d6000803e3d6000fd5b505050505b6112d0565b80801561125e575081155b156112d05761126d8484611689565b6112d057604051636f86c89760e01b81526001600160a01b03851690636f86c8979061129d908690600401611daf565b600060405180830381600087803b1580156112b757600080fd5b505af11580156112cb573d6000803e3d6000fd5b505050505b836001600160a01b0316632ba57d17846112e985611715565b6040518363ffffffff1660e01b8152600401611306929190611dc3565b600060405180830381600087803b15801561132057600080fd5b505af1158015611334573d6000803e3d6000fd5b5050505050505050565b6000808212156113605760405162461bcd60e51b815260040161025b90612066565b5090565b6000610764670de0b6b3a7640000611382858563ffffffff61173a16565b9063ffffffff61177416565b600081848411156113b25760405162461bcd60e51b815260040161025b9190611ea4565b505050900390565b6000805460405163792aa04f60e01b815282916001600160a01b03169063792aa04f906113ed9030908890600401611dc3565b60206040518083038186803b15801561140557600080fd5b505afa158015611419573d6000803e3d6000fd5b505050506040513d601f19601f8201168201806040525081019061143d9190611d6b565b905061100c838263ffffffff61136416565b6000828201838110156107645760405162461bcd60e51b815260040161025b90611fca565b80156105c7576060828260405160240161148f929190611dc3565b60408051601f198184030181529181526020820180516001600160e01b031663a9059cbb60e01b179052516347b7819960e11b81529091506001600160a01b03861690638f6f0332906114eb9087906000908690600401611ddc565b600060405180830381600087803b15801561150557600080fd5b505af1158015611519573d6000803e3d6000fd5b505050506040513d6000823e601f3d908101601f191682016040526115419190810190611b60565b505050505050565b801561093957610939826000809054906101000a90046001600160a01b03166001600160a01b031663469048406040518163ffffffff1660e01b815260040160206040518083038186803b1580156115a057600080fd5b505afa1580156115b4573d6000803e3d6000fd5b505050506040513d601f19601f820116820180604052508101906115d89190611a8c565b6001600160a01b03861691908463ffffffff6117b616565b6000610764828463ffffffff6118f816565b600080836001600160a01b03166366cb8d2f846040518263ffffffff1660e01b81526004016116319190611daf565b60206040518083038186803b15801561164957600080fd5b505afa15801561165d573d6000803e3d6000fd5b505050506040513d601f19601f820116820180604052508101906116819190611d6b565b139392505050565b600080836001600160a01b031663a7bdad03846040518263ffffffff1660e01b81526004016116b89190611daf565b60006040518083038186803b1580156116d057600080fd5b505afa1580156116e4573d6000803e3d6000fd5b505050506040513d6000823e601f3d908101601f1916820160405261170c9190810190611aa8565b51119392505050565b6000600160ff1b82106113605760405162461bcd60e51b815260040161025b906121ba565b60008261174957506000610767565b8282028284828161175657fe5b04146107645760405162461bcd60e51b815260040161025b9061209b565b600061076483836040518060400160405280601a81526020017f536166654d6174683a206469766973696f6e206279207a65726f000000000000815250611916565b80156105c7576040516370a0823160e01b81526000906001600160a01b038516906370a08231906117eb908890600401611daf565b60206040518083038186803b15801561180357600080fd5b505afa158015611817573d6000803e3d6000fd5b505050506040513d601f19601f8201168201806040525081019061183b9190611d6b565b905061184985858585611474565b6040516370a0823160e01b81526000906001600160a01b038616906370a0823190611878908990600401611daf565b60206040518083038186803b15801561189057600080fd5b505afa1580156118a4573d6000803e3d6000fd5b505050506040513d601f19601f820116820180604052508101906118c89190611d6b565b90506118da828463ffffffff61101416565b81146115415760405162461bcd60e51b815260040161025b9061214c565b60006107648261138285670de0b6b3a764000063ffffffff61173a16565b600081836119375760405162461bcd60e51b815260040161025b9190611ea4565b50600083858161194357fe5b0495945050505050565b8280548282559060005260206000209081019282156119a2579160200282015b828111156119a257825182546001600160a01b0319166001600160a01b0390911617825560209092019160019091019061196d565b506113609291506119cc565b50805460008255906000526020600020908101906108a491906119f0565b6108b191905b808211156113605780546001600160a01b03191681556001016119d2565b6108b191905b8082111561136057600081556001016119f6565b600082601f830112611a1a578081fd5b8135611a2d611a2882612344565b61231d565b818152915060208083019084810181840286018201871015611a4e57600080fd5b60005b84811015611a76578135611a6481612390565b84529282019290820190600101611a51565b505050505092915050565b8035610767816123a5565b600060208284031215611a9d578081fd5b815161076481612390565b60006020808385031215611aba578182fd5b825167ffffffffffffffff811115611ad0578283fd5b80840185601f820112611ae1578384fd5b80519150611af1611a2883612344565b8281528381019082850185850284018601891015611b0d578687fd5b8693505b84841015611b38578051611b2481612390565b835260019390930192918501918501611b11565b50979650505050505050565b600060208284031215611b55578081fd5b8151610764816123a5565b600060208284031215611b71578081fd5b815167ffffffffffffffff80821115611b88578283fd5b81840185601f820112611b99578384fd5b8051925081831115611ba9578384fd5b611bbc601f8401601f191660200161231d565b9150828252856020848301011115611bd2578384fd5b611be3836020840160208401612364565b50949350505050565b600060208284031215611bfd578081fd5b813561076481612390565b60008060408385031215611c1a578081fd5b8235611c2581612390565b91506020830135611c3581612390565b809150509250929050565b60008060408385031215611c52578182fd5b8235611c5d81612390565b9150602083013567ffffffffffffffff811115611c78578182fd5b611c8485828601611a0a565b9150509250929050565b60008060408385031215611ca0578182fd5b8235611cab81612390565b9150602083013567ffffffffffffffff80821115611cc7578283fd5b81850160808188031215611cd9578384fd5b611ce3608061231d565b9250803582811115611cf3578485fd5b611cff88828401611a0a565b84525060208101359150611d1282612390565b81602084015260408101356040840152611d2f8760608301611a81565b606084015250929590945092505050565b60008060408385031215611d52578182fd5b8235611d5d81612390565b946020939093013593505050565b600060208284031215611d7c578081fd5b5051919050565b60008151808452611d9b816020860160208601612364565b601f01601f19169290920160200192915050565b6001600160a01b0391909116815260200190565b6001600160a01b03929092168252602082015260400190565b600060018060a01b038516825283602083015260606040830152610a5f6060830184611d83565b6001600160a01b0393909316835260208301919091521515604082015260600190565b6001600160a01b0394909416845260208401929092526040830152606082015260800190565b6020808252825182820181905260009190848201906040850190845b81811015611e8d5783516001600160a01b031683529284019291840191600101611e68565b50909695505050505050565b901515815260200190565b6000602082526107646020830184611d83565b60208082526015908201527420b2323932b9b9903737ba1034b71030b93930bc9760591b604082015260600190565b60208082526018908201527f496e646578206d757374206265203c2041206c656e6774680000000000000000604082015260600190565b60208082526014908201527326bab9ba103132903b30b634b21031b0b63632b960611b604082015260600190565b6020808252601f908201527f5061737365642061646472657373206d757374206265206e6f6e2d7a65726f00604082015260600190565b60208082526028908201527f4d75737420626520612076616c696420616e6420696e697469616c697a65642060408201526729b2ba2a37b5b2b760c11b606082015260800190565b6020808252601b908201527f536166654d6174683a206164646974696f6e206f766572666c6f770000000000604082015260600190565b6020808252601e908201527f4d7573742062652070656e64696e6720696e697469616c697a6174696f6e0000604082015260600190565b6020808252601490820152732332b29036bab9ba103132901e1e90189818129760611b604082015260600190565b6020808252818101527f53616665436173743a2076616c7565206d75737420626520706f736974697665604082015260600190565b60208082526021908201527f536166654d6174683a206d756c7469706c69636174696f6e206f766572666c6f6040820152607760f81b606082015260800190565b60208082526022908201527f4174206c65617374206f6e6520746f6b656e206d757374206265207061737365604082015261321760f11b606082015260800190565b6020808252601490820152732a37b5b2b71030b63932b0b23c9030b23232b21760611b604082015260600190565b6020808252601d908201527f496e76616c696420706f7374207472616e736665722062616c616e6365000000604082015260600190565b6020808252601d908201527f41697264726f70206665652063616e2774206578636565642031303025000000604082015260600190565b60208082526028908201527f53616665436173743a2076616c756520646f65736e27742066697420696e2061604082015267371034b73a191a9b60c11b606082015260800190565b60208082526023908201527f4d75737420626520636f6e74726f6c6c65722d656e61626c656420536574546f60408201526235b2b760e91b606082015260800190565b6020808252601c908201527f4d7573742062652074686520536574546f6b656e206d616e6167657200000000604082015260600190565b60208082526017908201527f4d75737420626520617070726f76656420746f6b656e2e000000000000000000604082015260600190565b6020808252601f908201527f5265656e7472616e637947756172643a207265656e7472616e742063616c6c00604082015260600190565b60208082526010908201526f2a37b5b2b7103737ba1030b23232b21760811b604082015260600190565b90815260200190565b60405181810167ffffffffffffffff8111828210171561233c57600080fd5b604052919050565b600067ffffffffffffffff82111561235a578081fd5b5060209081020190565b60005b8381101561237f578181015183820152602001612367565b838111156105c75750506000910152565b6001600160a01b03811681146108a457600080fd5b80151581146108a457600080fdfea26469706673582212203fd7988c18ea2c1b0329a1f7c56510ccd8b74d49636748935140522c2afbf0d864736f6c634300060a0033",
  "deployedBytecode": "",
  "linkReferences": {},
  "deployedLinkReferences": {}
}