{
  "_format": "hh-sol-artifact-1",
  "contractName": "AirdropModule",
  "sourceName": "contracts/protocol/modules/AirdropModule.sol",
  "abi": [
    {
      "inputs": [
        {
          "internalType": "contract IController",
          "name": "_controller",
          "type": "address"
        }
      ],
      "stateMutability": "nonpayable",
      "type": "constructor"
    },
    {
      "anonymous": false,
      "inputs": [
        {
          "indexed": true,
          "internalType": "contract ISetToken",
          "name": "_setToken",
          "type": "address"
        },
        {
          "indexed": false,
          "internalType": "address",
          "name": "_absorbedToken",
          "type": "address"
        },
        {
          "indexed": false,
          "internalType": "uint256",
          "name": "_absorbedQuantity",
          "type": "uint256"
        },
        {
          "indexed": false,
          "internalType": "uint256",
          "name": "_managerFee",
          "type": "uint256"
        },
        {
          "indexed": false,
          "internalType": "uint256",
          "name": "_protocolFee",
          "type": "uint256"
        }
      ],
      "name": "ComponentAbsorbed",
      "type": "event"
    },
    {
      "inputs": [],
      "name": "AIRDROP_MODULE_PROTOCOL_FEE_INDEX",
      "outputs": [
        {
          "internalType": "uint256",
          "name": "",
          "type": "uint256"
        }
      ],
      "stateMutability": "view",
      "type": "function",
      "gas": "0xaeb690"
    },
    {
      "inputs": [
        {
          "internalType": "contract ISetToken",
          "name": "_setToken",
          "type": "address"
        },
        {
          "internalType": "address",
          "name": "_token",
          "type": "address"
        }
      ],
      "name": "absorb",
      "outputs": [],
      "stateMutability": "nonpayable",
      "type": "function",
      "gas": "0xaeb690"
    },
    {
      "inputs": [
        {
          "internalType": "contract ISetToken",
          "name": "_setToken",
          "type": "address"
        },
        {
          "internalType": "address",
          "name": "_airdrop",
          "type": "address"
        }
      ],
      "name": "addAirdrop",
      "outputs": [],
      "stateMutability": "nonpayable",
      "type": "function",
      "gas": "0xaeb690"
    },
    {
      "inputs": [
        {
          "internalType": "contract ISetToken",
          "name": "",
          "type": "address"
        }
      ],
      "name": "airdropSettings",
      "outputs": [
        {
          "internalType": "address",
          "name": "feeRecipient",
          "type": "address"
        },
        {
          "internalType": "uint256",
          "name": "airdropFee",
          "type": "uint256"
        },
        {
          "internalType": "bool",
          "name": "anyoneAbsorb",
          "type": "bool"
        }
      ],
      "stateMutability": "view",
      "type": "function",
      "gas": "0xaeb690"
    },
    {
      "inputs": [
        {
          "internalType": "contract ISetToken",
          "name": "_setToken",
          "type": "address"
        },
        {
          "internalType": "address[]",
          "name": "_tokens",
          "type": "address[]"
        }
      ],
      "name": "batchAbsorb",
      "outputs": [],
      "stateMutability": "nonpayable",
      "type": "function",
      "gas": "0xaeb690"
    },
    {
      "inputs": [],
      "name": "controller",
      "outputs": [
        {
          "internalType": "contract IController",
          "name": "",
          "type": "address"
        }
      ],
      "stateMutability": "view",
      "type": "function",
      "gas": "0xaeb690"
    },
    {
      "inputs": [
        {
          "internalType": "contract ISetToken",
          "name": "_setToken",
          "type": "address"
        }
      ],
      "name": "getAirdrops",
      "outputs": [
        {
          "internalType": "address[]",
          "name": "",
          "type": "address[]"
        }
      ],
      "stateMutability": "view",
      "type": "function",
      "gas": "0xaeb690"
    },
    {
      "inputs": [
        {
          "internalType": "contract ISetToken",
          "name": "_setToken",
          "type": "address"
        },
        {
          "components": [
            {
              "internalType": "address[]",
              "name": "airdrops",
              "type": "address[]"
            },
            {
              "internalType": "address",
              "name": "feeRecipient",
              "type": "address"
            },
            {
              "internalType": "uint256",
              "name": "airdropFee",
              "type": "uint256"
            },
            {
              "internalType": "bool",
              "name": "anyoneAbsorb",
              "type": "bool"
            }
          ],
          "internalType": "struct AirdropModule.AirdropSettings",
          "name": "_airdropSettings",
          "type": "tuple"
        }
      ],
      "name": "initialize",
      "outputs": [],
      "stateMutability": "nonpayable",
      "type": "function",
      "gas": "0xaeb690"
    },
    {
      "inputs": [
        {
          "internalType": "contract ISetToken",
          "name": "_setToken",
          "type": "address"
        },
        {
          "internalType": "address",
          "name": "_token",
          "type": "address"
        }
      ],
      "name": "isAirdropToken",
      "outputs": [
        {
          "internalType": "bool",
          "name": "",
          "type": "bool"
        }
      ],
      "stateMutability": "view",
      "type": "function",
      "gas": "0xaeb690"
    },
    {
      "inputs": [
        {
          "internalType": "contract ISetToken",
          "name": "_setToken",
          "type": "address"
        },
        {
          "internalType": "address",
          "name": "_airdrop",
          "type": "address"
        }
      ],
      "name": "removeAirdrop",
      "outputs": [],
      "stateMutability": "nonpayable",
      "type": "function",
      "gas": "0xaeb690"
    },
    {
      "inputs": [],
      "name": "removeModule",
      "outputs": [],
      "stateMutability": "nonpayable",
      "type": "function",
      "gas": "0xaeb690"
    },
    {
      "inputs": [
        {
          "internalType": "contract ISetToken",
          "name": "_setToken",
          "type": "address"
        },
        {
          "internalType": "uint256",
          "name": "_newFee",
          "type": "uint256"
        }
      ],
      "name": "updateAirdropFee",
      "outputs": [],
      "stateMutability": "nonpayable",
      "type": "function",
      "gas": "0xaeb690"
    },
    {
      "inputs": [
        {
          "internalType": "contract ISetToken",
          "name": "_setToken",
          "type": "address"
        }
      ],
      "name": "updateAnyoneAbsorb",
      "outputs": [],
      "stateMutability": "nonpayable",
      "type": "function",
      "gas": "0xaeb690"
    },
    {
      "inputs": [
        {
          "internalType": "contract ISetToken",
          "name": "_setToken",
          "type": "address"
        },
        {
          "internalType": "address",
          "name": "_newFeeRecipient",
          "type": "address"
        }
      ],
      "name": "updateFeeRecipient",
      "outputs": [],
      "stateMutability": "nonpayable",
      "type": "function",
      "gas": "0xaeb690"
    }
  ],
  "bytecode": "0x608060405234801561001057600080fd5b5060405162002482380380620024828339810160408190526100319161005a565b600080546001600160a01b0319166001600160a01b039290921691909117905560018055610088565b60006020828403121561006b578081fd5b81516001600160a01b0381168114610081578182fd5b9392505050565b6123ea80620000986000396000f3fe608060405234801561001057600080fd5b50600436106100ea5760003560e01c806370eaf3591161008c578063cd8b529c11610066578063cd8b529c146101af578063e30a3a14146101cf578063e92f0935146101f1578063f77c479114610211576100ea565b806370eaf35914610181578063847ef08d1461019457806391ad34651461019c576100ea565b806339de2849116100c857806339de28491461012a5780635a3a92fb146101485780635d98c3731461015b5780636cf8293d1461016e576100ea565b8063032a3bd6146100ef5780631bc1e9ba146101045780631bee032d14610117575b600080fd5b6101026100fd366004611c8f565b610226565b005b610102610112366004611c41565b61035f565b610102610125366004611c09565b6103cb565b61013261043b565b60405161013f9190612315565b60405180910390f35b610102610156366004611bed565b610440565b610102610169366004611c09565b610477565b61010261017c366004611c09565b6104e7565b61010261018f366004611d41565b6105cd565b6101026106a7565b6101026101aa366004611c09565b6106e8565b6101c26101bd366004611c09565b61074a565b60405161013f9190611e9a565b6101e26101dd366004611bed565b61076e565b60405161013f93929190611e04565b6102046101ff366004611bed565b6107a0565b60405161013f9190611e4d565b6102196107ab565b60405161013f9190611db0565b813361023282826107ba565b8361023c816107e4565b8351516102645760405162461bcd60e51b815260040161025b906120dd565b60405180910390fd5b61026c6108a8565b8460400151111561028f5760405162461bcd60e51b815260040161025b90612039565b6001600160a01b03851660009081526002602090815260409091208551805187936102be92849291019061194e565b5060208201516001820180546001600160a01b0319166001600160a01b0392831617905560408084015160028401556060909301516003909201805460ff19169215159290921790915581516307ff078f60e11b8152915190871691630ffe0f1e91600480830192600092919082900301818387803b15801561034057600080fd5b505af1158015610354573d6000803e3d6000fd5b505050505050505050565b600260015414156103825760405162461bcd60e51b815260040161025b906122b4565b600260015581610391816108b5565b6103ad5760405162461bcd60e51b815260040161025b90611f1e565b826103b7816108e4565b6103c18484610909565b5050600180555050565b816103d58161093f565b6103df838361074a565b156103fc5760405162461bcd60e51b815260040161025b9061211f565b506001600160a01b0391821660009081526002602090815260408220805460018101825590835291200180546001600160a01b03191691909216179055565b600081565b8061044a8161093f565b506001600160a01b03166000908152600260205260409020600301805460ff19811660ff90911615179055565b813361048382826107ba565b8361048d816108e4565b6001600160a01b0384166104b35760405162461bcd60e51b815260040161025b90611f4c565b5050506001600160a01b03918216600090815260026020526040902060010180546001600160a01b03191691909216179055565b816104f18161093f565b6104fb838361074a565b6105175760405162461bcd60e51b815260040161025b906122eb565b6001600160a01b038316600090815260026020908152604091829020805483518184028101840190945280845261059a9386939092919083018282801561058757602002820191906000526020600020905b81546001600160a01b03168152600190910190602001808311610569575b505050505061096590919063ffffffff16565b6001600160a01b038416600090815260026020908152604090912082516105c7939192919091019061194e565b50505050565b81336105d982826107ba565b836105e3816108e4565b6105eb6108a8565b84111561060a5760405162461bcd60e51b815260040161025b90612184565b6001600160a01b03851660009081526002602090815260409182902080548351818402810184019094528084526106849389939092919083018282801561067a57602002820191906000526020600020905b81546001600160a01b0316815260019091019060200180831161065c575b5050505050610909565b5050506001600160a01b0390911660009081526002602081905260409091200155565b336000908152600260205260408120906106c182826119af565b506001810180546001600160a01b031916905560006002820155600301805460ff19169055565b6002600154141561070b5760405162461bcd60e51b815260040161025b906122b4565b60026001558161071a816108b5565b6107365760405162461bcd60e51b815260040161025b90611f1e565b82610740816108e4565b6103c184846109ad565b600061076582610759856109dd565b9063ffffffff610a5316565b90505b92915050565b60026020819052600091825260409091206001810154918101546003909101546001600160a01b039092169160ff1683565b6060610768826109dd565b6000546001600160a01b031681565b6107c48282610a69565b6107e05760405162461bcd60e51b815260040161025b90612246565b5050565b600054604051631d3af8fb60e21b81526001600160a01b03909116906374ebe3ec90610814908490600401611db0565b60206040518083038186803b15801561082c57600080fd5b505afa158015610840573d6000803e3d6000fd5b505050506040513d601f19601f820116820180604052508101906108649190611b45565b6108805760405162461bcd60e51b815260040161025b90612203565b61088981610af7565b6108a55760405162461bcd60e51b815260040161025b90612002565b50565b670de0b6b3a76400005b90565b6001600160a01b03811660009081526002602052604081206003015460ff168061076857506107688233610a69565b6108ed81610b76565b6108a55760405162461bcd60e51b815260040161025b90611f83565b60005b815181101561093a576109328383838151811061092557fe5b60200260200101516109ad565b60010161090c565b505050565b6109498133610a69565b6108e45760405162461bcd60e51b815260040161025b90612246565b60606000806109748585610c2a565b91509150806109955760405162461bcd60e51b815260040161025b90611eb8565b60606109a18684610c90565b50935061076892505050565b6109b7828261074a565b6109d35760405162461bcd60e51b815260040161025b9061227d565b6107e08282610dbf565b6001600160a01b038116600090815260026020908152604091829020805483518184028101840190945280845260609392830182828015610a4757602002820191906000526020600020905b81546001600160a01b03168152600190910190602001808311610a29575b50505050509050919050565b600080610a608484610c2a565b95945050505050565b6000816001600160a01b0316836001600160a01b031663481c6a756040518163ffffffff1660e01b815260040160206040518083038186803b158015610aae57600080fd5b505afa158015610ac2573d6000803e3d6000fd5b505050506040513d601f19601f82011682018060405250810190610ae69190611a8d565b6001600160a01b0316149392505050565b6040516353bae5f760e01b81526000906001600160a01b038316906353bae5f790610b26903090600401611db0565b60206040518083038186803b158015610b3e57600080fd5b505afa158015610b52573d6000803e3d6000fd5b505050506040513d601f19601f820116820180604052508101906107689190611b45565b60008054604051631d3af8fb60e21b81526001600160a01b03909116906374ebe3ec90610ba7908590600401611db0565b60206040518083038186803b158015610bbf57600080fd5b505afa158015610bd3573d6000803e3d6000fd5b505050506040513d601f19601f82011682018060405250810190610bf79190611b45565b801561076857506040516335fc6c9f60e21b81526001600160a01b0383169063d7f1b27c90610b26903090600401611db0565b81516000908190815b81811015610c7d57846001600160a01b0316868281518110610c5157fe5b60200260200101516001600160a01b03161415610c7557925060019150610c899050565b600101610c33565b50600019600092509250505b9250929050565b8151606090600090808410610cb75760405162461bcd60e51b815260040161025b90611ee7565b60606001820367ffffffffffffffff81118015610cd357600080fd5b50604051908082528060200260200182016040528015610cfd578160200160208202803683370190505b50905060005b85811015610d4b57868181518110610d1757fe5b6020026020010151828281518110610d2b57fe5b6001600160a01b0390921660209283029190910190910152600101610d03565b50600185015b82811015610d9c57868181518110610d6557fe5b6020026020010151826001830381518110610d7c57fe5b6001600160a01b0390921660209283029190910190910152600101610d51565b5080868681518110610daa57fe5b60200260200101519350935050509250929050565b6040516370a0823160e01b81526000906001600160a01b038316906370a0823190610dee908690600401611db0565b60206040518083038186803b158015610e0657600080fd5b505afa158015610e1a573d6000803e3d6000fd5b505050506040513d601f19601f82011682018060405250810190610e3e9190611d6c565b90506000610e6b610e5e6001600160a01b0386168563ffffffff610f0316565b839063ffffffff61101516565b905080156105c7576000806000610e83878786611057565b9250925092506000610e9688878461112b565b9050610eb26001600160a01b038916888363ffffffff6111c116565b876001600160a01b03167f55973614a7f79cfa12e7b54f93f3ad973a4eb12d31bbeacb485279ad5b690b4c88878787604051610ef19493929190611e27565b60405180910390a25050505050505050565b600080836001600160a01b03166366cb8d2f846040518263ffffffff1660e01b8152600401610f329190611db0565b60206040518083038186803b158015610f4a57600080fd5b505afa158015610f5e573d6000803e3d6000fd5b505050506040513d601f19601f82011682018060405250810190610f829190611d6c565b905061100d610f908261133f565b856001600160a01b03166318160ddd6040518163ffffffff1660e01b815260040160206040518083038186803b158015610fc957600080fd5b505afa158015610fdd573d6000803e3d6000fd5b505050506040513d601f19601f820116820180604052508101906110019190611d6c565b9063ffffffff61136516565b949350505050565b600061076583836040518060400160405280601e81526020017f536166654d6174683a207375627472616374696f6e206f766572666c6f77000081525061138f565b6001600160a01b03831660009081526002602081905260408220015481908190801561111657600061108f868363ffffffff61136516565b9050600061109e6000836113bb565b905060006110b2838363ffffffff61101516565b905060006110c6828463ffffffff61145016565b6001600160a01b03808d166000818152600260205260409020600101549293506110fb9290918d91168563ffffffff61147516565b6111068b8b8561154a565b9096509094509250611122915050565b50600092508291508190505b93509350939050565b600080846001600160a01b03166318160ddd6040518163ffffffff1660e01b815260040160206040518083038186803b15801561116757600080fd5b505afa15801561117b573d6000803e3d6000fd5b505050506040513d601f19601f8201168201806040525081019061119f9190611d6c565b9050610a606111b4858563ffffffff61101516565b829063ffffffff6115f116565b60006111cd8484611603565b9050801580156111dd5750600082115b15611254576111ec848461168a565b61124f576040516304e3532760e41b81526001600160a01b03851690634e3532709061121c908690600401611db0565b600060405180830381600087803b15801561123657600080fd5b505af115801561124a573d6000803e3d6000fd5b505050505b6112d1565b80801561125f575081155b156112d15761126e848461168a565b6112d157604051636f86c89760e01b81526001600160a01b03851690636f86c8979061129e908690600401611db0565b600060405180830381600087803b1580156112b857600080fd5b505af11580156112cc573d6000803e3d6000fd5b505050505b836001600160a01b0316632ba57d17846112ea85611716565b6040518363ffffffff1660e01b8152600401611307929190611dc4565b600060405180830381600087803b15801561132157600080fd5b505af1158015611335573d6000803e3d6000fd5b5050505050505050565b6000808212156113615760405162461bcd60e51b815260040161025b90612067565b5090565b6000610765670de0b6b3a7640000611383858563ffffffff61173b16565b9063ffffffff61177516565b600081848411156113b35760405162461bcd60e51b815260040161025b9190611ea5565b505050900390565b6000805460405163792aa04f60e01b815282916001600160a01b03169063792aa04f906113ee9030908890600401611dc4565b60206040518083038186803b15801561140657600080fd5b505afa15801561141a573d6000803e3d6000fd5b505050506040513d601f19601f8201168201806040525081019061143e9190611d6c565b905061100d838263ffffffff61136516565b6000828201838110156107655760405162461bcd60e51b815260040161025b90611fcb565b80156105c75760608282604051602401611490929190611dc4565b60408051601f198184030181529181526020820180516001600160e01b031663a9059cbb60e01b179052516347b7819960e11b81529091506001600160a01b03861690638f6f0332906114ec9087906000908690600401611ddd565b600060405180830381600087803b15801561150657600080fd5b505af115801561151a573d6000803e3d6000fd5b505050506040513d6000823e601f3d908101601f191682016040526115429190810190611b61565b505050505050565b801561093a5761093a826000809054906101000a90046001600160a01b03166001600160a01b031663469048406040518163ffffffff1660e01b815260040160206040518083038186803b1580156115a157600080fd5b505afa1580156115b5573d6000803e3d6000fd5b505050506040513d601f19601f820116820180604052508101906115d99190611a8d565b6001600160a01b03861691908463ffffffff6117b716565b6000610765828463ffffffff6118f916565b600080836001600160a01b03166366cb8d2f846040518263ffffffff1660e01b81526004016116329190611db0565b60206040518083038186803b15801561164a57600080fd5b505afa15801561165e573d6000803e3d6000fd5b505050506040513d601f19601f820116820180604052508101906116829190611d6c565b139392505050565b600080836001600160a01b031663a7bdad03846040518263ffffffff1660e01b81526004016116b99190611db0565b60006040518083038186803b1580156116d157600080fd5b505afa1580156116e5573d6000803e3d6000fd5b505050506040513d6000823e601f3d908101601f1916820160405261170d9190810190611aa9565b51119392505050565b6000600160ff1b82106113615760405162461bcd60e51b815260040161025b906121bb565b60008261174a57506000610768565b8282028284828161175757fe5b04146107655760405162461bcd60e51b815260040161025b9061209c565b600061076583836040518060400160405280601a81526020017f536166654d6174683a206469766973696f6e206279207a65726f000000000000815250611917565b80156105c7576040516370a0823160e01b81526000906001600160a01b038516906370a08231906117ec908890600401611db0565b60206040518083038186803b15801561180457600080fd5b505afa158015611818573d6000803e3d6000fd5b505050506040513d601f19601f8201168201806040525081019061183c9190611d6c565b905061184a85858585611475565b6040516370a0823160e01b81526000906001600160a01b038616906370a0823190611879908990600401611db0565b60206040518083038186803b15801561189157600080fd5b505afa1580156118a5573d6000803e3d6000fd5b505050506040513d601f19601f820116820180604052508101906118c99190611d6c565b90506118db828463ffffffff61101516565b81146115425760405162461bcd60e51b815260040161025b9061214d565b60006107658261138385670de0b6b3a764000063ffffffff61173b16565b600081836119385760405162461bcd60e51b815260040161025b9190611ea5565b50600083858161194457fe5b0495945050505050565b8280548282559060005260206000209081019282156119a3579160200282015b828111156119a357825182546001600160a01b0319166001600160a01b0390911617825560209092019160019091019061196e565b506113619291506119cd565b50805460008255906000526020600020908101906108a591906119f1565b6108b291905b808211156113615780546001600160a01b03191681556001016119d3565b6108b291905b8082111561136157600081556001016119f7565b600082601f830112611a1b578081fd5b8135611a2e611a2982612345565b61231e565b818152915060208083019084810181840286018201871015611a4f57600080fd5b60005b84811015611a77578135611a6581612391565b84529282019290820190600101611a52565b505050505092915050565b8035610768816123a6565b600060208284031215611a9e578081fd5b815161076581612391565b60006020808385031215611abb578182fd5b825167ffffffffffffffff811115611ad1578283fd5b80840185601f820112611ae2578384fd5b80519150611af2611a2983612345565b8281528381019082850185850284018601891015611b0e578687fd5b8693505b84841015611b39578051611b2581612391565b835260019390930192918501918501611b12565b50979650505050505050565b600060208284031215611b56578081fd5b8151610765816123a6565b600060208284031215611b72578081fd5b815167ffffffffffffffff80821115611b89578283fd5b81840185601f820112611b9a578384fd5b8051925081831115611baa578384fd5b611bbd601f8401601f191660200161231e565b9150828252856020848301011115611bd3578384fd5b611be4836020840160208401612365565b50949350505050565b600060208284031215611bfe578081fd5b813561076581612391565b60008060408385031215611c1b578081fd5b8235611c2681612391565b91506020830135611c3681612391565b809150509250929050565b60008060408385031215611c53578182fd5b8235611c5e81612391565b9150602083013567ffffffffffffffff811115611c79578182fd5b611c8585828601611a0b565b9150509250929050565b60008060408385031215611ca1578182fd5b8235611cac81612391565b9150602083013567ffffffffffffffff80821115611cc8578283fd5b81850160808188031215611cda578384fd5b611ce4608061231e565b9250803582811115611cf4578485fd5b611d0088828401611a0b565b84525060208101359150611d1382612391565b81602084015260408101356040840152611d308760608301611a82565b606084015250929590945092505050565b60008060408385031215611d53578182fd5b8235611d5e81612391565b946020939093013593505050565b600060208284031215611d7d578081fd5b5051919050565b60008151808452611d9c816020860160208601612365565b601f01601f19169290920160200192915050565b6001600160a01b0391909116815260200190565b6001600160a01b03929092168252602082015260400190565b600060018060a01b038516825283602083015260606040830152610a606060830184611d84565b6001600160a01b0393909316835260208301919091521515604082015260600190565b6001600160a01b0394909416845260208401929092526040830152606082015260800190565b6020808252825182820181905260009190848201906040850190845b81811015611e8e5783516001600160a01b031683529284019291840191600101611e69565b50909695505050505050565b901515815260200190565b6000602082526107656020830184611d84565b60208082526015908201527420b2323932b9b9903737ba1034b71030b93930bc9760591b604082015260600190565b60208082526018908201527f496e646578206d757374206265203c2041206c656e6774680000000000000000604082015260600190565b60208082526014908201527326bab9ba103132903b30b634b21031b0b63632b960611b604082015260600190565b6020808252601f908201527f5061737365642061646472657373206d757374206265206e6f6e2d7a65726f00604082015260600190565b60208082526028908201527f4d75737420626520612076616c696420616e6420696e697469616c697a65642060408201526729b2ba2a37b5b2b760c11b606082015260800190565b6020808252601b908201527f536166654d6174683a206164646974696f6e206f766572666c6f770000000000604082015260600190565b6020808252601e908201527f4d7573742062652070656e64696e6720696e697469616c697a6174696f6e0000604082015260600190565b6020808252601490820152732332b29036bab9ba103132901e1e90189818129760611b604082015260600190565b6020808252818101527f53616665436173743a2076616c7565206d75737420626520706f736974697665604082015260600190565b60208082526021908201527f536166654d6174683a206d756c7469706c69636174696f6e206f766572666c6f6040820152607760f81b606082015260800190565b60208082526022908201527f4174206c65617374206f6e6520746f6b656e206d757374206265207061737365604082015261321760f11b606082015260800190565b6020808252601490820152732a37b5b2b71030b63932b0b23c9030b23232b21760611b604082015260600190565b6020808252601d908201527f496e76616c696420706f7374207472616e736665722062616c616e6365000000604082015260600190565b6020808252601d908201527f41697264726f70206665652063616e2774206578636565642031303025000000604082015260600190565b60208082526028908201527f53616665436173743a2076616c756520646f65736e27742066697420696e2061604082015267371034b73a191a9b60c11b606082015260800190565b60208082526023908201527f4d75737420626520636f6e74726f6c6c65722d656e61626c656420536574546f60408201526235b2b760e91b606082015260800190565b6020808252601c908201527f4d7573742062652074686520536574546f6b656e206d616e6167657200000000604082015260600190565b60208082526017908201527f4d75737420626520617070726f76656420746f6b656e2e000000000000000000604082015260600190565b6020808252601f908201527f5265656e7472616e637947756172643a207265656e7472616e742063616c6c00604082015260600190565b60208082526010908201526f2a37b5b2b7103737ba1030b23232b21760811b604082015260600190565b90815260200190565b60405181810167ffffffffffffffff8111828210171561233d57600080fd5b604052919050565b600067ffffffffffffffff82111561235b578081fd5b5060209081020190565b60005b83811015612380578181015183820152602001612368565b838111156105c75750506000910152565b6001600160a01b03811681146108a557600080fd5b80151581146108a557600080fdfea2646970667358221220bc4e315cababe4b156a553a180a4611e7c3aab82b6f1ed9bbc08560dae6ba81664736f6c634300060a0033",
  "deployedBytecode": "",
  "linkReferences": {},
  "deployedLinkReferences": {}
}