{
  "_format": "hh-sol-artifact-1",
  "contractName": "BasicIssuanceModule",
  "sourceName": "contracts/protocol/modules/BasicIssuanceModule.sol",
  "abi": [
    {
      "inputs": [
        {
          "internalType": "contract IController",
          "name": "_controller",
          "type": "address"
        }
      ],
      "stateMutability": "nonpayable",
      "type": "constructor"
    },
    {
      "anonymous": false,
      "inputs": [
        {
          "indexed": true,
          "internalType": "address",
          "name": "_setToken",
          "type": "address"
        },
        {
          "indexed": true,
          "internalType": "address",
          "name": "_issuer",
          "type": "address"
        },
        {
          "indexed": true,
          "internalType": "address",
          "name": "_to",
          "type": "address"
        },
        {
          "indexed": false,
          "internalType": "address",
          "name": "_hookContract",
          "type": "address"
        },
        {
          "indexed": false,
          "internalType": "uint256",
          "name": "_quantity",
          "type": "uint256"
        }
      ],
      "name": "SetTokenIssued",
      "type": "event"
    },
    {
      "anonymous": false,
      "inputs": [
        {
          "indexed": true,
          "internalType": "address",
          "name": "_setToken",
          "type": "address"
        },
        {
          "indexed": true,
          "internalType": "address",
          "name": "_redeemer",
          "type": "address"
        },
        {
          "indexed": true,
          "internalType": "address",
          "name": "_to",
          "type": "address"
        },
        {
          "indexed": false,
          "internalType": "uint256",
          "name": "_quantity",
          "type": "uint256"
        }
      ],
      "name": "SetTokenRedeemed",
      "type": "event"
    },
    {
      "inputs": [],
      "name": "controller",
      "outputs": [
        {
          "internalType": "contract IController",
          "name": "",
          "type": "address"
        }
      ],
      "stateMutability": "view",
      "type": "function"
    },
    {
      "inputs": [
        {
          "internalType": "contract ISetToken",
          "name": "_setToken",
          "type": "address"
        },
        {
          "internalType": "uint256",
          "name": "_quantity",
          "type": "uint256"
        }
      ],
      "name": "getRequiredComponentUnitsForIssue",
      "outputs": [
        {
          "internalType": "address[]",
          "name": "",
          "type": "address[]"
        },
        {
          "internalType": "uint256[]",
          "name": "",
          "type": "uint256[]"
        }
      ],
      "stateMutability": "view",
      "type": "function"
    },
    {
      "inputs": [
        {
          "internalType": "contract ISetToken",
          "name": "_setToken",
          "type": "address"
        },
        {
          "internalType": "contract IManagerIssuanceHook",
          "name": "_preIssueHook",
          "type": "address"
        }
      ],
      "name": "initialize",
      "outputs": [],
      "stateMutability": "nonpayable",
      "type": "function"
    },
    {
      "inputs": [
        {
          "internalType": "contract ISetToken",
          "name": "_setToken",
          "type": "address"
        },
        {
          "internalType": "uint256",
          "name": "_quantity",
          "type": "uint256"
        },
        {
          "internalType": "address",
          "name": "_to",
          "type": "address"
        }
      ],
      "name": "issue",
      "outputs": [],
      "stateMutability": "nonpayable",
      "type": "function"
    },
    {
      "inputs": [
        {
          "internalType": "contract ISetToken",
          "name": "",
          "type": "address"
        }
      ],
      "name": "managerIssuanceHook",
      "outputs": [
        {
          "internalType": "contract IManagerIssuanceHook",
          "name": "",
          "type": "address"
        }
      ],
      "stateMutability": "view",
      "type": "function"
    },
    {
      "inputs": [
        {
          "internalType": "contract ISetToken",
          "name": "_setToken",
          "type": "address"
        },
        {
          "internalType": "uint256",
          "name": "_quantity",
          "type": "uint256"
        },
        {
          "internalType": "address",
          "name": "_to",
          "type": "address"
        }
      ],
      "name": "redeem",
      "outputs": [],
      "stateMutability": "nonpayable",
      "type": "function"
    },
    {
      "inputs": [],
      "name": "removeModule",
      "outputs": [],
      "stateMutability": "nonpayable",
      "type": "function"
    }
  ],
  "bytecode": "0x608060405234801561001057600080fd5b50604051611bda380380611bda83398101604081905261002f91610058565b600080546001600160a01b0319166001600160a01b039290921691909117905560018055610086565b600060208284031215610069578081fd5b81516001600160a01b038116811461007f578182fd5b9392505050565b611b45806100956000396000f3fe608060405234801561001057600080fd5b506004361061007d5760003560e01c80637a4ffd031161005b5780637a4ffd03146100bd578063847ef08d146100e7578063dfe75335146100ef578063f77c47911461010f5761007d565b8063485cc955146100825780635c833bfd146100975780636d78f47a146100aa575b600080fd5b61009561009036600461149e565b610117565b005b6100956100a5366004611501565b61028a565b6100956100b8366004611501565b610551565b6100d06100cb3660046114d6565b6106ec565b6040516100de929190611638565b60405180910390f35b6100956108ab565b6101026100fd366004611482565b6108c3565b6040516100de91906115b7565b6101026108de565b813361012382826108ed565b6101485760405162461bcd60e51b815260040161013f906119e3565b60405180910390fd5b600054604051631d3af8fb60e21b815285916001600160a01b0316906374ebe3ec906101789084906004016115b7565b60206040518083038186803b15801561019057600080fd5b505afa1580156101a4573d6000803e3d6000fd5b505050506040513d601f19601f820116820180604052508101906101c891906113d6565b6101e45760405162461bcd60e51b815260040161013f906119a0565b6101ed8161097d565b6102095760405162461bcd60e51b815260040161013f9061184e565b6001600160a01b0385811660008181526002602052604080822080546001600160a01b0319169489169490941790935582516307ff078f60e11b815292519192630ffe0f1e926004808301939282900301818387803b15801561026b57600080fd5b505af115801561027f573d6000803e3d6000fd5b505050505050505050565b600260015414156102ad5760405162461bcd60e51b815260040161013f90611a64565b6002600155826102bc816109fc565b6102d85760405162461bcd60e51b815260040161013f90611704565b600083116102f85760405162461bcd60e51b815260040161013f9061174c565b604051632770a7eb60e21b81526001600160a01b03851690639dc29fac9061032690339087906004016115cb565b600060405180830381600087803b15801561034057600080fd5b505af1158015610354573d6000803e3d6000fd5b505050506060846001600160a01b03166399d50d5d6040518163ffffffff1660e01b815260040160006040518083038186803b15801561039357600080fd5b505afa1580156103a7573d6000803e3d6000fd5b505050506040513d6000823e601f3d908101601f191682016040526103cf919081019061132b565b905060005b81518110156104f05760008282815181106103eb57fe5b6020026020010151905061041181886001600160a01b0316610ab090919063ffffffff16565b1561042e5760405162461bcd60e51b815260040161013f9061180a565b60006104b4886001600160a01b03166366cb8d2f846040518263ffffffff1660e01b815260040161045f91906115b7565b60206040518083038186803b15801561047757600080fd5b505afa15801561048b573d6000803e3d6000fd5b505050506040513d601f19601f820116820180604052508101906104af9190611542565b610b3c565b905060006104c8888363ffffffff610b6216565b90506104e56001600160a01b038a1684898463ffffffff610b9316565b5050506001016103d4565b50826001600160a01b0316336001600160a01b0316866001600160a01b03167f05f8aaada00823525432114f0e904c6f7c0198a5b8f113ee635ff81aaf9566ad8760405161053e9190611a9b565b60405180910390a4505060018055505050565b600260015414156105745760405162461bcd60e51b815260040161013f90611a64565b600260015582610583816109fc565b61059f5760405162461bcd60e51b815260040161013f90611704565b600083116105bf5760405162461bcd60e51b815260040161013f90611885565b60006105cd85853386610cde565b90506060806105dc87876106ec565b909250905060005b82518110156106275761061f8382815181106105fc57fe5b6020026020010151338a85858151811061061257fe5b6020026020010151610d7c565b6001016105e4565b506040516340c10f1960e01b81526001600160a01b038816906340c10f19906106569088908a906004016115cb565b600060405180830381600087803b15801561067057600080fd5b505af1158015610684573d6000803e3d6000fd5b50505050846001600160a01b0316336001600160a01b0316886001600160a01b03167fc07f1e2fe31c4d90eae81f76d263d7995aac043a99d6ee6de9c0506047f541c2868a6040516106d79291906115cb565b60405180910390a45050600180555050505050565b606080836106f9816109fc565b6107155760405162461bcd60e51b815260040161013f90611704565b6060856001600160a01b03166399d50d5d6040518163ffffffff1660e01b815260040160006040518083038186803b15801561075057600080fd5b505afa158015610764573d6000803e3d6000fd5b505050506040513d6000823e601f3d908101601f1916820160405261078c919081019061132b565b90506060815167ffffffffffffffff811180156107a857600080fd5b506040519080825280602002602001820160405280156107d2578160200160208202803683370190505b50905060005b825181101561089e576108108382815181106107f057fe5b6020026020010151896001600160a01b0316610ab090919063ffffffff16565b1561082d5760405162461bcd60e51b815260040161013f9061180a565b61087f876108738a6001600160a01b03166366cb8d2f87868151811061084f57fe5b60200260200101516040518263ffffffff1660e01b815260040161045f91906115b7565b9063ffffffff610d8816565b82828151811061088b57fe5b60209081029190910101526001016107d8565b5090969095509350505050565b60405162461bcd60e51b815260040161013f906117ba565b6002602052600090815260409020546001600160a01b031681565b6000546001600160a01b031681565b6000816001600160a01b0316836001600160a01b031663481c6a756040518163ffffffff1660e01b815260040160206040518083038186803b15801561093257600080fd5b505afa158015610946573d6000803e3d6000fd5b505050506040513d601f19601f8201168201806040525081019061096a919061130f565b6001600160a01b03161490505b92915050565b6040516353bae5f760e01b81526000906001600160a01b038316906353bae5f7906109ac9030906004016115b7565b60206040518083038186803b1580156109c457600080fd5b505afa1580156109d8573d6000803e3d6000fd5b505050506040513d601f19601f8201168201806040525081019061097791906113d6565b60008054604051631d3af8fb60e21b81526001600160a01b03909116906374ebe3ec90610a2d9085906004016115b7565b60206040518083038186803b158015610a4557600080fd5b505afa158015610a59573d6000803e3d6000fd5b505050506040513d601f19601f82011682018060405250810190610a7d91906113d6565b801561097757506040516335fc6c9f60e21b81526001600160a01b0383169063d7f1b27c906109ac9030906004016115b7565b600080836001600160a01b031663a7bdad03846040518263ffffffff1660e01b8152600401610adf91906115b7565b60006040518083038186803b158015610af757600080fd5b505afa158015610b0b573d6000803e3d6000fd5b505050506040513d6000823e601f3d908101601f19168201604052610b33919081019061132b565b51119392505050565b600080821215610b5e5760405162461bcd60e51b815260040161013f906118bc565b5090565b6000610b8c670de0b6b3a7640000610b80858563ffffffff610ddf16565b9063ffffffff610e1916565b9392505050565b8015610cd8576040516370a0823160e01b81526000906001600160a01b038516906370a0823190610bc89088906004016115b7565b60206040518083038186803b158015610be057600080fd5b505afa158015610bf4573d6000803e3d6000fd5b505050506040513d601f19601f82011682018060405250810190610c189190611542565b9050610c2685858585610e5b565b6040516370a0823160e01b81526000906001600160a01b038616906370a0823190610c559089906004016115b7565b60206040518083038186803b158015610c6d57600080fd5b505afa158015610c81573d6000803e3d6000fd5b505050506040513d601f19601f82011682018060405250810190610ca59190611542565b9050610cb7828463ffffffff610f2816565b8114610cd55760405162461bcd60e51b815260040161013f90611932565b50505b50505050565b6001600160a01b038085166000908152600260205260408120549091168015610d6e5760405163a045808360e01b81526001600160a01b0382169063a045808390610d339089908990899089906004016116c6565b600060405180830381600087803b158015610d4d57600080fd5b505af1158015610d61573d6000803e3d6000fd5b5050505080915050610d74565b60009150505b949350505050565b610cd884848484610f6a565b6000821580610d95575081155b15610da257506000610977565b610b8c6001610dd3670de0b6b3a7640000610b8083610dc7898963ffffffff610ddf16565b9063ffffffff610f2816565b9063ffffffff61108e16565b600082610dee57506000610977565b82820282848281610dfb57fe5b0414610b8c5760405162461bcd60e51b815260040161013f906118f1565b6000610b8c83836040518060400160405280601a81526020017f536166654d6174683a206469766973696f6e206279207a65726f0000000000008152506110b3565b8015610cd85760608282604051602401610e769291906115cb565b60408051601f198184030181529181526020820180516001600160e01b031663a9059cbb60e01b179052516347b7819960e11b81529091506001600160a01b03861690638f6f033290610ed29087906000908690600401611608565b600060405180830381600087803b158015610eec57600080fd5b505af1158015610f00573d6000803e3d6000fd5b505050506040513d6000823e601f3d908101601f19168201604052610cd591908101906113f6565b6000610b8c83836040518060400160405280601e81526020017f536166654d6174683a207375627472616374696f6e206f766572666c6f7700008152506110ea565b8015610cd8576040516370a0823160e01b81526000906001600160a01b038616906370a0823190610f9f9086906004016115b7565b60206040518083038186803b158015610fb757600080fd5b505afa158015610fcb573d6000803e3d6000fd5b505050506040513d601f19601f82011682018060405250810190610fef9190611542565b9050610ffd85858585611116565b6040516370a0823160e01b81526000906001600160a01b038716906370a082319061102c9087906004016115b7565b60206040518083038186803b15801561104457600080fd5b505afa158015611058573d6000803e3d6000fd5b505050506040513d601f19601f8201168201806040525081019061107c9190611542565b9050610cb7828463ffffffff61108e16565b600082820183811015610b8c5760405162461bcd60e51b815260040161013f90611783565b600081836110d45760405162461bcd60e51b815260040161013f91906116f1565b5060008385816110e057fe5b0495945050505050565b6000818484111561110e5760405162461bcd60e51b815260040161013f91906116f1565b505050900390565b610cd8846323b872dd60e01b858585604051602401611137939291906115e4565b60408051601f198184030181529190526020810180516001600160e01b03166001600160e01b03199093169290921790915260606111be826040518060400160405280602081526020017f5361666545524332303a206c6f772d6c6576656c2063616c6c206661696c6564815250856001600160a01b03166111fd9092919063ffffffff16565b8051909150156111f857808060200190518101906111dc91906113d6565b6111f85760405162461bcd60e51b815260040161013f90611a1a565b505050565b6060610d7484846000856060611212856112cb565b61122e5760405162461bcd60e51b815260040161013f90611969565b60006060866001600160a01b0316858760405161124b919061159b565b60006040518083038185875af1925050503d8060008114611288576040519150601f19603f3d011682016040523d82523d6000602084013e61128d565b606091505b509150915081156112a1579150610d749050565b8051156112b15780518082602001fd5b8360405162461bcd60e51b815260040161013f91906116f1565b6000813f7fc5d2460186f7233c927e7db2dcc703c0e500b653ca82273b7bfad8045d85a470818114801590610d74575050151592915050565b805161097781611af7565b600060208284031215611320578081fd5b8151610b8c81611af7565b6000602080838503121561133d578182fd5b825167ffffffffffffffff80821115611354578384fd5b81850186601f820112611365578485fd5b8051925081831115611375578485fd5b8383029150611385848301611aa4565b8381528481019082860184840187018a101561139f578788fd5b8794505b858510156113c9576113b58a82611304565b8352600194909401939186019186016113a3565b5098975050505050505050565b6000602082840312156113e7578081fd5b81518015158114610b8c578182fd5b600060208284031215611407578081fd5b815167ffffffffffffffff8082111561141e578283fd5b81840185601f82011261142f578384fd5b805192508183111561143f578384fd5b611452601f8401601f1916602001611aa4565b9150828252856020848301011115611468578384fd5b611479836020840160208401611acb565b50949350505050565b600060208284031215611493578081fd5b8135610b8c81611af7565b600080604083850312156114b0578081fd5b82356114bb81611af7565b915060208301356114cb81611af7565b809150509250929050565b600080604083850312156114e8578182fd5b82356114f381611af7565b946020939093013593505050565b600080600060608486031215611515578081fd5b833561152081611af7565b925060208401359150604084013561153781611af7565b809150509250925092565b600060208284031215611553578081fd5b5051919050565b815260200190565b6001600160a01b03169052565b60008151808452611587816020860160208601611acb565b601f01601f19169290920160200192915050565b600082516115ad818460208701611acb565b9190910192915050565b6001600160a01b0391909116815260200190565b6001600160a01b03929092168252602082015260400190565b6001600160a01b039384168152919092166020820152604081019190915260600190565b600060018060a01b03851682528360208301526060604083015261162f606083018461156f565b95945050505050565b604080825283519082018190526000906020906060840190828701845b8281101561167857611668848351611562565b9284019290840190600101611655565b5050508381038285015280855161168f8184611a9b565b91508387019250845b818110156116b9576116ab83855161155a565b938501939250600101611698565b5090979650505050505050565b6001600160a01b03948516815260208101939093529083166040830152909116606082015260800190565b600060208252610b8c602083018461156f565b60208082526028908201527f4d75737420626520612076616c696420616e6420696e697469616c697a65642060408201526729b2ba2a37b5b2b760c11b606082015260800190565b6020808252601b908201527f52656465656d207175616e74697479206d757374206265203e20300000000000604082015260600190565b6020808252601b908201527f536166654d6174683a206164646974696f6e206f766572666c6f770000000000604082015260600190565b60208082526030908201527f54686520426173696349737375616e63654d6f64756c65206d6f64756c65206360408201526f185b9b9bdd081899481c995b5bdd995960821b606082015260800190565b60208082526024908201527f4f6e6c792064656661756c7420706f736974696f6e732061726520737570706f6040820152631c9d195960e21b606082015260800190565b6020808252601e908201527f4d7573742062652070656e64696e6720696e697469616c697a6174696f6e0000604082015260600190565b6020808252601a908201527f4973737565207175616e74697479206d757374206265203e2030000000000000604082015260600190565b6020808252818101527f53616665436173743a2076616c7565206d75737420626520706f736974697665604082015260600190565b60208082526021908201527f536166654d6174683a206d756c7469706c69636174696f6e206f766572666c6f6040820152607760f81b606082015260800190565b6020808252601d908201527f496e76616c696420706f7374207472616e736665722062616c616e6365000000604082015260600190565b6020808252601d908201527f416464726573733a2063616c6c20746f206e6f6e2d636f6e7472616374000000604082015260600190565b60208082526023908201527f4d75737420626520636f6e74726f6c6c65722d656e61626c656420536574546f60408201526235b2b760e91b606082015260800190565b6020808252601c908201527f4d7573742062652074686520536574546f6b656e206d616e6167657200000000604082015260600190565b6020808252602a908201527f5361666545524332303a204552433230206f7065726174696f6e20646964206e6040820152691bdd081cdd58d8d9595960b21b606082015260800190565b6020808252601f908201527f5265656e7472616e637947756172643a207265656e7472616e742063616c6c00604082015260600190565b90815260200190565b60405181810167ffffffffffffffff81118282101715611ac357600080fd5b604052919050565b60005b83811015611ae6578181015183820152602001611ace565b83811115610cd85750506000910152565b6001600160a01b0381168114611b0c57600080fd5b5056fea26469706673582212201072340a33326310601e304e7864c3df7e84b2e9694f73afbc9f72a479dde5c764736f6c634300060a0033",
  "linkReferences": {},
  "deployedLinkReferences": {}
}