{
  "_format": "hh-sol-artifact-1",
  "contractName": "ClaimModule",
  "sourceName": "contracts/protocol/modules/ClaimModule.sol",
  "abi": [
    {
      "inputs": [
        {
          "internalType": "contract IController",
          "name": "_controller",
          "type": "address"
        }
      ],
      "stateMutability": "nonpayable",
      "type": "constructor"
    },
    {
      "anonymous": false,
      "inputs": [
        {
          "indexed": true,
          "internalType": "contract ISetToken",
          "name": "_setToken",
          "type": "address"
        },
        {
          "indexed": true,
          "internalType": "address",
          "name": "_rewardPool",
          "type": "address"
        },
        {
          "indexed": false,
          "internalType": "contract IClaimAdapter",
          "name": "_adapter",
          "type": "address"
        },
        {
          "indexed": false,
          "internalType": "uint256",
          "name": "_amount",
          "type": "uint256"
        }
      ],
      "name": "RewardClaimed",
      "type": "event"
    },
    {
      "inputs": [
        {
          "internalType": "contract ISetToken",
          "name": "_setToken",
          "type": "address"
        },
        {
          "internalType": "address",
          "name": "_rewardPool",
          "type": "address"
        },
        {
          "internalType": "string",
          "name": "_integrationName",
          "type": "string"
        }
      ],
      "name": "addClaim",
      "outputs": [],
      "stateMutability": "nonpayable",
      "type": "function",
      "gas": "0xaeb690"
    },
    {
      "inputs": [
        {
          "internalType": "contract ISetToken",
          "name": "",
          "type": "address"
        }
      ],
      "name": "anyoneClaim",
      "outputs": [
        {
          "internalType": "bool",
          "name": "",
          "type": "bool"
        }
      ],
      "stateMutability": "view",
      "type": "function",
      "gas": "0xaeb690"
    },
    {
      "inputs": [
        {
          "internalType": "contract ISetToken",
          "name": "_setToken",
          "type": "address"
        },
        {
          "internalType": "address[]",
          "name": "_rewardPools",
          "type": "address[]"
        },
        {
          "internalType": "string[]",
          "name": "_integrationNames",
          "type": "string[]"
        }
      ],
      "name": "batchAddClaim",
      "outputs": [],
      "stateMutability": "nonpayable",
      "type": "function",
      "gas": "0xaeb690"
    },
    {
      "inputs": [
        {
          "internalType": "contract ISetToken",
          "name": "_setToken",
          "type": "address"
        },
        {
          "internalType": "address[]",
          "name": "_rewardPools",
          "type": "address[]"
        },
        {
          "internalType": "string[]",
          "name": "_integrationNames",
          "type": "string[]"
        }
      ],
      "name": "batchClaim",
      "outputs": [],
      "stateMutability": "nonpayable",
      "type": "function",
      "gas": "0xaeb690"
    },
    {
      "inputs": [
        {
          "internalType": "contract ISetToken",
          "name": "_setToken",
          "type": "address"
        },
        {
          "internalType": "address[]",
          "name": "_rewardPools",
          "type": "address[]"
        },
        {
          "internalType": "string[]",
          "name": "_integrationNames",
          "type": "string[]"
        }
      ],
      "name": "batchRemoveClaim",
      "outputs": [],
      "stateMutability": "nonpayable",
      "type": "function",
      "gas": "0xaeb690"
    },
    {
      "inputs": [
        {
          "internalType": "contract ISetToken",
          "name": "_setToken",
          "type": "address"
        },
        {
          "internalType": "address",
          "name": "_rewardPool",
          "type": "address"
        },
        {
          "internalType": "string",
          "name": "_integrationName",
          "type": "string"
        }
      ],
      "name": "claim",
      "outputs": [],
      "stateMutability": "nonpayable",
      "type": "function",
      "gas": "0xaeb690"
    },
    {
      "inputs": [
        {
          "internalType": "contract ISetToken",
          "name": "",
          "type": "address"
        },
        {
          "internalType": "address",
          "name": "",
          "type": "address"
        },
        {
          "internalType": "uint256",
          "name": "",
          "type": "uint256"
        }
      ],
      "name": "claimSettings",
      "outputs": [
        {
          "internalType": "address",
          "name": "",
          "type": "address"
        }
      ],
      "stateMutability": "view",
      "type": "function",
      "gas": "0xaeb690"
    },
    {
      "inputs": [],
      "name": "controller",
      "outputs": [
        {
          "internalType": "contract IController",
          "name": "",
          "type": "address"
        }
      ],
      "stateMutability": "view",
      "type": "function",
      "gas": "0xaeb690"
    },
    {
      "inputs": [
        {
          "internalType": "contract ISetToken",
          "name": "_setToken",
          "type": "address"
        },
        {
          "internalType": "address",
          "name": "_rewardPool",
          "type": "address"
        }
      ],
      "name": "getRewardPoolClaims",
      "outputs": [
        {
          "internalType": "address[]",
          "name": "",
          "type": "address[]"
        }
      ],
      "stateMutability": "view",
      "type": "function",
      "gas": "0xaeb690"
    },
    {
      "inputs": [
        {
          "internalType": "contract ISetToken",
          "name": "_setToken",
          "type": "address"
        }
      ],
      "name": "getRewardPools",
      "outputs": [
        {
          "internalType": "address[]",
          "name": "",
          "type": "address[]"
        }
      ],
      "stateMutability": "view",
      "type": "function",
      "gas": "0xaeb690"
    },
    {
      "inputs": [
        {
          "internalType": "contract ISetToken",
          "name": "_setToken",
          "type": "address"
        },
        {
          "internalType": "address",
          "name": "_rewardPool",
          "type": "address"
        },
        {
          "internalType": "string",
          "name": "_integrationName",
          "type": "string"
        }
      ],
      "name": "getRewards",
      "outputs": [
        {
          "internalType": "uint256",
          "name": "",
          "type": "uint256"
        }
      ],
      "stateMutability": "view",
      "type": "function",
      "gas": "0xaeb690"
    },
    {
      "inputs": [
        {
          "internalType": "contract ISetToken",
          "name": "_setToken",
          "type": "address"
        },
        {
          "internalType": "bool",
          "name": "_anyoneClaim",
          "type": "bool"
        },
        {
          "internalType": "address[]",
          "name": "_rewardPools",
          "type": "address[]"
        },
        {
          "internalType": "string[]",
          "name": "_integrationNames",
          "type": "string[]"
        }
      ],
      "name": "initialize",
      "outputs": [],
      "stateMutability": "nonpayable",
      "type": "function",
      "gas": "0xaeb690"
    },
    {
      "inputs": [
        {
          "internalType": "contract ISetToken",
          "name": "_setToken",
          "type": "address"
        },
        {
          "internalType": "address",
          "name": "_rewardPool",
          "type": "address"
        }
      ],
      "name": "isRewardPool",
      "outputs": [
        {
          "internalType": "bool",
          "name": "",
          "type": "bool"
        }
      ],
      "stateMutability": "view",
      "type": "function",
      "gas": "0xaeb690"
    },
    {
      "inputs": [
        {
          "internalType": "contract ISetToken",
          "name": "_setToken",
          "type": "address"
        },
        {
          "internalType": "address",
          "name": "_rewardPool",
          "type": "address"
        },
        {
          "internalType": "string",
          "name": "_integrationName",
          "type": "string"
        }
      ],
      "name": "isRewardPoolClaim",
      "outputs": [
        {
          "internalType": "bool",
          "name": "",
          "type": "bool"
        }
      ],
      "stateMutability": "view",
      "type": "function",
      "gas": "0xaeb690"
    },
    {
      "inputs": [
        {
          "internalType": "contract ISetToken",
          "name": "_setToken",
          "type": "address"
        },
        {
          "internalType": "address",
          "name": "_rewardPool",
          "type": "address"
        },
        {
          "internalType": "string",
          "name": "_integrationName",
          "type": "string"
        }
      ],
      "name": "removeClaim",
      "outputs": [],
      "stateMutability": "nonpayable",
      "type": "function",
      "gas": "0xaeb690"
    },
    {
      "inputs": [],
      "name": "removeModule",
      "outputs": [],
      "stateMutability": "nonpayable",
      "type": "function",
      "gas": "0xaeb690"
    },
    {
      "inputs": [
        {
          "internalType": "contract ISetToken",
          "name": "",
          "type": "address"
        },
        {
          "internalType": "uint256",
          "name": "",
          "type": "uint256"
        }
      ],
      "name": "rewardPoolList",
      "outputs": [
        {
          "internalType": "address",
          "name": "",
          "type": "address"
        }
      ],
      "stateMutability": "view",
      "type": "function",
      "gas": "0xaeb690"
    },
    {
      "inputs": [
        {
          "internalType": "contract ISetToken",
          "name": "_setToken",
          "type": "address"
        }
      ],
      "name": "updateAnyoneClaim",
      "outputs": [],
      "stateMutability": "nonpayable",
      "type": "function",
      "gas": "0xaeb690"
    }
  ],
  "bytecode": "0x608060405234801561001057600080fd5b50604051620022cb380380620022cb83398101604081905261003191610056565b600080546001600160a01b0319166001600160a01b0392909216919091179055610084565b600060208284031215610067578081fd5b81516001600160a01b038116811461007d578182fd5b9392505050565b61223780620000946000396000f3fe608060405234801561001057600080fd5b50600436106101165760003560e01c8063a98627cb116100a2578063d051796f11610071578063d051796f14610246578063d72bca4714610259578063ecf274da1461026c578063f4c872f81461027f578063f77c47911461029257610116565b8063a98627cb146101fa578063af91baf51461020d578063bca39c2014610220578063bf614b131461023357610116565b806367462d91116100e957806367462d9114610199578063847ef08d146101ac5780638e0f3418146101b4578063a4a56926146101d4578063a8045a8e146101e757610116565b80634100e3cb1461011b57806352a4037b146101445780635d9026b214610164578063620814e914610179575b600080fd5b61012e610129366004611b5d565b61029a565b60405161013b9190611e5e565b60405180910390f35b610157610152366004611a46565b610375565b60405161013b9190611e11565b610177610172366004611b5d565b6103eb565b005b61018c610187366004611d3e565b610408565b60405161013b9190611d81565b6101776101a7366004611c2c565b61043d565b610177610520565b6101c76101c2366004611b5d565b61061d565b60405161013b919061215e565b6101776101e2366004611c2c565b610732565b6101576101f5366004611b25565b6107e5565b61018c610208366004611bec565b610869565b61017761021b366004611b5d565b6108ab565b61017761022e366004611c2c565b6108c1565b61012e610241366004611b25565b6108e0565b61012e610254366004611a46565b610966565b610177610267366004611a46565b61097b565b61017761027a366004611cac565b6109af565b61017761028d366004611b5d565b610a4c565b61018c610a88565b6000806102dc84848080601f016020809104026020016040519081016040528093929190818152602001838380828437600092019190915250610a9792505050565b6001600160a01b038088166000908152600360209081526040808320938a16835292815290829020805483518184028101840190945280845293945061036b9385939283018282801561035857602002820191906000526020600020905b81546001600160a01b0316815260019091019060200180831161033a575b5050505050610aae90919063ffffffff16565b9695505050505050565b6001600160a01b0381166000908152600260209081526040918290208054835181840281018401909452808452606093928301828280156103df57602002820191906000526020600020905b81546001600160a01b031681526001909101906020018083116103c1575b50505050509050919050565b836103f581610ac4565b61040185858585610b0f565b5050505050565b6002602052816000526040600020818154811061042157fe5b6000918252602090912001546001600160a01b03169150829050565b8461044781610aea565b8561045181610d62565b6104765760405162461bcd60e51b815260040161046d90611ecf565b60405180910390fd5b60006104b8878780806020026020016040519081016040528093929190818152602001838360200280828437600092019190915250899250889150610d8e9050565b905060005b818110156105155761050d898989848181106104d557fe5b90506020020160208101906104ea9190611a46565b8888858181106104f657fe5b90506020028101906105089190612167565b610dda565b6001016104bd565b505050505050505050565b336000908152600160209081526040808320805460ff19169055600282529182902080548351818402810184019094528084526060939283018282801561059057602002820191906000526020600020905b81546001600160a01b03168152600190910190602001808311610572575b50939450600093505050505b81518110156106015733600090815260036020526040812083519091908490849081106105c557fe5b60200260200101516001600160a01b03166001600160a01b0316815260200190815260200160002060006105f991906118c4565b60010161059c565b5033600090815260026020526040812061061a916118c4565b50565b6001600160a01b03808516600090815260036020908152604080832093871683529281528282208054845181840281018401909552808552929384936106a59391929183018282801561069957602002820191906000526020600020905b81546001600160a01b0316815260019091019060200180831161067b575b50505050508585611075565b90506000816001600160a01b031663779bcb9b88886040518363ffffffff1660e01b81526004016106d7929190611d95565b60206040518083038186803b1580156106ef57600080fd5b505afa158015610703573d6000803e3d6000fd5b505050506040513d601f19601f820116820180604052508101906107279190611d69565b979650505050505050565b8461073c81610ac4565b600061077e868680806020026020016040519081016040528093929190818152602001838360200280828437600092019190915250889250879150610d8e9050565b905060005b818110156107db576107d38888888481811061079b57fe5b90506020020160208101906107b09190611a46565b8787858181106107bc57fe5b90506020028101906107ce9190612167565b610b0f565b600101610783565b5050505050505050565b6001600160a01b03808316600090815260036020908152604080832093851683529281529082902080548351818402810184019094528084526060939283018282801561085b57602002820191906000526020600020905b81546001600160a01b0316815260019091019060200180831161083d575b505050505090505b92915050565b6003602052826000526040600020602052816000526040600020818154811061088e57fe5b6000918252602090912001546001600160a01b0316925083915050565b836108b581610ac4565b610401858585856110e5565b846108cb81610ac4565b6108d8868686868661124c565b505050505050565b6001600160a01b0382166000908152600260209081526040808320805482518185028101850190935280835261095f938693929190830182828015610358576020028201919060005260206000209081546001600160a01b0316815260019091019060200180831161033a575050505050610aae90919063ffffffff16565b9392505050565b60016020526000908152604090205460ff1681565b8061098581610ac4565b506001600160a01b03166000908152600160205260409020805460ff19811660ff90911615179055565b85336109bb82826112f4565b876109c58161131e565b6109d2898888888861124c565b6001600160a01b038916600081815260016020526040808220805460ff19168c151517905580516307ff078f60e11b81529051630ffe0f1e9260048084019391929182900301818387803b158015610a2957600080fd5b505af1158015610a3d573d6000803e3d6000fd5b50505050505050505050505050565b83610a5681610aea565b84610a6081610d62565b610a7c5760405162461bcd60e51b815260040161046d90611ecf565b6108d886868686610dda565b6000546001600160a01b031681565b600080610aa3836113df565b905061095f816113ea565b600080610abb84846114a7565b95945050505050565b610ace813361150d565b610aea5760405162461bcd60e51b815260040161046d906120b9565b610af38161159b565b61061a5760405162461bcd60e51b815260040161046d90611f2c565b6000610b5083838080601f016020809104026020016040519081016040528093929190818152602001838380828437600092019190915250610a9792505050565b6001600160a01b03808716600090815260036020908152604080832093891683529281529082902080548351818402810184019094528084529394506060939091830182828015610bca57602002820191906000526020600020905b81546001600160a01b03168152600190910190602001808311610bac575b50505050509050610be48282610aae90919063ffffffff16565b610c005760405162461bcd60e51b815260040161046d9061203f565b610c10818363ffffffff61169f16565b6001600160a01b038088166000908152600360209081526040808320938a1683529281529190208251610c4993919291909101906118e2565b506001600160a01b038087166000908152600360209081526040808320938916835292905220546108d857610d048560026000896001600160a01b03166001600160a01b03168152602001908152602001600020805480602002602001604051908101604052809291908181526020018280548015610cf157602002820191906000526020600020905b81546001600160a01b03168152600190910190602001808311610cd3575b505050505061169f90919063ffffffff16565b6001600160a01b03871660009081526002602090815260409091208251610d3193919291909101906118e2565b506001600160a01b03808716600090815260036020908152604080832093891683529290529081206108d8916118c4565b6001600160a01b03811660009081526001602052604081205460ff16806108635750610863823361150d565b8251600090828114610db25760405162461bcd60e51b815260040161046d90611efd565b60008111610dd25760405162461bcd60e51b815260040161046d90612127565b949350505050565b610de484846108e0565b610e005760405162461bcd60e51b815260040161046d9061200f565b6001600160a01b038085166000908152600360209081526040808320938716835292815282822080548451818402810184019095528085529293610e85939092830182828015610e7957602002820191906000526020600020905b81546001600160a01b03168152600190910190602001808311610e5b575b50505050508484611075565b90506000816001600160a01b031663779bcb9b87876040518363ffffffff1660e01b8152600401610eb7929190611d95565b60206040518083038186803b158015610ecf57600080fd5b505afa158015610ee3573d6000803e3d6000fd5b505050506040513d601f19601f82011682018060405250810190610f079190611d69565b90506000806060846001600160a01b0316630f1ff4ba8a8a6040518363ffffffff1660e01b8152600401610f3c929190611d95565b60006040518083038186803b158015610f5457600080fd5b505afa158015610f68573d6000803e3d6000fd5b505050506040513d6000823e601f3d908101601f19168201604052610f909190810190611a7e565b925092509250886001600160a01b0316638f6f03328484846040518463ffffffff1660e01b8152600401610fc693929190611dc8565b600060405180830381600087803b158015610fe057600080fd5b505af1158015610ff4573d6000803e3d6000fd5b505050506040513d6000823e601f3d908101601f1916820160405261101c9190810190611af2565b50876001600160a01b0316896001600160a01b03167f2422cac5e23c46c890fdcf42d0c64757409df6832174df639337558f09d99c688787604051611062929190611daf565b60405180910390a3505050505050505050565b6000806110b784848080601f016020809104026020016040519081016040528093929190818152602001838380828437600092019190915250610a9792505050565b90506110c9858263ffffffff610aae16565b610dd25760405162461bcd60e51b815260040161046d906120f0565b600061112683838080601f016020809104026020016040519081016040528093929190818152602001838380828437600092019190915250610a9792505050565b6001600160a01b0380871660009081526003602090815260408083209389168352928152908290208054835181840281018401909452808452939450926111b792859290918591830182828015610358576020028201919060005260206000209081546001600160a01b0316815260019091019060200180831161033a575050505050610aae90919063ffffffff16565b156111d45760405162461bcd60e51b815260040161046d90611fda565b80546001808201835560008381526020902090910180546001600160a01b0319166001600160a01b038516179055815414156108d857505050506001600160a01b0391821660009081526002602090815260408220805460018101825590835291200180546001600160a01b03191691909216179055565b600061128e858580806020026020016040519081016040528093929190818152602001838360200280828437600092019190915250879250869150610d8e9050565b905060005b818110156112eb576112e3878787848181106112ab57fe5b90506020020160208101906112c09190611a46565b8686858181106112cc57fe5b90506020028101906112de9190612167565b6110e5565b600101611293565b50505050505050565b6112fe828261150d565b61131a5760405162461bcd60e51b815260040161046d906120b9565b5050565b600054604051631d3af8fb60e21b81526001600160a01b03909116906374ebe3ec9061134e908490600401611d81565b60206040518083038186803b15801561136657600080fd5b505afa15801561137a573d6000803e3d6000fd5b505050506040513d601f19601f8201168201806040525081019061139e9190611ad6565b6113ba5760405162461bcd60e51b815260040161046d90612076565b6113c3816116e7565b61061a5760405162461bcd60e51b815260040161046d90611f74565b805160209091012090565b600080548190611402906001600160a01b0316611716565b6001600160a01b031663e6d642c530856040518363ffffffff1660e01b815260040161142f929190611daf565b60206040518083038186803b15801561144757600080fd5b505afa15801561145b573d6000803e3d6000fd5b505050506040513d601f19601f8201168201806040525081019061147f9190611a62565b90506001600160a01b0381166108635760405162461bcd60e51b815260040161046d90611fab565b81516000908190815b818110156114fa57846001600160a01b03168682815181106114ce57fe5b60200260200101516001600160a01b031614156114f2579250600191506115069050565b6001016114b0565b50600019600092509250505b9250929050565b6000816001600160a01b0316836001600160a01b031663481c6a756040518163ffffffff1660e01b815260040160206040518083038186803b15801561155257600080fd5b505afa158015611566573d6000803e3d6000fd5b505050506040513d601f19601f8201168201806040525081019061158a9190611a62565b6001600160a01b0316149392505050565b60008054604051631d3af8fb60e21b81526001600160a01b03909116906374ebe3ec906115cc908590600401611d81565b60206040518083038186803b1580156115e457600080fd5b505afa1580156115f8573d6000803e3d6000fd5b505050506040513d601f19601f8201168201806040525081019061161c9190611ad6565b801561086357506040516335fc6c9f60e21b81526001600160a01b0383169063d7f1b27c9061164f903090600401611d81565b60206040518083038186803b15801561166757600080fd5b505afa15801561167b573d6000803e3d6000fd5b505050506040513d601f19601f820116820180604052508101906108639190611ad6565b60606000806116ae85856114a7565b91509150806116cf5760405162461bcd60e51b815260040161046d90611e69565b60606116db8684611795565b50935061086392505050565b6040516353bae5f760e01b81526000906001600160a01b038316906353bae5f79061164f903090600401611d81565b6040516373b2e76b60e11b81526000906001600160a01b0383169063e765ced69061174590849060040161215e565b60206040518083038186803b15801561175d57600080fd5b505afa158015611771573d6000803e3d6000fd5b505050506040513d601f19601f820116820180604052508101906108639190611a62565b81516060906000908084106117bc5760405162461bcd60e51b815260040161046d90611e98565b60606001820367ffffffffffffffff811180156117d857600080fd5b50604051908082528060200260200182016040528015611802578160200160208202803683370190505b50905060005b858110156118505786818151811061181c57fe5b602002602001015182828151811061183057fe5b6001600160a01b0390921660209283029190910190910152600101611808565b50600185015b828110156118a15786818151811061186a57fe5b602002602001015182600183038151811061188157fe5b6001600160a01b0390921660209283029190910190910152600101611856565b50808686815181106118af57fe5b60200260200101519350935050509250929050565b508054600082559060005260206000209081019061061a9190611947565b828054828255906000526020600020908101928215611937579160200282015b8281111561193757825182546001600160a01b0319166001600160a01b03909116178255602090920191600190910190611902565b50611943929150611964565b5090565b61196191905b80821115611943576000815560010161194d565b90565b61196191905b808211156119435780546001600160a01b031916815560010161196a565b60008083601f840112611999578182fd5b50813567ffffffffffffffff8111156119b0578182fd5b602083019150836020808302850101111561150657600080fd5b600082601f8301126119da578081fd5b815167ffffffffffffffff808211156119f1578283fd5b604051601f8301601f191681016020018281118282101715611a11578485fd5b604052828152925082848301602001861015611a2c57600080fd5b611a3d8360208301602088016121ae565b50505092915050565b600060208284031215611a57578081fd5b813561095f816121de565b600060208284031215611a73578081fd5b815161095f816121de565b600080600060608486031215611a92578182fd5b8351611a9d816121de565b60208501516040860151919450925067ffffffffffffffff811115611ac0578182fd5b611acc868287016119ca565b9150509250925092565b600060208284031215611ae7578081fd5b815161095f816121f3565b600060208284031215611b03578081fd5b815167ffffffffffffffff811115611b19578182fd5b610dd2848285016119ca565b60008060408385031215611b37578182fd5b8235611b42816121de565b91506020830135611b52816121de565b809150509250929050565b60008060008060608587031215611b72578081fd5b8435611b7d816121de565b93506020850135611b8d816121de565b9250604085013567ffffffffffffffff80821115611ba9578283fd5b81870188601f820112611bba578384fd5b8035925081831115611bca578384fd5b886020848301011115611bdb578384fd5b959894975050602090940194505050565b600080600060608486031215611c00578283fd5b8335611c0b816121de565b92506020840135611c1b816121de565b929592945050506040919091013590565b600080600080600060608688031215611c43578081fd5b8535611c4e816121de565b9450602086013567ffffffffffffffff80821115611c6a578283fd5b611c7689838a01611988565b90965094506040880135915080821115611c8e578283fd5b50611c9b88828901611988565b969995985093965092949392505050565b60008060008060008060808789031215611cc4578081fd5b8635611ccf816121de565b95506020870135611cdf816121f3565b9450604087013567ffffffffffffffff80821115611cfb578283fd5b611d078a838b01611988565b90965094506060890135915080821115611d1f578283fd5b50611d2c89828a01611988565b979a9699509497509295939492505050565b60008060408385031215611d50578081fd5b8235611d5b816121de565b946020939093013593505050565b600060208284031215611d7a578081fd5b5051919050565b6001600160a01b0391909116815260200190565b6001600160a01b0392831681529116602082015260400190565b6001600160a01b03929092168252602082015260400190565b600060018060a01b0385168252836020830152606060408301528251806060840152611dfb8160808501602087016121ae565b601f01601f191691909101608001949350505050565b6020808252825182820181905260009190848201906040850190845b81811015611e525783516001600160a01b031683529284019291840191600101611e2d565b50909695505050505050565b901515815260200190565b60208082526015908201527420b2323932b9b9903737ba1034b71030b93930bc9760591b604082015260600190565b60208082526018908201527f496e646578206d757374206265203c2041206c656e6774680000000000000000604082015260600190565b60208082526014908201527326bab9ba103132903b30b634b21031b0b63632b960611b604082015260600190565b602080825260159082015274082e4e4c2f240d8cadccee8d040dad2e6dac2e8c6d605b1b604082015260600190565b60208082526028908201527f4d75737420626520612076616c696420616e6420696e697469616c697a65642060408201526729b2ba2a37b5b2b760c11b606082015260800190565b6020808252601e908201527f4d7573742062652070656e64696e6720696e697469616c697a6174696f6e0000604082015260600190565b60208082526015908201527426bab9ba103132903b30b634b21030b230b83a32b960591b604082015260600190565b6020808252818101527f496e746567726174696f6e206e616d6573206d75737420626520756e69717565604082015260600190565b60208082526016908201527514995dd85c99141bdbdb081b9bdd081c1c995cd95b9d60521b604082015260600190565b60208082526019908201527f496e746567726174696f6e206d75737420626520616464656400000000000000604082015260600190565b60208082526023908201527f4d75737420626520636f6e74726f6c6c65722d656e61626c656420536574546f60408201526235b2b760e91b606082015260800190565b6020808252601c908201527f4d7573742062652074686520536574546f6b656e206d616e6167657200000000604082015260600190565b6020808252601f908201527f4164617074657220696e746567726174696f6e206e6f742070726573656e7400604082015260600190565b60208082526018908201527f417272617973206d757374206e6f7420626520656d7074790000000000000000604082015260600190565b90815260200190565b6000808335601e1984360301811261217d578283fd5b8084018035925067ffffffffffffffff831115612198578384fd5b6020019250503681900382131561150657600080fd5b60005b838110156121c95781810151838201526020016121b1565b838111156121d8576000848401525b50505050565b6001600160a01b038116811461061a57600080fd5b801515811461061a57600080fdfea26469706673582212203f34d474405e9c462a6996dbfc42354076e9a1ceb32fee28d5c17b1f7793128b64736f6c634300060a0033",
  "deployedBytecode": "",
  "linkReferences": {},
  "deployedLinkReferences": {}
}