{
  "_format": "hh-sol-artifact-1",
  "contractName": "CompoundLeverageModule",
  "sourceName": "contracts/protocol/modules/CompoundLeverageModule.sol",
  "abi": [
    {
      "inputs": [
        {
          "internalType": "contract IController",
          "name": "_controller",
          "type": "address"
        },
        {
          "internalType": "contract IERC20",
          "name": "_compToken",
          "type": "address"
        },
        {
          "internalType": "contract IComptroller",
          "name": "_comptroller",
          "type": "address"
        },
        {
          "internalType": "contract ICErc20",
          "name": "_cEther",
          "type": "address"
        },
        {
          "internalType": "contract IERC20",
          "name": "_weth",
          "type": "address"
        }
      ],
      "stateMutability": "nonpayable",
      "type": "constructor"
    },
    {
      "anonymous": false,
      "inputs": [
        {
          "indexed": true,
          "internalType": "bool",
          "name": "_anySetAllowed",
          "type": "bool"
        }
      ],
      "name": "AnySetAllowedUpdated",
      "type": "event"
    },
    {
      "anonymous": false,
      "inputs": [
        {
          "indexed": true,
          "internalType": "contract ISetToken",
          "name": "_setToken",
          "type": "address"
        },
        {
          "indexed": true,
          "internalType": "bool",
          "name": "_added",
          "type": "bool"
        },
        {
          "indexed": false,
          "internalType": "contract IERC20[]",
          "name": "_assets",
          "type": "address[]"
        }
      ],
      "name": "BorrowAssetsUpdated",
      "type": "event"
    },
    {
      "anonymous": false,
      "inputs": [
        {
          "indexed": true,
          "internalType": "contract ISetToken",
          "name": "_setToken",
          "type": "address"
        },
        {
          "indexed": true,
          "internalType": "bool",
          "name": "_added",
          "type": "bool"
        },
        {
          "indexed": false,
          "internalType": "contract IERC20[]",
          "name": "_assets",
          "type": "address[]"
        }
      ],
      "name": "CollateralAssetsUpdated",
      "type": "event"
    },
    {
      "anonymous": false,
      "inputs": [
        {
          "indexed": true,
          "internalType": "contract ISetToken",
          "name": "_setToken",
          "type": "address"
        },
        {
          "indexed": true,
          "internalType": "contract IERC20",
          "name": "_collateralAsset",
          "type": "address"
        },
        {
          "indexed": true,
          "internalType": "contract IERC20",
          "name": "_repayAsset",
          "type": "address"
        },
        {
          "indexed": false,
          "internalType": "contract IExchangeAdapter",
          "name": "_exchangeAdapter",
          "type": "address"
        },
        {
          "indexed": false,
          "internalType": "uint256",
          "name": "_totalRedeemAmount",
          "type": "uint256"
        },
        {
          "indexed": false,
          "internalType": "uint256",
          "name": "_totalRepayAmount",
          "type": "uint256"
        },
        {
          "indexed": false,
          "internalType": "uint256",
          "name": "_protocolFee",
          "type": "uint256"
        }
      ],
      "name": "LeverageDecreased",
      "type": "event"
    },
    {
      "anonymous": false,
      "inputs": [
        {
          "indexed": true,
          "internalType": "contract ISetToken",
          "name": "_setToken",
          "type": "address"
        },
        {
          "indexed": true,
          "internalType": "contract IERC20",
          "name": "_borrowAsset",
          "type": "address"
        },
        {
          "indexed": true,
          "internalType": "contract IERC20",
          "name": "_collateralAsset",
          "type": "address"
        },
        {
          "indexed": false,
          "internalType": "contract IExchangeAdapter",
          "name": "_exchangeAdapter",
          "type": "address"
        },
        {
          "indexed": false,
          "internalType": "uint256",
          "name": "_totalBorrowAmount",
          "type": "uint256"
        },
        {
          "indexed": false,
          "internalType": "uint256",
          "name": "_totalReceiveAmount",
          "type": "uint256"
        },
        {
          "indexed": false,
          "internalType": "uint256",
          "name": "_protocolFee",
          "type": "uint256"
        }
      ],
      "name": "LeverageIncreased",
      "type": "event"
    },
    {
      "anonymous": false,
      "inputs": [
        {
          "indexed": true,
          "internalType": "address",
          "name": "previousOwner",
          "type": "address"
        },
        {
          "indexed": true,
          "internalType": "address",
          "name": "newOwner",
          "type": "address"
        }
      ],
      "name": "OwnershipTransferred",
      "type": "event"
    },
    {
      "anonymous": false,
      "inputs": [
        {
          "indexed": true,
          "internalType": "contract ISetToken",
          "name": "_setToken",
          "type": "address"
        },
        {
          "indexed": true,
          "internalType": "bool",
          "name": "_added",
          "type": "bool"
        }
      ],
      "name": "SetTokenStatusUpdated",
      "type": "event"
    },
    {
      "inputs": [
        {
          "internalType": "contract ISetToken",
          "name": "_setToken",
          "type": "address"
        },
        {
          "internalType": "contract IERC20[]",
          "name": "_newBorrowAssets",
          "type": "address[]"
        }
      ],
      "name": "addBorrowAssets",
      "outputs": [],
      "stateMutability": "nonpayable",
      "type": "function"
    },
    {
      "inputs": [
        {
          "internalType": "contract ISetToken",
          "name": "_setToken",
          "type": "address"
        },
        {
          "internalType": "contract IERC20[]",
          "name": "_newCollateralAssets",
          "type": "address[]"
        }
      ],
      "name": "addCollateralAssets",
      "outputs": [],
      "stateMutability": "nonpayable",
      "type": "function"
    },
    {
      "inputs": [
        {
          "internalType": "contract ICErc20",
          "name": "_cToken",
          "type": "address"
        },
        {
          "internalType": "contract IERC20",
          "name": "_underlying",
          "type": "address"
        }
      ],
      "name": "addCompoundMarket",
      "outputs": [],
      "stateMutability": "nonpayable",
      "type": "function"
    },
    {
      "inputs": [
        {
          "internalType": "contract ISetToken",
          "name": "",
          "type": "address"
        }
      ],
      "name": "allowedSetTokens",
      "outputs": [
        {
          "internalType": "bool",
          "name": "",
          "type": "bool"
        }
      ],
      "stateMutability": "view",
      "type": "function"
    },
    {
      "inputs": [],
      "name": "anySetAllowed",
      "outputs": [
        {
          "internalType": "bool",
          "name": "",
          "type": "bool"
        }
      ],
      "stateMutability": "view",
      "type": "function"
    },
    {
      "inputs": [
        {
          "internalType": "contract ISetToken",
          "name": "",
          "type": "address"
        },
        {
          "internalType": "contract ICErc20",
          "name": "",
          "type": "address"
        }
      ],
      "name": "borrowCTokenEnabled",
      "outputs": [
        {
          "internalType": "bool",
          "name": "",
          "type": "bool"
        }
      ],
      "stateMutability": "view",
      "type": "function"
    },
    {
      "inputs": [
        {
          "internalType": "contract ISetToken",
          "name": "",
          "type": "address"
        },
        {
          "internalType": "contract ICErc20",
          "name": "",
          "type": "address"
        }
      ],
      "name": "collateralCTokenEnabled",
      "outputs": [
        {
          "internalType": "bool",
          "name": "",
          "type": "bool"
        }
      ],
      "stateMutability": "view",
      "type": "function"
    },
    {
      "inputs": [
        {
          "internalType": "contract ISetToken",
          "name": "_setToken",
          "type": "address"
        },
        {
          "internalType": "uint256",
          "name": "_setTokenQuantity",
          "type": "uint256"
        },
        {
          "internalType": "contract IERC20",
          "name": "_component",
          "type": "address"
        },
        {
          "internalType": "bool",
          "name": "",
          "type": "bool"
        }
      ],
      "name": "componentIssueHook",
      "outputs": [],
      "stateMutability": "nonpayable",
      "type": "function"
    },
    {
      "inputs": [
        {
          "internalType": "contract ISetToken",
          "name": "_setToken",
          "type": "address"
        },
        {
          "internalType": "uint256",
          "name": "_setTokenQuantity",
          "type": "uint256"
        },
        {
          "internalType": "contract IERC20",
          "name": "_component",
          "type": "address"
        },
        {
          "internalType": "bool",
          "name": "",
          "type": "bool"
        }
      ],
      "name": "componentRedeemHook",
      "outputs": [],
      "stateMutability": "nonpayable",
      "type": "function"
    },
    {
      "inputs": [],
      "name": "controller",
      "outputs": [
        {
          "internalType": "contract IController",
          "name": "",
          "type": "address"
        }
      ],
      "stateMutability": "view",
      "type": "function"
    },
    {
      "inputs": [
        {
          "internalType": "contract ISetToken",
          "name": "_setToken",
          "type": "address"
        },
        {
          "internalType": "contract IERC20",
          "name": "_collateralAsset",
          "type": "address"
        },
        {
          "internalType": "contract IERC20",
          "name": "_repayAsset",
          "type": "address"
        },
        {
          "internalType": "uint256",
          "name": "_redeemQuantity",
          "type": "uint256"
        },
        {
          "internalType": "uint256",
          "name": "_minRepayQuantity",
          "type": "uint256"
        },
        {
          "internalType": "string",
          "name": "_tradeAdapterName",
          "type": "string"
        },
        {
          "internalType": "bytes",
          "name": "_tradeData",
          "type": "bytes"
        }
      ],
      "name": "delever",
      "outputs": [],
      "stateMutability": "nonpayable",
      "type": "function"
    },
    {
      "inputs": [
        {
          "internalType": "contract ISetToken",
          "name": "_setToken",
          "type": "address"
        },
        {
          "internalType": "contract IERC20",
          "name": "_collateralAsset",
          "type": "address"
        },
        {
          "internalType": "contract IERC20",
          "name": "_repayAsset",
          "type": "address"
        },
        {
          "internalType": "uint256",
          "name": "_redeemQuantity",
          "type": "uint256"
        },
        {
          "internalType": "string",
          "name": "_tradeAdapterName",
          "type": "string"
        },
        {
          "internalType": "bytes",
          "name": "_tradeData",
          "type": "bytes"
        }
      ],
      "name": "deleverToZeroBorrowBalance",
      "outputs": [],
      "stateMutability": "nonpayable",
      "type": "function"
    },
    {
      "inputs": [
        {
          "internalType": "contract ISetToken",
          "name": "_setToken",
          "type": "address"
        }
      ],
      "name": "getEnabledAssets",
      "outputs": [
        {
          "internalType": "address[]",
          "name": "",
          "type": "address[]"
        },
        {
          "internalType": "address[]",
          "name": "",
          "type": "address[]"
        }
      ],
      "stateMutability": "view",
      "type": "function"
    },
    {
      "inputs": [
        {
          "internalType": "contract ISetToken",
          "name": "_setToken",
          "type": "address"
        },
        {
          "internalType": "contract IERC20[]",
          "name": "_collateralAssets",
          "type": "address[]"
        },
        {
          "internalType": "contract IERC20[]",
          "name": "_borrowAssets",
          "type": "address[]"
        }
      ],
      "name": "initialize",
      "outputs": [],
      "stateMutability": "nonpayable",
      "type": "function"
    },
    {
      "inputs": [
        {
          "internalType": "contract ISetToken",
          "name": "_setToken",
          "type": "address"
        },
        {
          "internalType": "contract IERC20",
          "name": "_borrowAsset",
          "type": "address"
        },
        {
          "internalType": "contract IERC20",
          "name": "_collateralAsset",
          "type": "address"
        },
        {
          "internalType": "uint256",
          "name": "_borrowQuantity",
          "type": "uint256"
        },
        {
          "internalType": "uint256",
          "name": "_minReceiveQuantity",
          "type": "uint256"
        },
        {
          "internalType": "string",
          "name": "_tradeAdapterName",
          "type": "string"
        },
        {
          "internalType": "bytes",
          "name": "_tradeData",
          "type": "bytes"
        }
      ],
      "name": "lever",
      "outputs": [],
      "stateMutability": "nonpayable",
      "type": "function"
    },
    {
      "inputs": [
        {
          "internalType": "contract ISetToken",
          "name": "_setToken",
          "type": "address"
        },
        {
          "internalType": "uint256",
          "name": "",
          "type": "uint256"
        }
      ],
      "name": "moduleIssueHook",
      "outputs": [],
      "stateMutability": "nonpayable",
      "type": "function"
    },
    {
      "inputs": [
        {
          "internalType": "contract ISetToken",
          "name": "_setToken",
          "type": "address"
        },
        {
          "internalType": "uint256",
          "name": "",
          "type": "uint256"
        }
      ],
      "name": "moduleRedeemHook",
      "outputs": [],
      "stateMutability": "nonpayable",
      "type": "function"
    },
    {
      "inputs": [],
      "name": "owner",
      "outputs": [
        {
          "internalType": "address",
          "name": "",
          "type": "address"
        }
      ],
      "stateMutability": "view",
      "type": "function"
    },
    {
      "inputs": [
        {
          "internalType": "contract ISetToken",
          "name": "_setToken",
          "type": "address"
        },
        {
          "internalType": "contract IDebtIssuanceModule",
          "name": "_debtIssuanceModule",
          "type": "address"
        }
      ],
      "name": "registerToModule",
      "outputs": [],
      "stateMutability": "nonpayable",
      "type": "function"
    },
    {
      "inputs": [
        {
          "internalType": "contract ISetToken",
          "name": "_setToken",
          "type": "address"
        },
        {
          "internalType": "contract IERC20[]",
          "name": "_borrowAssets",
          "type": "address[]"
        }
      ],
      "name": "removeBorrowAssets",
      "outputs": [],
      "stateMutability": "nonpayable",
      "type": "function"
    },
    {
      "inputs": [
        {
          "internalType": "contract ISetToken",
          "name": "_setToken",
          "type": "address"
        },
        {
          "internalType": "contract IERC20[]",
          "name": "_collateralAssets",
          "type": "address[]"
        }
      ],
      "name": "removeCollateralAssets",
      "outputs": [],
      "stateMutability": "nonpayable",
      "type": "function"
    },
    {
      "inputs": [
        {
          "internalType": "contract IERC20",
          "name": "_underlying",
          "type": "address"
        }
      ],
      "name": "removeCompoundMarket",
      "outputs": [],
      "stateMutability": "nonpayable",
      "type": "function"
    },
    {
      "inputs": [],
      "name": "removeModule",
      "outputs": [],
      "stateMutability": "nonpayable",
      "type": "function"
    },
    {
      "inputs": [],
      "name": "renounceOwnership",
      "outputs": [],
      "stateMutability": "nonpayable",
      "type": "function"
    },
    {
      "inputs": [
        {
          "internalType": "contract ISetToken",
          "name": "_setToken",
          "type": "address"
        },
        {
          "internalType": "bool",
          "name": "_shouldAccrueInterest",
          "type": "bool"
        }
      ],
      "name": "sync",
      "outputs": [],
      "stateMutability": "nonpayable",
      "type": "function"
    },
    {
      "inputs": [
        {
          "internalType": "address",
          "name": "newOwner",
          "type": "address"
        }
      ],
      "name": "transferOwnership",
      "outputs": [],
      "stateMutability": "nonpayable",
      "type": "function"
    },
    {
      "inputs": [
        {
          "internalType": "contract IERC20",
          "name": "",
          "type": "address"
        }
      ],
      "name": "underlyingToCToken",
      "outputs": [
        {
          "internalType": "contract ICErc20",
          "name": "",
          "type": "address"
        }
      ],
      "stateMutability": "view",
      "type": "function"
    },
    {
      "inputs": [
        {
          "internalType": "contract ISetToken",
          "name": "_setToken",
          "type": "address"
        },
        {
          "internalType": "bool",
          "name": "_status",
          "type": "bool"
        }
      ],
      "name": "updateAllowedSetToken",
      "outputs": [],
      "stateMutability": "nonpayable",
      "type": "function"
    },
    {
      "inputs": [
        {
          "internalType": "bool",
          "name": "_anySetAllowed",
          "type": "bool"
        }
      ],
      "name": "updateAnySetAllowed",
      "outputs": [],
      "stateMutability": "nonpayable",
      "type": "function"
    }
  ],
  "bytecode": "0x60806040523480156200001157600080fd5b506040516200623d3803806200623d833981016040819052620000349162000382565b600080546001600160a01b0319166001600160a01b038716178155600180556200005d62000290565b600280546001600160a01b0319166001600160a01b038316908117909155604051919250906000907f8be0079c531659141344cd1fd0a4f28419497f9722a3daafe3b4186f6b6457e0908290a350600780546001600160a01b03199081166001600160a01b03878116919091179092556006805482168684161790819055600580548316868516179055600480549092168484161782556040805163b0772d0b60e01b81529051606094929092169263b0772d0b928282019260009290829003018186803b1580156200012f57600080fd5b505afa15801562000144573d6000803e3d6000fd5b505050506040513d6000823e601f3d908101601f191682016040526200016e9190810190620002cd565b905060005b8151811015620002835760008282815181106200018c57fe5b602002602001015190508060036000876001600160a01b0316846001600160a01b0316146200024657858581518110620001c257fe5b60200260200101516001600160a01b0316636f307dc36040518163ffffffff1660e01b8152600401602060405180830381600087803b1580156200020557600080fd5b505af11580156200021a573d6000803e3d6000fd5b505050506040513d601f19601f82011682018060405250810190620002409190620002a7565b62000248565b865b6001600160a01b039081168252602082019290925260400160002080546001600160a01b031916929091169190911790555060010162000173565b5050505050505062000441565b3390565b8051620002a18162000428565b92915050565b600060208284031215620002b9578081fd5b8151620002c68162000428565b9392505050565b60006020808385031215620002e0578182fd5b82516001600160401b0380821115620002f7578384fd5b81850186601f82011262000309578485fd5b80519250818311156200031a578485fd5b83830291506200032c84830162000401565b8381528481019082860184840187018a101562000347578788fd5b8794505b858510156200037557620003608a8262000294565b8352600194909401939186019186016200034b565b5098975050505050505050565b600080600080600060a086880312156200039a578081fd5b8551620003a78162000428565b6020870151909550620003ba8162000428565b6040870151909450620003cd8162000428565b6060870151909350620003e08162000428565b6080870151909250620003f38162000428565b809150509295509295909350565b6040518181016001600160401b03811182821017156200042057600080fd5b604052919050565b6001600160a01b03811681146200043e57600080fd5b50565b615dec80620004516000396000f3fe608060405234801561001057600080fd5b50600436106101cf5760003560e01c80638da5cb5b11610104578063cffe5e82116100a2578063f2fde38b11610071578063f2fde38b146103b6578063f452c760146103c9578063f77c4791146103dc578063ffbad25c146103e4576101cf565b8063cffe5e821461036a578063d473e09a1461037d578063d4fd27eb14610390578063ee78244f146103a3576101cf565b8063b1dd4d92116100de578063b1dd4d9214610329578063c137f4d714610331578063c153dd0714610344578063c690a74c14610357576101cf565b80638da5cb5b146102ca578063a6e937b1146102e8578063b1c0267814610308576101cf565b80635199e418116101715780635ce0cef61161014b5780635ce0cef614610294578063715018a6146102a7578063717ca2a5146102af578063847ef08d146102c2576101cf565b80635199e4181461025b5780635809ae271461026e5780635b13651214610281576101cf565b80633fe6106b116101ad5780633fe6106b1461020f5780634a200fa5146102225780634fdd283c14610235578063516595fc14610248576101cf565b8063013c03a1146101d45780630df96ef6146101e95780630fb96b21146101fc575b600080fd5b6101e76101e2366004614f05565b6103f7565b005b6101e76101f73660046150d4565b610493565b6101e761020a366004615330565b6106ff565b6101e761021d366004615305565b610944565b6101e7610230366004615122565b610a97565b6101e7610243366004615259565b610def565b6101e76102563660046150d4565b610f5a565b6101e7610269366004615031565b6111bd565b6101e761027c3660046150d4565b61122f565b6101e761028f36600461509c565b61143e565b6101e76102a236600461509c565b61157c565b6101e7611619565b6101e76102bd3660046150d4565b611698565b6101e76118de565b6102d2611d1c565b6040516102df9190615428565b60405180910390f35b6102fb6102f636600461509c565b611d2c565b6040516102df91906155a6565b61031b610316366004614f05565b611d4c565b6040516102df929190615534565b6102fb611e2a565b6101e761033f366004615330565b611e33565b6101e7610352366004615305565b61206b565b6101e761036536600461518b565b6121b9565b6101e761037836600461518b565b612242565b6102d261038b366004614f05565b61263e565b6101e761039e3660046151b8565b612659565b6102fb6103b1366004614f05565b612936565b6101e76103c4366004614f05565b61294b565b6102fb6103d736600461509c565b612a02565b6102d2612a22565b6101e76103f2366004615259565b612a31565b6103ff612b82565b6002546001600160a01b039081169116146104355760405162461bcd60e51b815260040161042c906159d6565b60405180910390fd5b6001600160a01b038181166000908152600360205260409020541661046c5760405162461bcd60e51b815260040161042c90615ca6565b6001600160a01b0316600090815260036020526040902080546001600160a01b0319169055565b8161049e8133612b86565b6104ba5760405162461bcd60e51b815260040161042c90615c0c565b6104c381612c16565b6104df5760405162461bcd60e51b815260040161042c90615673565b6104ea836001612242565b60005b82518110156106b45760006003600085848151811061050857fe5b6020908102919091018101516001600160a01b039081168352828201939093526040918201600090812054898516825260098352838220941680825293909152205490915060ff1661056c5760405162461bcd60e51b815260040161042c90615876565b6001600160a01b0380861660009081526008602090815260408083209385168352929052205460ff1661061357600654604051629c09c960e41b815273__$059b1e3c35e6526bf44b3e0b6a2a76e329$__916309c09c90916105e2916001600160a01b03808b16928792909116906004016155d7565b60006040518083038186803b1580156105fa57600080fd5b505af415801561060e573d6000803e3d6000fd5b505050505b6001600160a01b0380861660008181526009602090815260408083209486168352938152838220805460ff19169055918152600a9091522061065e906001018263ffffffff612d1a16565b6106ab84838151811061066d57fe5b6020026020010151600a6000886001600160a01b03166001600160a01b03168152602001908152602001600020600201612d1a90919063ffffffff16565b506001016104ed565b5060001515836001600160a01b03167f1c400b459725a0446742d6688375dffe941d5f9a65fe3900c93e07d9e772250b846040516106f29190615559565b60405180910390a3505050565b836002604051631ade272960e11b81526001600160a01b038316906335bc4e529061072e903390600401615428565b60206040518083038186803b15801561074657600080fd5b505afa15801561075a573d6000803e3d6000fd5b505050506040513d601f19601f8201168201806040525081019061077e9190615382565b600281111561078957fe5b146107a65760405162461bcd60e51b815260040161042c906158d7565b6000546040516342f6e38960e01b81526001600160a01b03909116906342f6e389906107d6903390600401615428565b60206040518083038186803b1580156107ee57600080fd5b505afa158015610802573d6000803e3d6000fd5b505050506040513d601f19601f82011682018060405250810190610826919061504d565b6108425760405162461bcd60e51b815260040161042c90615b85565b6040516308bafae960e21b81526000906001600160a01b038716906322ebeba490610873908790309060040161543c565b60206040518083038186803b15801561088b57600080fd5b505afa15801561089f573d6000803e3d6000fd5b505050506040513d601f19601f820116820180604052508101906108c391906153a1565b9050600081126108e55760405162461bcd60e51b815260040161042c9061563c565b6000610911866109056109008560001963ffffffff612e4716565b612eb9565b9063ffffffff612edf16565b6001600160a01b0380871660009081526003602052604090205491925061093b9189911683612f09565b50505050505050565b816002604051631ade272960e11b81526001600160a01b038316906335bc4e5290610973903390600401615428565b60206040518083038186803b15801561098b57600080fd5b505afa15801561099f573d6000803e3d6000fd5b505050506040513d601f19601f820116820180604052508101906109c39190615382565b60028111156109ce57fe5b146109eb5760405162461bcd60e51b815260040161042c906158d7565b6000546040516342f6e38960e01b81526001600160a01b03909116906342f6e38990610a1b903390600401615428565b60206040518083038186803b158015610a3357600080fd5b505afa158015610a47573d6000803e3d6000fd5b505050506040513d601f19601f82011682018060405250810190610a6b919061504d565b610a875760405162461bcd60e51b815260040161042c90615b85565b610a92836001612242565b505050565b8233610aa38282612b86565b610abf5760405162461bcd60e51b815260040161042c90615c0c565b600054604051631d3af8fb60e21b815286916001600160a01b0316906374ebe3ec90610aef908490600401615428565b60206040518083038186803b158015610b0757600080fd5b505afa158015610b1b573d6000803e3d6000fd5b505050506040513d601f19601f82011682018060405250810190610b3f919061504d565b610b5b5760405162461bcd60e51b815260040161042c90615bc9565b610b6481612fb5565b610b805760405162461bcd60e51b815260040161042c90615763565b600c5460ff16610bc2576001600160a01b0386166000908152600b602052604090205460ff16610bc25760405162461bcd60e51b815260040161042c90615a0b565b856001600160a01b0316630ffe0f1e6040518163ffffffff1660e01b8152600401600060405180830381600087803b158015610bfd57600080fd5b505af1158015610c11573d6000803e3d6000fd5b50505050856001600160a01b031663d7f1b27c610c5a6040518060400160405280601581526020017444656661756c7449737375616e63654d6f64756c6560581b815250612fe4565b6040518263ffffffff1660e01b8152600401610c769190615428565b60206040518083038186803b158015610c8e57600080fd5b505afa158015610ca2573d6000803e3d6000fd5b505050506040513d601f19601f82011682018060405250810190610cc6919061504d565b610ce25760405162461bcd60e51b815260040161042c9061590e565b6060866001600160a01b031663b2494df36040518163ffffffff1660e01b815260040160006040518083038186803b158015610d1d57600080fd5b505afa158015610d31573d6000803e3d6000fd5b505050506040513d6000823e601f3d908101601f19168201604052610d599190810190614f95565b905060005b8151811015610dda57818181518110610d7357fe5b60200260200101516001600160a01b031663d9b1b6e0896040518263ffffffff1660e01b8152600401610da69190615428565b600060405180830381600087803b158015610dc057600080fd5b505af1925050508015610dd1575060015b50600101610d5e565b50610de58787611698565b61093b8786610f5a565b60026001541415610e125760405162461bcd60e51b815260040161042c90615c6f565b600260015586610e228133612b86565b610e3e5760405162461bcd60e51b815260040161042c90615c0c565b610e4781612c16565b610e635760405162461bcd60e51b815260040161042c90615673565b610e6b614d57565b610e7b8989898989896000612ffb565b9050610e9481600001518260a0015183606001516130b2565b6000610ea2828a8a876130f6565b90506000610eb18b8a84613384565b90506000610ec5838363ffffffff6133a716565b9050610edb84600001518560c001518c846133e9565b610ee5848b61352d565b896001600160a01b03168b6001600160a01b03168d6001600160a01b03167f7cda30123ddfc96659344700585861a8670352b9cc86d1b1054d10083b1dcdd4876020015188606001518688604051610f4094939291906155b1565b60405180910390a450506001805550505050505050505050565b81610f658133612b86565b610f815760405162461bcd60e51b815260040161042c90615c0c565b610f8a81612c16565b610fa65760405162461bcd60e51b815260040161042c90615673565b60005b825181101561117f576000838281518110610fc057fe5b6020908102919091018101516001600160a01b038082166000908152600390935260409092205490925016806110085760405162461bcd60e51b815260040161042c906157c1565b6001600160a01b0380871660009081526009602090815260408083209385168352929052205460ff161561104e5760405162461bcd60e51b815260040161042c90615ade565b6001600160a01b0380871660009081526008602090815260408083209385168352929052205460ff166110f657600654604051632c5febc760e21b815273__$059b1e3c35e6526bf44b3e0b6a2a76e329$__9163b17faf1c916110c5916001600160a01b03808c16928792909116906004016155d7565b60006040518083038186803b1580156110dd57600080fd5b505af41580156110f1573d6000803e3d6000fd5b505050505b6001600160a01b0386811660008181526009602090815260408083209585168084529582528083208054600160ff199091168117909155938352600a82528220808401805480860182559084528284200180546001600160a01b031990811690971790556002018054808501825590835291200180549093169390911692909217905501610fa9565b5060011515836001600160a01b03167f1c400b459725a0446742d6688375dffe941d5f9a65fe3900c93e07d9e772250b846040516106f29190615559565b6111c5612b82565b6002546001600160a01b039081169116146111f25760405162461bcd60e51b815260040161042c906159d6565b600c805460ff19168215159081179091556040517f563e1633136cdd43b8793897cb53ba2a9e31c18b3ae0b6827fbbb03b9902e6c690600090a250565b8161123a8133612b86565b6112565760405162461bcd60e51b815260040161042c90615c0c565b61125f81612c16565b61127b5760405162461bcd60e51b815260040161042c90615673565b611286836001612242565b60005b8251811015611400576000600360008584815181106112a457fe5b6020908102919091018101516001600160a01b039081168352828201939093526040918201600090812054898516825260088352838220941680825293909152205490915060ff166113085760405162461bcd60e51b815260040161042c90615846565b6001600160a01b0380861660009081526009602090815260408083209385168352929052205460ff166113af57600654604051629c09c960e41b815273__$059b1e3c35e6526bf44b3e0b6a2a76e329$__916309c09c909161137e916001600160a01b03808b16928792909116906004016155d7565b60006040518083038186803b15801561139657600080fd5b505af41580156113aa573d6000803e3d6000fd5b505050505b6001600160a01b0380861660008181526008602090815260408083209486168352938152838220805460ff19169055918152600a909152206113f7908263ffffffff612d1a16565b50600101611289565b5060001515836001600160a01b03167fdd2a86f23a66f86496c82312e991b49f87ad96c4f25094a43c49f7aca0ea3542846040516106f29190615559565b816114498133612b86565b6114655760405162461bcd60e51b815260040161042c90615c0c565b61146e81612c16565b61148a5760405162461bcd60e51b815260040161042c90615673565b6040516335fc6c9f60e21b81526001600160a01b0384169063d7f1b27c906114b6908590600401615428565b60206040518083038186803b1580156114ce57600080fd5b505afa1580156114e2573d6000803e3d6000fd5b505050506040513d601f19601f82011682018060405250810190611506919061504d565b6115225760405162461bcd60e51b815260040161042c9061590e565b6040516306cd8db760e51b81526001600160a01b0383169063d9b1b6e09061154e908690600401615428565b600060405180830381600087803b15801561156857600080fd5b505af115801561093b573d6000803e3d6000fd5b611584612b82565b6002546001600160a01b039081169116146115b15760405162461bcd60e51b815260040161042c906159d6565b6001600160a01b0381811660009081526003602052604090205416156115e95760405162461bcd60e51b815260040161042c90615ab7565b6001600160a01b0390811660009081526003602052604090208054919092166001600160a01b0319909116179055565b611621612b82565b6002546001600160a01b0390811691161461164e5760405162461bcd60e51b815260040161042c906159d6565b6002546040516000916001600160a01b0316907f8be0079c531659141344cd1fd0a4f28419497f9722a3daafe3b4186f6b6457e0908390a3600280546001600160a01b0319169055565b816116a38133612b86565b6116bf5760405162461bcd60e51b815260040161042c90615c0c565b6116c881612c16565b6116e45760405162461bcd60e51b815260040161042c90615673565b60005b82518110156118a05760006003600085848151811061170257fe5b6020908102919091018101516001600160a01b0390811683529082019290925260400160002054169050806117495760405162461bcd60e51b815260040161042c906157c1565b6001600160a01b0380861660009081526008602090815260408083209385168352929052205460ff161561178f5760405162461bcd60e51b815260040161042c90615c43565b6001600160a01b0380861660009081526009602090815260408083209385168352929052205460ff1661183757600654604051632c5febc760e21b815273__$059b1e3c35e6526bf44b3e0b6a2a76e329$__9163b17faf1c91611806916001600160a01b03808b16928792909116906004016155d7565b60006040518083038186803b15801561181e57600080fd5b505af4158015611832573d6000803e3d6000fd5b505050505b6001600160a01b03808616600081815260086020908152604080832095909416808352948152838220805460ff19166001908117909155928252600a81529281208054808401825590825292902090910180546001600160a01b031916909217909155016116e7565b5060011515836001600160a01b03167fdd2a86f23a66f86496c82312e991b49f87ad96c4f25094a43c49f7aca0ea3542846040516106f29190615559565b336118e881612c16565b6119045760405162461bcd60e51b815260040161042c90615673565b33611910816001612242565b6001600160a01b0381166000908152600a602090815260409182902060010180548351818402810184019094528084526060939283018282801561197d57602002820191906000526020600020905b81546001600160a01b0316815260019091019060200180831161195f575b50939450600093505050505b8151811015611a8e5760008282815181106119a057fe5b6020908102919091018101516001600160a01b0380871660009081526008845260408082209284168252919093529091205490915060ff16611a5657600654604051629c09c960e41b815273__$059b1e3c35e6526bf44b3e0b6a2a76e329$__916309c09c9091611a25916001600160a01b03808a16928792909116906004016155d7565b60006040518083038186803b158015611a3d57600080fd5b505af4158015611a51573d6000803e3d6000fd5b505050505b6001600160a01b038085166000908152600960209081526040808320949093168252929092529020805460ff19169055600101611989565b506001600160a01b0382166000908152600a6020908152604091829020805483518184028101840190945280845260609392830182828015611af957602002820191906000526020600020905b81546001600160a01b03168152600190910190602001808311611adb575b50939450600093505050505b8151811015611bda576000828281518110611b1c57fe5b6020908102919091010151600654604051629c09c960e41b815291925073__$059b1e3c35e6526bf44b3e0b6a2a76e329$__916309c09c9091611b72916001600160a01b03808b169287929116906004016155d7565b60006040518083038186803b158015611b8a57600080fd5b505af4158015611b9e573d6000803e3d6000fd5b505050506001600160a01b038581166000908152600860209081526040808320949093168252929092529020805460ff19169055600101611b05565b506001600160a01b0383166000908152600a6020526040812090611bfe8282614dc0565b611c0c600183016000614dc0565b611c1a600283016000614dc0565b50506060836001600160a01b031663b2494df36040518163ffffffff1660e01b815260040160006040518083038186803b158015611c5757600080fd5b505afa158015611c6b573d6000803e3d6000fd5b505050506040513d6000823e601f3d908101601f19168201604052611c939190810190614f95565b905060005b8151811015611d1457818181518110611cad57fe5b60200260200101516001600160a01b031663e0799620866040518263ffffffff1660e01b8152600401611ce09190615428565b600060405180830381600087803b158015611cfa57600080fd5b505af1925050508015611d0b575060015b50600101611c98565b505050505050565b6002546001600160a01b03165b90565b600860209081526000928352604080842090915290825290205460ff1681565b6001600160a01b0381166000908152600a60209081526040918290208054835181840281018401909452808452606093849360028401928491830182828015611dbe57602002820191906000526020600020905b81546001600160a01b03168152600190910190602001808311611da0575b5050505050915080805480602002602001604051908101604052809291908181526020018280548015611e1a57602002820191906000526020600020905b81546001600160a01b03168152600190910190602001808311611dfc575b5050505050905091509150915091565b600c5460ff1681565b836002604051631ade272960e11b81526001600160a01b038316906335bc4e5290611e62903390600401615428565b60206040518083038186803b158015611e7a57600080fd5b505afa158015611e8e573d6000803e3d6000fd5b505050506040513d601f19601f82011682018060405250810190611eb29190615382565b6002811115611ebd57fe5b14611eda5760405162461bcd60e51b815260040161042c906158d7565b6000546040516342f6e38960e01b81526001600160a01b03909116906342f6e38990611f0a903390600401615428565b60206040518083038186803b158015611f2257600080fd5b505afa158015611f36573d6000803e3d6000fd5b505050506040513d601f19601f82011682018060405250810190611f5a919061504d565b611f765760405162461bcd60e51b815260040161042c90615b85565b6040516308bafae960e21b81526000906001600160a01b038716906322ebeba490611fa7908790309060040161543c565b60206040518083038186803b158015611fbf57600080fd5b505afa158015611fd3573d6000803e3d6000fd5b505050506040513d601f19601f82011682018060405250810190611ff791906153a1565b9050600081126120195760405162461bcd60e51b815260040161042c9061563c565b6000612040866120346109008560001963ffffffff612e4716565b9063ffffffff61357c16565b6001600160a01b0380871660009081526003602052604090205491925061093b9189911687846133e9565b816002604051631ade272960e11b81526001600160a01b038316906335bc4e529061209a903390600401615428565b60206040518083038186803b1580156120b257600080fd5b505afa1580156120c6573d6000803e3d6000fd5b505050506040513d601f19601f820116820180604052508101906120ea9190615382565b60028111156120f557fe5b146121125760405162461bcd60e51b815260040161042c906158d7565b6000546040516342f6e38960e01b81526001600160a01b03909116906342f6e38990612142903390600401615428565b60206040518083038186803b15801561215a57600080fd5b505afa15801561216e573d6000803e3d6000fd5b505050506040513d601f19601f82011682018060405250810190612192919061504d565b6121ae5760405162461bcd60e51b815260040161042c90615b85565b610a92836000612242565b6121c1612b82565b6002546001600160a01b039081169116146121ee5760405162461bcd60e51b815260040161042c906159d6565b6001600160a01b0382166000818152600b6020526040808220805460ff191685151590811790915590519092917f2035981b48691b10f6ac65174e570b4d0a8a889ae01bef3e5e7759ff9444f0c491a35050565b600260015414156122655760405162461bcd60e51b815260040161042c90615c6f565b60026001558161227481612c16565b6122905760405162461bcd60e51b815260040161042c90615673565b6000836001600160a01b03166318160ddd6040518163ffffffff1660e01b815260040160206040518083038186803b1580156122cb57600080fd5b505afa1580156122df573d6000803e3d6000fd5b505050506040513d601f19601f8201168201806040525081019061230391906153a1565b90508015612634576001600160a01b0384166000908152600a602090815260409182902080548351818402810184019094528084526060939283018282801561237557602002820191906000526020600020905b81546001600160a01b03168152600190910190602001808311612357575b50939450600093505050505b815181101561245157600082828151811061239857fe5b602002602001015190506000612423886001600160a01b03166366cb8d2f846040518263ffffffff1660e01b81526004016123d39190615428565b60206040518083038186803b1580156123eb57600080fd5b505afa1580156123ff573d6000803e3d6000fd5b505050506040513d601f19601f8201168201806040525081019061090091906153a1565b905060006124328984886135c7565b905080821461244657612446898483613661565b505050600101612381565b506001600160a01b0385166000908152600a60209081526040918290206001018054835181840281018401909452808452606093928301828280156124bf57602002820191906000526020600020905b81546001600160a01b031681526001909101906020018083116124a1575b5050506001600160a01b0389166000908152600a60209081526040918290206002018054835181840281018401909452808452959650606095929450925083018282801561253657602002820191906000526020600020905b81546001600160a01b03168152600190910190602001808311612518575b50939450600093505050505b825181101561262f57600083828151811061255957fe5b60200260200101519050600083838151811061257157fe5b6020026020010151905060008a6001600160a01b03166322ebeba483306040518363ffffffff1660e01b81526004016125ab92919061543c565b60206040518083038186803b1580156125c357600080fd5b505afa1580156125d7573d6000803e3d6000fd5b505050506040513d601f19601f820116820180604052508101906125fb91906153a1565b9050600061260b8c858b8e61367b565b905081811461261f5761261f8c84836137ca565b5050600190920191506125429050565b505050505b5050600180555050565b6003602052600090815260409020546001600160a01b031681565b6002600154141561267c5760405162461bcd60e51b815260040161042c90615c6f565b60026001558561268c8133612b86565b6126a85760405162461bcd60e51b815260040161042c90615c0c565b6126b181612c16565b6126cd5760405162461bcd60e51b815260040161042c90615673565b6000612750886001600160a01b03166318160ddd6040518163ffffffff1660e01b815260040160206040518083038186803b15801561270b57600080fd5b505afa15801561271f573d6000803e3d6000fd5b505050506040513d601f19601f8201168201806040525081019061274391906153a1565b869063ffffffff612edf16565b6001600160a01b03808a1660009081526009602090815260408083208b8516845260038352818420549094168352929052205490915060ff166127a55760405162461bcd60e51b815260040161042c90615876565b6001600160a01b038087166000908152600360205260408082205490516305eff7ef60e21b8152919216906317bfdfbc906127e4908c90600401615428565b602060405180830381600087803b1580156127fe57600080fd5b505af1158015612812573d6000803e3d6000fd5b505050506040513d601f19601f8201168201806040525081019061283691906153a1565b9050612840614d57565b6128508a8a8a86868b60006137f9565b905061286981600001518260a0015183606001516130b2565b6000612877828b8b896130f6565b905061288d82600001518360c001518b866133e9565b604082015160e08301516128b4916001600160a01b038e16918c919063ffffffff6139e916565b5050506128c1828a61352d565b886001600160a01b03168a6001600160a01b03168c6001600160a01b03167f7cda30123ddfc96659344700585861a8670352b9cc86d1b1054d10083b1dcdd48560200151866060015188600060405161291d94939291906155b1565b60405180910390a4505060018055505050505050505050565b600b6020526000908152604090205460ff1681565b612953612b82565b6002546001600160a01b039081169116146129805760405162461bcd60e51b815260040161042c906159d6565b6001600160a01b0381166129a65760405162461bcd60e51b815260040161042c906156e6565b6002546040516001600160a01b038084169216907f8be0079c531659141344cd1fd0a4f28419497f9722a3daafe3b4186f6b6457e090600090a3600280546001600160a01b0319166001600160a01b0392909216919091179055565b600960209081526000928352604080842090915290825290205460ff1681565b6000546001600160a01b031681565b60026001541415612a545760405162461bcd60e51b815260040161042c90615c6f565b600260015586612a648133612b86565b612a805760405162461bcd60e51b815260040161042c90615c0c565b612a8981612c16565b612aa55760405162461bcd60e51b815260040161042c90615673565b612aad614d57565b612abd8989898989896001612ffb565b9050612ad681600001518260c001518360600151612f09565b6000612ae4828a8a876130f6565b90506000612af38b8a84613384565b90506000612b07838363ffffffff6133a716565b9050612b1d84600001518560a001518c84613ada565b612b27848c61352d565b896001600160a01b03168b6001600160a01b03168d6001600160a01b03167f359f8b62a966cfd521a3815681266407201b20a7c334925faa49e7d9d5dd57ab876020015188606001518688604051610f4094939291906155b1565b3390565b6000816001600160a01b0316836001600160a01b031663481c6a756040518163ffffffff1660e01b815260040160206040518083038186803b158015612bcb57600080fd5b505afa158015612bdf573d6000803e3d6000fd5b505050506040513d601f19601f82011682018060405250810190612c039190614f21565b6001600160a01b03161490505b92915050565b60008054604051631d3af8fb60e21b81526001600160a01b03909116906374ebe3ec90612c47908590600401615428565b60206040518083038186803b158015612c5f57600080fd5b505afa158015612c73573d6000803e3d6000fd5b505050506040513d601f19601f82011682018060405250810190612c97919061504d565b8015612c1057506040516335fc6c9f60e21b81526001600160a01b0383169063d7f1b27c90612cca903090600401615428565b60206040518083038186803b158015612ce257600080fd5b505afa158015612cf6573d6000803e3d6000fd5b505050506040513d601f19601f82011682018060405250810190612c10919061504d565b600080612d8084805480602002602001604051908101604052809291908181526020018280548015612d7557602002820191906000526020600020905b81546001600160a01b03168152600190910190602001808311612d57575b505050505084613bb3565b9150915080612da15760405162461bcd60e51b815260040161042c9061560d565b835460001901828114612e1357848181548110612dba57fe5b9060005260206000200160009054906101000a90046001600160a01b0316858481548110612de457fe5b9060005260206000200160006101000a8154816001600160a01b0302191690836001600160a01b031602179055505b84805480612e1d57fe5b600082815260209020810160001990810180546001600160a01b0319169055019055505b50505050565b600082612e5657506000612c10565b82600019148015612e6a5750600160ff1b82145b15612e875760405162461bcd60e51b815260040161042c90615a39565b82820282848281612e9457fe5b0514612eb25760405162461bcd60e51b815260040161042c90615a39565b9392505050565b600080821215612edb5760405162461bcd60e51b815260040161042c906158a2565b5090565b6000612eb2670de0b6b3a7640000612efd858563ffffffff613c1916565b9063ffffffff613c5316565b60405163beee4b4b60e01b815273__$059b1e3c35e6526bf44b3e0b6a2a76e329$__9063beee4b4b90612f4d906001600160a01b03871690869086906004016154d0565b60006040518083038186803b158015612f6557600080fd5b505af4158015612f79573d6000803e3d6000fd5b50506005546001600160a01b03858116911614159150610a92905057600454610a92906001600160a01b0385811691168363ffffffff613c9516565b6040516353bae5f760e01b81526000906001600160a01b038316906353bae5f790612cca903090600401615428565b600080612ff083613d4a565b9050612eb281613d55565b613003614d57565b6000886001600160a01b03166318160ddd6040518163ffffffff1660e01b815260040160206040518083038186803b15801561303e57600080fd5b505afa158015613052573d6000803e3d6000fd5b505050506040513d601f19601f8201168201806040525081019061307691906153a1565b90506130a589898961308e8a8663ffffffff612edf16565b61309e8a8763ffffffff612edf16565b89896137f9565b9998505050505050505050565b60405163aed2dfc960e01b815273__$059b1e3c35e6526bf44b3e0b6a2a76e329$__9063aed2dfc990612f4d906001600160a01b03871690869086906004016154d0565b6000808560000151905060008660600151905061319a8688602001516001600160a01b031663334fc2896040518163ffffffff1660e01b815260040160206040518083038186803b15801561314a57600080fd5b505afa15801561315e573d6000803e3d6000fd5b505050506040513d601f19601f820116820180604052508101906131829190614f21565b6001600160a01b03851691908463ffffffff613e1216565b600080606089602001516001600160a01b031663e171fcab8a8a88888f608001518d6040518763ffffffff1660e01b81526004016131dd96959493929190615456565b60006040518083038186803b1580156131f557600080fd5b505afa158015613209573d6000803e3d6000fd5b505050506040513d6000823e601f3d908101601f191682016040526132319190810190614f3d565b925092509250846001600160a01b0316638f6f03328484846040518463ffffffff1660e01b81526004016132679392919061550d565b600060405180830381600087803b15801561328157600080fd5b505af1158015613295573d6000803e3d6000fd5b505050506040513d6000823e601f3d908101601f191682016040526132bd9190810190615069565b5060006133508b60e001518a6001600160a01b03166370a08231896040518263ffffffff1660e01b81526004016132f49190615428565b60206040518083038186803b15801561330c57600080fd5b505afa158015613320573d6000803e3d6000fd5b505050506040513d601f19601f8201168201806040525081019061334491906153a1565b9063ffffffff6133a716565b90508a608001518110156133765760405162461bcd60e51b815260040161042c9061581b565b9a9950505050505050505050565b600080613392600084613ed9565b905061339f858583613f6e565b949350505050565b6000612eb283836040518060400160405280601e81526020017f536166654d6174683a207375627472616374696f6e206f766572666c6f770000815250614015565b6005546001600160a01b03848116911614156134985760045461341f906001600160a01b0386811691168363ffffffff61404116565b604051635d20259160e01b815273__$059b1e3c35e6526bf44b3e0b6a2a76e329$__90635d20259190613463906001600160a01b03881690879086906004016154d0565b60006040518083038186803b15801561347b57600080fd5b505af415801561348f573d6000803e3d6000fd5b50505050612e41565b6134b36001600160a01b03851683858463ffffffff613e1216565b604051637d43967d60e11b815273__$059b1e3c35e6526bf44b3e0b6a2a76e329$__9063fa872cfa906134f7906001600160a01b03881690879086906004016154d0565b60006040518083038186803b15801561350f57600080fd5b505af4158015613523573d6000803e3d6000fd5b5050505050505050565b815160a0830151604084015161355192919061354c90839083906135c7565b613661565b61357882600001518261357385600001518660c001518760400151600061367b565b6137ca565b5050565b6000821580613589575081155b1561359657506000612c10565b612eb260016135bb670de0b6b3a7640000612efd83613344898963ffffffff613c1916565b9063ffffffff6140b016565b600080836001600160a01b03166370a08231866040518263ffffffff1660e01b81526004016135f69190615428565b60206040518083038186803b15801561360e57600080fd5b505afa158015613622573d6000803e3d6000fd5b505050506040513d601f19601f8201168201806040525081019061364691906153a1565b9050613658818463ffffffff6140d516565b95945050505050565b610a926001600160a01b038416838363ffffffff6140f316565b60008082613704576040516395dd919360e01b81526001600160a01b038616906395dd9193906136af908990600401615428565b60206040518083038186803b1580156136c757600080fd5b505afa1580156136db573d6000803e3d6000fd5b505050506040513d601f19601f820116820180604052508101906136ff91906153a1565b613782565b6040516305eff7ef60e21b81526001600160a01b038616906317bfdfbc90613730908990600401615428565b602060405180830381600087803b15801561374a57600080fd5b505af115801561375e573d6000803e3d6000fd5b505050506040513d601f19601f8201168201806040525081019061378291906153a1565b905060006137b06000196137a461379f858963ffffffff61426716565b6142ba565b9063ffffffff612e4716565b90508060001914156137c0575060005b9695505050505050565b604080516020810190915260008152610a92906001600160a01b0385169084903090859063ffffffff6142df16565b613801614d57565b6000886001600160a01b03166318160ddd6040518163ffffffff1660e01b815260040160206040518083038186803b15801561383c57600080fd5b505afa158015613850573d6000803e3d6000fd5b505050506040513d601f19601f8201168201806040525081019061387491906153a1565b905061387e614d57565b6040518061010001604052808b6001600160a01b031681526020016138a287612fe4565b6001600160a01b03168152602001838152602001888152602001878152602001856138e7576001600160a01b03808c1660009081526003602052604090205416613903565b6001600160a01b03808b16600090815260036020526040902054165b6001600160a01b0316815260200185613936576001600160a01b03808b1660009081526003602052604090205416613952565b6001600160a01b03808c16600090815260036020526040902054165b6001600160a01b03168152602001896001600160a01b03166370a082318d6040518263ffffffff1660e01b815260040161398c9190615428565b60206040518083038186803b1580156139a457600080fd5b505afa1580156139b8573d6000803e3d6000fd5b505050506040513d601f19601f820116820180604052508101906139dc91906153a1565b905290506130a581614897565b600080600080866001600160a01b03166370a08231896040518263ffffffff1660e01b8152600401613a1b9190615428565b60206040518083038186803b158015613a3357600080fd5b505afa158015613a47573d6000803e3d6000fd5b505050506040513d601f19601f82011682018060405250810190613a6b91906153a1565b90506000613a9e896001600160a01b03166366cb8d2f8a6040518263ffffffff1660e01b81526004016123d39190615428565b905060008215613abb57613ab488888585614990565b9050613abf565b5060005b613aca8a8a836140f3565b9199909850909650945050505050565b6005546001600160a01b0384811691161415613b5457600454613b10906001600160a01b0386811691168363ffffffff61404116565b60405163690f656160e01b815273__$059b1e3c35e6526bf44b3e0b6a2a76e329$__9063690f656190613463906001600160a01b03881690879086906004016154d0565b613b6f6001600160a01b03851683858463ffffffff613e1216565b6040516309c8202b60e01b815273__$059b1e3c35e6526bf44b3e0b6a2a76e329$__906309c8202b906134f7906001600160a01b03881690879086906004016154d0565b81516000908190815b81811015613c0657846001600160a01b0316868281518110613bda57fe5b60200260200101516001600160a01b03161415613bfe57925060019150613c129050565b600101613bbc565b50600019600092509250505b9250929050565b600082613c2857506000612c10565b82820282848281613c3557fe5b0414612eb25760405162461bcd60e51b815260040161042c90615995565b6000612eb283836040518060400160405280601a81526020017f536166654d6174683a206469766973696f6e206279207a65726f0000000000008152506149d5565b6040805160048082526024820183526020820180516001600160e01b0316630d0e30db60e41b17905291516347b7819960e11b815290916001600160a01b03861691638f6f033291613ced918791879187910161550d565b600060405180830381600087803b158015613d0757600080fd5b505af1158015613d1b573d6000803e3d6000fd5b505050506040513d6000823e601f3d908101601f19168201604052613d439190810190615069565b5050505050565b805160209091012090565b600080548190613d6d906001600160a01b0316614a0c565b6001600160a01b031663e6d642c530856040518363ffffffff1660e01b8152600401613d9a9291906154f4565b60206040518083038186803b158015613db257600080fd5b505afa158015613dc6573d6000803e3d6000fd5b505050506040513d601f19601f82011682018060405250810190613dea9190614f21565b90506001600160a01b038116612c105760405162461bcd60e51b815260040161042c906157ec565b60608282604051602401613e279291906154f4565b60408051601f198184030181529181526020820180516001600160e01b031663095ea7b360e01b179052516347b7819960e11b81529091506001600160a01b03861690638f6f033290613e83908790600090869060040161550d565b600060405180830381600087803b158015613e9d57600080fd5b505af1158015613eb1573d6000803e3d6000fd5b505050506040513d6000823e601f3d908101601f19168201604052611d149190810190615069565b6000805460405163792aa04f60e01b815282916001600160a01b03169063792aa04f90613f0c90309088906004016154f4565b60206040518083038186803b158015613f2457600080fd5b505afa158015613f38573d6000803e3d6000fd5b505050506040513d601f19601f82011682018060405250810190613f5c91906153a1565b905061339f838263ffffffff612edf16565b8015610a9257610a92826000809054906101000a90046001600160a01b03166001600160a01b031663469048406040518163ffffffff1660e01b815260040160206040518083038186803b158015613fc557600080fd5b505afa158015613fd9573d6000803e3d6000fd5b505050506040513d601f19601f82011682018060405250810190613ffd9190614f21565b6001600160a01b03861691908463ffffffff614a8b16565b600081848411156140395760405162461bcd60e51b815260040161042c91906155fa565b505050900390565b6060816040516024016140549190615cf3565b60408051601f198184030181529181526020820180516001600160e01b0316632e1a7d4d60e01b179052516347b7819960e11b81529091506001600160a01b03851690638f6f033290613ced908690600090869060040161550d565b600082820183811015612eb25760405162461bcd60e51b815260040161042c9061572c565b6000612eb282612efd85670de0b6b3a764000063ffffffff613c1916565b60006140ff8484614bcd565b90508015801561410f5750600082115b156141865761411e8484614c54565b614181576040516304e3532760e41b81526001600160a01b03851690634e3532709061414e908690600401615428565b600060405180830381600087803b15801561416857600080fd5b505af115801561417c573d6000803e3d6000fd5b505050505b614203565b808015614191575081155b15614203576141a08484614c54565b61420357604051636f86c89760e01b81526001600160a01b03851690636f86c897906141d0908690600401615428565b600060405180830381600087803b1580156141ea57600080fd5b505af11580156141fe573d6000803e3d6000fd5b505050505b836001600160a01b0316632ba57d178461421c856142ba565b6040518363ffffffff1660e01b81526004016142399291906154f4565b600060405180830381600087803b15801561425357600080fd5b505af1158015613523573d6000803e3d6000fd5b6000816142865760405162461bcd60e51b815260040161042c90615cc9565b60008311614295576000612eb2565b612eb260016135bb84612efd8361334489670de0b6b3a764000063ffffffff613c1916565b6000600160ff1b8210612edb5760405162461bcd60e51b815260040161042c90615b3d565b81156145d45760405163df5e9b2960e01b81526001600160a01b0386169063df5e9b2990614311908790600401615428565b60206040518083038186803b15801561432957600080fd5b505afa15801561433d573d6000803e3d6000fd5b505050506040513d601f19601f82011682018060405250810190614361919061504d565b614428576040516304e3532760e41b81526001600160a01b03861690634e35327090614391908790600401615428565b600060405180830381600087803b1580156143ab57600080fd5b505af11580156143bf573d6000803e3d6000fd5b505060405163ea0ee55960e01b81526001600160a01b038816925063ea0ee55991506143f1908790879060040161543c565b600060405180830381600087803b15801561440b57600080fd5b505af115801561441f573d6000803e3d6000fd5b5050505061450b565b604051637d96659360e01b81526001600160a01b03861690637d96659390614456908790879060040161543c565b60206040518083038186803b15801561446e57600080fd5b505afa158015614482573d6000803e3d6000fd5b505050506040513d601f19601f820116820180604052508101906144a6919061504d565b61450b5760405163ea0ee55960e01b81526001600160a01b0386169063ea0ee559906144d8908790879060040161543c565b600060405180830381600087803b1580156144f257600080fd5b505af1158015614506573d6000803e3d6000fd5b505050505b6040516363a90fc160e01b81526001600160a01b038616906363a90fc19061453b908790879087906004016154d0565b600060405180830381600087803b15801561455557600080fd5b505af1158015614569573d6000803e3d6000fd5b50506040516326898fe160e01b81526001600160a01b03881692506326898fe1915061459d908790879086906004016154a4565b600060405180830381600087803b1580156145b757600080fd5b505af11580156145cb573d6000803e3d6000fd5b50505050613d43565b8051156145f35760405162461bcd60e51b815260040161042c90615b06565b6040516308bafae960e21b81526001600160a01b038616906322ebeba490614621908790879060040161543c565b60206040518083038186803b15801561463957600080fd5b505afa15801561464d573d6000803e3d6000fd5b505050506040513d601f19601f8201168201806040525081019061467191906153a1565b15613d435760405163a7bdad0360e01b81526060906001600160a01b0387169063a7bdad03906146a5908890600401615428565b60006040518083038186803b1580156146bd57600080fd5b505afa1580156146d1573d6000803e3d6000fd5b505050506040513d6000823e601f3d908101601f191682016040526146f99190810190614f95565b6040516366cb8d2f60e01b81529091506001600160a01b038716906366cb8d2f90614728908890600401615428565b60206040518083038186803b15801561474057600080fd5b505afa158015614754573d6000803e3d6000fd5b505050506040513d601f19601f8201168201806040525081019061477891906153a1565b158015614786575080516001145b1561482f57836001600160a01b0316816000815181106147a257fe5b60200260200101516001600160a01b0316146147d05760405162461bcd60e51b815260040161042c90615945565b604051636f86c89760e01b81526001600160a01b03871690636f86c897906147fc908890600401615428565b600060405180830381600087803b15801561481657600080fd5b505af115801561482a573d6000803e3d6000fd5b505050505b60405163acf3f07760e01b81526001600160a01b0387169063acf3f0779061485d908890889060040161543c565b600060405180830381600087803b15801561487757600080fd5b505af115801561488b573d6000803e3d6000fd5b50505050505050505050565b80516001600160a01b03908116600090815260086020908152604080832060a08601519094168352929052205460ff166148e35760405162461bcd60e51b815260040161042c90615846565b80516001600160a01b03908116600090815260096020908152604080832060c08601519094168352929052205460ff1661492f5760405162461bcd60e51b815260040161042c90615876565b8060c001516001600160a01b03168160a001516001600160a01b031614156149695760405162461bcd60e51b815260040161042c906156bb565b600081606001511161498d5760405162461bcd60e51b815260040161042c9061579a565b50565b6000806149b36149a6848863ffffffff612edf16565b869063ffffffff6133a716565b90506137c0866149c9868463ffffffff6133a716565b9063ffffffff6140d516565b600081836149f65760405162461bcd60e51b815260040161042c91906155fa565b506000838581614a0257fe5b0495945050505050565b6040516373b2e76b60e11b81526000906001600160a01b0383169063e765ced690614a3b908490600401615cf3565b60206040518083038186803b158015614a5357600080fd5b505afa158015614a67573d6000803e3d6000fd5b505050506040513d601f19601f82011682018060405250810190612c109190614f21565b8015612e41576040516370a0823160e01b81526000906001600160a01b038516906370a0823190614ac0908890600401615428565b60206040518083038186803b158015614ad857600080fd5b505afa158015614aec573d6000803e3d6000fd5b505050506040513d601f19601f82011682018060405250810190614b1091906153a1565b9050614b1e85858585614ce0565b6040516370a0823160e01b81526000906001600160a01b038616906370a0823190614b4d908990600401615428565b60206040518083038186803b158015614b6557600080fd5b505afa158015614b79573d6000803e3d6000fd5b505050506040513d601f19601f82011682018060405250810190614b9d91906153a1565b9050614baf828463ffffffff6133a716565b8114611d145760405162461bcd60e51b815260040161042c90615a80565b600080836001600160a01b03166366cb8d2f846040518263ffffffff1660e01b8152600401614bfc9190615428565b60206040518083038186803b158015614c1457600080fd5b505afa158015614c28573d6000803e3d6000fd5b505050506040513d601f19601f82011682018060405250810190614c4c91906153a1565b139392505050565b600080836001600160a01b031663a7bdad03846040518263ffffffff1660e01b8152600401614c839190615428565b60006040518083038186803b158015614c9b57600080fd5b505afa158015614caf573d6000803e3d6000fd5b505050506040513d6000823e601f3d908101601f19168201604052614cd79190810190614f95565b51119392505050565b8015612e415760608282604051602401614cfb9291906154f4565b60408051601f198184030181529181526020820180516001600160e01b031663a9059cbb60e01b179052516347b7819960e11b81529091506001600160a01b03861690638f6f033290613e83908790600090869060040161550d565b60405180610100016040528060006001600160a01b0316815260200160006001600160a01b0316815260200160008152602001600081526020016000815260200160006001600160a01b0316815260200160006001600160a01b03168152602001600081525090565b508054600082559060005260206000209081019061498d9190611d2991905b80821115612edb5760008155600101614ddf565b600082601f830112614e03578081fd5b8135614e16614e1182615d23565b615cfc565b818152915060208083019084810181840286018201871015614e3757600080fd5b60005b84811015614e5f578135614e4d81615d93565b84529282019290820190600101614e3a565b505050505092915050565b600082601f830112614e7a578081fd5b8135614e88614e1182615d43565b9150808252836020828501011115614e9f57600080fd5b8060208401602084013760009082016020015292915050565b600082601f830112614ec8578081fd5b8151614ed6614e1182615d43565b9150808252836020828501011115614eed57600080fd5b614efe816020840160208601615d67565b5092915050565b600060208284031215614f16578081fd5b8135612eb281615d93565b600060208284031215614f32578081fd5b8151612eb281615d93565b600080600060608486031215614f51578182fd5b8351614f5c81615d93565b60208501516040860151919450925067ffffffffffffffff811115614f7f578182fd5b614f8b86828701614eb8565b9150509250925092565b60006020808385031215614fa7578182fd5b825167ffffffffffffffff811115614fbd578283fd5b80840185601f820112614fce578384fd5b80519150614fde614e1183615d23565b8281528381019082850185850284018601891015614ffa578687fd5b8693505b8484101561502557805161501181615d93565b835260019390930192918501918501614ffe565b50979650505050505050565b600060208284031215615042578081fd5b8135612eb281615da8565b60006020828403121561505e578081fd5b8151612eb281615da8565b60006020828403121561507a578081fd5b815167ffffffffffffffff811115615090578182fd5b61339f84828501614eb8565b600080604083850312156150ae578182fd5b82356150b981615d93565b915060208301356150c981615d93565b809150509250929050565b600080604083850312156150e6578182fd5b82356150f181615d93565b9150602083013567ffffffffffffffff81111561510c578182fd5b61511885828601614df3565b9150509250929050565b600080600060608486031215615136578081fd5b833561514181615d93565b9250602084013567ffffffffffffffff8082111561515d578283fd5b61516987838801614df3565b9350604086013591508082111561517e578283fd5b50614f8b86828701614df3565b6000806040838503121561519d578182fd5b82356151a881615d93565b915060208301356150c981615da8565b60008060008060008060c087890312156151d0578384fd5b86356151db81615d93565b955060208701356151eb81615d93565b945060408701356151fb81615d93565b935060608701359250608087013567ffffffffffffffff8082111561521e578384fd5b61522a8a838b01614e6a565b935060a089013591508082111561523f578283fd5b5061524c89828a01614e6a565b9150509295509295509295565b600080600080600080600060e0888a031215615273578485fd5b873561527e81615d93565b9650602088013561528e81615d93565b9550604088013561529e81615d93565b9450606088013593506080880135925060a088013567ffffffffffffffff808211156152c8578283fd5b6152d48b838c01614e6a565b935060c08a01359150808211156152e9578283fd5b506152f68a828b01614e6a565b91505092959891949750929550565b60008060408385031215615317578182fd5b823561532281615d93565b946020939093013593505050565b60008060008060808587031215615345578182fd5b843561535081615d93565b935060208501359250604085013561536781615d93565b9150606085013561537781615da8565b939692955090935050565b600060208284031215615393578081fd5b815160038110612eb2578182fd5b6000602082840312156153b2578081fd5b5051919050565b6000815180845260208085019450808401835b838110156153f15781516001600160a01b0316875295820195908201906001016153cc565b509495945050505050565b60008151808452615414816020860160208601615d67565b601f01601f19169290920160200192915050565b6001600160a01b0391909116815260200190565b6001600160a01b0392831681529116602082015260400190565b6001600160a01b038781168252868116602083015285166040820152606081018490526080810183905260c060a08201819052600090615498908301846153fc565b98975050505050505050565b6001600160a01b03848116825283166020820152606060408201819052600090613658908301846153fc565b6001600160a01b039384168152919092166020820152604081019190915260600190565b6001600160a01b03929092168252602082015260400190565b600060018060a01b03851682528360208301526060604083015261365860608301846153fc565b60006040825261554760408301856153b9565b828103602084015261365881856153b9565b6020808252825182820181905260009190848201906040850190845b8181101561559a5783516001600160a01b031683529284019291840191600101615575565b50909695505050505050565b901515815260200190565b6001600160a01b0394909416845260208401929092526040830152606082015260800190565b6001600160a01b0393841681529183166020830152909116604082015260600190565b600060208252612eb260208301846153fc565b60208082526015908201527420b2323932b9b9903737ba1034b71030b93930bc9760591b604082015260600190565b6020808252601a908201527f436f6d706f6e656e74206d757374206265206e65676174697665000000000000604082015260600190565b60208082526028908201527f4d75737420626520612076616c696420616e6420696e697469616c697a65642060408201526729b2ba2a37b5b2b760c11b606082015260800190565b602080825260119082015270135d5cdd08189948191a5999995c995b9d607a1b604082015260600190565b60208082526026908201527f4f776e61626c653a206e6577206f776e657220697320746865207a65726f206160408201526564647265737360d01b606082015260800190565b6020808252601b908201527f536166654d6174683a206164646974696f6e206f766572666c6f770000000000604082015260600190565b6020808252601e908201527f4d7573742062652070656e64696e6720696e697469616c697a6174696f6e0000604082015260600190565b6020808252600d908201526c05175616e74697479206973203609c1b604082015260600190565b60208082526011908201527018d51bdad95b881b5d5cdd08195e1a5cdd607a1b604082015260600190565b60208082526015908201527426bab9ba103132903b30b634b21030b230b83a32b960591b604082015260600190565b6020808252601190820152700a6d8d2e0e0c2ceca40e8dede40d0d2ced607b1b604082015260600190565b60208082526016908201527510dbdb1b185d195c985b081b9bdd08195b98589b195960521b604082015260600190565b602080825260129082015271109bdc9c9bddc81b9bdd08195b98589b195960721b604082015260600190565b6020808252818101527f53616665436173743a2076616c7565206d75737420626520706f736974697665604082015260600190565b60208082526018908201527f4f6e6c7920746865206d6f64756c652063616e2063616c6c0000000000000000604082015260600190565b60208082526018908201527f49737375616e6365206e6f7420696e697469616c697a65640000000000000000604082015260600190565b60208082526030908201527f45787465726e616c20706f736974696f6e73206d757374206265203020746f2060408201526f1c995b5bdd994818dbdb5c1bdb995b9d60821b606082015260800190565b60208082526021908201527f536166654d6174683a206d756c7469706c69636174696f6e206f766572666c6f6040820152607760f81b606082015260800190565b6020808252818101527f4f776e61626c653a2063616c6c6572206973206e6f7420746865206f776e6572604082015260600190565b6020808252601490820152732737ba1030b63637bbb2b21029b2ba2a37b5b2b760611b604082015260600190565b60208082526027908201527f5369676e6564536166654d6174683a206d756c7469706c69636174696f6e206f604082015266766572666c6f7760c81b606082015260800190565b6020808252601d908201527f496e76616c696420706f7374207472616e736665722062616c616e6365000000604082015260600190565b6020808252600d908201526c105b1c9958591e481859191959609a1b604082015260600190565b6020808252600e908201526d109bdc9c9bddc8195b98589b195960921b604082015260600190565b60208082526018908201527f5061737365642064617461206d757374206265206e756c6c0000000000000000604082015260600190565b60208082526028908201527f53616665436173743a2076616c756520646f65736e27742066697420696e2061604082015267371034b73a191a9b60c11b606082015260800190565b60208082526024908201527f4d6f64756c65206d75737420626520656e61626c6564206f6e20636f6e74726f604082015263363632b960e11b606082015260800190565b60208082526023908201527f4d75737420626520636f6e74726f6c6c65722d656e61626c656420536574546f60408201526235b2b760e91b606082015260800190565b6020808252601c908201527f4d7573742062652074686520536574546f6b656e206d616e6167657200000000604082015260600190565b60208082526012908201527110dbdb1b185d195c985b08195b98589b195960721b604082015260600190565b6020808252601f908201527f5265656e7472616e637947756172643a207265656e7472616e742063616c6c00604082015260600190565b602080825260099082015268139bdd08185919195960ba1b604082015260600190565b60208082526010908201526f043616e742064697669646520627920360841b604082015260600190565b90815260200190565b60405181810167ffffffffffffffff81118282101715615d1b57600080fd5b604052919050565b600067ffffffffffffffff821115615d39578081fd5b5060209081020190565b600067ffffffffffffffff821115615d59578081fd5b50601f01601f191660200190565b60005b83811015615d82578181015183820152602001615d6a565b83811115612e415750506000910152565b6001600160a01b038116811461498d57600080fd5b801515811461498d57600080fdfea26469706673582212207243f74d39a3eb37e679982da56f5274cf057385bafdda77cbe53959dd8e6fe864736f6c634300060a0033",
  "deployedBytecode": "",
  "linkReferences": {
    "contracts/protocol/integration/lib/Compound.sol": {
      "Compound": [
        {
          "length": 20,
          "start": 2555
        },
        {
          "length": 20,
          "start": 5342
        },
        {
          "length": 20,
          "start": 6039
        },
        {
          "length": 20,
          "start": 7199
        },
        {
          "length": 20,
          "start": 7742
        },
        {
          "length": 20,
          "start": 8076
        },
        {
          "length": 20,
          "start": 13161
        },
        {
          "length": 20,
          "start": 13586
        },
        {
          "length": 20,
          "start": 14463
        },
        {
          "length": 20,
          "start": 14611
        },
        {
          "length": 20,
          "start": 16240
        },
        {
          "length": 20,
          "start": 16335
        }
      ]
    }
  },
  "deployedLinkReferences": {
    "contracts/protocol/integration/lib/Compound.sol": {
      "Compound": [
        {
          "length": 20,
          "start": 1450
        },
        {
          "length": 20,
          "start": 4237
        },
        {
          "length": 20,
          "start": 4934
        },
        {
          "length": 20,
          "start": 6094
        },
        {
          "length": 20,
          "start": 6637
        },
        {
          "length": 20,
          "start": 6971
        },
        {
          "length": 20,
          "start": 12056
        },
        {
          "length": 20,
          "start": 12481
        },
        {
          "length": 20,
          "start": 13358
        },
        {
          "length": 20,
          "start": 13506
        },
        {
          "length": 20,
          "start": 15135
        },
        {
          "length": 20,
          "start": 15230
        }
      ]
    }
  }
}