{
  "_format": "hh-sol-artifact-1",
  "contractName": "CompoundLeverageModule",
  "sourceName": "contracts/protocol/modules/CompoundLeverageModule.sol",
  "abi": [
    {
      "inputs": [
        {
          "internalType": "contract IController",
          "name": "_controller",
          "type": "address"
        },
        {
          "internalType": "contract IERC20",
          "name": "_compToken",
          "type": "address"
        },
        {
          "internalType": "contract IComptroller",
          "name": "_comptroller",
          "type": "address"
        },
        {
          "internalType": "contract ICErc20",
          "name": "_cEther",
          "type": "address"
        },
        {
          "internalType": "contract IERC20",
          "name": "_weth",
          "type": "address"
        }
      ],
      "stateMutability": "nonpayable",
      "type": "constructor"
    },
    {
      "anonymous": false,
      "inputs": [
        {
          "indexed": true,
          "internalType": "bool",
          "name": "_anySetAllowed",
          "type": "bool"
        }
      ],
      "name": "AnySetAllowedUpdated",
      "type": "event"
    },
    {
      "anonymous": false,
      "inputs": [
        {
          "indexed": true,
          "internalType": "contract ISetToken",
          "name": "_setToken",
          "type": "address"
        },
        {
          "indexed": true,
          "internalType": "bool",
          "name": "_added",
          "type": "bool"
        },
        {
          "indexed": false,
          "internalType": "contract IERC20[]",
          "name": "_assets",
          "type": "address[]"
        }
      ],
      "name": "BorrowAssetsUpdated",
      "type": "event"
    },
    {
      "anonymous": false,
      "inputs": [
        {
          "indexed": true,
          "internalType": "contract ISetToken",
          "name": "_setToken",
          "type": "address"
        },
        {
          "indexed": true,
          "internalType": "contract IERC20",
          "name": "_collateralAsset",
          "type": "address"
        },
        {
          "indexed": false,
          "internalType": "contract IExchangeAdapter",
          "name": "_exchangeAdapter",
          "type": "address"
        },
        {
          "indexed": false,
          "internalType": "uint256",
          "name": "_totalCompClaimed",
          "type": "uint256"
        },
        {
          "indexed": false,
          "internalType": "uint256",
          "name": "_totalReceiveAmount",
          "type": "uint256"
        },
        {
          "indexed": false,
          "internalType": "uint256",
          "name": "_protocolFee",
          "type": "uint256"
        }
      ],
      "name": "COMPGulped",
      "type": "event"
    },
    {
      "anonymous": false,
      "inputs": [
        {
          "indexed": true,
          "internalType": "contract ISetToken",
          "name": "_setToken",
          "type": "address"
        },
        {
          "indexed": true,
          "internalType": "bool",
          "name": "_added",
          "type": "bool"
        },
        {
          "indexed": false,
          "internalType": "contract IERC20[]",
          "name": "_assets",
          "type": "address[]"
        }
      ],
      "name": "CollateralAssetsUpdated",
      "type": "event"
    },
    {
      "anonymous": false,
      "inputs": [
        {
          "indexed": true,
          "internalType": "contract ISetToken",
          "name": "_setToken",
          "type": "address"
        },
        {
          "indexed": true,
          "internalType": "contract IERC20",
          "name": "_collateralAsset",
          "type": "address"
        },
        {
          "indexed": true,
          "internalType": "contract IERC20",
          "name": "_repayAsset",
          "type": "address"
        },
        {
          "indexed": false,
          "internalType": "contract IExchangeAdapter",
          "name": "_exchangeAdapter",
          "type": "address"
        },
        {
          "indexed": false,
          "internalType": "uint256",
          "name": "_totalRedeemAmount",
          "type": "uint256"
        },
        {
          "indexed": false,
          "internalType": "uint256",
          "name": "_totalRepayAmount",
          "type": "uint256"
        },
        {
          "indexed": false,
          "internalType": "uint256",
          "name": "_protocolFee",
          "type": "uint256"
        }
      ],
      "name": "LeverageDecreased",
      "type": "event"
    },
    {
      "anonymous": false,
      "inputs": [
        {
          "indexed": true,
          "internalType": "contract ISetToken",
          "name": "_setToken",
          "type": "address"
        },
        {
          "indexed": true,
          "internalType": "contract IERC20",
          "name": "_borrowAsset",
          "type": "address"
        },
        {
          "indexed": true,
          "internalType": "contract IERC20",
          "name": "_collateralAsset",
          "type": "address"
        },
        {
          "indexed": false,
          "internalType": "contract IExchangeAdapter",
          "name": "_exchangeAdapter",
          "type": "address"
        },
        {
          "indexed": false,
          "internalType": "uint256",
          "name": "_totalBorrowAmount",
          "type": "uint256"
        },
        {
          "indexed": false,
          "internalType": "uint256",
          "name": "_totalReceiveAmount",
          "type": "uint256"
        },
        {
          "indexed": false,
          "internalType": "uint256",
          "name": "_protocolFee",
          "type": "uint256"
        }
      ],
      "name": "LeverageIncreased",
      "type": "event"
    },
    {
      "anonymous": false,
      "inputs": [
        {
          "indexed": true,
          "internalType": "address",
          "name": "previousOwner",
          "type": "address"
        },
        {
          "indexed": true,
          "internalType": "address",
          "name": "newOwner",
          "type": "address"
        }
      ],
      "name": "OwnershipTransferred",
      "type": "event"
    },
    {
      "anonymous": false,
      "inputs": [
        {
          "indexed": true,
          "internalType": "contract ISetToken",
          "name": "_setToken",
          "type": "address"
        },
        {
          "indexed": true,
          "internalType": "bool",
          "name": "_added",
          "type": "bool"
        }
      ],
      "name": "SetTokenStatusUpdated",
      "type": "event"
    },
    {
      "inputs": [
        {
          "internalType": "contract ISetToken",
          "name": "_setToken",
          "type": "address"
        },
        {
          "internalType": "contract IERC20[]",
          "name": "_newBorrowAssets",
          "type": "address[]"
        }
      ],
      "name": "addBorrowAssets",
      "outputs": [],
      "stateMutability": "nonpayable",
      "type": "function"
    },
    {
      "inputs": [
        {
          "internalType": "contract ISetToken",
          "name": "_setToken",
          "type": "address"
        },
        {
          "internalType": "contract IERC20[]",
          "name": "_newCollateralAssets",
          "type": "address[]"
        }
      ],
      "name": "addCollateralAssets",
      "outputs": [],
      "stateMutability": "nonpayable",
      "type": "function"
    },
    {
      "inputs": [
        {
          "internalType": "contract ICErc20",
          "name": "_cToken",
          "type": "address"
        },
        {
          "internalType": "contract IERC20",
          "name": "_underlying",
          "type": "address"
        }
      ],
      "name": "addCompoundMarket",
      "outputs": [],
      "stateMutability": "nonpayable",
      "type": "function"
    },
    {
      "inputs": [
        {
          "internalType": "contract ISetToken",
          "name": "",
          "type": "address"
        }
      ],
      "name": "allowedSetTokens",
      "outputs": [
        {
          "internalType": "bool",
          "name": "",
          "type": "bool"
        }
      ],
      "stateMutability": "view",
      "type": "function"
    },
    {
      "inputs": [],
      "name": "anySetAllowed",
      "outputs": [
        {
          "internalType": "bool",
          "name": "",
          "type": "bool"
        }
      ],
      "stateMutability": "view",
      "type": "function"
    },
    {
      "inputs": [
        {
          "internalType": "contract ISetToken",
          "name": "",
          "type": "address"
        },
        {
          "internalType": "contract ICErc20",
          "name": "",
          "type": "address"
        }
      ],
      "name": "borrowCTokenEnabled",
      "outputs": [
        {
          "internalType": "bool",
          "name": "",
          "type": "bool"
        }
      ],
      "stateMutability": "view",
      "type": "function"
    },
    {
      "inputs": [
        {
          "internalType": "contract ISetToken",
          "name": "",
          "type": "address"
        },
        {
          "internalType": "contract ICErc20",
          "name": "",
          "type": "address"
        }
      ],
      "name": "collateralCTokenEnabled",
      "outputs": [
        {
          "internalType": "bool",
          "name": "",
          "type": "bool"
        }
      ],
      "stateMutability": "view",
      "type": "function"
    },
    {
      "inputs": [
        {
          "internalType": "contract ISetToken",
          "name": "_setToken",
          "type": "address"
        },
        {
          "internalType": "uint256",
          "name": "_setTokenQuantity",
          "type": "uint256"
        },
        {
          "internalType": "contract IERC20",
          "name": "_component",
          "type": "address"
        },
        {
          "internalType": "bool",
          "name": "",
          "type": "bool"
        }
      ],
      "name": "componentIssueHook",
      "outputs": [],
      "stateMutability": "nonpayable",
      "type": "function"
    },
    {
      "inputs": [
        {
          "internalType": "contract ISetToken",
          "name": "_setToken",
          "type": "address"
        },
        {
          "internalType": "uint256",
          "name": "_setTokenQuantity",
          "type": "uint256"
        },
        {
          "internalType": "contract IERC20",
          "name": "_component",
          "type": "address"
        },
        {
          "internalType": "bool",
          "name": "",
          "type": "bool"
        }
      ],
      "name": "componentRedeemHook",
      "outputs": [],
      "stateMutability": "nonpayable",
      "type": "function"
    },
    {
      "inputs": [],
      "name": "controller",
      "outputs": [
        {
          "internalType": "contract IController",
          "name": "",
          "type": "address"
        }
      ],
      "stateMutability": "view",
      "type": "function"
    },
    {
      "inputs": [
        {
          "internalType": "contract ISetToken",
          "name": "_setToken",
          "type": "address"
        },
        {
          "internalType": "contract IERC20",
          "name": "_collateralAsset",
          "type": "address"
        },
        {
          "internalType": "contract IERC20",
          "name": "_repayAsset",
          "type": "address"
        },
        {
          "internalType": "uint256",
          "name": "_redeemQuantity",
          "type": "uint256"
        },
        {
          "internalType": "uint256",
          "name": "_minRepayQuantity",
          "type": "uint256"
        },
        {
          "internalType": "string",
          "name": "_tradeAdapterName",
          "type": "string"
        },
        {
          "internalType": "bytes",
          "name": "_tradeData",
          "type": "bytes"
        }
      ],
      "name": "delever",
      "outputs": [],
      "stateMutability": "nonpayable",
      "type": "function"
    },
    {
      "inputs": [
        {
          "internalType": "contract ISetToken",
          "name": "_setToken",
          "type": "address"
        }
      ],
      "name": "getEnabledAssets",
      "outputs": [
        {
          "internalType": "address[]",
          "name": "",
          "type": "address[]"
        },
        {
          "internalType": "address[]",
          "name": "",
          "type": "address[]"
        }
      ],
      "stateMutability": "view",
      "type": "function"
    },
    {
      "inputs": [
        {
          "internalType": "contract ISetToken",
          "name": "_setToken",
          "type": "address"
        },
        {
          "internalType": "contract IERC20",
          "name": "_collateralAsset",
          "type": "address"
        },
        {
          "internalType": "uint256",
          "name": "_minNotionalReceiveQuantity",
          "type": "uint256"
        },
        {
          "internalType": "string",
          "name": "_tradeAdapterName",
          "type": "string"
        },
        {
          "internalType": "bytes",
          "name": "_tradeData",
          "type": "bytes"
        }
      ],
      "name": "gulp",
      "outputs": [],
      "stateMutability": "nonpayable",
      "type": "function"
    },
    {
      "inputs": [
        {
          "internalType": "contract ISetToken",
          "name": "_setToken",
          "type": "address"
        },
        {
          "internalType": "contract IERC20[]",
          "name": "_collateralAssets",
          "type": "address[]"
        },
        {
          "internalType": "contract IERC20[]",
          "name": "_borrowAssets",
          "type": "address[]"
        }
      ],
      "name": "initialize",
      "outputs": [],
      "stateMutability": "nonpayable",
      "type": "function"
    },
    {
      "inputs": [
        {
          "internalType": "contract ISetToken",
          "name": "_setToken",
          "type": "address"
        },
        {
          "internalType": "contract IERC20",
          "name": "_borrowAsset",
          "type": "address"
        },
        {
          "internalType": "contract IERC20",
          "name": "_collateralAsset",
          "type": "address"
        },
        {
          "internalType": "uint256",
          "name": "_borrowQuantity",
          "type": "uint256"
        },
        {
          "internalType": "uint256",
          "name": "_minReceiveQuantity",
          "type": "uint256"
        },
        {
          "internalType": "string",
          "name": "_tradeAdapterName",
          "type": "string"
        },
        {
          "internalType": "bytes",
          "name": "_tradeData",
          "type": "bytes"
        }
      ],
      "name": "lever",
      "outputs": [],
      "stateMutability": "nonpayable",
      "type": "function"
    },
    {
      "inputs": [
        {
          "internalType": "contract ISetToken",
          "name": "_setToken",
          "type": "address"
        },
        {
          "internalType": "uint256",
          "name": "",
          "type": "uint256"
        }
      ],
      "name": "moduleIssueHook",
      "outputs": [],
      "stateMutability": "nonpayable",
      "type": "function"
    },
    {
      "inputs": [
        {
          "internalType": "contract ISetToken",
          "name": "_setToken",
          "type": "address"
        },
        {
          "internalType": "uint256",
          "name": "",
          "type": "uint256"
        }
      ],
      "name": "moduleRedeemHook",
      "outputs": [],
      "stateMutability": "nonpayable",
      "type": "function"
    },
    {
      "inputs": [],
      "name": "owner",
      "outputs": [
        {
          "internalType": "address",
          "name": "",
          "type": "address"
        }
      ],
      "stateMutability": "view",
      "type": "function"
    },
    {
      "inputs": [
        {
          "internalType": "contract ISetToken",
          "name": "_setToken",
          "type": "address"
        },
        {
          "internalType": "contract IDebtIssuanceModule",
          "name": "_debtIssuanceModule",
          "type": "address"
        }
      ],
      "name": "registerToModule",
      "outputs": [],
      "stateMutability": "nonpayable",
      "type": "function"
    },
    {
      "inputs": [
        {
          "internalType": "contract ISetToken",
          "name": "_setToken",
          "type": "address"
        },
        {
          "internalType": "contract IERC20[]",
          "name": "_borrowAssets",
          "type": "address[]"
        }
      ],
      "name": "removeBorrowAssets",
      "outputs": [],
      "stateMutability": "nonpayable",
      "type": "function"
    },
    {
      "inputs": [
        {
          "internalType": "contract ISetToken",
          "name": "_setToken",
          "type": "address"
        },
        {
          "internalType": "contract IERC20[]",
          "name": "_collateralAssets",
          "type": "address[]"
        }
      ],
      "name": "removeCollateralAssets",
      "outputs": [],
      "stateMutability": "nonpayable",
      "type": "function"
    },
    {
      "inputs": [
        {
          "internalType": "contract IERC20",
          "name": "_underlying",
          "type": "address"
        }
      ],
      "name": "removeCompoundMarket",
      "outputs": [],
      "stateMutability": "nonpayable",
      "type": "function"
    },
    {
      "inputs": [],
      "name": "removeModule",
      "outputs": [],
      "stateMutability": "nonpayable",
      "type": "function"
    },
    {
      "inputs": [],
      "name": "renounceOwnership",
      "outputs": [],
      "stateMutability": "nonpayable",
      "type": "function"
    },
    {
      "inputs": [
        {
          "internalType": "contract ISetToken",
          "name": "_setToken",
          "type": "address"
        },
        {
          "internalType": "bool",
          "name": "_shouldAccrueInterest",
          "type": "bool"
        }
      ],
      "name": "sync",
      "outputs": [],
      "stateMutability": "nonpayable",
      "type": "function"
    },
    {
      "inputs": [
        {
          "internalType": "address",
          "name": "newOwner",
          "type": "address"
        }
      ],
      "name": "transferOwnership",
      "outputs": [],
      "stateMutability": "nonpayable",
      "type": "function"
    },
    {
      "inputs": [
        {
          "internalType": "contract IERC20",
          "name": "",
          "type": "address"
        }
      ],
      "name": "underlyingToCToken",
      "outputs": [
        {
          "internalType": "contract ICErc20",
          "name": "",
          "type": "address"
        }
      ],
      "stateMutability": "view",
      "type": "function"
    },
    {
      "inputs": [
        {
          "internalType": "contract ISetToken",
          "name": "_setToken",
          "type": "address"
        },
        {
          "internalType": "bool",
          "name": "_status",
          "type": "bool"
        }
      ],
      "name": "updateAllowedSetToken",
      "outputs": [],
      "stateMutability": "nonpayable",
      "type": "function"
    },
    {
      "inputs": [
        {
          "internalType": "bool",
          "name": "_anySetAllowed",
          "type": "bool"
        }
      ],
      "name": "updateAnySetAllowed",
      "outputs": [],
      "stateMutability": "nonpayable",
      "type": "function"
    }
  ],
  "bytecode": "0x60806040523480156200001157600080fd5b506040516200622838038062006228833981016040819052620000349162000382565b600080546001600160a01b0319166001600160a01b038716178155600180556200005d62000290565b600280546001600160a01b0319166001600160a01b038316908117909155604051919250906000907f8be0079c531659141344cd1fd0a4f28419497f9722a3daafe3b4186f6b6457e0908290a350600780546001600160a01b03199081166001600160a01b03878116919091179092556006805482168684161790819055600580548316868516179055600480549092168484161782556040805163b0772d0b60e01b81529051606094929092169263b0772d0b928282019260009290829003018186803b1580156200012f57600080fd5b505afa15801562000144573d6000803e3d6000fd5b505050506040513d6000823e601f3d908101601f191682016040526200016e9190810190620002cd565b905060005b8151811015620002835760008282815181106200018c57fe5b602002602001015190508060036000876001600160a01b0316846001600160a01b0316146200024657858581518110620001c257fe5b60200260200101516001600160a01b0316636f307dc36040518163ffffffff1660e01b8152600401602060405180830381600087803b1580156200020557600080fd5b505af11580156200021a573d6000803e3d6000fd5b505050506040513d601f19601f82011682018060405250810190620002409190620002a7565b62000248565b865b6001600160a01b039081168252602082019290925260400160002080546001600160a01b031916929091169190911790555060010162000173565b5050505050505062000441565b3390565b8051620002a18162000428565b92915050565b600060208284031215620002b9578081fd5b8151620002c68162000428565b9392505050565b60006020808385031215620002e0578182fd5b82516001600160401b0380821115620002f7578384fd5b81850186601f82011262000309578485fd5b80519250818311156200031a578485fd5b83830291506200032c84830162000401565b8381528481019082860184840187018a101562000347578788fd5b8794505b858510156200037557620003608a8262000294565b8352600194909401939186019186016200034b565b5098975050505050505050565b600080600080600060a086880312156200039a578081fd5b8551620003a78162000428565b6020870151909550620003ba8162000428565b6040870151909450620003cd8162000428565b6060870151909350620003e08162000428565b6080870151909250620003f38162000428565b809150509295509295909350565b6040518181016001600160401b03811182821017156200042057600080fd5b604052919050565b6001600160a01b03811681146200043e57600080fd5b50565b615dd780620004516000396000f3fe608060405234801561001057600080fd5b50600436106101cf5760003560e01c8063847ef08d11610104578063c690a74c116100a2578063f2fde38b11610071578063f2fde38b146103b6578063f452c760146103c9578063f77c4791146103dc578063ffbad25c146103e4576101cf565b8063c690a74c1461036a578063cffe5e821461037d578063d473e09a14610390578063ee78244f146103a3576101cf565b8063b1c02678116100de578063b1c026781461031b578063b1dd4d921461033c578063c137f4d714610344578063c153dd0714610357576101cf565b8063847ef08d146102d55780638da5cb5b146102dd578063a6e937b1146102fb576101cf565b8063516595fc116101715780635b1365121161014b5780635b136512146102945780635ce0cef6146102a7578063715018a6146102ba578063717ca2a5146102c2576101cf565b8063516595fc1461025b5780635199e4181461026e5780635809ae2714610281576101cf565b80631fb2b0c1116101ad5780631fb2b0c11461020f5780633fe6106b146102225780634a200fa5146102355780634fdd283c14610248576101cf565b8063013c03a1146101d45780630df96ef6146101e95780630fb96b21146101fc575b600080fd5b6101e76101e2366004614ea6565b6103f7565b005b6101e76101f7366004615075565b610493565b6101e761020a3660046152c0565b6106ff565b6101e761021d366004615205565b610944565b6101e7610230366004615295565b610b26565b6101e76102433660046150c3565b610c79565b6101e7610256366004615159565b610fd1565b6101e7610269366004615075565b611174565b6101e761027c366004614fd2565b6113d7565b6101e761028f366004615075565b611449565b6101e76102a236600461503d565b611658565b6101e76102b536600461503d565b611796565b6101e7611833565b6101e76102d0366004615075565b6118b2565b6101e7611af8565b6102e5611f36565b6040516102f291906153b8565b60405180910390f35b61030e61030936600461503d565b611f46565b6040516102f29190615536565b61032e610329366004614ea6565b611f66565b6040516102f29291906154c4565b61030e612044565b6101e76103523660046152c0565b61204d565b6101e7610365366004615295565b612285565b6101e761037836600461512c565b6123d3565b6101e761038b36600461512c565b61245c565b6102e561039e366004614ea6565b612858565b61030e6103b1366004614ea6565b612873565b6101e76103c4366004614ea6565b612888565b61030e6103d736600461503d565b61293f565b6102e561295f565b6101e76103f2366004615159565b61296e565b6103ff612af3565b6002546001600160a01b039081169116146104355760405162461bcd60e51b815260040161042c9061599d565b60405180910390fd5b6001600160a01b038181166000908152600360205260409020541661046c5760405162461bcd60e51b815260040161042c90615c91565b6001600160a01b0316600090815260036020526040902080546001600160a01b0319169055565b8161049e8133612af7565b6104ba5760405162461bcd60e51b815260040161042c90615bf7565b6104c381612b87565b6104df5760405162461bcd60e51b815260040161042c9061563a565b6104ea83600161245c565b60005b82518110156106b45760006003600085848151811061050857fe5b6020908102919091018101516001600160a01b039081168352828201939093526040918201600090812054898516825260098352838220941680825293909152205490915060ff1661056c5760405162461bcd60e51b815260040161042c9061583d565b6001600160a01b0380861660009081526008602090815260408083209385168352929052205460ff1661061357600654604051629c09c960e41b815273__$059b1e3c35e6526bf44b3e0b6a2a76e329$__916309c09c90916105e2916001600160a01b03808b1692879290911690600401615567565b60006040518083038186803b1580156105fa57600080fd5b505af415801561060e573d6000803e3d6000fd5b505050505b6001600160a01b0380861660008181526009602090815260408083209486168352938152838220805460ff19169055918152600a9091522061065e906001018263ffffffff612c8b16565b6106ab84838151811061066d57fe5b6020026020010151600a6000886001600160a01b03166001600160a01b03168152602001908152602001600020600201612c8b90919063ffffffff16565b506001016104ed565b5060001515836001600160a01b03167f1c400b459725a0446742d6688375dffe941d5f9a65fe3900c93e07d9e772250b846040516106f291906154e9565b60405180910390a3505050565b836002604051631ade272960e11b81526001600160a01b038316906335bc4e529061072e9033906004016153b8565b60206040518083038186803b15801561074657600080fd5b505afa15801561075a573d6000803e3d6000fd5b505050506040513d601f19601f8201168201806040525081019061077e9190615312565b600281111561078957fe5b146107a65760405162461bcd60e51b815260040161042c9061589e565b6000546040516342f6e38960e01b81526001600160a01b03909116906342f6e389906107d69033906004016153b8565b60206040518083038186803b1580156107ee57600080fd5b505afa158015610802573d6000803e3d6000fd5b505050506040513d601f19601f820116820180604052508101906108269190614fee565b6108425760405162461bcd60e51b815260040161042c90615b70565b6040516308bafae960e21b81526000906001600160a01b038716906322ebeba49061087390879030906004016153cc565b60206040518083038186803b15801561088b57600080fd5b505afa15801561089f573d6000803e3d6000fd5b505050506040513d601f19601f820116820180604052508101906108c39190615331565b9050600081126108e55760405162461bcd60e51b815260040161042c906155cc565b6000610911866109056109008560001963ffffffff612db816565b612e2a565b9063ffffffff612e5016565b6001600160a01b0380871660009081526003602052604090205491925061093b9189911683612e7a565b50505050505050565b600260015414156109675760405162461bcd60e51b815260040161042c90615c5a565b6002600155846109778133612af7565b6109935760405162461bcd60e51b815260040161042c90615bf7565b61099c81612b87565b6109b85760405162461bcd60e51b815260040161042c9061563a565b6006546040516374d7814960e11b81526001600160a01b039091169063e9af0292906109e89089906004016153b8565b600060405180830381600087803b158015610a0257600080fd5b505af1158015610a16573d6000803e3d6000fd5b50505050610a22614cf8565b610a2d878786612f26565b60075490915060009081906001600160a01b0389811691161415610a56575060e0820151610a8d565b610a8789600760009054906101000a90046001600160a01b03168a86606001518b8860e0015189602001518c6131b9565b90925090505b610a9d898460a001518a84613252565b610abe898460a00151610ab98c8760a001518860400151613396565b613430565b876001600160a01b0316896001600160a01b03167f932134a98b04e2bf7762222947f1a5f48339146014b64e4f4bba8de5e8cfd181856020015186606001518587604051610b0f9493929190615541565b60405180910390a350506001805550505050505050565b816002604051631ade272960e11b81526001600160a01b038316906335bc4e5290610b559033906004016153b8565b60206040518083038186803b158015610b6d57600080fd5b505afa158015610b81573d6000803e3d6000fd5b505050506040513d601f19601f82011682018060405250810190610ba59190615312565b6002811115610bb057fe5b14610bcd5760405162461bcd60e51b815260040161042c9061589e565b6000546040516342f6e38960e01b81526001600160a01b03909116906342f6e38990610bfd9033906004016153b8565b60206040518083038186803b158015610c1557600080fd5b505afa158015610c29573d6000803e3d6000fd5b505050506040513d601f19601f82011682018060405250810190610c4d9190614fee565b610c695760405162461bcd60e51b815260040161042c90615b70565b610c7483600161245c565b505050565b8233610c858282612af7565b610ca15760405162461bcd60e51b815260040161042c90615bf7565b600054604051631d3af8fb60e21b815286916001600160a01b0316906374ebe3ec90610cd19084906004016153b8565b60206040518083038186803b158015610ce957600080fd5b505afa158015610cfd573d6000803e3d6000fd5b505050506040513d601f19601f82011682018060405250810190610d219190614fee565b610d3d5760405162461bcd60e51b815260040161042c90615bb4565b610d468161344a565b610d625760405162461bcd60e51b815260040161042c9061572a565b600c5460ff16610da4576001600160a01b0386166000908152600b602052604090205460ff16610da45760405162461bcd60e51b815260040161042c906159d2565b856001600160a01b0316630ffe0f1e6040518163ffffffff1660e01b8152600401600060405180830381600087803b158015610ddf57600080fd5b505af1158015610df3573d6000803e3d6000fd5b50505050856001600160a01b031663d7f1b27c610e3c6040518060400160405280601581526020017444656661756c7449737375616e63654d6f64756c6560581b815250613479565b6040518263ffffffff1660e01b8152600401610e5891906153b8565b60206040518083038186803b158015610e7057600080fd5b505afa158015610e84573d6000803e3d6000fd5b505050506040513d601f19601f82011682018060405250810190610ea89190614fee565b610ec45760405162461bcd60e51b815260040161042c906158d5565b6060866001600160a01b031663b2494df36040518163ffffffff1660e01b815260040160006040518083038186803b158015610eff57600080fd5b505afa158015610f13573d6000803e3d6000fd5b505050506040513d6000823e601f3d908101601f19168201604052610f3b9190810190614f36565b905060005b8151811015610fbc57818181518110610f5557fe5b60200260200101516001600160a01b031663d9b1b6e0896040518263ffffffff1660e01b8152600401610f8891906153b8565b600060405180830381600087803b158015610fa257600080fd5b505af1925050508015610fb3575060015b50600101610f40565b50610fc787876118b2565b61093b8786611174565b60026001541415610ff45760405162461bcd60e51b815260040161042c90615c5a565b6002600155866110048133612af7565b6110205760405162461bcd60e51b815260040161042c90615bf7565b61102981612b87565b6110455760405162461bcd60e51b815260040161042c9061563a565b61104d614cf8565b61105d8989898989896000613490565b905061106881613699565b61107f81600001518260a001518360600151613792565b6000806110a28b8b8b866060015187608001518860e0015189602001518c6131b9565b915091506110ba83600001518460c001518b846137d6565b825160a084015160408501516110d9929190610ab99083908390613396565b61110083600001518a6110fb86600001518760c00151886040015160006138af565b6139fe565b886001600160a01b03168a6001600160a01b03168c6001600160a01b03167f7cda30123ddfc96659344700585861a8670352b9cc86d1b1054d10083b1dcdd486602001518760600151868860405161115b9493929190615541565b60405180910390a4505060018055505050505050505050565b8161117f8133612af7565b61119b5760405162461bcd60e51b815260040161042c90615bf7565b6111a481612b87565b6111c05760405162461bcd60e51b815260040161042c9061563a565b60005b82518110156113995760008382815181106111da57fe5b6020908102919091018101516001600160a01b038082166000908152600390935260409092205490925016806112225760405162461bcd60e51b815260040161042c90615788565b6001600160a01b0380871660009081526009602090815260408083209385168352929052205460ff16156112685760405162461bcd60e51b815260040161042c90615aa5565b6001600160a01b0380871660009081526008602090815260408083209385168352929052205460ff1661131057600654604051632c5febc760e21b815273__$059b1e3c35e6526bf44b3e0b6a2a76e329$__9163b17faf1c916112df916001600160a01b03808c1692879290911690600401615567565b60006040518083038186803b1580156112f757600080fd5b505af415801561130b573d6000803e3d6000fd5b505050505b6001600160a01b0386811660008181526009602090815260408083209585168084529582528083208054600160ff199091168117909155938352600a82528220808401805480860182559084528284200180546001600160a01b0319908116909717905560020180548085018255908352912001805490931693909116929092179055016111c3565b5060011515836001600160a01b03167f1c400b459725a0446742d6688375dffe941d5f9a65fe3900c93e07d9e772250b846040516106f291906154e9565b6113df612af3565b6002546001600160a01b0390811691161461140c5760405162461bcd60e51b815260040161042c9061599d565b600c805460ff19168215159081179091556040517f563e1633136cdd43b8793897cb53ba2a9e31c18b3ae0b6827fbbb03b9902e6c690600090a250565b816114548133612af7565b6114705760405162461bcd60e51b815260040161042c90615bf7565b61147981612b87565b6114955760405162461bcd60e51b815260040161042c9061563a565b6114a083600161245c565b60005b825181101561161a576000600360008584815181106114be57fe5b6020908102919091018101516001600160a01b039081168352828201939093526040918201600090812054898516825260088352838220941680825293909152205490915060ff166115225760405162461bcd60e51b815260040161042c9061580d565b6001600160a01b0380861660009081526009602090815260408083209385168352929052205460ff166115c957600654604051629c09c960e41b815273__$059b1e3c35e6526bf44b3e0b6a2a76e329$__916309c09c9091611598916001600160a01b03808b1692879290911690600401615567565b60006040518083038186803b1580156115b057600080fd5b505af41580156115c4573d6000803e3d6000fd5b505050505b6001600160a01b0380861660008181526008602090815260408083209486168352938152838220805460ff19169055918152600a90915220611611908263ffffffff612c8b16565b506001016114a3565b5060001515836001600160a01b03167fdd2a86f23a66f86496c82312e991b49f87ad96c4f25094a43c49f7aca0ea3542846040516106f291906154e9565b816116638133612af7565b61167f5760405162461bcd60e51b815260040161042c90615bf7565b61168881612b87565b6116a45760405162461bcd60e51b815260040161042c9061563a565b6040516335fc6c9f60e21b81526001600160a01b0384169063d7f1b27c906116d09085906004016153b8565b60206040518083038186803b1580156116e857600080fd5b505afa1580156116fc573d6000803e3d6000fd5b505050506040513d601f19601f820116820180604052508101906117209190614fee565b61173c5760405162461bcd60e51b815260040161042c906158d5565b6040516306cd8db760e51b81526001600160a01b0383169063d9b1b6e0906117689086906004016153b8565b600060405180830381600087803b15801561178257600080fd5b505af115801561093b573d6000803e3d6000fd5b61179e612af3565b6002546001600160a01b039081169116146117cb5760405162461bcd60e51b815260040161042c9061599d565b6001600160a01b0381811660009081526003602052604090205416156118035760405162461bcd60e51b815260040161042c90615a7e565b6001600160a01b0390811660009081526003602052604090208054919092166001600160a01b0319909116179055565b61183b612af3565b6002546001600160a01b039081169116146118685760405162461bcd60e51b815260040161042c9061599d565b6002546040516000916001600160a01b0316907f8be0079c531659141344cd1fd0a4f28419497f9722a3daafe3b4186f6b6457e0908390a3600280546001600160a01b0319169055565b816118bd8133612af7565b6118d95760405162461bcd60e51b815260040161042c90615bf7565b6118e281612b87565b6118fe5760405162461bcd60e51b815260040161042c9061563a565b60005b8251811015611aba5760006003600085848151811061191c57fe5b6020908102919091018101516001600160a01b0390811683529082019290925260400160002054169050806119635760405162461bcd60e51b815260040161042c90615788565b6001600160a01b0380861660009081526008602090815260408083209385168352929052205460ff16156119a95760405162461bcd60e51b815260040161042c90615c2e565b6001600160a01b0380861660009081526009602090815260408083209385168352929052205460ff16611a5157600654604051632c5febc760e21b815273__$059b1e3c35e6526bf44b3e0b6a2a76e329$__9163b17faf1c91611a20916001600160a01b03808b1692879290911690600401615567565b60006040518083038186803b158015611a3857600080fd5b505af4158015611a4c573d6000803e3d6000fd5b505050505b6001600160a01b03808616600081815260086020908152604080832095909416808352948152838220805460ff19166001908117909155928252600a81529281208054808401825590825292902090910180546001600160a01b03191690921790915501611901565b5060011515836001600160a01b03167fdd2a86f23a66f86496c82312e991b49f87ad96c4f25094a43c49f7aca0ea3542846040516106f291906154e9565b33611b0281612b87565b611b1e5760405162461bcd60e51b815260040161042c9061563a565b33611b2a81600161245c565b6001600160a01b0381166000908152600a6020908152604091829020600101805483518184028101840190945280845260609392830182828015611b9757602002820191906000526020600020905b81546001600160a01b03168152600190910190602001808311611b79575b50939450600093505050505b8151811015611ca8576000828281518110611bba57fe5b6020908102919091018101516001600160a01b0380871660009081526008845260408082209284168252919093529091205490915060ff16611c7057600654604051629c09c960e41b815273__$059b1e3c35e6526bf44b3e0b6a2a76e329$__916309c09c9091611c3f916001600160a01b03808a1692879290911690600401615567565b60006040518083038186803b158015611c5757600080fd5b505af4158015611c6b573d6000803e3d6000fd5b505050505b6001600160a01b038085166000908152600960209081526040808320949093168252929092529020805460ff19169055600101611ba3565b506001600160a01b0382166000908152600a6020908152604091829020805483518184028101840190945280845260609392830182828015611d1357602002820191906000526020600020905b81546001600160a01b03168152600190910190602001808311611cf5575b50939450600093505050505b8151811015611df4576000828281518110611d3657fe5b6020908102919091010151600654604051629c09c960e41b815291925073__$059b1e3c35e6526bf44b3e0b6a2a76e329$__916309c09c9091611d8c916001600160a01b03808b16928792911690600401615567565b60006040518083038186803b158015611da457600080fd5b505af4158015611db8573d6000803e3d6000fd5b505050506001600160a01b038581166000908152600860209081526040808320949093168252929092529020805460ff19169055600101611d1f565b506001600160a01b0383166000908152600a6020526040812090611e188282614d61565b611e26600183016000614d61565b611e34600283016000614d61565b50506060836001600160a01b031663b2494df36040518163ffffffff1660e01b815260040160006040518083038186803b158015611e7157600080fd5b505afa158015611e85573d6000803e3d6000fd5b505050506040513d6000823e601f3d908101601f19168201604052611ead9190810190614f36565b905060005b8151811015611f2e57818181518110611ec757fe5b60200260200101516001600160a01b031663e0799620866040518263ffffffff1660e01b8152600401611efa91906153b8565b600060405180830381600087803b158015611f1457600080fd5b505af1925050508015611f25575060015b50600101611eb2565b505050505050565b6002546001600160a01b03165b90565b600860209081526000928352604080842090915290825290205460ff1681565b6001600160a01b0381166000908152600a60209081526040918290208054835181840281018401909452808452606093849360028401928491830182828015611fd857602002820191906000526020600020905b81546001600160a01b03168152600190910190602001808311611fba575b505050505091508080548060200260200160405190810160405280929190818152602001828054801561203457602002820191906000526020600020905b81546001600160a01b03168152600190910190602001808311612016575b5050505050905091509150915091565b600c5460ff1681565b836002604051631ade272960e11b81526001600160a01b038316906335bc4e529061207c9033906004016153b8565b60206040518083038186803b15801561209457600080fd5b505afa1580156120a8573d6000803e3d6000fd5b505050506040513d601f19601f820116820180604052508101906120cc9190615312565b60028111156120d757fe5b146120f45760405162461bcd60e51b815260040161042c9061589e565b6000546040516342f6e38960e01b81526001600160a01b03909116906342f6e389906121249033906004016153b8565b60206040518083038186803b15801561213c57600080fd5b505afa158015612150573d6000803e3d6000fd5b505050506040513d601f19601f820116820180604052508101906121749190614fee565b6121905760405162461bcd60e51b815260040161042c90615b70565b6040516308bafae960e21b81526000906001600160a01b038716906322ebeba4906121c190879030906004016153cc565b60206040518083038186803b1580156121d957600080fd5b505afa1580156121ed573d6000803e3d6000fd5b505050506040513d601f19601f820116820180604052508101906122119190615331565b9050600081126122335760405162461bcd60e51b815260040161042c906155cc565b600061225a8661224e6109008560001963ffffffff612db816565b9063ffffffff613a2d16565b6001600160a01b0380871660009081526003602052604090205491925061093b9189911687846137d6565b816002604051631ade272960e11b81526001600160a01b038316906335bc4e52906122b49033906004016153b8565b60206040518083038186803b1580156122cc57600080fd5b505afa1580156122e0573d6000803e3d6000fd5b505050506040513d601f19601f820116820180604052508101906123049190615312565b600281111561230f57fe5b1461232c5760405162461bcd60e51b815260040161042c9061589e565b6000546040516342f6e38960e01b81526001600160a01b03909116906342f6e3899061235c9033906004016153b8565b60206040518083038186803b15801561237457600080fd5b505afa158015612388573d6000803e3d6000fd5b505050506040513d601f19601f820116820180604052508101906123ac9190614fee565b6123c85760405162461bcd60e51b815260040161042c90615b70565b610c7483600061245c565b6123db612af3565b6002546001600160a01b039081169116146124085760405162461bcd60e51b815260040161042c9061599d565b6001600160a01b0382166000818152600b6020526040808220805460ff191685151590811790915590519092917f2035981b48691b10f6ac65174e570b4d0a8a889ae01bef3e5e7759ff9444f0c491a35050565b6002600154141561247f5760405162461bcd60e51b815260040161042c90615c5a565b60026001558161248e81612b87565b6124aa5760405162461bcd60e51b815260040161042c9061563a565b6000836001600160a01b03166318160ddd6040518163ffffffff1660e01b815260040160206040518083038186803b1580156124e557600080fd5b505afa1580156124f9573d6000803e3d6000fd5b505050506040513d601f19601f8201168201806040525081019061251d9190615331565b9050801561284e576001600160a01b0384166000908152600a602090815260409182902080548351818402810184019094528084526060939283018282801561258f57602002820191906000526020600020905b81546001600160a01b03168152600190910190602001808311612571575b50939450600093505050505b815181101561266b5760008282815181106125b257fe5b60200260200101519050600061263d886001600160a01b03166366cb8d2f846040518263ffffffff1660e01b81526004016125ed91906153b8565b60206040518083038186803b15801561260557600080fd5b505afa158015612619573d6000803e3d6000fd5b505050506040513d601f19601f820116820180604052508101906109009190615331565b9050600061264c898488613396565b905080821461266057612660898483613430565b50505060010161259b565b506001600160a01b0385166000908152600a60209081526040918290206001018054835181840281018401909452808452606093928301828280156126d957602002820191906000526020600020905b81546001600160a01b031681526001909101906020018083116126bb575b5050506001600160a01b0389166000908152600a60209081526040918290206002018054835181840281018401909452808452959650606095929450925083018282801561275057602002820191906000526020600020905b81546001600160a01b03168152600190910190602001808311612732575b50939450600093505050505b825181101561284957600083828151811061277357fe5b60200260200101519050600083838151811061278b57fe5b6020026020010151905060008a6001600160a01b03166322ebeba483306040518363ffffffff1660e01b81526004016127c59291906153cc565b60206040518083038186803b1580156127dd57600080fd5b505afa1580156127f1573d6000803e3d6000fd5b505050506040513d601f19601f820116820180604052508101906128159190615331565b905060006128258c858b8e6138af565b9050818114612839576128398c84836139fe565b50506001909201915061275c9050565b505050505b5050600180555050565b6003602052600090815260409020546001600160a01b031681565b600b6020526000908152604090205460ff1681565b612890612af3565b6002546001600160a01b039081169116146128bd5760405162461bcd60e51b815260040161042c9061599d565b6001600160a01b0381166128e35760405162461bcd60e51b815260040161042c906156ad565b6002546040516001600160a01b038084169216907f8be0079c531659141344cd1fd0a4f28419497f9722a3daafe3b4186f6b6457e090600090a3600280546001600160a01b0319166001600160a01b0392909216919091179055565b600960209081526000928352604080842090915290825290205460ff1681565b6000546001600160a01b031681565b600260015414156129915760405162461bcd60e51b815260040161042c90615c5a565b6002600155866129a18133612af7565b6129bd5760405162461bcd60e51b815260040161042c90615bf7565b6129c681612b87565b6129e25760405162461bcd60e51b815260040161042c9061563a565b6129ea614cf8565b6129fa8989898989896001613490565b9050612a0581613699565b612a1c81600001518260c001518360600151612e7a565b600080612a3f8b8b8b866060015187608001518860e0015189602001518c6131b9565b91509150612a5783600001518460a001518b84613252565b825160a08401516040850151612a76929190610ab99083908390613396565b612a9883600001518b6110fb86600001518760c00151886040015160006138af565b886001600160a01b03168a6001600160a01b03168c6001600160a01b03167f359f8b62a966cfd521a3815681266407201b20a7c334925faa49e7d9d5dd57ab86602001518760600151868860405161115b9493929190615541565b3390565b6000816001600160a01b0316836001600160a01b031663481c6a756040518163ffffffff1660e01b815260040160206040518083038186803b158015612b3c57600080fd5b505afa158015612b50573d6000803e3d6000fd5b505050506040513d601f19601f82011682018060405250810190612b749190614ec2565b6001600160a01b03161490505b92915050565b60008054604051631d3af8fb60e21b81526001600160a01b03909116906374ebe3ec90612bb89085906004016153b8565b60206040518083038186803b158015612bd057600080fd5b505afa158015612be4573d6000803e3d6000fd5b505050506040513d601f19601f82011682018060405250810190612c089190614fee565b8015612b8157506040516335fc6c9f60e21b81526001600160a01b0383169063d7f1b27c90612c3b9030906004016153b8565b60206040518083038186803b158015612c5357600080fd5b505afa158015612c67573d6000803e3d6000fd5b505050506040513d601f19601f82011682018060405250810190612b819190614fee565b600080612cf184805480602002602001604051908101604052809291908181526020018280548015612ce657602002820191906000526020600020905b81546001600160a01b03168152600190910190602001808311612cc8575b505050505084613a78565b9150915080612d125760405162461bcd60e51b815260040161042c9061559d565b835460001901828114612d8457848181548110612d2b57fe5b9060005260206000200160009054906101000a90046001600160a01b0316858481548110612d5557fe5b9060005260206000200160006101000a8154816001600160a01b0302191690836001600160a01b031602179055505b84805480612d8e57fe5b600082815260209020810160001990810180546001600160a01b0319169055019055505b50505050565b600082612dc757506000612b81565b82600019148015612ddb5750600160ff1b82145b15612df85760405162461bcd60e51b815260040161042c90615a00565b82820282848281612e0557fe5b0514612e235760405162461bcd60e51b815260040161042c90615a00565b9392505050565b600080821215612e4c5760405162461bcd60e51b815260040161042c90615869565b5090565b6000612e23670de0b6b3a7640000612e6e858563ffffffff613ade16565b9063ffffffff613b1816565b60405163beee4b4b60e01b815273__$059b1e3c35e6526bf44b3e0b6a2a76e329$__9063beee4b4b90612ebe906001600160a01b0387169086908690600401615460565b60006040518083038186803b158015612ed657600080fd5b505af4158015612eea573d6000803e3d6000fd5b50506005546001600160a01b03858116911614159150610c74905057600454610c74906001600160a01b0385811691168363ffffffff613b5a16565b612f2e614cf8565b6001600160a01b0380841660009081526003602090815260408083205488851684526008835281842094168084529390915290205460ff16612f825760405162461bcd60e51b815260040161042c90615603565b612f8a614cf8565b6001600160a01b03821660a0820152612fa284613479565b81602001906001600160a01b031690816001600160a01b031681525050856001600160a01b03166318160ddd6040518163ffffffff1660e01b815260040160206040518083038186803b158015612ff857600080fd5b505afa15801561300c573d6000803e3d6000fd5b505050506040513d601f19601f820116820180604052508101906130309190615331565b604080830191909152516370a0823160e01b81526001600160a01b038616906370a08231906130639089906004016153b8565b60206040518083038186803b15801561307b57600080fd5b505afa15801561308f573d6000803e3d6000fd5b505050506040513d601f19601f820116820180604052508101906130b39190615331565b60e082015260408082015160075491516366cb8d2f60e01b81526000926130f99291610905916001600160a01b03808d16926366cb8d2f926125ed9216906004016153b8565b6007546040516370a0823160e01b815291925061318c9183916001600160a01b0316906370a0823190613130908c906004016153b8565b60206040518083038186803b15801561314857600080fd5b505afa15801561315c573d6000803e3d6000fd5b505050506040513d601f19601f820116820180604052508101906131809190615331565b9063ffffffff613c0f16565b606083018190526131af5760405162461bcd60e51b815260040161042c90615acd565b5095945050505050565b6000806131cb8a8a8a8a8a8989613c51565b60006131fd868a6001600160a01b03166370a082318e6040518263ffffffff1660e01b815260040161313091906153b8565b90508681101561321f5760405162461bcd60e51b815260040161042c906157e2565b600061322c8c8b84613e06565b90508061323f838263ffffffff613c0f16565b9350935050509850989650505050505050565b6005546001600160a01b038481169116141561330157600454613288906001600160a01b0386811691168363ffffffff613e2916565b60405163690f656160e01b815273__$059b1e3c35e6526bf44b3e0b6a2a76e329$__9063690f6561906132cc906001600160a01b0388169087908690600401615460565b60006040518083038186803b1580156132e457600080fd5b505af41580156132f8573d6000803e3d6000fd5b50505050612db2565b61331c6001600160a01b03851683858463ffffffff613e9816565b6040516309c8202b60e01b815273__$059b1e3c35e6526bf44b3e0b6a2a76e329$__906309c8202b90613360906001600160a01b0388169087908690600401615460565b60006040518083038186803b15801561337857600080fd5b505af415801561338c573d6000803e3d6000fd5b5050505050505050565b600080836001600160a01b03166370a08231866040518263ffffffff1660e01b81526004016133c591906153b8565b60206040518083038186803b1580156133dd57600080fd5b505afa1580156133f1573d6000803e3d6000fd5b505050506040513d601f19601f820116820180604052508101906134159190615331565b9050613427818463ffffffff613f5f16565b95945050505050565b610c746001600160a01b038416838363ffffffff613f7d16565b6040516353bae5f760e01b81526000906001600160a01b038316906353bae5f790612c3b9030906004016153b8565b600080613485836140f1565b9050612e23816140fc565b613498614cf8565b6000886001600160a01b03166318160ddd6040518163ffffffff1660e01b815260040160206040518083038186803b1580156134d357600080fd5b505afa1580156134e7573d6000803e3d6000fd5b505050506040513d601f19601f8201168201806040525081019061350b9190615331565b90506040518061010001604052808a6001600160a01b0316815260200161353186613479565b6001600160a01b0316815260208101839052604001613556888463ffffffff612e5016565b815260200161356b878463ffffffff612e5016565b815260200184613595576001600160a01b03808b16600090815260036020526040902054166135b1565b6001600160a01b03808a16600090815260036020526040902054165b6001600160a01b03168152602001846135e4576001600160a01b03808a1660009081526003602052604090205416613600565b6001600160a01b03808b16600090815260036020526040902054165b6001600160a01b03168152602001886001600160a01b03166370a082318c6040518263ffffffff1660e01b815260040161363a91906153b8565b60206040518083038186803b15801561365257600080fd5b505afa158015613666573d6000803e3d6000fd5b505050506040513d601f19601f8201168201806040525081019061368a9190615331565b90529998505050505050505050565b80516001600160a01b03908116600090815260086020908152604080832060a08601519094168352929052205460ff166136e55760405162461bcd60e51b815260040161042c9061580d565b80516001600160a01b03908116600090815260096020908152604080832060c08601519094168352929052205460ff166137315760405162461bcd60e51b815260040161042c9061583d565b8060c001516001600160a01b03168160a001516001600160a01b0316141561376b5760405162461bcd60e51b815260040161042c90615682565b600081606001511161378f5760405162461bcd60e51b815260040161042c90615761565b50565b60405163aed2dfc960e01b815273__$059b1e3c35e6526bf44b3e0b6a2a76e329$__9063aed2dfc990612ebe906001600160a01b0387169086908690600401615460565b6005546001600160a01b03848116911614156138505760045461380c906001600160a01b0386811691168363ffffffff613e2916565b604051635d20259160e01b815273__$059b1e3c35e6526bf44b3e0b6a2a76e329$__90635d202591906132cc906001600160a01b0388169087908690600401615460565b61386b6001600160a01b03851683858463ffffffff613e9816565b604051637d43967d60e11b815273__$059b1e3c35e6526bf44b3e0b6a2a76e329$__9063fa872cfa90613360906001600160a01b0388169087908690600401615460565b60008082613938576040516395dd919360e01b81526001600160a01b038616906395dd9193906138e39089906004016153b8565b60206040518083038186803b1580156138fb57600080fd5b505afa15801561390f573d6000803e3d6000fd5b505050506040513d601f19601f820116820180604052508101906139339190615331565b6139b6565b6040516305eff7ef60e21b81526001600160a01b038616906317bfdfbc906139649089906004016153b8565b602060405180830381600087803b15801561397e57600080fd5b505af1158015613992573d6000803e3d6000fd5b505050506040513d601f19601f820116820180604052508101906139b69190615331565b905060006139e46000196139d86139d3858963ffffffff6141b916565b61420c565b9063ffffffff612db816565b90508060001914156139f4575060005b9695505050505050565b604080516020810190915260008152610c74906001600160a01b0385169084903090859063ffffffff61423116565b6000821580613a3a575081155b15613a4757506000612b81565b612e236001613a6c670de0b6b3a7640000612e6e83613180898963ffffffff613ade16565b9063ffffffff6147e916565b81516000908190815b81811015613acb57846001600160a01b0316868281518110613a9f57fe5b60200260200101516001600160a01b03161415613ac357925060019150613ad79050565b600101613a81565b50600019600092509250505b9250929050565b600082613aed57506000612b81565b82820282848281613afa57fe5b0414612e235760405162461bcd60e51b815260040161042c9061595c565b6000612e2383836040518060400160405280601a81526020017f536166654d6174683a206469766973696f6e206279207a65726f00000000000081525061480e565b6040805160048082526024820183526020820180516001600160e01b0316630d0e30db60e41b17905291516347b7819960e11b815290916001600160a01b03861691638f6f033291613bb2918791879187910161549d565b600060405180830381600087803b158015613bcc57600080fd5b505af1158015613be0573d6000803e3d6000fd5b505050506040513d6000823e601f3d908101601f19168201604052613c08919081019061500a565b5050505050565b6000612e2383836040518060400160405280601e81526020017f536166654d6174683a207375627472616374696f6e206f766572666c6f770000815250614845565b613cde86836001600160a01b031663334fc2896040518163ffffffff1660e01b815260040160206040518083038186803b158015613c8e57600080fd5b505afa158015613ca2573d6000803e3d6000fd5b505050506040513d601f19601f82011682018060405250810190613cc69190614ec2565b6001600160a01b038a1691908763ffffffff613e9816565b6000806060846001600160a01b031663e171fcab8a8a8d8b8b8a6040518763ffffffff1660e01b8152600401613d19969594939291906153e6565b60006040518083038186803b158015613d3157600080fd5b505afa158015613d45573d6000803e3d6000fd5b505050506040513d6000823e601f3d908101601f19168201604052613d6d9190810190614ede565b925092509250896001600160a01b0316638f6f03328484846040518463ffffffff1660e01b8152600401613da39392919061549d565b600060405180830381600087803b158015613dbd57600080fd5b505af1158015613dd1573d6000803e3d6000fd5b505050506040513d6000823e601f3d908101601f19168201604052613df9919081019061500a565b5050505050505050505050565b600080613e14600084614871565b9050613e21858583614906565b949350505050565b606081604051602401613e3c9190615cde565b60408051601f198184030181529181526020820180516001600160e01b0316632e1a7d4d60e01b179052516347b7819960e11b81529091506001600160a01b03851690638f6f033290613bb2908690600090869060040161549d565b60608282604051602401613ead929190615484565b60408051601f198184030181529181526020820180516001600160e01b031663095ea7b360e01b179052516347b7819960e11b81529091506001600160a01b03861690638f6f033290613f09908790600090869060040161549d565b600060405180830381600087803b158015613f2357600080fd5b505af1158015613f37573d6000803e3d6000fd5b505050506040513d6000823e601f3d908101601f19168201604052611f2e919081019061500a565b6000612e2382612e6e85670de0b6b3a764000063ffffffff613ade16565b6000613f8984846149ad565b905080158015613f995750600082115b1561401057613fa88484614a34565b61400b576040516304e3532760e41b81526001600160a01b03851690634e35327090613fd89086906004016153b8565b600060405180830381600087803b158015613ff257600080fd5b505af1158015614006573d6000803e3d6000fd5b505050505b61408d565b80801561401b575081155b1561408d5761402a8484614a34565b61408d57604051636f86c89760e01b81526001600160a01b03851690636f86c8979061405a9086906004016153b8565b600060405180830381600087803b15801561407457600080fd5b505af1158015614088573d6000803e3d6000fd5b505050505b836001600160a01b0316632ba57d17846140a68561420c565b6040518363ffffffff1660e01b81526004016140c3929190615484565b600060405180830381600087803b1580156140dd57600080fd5b505af115801561338c573d6000803e3d6000fd5b805160209091012090565b600080548190614114906001600160a01b0316614ac0565b6001600160a01b031663e6d642c530856040518363ffffffff1660e01b8152600401614141929190615484565b60206040518083038186803b15801561415957600080fd5b505afa15801561416d573d6000803e3d6000fd5b505050506040513d601f19601f820116820180604052508101906141919190614ec2565b90506001600160a01b038116612b815760405162461bcd60e51b815260040161042c906157b3565b6000816141d85760405162461bcd60e51b815260040161042c90615cb4565b600083116141e7576000612e23565b612e236001613a6c84612e6e8361318089670de0b6b3a764000063ffffffff613ade16565b6000600160ff1b8210612e4c5760405162461bcd60e51b815260040161042c90615b28565b81156145265760405163df5e9b2960e01b81526001600160a01b0386169063df5e9b29906142639087906004016153b8565b60206040518083038186803b15801561427b57600080fd5b505afa15801561428f573d6000803e3d6000fd5b505050506040513d601f19601f820116820180604052508101906142b39190614fee565b61437a576040516304e3532760e41b81526001600160a01b03861690634e353270906142e39087906004016153b8565b600060405180830381600087803b1580156142fd57600080fd5b505af1158015614311573d6000803e3d6000fd5b505060405163ea0ee55960e01b81526001600160a01b038816925063ea0ee559915061434390879087906004016153cc565b600060405180830381600087803b15801561435d57600080fd5b505af1158015614371573d6000803e3d6000fd5b5050505061445d565b604051637d96659360e01b81526001600160a01b03861690637d966593906143a890879087906004016153cc565b60206040518083038186803b1580156143c057600080fd5b505afa1580156143d4573d6000803e3d6000fd5b505050506040513d601f19601f820116820180604052508101906143f89190614fee565b61445d5760405163ea0ee55960e01b81526001600160a01b0386169063ea0ee5599061442a90879087906004016153cc565b600060405180830381600087803b15801561444457600080fd5b505af1158015614458573d6000803e3d6000fd5b505050505b6040516363a90fc160e01b81526001600160a01b038616906363a90fc19061448d90879087908790600401615460565b600060405180830381600087803b1580156144a757600080fd5b505af11580156144bb573d6000803e3d6000fd5b50506040516326898fe160e01b81526001600160a01b03881692506326898fe191506144ef90879087908690600401615434565b600060405180830381600087803b15801561450957600080fd5b505af115801561451d573d6000803e3d6000fd5b50505050613c08565b8051156145455760405162461bcd60e51b815260040161042c90615af1565b6040516308bafae960e21b81526001600160a01b038616906322ebeba49061457390879087906004016153cc565b60206040518083038186803b15801561458b57600080fd5b505afa15801561459f573d6000803e3d6000fd5b505050506040513d601f19601f820116820180604052508101906145c39190615331565b15613c085760405163a7bdad0360e01b81526060906001600160a01b0387169063a7bdad03906145f79088906004016153b8565b60006040518083038186803b15801561460f57600080fd5b505afa158015614623573d6000803e3d6000fd5b505050506040513d6000823e601f3d908101601f1916820160405261464b9190810190614f36565b6040516366cb8d2f60e01b81529091506001600160a01b038716906366cb8d2f9061467a9088906004016153b8565b60206040518083038186803b15801561469257600080fd5b505afa1580156146a6573d6000803e3d6000fd5b505050506040513d601f19601f820116820180604052508101906146ca9190615331565b1580156146d8575080516001145b1561478157836001600160a01b0316816000815181106146f457fe5b60200260200101516001600160a01b0316146147225760405162461bcd60e51b815260040161042c9061590c565b604051636f86c89760e01b81526001600160a01b03871690636f86c8979061474e9088906004016153b8565b600060405180830381600087803b15801561476857600080fd5b505af115801561477c573d6000803e3d6000fd5b505050505b60405163acf3f07760e01b81526001600160a01b0387169063acf3f077906147af90889088906004016153cc565b600060405180830381600087803b1580156147c957600080fd5b505af11580156147dd573d6000803e3d6000fd5b50505050505050505050565b600082820183811015612e235760405162461bcd60e51b815260040161042c906156f3565b6000818361482f5760405162461bcd60e51b815260040161042c919061558a565b50600083858161483b57fe5b0495945050505050565b600081848411156148695760405162461bcd60e51b815260040161042c919061558a565b505050900390565b6000805460405163792aa04f60e01b815282916001600160a01b03169063792aa04f906148a49030908890600401615484565b60206040518083038186803b1580156148bc57600080fd5b505afa1580156148d0573d6000803e3d6000fd5b505050506040513d601f19601f820116820180604052508101906148f49190615331565b9050613e21838263ffffffff612e5016565b8015610c7457610c74826000809054906101000a90046001600160a01b03166001600160a01b031663469048406040518163ffffffff1660e01b815260040160206040518083038186803b15801561495d57600080fd5b505afa158015614971573d6000803e3d6000fd5b505050506040513d601f19601f820116820180604052508101906149959190614ec2565b6001600160a01b03861691908463ffffffff614b3f16565b600080836001600160a01b03166366cb8d2f846040518263ffffffff1660e01b81526004016149dc91906153b8565b60206040518083038186803b1580156149f457600080fd5b505afa158015614a08573d6000803e3d6000fd5b505050506040513d601f19601f82011682018060405250810190614a2c9190615331565b139392505050565b600080836001600160a01b031663a7bdad03846040518263ffffffff1660e01b8152600401614a6391906153b8565b60006040518083038186803b158015614a7b57600080fd5b505afa158015614a8f573d6000803e3d6000fd5b505050506040513d6000823e601f3d908101601f19168201604052614ab79190810190614f36565b51119392505050565b6040516373b2e76b60e11b81526000906001600160a01b0383169063e765ced690614aef908490600401615cde565b60206040518083038186803b158015614b0757600080fd5b505afa158015614b1b573d6000803e3d6000fd5b505050506040513d601f19601f82011682018060405250810190612b819190614ec2565b8015612db2576040516370a0823160e01b81526000906001600160a01b038516906370a0823190614b749088906004016153b8565b60206040518083038186803b158015614b8c57600080fd5b505afa158015614ba0573d6000803e3d6000fd5b505050506040513d601f19601f82011682018060405250810190614bc49190615331565b9050614bd285858585614c81565b6040516370a0823160e01b81526000906001600160a01b038616906370a0823190614c019089906004016153b8565b60206040518083038186803b158015614c1957600080fd5b505afa158015614c2d573d6000803e3d6000fd5b505050506040513d601f19601f82011682018060405250810190614c519190615331565b9050614c63828463ffffffff613c0f16565b8114611f2e5760405162461bcd60e51b815260040161042c90615a47565b8015612db25760608282604051602401614c9c929190615484565b60408051601f198184030181529181526020820180516001600160e01b031663a9059cbb60e01b179052516347b7819960e11b81529091506001600160a01b03861690638f6f033290613f09908790600090869060040161549d565b60405180610100016040528060006001600160a01b0316815260200160006001600160a01b0316815260200160008152602001600081526020016000815260200160006001600160a01b0316815260200160006001600160a01b03168152602001600081525090565b508054600082559060005260206000209081019061378f9190611f4391905b80821115612e4c5760008155600101614d80565b600082601f830112614da4578081fd5b8135614db7614db282615d0e565b615ce7565b818152915060208083019084810181840286018201871015614dd857600080fd5b60005b84811015614e00578135614dee81615d7e565b84529282019290820190600101614ddb565b505050505092915050565b600082601f830112614e1b578081fd5b8135614e29614db282615d2e565b9150808252836020828501011115614e4057600080fd5b8060208401602084013760009082016020015292915050565b600082601f830112614e69578081fd5b8151614e77614db282615d2e565b9150808252836020828501011115614e8e57600080fd5b614e9f816020840160208601615d52565b5092915050565b600060208284031215614eb7578081fd5b8135612e2381615d7e565b600060208284031215614ed3578081fd5b8151612e2381615d7e565b600080600060608486031215614ef2578182fd5b8351614efd81615d7e565b60208501516040860151919450925067ffffffffffffffff811115614f20578182fd5b614f2c86828701614e59565b9150509250925092565b60006020808385031215614f48578182fd5b825167ffffffffffffffff811115614f5e578283fd5b80840185601f820112614f6f578384fd5b80519150614f7f614db283615d0e565b8281528381019082850185850284018601891015614f9b578687fd5b8693505b84841015614fc6578051614fb281615d7e565b835260019390930192918501918501614f9f565b50979650505050505050565b600060208284031215614fe3578081fd5b8135612e2381615d93565b600060208284031215614fff578081fd5b8151612e2381615d93565b60006020828403121561501b578081fd5b815167ffffffffffffffff811115615031578182fd5b613e2184828501614e59565b6000806040838503121561504f578182fd5b823561505a81615d7e565b9150602083013561506a81615d7e565b809150509250929050565b60008060408385031215615087578182fd5b823561509281615d7e565b9150602083013567ffffffffffffffff8111156150ad578182fd5b6150b985828601614d94565b9150509250929050565b6000806000606084860312156150d7578081fd5b83356150e281615d7e565b9250602084013567ffffffffffffffff808211156150fe578283fd5b61510a87838801614d94565b9350604086013591508082111561511f578283fd5b50614f2c86828701614d94565b6000806040838503121561513e578182fd5b823561514981615d7e565b9150602083013561506a81615d93565b600080600080600080600060e0888a031215615173578485fd5b873561517e81615d7e565b9650602088013561518e81615d7e565b9550604088013561519e81615d7e565b9450606088013593506080880135925060a088013567ffffffffffffffff808211156151c8578384fd5b6151d48b838c01614e0b565b935060c08a01359150808211156151e9578283fd5b506151f68a828b01614e0b565b91505092959891949750929550565b600080600080600060a0868803121561521c578283fd5b853561522781615d7e565b9450602086013561523781615d7e565b935060408601359250606086013567ffffffffffffffff8082111561525a578283fd5b61526689838a01614e0b565b9350608088013591508082111561527b578283fd5b5061528888828901614e0b565b9150509295509295909350565b600080604083850312156152a7578182fd5b82356152b281615d7e565b946020939093013593505050565b600080600080608085870312156152d5578182fd5b84356152e081615d7e565b93506020850135925060408501356152f781615d7e565b9150606085013561530781615d93565b939692955090935050565b600060208284031215615323578081fd5b815160038110612e23578182fd5b600060208284031215615342578081fd5b5051919050565b6000815180845260208085019450808401835b838110156153815781516001600160a01b03168752958201959082019060010161535c565b509495945050505050565b600081518084526153a4816020860160208601615d52565b601f01601f19169290920160200192915050565b6001600160a01b0391909116815260200190565b6001600160a01b0392831681529116602082015260400190565b6001600160a01b038781168252868116602083015285166040820152606081018490526080810183905260c060a082018190526000906154289083018461538c565b98975050505050505050565b6001600160a01b038481168252831660208201526060604082018190526000906134279083018461538c565b6001600160a01b039384168152919092166020820152604081019190915260600190565b6001600160a01b03929092168252602082015260400190565b600060018060a01b038516825283602083015260606040830152613427606083018461538c565b6000604082526154d76040830185615349565b82810360208401526134278185615349565b6020808252825182820181905260009190848201906040850190845b8181101561552a5783516001600160a01b031683529284019291840191600101615505565b50909695505050505050565b901515815260200190565b6001600160a01b0394909416845260208401929092526040830152606082015260800190565b6001600160a01b0393841681529183166020830152909116604082015260600190565b600060208252612e23602083018461538c565b60208082526015908201527420b2323932b9b9903737ba1034b71030b93930bc9760591b604082015260600190565b6020808252601a908201527f436f6d706f6e656e74206d757374206265206e65676174697665000000000000604082015260600190565b60208082526019908201527f436f6c6c61746572616c206973206e6f7420656e61626c656400000000000000604082015260600190565b60208082526028908201527f4d75737420626520612076616c696420616e6420696e697469616c697a65642060408201526729b2ba2a37b5b2b760c11b606082015260800190565b602080825260119082015270135d5cdd08189948191a5999995c995b9d607a1b604082015260600190565b60208082526026908201527f4f776e61626c653a206e6577206f776e657220697320746865207a65726f206160408201526564647265737360d01b606082015260800190565b6020808252601b908201527f536166654d6174683a206164646974696f6e206f766572666c6f770000000000604082015260600190565b6020808252601e908201527f4d7573742062652070656e64696e6720696e697469616c697a6174696f6e0000604082015260600190565b6020808252600d908201526c05175616e74697479206973203609c1b604082015260600190565b60208082526011908201527018d51bdad95b881b5d5cdd08195e1a5cdd607a1b604082015260600190565b60208082526015908201527426bab9ba103132903b30b634b21030b230b83a32b960591b604082015260600190565b6020808252601190820152700a6d8d2e0e0c2ceca40e8dede40d0d2ced607b1b604082015260600190565b60208082526016908201527510dbdb1b185d195c985b081b9bdd08195b98589b195960521b604082015260600190565b602080825260129082015271109bdc9c9bddc81b9bdd08195b98589b195960721b604082015260600190565b6020808252818101527f53616665436173743a2076616c7565206d75737420626520706f736974697665604082015260600190565b60208082526018908201527f4f6e6c7920746865206d6f64756c652063616e2063616c6c0000000000000000604082015260600190565b60208082526018908201527f49737375616e6365206e6f7420696e697469616c697a65640000000000000000604082015260600190565b60208082526030908201527f45787465726e616c20706f736974696f6e73206d757374206265203020746f2060408201526f1c995b5bdd994818dbdb5c1bdb995b9d60821b606082015260800190565b60208082526021908201527f536166654d6174683a206d756c7469706c69636174696f6e206f766572666c6f6040820152607760f81b606082015260800190565b6020808252818101527f4f776e61626c653a2063616c6c6572206973206e6f7420746865206f776e6572604082015260600190565b6020808252601490820152732737ba1030b63637bbb2b21029b2ba2a37b5b2b760611b604082015260600190565b60208082526027908201527f5369676e6564536166654d6174683a206d756c7469706c69636174696f6e206f604082015266766572666c6f7760c81b606082015260800190565b6020808252601d908201527f496e76616c696420706f7374207472616e736665722062616c616e6365000000604082015260600190565b6020808252600d908201526c105b1c9958591e481859191959609a1b604082015260600190565b6020808252600e908201526d109bdc9c9bddc8195b98589b195960921b604082015260600190565b6020808252600a90820152690436c61696d20697320360b41b604082015260600190565b60208082526018908201527f5061737365642064617461206d757374206265206e756c6c0000000000000000604082015260600190565b60208082526028908201527f53616665436173743a2076616c756520646f65736e27742066697420696e2061604082015267371034b73a191a9b60c11b606082015260800190565b60208082526024908201527f4d6f64756c65206d75737420626520656e61626c6564206f6e20636f6e74726f604082015263363632b960e11b606082015260800190565b60208082526023908201527f4d75737420626520636f6e74726f6c6c65722d656e61626c656420536574546f60408201526235b2b760e91b606082015260800190565b6020808252601c908201527f4d7573742062652074686520536574546f6b656e206d616e6167657200000000604082015260600190565b60208082526012908201527110dbdb1b185d195c985b08195b98589b195960721b604082015260600190565b6020808252601f908201527f5265656e7472616e637947756172643a207265656e7472616e742063616c6c00604082015260600190565b602080825260099082015268139bdd08185919195960ba1b604082015260600190565b60208082526010908201526f043616e742064697669646520627920360841b604082015260600190565b90815260200190565b60405181810167ffffffffffffffff81118282101715615d0657600080fd5b604052919050565b600067ffffffffffffffff821115615d24578081fd5b5060209081020190565b600067ffffffffffffffff821115615d44578081fd5b50601f01601f191660200190565b60005b83811015615d6d578181015183820152602001615d55565b83811115612db25750506000910152565b6001600160a01b038116811461378f57600080fd5b801515811461378f57600080fdfea2646970667358221220cd8c559d9b640be5220068e3ca71678763a191a2b44258ff121ece6c0d61a5e064736f6c634300060a0033",
  "linkReferences": {
    "contracts/protocol/integration/lib/Compound.sol": {
      "Compound": [
        {
          "length": 20,
          "start": 2555
        },
        {
          "length": 20,
          "start": 5880
        },
        {
          "length": 20,
          "start": 6577
        },
        {
          "length": 20,
          "start": 7737
        },
        {
          "length": 20,
          "start": 8280
        },
        {
          "length": 20,
          "start": 8614
        },
        {
          "length": 20,
          "start": 13018
        },
        {
          "length": 20,
          "start": 14056
        },
        {
          "length": 20,
          "start": 14204
        },
        {
          "length": 20,
          "start": 15346
        },
        {
          "length": 20,
          "start": 15468
        },
        {
          "length": 20,
          "start": 15563
        }
      ]
    }
  },
  "deployedLinkReferences": {
    "contracts/protocol/integration/lib/Compound.sol": {
      "Compound": [
        {
          "length": 20,
          "start": 1450
        },
        {
          "length": 20,
          "start": 4775
        },
        {
          "length": 20,
          "start": 5472
        },
        {
          "length": 20,
          "start": 6632
        },
        {
          "length": 20,
          "start": 7175
        },
        {
          "length": 20,
          "start": 7509
        },
        {
          "length": 20,
          "start": 11913
        },
        {
          "length": 20,
          "start": 12951
        },
        {
          "length": 20,
          "start": 13099
        },
        {
          "length": 20,
          "start": 14241
        },
        {
          "length": 20,
          "start": 14363
        },
        {
          "length": 20,
          "start": 14458
        }
      ]
    }
  }
}