{
  "_format": "hh-sol-artifact-1",
  "contractName": "CompClaimAdapter",
  "sourceName": "contracts/protocol/integration/claim/CompClaimAdapter.sol",
  "abi": [
    {
      "inputs": [
        {
          "internalType": "contract IComptroller",
          "name": "_comptroller",
          "type": "address"
        }
      ],
      "stateMutability": "nonpayable",
      "type": "constructor"
    },
    {
      "inputs": [],
      "name": "comptroller",
      "outputs": [
        {
          "internalType": "contract IComptroller",
          "name": "",
          "type": "address"
        }
      ],
      "stateMutability": "view",
      "type": "function",
      "gas": "0xaeb690"
    },
    {
      "inputs": [
        {
          "internalType": "address",
          "name": "_setToken",
          "type": "address"
        },
        {
          "internalType": "address",
          "name": "",
          "type": "address"
        }
      ],
      "name": "getClaimCallData",
      "outputs": [
        {
          "internalType": "address",
          "name": "",
          "type": "address"
        },
        {
          "internalType": "uint256",
          "name": "",
          "type": "uint256"
        },
        {
          "internalType": "bytes",
          "name": "",
          "type": "bytes"
        }
      ],
      "stateMutability": "view",
      "type": "function",
      "gas": "0xaeb690"
    },
    {
      "inputs": [
        {
          "internalType": "address",
          "name": "_setToken",
          "type": "address"
        },
        {
          "internalType": "address",
          "name": "",
          "type": "address"
        }
      ],
      "name": "getRewards",
      "outputs": [
        {
          "internalType": "uint256",
          "name": "",
          "type": "uint256"
        }
      ],
      "stateMutability": "view",
      "type": "function",
      "gas": "0xaeb690"
    },
    {
      "inputs": [
        {
          "internalType": "address",
          "name": "",
          "type": "address"
        }
      ],
      "name": "getTokenAddress",
      "outputs": [
        {
          "internalType": "address",
          "name": "",
          "type": "address"
        }
      ],
      "stateMutability": "view",
      "type": "function",
      "gas": "0xaeb690"
    }
  ],
  "bytecode": "0x60a060405234801561001057600080fd5b5060405161049438038061049483398101604081905261002f91610044565b60601b6001600160601b031916608052610072565b600060208284031215610055578081fd5b81516001600160a01b038116811461006b578182fd5b9392505050565b60805160601c6103f661009e6000398061010752806101385280610174528061020452506103f66000f3fe608060405234801561001057600080fd5b506004361061004c5760003560e01c80630f1ff4ba146100515780635fe3b5671461007c578063779bcb9b14610091578063b8d7b669146100b1575b600080fd5b61006461005f3660046102d1565b6100c4565b60405161007393929190610335565b60405180910390f35b610084610136565b6040516100739190610321565b6100a461009f3660046102d1565b61015a565b604051610073919061039f565b6100846100bf366004610299565b610200565b600080606080856040516024016100db9190610321565b60408051601f198184030181529190526020810180516001600160e01b03166374d7814960e11b1790527f00000000000000000000000000000000000000000000000000000000000000009450600093509150509250925092565b7f000000000000000000000000000000000000000000000000000000000000000081565b60405163331faf7160e21b81526000906001600160a01b037f0000000000000000000000000000000000000000000000000000000000000000169063cc7ebdc4906101a9908690600401610321565b60206040518083038186803b1580156101c157600080fd5b505afa1580156101d5573d6000803e3d6000fd5b505050506040513d601f19601f820116820180604052508101906101f99190610309565b9392505050565b60007f00000000000000000000000000000000000000000000000000000000000000006001600160a01b0316639d1b5a0a6040518163ffffffff1660e01b815260040160206040518083038186803b15801561025b57600080fd5b505afa15801561026f573d6000803e3d6000fd5b505050506040513d601f19601f8201168201806040525081019061029391906102b5565b92915050565b6000602082840312156102aa578081fd5b81356101f9816103a8565b6000602082840312156102c6578081fd5b81516101f9816103a8565b600080604083850312156102e3578081fd5b82356102ee816103a8565b915060208301356102fe816103a8565b809150509250929050565b60006020828403121561031a578081fd5b5051919050565b6001600160a01b0391909116815260200190565b600060018060a01b038516825260208481840152606060408401528351806060850152825b818110156103765785810183015185820160800152820161035a565b818111156103875783608083870101525b50601f01601f19169290920160800195945050505050565b90815260200190565b6001600160a01b03811681146103bd57600080fd5b5056fea26469706673582212206c394adf833f7ba63053411a5a98e40faa9dda49ad56e37fa143a94ddc36d59364736f6c634300060a0033",
  "deployedBytecode": "",
  "linkReferences": {},
  "deployedLinkReferences": {}
}