{
  "_format": "hh-sol-artifact-1",
  "contractName": "CompoundV3WrapV2Adapter",
  "sourceName": "contracts/protocol/integration/wrap-v2/CompoundV3WrapV2Adapter.sol",
  "abi": [
    {
      "inputs": [
        {
          "internalType": "address",
          "name": "_comet",
          "type": "address"
        }
      ],
      "stateMutability": "nonpayable",
      "type": "constructor"
    },
    {
      "inputs": [],
      "name": "comet",
      "outputs": [
        {
          "internalType": "address",
          "name": "",
          "type": "address"
        }
      ],
      "stateMutability": "view",
      "type": "function",
      "gas": "0xa7d8c0"
    },
    {
      "inputs": [
        {
          "internalType": "address",
          "name": "",
          "type": "address"
        },
        {
          "internalType": "address",
          "name": "",
          "type": "address"
        }
      ],
      "name": "getSpenderAddress",
      "outputs": [
        {
          "internalType": "address",
          "name": "",
          "type": "address"
        }
      ],
      "stateMutability": "view",
      "type": "function",
      "gas": "0xa7d8c0"
    },
    {
      "inputs": [
        {
          "internalType": "address",
          "name": "_underlyingToken",
          "type": "address"
        },
        {
          "internalType": "address",
          "name": "",
          "type": "address"
        },
        {
          "internalType": "uint256",
          "name": "_wrappedTokenUnits",
          "type": "uint256"
        },
        {
          "internalType": "address",
          "name": "",
          "type": "address"
        },
        {
          "internalType": "bytes",
          "name": "",
          "type": "bytes"
        }
      ],
      "name": "getUnwrapCallData",
      "outputs": [
        {
          "internalType": "address",
          "name": "",
          "type": "address"
        },
        {
          "internalType": "uint256",
          "name": "",
          "type": "uint256"
        },
        {
          "internalType": "bytes",
          "name": "",
          "type": "bytes"
        }
      ],
      "stateMutability": "view",
      "type": "function",
      "gas": "0xa7d8c0"
    },
    {
      "inputs": [
        {
          "internalType": "address",
          "name": "_underlyingToken",
          "type": "address"
        },
        {
          "internalType": "address",
          "name": "",
          "type": "address"
        },
        {
          "internalType": "uint256",
          "name": "_underlyingUnits",
          "type": "uint256"
        },
        {
          "internalType": "address",
          "name": "",
          "type": "address"
        },
        {
          "internalType": "bytes",
          "name": "",
          "type": "bytes"
        }
      ],
      "name": "getWrapCallData",
      "outputs": [
        {
          "internalType": "address",
          "name": "",
          "type": "address"
        },
        {
          "internalType": "uint256",
          "name": "",
          "type": "uint256"
        },
        {
          "internalType": "bytes",
          "name": "",
          "type": "bytes"
        }
      ],
      "stateMutability": "view",
      "type": "function",
      "gas": "0xa7d8c0"
    }
  ],
  "bytecode": "0x608060405234801561001057600080fd5b5060405161047438038061047483398101604081905261002f91610054565b600080546001600160a01b0319166001600160a01b0392909216919091179055610082565b600060208284031215610065578081fd5b81516001600160a01b038116811461007b578182fd5b9392505050565b6103e3806100916000396000f3fe608060405234801561001057600080fd5b506004361061004c5760003560e01c806390f0f93814610051578063ba3e9c121461007c578063d91462ca14610091578063de68a3da146100a4575b600080fd5b61006461005f3660046101e8565b6100b7565b604051610073939291906102d4565b60405180910390f35b610084610119565b60405161007391906102a7565b61006461009f3660046101e8565b610128565b6100846100b23660046101b4565b61018a565b60008060608088876040516024016100d09291906102bb565b60408051601f198184030181529190526020810180516001600160e01b031663f3fef3a360e01b179052600080546001600160a01b031695509350915050955095509592505050565b6000546001600160a01b031681565b60008060608088876040516024016101419291906102bb565b60408051601f198184030181529190526020810180516001600160e01b0316631e573fb760e31b179052600080546001600160a01b031695509350915050955095509592505050565b6000546001600160a01b03165b92915050565b80356001600160a01b038116811461019757600080fd5b600080604083850312156101c6578182fd5b6101d0848461019d565b91506101df846020850161019d565b90509250929050565b600080600080600060a086880312156101ff578081fd5b853561020a81610395565b9450602086013561021a81610395565b935060408601359250606086013561023181610395565b9150608086013567ffffffffffffffff81111561024c578182fd5b80870188601f82011261025d578283fd5b8035915061027261026d83610365565b61033e565b828152896020848401011115610286578384fd5b610297836020830160208501610389565b8093505050509295509295909350565b6001600160a01b0391909116815260200190565b6001600160a01b03929092168252602082015260400190565b600060018060a01b038516825260208481840152606060408401528351806060850152825b81811015610315578581018301518582016080015282016102f9565b818111156103265783608083870101525b50601f01601f19169290920160800195945050505050565b60405181810167ffffffffffffffff8111828210171561035d57600080fd5b604052919050565b600067ffffffffffffffff82111561037b578081fd5b50601f01601f191660200190565b82818337506000910152565b6001600160a01b03811681146103aa57600080fd5b5056fea26469706673582212203dcf4eb91ab61e6097dd4ce8a08cb4e776709c8f54d9b0737f787f3e784e2ccf64736f6c634300060a0033",
  "linkReferences": {},
  "deployedLinkReferences": {}
}