{
  "_format": "hh-sol-artifact-1",
  "contractName": "ComptrollerMock",
  "sourceName": "contracts/mocks/external/ComptrollerMock.sol",
  "abi": [
    {
      "inputs": [
        {
          "internalType": "address",
          "name": "_comp",
          "type": "address"
        },
        {
          "internalType": "uint256",
          "name": "_compAmount",
          "type": "uint256"
        },
        {
          "internalType": "address",
          "name": "_collateralCToken",
          "type": "address"
        }
      ],
      "stateMutability": "nonpayable",
      "type": "constructor"
    },
    {
      "inputs": [
        {
          "internalType": "address",
          "name": "_setToken",
          "type": "address"
        }
      ],
      "name": "addSetTokenAddress",
      "outputs": [],
      "stateMutability": "nonpayable",
      "type": "function",
      "gas": "0xaeb690"
    },
    {
      "inputs": [
        {
          "internalType": "uint256",
          "name": "",
          "type": "uint256"
        }
      ],
      "name": "allMarkets",
      "outputs": [
        {
          "internalType": "contract ICErc20",
          "name": "",
          "type": "address"
        }
      ],
      "stateMutability": "view",
      "type": "function",
      "gas": "0xaeb690"
    },
    {
      "inputs": [
        {
          "internalType": "address",
          "name": "_holder",
          "type": "address"
        }
      ],
      "name": "claimComp",
      "outputs": [],
      "stateMutability": "nonpayable",
      "type": "function",
      "gas": "0xaeb690"
    },
    {
      "inputs": [],
      "name": "comp",
      "outputs": [
        {
          "internalType": "address",
          "name": "",
          "type": "address"
        }
      ],
      "stateMutability": "view",
      "type": "function",
      "gas": "0xaeb690"
    },
    {
      "inputs": [
        {
          "internalType": "address",
          "name": "",
          "type": "address"
        }
      ],
      "name": "compAccrued",
      "outputs": [
        {
          "internalType": "uint256",
          "name": "",
          "type": "uint256"
        }
      ],
      "stateMutability": "view",
      "type": "function",
      "gas": "0xaeb690"
    },
    {
      "inputs": [],
      "name": "compAmount",
      "outputs": [
        {
          "internalType": "uint256",
          "name": "",
          "type": "uint256"
        }
      ],
      "stateMutability": "view",
      "type": "function",
      "gas": "0xaeb690"
    },
    {
      "inputs": [
        {
          "internalType": "address[]",
          "name": "_cTokens",
          "type": "address[]"
        }
      ],
      "name": "enterMarkets",
      "outputs": [
        {
          "internalType": "uint256[]",
          "name": "",
          "type": "uint256[]"
        }
      ],
      "stateMutability": "nonpayable",
      "type": "function",
      "gas": "0xaeb690"
    },
    {
      "inputs": [],
      "name": "getAllMarkets",
      "outputs": [
        {
          "internalType": "contract ICErc20[]",
          "name": "",
          "type": "address[]"
        }
      ],
      "stateMutability": "view",
      "type": "function",
      "gas": "0xaeb690"
    },
    {
      "inputs": [
        {
          "internalType": "address",
          "name": "_holder",
          "type": "address"
        },
        {
          "internalType": "uint256",
          "name": "_compAmount",
          "type": "uint256"
        }
      ],
      "name": "setCompAccrued",
      "outputs": [],
      "stateMutability": "nonpayable",
      "type": "function",
      "gas": "0xaeb690"
    },
    {
      "inputs": [
        {
          "internalType": "uint256",
          "name": "_compAmount",
          "type": "uint256"
        }
      ],
      "name": "setCompAmount",
      "outputs": [],
      "stateMutability": "nonpayable",
      "type": "function",
      "gas": "0xaeb690"
    },
    {
      "inputs": [],
      "name": "setToken",
      "outputs": [
        {
          "internalType": "address",
          "name": "",
          "type": "address"
        }
      ],
      "stateMutability": "view",
      "type": "function",
      "gas": "0xaeb690"
    }
  ],
  "bytecode": "0x608060405234801561001057600080fd5b506040516105d93803806105d98339818101604052606081101561003357600080fd5b5080516020820151604090920151600080546001600160a01b039384166001600160a01b031991821617825560019485556003805495860181559091527fc2575a0e9e593c00f959f8c92f12db2869c3395a3b0502d05e2516446f71f85b90930180549290911691909216179055610529806100b06000396000f3fe608060405234801561001057600080fd5b50600436106100a95760003560e01c80639c52fea7116100715780639c52fea71461014e578063b0772d0b1461017a578063c2998238146101d2578063cc7ebdc414610275578063e9af02921461029b578063ed9cf58c146102c1576100a9565b8063109d0af8146100ae5780632bcb08c5146100d257806352d84d1e146100f15780636ca208491461010e57806375e9141d14610128575b600080fd5b6100b66102c9565b604080516001600160a01b039092168252519081900360200190f35b6100ef600480360360208110156100e857600080fd5b50356102d8565b005b6100b66004803603602081101561010757600080fd5b50356102dd565b610116610304565b60408051918252519081900360200190f35b6100ef6004803603602081101561013e57600080fd5b50356001600160a01b031661030a565b6100ef6004803603604081101561016457600080fd5b506001600160a01b03813516906020013561032c565b610182610348565b60408051602080825283518183015283519192839290830191858101910280838360005b838110156101be5781810151838201526020016101a6565b505050509050019250505060405180910390f35b610182600480360360208110156101e857600080fd5b81019060208101813564010000000081111561020357600080fd5b82018360208201111561021557600080fd5b8035906020019184602083028401116401000000008311171561023757600080fd5b9190808060200260200160405190810160405280939291908181526020018383602002808284376000920191909152509295506103aa945050505050565b6101166004803603602081101561028b57600080fd5b50356001600160a01b03166103f5565b6100ef600480360360208110156102b157600080fd5b50356001600160a01b0316610407565b6100b66104e4565b6000546001600160a01b031681565b600155565b600381815481106102ea57fe5b6000918252602090912001546001600160a01b0316905081565b60015481565b600280546001600160a01b0319166001600160a01b0392909216919091179055565b6001600160a01b03909116600090815260046020526040902055565b606060038054806020026020016040519081016040528092919081815260200182805480156103a057602002820191906000526020600020905b81546001600160a01b03168152600190910190602001808311610382575b5050505050905090565b6060815167ffffffffffffffff811180156103c457600080fd5b506040519080825280602002602001820160405280156103ee578160200160208202803683370190505b5092915050565b60046020526000908152604090205481565b600080546001600160a01b0383811680845260046020818152604080872054815163a9059cbb60e01b81529384019490945260248301939093529151929093169363a9059cbb9360448082019492918390030190829087803b15801561046c57600080fd5b505af1158015610480573d6000803e3d6000fd5b505050506040513d602081101561049657600080fd5b50516104e1576040805162461bcd60e51b8152602060048201526015602482015274115490cc8c081d1c985b9cd9995c8819985a5b1959605a1b604482015290519081900360640190fd5b50565b6002546001600160a01b03168156fea2646970667358221220f52925d673f8e980002c32ea52b3b748c792d6172b63b2ae7f038545f4edf7e564736f6c634300060a0033",
  "deployedBytecode": "",
  "linkReferences": {},
  "deployedLinkReferences": {}
}