{
  "_format": "hh-sol-artifact-1",
  "contractName": "Compound",
  "sourceName": "contracts/protocol/integration/lib/Compound.sol",
  "abi": [
    {
      "inputs": [
        {
          "internalType": "contract ICErc20",
          "name": "_cToken",
          "type": "ICErc20"
        },
        {
          "internalType": "uint256",
          "name": "_notionalBorrowQuantity",
          "type": "uint256"
        }
      ],
      "name": "getBorrowCalldata",
      "outputs": [
        {
          "internalType": "address",
          "name": "",
          "type": "address"
        },
        {
          "internalType": "uint256",
          "name": "",
          "type": "uint256"
        },
        {
          "internalType": "bytes",
          "name": "",
          "type": "bytes"
        }
      ],
      "stateMutability": "pure",
      "type": "function"
    },
    {
      "inputs": [
        {
          "internalType": "contract ICErc20",
          "name": "_cToken",
          "type": "ICErc20"
        },
        {
          "internalType": "contract IComptroller",
          "name": "_comptroller",
          "type": "IComptroller"
        }
      ],
      "name": "getEnterMarketsCalldata",
      "outputs": [
        {
          "internalType": "address",
          "name": "",
          "type": "address"
        },
        {
          "internalType": "uint256",
          "name": "",
          "type": "uint256"
        },
        {
          "internalType": "bytes",
          "name": "",
          "type": "bytes"
        }
      ],
      "stateMutability": "pure",
      "type": "function"
    },
    {
      "inputs": [
        {
          "internalType": "contract ICErc20",
          "name": "_cToken",
          "type": "ICErc20"
        },
        {
          "internalType": "contract IComptroller",
          "name": "_comptroller",
          "type": "IComptroller"
        }
      ],
      "name": "getExitMarketCalldata",
      "outputs": [
        {
          "internalType": "address",
          "name": "",
          "type": "address"
        },
        {
          "internalType": "uint256",
          "name": "",
          "type": "uint256"
        },
        {
          "internalType": "bytes",
          "name": "",
          "type": "bytes"
        }
      ],
      "stateMutability": "pure",
      "type": "function"
    },
    {
      "inputs": [
        {
          "internalType": "contract ICErc20",
          "name": "_cEther",
          "type": "ICErc20"
        },
        {
          "internalType": "uint256",
          "name": "_mintNotional",
          "type": "uint256"
        }
      ],
      "name": "getMintCEtherCalldata",
      "outputs": [
        {
          "internalType": "address",
          "name": "",
          "type": "address"
        },
        {
          "internalType": "uint256",
          "name": "",
          "type": "uint256"
        },
        {
          "internalType": "bytes",
          "name": "",
          "type": "bytes"
        }
      ],
      "stateMutability": "pure",
      "type": "function"
    },
    {
      "inputs": [
        {
          "internalType": "contract ICErc20",
          "name": "_cToken",
          "type": "ICErc20"
        },
        {
          "internalType": "uint256",
          "name": "_mintNotional",
          "type": "uint256"
        }
      ],
      "name": "getMintCTokenCalldata",
      "outputs": [
        {
          "internalType": "address",
          "name": "",
          "type": "address"
        },
        {
          "internalType": "uint256",
          "name": "",
          "type": "uint256"
        },
        {
          "internalType": "bytes",
          "name": "",
          "type": "bytes"
        }
      ],
      "stateMutability": "pure",
      "type": "function"
    },
    {
      "inputs": [
        {
          "internalType": "contract ICErc20",
          "name": "_cToken",
          "type": "ICErc20"
        },
        {
          "internalType": "uint256",
          "name": "_redeemNotional",
          "type": "uint256"
        }
      ],
      "name": "getRedeemUnderlyingCalldata",
      "outputs": [
        {
          "internalType": "address",
          "name": "",
          "type": "address"
        },
        {
          "internalType": "uint256",
          "name": "",
          "type": "uint256"
        },
        {
          "internalType": "bytes",
          "name": "",
          "type": "bytes"
        }
      ],
      "stateMutability": "pure",
      "type": "function"
    },
    {
      "inputs": [
        {
          "internalType": "contract ICErc20",
          "name": "_cToken",
          "type": "ICErc20"
        },
        {
          "internalType": "uint256",
          "name": "_repayNotional",
          "type": "uint256"
        }
      ],
      "name": "getRepayBorrowCEtherCalldata",
      "outputs": [
        {
          "internalType": "address",
          "name": "",
          "type": "address"
        },
        {
          "internalType": "uint256",
          "name": "",
          "type": "uint256"
        },
        {
          "internalType": "bytes",
          "name": "",
          "type": "bytes"
        }
      ],
      "stateMutability": "pure",
      "type": "function"
    },
    {
      "inputs": [
        {
          "internalType": "contract ICErc20",
          "name": "_cToken",
          "type": "ICErc20"
        },
        {
          "internalType": "uint256",
          "name": "_repayNotional",
          "type": "uint256"
        }
      ],
      "name": "getRepayBorrowCTokenCalldata",
      "outputs": [
        {
          "internalType": "address",
          "name": "",
          "type": "address"
        },
        {
          "internalType": "uint256",
          "name": "",
          "type": "uint256"
        },
        {
          "internalType": "bytes",
          "name": "",
          "type": "bytes"
        }
      ],
      "stateMutability": "pure",
      "type": "function"
    }
  ],
  "bytecode": "0x611715610026600b82828239805160001a60731461001957fe5b30600052607381538281f3fe730000000000000000000000000000000000000000301460806040526004361061010a5760003560e01c80636d4aada5116100a1578063aed2dfc911610070578063aed2dfc91461041b578063b17faf1c1461045e578063beee4b4b146104a3578063fa872cfa146104e65761010a565b80636d4aada51461036b5780639653f87914610397578063a2ca57e0146103c3578063a753734e146103ef5761010a565b80633c77439c116100dd5780633c77439c1461028b57806343472132146102b95780635d202591146102e5578063690f6561146103285761010a565b806301fd16b21461010f57806309c09c90146101d357806309c8202b1461021a5780632c66b57e1461025d575b600080fd5b61013b6004803603604081101561012557600080fd5b506001600160a01b038135169060200135610529565b60405180846001600160a01b03166001600160a01b0316815260200183815260200180602001828103825283818151815260200191508051906020019080838360005b8381101561019657818101518382015260200161017e565b50505050905090810190601f1680156101c35780820380516001836020036101000a031916815260200191505b5094505050505060405180910390f35b8180156101df57600080fd5b50610218600480360360608110156101f657600080fd5b506001600160a01b038135811691602081013582169160409091013516610567565b005b81801561022657600080fd5b506102186004803603606081101561023d57600080fd5b506001600160a01b0381358116916020810135909116906040013561078c565b61013b6004803603604081101561027357600080fd5b506001600160a01b03813581169160200135166109a8565b61013b600480360360408110156102a157600080fd5b506001600160a01b0381358116916020013516610a80565b61013b600480360360408110156102cf57600080fd5b506001600160a01b038135169060200135610acb565b8180156102f157600080fd5b506102186004803603606081101561030857600080fd5b506001600160a01b03813581169160208101359091169060400135610afb565b81801561033457600080fd5b506102186004803603606081101561034b57600080fd5b506001600160a01b03813581169160208101359091169060400135610cc7565b61013b6004803603604081101561038157600080fd5b506001600160a01b038135169060200135610ccf565b61013b600480360360408110156103ad57600080fd5b506001600160a01b038135169060200135610cff565b61013b600480360360408110156103d957600080fd5b506001600160a01b038135169060200135610d3e565b61013b6004803603604081101561040557600080fd5b506001600160a01b038135169060200135610d7d565b81801561042757600080fd5b506102186004803603606081101561043e57600080fd5b506001600160a01b03813581169160208101359091169060400135610dbc565b81801561046a57600080fd5b506102186004803603606081101561048157600080fd5b506001600160a01b038135811691602081013582169160409091013516610fda565b8180156104af57600080fd5b50610218600480360360608110156104c657600080fd5b506001600160a01b038135811691602081013590911690604001356112a4565b8180156104f257600080fd5b506102186004803603606081101561050957600080fd5b506001600160a01b038135811691602081013590911690604001356114c2565b604080516024808201939093528151808203909301835260440190526020810180516001600160e01b031663317afabb60e21b179052909160009190565b60606105738383610a80565b92505050836001600160a01b0316638f6f0332836000846040518463ffffffff1660e01b815260040180846001600160a01b03166001600160a01b0316815260200183815260200180602001828103825283818151815260200191508051906020019080838360005b838110156105f45781810151838201526020016105dc565b50505050905090810190601f1680156106215780820380516001836020036101000a031916815260200191505b50945050505050600060405180830381600087803b15801561064257600080fd5b505af1158015610656573d6000803e3d6000fd5b505050506040513d6000823e601f3d908101601f19168201604052602081101561067f57600080fd5b8101908080516040519392919084600160201b82111561069e57600080fd5b9083019060208201858111156106b357600080fd5b8251600160201b8111828201881017156106cc57600080fd5b82525081516020918201929091019080838360005b838110156106f95781810151838201526020016106e1565b50505050905090810190601f1680156107265780820380516001836020036101000a031916815260200191505b50604052505050806020019051602081101561074157600080fd5b505115610786576040805162461bcd60e51b815260206004820152600e60248201526d115e1a5d1a5b99c819985a5b195960921b604482015290519081900360640190fd5b50505050565b60606107988383610cff565b92505050836001600160a01b0316638f6f0332846000846040518463ffffffff1660e01b815260040180846001600160a01b03166001600160a01b0316815260200183815260200180602001828103825283818151815260200191508051906020019080838360005b83811015610819578181015183820152602001610801565b50505050905090810190601f1680156108465780820380516001836020036101000a031916815260200191505b50945050505050600060405180830381600087803b15801561086757600080fd5b505af115801561087b573d6000803e3d6000fd5b505050506040513d6000823e601f3d908101601f1916820160405260208110156108a457600080fd5b8101908080516040519392919084600160201b8211156108c357600080fd5b9083019060208201858111156108d857600080fd5b8251600160201b8111828201881017156108f157600080fd5b82525081516020918201929091019080838360005b8381101561091e578181015183820152602001610906565b50505050905090810190601f16801561094b5780820380516001836020036101000a031916815260200191505b50604052505050806020019051602081101561096657600080fd5b505115610786576040805162461bcd60e51b815260206004820152600b60248201526a135a5b9d0819985a5b195960aa1b604482015290519081900360640190fd5b60408051600180825281830190925260009182916060918291906020808301908036833701905050905085816000815181106109e057fe5b6001600160a01b039092166020928302919091018201526040516024810182815283516044830152835160609385938392606490910191858101910280838360005b83811015610a3a578181015183820152602001610a22565b50506040805193909501838103601f1901845290945250602081018051631853304760e31b6001600160e01b039091161790529a9c60009c509950505050505050505050565b604080516001600160a01b039390931660248085019190915281518085039091018152604490930190526020820180516001600160e01b0316630ede4edd60e41b1790529160009190565b6040805160048152602481019091526020810180516001600160e01b0316632726cff560e11b1790529192909190565b6060610b078383610acb565b92505050836001600160a01b0316638f6f03328484846040518463ffffffff1660e01b815260040180846001600160a01b03166001600160a01b0316815260200183815260200180602001828103825283818151815260200191508051906020019080838360005b83811015610b87578181015183820152602001610b6f565b50505050905090810190601f168015610bb45780820380516001836020036101000a031916815260200191505b50945050505050600060405180830381600087803b158015610bd557600080fd5b505af1158015610be9573d6000803e3d6000fd5b505050506040513d6000823e601f3d908101601f191682016040526020811015610c1257600080fd5b8101908080516040519392919084600160201b821115610c3157600080fd5b908301906020820185811115610c4657600080fd5b8251600160201b811182820188101715610c5f57600080fd5b82525081516020918201929091019080838360005b83811015610c8c578181015183820152602001610c74565b50505050905090810190601f168015610cb95780820380516001836020036101000a031916815260200191505b506040525050505050505050565b6060610b0783835b6040805160048152602481019091526020810180516001600160e01b0316631249c58b60e01b1790529192909190565b6040805160248082018490528251808303909101815260449091019091526020810180516001600160e01b031663140e25ad60e31b1790529192909190565b6040805160248082018490528251808303909101815260449091019091526020810180516001600160e01b031663852a12e360e01b1790529192909190565b6040805160248082018490528251808303909101815260449091019091526020810180516001600160e01b031663073a938160e11b1790529192909190565b6060610dc88383610d3e565b92505050836001600160a01b0316638f6f0332846000846040518463ffffffff1660e01b815260040180846001600160a01b03166001600160a01b0316815260200183815260200180602001828103825283818151815260200191508051906020019080838360005b83811015610e49578181015183820152602001610e31565b50505050905090810190601f168015610e765780820380516001836020036101000a031916815260200191505b50945050505050600060405180830381600087803b158015610e9757600080fd5b505af1158015610eab573d6000803e3d6000fd5b505050506040513d6000823e601f3d908101601f191682016040526020811015610ed457600080fd5b8101908080516040519392919084600160201b821115610ef357600080fd5b908301906020820185811115610f0857600080fd5b8251600160201b811182820188101715610f2157600080fd5b82525081516020918201929091019080838360005b83811015610f4e578181015183820152602001610f36565b50505050905090810190601f168015610f7b5780820380516001836020036101000a031916815260200191505b506040525050508060200190516020811015610f9657600080fd5b505115610786576040805162461bcd60e51b815260206004820152600d60248201526c14995919595b4819985a5b1959609a1b604482015290519081900360640190fd5b6060610fe683836109a8565b925050506060846001600160a01b0316638f6f0332846000856040518463ffffffff1660e01b815260040180846001600160a01b03166001600160a01b0316815260200183815260200180602001828103825283818151815260200191508051906020019080838360005b83811015611069578181015183820152602001611051565b50505050905090810190601f1680156110965780820380516001836020036101000a031916815260200191505b50945050505050600060405180830381600087803b1580156110b757600080fd5b505af11580156110cb573d6000803e3d6000fd5b505050506040513d6000823e601f3d908101601f1916820160405260208110156110f457600080fd5b8101908080516040519392919084600160201b82111561111357600080fd5b90830190602082018581111561112857600080fd5b8251600160201b81118282018810171561114157600080fd5b82525081516020918201929091019080838360005b8381101561116e578181015183820152602001611156565b50505050905090810190601f16801561119b5780820380516001836020036101000a031916815260200191505b5060405250505080602001905160208110156111b657600080fd5b8101908080516040519392919084600160201b8211156111d557600080fd5b9083019060208201858111156111ea57600080fd5b82518660208202830111600160201b8211171561120657600080fd5b82525081516020918201928201910280838360005b8381101561123357818101518382015260200161121b565b5050505090500160405250505090508060008151811061124f57fe5b602002602001015160001461129d576040805162461bcd60e51b815260206004820152600f60248201526e115b9d195c9a5b99c819985a5b1959608a1b604482015290519081900360640190fd5b5050505050565b60606112b08383610529565b92505050836001600160a01b0316638f6f0332846000846040518463ffffffff1660e01b815260040180846001600160a01b03166001600160a01b0316815260200183815260200180602001828103825283818151815260200191508051906020019080838360005b83811015611331578181015183820152602001611319565b50505050905090810190601f16801561135e5780820380516001836020036101000a031916815260200191505b50945050505050600060405180830381600087803b15801561137f57600080fd5b505af1158015611393573d6000803e3d6000fd5b505050506040513d6000823e601f3d908101601f1916820160405260208110156113bc57600080fd5b8101908080516040519392919084600160201b8211156113db57600080fd5b9083019060208201858111156113f057600080fd5b8251600160201b81118282018810171561140957600080fd5b82525081516020918201929091019080838360005b8381101561143657818101518382015260200161141e565b50505050905090810190601f1680156114635780820380516001836020036101000a031916815260200191505b50604052505050806020019051602081101561147e57600080fd5b505115610786576040805162461bcd60e51b815260206004820152600d60248201526c109bdc9c9bddc819985a5b1959609a1b604482015290519081900360640190fd5b60606114ce8383610d7d565b92505050836001600160a01b0316638f6f0332846000846040518463ffffffff1660e01b815260040180846001600160a01b03166001600160a01b0316815260200183815260200180602001828103825283818151815260200191508051906020019080838360005b8381101561154f578181015183820152602001611537565b50505050905090810190601f16801561157c5780820380516001836020036101000a031916815260200191505b50945050505050600060405180830381600087803b15801561159d57600080fd5b505af11580156115b1573d6000803e3d6000fd5b505050506040513d6000823e601f3d908101601f1916820160405260208110156115da57600080fd5b8101908080516040519392919084600160201b8211156115f957600080fd5b90830190602082018581111561160e57600080fd5b8251600160201b81118282018810171561162757600080fd5b82525081516020918201929091019080838360005b8381101561165457818101518382015260200161163c565b50505050905090810190601f1680156116815780820380516001836020036101000a031916815260200191505b50604052505050806020019051602081101561169c57600080fd5b505115610786576040805162461bcd60e51b815260206004820152600c60248201526b14995c185e4819985a5b195960a21b604482015290519081900360640190fdfea2646970667358221220b38f42ea8a6b9a5ac34022dcf4e5a0c42fe4610311ecaba4fad92dc42cba958764736f6c634300060a0033",
  "linkReferences": {},
  "deployedLinkReferences": {}
}