{
  "_format": "hh-sol-artifact-1",
  "contractName": "DebtIssuanceModuleV3",
  "sourceName": "contracts/protocol/modules/v1/DebtIssuanceModuleV3.sol",
  "abi": [
    {
      "inputs": [
        {
          "internalType": "contract IController",
          "name": "_controller",
          "type": "address"
        },
        {
          "internalType": "uint256",
          "name": "_tokenTransferBuffer",
          "type": "uint256"
        }
      ],
      "stateMutability": "nonpayable",
      "type": "constructor"
    },
    {
      "anonymous": false,
      "inputs": [
        {
          "indexed": true,
          "internalType": "contract ISetToken",
          "name": "_setToken",
          "type": "address"
        },
        {
          "indexed": false,
          "internalType": "address",
          "name": "_newFeeRecipient",
          "type": "address"
        }
      ],
      "name": "FeeRecipientUpdated",
      "type": "event"
    },
    {
      "anonymous": false,
      "inputs": [
        {
          "indexed": true,
          "internalType": "contract ISetToken",
          "name": "_setToken",
          "type": "address"
        },
        {
          "indexed": false,
          "internalType": "uint256",
          "name": "_newIssueFee",
          "type": "uint256"
        }
      ],
      "name": "IssueFeeUpdated",
      "type": "event"
    },
    {
      "anonymous": false,
      "inputs": [
        {
          "indexed": true,
          "internalType": "contract ISetToken",
          "name": "_setToken",
          "type": "address"
        },
        {
          "indexed": false,
          "internalType": "uint256",
          "name": "_newRedeemFee",
          "type": "uint256"
        }
      ],
      "name": "RedeemFeeUpdated",
      "type": "event"
    },
    {
      "anonymous": false,
      "inputs": [
        {
          "indexed": true,
          "internalType": "contract ISetToken",
          "name": "_setToken",
          "type": "address"
        },
        {
          "indexed": true,
          "internalType": "address",
          "name": "_issuer",
          "type": "address"
        },
        {
          "indexed": true,
          "internalType": "address",
          "name": "_to",
          "type": "address"
        },
        {
          "indexed": false,
          "internalType": "address",
          "name": "_hookContract",
          "type": "address"
        },
        {
          "indexed": false,
          "internalType": "uint256",
          "name": "_quantity",
          "type": "uint256"
        },
        {
          "indexed": false,
          "internalType": "uint256",
          "name": "_managerFee",
          "type": "uint256"
        },
        {
          "indexed": false,
          "internalType": "uint256",
          "name": "_protocolFee",
          "type": "uint256"
        }
      ],
      "name": "SetTokenIssued",
      "type": "event"
    },
    {
      "anonymous": false,
      "inputs": [
        {
          "indexed": true,
          "internalType": "contract ISetToken",
          "name": "_setToken",
          "type": "address"
        },
        {
          "indexed": true,
          "internalType": "address",
          "name": "_redeemer",
          "type": "address"
        },
        {
          "indexed": true,
          "internalType": "address",
          "name": "_to",
          "type": "address"
        },
        {
          "indexed": false,
          "internalType": "uint256",
          "name": "_quantity",
          "type": "uint256"
        },
        {
          "indexed": false,
          "internalType": "uint256",
          "name": "_managerFee",
          "type": "uint256"
        },
        {
          "indexed": false,
          "internalType": "uint256",
          "name": "_protocolFee",
          "type": "uint256"
        }
      ],
      "name": "SetTokenRedeemed",
      "type": "event"
    },
    {
      "inputs": [
        {
          "internalType": "contract ISetToken",
          "name": "_setToken",
          "type": "address"
        },
        {
          "internalType": "uint256",
          "name": "_quantity",
          "type": "uint256"
        },
        {
          "internalType": "bool",
          "name": "_isIssue",
          "type": "bool"
        }
      ],
      "name": "calculateTotalFees",
      "outputs": [
        {
          "internalType": "uint256",
          "name": "totalQuantity",
          "type": "uint256"
        },
        {
          "internalType": "uint256",
          "name": "managerFee",
          "type": "uint256"
        },
        {
          "internalType": "uint256",
          "name": "protocolFee",
          "type": "uint256"
        }
      ],
      "stateMutability": "view",
      "type": "function",
      "gas": "0xa7d8c0"
    },
    {
      "inputs": [],
      "name": "controller",
      "outputs": [
        {
          "internalType": "contract IController",
          "name": "",
          "type": "address"
        }
      ],
      "stateMutability": "view",
      "type": "function",
      "gas": "0xa7d8c0"
    },
    {
      "inputs": [
        {
          "internalType": "contract ISetToken",
          "name": "_setToken",
          "type": "address"
        }
      ],
      "name": "getModuleIssuanceHooks",
      "outputs": [
        {
          "internalType": "address[]",
          "name": "",
          "type": "address[]"
        }
      ],
      "stateMutability": "view",
      "type": "function",
      "gas": "0xa7d8c0"
    },
    {
      "inputs": [
        {
          "internalType": "contract ISetToken",
          "name": "_setToken",
          "type": "address"
        },
        {
          "internalType": "uint256",
          "name": "_quantity",
          "type": "uint256"
        }
      ],
      "name": "getRequiredComponentIssuanceUnits",
      "outputs": [
        {
          "internalType": "address[]",
          "name": "components",
          "type": "address[]"
        },
        {
          "internalType": "uint256[]",
          "name": "equityUnits",
          "type": "uint256[]"
        },
        {
          "internalType": "uint256[]",
          "name": "debtUnits",
          "type": "uint256[]"
        }
      ],
      "stateMutability": "view",
      "type": "function",
      "gas": "0xa7d8c0"
    },
    {
      "inputs": [
        {
          "internalType": "contract ISetToken",
          "name": "_setToken",
          "type": "address"
        },
        {
          "internalType": "uint256",
          "name": "_quantity",
          "type": "uint256"
        }
      ],
      "name": "getRequiredComponentRedemptionUnits",
      "outputs": [
        {
          "internalType": "address[]",
          "name": "components",
          "type": "address[]"
        },
        {
          "internalType": "uint256[]",
          "name": "equityUnits",
          "type": "uint256[]"
        },
        {
          "internalType": "uint256[]",
          "name": "debtUnits",
          "type": "uint256[]"
        }
      ],
      "stateMutability": "view",
      "type": "function",
      "gas": "0xa7d8c0"
    },
    {
      "inputs": [
        {
          "internalType": "contract ISetToken",
          "name": "_setToken",
          "type": "address"
        },
        {
          "internalType": "uint256",
          "name": "_maxManagerFee",
          "type": "uint256"
        },
        {
          "internalType": "uint256",
          "name": "_managerIssueFee",
          "type": "uint256"
        },
        {
          "internalType": "uint256",
          "name": "_managerRedeemFee",
          "type": "uint256"
        },
        {
          "internalType": "address",
          "name": "_feeRecipient",
          "type": "address"
        },
        {
          "internalType": "contract IManagerIssuanceHook",
          "name": "_managerIssuanceHook",
          "type": "address"
        }
      ],
      "name": "initialize",
      "outputs": [],
      "stateMutability": "nonpayable",
      "type": "function",
      "gas": "0xa7d8c0"
    },
    {
      "inputs": [
        {
          "internalType": "contract ISetToken",
          "name": "_setToken",
          "type": "address"
        },
        {
          "internalType": "address",
          "name": "_hook",
          "type": "address"
        }
      ],
      "name": "isModuleIssuanceHook",
      "outputs": [
        {
          "internalType": "bool",
          "name": "",
          "type": "bool"
        }
      ],
      "stateMutability": "view",
      "type": "function",
      "gas": "0xa7d8c0"
    },
    {
      "inputs": [
        {
          "internalType": "contract ISetToken",
          "name": "",
          "type": "address"
        }
      ],
      "name": "issuanceSettings",
      "outputs": [
        {
          "internalType": "uint256",
          "name": "maxManagerFee",
          "type": "uint256"
        },
        {
          "internalType": "uint256",
          "name": "managerIssueFee",
          "type": "uint256"
        },
        {
          "internalType": "uint256",
          "name": "managerRedeemFee",
          "type": "uint256"
        },
        {
          "internalType": "address",
          "name": "feeRecipient",
          "type": "address"
        },
        {
          "internalType": "contract IManagerIssuanceHook",
          "name": "managerIssuanceHook",
          "type": "address"
        }
      ],
      "stateMutability": "view",
      "type": "function",
      "gas": "0xa7d8c0"
    },
    {
      "inputs": [
        {
          "internalType": "contract ISetToken",
          "name": "_setToken",
          "type": "address"
        },
        {
          "internalType": "uint256",
          "name": "_quantity",
          "type": "uint256"
        },
        {
          "internalType": "address",
          "name": "_to",
          "type": "address"
        }
      ],
      "name": "issue",
      "outputs": [],
      "stateMutability": "nonpayable",
      "type": "function",
      "gas": "0xa7d8c0"
    },
    {
      "inputs": [
        {
          "internalType": "contract ISetToken",
          "name": "_setToken",
          "type": "address"
        },
        {
          "internalType": "uint256",
          "name": "_quantity",
          "type": "uint256"
        },
        {
          "internalType": "address",
          "name": "_to",
          "type": "address"
        }
      ],
      "name": "redeem",
      "outputs": [],
      "stateMutability": "nonpayable",
      "type": "function",
      "gas": "0xa7d8c0"
    },
    {
      "inputs": [
        {
          "internalType": "contract ISetToken",
          "name": "_setToken",
          "type": "address"
        }
      ],
      "name": "registerToIssuanceModule",
      "outputs": [],
      "stateMutability": "nonpayable",
      "type": "function",
      "gas": "0xa7d8c0"
    },
    {
      "inputs": [],
      "name": "removeModule",
      "outputs": [],
      "stateMutability": "nonpayable",
      "type": "function",
      "gas": "0xa7d8c0"
    },
    {
      "inputs": [],
      "name": "tokenTransferBuffer",
      "outputs": [
        {
          "internalType": "uint256",
          "name": "",
          "type": "uint256"
        }
      ],
      "stateMutability": "view",
      "type": "function",
      "gas": "0xa7d8c0"
    },
    {
      "inputs": [
        {
          "internalType": "contract ISetToken",
          "name": "_setToken",
          "type": "address"
        }
      ],
      "name": "unregisterFromIssuanceModule",
      "outputs": [],
      "stateMutability": "nonpayable",
      "type": "function",
      "gas": "0xa7d8c0"
    },
    {
      "inputs": [
        {
          "internalType": "contract ISetToken",
          "name": "_setToken",
          "type": "address"
        },
        {
          "internalType": "address",
          "name": "_newFeeRecipient",
          "type": "address"
        }
      ],
      "name": "updateFeeRecipient",
      "outputs": [],
      "stateMutability": "nonpayable",
      "type": "function",
      "gas": "0xa7d8c0"
    },
    {
      "inputs": [
        {
          "internalType": "contract ISetToken",
          "name": "_setToken",
          "type": "address"
        },
        {
          "internalType": "uint256",
          "name": "_newIssueFee",
          "type": "uint256"
        }
      ],
      "name": "updateIssueFee",
      "outputs": [],
      "stateMutability": "nonpayable",
      "type": "function",
      "gas": "0xa7d8c0"
    },
    {
      "inputs": [
        {
          "internalType": "contract ISetToken",
          "name": "_setToken",
          "type": "address"
        },
        {
          "internalType": "uint256",
          "name": "_newRedeemFee",
          "type": "uint256"
        }
      ],
      "name": "updateRedeemFee",
      "outputs": [],
      "stateMutability": "nonpayable",
      "type": "function",
      "gas": "0xa7d8c0"
    }
  ],
  "bytecode": "0x60a06040523480156200001157600080fd5b506040516200411838038062004118833981016040819052620000349162000062565b600080546001600160a01b0319166001600160a01b039390931692909217909155600180556080526200009c565b6000806040838503121562000075578182fd5b82516001600160a01b03811681146200008c578283fd5b6020939093015192949293505050565b608051614048620000d06000398061035952806106d2528061072c528061076752806116ed528061175252506140486000f3fe608060405234801561001057600080fd5b506004361061010b5760003560e01c80636dd86aa9116100a2578063cb38b22311610071578063cb38b2231461022e578063cd3c753914610241578063d9b1b6e014610265578063e079962014610278578063f77c47911461028b5761010b565b80636dd86aa9146101de578063847ef08d146101f15780638dda4037146101f9578063bf9fe1381461021b5761010b565b806363082446116100de578063630824461461018357806363b7b8ae146101a35780636b8e53b6146101b85780636d78f47a146101cb5761010b565b806308bc0e1114610110578063131e26b9146101395780635c833bfd1461015b5780635d98c37314610170575b600080fd5b61012361011e3660046133e1565b6102a0565b60405161013091906136ef565b60405180910390f35b61014c610147366004613435565b610319565b60405161013093929190613702565b61016e610169366004613460565b6103a7565b005b61016e61017e3660046133fd565b6105bc565b6101966101913660046133fd565b61069c565b6040516101309190613739565b6101ab6106d0565b6040516101309190613f4e565b61014c6101c6366004613435565b6106f4565b61016e6101d9366004613460565b6107d5565b61016e6101ec366004613435565b6109f3565b61016e610abf565b61020c6102073660046134a1565b610b42565b60405161013093929190613f57565b61016e6102293660046134d7565b610d18565b61016e61023c366004613435565b610e9b565b61025461024f3660046133e1565b610f66565b604051610130959493929190613f6d565b61016e6102733660046133e1565b610fa2565b61016e6102863660046133e1565b61105a565b610293611110565b604051610130919061362e565b6001600160a01b03811660009081526002602090815260409182902060050180548351818402810184019094528084526060939283018282801561030d57602002820191906000526020600020905b81546001600160a01b031681526001909101906020018083116102ef575b50505050509050919050565b6060806060610328858561111f565b9194509250905060005b825181101561039f57600083828151811061034957fe5b60200260200101511115610397577f000000000000000000000000000000000000000000000000000000000000000083828151811061038457fe5b6020026020010181815101915081815250505b600101610332565b509250925092565b600260015414156103d35760405162461bcd60e51b81526004016103ca90613ed4565b60405180910390fd5b6002600155826103e281611310565b600083116104025760405162461bcd60e51b81526004016103ca906138e9565b61040c8484611338565b6000846001600160a01b03166318160ddd6040518163ffffffff1660e01b815260040160206040518083038186803b15801561044757600080fd5b505afa15801561045b573d6000803e3d6000fd5b505050506040513d601f19601f8201168201806040525081019061047f919061355c565b604051632770a7eb60e21b81529091506001600160a01b03861690639dc29fac906104b09033908890600401613642565b600060405180830381600087803b1580156104ca57600080fd5b505af11580156104de573d6000803e3d6000fd5b5050505060008060006104f388886000610b42565b925092509250606080606061050a8b87600061143f565b919450925090506000610523888863ffffffff61159216565b90506105358c88600087868d876115db565b6105468c888c600088888e8861169a565b6105518c878761179e565b50505050856001600160a01b0316336001600160a01b0316896001600160a01b03167f54f4ed50e49638053e1655b45ee7ece434edd150e6771ac0aaedb8355be13a338a86866040516105a693929190613f57565b60405180910390a4505060018055505050505050565b816105c68161190e565b6001600160a01b0382166105ec5760405162461bcd60e51b81526004016103ca90613c2f565b6001600160a01b038084166000908152600260205260409020600301548382169116141561062c5760405162461bcd60e51b81526004016103ca90613bf8565b6001600160a01b038381166000818152600260205260409081902060030180546001600160a01b0319169386169390931790925590517faaebcf1bfa00580e41d966056b48521fa9f202645c86d4ddf28113e617c1b1d39061068f90859061362e565b60405180910390a2505050565b6001600160a01b038083166000908152600260209081526040808320938516835260069093019052205460ff165b92915050565b7f000000000000000000000000000000000000000000000000000000000000000081565b6060806060600061070786866000610b42565b505090506107178682600061143f565b9195509350915060005b83518110156107cc577f000000000000000000000000000000000000000000000000000000000000000084828151811061075757fe5b602002602001015111156107a9577f000000000000000000000000000000000000000000000000000000000000000084828151811061079257fe5b6020026020010181815103915081815250506107c4565b60008482815181106107b757fe5b6020026020010181815250505b600101610721565b50509250925092565b600260015414156107f85760405162461bcd60e51b81526004016103ca90613ed4565b60026001558261080781611310565b600083116108275760405162461bcd60e51b81526004016103ca906139c5565b600061083585853386611934565b905061084185856119d5565b6000856001600160a01b03166318160ddd6040518163ffffffff1660e01b815260040160206040518083038186803b15801561087c57600080fd5b505afa158015610890573d6000803e3d6000fd5b505050506040513d601f19601f820116820180604052508101906108b4919061355c565b905060008060006108c789896001610b42565b92509250925060608060606108de8c87600161143f565b9194509250905060006108f7888863ffffffff611ad616565b905061090a8d888d600188888e8861169a565b61091a8d88600187868d876115db565b6109258d878761179e565b50506040516340c10f1960e01b81526001600160a01b038c1692506340c10f199150610957908a908c90600401613642565b600060405180830381600087803b15801561097157600080fd5b505af1158015610985573d6000803e3d6000fd5b50505050866001600160a01b0316336001600160a01b03168a6001600160a01b03167f1abc43bc3dd8b6c8bb9bcf1a14a84f83981bf5335700ef07758efefcb03a8c75888c87876040516109dc94939291906136c9565b60405180910390a450506001805550505050505050565b816109fd8161190e565b6001600160a01b038316600090815260026020526040902054821115610a355760405162461bcd60e51b81526004016103ca906137db565b6001600160a01b03831660009081526002602081905260409091200154821415610a715760405162461bcd60e51b81526004016103ca90613841565b6001600160a01b03831660008181526002602081905260409182902001849055517f676eda176d6aa20e9aa09b9ee131487c90646cd2b951176f75bd6fccdc0261779061068f908590613f4e565b3360009081526002602052604090206005015415610aef5760405162461bcd60e51b81526004016103ca90613e91565b3360009081526002602081905260408220828155600181018390559081018290556003810180546001600160a01b0319908116909155600482018054909116905590610b3e600583018261315f565b5050565b6000806000610b4f61317d565b6001600160a01b03808816600090815260026020818152604092839020835160c0810185528154815260018201548184015292810154838501526003810154851660608401526004810154909416608083015260058401805484518184028101840190955280855292949360a08601939092830182828015610bfa57602002820191906000526020600020905b81546001600160a01b03168152600190910190602001808311610bdc575b5050509190925250506000805460405163792aa04f60e01b815293945090926001600160a01b03909116915063792aa04f90610c3c9030908590600401613642565b60206040518083038186803b158015610c5457600080fd5b505afa158015610c68573d6000803e3d6000fd5b505050506040513d601f19601f82011682018060405250810190610c8c919061355c565b9050600086610c9f578260400151610ca5565b82602001515b90506000610cb9828a63ffffffff611afb16565b9050610ccb818463ffffffff611afb16565b9450610cdd818663ffffffff61159216565b955087610cf957610cf4898263ffffffff61159216565b610d09565b610d09898263ffffffff611ad616565b96505050505093509350939050565b8533610d248282611b25565b87610d2e81611b4b565b87871115610d4e5760405162461bcd60e51b81526004016103ca90613bb6565b87861115610d6e5760405162461bcd60e51b81526004016103ca90613f0b565b6040805160c08101825289815260208082018a90528183018990526001600160a01b0388811660608401528716608083015282516000808252918101909352909160a08301915090526001600160a01b03808b1660009081526002602081815260409283902085518155858201516001820155928501519183019190915560608401516003830180549185166001600160a01b031992831617905560808501516004840180549190951691161790925560a083015180519192610e39926005850192909101906131c5565b50905050886001600160a01b0316630ffe0f1e6040518163ffffffff1660e01b8152600401600060405180830381600087803b158015610e7857600080fd5b505af1158015610e8c573d6000803e3d6000fd5b50505050505050505050505050565b81610ea58161190e565b6001600160a01b038316600090815260026020526040902054821115610edd5760405162461bcd60e51b81526004016103ca9061398e565b6001600160a01b038316600090815260026020526040902060010154821415610f185760405162461bcd60e51b81526004016103ca90613b40565b6001600160a01b03831660008181526002602052604090819020600101849055517fd1de57b1db6a29967f337d6f744b7811624dabf2be924c65708336a81678d0779061068f908590613f4e565b60026020819052600091825260409091208054600182015492820154600383015460049093015491939290916001600160a01b03918216911685565b80610fac81611c0c565b81610fb681611310565b6001600160a01b038316600090815260026020908152604080832033845260060190915290205460ff1615610ffd5760405162461bcd60e51b81526004016103ca90613cad565b50506001600160a01b03166000908152600260209081526040808320600581018054600181810183559186528486200180546001600160a01b0319163390811790915585526006909101909252909120805460ff19169091179055565b8061106481611c0c565b8161106e81611310565b6001600160a01b038316600090815260026020908152604080832033845260060190915290205460ff166110b45760405162461bcd60e51b81526004016103ca906138b9565b6001600160a01b03831660009081526002602052604090206110df906005013363ffffffff611d4e16565b50506001600160a01b031660009081526002602090815260408083203384526006019091529020805460ff19169055565b6000546001600160a01b031681565b6060806060600061113286866001610b42565b50509050856001600160a01b03166318160ddd6040518163ffffffff1660e01b815260040160206040518083038186803b15801561116f57600080fd5b505afa158015611183573d6000803e3d6000fd5b505050506040513d601f19601f820116820180604052508101906111a7919061355c565b6111c3576111b78682600161143f565b93509350935050611309565b60608060606111d189611e7a565b8251929550909350915060608167ffffffffffffffff811180156111f457600080fd5b5060405190808252806020026020018201604052801561121e578160200160208202803683370190505b50905060608267ffffffffffffffff8111801561123a57600080fd5b50604051908082528060200260200182016040528015611264578160200160208202803683370190505b50905060005b86518110156112f6576112998887838151811061128357fe5b602002602001015161229790919063ffffffff16565b8382815181106112a557fe5b6020026020010181815250506112d7888683815181106112c157fe5b6020026020010151611afb90919063ffffffff16565b8282815181106112e357fe5b602090810291909101015260010161126a565b5094985096509294506113099350505050565b9250925092565b611319816122ee565b6113355760405162461bcd60e51b81526004016103ca90613871565b50565b6001600160a01b0382166000908152600260209081526040918290206005018054835181840281018401909452808452606093928301828280156113a557602002820191906000526020600020905b81546001600160a01b03168152600190910190602001808311611387575b50939450600093505050505b8151811015611439578181815181106113c657fe5b60200260200101516001600160a01b0316633fe6106b85856040518363ffffffff1660e01b81526004016113fb929190613642565b600060405180830381600087803b15801561141557600080fd5b505af1158015611429573d6000803e3d6000fd5b5050600190920191506113b19050565b50505050565b606080606080606080611451896123f2565b8251929550909350915060608167ffffffffffffffff8111801561147457600080fd5b5060405190808252806020026020018201604052801561149e578160200160208202803683370190505b50905060608267ffffffffffffffff811180156114ba57600080fd5b506040519080825280602002602001820160405280156114e4578160200160208202803683370190505b50905060005b865181101561157e578a61150d576115088c8783815181106112c157fe5b61151d565b61151d8c87838151811061128357fe5b83828151811061152957fe5b6020026020010181815250508a61154f5761154a8c86838151811061128357fe5b61155f565b61155f8c8683815181106112c157fe5b82828151811061156b57fe5b60209081029190910101526001016114ea565b50949b909a50939850929650505050505050565b60006115d483836040518060400160405280601e81526020017f536166654d6174683a207375627472616374696f6e206f766572666c6f77000081525061277e565b9392505050565b60005b84518110156116905760008582815181106115f557fe5b60200260200101519050600085838151811061160d57fe5b602002602001015190506000811115611686578715611660576116358a8a84600160006127aa565b6116506001600160a01b038b1683338463ffffffff61295a16565b61165b8a8386612a6c565b611686565b61166c82338c84612ba6565b6116788a838784612bfe565b6116868a8a846000806127aa565b50506001016115de565b5050505050505050565b60005b84518110156117935760008582815181106116b457fe5b6020026020010151905060008583815181106116cc57fe5b6020026020010151905060008111156117895787156117325761171382338d7f00000000000000000000000000000000000000000000000000000000000000008501612ba6565b61171f8b838784612bfe565b61172d8b8b846001806127aa565b611789565b6117418b8b84600060016127aa565b61177e6001600160a01b038c16838b7f0000000000000000000000000000000000000000000000000000000000000000850363ffffffff61295a16565b6117898b8386612a6c565b505060010161169d565b505050505050505050565b8115611909576001600160a01b03808416600081815260026020526040908190206003015490516340c10f1960e01b815291926340c10f19926117e992909116908690600401613642565b600060405180830381600087803b15801561180357600080fd5b505af1158015611817573d6000803e3d6000fd5b50505050600081111561190957826001600160a01b03166340c10f196000809054906101000a90046001600160a01b03166001600160a01b031663469048406040518163ffffffff1660e01b815260040160206040518083038186803b15801561188057600080fd5b505afa158015611894573d6000803e3d6000fd5b505050506040513d601f19601f820116820180604052508101906118b89190613272565b836040518363ffffffff1660e01b81526004016118d6929190613642565b600060405180830381600087803b1580156118f057600080fd5b505af1158015611904573d6000803e3d6000fd5b505050505b505050565b6119188133612ce5565b6113105760405162461bcd60e51b81526004016103ca90613db3565b6001600160a01b0380851660009081526002602052604081206004015490911680156119c75760405163a045808360e01b81526001600160a01b0382169063a04580839061198c908990899089908990600401613744565b600060405180830381600087803b1580156119a657600080fd5b505af11580156119ba573d6000803e3d6000fd5b50505050809150506119cd565b60009150505b949350505050565b6001600160a01b038216600090815260026020908152604091829020600501805483518184028101840190945280845260609392830182828015611a4257602002820191906000526020600020905b81546001600160a01b03168152600190910190602001808311611a24575b50939450600093505050505b815181101561143957818181518110611a6357fe5b60200260200101516001600160a01b031663c153dd0785856040518363ffffffff1660e01b8152600401611a98929190613642565b600060405180830381600087803b158015611ab257600080fd5b505af1158015611ac6573d6000803e3d6000fd5b505060019092019150611a4e9050565b6000828201838110156115d45760405162461bcd60e51b81526004016103ca90613920565b60006115d4670de0b6b3a7640000611b19858563ffffffff612d7316565b9063ffffffff612dad16565b611b2f8282612ce5565b610b3e5760405162461bcd60e51b81526004016103ca90613db3565b600054604051631d3af8fb60e21b81526001600160a01b03909116906374ebe3ec90611b7b90849060040161362e565b60206040518083038186803b158015611b9357600080fd5b505afa158015611ba7573d6000803e3d6000fd5b505050506040513d601f19601f82011682018060405250810190611bcb9190613339565b611be75760405162461bcd60e51b81526004016103ca90613d70565b611bf081612def565b6113355760405162461bcd60e51b81526004016103ca90613957565b6002604051631ade272960e11b81526001600160a01b038316906335bc4e5290611c3a90339060040161362e565b60206040518083038186803b158015611c5257600080fd5b505afa158015611c66573d6000803e3d6000fd5b505050506040513d601f19601f82011682018060405250810190611c8a919061353d565b6002811115611c9557fe5b14611cb25760405162461bcd60e51b81526004016103ca90613ac8565b6000546040516342f6e38960e01b81526001600160a01b03909116906342f6e38990611ce290339060040161362e565b60206040518083038186803b158015611cfa57600080fd5b505afa158015611d0e573d6000803e3d6000fd5b505050506040513d601f19601f82011682018060405250810190611d329190613339565b6113355760405162461bcd60e51b81526004016103ca90613d2c565b600080611db484805480602002602001604051908101604052809291908181526020018280548015611da957602002820191906000526020600020905b81546001600160a01b03168152600190910190602001808311611d8b575b505050505084612e1e565b9150915080611dd55760405162461bcd60e51b81526004016103ca906137ac565b835460001901828114611e4757848181548110611dee57fe5b9060005260206000200160009054906101000a90046001600160a01b0316858481548110611e1857fe5b9060005260206000200160006101000a8154816001600160a01b0302191690836001600160a01b031602179055505b84805480611e5157fe5b600082815260209020810160001990810180546001600160a01b03191690550190555050505050565b606080606080846001600160a01b03166399d50d5d6040518163ffffffff1660e01b815260040160006040518083038186803b158015611eb957600080fd5b505afa158015611ecd573d6000803e3d6000fd5b505050506040513d6000823e601f3d908101601f19168201604052611ef5919081019061328e565b805190915060608167ffffffffffffffff81118015611f1357600080fd5b50604051908082528060200260200182016040528015611f3d578160200160208202803683370190505b50905060608267ffffffffffffffff81118015611f5957600080fd5b50604051908082528060200260200182016040528015611f83578160200160208202803683370190505b5090506000886001600160a01b03166318160ddd6040518163ffffffff1660e01b815260040160206040518083038186803b158015611fc157600080fd5b505afa158015611fd5573d6000803e3d6000fd5b505050506040513d601f19601f82011682018060405250810190611ff9919061355c565b905060005b855181101561228857600086828151811061201557fe5b6020026020010151905060006120b56120b0836001600160a01b03166370a082318f6040518263ffffffff1660e01b8152600401612053919061362e565b60206040518083038186803b15801561206b57600080fd5b505afa15801561207f573d6000803e3d6000fd5b505050506040513d601f19601f820116820180604052508101906120a3919061355c565b869063ffffffff612e8416565b612e96565b60405163a7bdad0360e01b81529091506000906060906001600160a01b038f169063a7bdad03906120ea90879060040161362e565b60006040518083038186803b15801561210257600080fd5b505afa158015612116573d6000803e3d6000fd5b505050506040513d6000823e601f3d908101601f1916820160405261213e919081019061328e565b8051909150156122275760005b81518110156122255760008f6001600160a01b03166322ebeba48785858151811061217257fe5b60200260200101516040518363ffffffff1660e01b815260040161219792919061365b565b60206040518083038186803b1580156121af57600080fd5b505afa1580156121c3573d6000803e3d6000fd5b505050506040513d601f19601f820116820180604052508101906121e7919061355c565b9050600081131561220957612202858263ffffffff612ebf16565b945061221c565b612219848263ffffffff612ebf16565b93505b5060010161214b565b505b61223083612f05565b88868151811061223c57fe5b602090810291909101015261226161225c8360001963ffffffff612f2716565b612f05565b87868151811061226d57fe5b6020908102919091010152505060019092019150611ffe9050565b50939891975095509350505050565b60008215806122a4575081155b156122b1575060006106ca565b6115d460016122e2670de0b6b3a7640000611b19836122d6898963ffffffff612d7316565b9063ffffffff61159216565b9063ffffffff611ad616565b60008054604051631d3af8fb60e21b81526001600160a01b03909116906374ebe3ec9061231f90859060040161362e565b60206040518083038186803b15801561233757600080fd5b505afa15801561234b573d6000803e3d6000fd5b505050506040513d601f19601f8201168201806040525081019061236f9190613339565b80156106ca57506040516335fc6c9f60e21b81526001600160a01b0383169063d7f1b27c906123a290309060040161362e565b60206040518083038186803b1580156123ba57600080fd5b505afa1580156123ce573d6000803e3d6000fd5b505050506040513d601f19601f820116820180604052508101906106ca9190613339565b606080606080846001600160a01b03166399d50d5d6040518163ffffffff1660e01b815260040160006040518083038186803b15801561243157600080fd5b505afa158015612445573d6000803e3d6000fd5b505050506040513d6000823e601f3d908101601f1916820160405261246d919081019061328e565b805190915060608167ffffffffffffffff8111801561248b57600080fd5b506040519080825280602002602001820160405280156124b5578160200160208202803683370190505b50905060608267ffffffffffffffff811180156124d157600080fd5b506040519080825280602002602001820160405280156124fb578160200160208202803683370190505b50905060005b845181101561276e57600085828151811061251857fe5b6020026020010151905060008a6001600160a01b03166366cb8d2f836040518263ffffffff1660e01b8152600401612550919061362e565b60206040518083038186803b15801561256857600080fd5b505afa15801561257c573d6000803e3d6000fd5b505050506040513d601f19601f820116820180604052508101906125a0919061355c565b60405163a7bdad0360e01b81529091506000906060906001600160a01b038e169063a7bdad03906125d590879060040161362e565b60006040518083038186803b1580156125ed57600080fd5b505afa158015612601573d6000803e3d6000fd5b505050506040513d6000823e601f3d908101601f19168201604052612629919081019061328e565b8051909150156127125760005b81518110156127105760008e6001600160a01b03166322ebeba48785858151811061265d57fe5b60200260200101516040518363ffffffff1660e01b815260040161268292919061365b565b60206040518083038186803b15801561269a57600080fd5b505afa1580156126ae573d6000803e3d6000fd5b505050506040513d601f19601f820116820180604052508101906126d2919061355c565b905060008113156126f4576126ed858263ffffffff612ebf16565b9450612707565b612704848263ffffffff612ebf16565b93505b50600101612636565b505b61271b83612f05565b87868151811061272757fe5b602090810291909101015261274761225c8360001963ffffffff612f2716565b86868151811061275357fe5b60209081029190910101525050600190920191506125019050565b5092979096509194509092505050565b600081848411156127a25760405162461bcd60e51b81526004016103ca9190613799565b505050900390565b60405163a7bdad0360e01b81526060906001600160a01b0387169063a7bdad03906127d990879060040161362e565b60006040518083038186803b1580156127f157600080fd5b505afa158015612805573d6000803e3d6000fd5b505050506040513d6000823e601f3d908101601f1916820160405261282d919081019061328e565b805190915083156128cc5760005b818110156128c65782818151811061284f57fe5b60200260200101516001600160a01b0316630fb96b21898989886040518563ffffffff1660e01b8152600401612888949392919061376f565b600060405180830381600087803b1580156128a257600080fd5b505af11580156128b6573d6000803e3d6000fd5b50506001909201915061283b9050565b50611904565b60005b81811015611690578281815181106128e357fe5b60200260200101516001600160a01b031663c137f4d7898989886040518563ffffffff1660e01b815260040161291c949392919061376f565b600060405180830381600087803b15801561293657600080fd5b505af115801561294a573d6000803e3d6000fd5b5050600190920191506128cf9050565b80156114395760608282604051602401612975929190613642565b60408051601f198184030181529181526020820180516001600160e01b031663a9059cbb60e01b179052516347b7819960e11b81529091506060906001600160a01b03871690638f6f0332906129d49088906000908790600401613699565b600060405180830381600087803b1580156129ee57600080fd5b505af1158015612a02573d6000803e3d6000fd5b505050506040513d6000823e601f3d908101601f19168201604052612a2a9190810190613355565b805190915015612a645780806020019051810190612a489190613339565b612a645760405162461bcd60e51b81526004016103ca90613812565b505050505050565b6040516370a0823160e01b81526000906001600160a01b038416906370a0823190612a9b90879060040161362e565b60206040518083038186803b158015612ab357600080fd5b505afa158015612ac7573d6000803e3d6000fd5b505050506040513d601f19601f82011682018060405250810190612aeb919061355c565b90506000612b6e856001600160a01b03166366cb8d2f866040518263ffffffff1660e01b8152600401612b1e919061362e565b60206040518083038186803b158015612b3657600080fd5b505afa158015612b4a573d6000803e3d6000fd5b505050506040513d601f19601f8201168201806040525081019061225c919061355c565b9050612b80838263ffffffff61229716565b821015612b9f5760405162461bcd60e51b81526004016103ca90613e34565b5050505050565b611439846323b872dd60e01b858585604051602401612bc793929190613675565b60408051601f198184030181529190526020810180516001600160e01b03166001600160e01b031990931692909217909152612f92565b6040516370a0823160e01b81526000906001600160a01b038516906370a0823190612c2d90889060040161362e565b60206040518083038186803b158015612c4557600080fd5b505afa158015612c59573d6000803e3d6000fd5b505050506040513d601f19601f82011682018060405250810190612c7d919061355c565b90506000612cb0866001600160a01b03166366cb8d2f876040518263ffffffff1660e01b8152600401612b1e919061362e565b9050612cc6836122e2868463ffffffff61229716565b821015612a645760405162461bcd60e51b81526004016103ca90613a3d565b6000816001600160a01b0316836001600160a01b031663481c6a756040518163ffffffff1660e01b815260040160206040518083038186803b158015612d2a57600080fd5b505afa158015612d3e573d6000803e3d6000fd5b505050506040513d601f19601f82011682018060405250810190612d629190613272565b6001600160a01b0316149392505050565b600082612d82575060006106ca565b82820282848281612d8f57fe5b04146115d45760405162461bcd60e51b81526004016103ca90613aff565b60006115d483836040518060400160405280601a81526020017f536166654d6174683a206469766973696f6e206279207a65726f000000000000815250613021565b6040516353bae5f760e01b81526000906001600160a01b038316906353bae5f7906123a290309060040161362e565b81516000908190815b81811015612e7157846001600160a01b0316868281518110612e4557fe5b60200260200101516001600160a01b03161415612e6957925060019150612e7d9050565b600101612e27565b50600019600092509250505b9250929050565b60006115d4828463ffffffff61305816565b6000600160ff1b8210612ebb5760405162461bcd60e51b81526004016103ca90613ce4565b5090565b6000828201818312801590612ed45750838112155b80612ee95750600083128015612ee957508381125b6115d45760405162461bcd60e51b81526004016103ca906139fc565b600080821215612ebb5760405162461bcd60e51b81526004016103ca90613a93565b600082612f36575060006106ca565b82600019148015612f4a5750600160ff1b82145b15612f675760405162461bcd60e51b81526004016103ca90613b6f565b82820282848281612f7457fe5b05146115d45760405162461bcd60e51b81526004016103ca90613b6f565b6060612fe7826040518060400160405280602081526020017f5361666545524332303a206c6f772d6c6576656c2063616c6c206661696c6564815250856001600160a01b03166130769092919063ffffffff16565b80519091501561190957808060200190518101906130059190613339565b6119095760405162461bcd60e51b81526004016103ca90613dea565b600081836130425760405162461bcd60e51b81526004016103ca9190613799565b50600083858161304e57fe5b0495945050505050565b60006115d482611b1985670de0b6b3a764000063ffffffff612d7316565b60606119cd84846000858561308a85613120565b6130a65760405162461bcd60e51b81526004016103ca90613c76565b60006060866001600160a01b031685876040516130c39190613612565b60006040518083038185875af1925050503d8060008114613100576040519150601f19603f3d011682016040523d82523d6000602084013e613105565b606091505b5091509150613115828286613126565b979650505050505050565b3b151590565b606083156131355750816115d4565b8251156131455782518084602001fd5b8160405162461bcd60e51b81526004016103ca9190613799565b50805460008255906000526020600020908101906113359190613226565b6040518060c0016040528060008152602001600081526020016000815260200160006001600160a01b0316815260200160006001600160a01b03168152602001606081525090565b82805482825590600052602060002090810192821561321a579160200282015b8281111561321a57825182546001600160a01b0319166001600160a01b039091161782556020909201916001909101906131e5565b50612ebb929150613243565b61324091905b80821115612ebb576000815560010161322c565b90565b61324091905b80821115612ebb5780546001600160a01b0319168155600101613249565b80516106ca81613fef565b600060208284031215613283578081fd5b81516115d481613fef565b600060208083850312156132a0578182fd5b825167ffffffffffffffff808211156132b7578384fd5b81850186601f8201126132c8578485fd5b80519250818311156132d8578485fd5b83830291506132e8848301613f9c565b8381528481019082860184840187018a1015613302578788fd5b8794505b8585101561332c576133188a82613267565b835260019490940193918601918601613306565b5098975050505050505050565b60006020828403121561334a578081fd5b81516115d481614004565b600060208284031215613366578081fd5b815167ffffffffffffffff8082111561337d578283fd5b81840185601f82011261338e578384fd5b805192508183111561339e578384fd5b6133b1601f8401601f1916602001613f9c565b91508282528560208483010111156133c7578384fd5b6133d8836020840160208401613fc3565b50949350505050565b6000602082840312156133f2578081fd5b81356115d481613fef565b6000806040838503121561340f578081fd5b823561341a81613fef565b9150602083013561342a81613fef565b809150509250929050565b60008060408385031215613447578182fd5b823561345281613fef565b946020939093013593505050565b600080600060608486031215613474578081fd5b833561347f81613fef565b925060208401359150604084013561349681613fef565b809150509250925092565b6000806000606084860312156134b5578283fd5b83356134c081613fef565b925060208401359150604084013561349681614004565b60008060008060008060c087890312156134ef578182fd5b86356134fa81613fef565b9550602087013594506040870135935060608701359250608087013561351f81613fef565b915060a087013561352f81613fef565b809150509295509295509295565b60006020828403121561354e578081fd5b8151600381106115d4578182fd5b60006020828403121561356d578081fd5b5051919050565b6000815180845260208085019450808401835b838110156135ac5781516001600160a01b031687529582019590820190600101613587565b509495945050505050565b6000815180845260208085019450808401835b838110156135ac578151875295820195908201906001016135ca565b600081518084526135fe816020860160208601613fc3565b601f01601f19169290920160200192915050565b60008251613624818460208701613fc3565b9190910192915050565b6001600160a01b0391909116815260200190565b6001600160a01b03929092168252602082015260400190565b6001600160a01b0392831681529116602082015260400190565b6001600160a01b039384168152919092166020820152604081019190915260600190565b600060018060a01b0385168252836020830152606060408301526136c060608301846135e6565b95945050505050565b6001600160a01b0394909416845260208401929092526040830152606082015260800190565b6000602082526115d46020830184613574565b6000606082526137156060830186613574565b828103602084015261372781866135b7565b838103604085015261311581866135b7565b901515815260200190565b6001600160a01b03948516815260208101939093529083166040830152909116606082015260800190565b6001600160a01b039485168152602081019390935292166040820152901515606082015260800190565b6000602082526115d460208301846135e6565b60208082526015908201527420b2323932b9b9903737ba1034b71030b93930bc9760591b604082015260600190565b6020808252601f908201527f52656465656d206665652063616e277420657863656564206d6178696d756d00604082015260600190565b602080825260159082015274115490cc8c081d1c985b9cd9995c8819985a5b1959605a1b604082015260600190565b60208082526016908201527514d85b59481c995919595b48199959481c185cdcd95960521b604082015260600190565b60208082526028908201527f4d75737420626520612076616c696420616e6420696e697469616c697a65642060408201526729b2ba2a37b5b2b760c11b606082015260800190565b60208082526016908201527526b7b23ab632903737ba103932b3b4b9ba32b932b21760511b604082015260600190565b6020808252601b908201527f52656465656d207175616e74697479206d757374206265203e20300000000000604082015260600190565b6020808252601b908201527f536166654d6174683a206164646974696f6e206f766572666c6f770000000000604082015260600190565b6020808252601e908201527f4d7573742062652070656e64696e6720696e697469616c697a6174696f6e0000604082015260600190565b6020808252601e908201527f4973737565206665652063616e277420657863656564206d6178696d756d0000604082015260600190565b6020808252601a908201527f4973737565207175616e74697479206d757374206265203e2030000000000000604082015260600190565b60208082526021908201527f5369676e6564536166654d6174683a206164646974696f6e206f766572666c6f6040820152607760f81b606082015260800190565b60208082526036908201527f496e76616c6964207472616e7366657220696e2e20526573756c747320696e206040820152753ab73232b931b7b63630ba32b930b634bd30ba34b7b760511b606082015260800190565b6020808252818101527f53616665436173743a2076616c7565206d75737420626520706f736974697665604082015260600190565b60208082526018908201527f4f6e6c7920746865206d6f64756c652063616e2063616c6c0000000000000000604082015260600190565b60208082526021908201527f536166654d6174683a206d756c7469706c69636174696f6e206f766572666c6f6040820152607760f81b606082015260800190565b60208082526015908201527414d85b59481a5cdcdd5948199959481c185cdcd959605a1b604082015260600190565b60208082526027908201527f5369676e6564536166654d6174683a206d756c7469706c69636174696f6e206f604082015266766572666c6f7760c81b606082015260800190565b60208082526022908201527f4973737565206665652063616e277420657863656564206d6178696d756d2066604082015261656560f01b606082015260800190565b60208082526019908201527f53616d652066656520726563697069656e742070617373656400000000000000604082015260600190565b60208082526027908201527f46656520526563697069656e74206d757374206265206e6f6e2d7a65726f206160408201526632323932b9b99760c91b606082015260800190565b6020808252601d908201527f416464726573733a2063616c6c20746f206e6f6e2d636f6e7472616374000000604082015260600190565b6020808252601a908201527f4d6f64756c6520616c726561647920726567697374657265642e000000000000604082015260600190565b60208082526028908201527f53616665436173743a2076616c756520646f65736e27742066697420696e2061604082015267371034b73a191a9b60c11b606082015260800190565b60208082526024908201527f4d6f64756c65206d75737420626520656e61626c6564206f6e20636f6e74726f604082015263363632b960e11b606082015260800190565b60208082526023908201527f4d75737420626520636f6e74726f6c6c65722d656e61626c656420536574546f60408201526235b2b760e91b606082015260800190565b6020808252601c908201527f4d7573742062652074686520536574546f6b656e206d616e6167657200000000604082015260600190565b6020808252602a908201527f5361666545524332303a204552433230206f7065726174696f6e20646964206e6040820152691bdd081cdd58d8d9595960b21b606082015260800190565b60208082526037908201527f496e76616c6964207472616e73666572206f75742e20526573756c747320696e60408201527f20756e646572636f6c6c61746572616c697a6174696f6e000000000000000000606082015260800190565b60208082526023908201527f52656769737465726564206d6f64756c6573206d7573742062652072656d6f7660408201526232b21760e91b606082015260800190565b6020808252601f908201527f5265656e7472616e637947756172643a207265656e7472616e742063616c6c00604082015260600190565b60208082526023908201527f52656465656d206665652063616e277420657863656564206d6178696d756d2060408201526266656560e81b606082015260800190565b90815260200190565b9283526020830191909152604082015260600190565b948552602085019390935260408401919091526001600160a01b03908116606084015216608082015260a00190565b60405181810167ffffffffffffffff81118282101715613fbb57600080fd5b604052919050565b60005b83811015613fde578181015183820152602001613fc6565b838111156114395750506000910152565b6001600160a01b038116811461133557600080fd5b801515811461133557600080fdfea26469706673582212204bb7104025feb18fd01374aa5ffdd724e8b387b6b706f18d39c7a0ee218bce7664736f6c634300060a0033",
  "linkReferences": {},
  "deployedLinkReferences": {}
}