{
  "_format": "hh-sol-artifact-1",
  "contractName": "ERC4626WrapV2Adapter",
  "sourceName": "contracts/protocol/integration/wrap-v2/ERC4626WrapV2Adapter.sol",
  "abi": [
    {
      "inputs": [
        {
          "internalType": "address",
          "name": "",
          "type": "address"
        },
        {
          "internalType": "address",
          "name": "_wrappedToken",
          "type": "address"
        }
      ],
      "name": "getSpenderAddress",
      "outputs": [
        {
          "internalType": "address",
          "name": "",
          "type": "address"
        }
      ],
      "stateMutability": "pure",
      "type": "function",
      "gas": "0xa7d8c0"
    },
    {
      "inputs": [
        {
          "internalType": "address",
          "name": "_underlyingToken",
          "type": "address"
        },
        {
          "internalType": "address",
          "name": "_wrappedToken",
          "type": "address"
        },
        {
          "internalType": "uint256",
          "name": "_wrappedTokenUnits",
          "type": "uint256"
        },
        {
          "internalType": "address",
          "name": "_to",
          "type": "address"
        },
        {
          "internalType": "bytes",
          "name": "",
          "type": "bytes"
        }
      ],
      "name": "getUnwrapCallData",
      "outputs": [
        {
          "internalType": "address",
          "name": "",
          "type": "address"
        },
        {
          "internalType": "uint256",
          "name": "",
          "type": "uint256"
        },
        {
          "internalType": "bytes",
          "name": "",
          "type": "bytes"
        }
      ],
      "stateMutability": "view",
      "type": "function",
      "gas": "0xa7d8c0"
    },
    {
      "inputs": [
        {
          "internalType": "address",
          "name": "_underlyingToken",
          "type": "address"
        },
        {
          "internalType": "address",
          "name": "_wrappedToken",
          "type": "address"
        },
        {
          "internalType": "uint256",
          "name": "_underlyingUnits",
          "type": "uint256"
        },
        {
          "internalType": "address",
          "name": "_to",
          "type": "address"
        },
        {
          "internalType": "bytes",
          "name": "",
          "type": "bytes"
        }
      ],
      "name": "getWrapCallData",
      "outputs": [
        {
          "internalType": "address",
          "name": "",
          "type": "address"
        },
        {
          "internalType": "uint256",
          "name": "",
          "type": "uint256"
        },
        {
          "internalType": "bytes",
          "name": "",
          "type": "bytes"
        }
      ],
      "stateMutability": "view",
      "type": "function",
      "gas": "0xa7d8c0"
    }
  ],
  "bytecode": "0x608060405234801561001057600080fd5b5061050a806100206000396000f3fe608060405234801561001057600080fd5b50600436106100415760003560e01c806390f0f93814610046578063d91462ca14610071578063de68a3da14610084575b600080fd5b61005961005436600461031f565b6100af565b60405161006893929190610412565b60405180910390f35b61005961007f36600461031f565b6101f8565b610097610092366004610477565b919050565b6040516001600160a01b039091168152602001610068565b60008060606000879050886001600160a01b0316816001600160a01b03166338d52e0f6040518163ffffffff1660e01b8152600401602060405180830381865afa158015610101573d6000803e3d6000fd5b505050506040513d601f19601f8201168201806040525081019061012591906104b0565b6001600160a01b0316146101805760405162461bcd60e51b815260206004820152601a60248201527f4d75737420626520612076616c696420746f6b656e207061697200000000000060448201526064015b60405180910390fd5b604051602481018890526001600160a01b038716604482018190526064820152600090635d043b2960e11b906084015b60408051601f198184030181529190526020810180516001600160e01b03166001600160e01b0319909316929092179091529194506000935090915050955095509592505050565b60008060606000879050886001600160a01b0316816001600160a01b03166338d52e0f6040518163ffffffff1660e01b8152600401602060405180830381865afa15801561024a573d6000803e3d6000fd5b505050506040513d601f19601f8201168201806040525081019061026e91906104b0565b6001600160a01b0316146102c45760405162461bcd60e51b815260206004820152601a60248201527f4d75737420626520612076616c696420746f6b656e20706169720000000000006044820152606401610177565b604051602481018890526001600160a01b0387166044820152600090636e553f6560e01b906064016101b0565b6001600160a01b038116811461030657600080fd5b50565b634e487b7160e01b600052604160045260246000fd5b600080600080600060a0868803121561033757600080fd5b8535610342816102f1565b94506020860135610352816102f1565b9350604086013592506060860135610369816102f1565b9150608086013567ffffffffffffffff8082111561038657600080fd5b818801915088601f83011261039a57600080fd5b8135818111156103ac576103ac610309565b604051601f8201601f19908116603f011681019083821181831017156103d4576103d4610309565b816040528281528b60208487010111156103ed57600080fd5b8260208601602083013760006020848301015280955050505050509295509295909350565b60018060a01b038416815260006020848184015260606040840152835180606085015260005b8181101561045457858101830151858201608001528201610438565b506000608082860101526080601f19601f83011685010192505050949350505050565b6000806040838503121561048a57600080fd5b8235610495816102f1565b915060208301356104a5816102f1565b809150509250929050565b6000602082840312156104c257600080fd5b81516104cd816102f1565b939250505056fea2646970667358221220e6eb2a194aa2caed22ab39815187166f2624e3d7e0c77790a3f0e3d3a57e1e0364736f6c63430008110033",
  "linkReferences": {},
  "deployedLinkReferences": {}
}