{
  "_format": "hh-sol-artifact-1",
  "contractName": "GeneralIndexModule",
  "sourceName": "contracts/protocol/modules/GeneralIndexModule.sol",
  "abi": [
    {
      "inputs": [
        {
          "internalType": "contract IController",
          "name": "_controller",
          "type": "address"
        },
        {
          "internalType": "contract IWETH",
          "name": "_weth",
          "type": "address"
        }
      ],
      "stateMutability": "nonpayable",
      "type": "constructor"
    },
    {
      "anonymous": false,
      "inputs": [
        {
          "indexed": true,
          "internalType": "contract ISetToken",
          "name": "_setToken",
          "type": "address"
        },
        {
          "indexed": true,
          "internalType": "bool",
          "name": "_status",
          "type": "bool"
        }
      ],
      "name": "AnyoneTradeUpdated",
      "type": "event"
    },
    {
      "anonymous": false,
      "inputs": [
        {
          "indexed": true,
          "internalType": "contract ISetToken",
          "name": "_setToken",
          "type": "address"
        },
        {
          "indexed": true,
          "internalType": "address",
          "name": "_component",
          "type": "address"
        },
        {
          "indexed": false,
          "internalType": "string",
          "name": "_newExchangeName",
          "type": "string"
        }
      ],
      "name": "AssetExchangeUpdated",
      "type": "event"
    },
    {
      "anonymous": false,
      "inputs": [
        {
          "indexed": true,
          "internalType": "contract ISetToken",
          "name": "_setToken",
          "type": "address"
        },
        {
          "indexed": true,
          "internalType": "uint256",
          "name": "positionMultiplier",
          "type": "uint256"
        }
      ],
      "name": "AssetTargetsRaised",
      "type": "event"
    },
    {
      "anonymous": false,
      "inputs": [
        {
          "indexed": true,
          "internalType": "contract ISetToken",
          "name": "_setToken",
          "type": "address"
        },
        {
          "indexed": true,
          "internalType": "address",
          "name": "_component",
          "type": "address"
        },
        {
          "indexed": false,
          "internalType": "uint256",
          "name": "_newCoolOffPeriod",
          "type": "uint256"
        }
      ],
      "name": "CoolOffPeriodUpdated",
      "type": "event"
    },
    {
      "anonymous": false,
      "inputs": [
        {
          "indexed": true,
          "internalType": "contract ISetToken",
          "name": "_setToken",
          "type": "address"
        },
        {
          "indexed": true,
          "internalType": "address",
          "name": "_component",
          "type": "address"
        },
        {
          "indexed": false,
          "internalType": "bytes",
          "name": "_newExchangeData",
          "type": "bytes"
        }
      ],
      "name": "ExchangeDataUpdated",
      "type": "event"
    },
    {
      "anonymous": false,
      "inputs": [
        {
          "indexed": true,
          "internalType": "contract ISetToken",
          "name": "_setToken",
          "type": "address"
        },
        {
          "indexed": true,
          "internalType": "uint256",
          "name": "_raiseTargetPercentage",
          "type": "uint256"
        }
      ],
      "name": "RaiseTargetPercentageUpdated",
      "type": "event"
    },
    {
      "anonymous": false,
      "inputs": [
        {
          "indexed": true,
          "internalType": "contract ISetToken",
          "name": "_setToken",
          "type": "address"
        }
      ],
      "name": "RebalanceStarted",
      "type": "event"
    },
    {
      "anonymous": false,
      "inputs": [
        {
          "indexed": true,
          "internalType": "contract ISetToken",
          "name": "_setToken",
          "type": "address"
        },
        {
          "indexed": true,
          "internalType": "address",
          "name": "_component",
          "type": "address"
        },
        {
          "indexed": false,
          "internalType": "uint256",
          "name": "_newUnit",
          "type": "uint256"
        },
        {
          "indexed": false,
          "internalType": "uint256",
          "name": "_positionMultiplier",
          "type": "uint256"
        }
      ],
      "name": "TargetUnitsUpdated",
      "type": "event"
    },
    {
      "anonymous": false,
      "inputs": [
        {
          "indexed": true,
          "internalType": "contract ISetToken",
          "name": "_setToken",
          "type": "address"
        },
        {
          "indexed": true,
          "internalType": "address",
          "name": "_sellComponent",
          "type": "address"
        },
        {
          "indexed": true,
          "internalType": "address",
          "name": "_buyComponent",
          "type": "address"
        },
        {
          "indexed": false,
          "internalType": "contract IIndexExchangeAdapter",
          "name": "_exchangeAdapter",
          "type": "address"
        },
        {
          "indexed": false,
          "internalType": "address",
          "name": "_executor",
          "type": "address"
        },
        {
          "indexed": false,
          "internalType": "uint256",
          "name": "_netAmountSold",
          "type": "uint256"
        },
        {
          "indexed": false,
          "internalType": "uint256",
          "name": "_netAmountReceived",
          "type": "uint256"
        },
        {
          "indexed": false,
          "internalType": "uint256",
          "name": "_protocolFee",
          "type": "uint256"
        }
      ],
      "name": "TradeExecuted",
      "type": "event"
    },
    {
      "anonymous": false,
      "inputs": [
        {
          "indexed": true,
          "internalType": "contract ISetToken",
          "name": "_setToken",
          "type": "address"
        },
        {
          "indexed": true,
          "internalType": "address",
          "name": "_component",
          "type": "address"
        },
        {
          "indexed": false,
          "internalType": "uint256",
          "name": "_newMaximum",
          "type": "uint256"
        }
      ],
      "name": "TradeMaximumUpdated",
      "type": "event"
    },
    {
      "anonymous": false,
      "inputs": [
        {
          "indexed": true,
          "internalType": "contract ISetToken",
          "name": "_setToken",
          "type": "address"
        },
        {
          "indexed": true,
          "internalType": "address",
          "name": "_trader",
          "type": "address"
        },
        {
          "indexed": false,
          "internalType": "bool",
          "name": "_status",
          "type": "bool"
        }
      ],
      "name": "TraderStatusUpdated",
      "type": "event"
    },
    {
      "inputs": [],
      "name": "controller",
      "outputs": [
        {
          "internalType": "contract IController",
          "name": "",
          "type": "address"
        }
      ],
      "stateMutability": "view",
      "type": "function",
      "gas": "0x81b320"
    },
    {
      "inputs": [
        {
          "internalType": "contract ISetToken",
          "name": "",
          "type": "address"
        },
        {
          "internalType": "contract IERC20",
          "name": "",
          "type": "address"
        }
      ],
      "name": "executionInfo",
      "outputs": [
        {
          "internalType": "uint256",
          "name": "targetUnit",
          "type": "uint256"
        },
        {
          "internalType": "uint256",
          "name": "maxSize",
          "type": "uint256"
        },
        {
          "internalType": "uint256",
          "name": "coolOffPeriod",
          "type": "uint256"
        },
        {
          "internalType": "uint256",
          "name": "lastTradeTimestamp",
          "type": "uint256"
        },
        {
          "internalType": "string",
          "name": "exchangeName",
          "type": "string"
        },
        {
          "internalType": "bytes",
          "name": "exchangeData",
          "type": "bytes"
        }
      ],
      "stateMutability": "view",
      "type": "function",
      "gas": "0x81b320"
    },
    {
      "inputs": [
        {
          "internalType": "contract ISetToken",
          "name": "_setToken",
          "type": "address"
        }
      ],
      "name": "getAllowedTraders",
      "outputs": [
        {
          "internalType": "address[]",
          "name": "",
          "type": "address[]"
        }
      ],
      "stateMutability": "view",
      "type": "function",
      "gas": "0x81b320"
    },
    {
      "inputs": [
        {
          "internalType": "contract ISetToken",
          "name": "_setToken",
          "type": "address"
        },
        {
          "internalType": "contract IERC20",
          "name": "_component",
          "type": "address"
        }
      ],
      "name": "getComponentTradeQuantityAndDirection",
      "outputs": [
        {
          "internalType": "bool",
          "name": "",
          "type": "bool"
        },
        {
          "internalType": "uint256",
          "name": "",
          "type": "uint256"
        }
      ],
      "stateMutability": "view",
      "type": "function",
      "gas": "0x81b320"
    },
    {
      "inputs": [
        {
          "internalType": "contract ISetToken",
          "name": "_setToken",
          "type": "address"
        },
        {
          "internalType": "address",
          "name": "_trader",
          "type": "address"
        }
      ],
      "name": "getIsAllowedTrader",
      "outputs": [
        {
          "internalType": "bool",
          "name": "",
          "type": "bool"
        }
      ],
      "stateMutability": "view",
      "type": "function",
      "gas": "0x81b320"
    },
    {
      "inputs": [
        {
          "internalType": "contract ISetToken",
          "name": "_setToken",
          "type": "address"
        }
      ],
      "name": "getRebalanceComponents",
      "outputs": [
        {
          "internalType": "address[]",
          "name": "",
          "type": "address[]"
        }
      ],
      "stateMutability": "view",
      "type": "function",
      "gas": "0x81b320"
    },
    {
      "inputs": [
        {
          "internalType": "contract ISetToken",
          "name": "_setToken",
          "type": "address"
        }
      ],
      "name": "initialize",
      "outputs": [],
      "stateMutability": "nonpayable",
      "type": "function",
      "gas": "0x81b320"
    },
    {
      "inputs": [
        {
          "internalType": "contract ISetToken",
          "name": "",
          "type": "address"
        }
      ],
      "name": "permissionInfo",
      "outputs": [
        {
          "internalType": "bool",
          "name": "anyoneTrade",
          "type": "bool"
        }
      ],
      "stateMutability": "view",
      "type": "function",
      "gas": "0x81b320"
    },
    {
      "inputs": [
        {
          "internalType": "contract ISetToken",
          "name": "_setToken",
          "type": "address"
        }
      ],
      "name": "raiseAssetTargets",
      "outputs": [],
      "stateMutability": "nonpayable",
      "type": "function",
      "gas": "0x81b320"
    },
    {
      "inputs": [
        {
          "internalType": "contract ISetToken",
          "name": "",
          "type": "address"
        }
      ],
      "name": "rebalanceInfo",
      "outputs": [
        {
          "internalType": "uint256",
          "name": "positionMultiplier",
          "type": "uint256"
        },
        {
          "internalType": "uint256",
          "name": "raiseTargetPercentage",
          "type": "uint256"
        }
      ],
      "stateMutability": "view",
      "type": "function",
      "gas": "0x81b320"
    },
    {
      "inputs": [],
      "name": "removeModule",
      "outputs": [],
      "stateMutability": "nonpayable",
      "type": "function",
      "gas": "0x81b320"
    },
    {
      "inputs": [
        {
          "internalType": "contract ISetToken",
          "name": "_setToken",
          "type": "address"
        },
        {
          "internalType": "bool",
          "name": "_status",
          "type": "bool"
        }
      ],
      "name": "setAnyoneTrade",
      "outputs": [],
      "stateMutability": "nonpayable",
      "type": "function",
      "gas": "0x81b320"
    },
    {
      "inputs": [
        {
          "internalType": "contract ISetToken",
          "name": "_setToken",
          "type": "address"
        },
        {
          "internalType": "address[]",
          "name": "_components",
          "type": "address[]"
        },
        {
          "internalType": "uint256[]",
          "name": "_coolOffPeriods",
          "type": "uint256[]"
        }
      ],
      "name": "setCoolOffPeriods",
      "outputs": [],
      "stateMutability": "nonpayable",
      "type": "function",
      "gas": "0x81b320"
    },
    {
      "inputs": [
        {
          "internalType": "contract ISetToken",
          "name": "_setToken",
          "type": "address"
        },
        {
          "internalType": "address[]",
          "name": "_components",
          "type": "address[]"
        },
        {
          "internalType": "bytes[]",
          "name": "_exchangeData",
          "type": "bytes[]"
        }
      ],
      "name": "setExchangeData",
      "outputs": [],
      "stateMutability": "nonpayable",
      "type": "function",
      "gas": "0x81b320"
    },
    {
      "inputs": [
        {
          "internalType": "contract ISetToken",
          "name": "_setToken",
          "type": "address"
        },
        {
          "internalType": "address[]",
          "name": "_components",
          "type": "address[]"
        },
        {
          "internalType": "string[]",
          "name": "_exchangeNames",
          "type": "string[]"
        }
      ],
      "name": "setExchanges",
      "outputs": [],
      "stateMutability": "nonpayable",
      "type": "function",
      "gas": "0x81b320"
    },
    {
      "inputs": [
        {
          "internalType": "contract ISetToken",
          "name": "_setToken",
          "type": "address"
        },
        {
          "internalType": "uint256",
          "name": "_raiseTargetPercentage",
          "type": "uint256"
        }
      ],
      "name": "setRaiseTargetPercentage",
      "outputs": [],
      "stateMutability": "nonpayable",
      "type": "function",
      "gas": "0x81b320"
    },
    {
      "inputs": [
        {
          "internalType": "contract ISetToken",
          "name": "_setToken",
          "type": "address"
        },
        {
          "internalType": "address[]",
          "name": "_components",
          "type": "address[]"
        },
        {
          "internalType": "uint256[]",
          "name": "_tradeMaximums",
          "type": "uint256[]"
        }
      ],
      "name": "setTradeMaximums",
      "outputs": [],
      "stateMutability": "nonpayable",
      "type": "function",
      "gas": "0x81b320"
    },
    {
      "inputs": [
        {
          "internalType": "contract ISetToken",
          "name": "_setToken",
          "type": "address"
        },
        {
          "internalType": "address[]",
          "name": "_traders",
          "type": "address[]"
        },
        {
          "internalType": "bool[]",
          "name": "_statuses",
          "type": "bool[]"
        }
      ],
      "name": "setTraderStatus",
      "outputs": [],
      "stateMutability": "nonpayable",
      "type": "function",
      "gas": "0x81b320"
    },
    {
      "inputs": [
        {
          "internalType": "contract ISetToken",
          "name": "_setToken",
          "type": "address"
        },
        {
          "internalType": "address[]",
          "name": "_newComponents",
          "type": "address[]"
        },
        {
          "internalType": "uint256[]",
          "name": "_newComponentsTargetUnits",
          "type": "uint256[]"
        },
        {
          "internalType": "uint256[]",
          "name": "_oldComponentsTargetUnits",
          "type": "uint256[]"
        },
        {
          "internalType": "uint256",
          "name": "_positionMultiplier",
          "type": "uint256"
        }
      ],
      "name": "startRebalance",
      "outputs": [],
      "stateMutability": "nonpayable",
      "type": "function",
      "gas": "0x81b320"
    },
    {
      "inputs": [
        {
          "internalType": "contract ISetToken",
          "name": "_setToken",
          "type": "address"
        },
        {
          "internalType": "contract IERC20",
          "name": "_component",
          "type": "address"
        },
        {
          "internalType": "uint256",
          "name": "_ethQuantityLimit",
          "type": "uint256"
        }
      ],
      "name": "trade",
      "outputs": [],
      "stateMutability": "nonpayable",
      "type": "function",
      "gas": "0x81b320"
    },
    {
      "inputs": [
        {
          "internalType": "contract ISetToken",
          "name": "_setToken",
          "type": "address"
        },
        {
          "internalType": "contract IERC20",
          "name": "_component",
          "type": "address"
        },
        {
          "internalType": "uint256",
          "name": "_minComponentReceived",
          "type": "uint256"
        }
      ],
      "name": "tradeRemainingWETH",
      "outputs": [],
      "stateMutability": "nonpayable",
      "type": "function",
      "gas": "0x81b320"
    },
    {
      "inputs": [],
      "name": "weth",
      "outputs": [
        {
          "internalType": "contract IWETH",
          "name": "",
          "type": "address"
        }
      ],
      "stateMutability": "view",
      "type": "function",
      "gas": "0x81b320"
    }
  ],
  "bytecode": "0x60a06040523480156200001157600080fd5b506040516200552b3803806200552b83398101604081905262000034916200006f565b600080546001600160a01b0319166001600160a01b0393909316929092179091556001805560601b6001600160601b031916608052620000c6565b6000806040838503121562000082578182fd5b82516200008f81620000ad565b6020840151909250620000a281620000ad565b809150509250929050565b6001600160a01b0381168114620000c357600080fd5b50565b60805160601c6154106200011b600039806107415280610aff5280610f095280610f4b52806117ae52806117d85280611b1e52806123625280612fb75280612feb5280613486528061369352506154106000f3fe608060405234801561001057600080fd5b50600436106101425760003560e01c80638fa92b05116100b8578063d4f005321161007c578063d4f0053214610298578063dc8abe2e146102b8578063e231a679146102d9578063e64ef1c1146102fa578063f77c47911461030d578063ff0932a11461031557610142565b80638fa92b0514610239578063987061dd1461024c578063b82177191461025f578063b91d30e914610272578063c4d66de81461028557610142565b806345e3db3e1161010a57806345e3db3e146101d25780635253baae146101e55780636235b884146101f85780636dbd8b911461020b578063737531ba1461021e578063847ef08d1461023157610142565b80630a251f601461014757806317b755ea146101705780632f5c5ac3146101855780633fc8cef314610198578063421dec4d146101ad575b600080fd5b61015a610155366004614573565b610328565b6040516101679190614b59565b60405180910390f35b61018361017e36600461472e565b610348565b005b6101836101933660046145ab565b610474565b6101a061073f565b6040516101679190614a3d565b6101c06101bb366004614573565b610763565b604051610167969594939291906152e6565b61015a6101e0366004614557565b6108af565b6101836101f336600461498e565b6108c4565b6101836102063660046148a5565b6109c2565b6101836102193660046147f2565b610ad7565b61018361022c3660046149ce565b610d0a565b610183610d7f565b610183610247366004614961565b610e43565b61018361025a36600461498e565b610ea2565b61018361026d3660046148a5565b61109d565b61018361028036600461465a565b6111b2565b610183610293366004614557565b61130b565b6102ab6102a6366004614557565b61152d565b6040516101679190614b0c565b6102cb6102c6366004614557565b6115b2565b6040516101679291906152d8565b6102ec6102e7366004614573565b6115cb565b604051610167929190614b64565b6102ab610308366004614557565b6116fd565b6101a061177f565b610183610323366004614557565b61178e565b600082610334816118bc565b61033e84846118e4565b91505b5092915050565b826103528161192f565b610362838363ffffffff61195516565b60005b835181101561046d5782818151811061037a57fe5b602002602001015160026000876001600160a01b03166001600160a01b0316815260200190815260200160002060008684815181106103b557fe5b60200260200101516001600160a01b03166001600160a01b0316815260200190815260200160002060050190805190602001906103f3929190613f50565b5083818151811061040057fe5b60200260200101516001600160a01b0316856001600160a01b03167f2e7f18adcce9eaadebfe023c5fa3ff34900485c34846d43561ddb4e1e650115885848151811061044857fe5b602002602001015160405161045d9190614b74565b60405180910390a3600101610365565b5050505050565b8761047e8161192f565b6060806105048b6001600160a01b03166399d50d5d6040518163ffffffff1660e01b815260040160006040518083038186803b1580156104bd57600080fd5b505afa1580156104d1573d6000803e3d6000fd5b505050506040513d6000823e601f3d908101601f191682016040526104f9919081019061436e565b8b8b8b8b8b8b611983565b909250905060005b82518110156106c0578b6001600160a01b031663a7bdad0384838151811061053057fe5b60200260200101516040518263ffffffff1660e01b81526004016105549190614a3d565b60006040518083038186803b15801561056c57600080fd5b505afa158015610580573d6000803e3d6000fd5b505050506040513d6000823e601f3d908101601f191682016040526105a8919081019061436e565b51156105cf5760405162461bcd60e51b81526004016105c69061503c565b60405180910390fd5b8181815181106105db57fe5b6020026020010151600260008e6001600160a01b03166001600160a01b03168152602001908152602001600020600085848151811061061657fe5b60200260200101516001600160a01b03166001600160a01b031681526020019081526020016000206000018190555082818151811061065157fe5b60200260200101516001600160a01b03168c6001600160a01b03167f3cea840060d195dcaa900b79b60aa66bc47ebf0064e15ad7de8ac02bcff16ff184848151811061069957fe5b6020026020010151886040516106b09291906152d8565b60405180910390a360010161050c565b506001600160a01b038b16600090815260046020908152604090912083516106f092600290920191850190613fca565b506001600160a01b038b16600081815260046020526040808220879055517f78a05355f6cd8bda944d270cc221483f4fcb4ac61217b05244ebd1ab501eb3679190a25050505050505050505050565b7f000000000000000000000000000000000000000000000000000000000000000081565b6002602081815260009384526040808520825292845292829020805460018083015483850154600385015460048601805489519581161561010002600019011697909704601f81018a90048a0285018a01909852878452939791969095939493918301828280156108155780601f106107ea57610100808354040283529160200191610815565b820191906000526020600020905b8154815290600101906020018083116107f857829003601f168201915b5050505060058301805460408051602060026001851615610100026000190190941693909304601f81018490048402820184019092528181529495949350908301828280156108a55780601f1061087a576101008083540402835291602001916108a5565b820191906000526020600020905b81548152906001019060200180831161088857829003601f168201915b5050505050905086565b60036020526000908152604090205460ff1681565b600260015414156108e75760405162461bcd60e51b81526004016105c69061523d565b6002600155826108f681611ab6565b8361090081611adc565b61090a8585611b1c565b61091261402b565b61091d868686611dd7565b905061092881611e3d565b60006109338261201a565b905060008061094284896120d8565b9150915083606001516001600160a01b031684604001516001600160a01b031685600001516001600160a01b03167f54e9e24dab7ba662ede90396b0de464467c3d65f95485171a60381185219f10b87602001513387878a6040516109ab959493929190614b87565b60405180910390a450506001805550505050505050565b826109cc8161192f565b6109dc838363ffffffff61195516565b60005b835181101561046d578281815181106109f457fe5b602002602001015160026000876001600160a01b03166001600160a01b031681526020019081526020016000206000868481518110610a2f57fe5b60200260200101516001600160a01b03166001600160a01b0316815260200190815260200160002060010181905550838181518110610a6a57fe5b60200260200101516001600160a01b0316856001600160a01b03167fd87a5e1bfdb22484feb4f6baaa1711185a539bbfa8e8ab5d85d1dd77ab1e2566858481518110610ab257fe5b6020026020010151604051610ac791906152cf565b60405180910390a36001016109df565b82610ae18161192f565b610af1838363ffffffff61195516565b60005b835181101561046d577f00000000000000000000000000000000000000000000000000000000000000006001600160a01b0316848281518110610b3357fe5b60200260200101516001600160a01b031614610d0257600054610b5e906001600160a01b03166121b4565b6001600160a01b031663639a397830858481518110610b7957fe5b60200260200101516040518363ffffffff1660e01b8152600401610b9e929190614ae8565b60206040518083038186803b158015610bb657600080fd5b505afa158015610bca573d6000803e3d6000fd5b505050506040513d601f19601f82011682018060405250810190610bee9190614509565b610c0a5760405162461bcd60e51b81526004016105c690614ee8565b828181518110610c1657fe5b602002602001015160026000876001600160a01b03166001600160a01b031681526020019081526020016000206000868481518110610c5157fe5b60200260200101516001600160a01b03166001600160a01b031681526020019081526020016000206004019080519060200190610c8f929190613f50565b50838181518110610c9c57fe5b60200260200101516001600160a01b0316856001600160a01b03167f4b762bf7b7ea6e5db15083fd59db2b95b16339f2b0e7cd7360325378a579e7d9858481518110610ce457fe5b6020026020010151604051610cf99190614b74565b60405180910390a35b600101610af4565b81610d148161192f565b60008211610d345760405162461bcd60e51b81526004016105c6906150aa565b6001600160a01b038316600081815260046020526040808220600101859055518492917f6a1e9ac0e71aa1dc7854a57bce846b04b1aae20dc994b832098200d9236d1d4a91a3505050565b336000908152600360205260408120905b6001820154811015610def576000826002016000846001018481548110610db357fe5b6000918252602080832091909101546001600160a01b031683528201929092526040019020805460ff1916911515919091179055600101610d90565b503360009081526004602052604081208181556001810182905590610e1760028301826140b2565b5050336000908152600360205260408120805460ff1916815590610e3e60018301826140b2565b505050565b81610e4d8161192f565b6001600160a01b038316600081815260036020526040808220805460ff191686151590811790915590519092917fd36edbcfd3cf0c7e5c30d627b9ecd4f382efd1b67914b0c5bfd86d22f7fce7ec91a3505050565b60026001541415610ec55760405162461bcd60e51b81526004016105c69061523d565b600260015582610ed481611ab6565b83610ede81611adc565b610ee78561223b565b610f035760405162461bcd60e51b81526004016105c690614d71565b610f2d857f00000000000000000000000000000000000000000000000000000000000000006122fa565b6001600160a01b0380871660009081526002602090815260408083207f00000000000000000000000000000000000000000000000000000000000000009094168352929052205410610f915760405162461bcd60e51b81526004016105c690614e45565b610f9b8585611b1c565b610fa361402b565b610fae868686612343565b9050610fb981611e3d565b6000610fc48261201a565b9050600080610fd384896120d8565b6001600160a01b03808c166000908152600260209081526040808320938e16835292905220600101549193509150611011828563ffffffff6123c116565b1061102e5760405162461bcd60e51b81526004016105c690614f1f565b61103889896123e6565b83606001516001600160a01b031684604001516001600160a01b031685600001516001600160a01b03167f54e9e24dab7ba662ede90396b0de464467c3d65f95485171a60381185219f10b87602001513387878a6040516109ab959493929190614b87565b826110a78161192f565b6110b7838363ffffffff61195516565b60005b835181101561046d578281815181106110cf57fe5b602002602001015160026000876001600160a01b03166001600160a01b03168152602001908152602001600020600086848151811061110a57fe5b60200260200101516001600160a01b03166001600160a01b031681526020019081526020016000206002018190555083818151811061114557fe5b60200260200101516001600160a01b0316856001600160a01b03167f494b5ab169c256bf87dcb623a3aad604068fa9981497dc90b28a32d1c8b4021185848151811061118d57fe5b60200260200101516040516111a291906152cf565b60405180910390a36001016110ba565b826111bc8161192f565b6111cc838363ffffffff61195516565b60005b835181101561046d57611209858583815181106111e857fe5b60200260200101518584815181106111fc57fe5b6020026020010151612428565b82818151811061121557fe5b602002602001015160036000876001600160a01b03166001600160a01b03168152602001908152602001600020600201600086848151811061125357fe5b60200260200101516001600160a01b03166001600160a01b0316815260200190815260200160002060006101000a81548160ff02191690831515021790555083818151811061129e57fe5b60200260200101516001600160a01b0316856001600160a01b03167f9c16a21ea9b0ddbc4da31a1ba6f5f7b7d3ed17c6d36eef4d1bab2c9a7f070cea8584815181106112e657fe5b60200260200101516040516112fb9190614b59565b60405180910390a36001016111cf565b803361131782826125d8565b82611321816125fe565b6060846001600160a01b031663802758606040518163ffffffff1660e01b815260040160006040518083038186803b15801561135c57600080fd5b505afa158015611370573d6000803e3d6000fd5b505050506040513d6000823e601f3d908101601f191682016040526113989190810190614409565b905060005b8151811015611443576113ae6140d0565b8282815181106113ba57fe5b60200260200101519050806060015160ff166000146113eb5760405162461bcd60e51b81526004016105c69061503c565b6113f881604001516126bf565b6001600160a01b03808916600081815260026020818152604080842088518716855280835281852097909755938352908152945190921682529190925281206003015560010161139d565b506114bd856001600160a01b0316635230c3966040518163ffffffff1660e01b815260040160206040518083038186803b15801561148057600080fd5b505afa158015611494573d6000803e3d6000fd5b505050506040513d601f19601f820116820180604052508101906114b891906149f9565b6126bf565b6001600160a01b03861660008181526004602081905260408083209490945583516307ff078f60e11b815293519293630ffe0f1e938183019392909182900301818387803b15801561150e57600080fd5b505af1158015611522573d6000803e3d6000fd5b505050505050505050565b606081611539816118bc565b6001600160a01b038316600090815260046020908152604091829020600201805483518184028101840190945280845290918301828280156115a457602002820191906000526020600020905b81546001600160a01b03168152600190910190602001808311611586575b505050505091505b50919050565b6004602052600090815260409020805460019091015482565b600080836115d8816118bc565b60405163df5e9b2960e01b81526001600160a01b0386169063df5e9b2990611604908790600401614a3d565b60206040518083038186803b15801561161c57600080fd5b505afa158015611630573d6000803e3d6000fd5b505050506040513d601f19601f820116820180604052508101906116549190614509565b6116705760405162461bcd60e51b81526004016105c690615206565b6000856001600160a01b03166318160ddd6040518163ffffffff1660e01b815260040160206040518083038186803b1580156116ab57600080fd5b505afa1580156116bf573d6000803e3d6000fd5b505050506040513d601f19601f820116820180604052508101906116e391906149f9565b90506116f08686836126e5565b9350935050509250929050565b606081611709816118bc565b6001600160a01b038316600090815260036020908152604091829020600101805483518184028101840190945280845290918301828280156115a4576020028201919060005260206000209081546001600160a01b03168152600190910190602001808311611586575050505050915050919050565b6000546001600160a01b031681565b8061179881611ab6565b6117a18261283d565b80156117fe57506117d2827f00000000000000000000000000000000000000000000000000000000000000006128f2565b6117fc837f00000000000000000000000000000000000000000000000000000000000000006122fa565b115b61181a5760405162461bcd60e51b81526004016105c690615005565b6001600160a01b038216600090815260046020526040902060010154611877906118529061184661299d565b9063ffffffff6123c116565b6001600160a01b0384166000908152600460205260409020549063ffffffff6129aa16565b6001600160a01b038316600081815260046020526040808220849055517fe4c448aaaad94925b669914540bde1ea0123c0b2320e4cf6ea0ad7a1818a1c989190a35050565b6118c5816129c8565b6118e15760405162461bcd60e51b81526004016105c690614c84565b50565b6001600160a01b0382166000908152600360205260408120805460ff168061033e57506001600160a01b038316600090815260028201602052604090205460ff169150505b92915050565b6119398133612acc565b6118bc5760405162461bcd60e51b81526004016105c6906151cf565b80518251146119765760405162461bcd60e51b81526004016105c690614be7565b61197f82612b5a565b5050565b6060808685146119a55760405162461bcd60e51b81526004016105c690614be7565b885183146119c55760405162461bcd60e51b81526004016105c690615274565b611a0a8888808060200260200160405190810160405280939291908181526020018383602002808284376000920191909152508d9392505063ffffffff612ba1169050565b9150611a8286868080602002602001604051908101604052809392919081815260200183836020028082843760009201919091525050604080516020808a02828101820190935289825290935089925088918291850190849080828437600092019190915250929392505063ffffffff612c92169050565b9050611a8d82612d5f565b15611aaa5760405162461bcd60e51b81526004016105c690614f8d565b97509795505050505050565b611ac081336118e4565b6118e15760405162461bcd60e51b81526004016105c690614ccc565b6001600160a01b03811660009081526003602052604090205460ff16156118e1573332146118e15760405162461bcd60e51b81526004016105c690614c4d565b7f00000000000000000000000000000000000000000000000000000000000000006001600160a01b0316816001600160a01b03161415611b6e5760405162461bcd60e51b81526004016105c690614f56565b611c018160046000856001600160a01b03166001600160a01b03168152602001908152602001600020600201805480602002602001604051908101604052809291908181526020018280548015611bee57602002820191906000526020600020905b81546001600160a01b03168152600190910190602001808311611bd0575b5050505050612e0e90919063ffffffff16565b611c1d5760405162461bcd60e51b81526004016105c690614e7c565b611c25614114565b6001600160a01b038381166000908152600260208181526040808420948716845293815291839020835160c081018552815481526001808301548286015282840154828701526003830154606083015260048301805487519281161561010002600019011694909404601f8101869004860282018601909652858152909491936080860193919290830182828015611cfe5780601f10611cd357610100808354040283529160200191611cfe565b820191906000526020600020905b815481529060010190602001808311611ce157829003601f168201915b505050918352505060058201805460408051602060026001851615610100026000190190941693909304601f8101849004840282018401909252818152938201939291830182828015611d925780601f10611d6757610100808354040283529160200191611d92565b820191906000526020600020905b815481529060010190602001808311611d7557829003601f168201915b505050505081525050905042611db9826040015183606001516123c190919063ffffffff16565b1115610e3e5760405162461bcd60e51b81526004016105c690614da8565b611ddf61402b565b611deb84846001612e24565b9050806080015115611e0e5760c081015160e08201526101008101829052611e36565b610120810151611e2590839063ffffffff61312e16565b60e082015260c08101516101008201525b9392505050565b611ed8816040015182602001516001600160a01b031663334fc2896040518163ffffffff1660e01b815260040160206040518083038186803b158015611e8257600080fd5b505afa158015611e96573d6000803e3d6000fd5b505050506040513d601f19601f82011682018060405250810190611eba91906142fb565b60e084015184516001600160a01b031692919063ffffffff61314416565b600080606083602001516001600160a01b031663e869b69b85604001518660600151876000015188608001518960e001518a61010001518b61016001516040518863ffffffff1660e01b8152600401611f379796959493929190614a51565b60006040518083038186803b158015611f4f57600080fd5b505afa158015611f63573d6000803e3d6000fd5b505050506040513d6000823e601f3d908101601f19168201604052611f8b9190810190614317565b86516040516347b7819960e11b815293965091945092506001600160a01b031690638f6f033290611fc490869086908690600401614ac1565b600060405180830381600087803b158015611fde57600080fd5b505af1158015611ff2573d6000803e3d6000fd5b505050506040513d6000823e601f3d908101601f1916820160405261046d9190810190614525565b6000806120b683610140015184606001516001600160a01b03166370a0823186600001516040518263ffffffff1660e01b815260040161205a9190614a3d565b60206040518083038186803b15801561207257600080fd5b505afa158015612086573d6000803e3d6000fd5b505050506040513d601f19601f820116820180604052508101906120aa91906149f9565b9063ffffffff61321316565b90506120c3600082613255565b91506115ac83600001518460600151846132ea565b600080600061210e85604001518660a0015187610120015188600001516001600160a01b0316613391909392919063ffffffff16565b50509050600061214586606001518760a0015188610140015189600001516001600160a01b0316613391909392919063ffffffff16565b5050610120870151909150612160908363ffffffff61321316565b935061217a8661014001518261321390919063ffffffff16565b95516001600160a01b0390811660009081526002602090815260408083209890931682529690965290942042600390910155509093915050565b6040516373b2e76b60e11b81526000906001600160a01b0383169063e765ced6906121e39084906004016152cf565b60206040518083038186803b1580156121fb57600080fd5b505afa15801561220f573d6000803e3d6000fd5b505050506040513d601f19601f8201168201806040525081019061223391906142fb565b90505b919050565b6001600160a01b038116600090815260046020908152604080832060020180548251818502810185019093528083526060938301828280156122a657602002820191906000526020600020905b81546001600160a01b03168152600190910190602001808311612288575b50939450600093505050505b81518110156122f0576122d8848383815181106122cb57fe5b6020026020010151613482565b156122e857600092505050612236565b6001016122b2565b5060019392505050565b6000611e36836001600160a01b03166366cb8d2f846040518263ffffffff1660e01b815260040161232b9190614a3d565b60206040518083038186803b15801561148057600080fd5b61234b61402b565b61235784846000612e24565b905060008061238b867f00000000000000000000000000000000000000000000000000000000000000008560a001516134dd565b9350935050506123a4818361321390919063ffffffff16565b60e084015250506101008101919091526001608082015292915050565b600082820183811015611e365760405162461bcd60e51b81526004016105c690614d03565b60006123f283836122fa565b9050600061240084846128f2565b9050808211156124225760405162461bcd60e51b81526004016105c690614c16565b50505050565b8080156124c357506124c18260036000866001600160a01b03166001600160a01b03168152602001908152602001600020600101805480602002602001604051908101604052809291908181526020018280548015611bee576020028201919060005260206000209081546001600160a01b03168152600190910190602001808311611bd0575050505050612e0e90919063ffffffff16565b155b1561250e576001600160a01b0383811660009081526003602090815260408220600190810180549182018155835291200180546001600160a01b031916918416919091179055610e3e565b801580156125a857506125a88260036000866001600160a01b03166001600160a01b03168152602001908152602001600020600101805480602002602001604051908101604052809291908181526020018280548015611bee576020028201919060005260206000209081546001600160a01b03168152600190910190602001808311611bd0575050505050612e0e90919063ffffffff16565b15610e3e576001600160a01b0383166000908152600360205260409020610e3e906001018363ffffffff61353416565b6125e28282612acc565b61197f5760405162461bcd60e51b81526004016105c6906151cf565b600054604051631d3af8fb60e21b81526001600160a01b03909116906374ebe3ec9061262e908490600401614a3d565b60206040518083038186803b15801561264657600080fd5b505afa15801561265a573d6000803e3d6000fd5b505050506040513d601f19601f8201168201806040525081019061267e9190614509565b61269a5760405162461bcd60e51b81526004016105c69061518c565b6126a381613660565b6118e15760405162461bcd60e51b81526004016105c690614d3a565b6000808212156126e15760405162461bcd60e51b81526004016105c690614eb3565b5090565b6000805460405163792aa04f60e01b8152829182916001600160a01b039091169063792aa04f9061271c9030908590600401614aa8565b60206040518083038186803b15801561273457600080fd5b505afa158015612748573d6000803e3d6000fd5b505050506040513d601f19601f8201168201806040525081019061276c91906149f9565b6001600160a01b038088166000908152600260209081526040808320938a168352929052908120600101549192508080806127a88b8b8b6134dd565b9350935093509350828414156127d05760405162461bcd60e51b81526004016105c6906150e1565b81811097508761281a576128156128086127ec886120aa61299d565b6127fc848663ffffffff61321316565b9063ffffffff6129aa16565b869063ffffffff61312e16565b61282d565b61282d612808838363ffffffff61321316565b9650505050505050935093915050565b6001600160a01b038116600090815260046020908152604080832060020180548251818502810185019093528083526060938301828280156128a857602002820191906000526020600020905b81546001600160a01b0316815260019091019060200180831161288a575b50939450600093505050505b81518110156122f0576128da848383815181106128cd57fe5b602002602001015161368f565b156128ea57600092505050612236565b6001016128b4565b6000611e3660046000856001600160a01b03166001600160a01b031681526020019081526020016000206000015461299161295f866001600160a01b0316635230c3966040518163ffffffff1660e01b815260040160206040518083038186803b15801561148057600080fd5b6001600160a01b038088166000908152600260209081526040808320938a16835292905220549063ffffffff61371c16565b9063ffffffff61375616565b670de0b6b3a76400005b90565b6000611e368261299185670de0b6b3a764000063ffffffff61371c16565b60008054604051631d3af8fb60e21b81526001600160a01b03909116906374ebe3ec906129f9908590600401614a3d565b60206040518083038186803b158015612a1157600080fd5b505afa158015612a25573d6000803e3d6000fd5b505050506040513d601f19601f82011682018060405250810190612a499190614509565b801561223357506040516335fc6c9f60e21b81526001600160a01b0383169063d7f1b27c90612a7c903090600401614a3d565b60206040518083038186803b158015612a9457600080fd5b505afa158015612aa8573d6000803e3d6000fd5b505050506040513d601f19601f820116820180604052508101906122339190614509565b6000816001600160a01b0316836001600160a01b031663481c6a756040518163ffffffff1660e01b815260040160206040518083038186803b158015612b1157600080fd5b505afa158015612b25573d6000803e3d6000fd5b505050506040513d601f19601f82011682018060405250810190612b4991906142fb565b6001600160a01b0316149392505050565b6000815111612b7b5760405162461bcd60e51b81526004016105c69061510d565b612b8481612d5f565b156118e15760405162461bcd60e51b81526004016105c690614e0e565b8151815160609190828183016001600160401b0381118015612bc257600080fd5b50604051908082528060200260200182016040528015612bec578160200160208202803683370190505b50905060005b83811015612c3a57868181518110612c0657fe5b6020026020010151828281518110612c1a57fe5b6001600160a01b0390921660209283029190910190910152600101612bf2565b5060005b82811015612c8857858181518110612c5257fe5b60200260200101518282860181518110612c6857fe5b6001600160a01b0390921660209283029190910190910152600101612c3e565b5095945050505050565b8151815160609190828183016001600160401b0381118015612cb357600080fd5b50604051908082528060200260200182016040528015612cdd578160200160208202803683370190505b50905060005b83811015612d1e57868181518110612cf757fe5b6020026020010151828281518110612d0b57fe5b6020908102919091010152600101612ce3565b5060005b82811015612c8857858181518110612d3657fe5b60200260200101518282860181518110612d4c57fe5b6020908102919091010152600101612d22565b600080825111612d815760405162461bcd60e51b81526004016105c6906152ab565b60005b6001835103811015612e05576000838281518110612d9e57fe5b6020026020010151905060008260010190505b8451811015612dfb57848181518110612dc657fe5b60200260200101516001600160a01b0316826001600160a01b03161415612df35760019350505050612236565b600101612db1565b5050600101612d84565b50600092915050565b600080612e1b8484613798565b95945050505050565b612e2c61402b565b6001600160a01b038416808252604080516318160ddd60e01b815290516318160ddd91600480820192602092909190829003018186803b158015612e6f57600080fd5b505afa158015612e83573d6000803e3d6000fd5b505050506040513d601f19601f82011682018060405250810190612ea791906149f9565b60a0820152612eb684846137fe565b6001600160a01b03908116602083810191909152858216600090815260028083526040808320948816835293835290839020600501805484516001821615610100026000190190911692909204601f810184900484028301840190945283825290929091830182828015612f6b5780601f10612f4057610100808354040283529160200191612f6b565b820191906000526020600020905b815481529060010190602001808311612f4e57829003601f168201915b50505050508161016001819052508115612f9b57612f8e84848360a001516126e5565b60c0830152151560808201525b806080015115612fe1576001600160a01b0380841660408301527f0000000000000000000000000000000000000000000000000000000000000000166060820152613019565b6001600160a01b037f000000000000000000000000000000000000000000000000000000000000000081166040830152831660608201525b80604001516001600160a01b03166370a08231856040518263ffffffff1660e01b81526004016130499190614a3d565b60206040518083038186803b15801561306157600080fd5b505afa158015613075573d6000803e3d6000fd5b505050506040513d601f19601f8201168201806040525081019061309991906149f9565b61012082015260608101516040516370a0823160e01b81526001600160a01b03909116906370a08231906130d1908790600401614a3d565b60206040518083038186803b1580156130e957600080fd5b505afa1580156130fd573d6000803e3d6000fd5b505050506040513d601f19601f8201168201806040525081019061312191906149f9565b6101408201529392505050565b600081831061313d5781611e36565b5090919050565b60608282604051602401613159929190614aa8565b60408051601f198184030181529181526020820180516001600160e01b031663095ea7b360e01b179052516347b7819960e11b81529091506001600160a01b03861690638f6f0332906131b59087906000908690600401614ac1565b600060405180830381600087803b1580156131cf57600080fd5b505af11580156131e3573d6000803e3d6000fd5b505050506040513d6000823e601f3d908101601f1916820160405261320b9190810190614525565b505050505050565b6000611e3683836040518060400160405280601e81526020017f536166654d6174683a207375627472616374696f6e206f766572666c6f7700008152506138b5565b6000805460405163792aa04f60e01b815282916001600160a01b03169063792aa04f906132889030908890600401614aa8565b60206040518083038186803b1580156132a057600080fd5b505afa1580156132b4573d6000803e3d6000fd5b505050506040513d601f19601f820116820180604052508101906132d891906149f9565b905061033e838263ffffffff6138e116565b8015610e3e57610e3e826000809054906101000a90046001600160a01b03166001600160a01b031663469048406040518163ffffffff1660e01b815260040160206040518083038186803b15801561334157600080fd5b505afa158015613355573d6000803e3d6000fd5b505050506040513d601f19601f8201168201806040525081019061337991906142fb565b6001600160a01b03861691908463ffffffff6138ff16565b600080600080866001600160a01b03166370a08231896040518263ffffffff1660e01b81526004016133c39190614a3d565b60206040518083038186803b1580156133db57600080fd5b505afa1580156133ef573d6000803e3d6000fd5b505050506040513d601f19601f8201168201806040525081019061341391906149f9565b90506000613446896001600160a01b03166366cb8d2f8a6040518263ffffffff1660e01b815260040161232b9190614a3d565b9050600082156134635761345c88888585613a41565b9050613467565b5060005b6134728a8a83613a84565b9199909850909650945050505050565b60007f00000000000000000000000000000000000000000000000000000000000000006001600160a01b0316826001600160a01b031614158015611e3657506134cb83836122fa565b6134d584846128f2565b109392505050565b60008060008060006134ef88886122fa565b905060006134fd89896128f2565b90508181613511898363ffffffff613c0216565b6135218a8563ffffffff613c1416565b9550955095509550505093509350935093565b60008061359a8480548060200260200160405190810160405280929190818152602001828054801561358f57602002820191906000526020600020905b81546001600160a01b03168152600190910190602001808311613571575b505050505084613798565b91509150806135bb5760405162461bcd60e51b81526004016105c690614bb8565b83546000190182811461362d578481815481106135d457fe5b9060005260206000200160009054906101000a90046001600160a01b03168584815481106135fe57fe5b9060005260206000200160006101000a8154816001600160a01b0302191690836001600160a01b031602179055505b8480548061363757fe5b600082815260209020810160001990810180546001600160a01b03191690550190555050505050565b6040516353bae5f760e01b81526000906001600160a01b038316906353bae5f790612a7c903090600401614a3d565b60007f00000000000000000000000000000000000000000000000000000000000000006001600160a01b0316826001600160a01b031614156136d357506000611929565b60006136df84846128f2565b905060006136ed85856122fa565b9050600082116137005780821415612e1b565b6137128282600163ffffffff613c5316565b1595945050505050565b60008261372b57506000611929565b8282028284828161373857fe5b0414611e365760405162461bcd60e51b81526004016105c690614fc4565b6000611e3683836040518060400160405280601a81526020017f536166654d6174683a206469766973696f6e206279207a65726f000000000000815250613c8b565b81516000908190815b818110156137eb57846001600160a01b03168682815181106137bf57fe5b60200260200101516001600160a01b031614156137e3579250600191506137f79050565b6001016137a1565b50600019600092509250505b9250929050565b6001600160a01b0382811660009081526002602081815260408084209486168452938152838320600401805485516001821615610100026000190190911693909304601f81018390048302840183019095528483529293611e3693918301828280156138ab5780601f10613880576101008083540402835291602001916138ab565b820191906000526020600020905b81548152906001019060200180831161388e57829003601f168201915b5050505050613cc2565b600081848411156138d95760405162461bcd60e51b81526004016105c69190614b74565b505050900390565b6000611e36670de0b6b3a7640000612991858563ffffffff61371c16565b8015612422576040516370a0823160e01b81526000906001600160a01b038516906370a0823190613934908890600401614a3d565b60206040518083038186803b15801561394c57600080fd5b505afa158015613960573d6000803e3d6000fd5b505050506040513d601f19601f8201168201806040525081019061398491906149f9565b905061399285858585613cd9565b6040516370a0823160e01b81526000906001600160a01b038616906370a08231906139c1908990600401614a3d565b60206040518083038186803b1580156139d957600080fd5b505afa1580156139ed573d6000803e3d6000fd5b505050506040513d601f19601f82011682018060405250810190613a1191906149f9565b9050613a23828463ffffffff61321316565b811461320b5760405162461bcd60e51b81526004016105c690615073565b600080613a64613a57848863ffffffff6138e116565b869063ffffffff61321316565b9050613a7a866127fc868463ffffffff61321316565b9695505050505050565b6000613a908484613d50565b905080158015613aa05750600082115b15613b1757613aaf8484613dd7565b613b12576040516304e3532760e41b81526001600160a01b03851690634e35327090613adf908690600401614a3d565b600060405180830381600087803b158015613af957600080fd5b505af1158015613b0d573d6000803e3d6000fd5b505050505b613b94565b808015613b22575081155b15613b9457613b318484613dd7565b613b9457604051636f86c89760e01b81526001600160a01b03851690636f86c89790613b61908690600401614a3d565b600060405180830381600087803b158015613b7b57600080fd5b505af1158015613b8f573d6000803e3d6000fd5b505050505b836001600160a01b0316632ba57d1784613bad85613e63565b6040518363ffffffff1660e01b8152600401613bca929190614aa8565b600060405180830381600087803b158015613be457600080fd5b505af1158015613bf8573d6000803e3d6000fd5b5050505050505050565b6000611e36838363ffffffff6138e116565b6000821580613c21575081155b15613c2e57506000611929565b611e366001611846670de0b6b3a7640000612991836120aa898963ffffffff61371c16565b6000613c65838363ffffffff6123c116565b8411158015613c835750613c7f838363ffffffff61321316565b8410155b949350505050565b60008183613cac5760405162461bcd60e51b81526004016105c69190614b74565b506000838581613cb857fe5b0495945050505050565b600080613cce83613e88565b9050611e3681613e93565b80156124225760608282604051602401613cf4929190614aa8565b60408051601f198184030181529181526020820180516001600160e01b031663a9059cbb60e01b179052516347b7819960e11b81529091506001600160a01b03861690638f6f0332906131b59087906000908690600401614ac1565b600080836001600160a01b03166366cb8d2f846040518263ffffffff1660e01b8152600401613d7f9190614a3d565b60206040518083038186803b158015613d9757600080fd5b505afa158015613dab573d6000803e3d6000fd5b505050506040513d601f19601f82011682018060405250810190613dcf91906149f9565b139392505050565b600080836001600160a01b031663a7bdad03846040518263ffffffff1660e01b8152600401613e069190614a3d565b60006040518083038186803b158015613e1e57600080fd5b505afa158015613e32573d6000803e3d6000fd5b505050506040513d6000823e601f3d908101601f19168201604052613e5a919081019061436e565b51119392505050565b6000600160ff1b82106126e15760405162461bcd60e51b81526004016105c690615144565b805160209091012090565b600080548190613eab906001600160a01b03166121b4565b6001600160a01b031663e6d642c530856040518363ffffffff1660e01b8152600401613ed8929190614aa8565b60206040518083038186803b158015613ef057600080fd5b505afa158015613f04573d6000803e3d6000fd5b505050506040513d601f19601f82011682018060405250810190613f2891906142fb565b90506001600160a01b0381166122335760405162461bcd60e51b81526004016105c690614ddf565b828054600181600116156101000203166002900490600052602060002090601f016020900481019282601f10613f9157805160ff1916838001178555613fbe565b82800160010185558215613fbe579182015b82811115613fbe578251825591602001919060010190613fa3565b506126e192915061414a565b82805482825590600052602060002090810192821561401f579160200282015b8281111561401f57825182546001600160a01b0319166001600160a01b03909116178255602090920191600190910190613fea565b506126e1929150614164565b60405180610180016040528060006001600160a01b0316815260200160006001600160a01b0316815260200160006001600160a01b0316815260200160006001600160a01b03168152602001600015158152602001600081526020016000815260200160008152602001600081526020016000815260200160008152602001606081525090565b50805460008255906000526020600020908101906118e1919061414a565b6040518060a0016040528060006001600160a01b0316815260200160006001600160a01b0316815260200160008152602001600060ff168152602001606081525090565b6040518060c001604052806000815260200160008152602001600081526020016000815260200160608152602001606081525090565b6129a791905b808211156126e15760008155600101614150565b6129a791905b808211156126e15780546001600160a01b031916815560010161416a565b8051611929816153b7565b60008083601f8401126141a4578182fd5b5081356001600160401b038111156141ba578182fd5b60208301915083602080830285010111156137f757600080fd5b600082601f8301126141e4578081fd5b81356141f76141f282615349565b615323565b81815291506020808301908481018184028601820187101561421857600080fd5b60005b8481101561424057813561422e816153b7565b8452928201929082019060010161421b565b505050505092915050565b8035611929816153cc565b600082601f830112614266578081fd5b81356142746141f282615368565b915080825283602082850101111561428b57600080fd5b8060208401602084013760009082016020015292915050565b600082601f8301126142b4578081fd5b81516142c26141f282615368565b91508082528360208285010111156142d957600080fd5b61034181602084016020860161538b565b805160ff8116811461192957600080fd5b60006020828403121561430c578081fd5b8151611e36816153b7565b60008060006060848603121561432b578182fd5b8351614336816153b7565b6020850151604086015191945092506001600160401b03811115614358578182fd5b614364868287016142a4565b9150509250925092565b60006020808385031215614380578182fd5b82516001600160401b03811115614395578283fd5b80840185601f8201126143a6578384fd5b805191506143b66141f283615349565b82815283810190828501858502840186018910156143d2578687fd5b8693505b848410156143fd5780516143e9816153b7565b8352600193909301929185019185016143d6565b50979650505050505050565b6000602080838503121561441b578182fd5b82516001600160401b0380821115614431578384fd5b81850186601f820112614442578485fd5b805192506144526141f284615349565b83815284810190828601875b868110156144fa578151850160a080601f19838f0301121561447e578a8bfd5b61448781615323565b6144938e8c8501614188565b81526144a28e60408501614188565b8b820152606083015160408201526144bd8e608085016142ea565b606082015281830151898111156144d2578c8dfd5b6144e08f8d838701016142a4565b60808301525086525050928701929087019060010161445e565b50909998505050505050505050565b60006020828403121561451a578081fd5b8151611e36816153cc565b600060208284031215614536578081fd5b81516001600160401b0381111561454b578182fd5b61033e848285016142a4565b600060208284031215614568578081fd5b8135611e36816153b7565b60008060408385031215614585578182fd5b8235614590816153b7565b915060208301356145a0816153b7565b809150509250929050565b60008060008060008060008060a0898b0312156145c6578586fd5b88356145d1816153b7565b975060208901356001600160401b03808211156145ec578788fd5b6145f88c838d01614193565b909950975060408b0135915080821115614610578586fd5b61461c8c838d01614193565b909750955060608b0135915080821115614634578485fd5b506146418b828c01614193565b999c989b50969995989497949560800135949350505050565b60008060006060848603121561466e578081fd5b8335614679816153b7565b92506020848101356001600160401b0380821115614695578384fd5b6146a1888389016141d4565b945060408701359150808211156146b6578384fd5b5080860187601f8201126146c8578384fd5b803591506146d86141f283615349565b82815283810190828501858502840186018b10156146f4578687fd5b8693505b8484101561471e5761470a8b8261424b565b8352600193909301929185019185016146f8565b5080955050505050509250925092565b600080600060608486031215614742578081fd5b833561474d816153b7565b92506020848101356001600160401b0380821115614769578384fd5b614775888389016141d4565b9450604087013591508082111561478a578384fd5b5080860187601f82011261479c578384fd5b803591506147ac6141f283615349565b82815283810190828501865b858110156147e1576147cf8c888435880101614256565b845292860192908601906001016147b8565b505080955050505050509250925092565b600080600060608486031215614806578081fd5b8335614811816153b7565b92506020848101356001600160401b038082111561482d578384fd5b614839888389016141d4565b9450604087013591508082111561484e578384fd5b5080860187601f820112614860578384fd5b803591506148706141f283615349565b82815283810190828501865b858110156147e1576148938c888435880101614256565b8452928601929086019060010161487c565b6000806000606084860312156148b9578081fd5b83356148c4816153b7565b92506020848101356001600160401b03808211156148e0578384fd5b6148ec888389016141d4565b94506040870135915080821115614901578384fd5b5080860187601f820112614913578384fd5b803591506149236141f283615349565b82815283810190828501858502840186018b101561493f578687fd5b8693505b8484101561471e578035835260019390930192918501918501614943565b60008060408385031215614973578182fd5b823561497e816153b7565b915060208301356145a0816153cc565b6000806000606084860312156149a2578081fd5b83356149ad816153b7565b925060208401356149bd816153b7565b929592945050506040919091013590565b600080604083850312156149e0578182fd5b82356149eb816153b7565b946020939093013593505050565b600060208284031215614a0a578081fd5b5051919050565b60008151808452614a2981602086016020860161538b565b601f01601f19169290920160200192915050565b6001600160a01b0391909116815260200190565b6001600160a01b03888116825287811660208301528616604082015284151560608201526080810184905260a0810183905260e060c08201819052600090614a9b90830184614a11565b9998505050505050505050565b6001600160a01b03929092168252602082015260400190565b600060018060a01b038516825283602083015260606040830152612e1b6060830184614a11565b6001600160a01b0383168152604060208201819052600090613c8390830184614a11565b6020808252825182820181905260009190848201906040850190845b81811015614b4d5783516001600160a01b031683529284019291840191600101614b28565b50909695505050505050565b901515815260200190565b9115158252602082015260400190565b600060208252611e366020830184614a11565b6001600160a01b03958616815293909416602084015260408301919091526060820152608081019190915260a00190565b60208082526015908201527420b2323932b9b9903737ba1034b71030b93930bc9760591b604082015260600190565b602080825260159082015274082e4e4c2f240d8cadccee8d040dad2e6dac2e8c6d605b1b604082015260600190565b6020808252601a908201527f43616e206e6f74206578636565642074617267657420756e6974000000000000604082015260600190565b6020808252601a908201527f43616c6c6572206d75737420626520454f412041646472657373000000000000604082015260600190565b60208082526028908201527f4d75737420626520612076616c696420616e6420696e697469616c697a65642060408201526729b2ba2a37b5b2b760c11b606082015260800190565b6020808252601e908201527f41646472657373206e6f74207065726d697474656420746f2074726164650000604082015260600190565b6020808252601b908201527f536166654d6174683a206164646974696f6e206f766572666c6f770000000000604082015260600190565b6020808252601e908201527f4d7573742062652070656e64696e6720696e697469616c697a6174696f6e0000604082015260600190565b6020808252601f908201527f53656c6c206f746865722073657420636f6d706f6e656e747320666972737400604082015260600190565b6020808252601e908201527f436f6d706f6e656e7420636f6f6c206f666620696e2070726f67726573730000604082015260600190565b60208082526015908201527426bab9ba103132903b30b634b21030b230b83a32b960591b604082015260600190565b6020808252601a908201527f43616e6e6f74206475706c696361746520616464726573736573000000000000604082015260600190565b60208082526019908201527f574554482069732062656c6f772074617267657420756e697400000000000000604082015260600190565b6020808252601f908201527f436f6d706f6e656e74206e6f742070617274206f6620726562616c616e636500604082015260600190565b6020808252818101527f53616665436173743a2076616c7565206d75737420626520706f736974697665604082015260600190565b6020808252601a908201527f556e7265636f676e697a65642065786368616e6765206e616d65000000000000604082015260600190565b6020808252601d908201527f547261646520616d6f756e74203e206d61782074726164652073697a65000000604082015260600190565b6020808252601d908201527f43616e206e6f74206578706c696369746c792074726164652057455448000000604082015260600190565b6020808252601b908201527f43616e6e6f74206475706c696361746520636f6d706f6e656e74730000000000604082015260600190565b60208082526021908201527f536166654d6174683a206d756c7469706c69636174696f6e206f766572666c6f6040820152607760f81b606082015260800190565b6020808252601b908201527f54617267657473206e6f74206d6574206f7220455448203d7e20300000000000604082015260600190565b6020808252601e908201527f45787465726e616c20706f736974696f6e73206e6f7420616c6c6f7765640000604082015260600190565b6020808252601d908201527f496e76616c696420706f7374207472616e736665722062616c616e6365000000604082015260600190565b6020808252601d908201527f5461726765742070657263656e74616765206d757374206265203e2030000000604082015260600190565b60208082526012908201527115185c99d95d08185b1c9958591e481b595d60721b604082015260600190565b60208082526018908201527f4172726179206c656e677468206d757374206265203e20300000000000000000604082015260600190565b60208082526028908201527f53616665436173743a2076616c756520646f65736e27742066697420696e2061604082015267371034b73a191a9b60c11b606082015260800190565b60208082526023908201527f4d75737420626520636f6e74726f6c6c65722d656e61626c656420536574546f60408201526235b2b760e91b606082015260800190565b6020808252601c908201527f4d7573742062652074686520536574546f6b656e206d616e6167657200000000604082015260600190565b60208082526018908201527f436f6d706f6e656e74206e6f74207265636f676e697a65640000000000000000604082015260600190565b6020808252601f908201527f5265656e7472616e637947756172643a207265656e7472616e742063616c6c00604082015260600190565b6020808252601e908201527f4f6c6420436f6d706f6e656e74732074617267657473206d697373696e670000604082015260600190565b6020808252600a90820152694120697320656d70747960b01b604082015260600190565b90815260200190565b918252602082015260400190565b600087825286602083015285604083015284606083015260c0608083015261531160c0830185614a11565b82810360a0840152614a9b8185614a11565b6040518181016001600160401b038111828210171561534157600080fd5b604052919050565b60006001600160401b0382111561535e578081fd5b5060209081020190565b60006001600160401b0382111561537d578081fd5b50601f01601f191660200190565b60005b838110156153a657818101518382015260200161538e565b838111156124225750506000910152565b6001600160a01b03811681146118e157600080fd5b80151581146118e157600080fdfea26469706673582212205e9a6eb12d8a586e1effe5f60162f955f46cefb1b2603c8115fe405cd1356c4f64736f6c634300060a0033",
  "linkReferences": {},
  "deployedLinkReferences": {}
}