{
    "_format": "hh-sol-artifact-1",
    "contractName": "GeneralIndexModule",
    "sourceName": "contracts/protocol/modules/GeneralIndexModule.sol",
    "abi": [
        {
            "inputs": [
                {
                    "internalType": "contract IController",
                    "name": "_controller",
                    "type": "address"
                },
                {
                    "internalType": "contract IWETH",
                    "name": "_weth",
                    "type": "address"
                }
            ],
            "stateMutability": "nonpayable",
            "type": "constructor"
        },
        {
            "anonymous": false,
            "inputs": [
                {
                    "indexed": true,
                    "internalType": "contract ISetToken",
                    "name": "_setToken",
                    "type": "address"
                },
                {
                    "indexed": true,
                    "internalType": "bool",
                    "name": "_status",
                    "type": "bool"
                }
            ],
            "name": "AnyoneTradeUpdated",
            "type": "event"
        },
        {
            "anonymous": false,
            "inputs": [
                {
                    "indexed": true,
                    "internalType": "contract ISetToken",
                    "name": "_setToken",
                    "type": "address"
                },
                {
                    "indexed": true,
                    "internalType": "address",
                    "name": "_component",
                    "type": "address"
                },
                {
                    "indexed": false,
                    "internalType": "string",
                    "name": "_newExchangeName",
                    "type": "string"
                }
            ],
            "name": "AssetExchangeUpdated",
            "type": "event"
        },
        {
            "anonymous": false,
            "inputs": [
                {
                    "indexed": true,
                    "internalType": "contract ISetToken",
                    "name": "_setToken",
                    "type": "address"
                },
                {
                    "indexed": true,
                    "internalType": "uint256",
                    "name": "positionMultiplier",
                    "type": "uint256"
                }
            ],
            "name": "AssetTargetsRaised",
            "type": "event"
        },
        {
            "anonymous": false,
            "inputs": [
                {
                    "indexed": true,
                    "internalType": "contract ISetToken",
                    "name": "_setToken",
                    "type": "address"
                },
                {
                    "indexed": true,
                    "internalType": "address",
                    "name": "_component",
                    "type": "address"
                },
                {
                    "indexed": false,
                    "internalType": "uint256",
                    "name": "_newCoolOffPeriod",
                    "type": "uint256"
                }
            ],
            "name": "CoolOffPeriodUpdated",
            "type": "event"
        },
        {
            "anonymous": false,
            "inputs": [
                {
                    "indexed": true,
                    "internalType": "contract ISetToken",
                    "name": "_setToken",
                    "type": "address"
                },
                {
                    "indexed": true,
                    "internalType": "address",
                    "name": "_component",
                    "type": "address"
                },
                {
                    "indexed": false,
                    "internalType": "bytes",
                    "name": "_newExchangeData",
                    "type": "bytes"
                }
            ],
            "name": "ExchangeDataUpdated",
            "type": "event"
        },
        {
            "anonymous": false,
            "inputs": [
                {
                    "indexed": true,
                    "internalType": "contract ISetToken",
                    "name": "_setToken",
                    "type": "address"
                },
                {
                    "indexed": true,
                    "internalType": "uint256",
                    "name": "_raiseTargetPercentage",
                    "type": "uint256"
                }
            ],
            "name": "RaiseTargetPercentageUpdated",
            "type": "event"
        },
        {
            "anonymous": false,
            "inputs": [
                {
                    "indexed": true,
                    "internalType": "contract ISetToken",
                    "name": "_setToken",
                    "type": "address"
                },
                {
                    "indexed": false,
                    "internalType": "address[]",
                    "name": "aggregateComponents",
                    "type": "address[]"
                },
                {
                    "indexed": false,
                    "internalType": "uint256[]",
                    "name": "aggregateTargetUnits",
                    "type": "uint256[]"
                },
                {
                    "indexed": true,
                    "internalType": "uint256",
                    "name": "positionMultiplier",
                    "type": "uint256"
                }
            ],
            "name": "RebalanceStarted",
            "type": "event"
        },
        {
            "anonymous": false,
            "inputs": [
                {
                    "indexed": true,
                    "internalType": "contract ISetToken",
                    "name": "_setToken",
                    "type": "address"
                },
                {
                    "indexed": true,
                    "internalType": "address",
                    "name": "_sellComponent",
                    "type": "address"
                },
                {
                    "indexed": true,
                    "internalType": "address",
                    "name": "_buyComponent",
                    "type": "address"
                },
                {
                    "indexed": false,
                    "internalType": "contract IIndexExchangeAdapter",
                    "name": "_exchangeAdapter",
                    "type": "address"
                },
                {
                    "indexed": false,
                    "internalType": "address",
                    "name": "_executor",
                    "type": "address"
                },
                {
                    "indexed": false,
                    "internalType": "uint256",
                    "name": "_netAmountSold",
                    "type": "uint256"
                },
                {
                    "indexed": false,
                    "internalType": "uint256",
                    "name": "_netAmountReceived",
                    "type": "uint256"
                },
                {
                    "indexed": false,
                    "internalType": "uint256",
                    "name": "_protocolFee",
                    "type": "uint256"
                }
            ],
            "name": "TradeExecuted",
            "type": "event"
        },
        {
            "anonymous": false,
            "inputs": [
                {
                    "indexed": true,
                    "internalType": "contract ISetToken",
                    "name": "_setToken",
                    "type": "address"
                },
                {
                    "indexed": true,
                    "internalType": "address",
                    "name": "_component",
                    "type": "address"
                },
                {
                    "indexed": false,
                    "internalType": "uint256",
                    "name": "_newMaximum",
                    "type": "uint256"
                }
            ],
            "name": "TradeMaximumUpdated",
            "type": "event"
        },
        {
            "anonymous": false,
            "inputs": [
                {
                    "indexed": true,
                    "internalType": "contract ISetToken",
                    "name": "_setToken",
                    "type": "address"
                },
                {
                    "indexed": true,
                    "internalType": "address",
                    "name": "_trader",
                    "type": "address"
                },
                {
                    "indexed": false,
                    "internalType": "bool",
                    "name": "_status",
                    "type": "bool"
                }
            ],
            "name": "TraderStatusUpdated",
            "type": "event"
        },
        {
            "inputs": [],
            "name": "controller",
            "outputs": [
                {
                    "internalType": "contract IController",
                    "name": "",
                    "type": "address"
                }
            ],
            "stateMutability": "view",
            "type": "function",
            "gas": "0xaeb690"
        },
        {
            "inputs": [
                {
                    "internalType": "contract ISetToken",
                    "name": "",
                    "type": "address"
                },
                {
                    "internalType": "contract IERC20",
                    "name": "",
                    "type": "address"
                }
            ],
            "name": "executionInfo",
            "outputs": [
                {
                    "internalType": "uint256",
                    "name": "targetUnit",
                    "type": "uint256"
                },
                {
                    "internalType": "uint256",
                    "name": "maxSize",
                    "type": "uint256"
                },
                {
                    "internalType": "uint256",
                    "name": "coolOffPeriod",
                    "type": "uint256"
                },
                {
                    "internalType": "uint256",
                    "name": "lastTradeTimestamp",
                    "type": "uint256"
                },
                {
                    "internalType": "string",
                    "name": "exchangeName",
                    "type": "string"
                },
                {
                    "internalType": "bytes",
                    "name": "exchangeData",
                    "type": "bytes"
                }
            ],
            "stateMutability": "view",
            "type": "function",
            "gas": "0xaeb690"
        },
        {
            "inputs": [
                {
                    "internalType": "contract ISetToken",
                    "name": "_setToken",
                    "type": "address"
                }
            ],
            "name": "getAllowedTraders",
            "outputs": [
                {
                    "internalType": "address[]",
                    "name": "",
                    "type": "address[]"
                }
            ],
            "stateMutability": "view",
            "type": "function",
            "gas": "0xaeb690"
        },
        {
            "inputs": [
                {
                    "internalType": "contract ISetToken",
                    "name": "_setToken",
                    "type": "address"
                },
                {
                    "internalType": "contract IERC20",
                    "name": "_component",
                    "type": "address"
                }
            ],
            "name": "getComponentTradeQuantityAndDirection",
            "outputs": [
                {
                    "internalType": "bool",
                    "name": "",
                    "type": "bool"
                },
                {
                    "internalType": "uint256",
                    "name": "",
                    "type": "uint256"
                }
            ],
            "stateMutability": "view",
            "type": "function",
            "gas": "0xaeb690"
        },
        {
            "inputs": [
                {
                    "internalType": "contract ISetToken",
                    "name": "_setToken",
                    "type": "address"
                },
                {
                    "internalType": "address",
                    "name": "_trader",
                    "type": "address"
                }
            ],
            "name": "getIsAllowedTrader",
            "outputs": [
                {
                    "internalType": "bool",
                    "name": "",
                    "type": "bool"
                }
            ],
            "stateMutability": "view",
            "type": "function",
            "gas": "0xaeb690"
        },
        {
            "inputs": [
                {
                    "internalType": "contract ISetToken",
                    "name": "_setToken",
                    "type": "address"
                }
            ],
            "name": "getRebalanceComponents",
            "outputs": [
                {
                    "internalType": "address[]",
                    "name": "",
                    "type": "address[]"
                }
            ],
            "stateMutability": "view",
            "type": "function",
            "gas": "0xaeb690"
        },
        {
            "inputs": [
                {
                    "internalType": "contract ISetToken",
                    "name": "_setToken",
                    "type": "address"
                }
            ],
            "name": "initialize",
            "outputs": [],
            "stateMutability": "nonpayable",
            "type": "function",
            "gas": "0xaeb690"
        },
        {
            "inputs": [
                {
                    "internalType": "contract ISetToken",
                    "name": "",
                    "type": "address"
                }
            ],
            "name": "permissionInfo",
            "outputs": [
                {
                    "internalType": "bool",
                    "name": "anyoneTrade",
                    "type": "bool"
                }
            ],
            "stateMutability": "view",
            "type": "function",
            "gas": "0xaeb690"
        },
        {
            "inputs": [
                {
                    "internalType": "contract ISetToken",
                    "name": "_setToken",
                    "type": "address"
                }
            ],
            "name": "raiseAssetTargets",
            "outputs": [],
            "stateMutability": "nonpayable",
            "type": "function",
            "gas": "0xaeb690"
        },
        {
            "inputs": [
                {
                    "internalType": "contract ISetToken",
                    "name": "",
                    "type": "address"
                }
            ],
            "name": "rebalanceInfo",
            "outputs": [
                {
                    "internalType": "uint256",
                    "name": "positionMultiplier",
                    "type": "uint256"
                },
                {
                    "internalType": "uint256",
                    "name": "raiseTargetPercentage",
                    "type": "uint256"
                }
            ],
            "stateMutability": "view",
            "type": "function",
            "gas": "0xaeb690"
        },
        {
            "inputs": [],
            "name": "removeModule",
            "outputs": [],
            "stateMutability": "nonpayable",
            "type": "function",
            "gas": "0xaeb690"
        },
        {
            "inputs": [
                {
                    "internalType": "contract ISetToken",
                    "name": "_setToken",
                    "type": "address"
                },
                {
                    "internalType": "bool",
                    "name": "_status",
                    "type": "bool"
                }
            ],
            "name": "setAnyoneTrade",
            "outputs": [],
            "stateMutability": "nonpayable",
            "type": "function",
            "gas": "0xaeb690"
        },
        {
            "inputs": [
                {
                    "internalType": "contract ISetToken",
                    "name": "_setToken",
                    "type": "address"
                },
                {
                    "internalType": "address[]",
                    "name": "_components",
                    "type": "address[]"
                },
                {
                    "internalType": "uint256[]",
                    "name": "_coolOffPeriods",
                    "type": "uint256[]"
                }
            ],
            "name": "setCoolOffPeriods",
            "outputs": [],
            "stateMutability": "nonpayable",
            "type": "function",
            "gas": "0xaeb690"
        },
        {
            "inputs": [
                {
                    "internalType": "contract ISetToken",
                    "name": "_setToken",
                    "type": "address"
                },
                {
                    "internalType": "address[]",
                    "name": "_components",
                    "type": "address[]"
                },
                {
                    "internalType": "bytes[]",
                    "name": "_exchangeData",
                    "type": "bytes[]"
                }
            ],
            "name": "setExchangeData",
            "outputs": [],
            "stateMutability": "nonpayable",
            "type": "function",
            "gas": "0xaeb690"
        },
        {
            "inputs": [
                {
                    "internalType": "contract ISetToken",
                    "name": "_setToken",
                    "type": "address"
                },
                {
                    "internalType": "address[]",
                    "name": "_components",
                    "type": "address[]"
                },
                {
                    "internalType": "string[]",
                    "name": "_exchangeNames",
                    "type": "string[]"
                }
            ],
            "name": "setExchanges",
            "outputs": [],
            "stateMutability": "nonpayable",
            "type": "function",
            "gas": "0xaeb690"
        },
        {
            "inputs": [
                {
                    "internalType": "contract ISetToken",
                    "name": "_setToken",
                    "type": "address"
                },
                {
                    "internalType": "uint256",
                    "name": "_raiseTargetPercentage",
                    "type": "uint256"
                }
            ],
            "name": "setRaiseTargetPercentage",
            "outputs": [],
            "stateMutability": "nonpayable",
            "type": "function",
            "gas": "0xaeb690"
        },
        {
            "inputs": [
                {
                    "internalType": "contract ISetToken",
                    "name": "_setToken",
                    "type": "address"
                },
                {
                    "internalType": "address[]",
                    "name": "_components",
                    "type": "address[]"
                },
                {
                    "internalType": "uint256[]",
                    "name": "_tradeMaximums",
                    "type": "uint256[]"
                }
            ],
            "name": "setTradeMaximums",
            "outputs": [],
            "stateMutability": "nonpayable",
            "type": "function",
            "gas": "0xaeb690"
        },
        {
            "inputs": [
                {
                    "internalType": "contract ISetToken",
                    "name": "_setToken",
                    "type": "address"
                },
                {
                    "internalType": "address[]",
                    "name": "_traders",
                    "type": "address[]"
                },
                {
                    "internalType": "bool[]",
                    "name": "_statuses",
                    "type": "bool[]"
                }
            ],
            "name": "setTraderStatus",
            "outputs": [],
            "stateMutability": "nonpayable",
            "type": "function",
            "gas": "0xaeb690"
        },
        {
            "inputs": [
                {
                    "internalType": "contract ISetToken",
                    "name": "_setToken",
                    "type": "address"
                },
                {
                    "internalType": "address[]",
                    "name": "_newComponents",
                    "type": "address[]"
                },
                {
                    "internalType": "uint256[]",
                    "name": "_newComponentsTargetUnits",
                    "type": "uint256[]"
                },
                {
                    "internalType": "uint256[]",
                    "name": "_oldComponentsTargetUnits",
                    "type": "uint256[]"
                },
                {
                    "internalType": "uint256",
                    "name": "_positionMultiplier",
                    "type": "uint256"
                }
            ],
            "name": "startRebalance",
            "outputs": [],
            "stateMutability": "nonpayable",
            "type": "function",
            "gas": "0xaeb690"
        },
        {
            "inputs": [
                {
                    "internalType": "contract ISetToken",
                    "name": "_setToken",
                    "type": "address"
                },
                {
                    "internalType": "contract IERC20",
                    "name": "_component",
                    "type": "address"
                },
                {
                    "internalType": "uint256",
                    "name": "_ethQuantityLimit",
                    "type": "uint256"
                }
            ],
            "name": "trade",
            "outputs": [],
            "stateMutability": "nonpayable",
            "type": "function",
            "gas": "0xaeb690"
        },
        {
            "inputs": [
                {
                    "internalType": "contract ISetToken",
                    "name": "_setToken",
                    "type": "address"
                },
                {
                    "internalType": "contract IERC20",
                    "name": "_component",
                    "type": "address"
                },
                {
                    "internalType": "uint256",
                    "name": "_minComponentReceived",
                    "type": "uint256"
                }
            ],
            "name": "tradeRemainingWETH",
            "outputs": [],
            "stateMutability": "nonpayable",
            "type": "function",
            "gas": "0xaeb690"
        },
        {
            "inputs": [],
            "name": "weth",
            "outputs": [
                {
                    "internalType": "contract IWETH",
                    "name": "",
                    "type": "address"
                }
            ],
            "stateMutability": "view",
            "type": "function",
            "gas": "0xaeb690"
        }
    ],
    "bytecode": "0x60a06040523480156200001157600080fd5b50604051620054f4380380620054f483398101604081905262000034916200006f565b600080546001600160a01b0319166001600160a01b0393909316929092179091556001805560601b6001600160601b031916608052620000c6565b6000806040838503121562000082578182fd5b82516200008f81620000ad565b6020840151909250620000a281620000ad565b809150509250929050565b6001600160a01b0381168114620000c357600080fd5b50565b60805160601c6153d96200011b600039806106755280610a335280610e3d5280610e7f52806116e2528061170c5280611ade52806123585280612fad5280612fe1528061347c528061368952506153d96000f3fe608060405234801561001057600080fd5b50600436106101425760003560e01c80638fa92b05116100b8578063d4f005321161007c578063d4f0053214610298578063dc8abe2e146102b8578063e231a679146102d9578063e64ef1c1146102fa578063f77c47911461030d578063ff0932a11461031557610142565b80638fa92b0514610239578063987061dd1461024c578063b82177191461025f578063b91d30e914610272578063c4d66de81461028557610142565b806345e3db3e1161010a57806345e3db3e146101d25780635253baae146101e55780636235b884146101f85780636dbd8b911461020b578063737531ba1461021e578063847ef08d1461023157610142565b80630a251f601461014757806317b755ea146101705780632f5c5ac3146101855780633fc8cef314610198578063421dec4d146101ad575b600080fd5b61015a6101553660046144dd565b610328565b6040516101679190614b22565b60405180910390f35b61018361017e366004614698565b610348565b005b610183610193366004614515565b610474565b6101a0610673565b60405161016791906149ea565b6101c06101bb3660046144dd565b610697565b604051610167969594939291906152af565b61015a6101e03660046144c1565b6107e3565b6101836101f33660046148f8565b6107f8565b61018361020636600461480f565b6108f6565b61018361021936600461475c565b610a0b565b61018361022c366004614938565b610c3e565b610183610cb3565b6101836102473660046148cb565b610d77565b61018361025a3660046148f8565b610dd6565b61018361026d36600461480f565b610fd1565b6101836102803660046145c4565b6110e6565b6101836102933660046144c1565b61123f565b6102ab6102a63660046144c1565b611461565b6040516101679190614ab9565b6102cb6102c63660046144c1565b6114e6565b6040516101679291906152a1565b6102ec6102e73660046144dd565b6114ff565b604051610167929190614b2d565b6102ab6103083660046144c1565b611631565b6101a06116b3565b6101836103233660046144c1565b6116c2565b600082610334816117f0565b61033e8484611818565b91505b5092915050565b8261035281611863565b610362838363ffffffff61188916565b60005b835181101561046d5782818151811061037a57fe5b602002602001015160026000876001600160a01b03166001600160a01b0316815260200190815260200160002060008684815181106103b557fe5b60200260200101516001600160a01b03166001600160a01b0316815260200190815260200160002060050190805190602001906103f3929190613eba565b5083818151811061040057fe5b60200260200101516001600160a01b0316856001600160a01b03167f2e7f18adcce9eaadebfe023c5fa3ff34900485c34846d43561ddb4e1e650115885848151811061044857fe5b602002602001015160405161045d9190614b3d565b60405180910390a3600101610365565b5050505050565b8761047e81611863565b6060806105048b6001600160a01b03166399d50d5d6040518163ffffffff1660e01b815260040160006040518083038186803b1580156104bd57600080fd5b505afa1580156104d1573d6000803e3d6000fd5b505050506040513d6000823e601f3d908101601f191682016040526104f991908101906142d8565b8b8b8b8b8b8b6118b7565b909250905060005b82518110156105dd5761054483828151811061052457fe5b60200260200101518d6001600160a01b03166119ea90919063ffffffff16565b1561056a5760405162461bcd60e51b815260040161056190615005565b60405180910390fd5b81818151811061057657fe5b6020026020010151600260008e6001600160a01b03166001600160a01b0316815260200190815260200160002060008584815181106105b157fe5b6020908102919091018101516001600160a01b031682528101919091526040016000205560010161050c565b506001600160a01b038b166000908152600460209081526040909120835161060d92600290920191850190613f34565b506001600160a01b038b1660008181526004602052604090819020869055518591907f10730cd494f105e9bcaa2772774ed1c9b1704cc91a49a3269b1644d6c5087cd29061065e9086908690614acc565b60405180910390a35050505050505050505050565b7f000000000000000000000000000000000000000000000000000000000000000081565b6002602081815260009384526040808520825292845292829020805460018083015483850154600385015460048601805489519581161561010002600019011697909704601f81018a90048a0285018a01909852878452939791969095939493918301828280156107495780601f1061071e57610100808354040283529160200191610749565b820191906000526020600020905b81548152906001019060200180831161072c57829003601f168201915b5050505060058301805460408051602060026001851615610100026000190190941693909304601f81018490048402820184019092528181529495949350908301828280156107d95780601f106107ae576101008083540402835291602001916107d9565b820191906000526020600020905b8154815290600101906020018083116107bc57829003601f168201915b5050505050905086565b60036020526000908152604090205460ff1681565b6002600154141561081b5760405162461bcd60e51b815260040161056190615206565b60026001558261082a81611a76565b8361083481611a9c565b61083e8585611adc565b610846613f95565b610851868686611dcd565b905061085c81611e33565b600061086782612010565b905060008061087684896120ce565b9150915083606001516001600160a01b031684604001516001600160a01b031685600001516001600160a01b03167f54e9e24dab7ba662ede90396b0de464467c3d65f95485171a60381185219f10b87602001513387878a6040516108df959493929190614b50565b60405180910390a450506001805550505050505050565b8261090081611863565b610910838363ffffffff61188916565b60005b835181101561046d5782818151811061092857fe5b602002602001015160026000876001600160a01b03166001600160a01b03168152602001908152602001600020600086848151811061096357fe5b60200260200101516001600160a01b03166001600160a01b031681526020019081526020016000206001018190555083818151811061099e57fe5b60200260200101516001600160a01b0316856001600160a01b03167fd87a5e1bfdb22484feb4f6baaa1711185a539bbfa8e8ab5d85d1dd77ab1e25668584815181106109e657fe5b60200260200101516040516109fb9190615298565b60405180910390a3600101610913565b82610a1581611863565b610a25838363ffffffff61188916565b60005b835181101561046d577f00000000000000000000000000000000000000000000000000000000000000006001600160a01b0316848281518110610a6757fe5b60200260200101516001600160a01b031614610c3657600054610a92906001600160a01b03166121aa565b6001600160a01b031663639a397830858481518110610aad57fe5b60200260200101516040518363ffffffff1660e01b8152600401610ad2929190614a95565b60206040518083038186803b158015610aea57600080fd5b505afa158015610afe573d6000803e3d6000fd5b505050506040513d601f19601f82011682018060405250810190610b229190614473565b610b3e5760405162461bcd60e51b815260040161056190614eb1565b828181518110610b4a57fe5b602002602001015160026000876001600160a01b03166001600160a01b031681526020019081526020016000206000868481518110610b8557fe5b60200260200101516001600160a01b03166001600160a01b031681526020019081526020016000206004019080519060200190610bc3929190613eba565b50838181518110610bd057fe5b60200260200101516001600160a01b0316856001600160a01b03167f4b762bf7b7ea6e5db15083fd59db2b95b16339f2b0e7cd7360325378a579e7d9858481518110610c1857fe5b6020026020010151604051610c2d9190614b3d565b60405180910390a35b600101610a28565b81610c4881611863565b60008211610c685760405162461bcd60e51b815260040161056190615073565b6001600160a01b038316600081815260046020526040808220600101859055518492917f6a1e9ac0e71aa1dc7854a57bce846b04b1aae20dc994b832098200d9236d1d4a91a3505050565b336000908152600360205260408120905b6001820154811015610d23576000826002016000846001018481548110610ce757fe5b6000918252602080832091909101546001600160a01b031683528201929092526040019020805460ff1916911515919091179055600101610cc4565b503360009081526004602052604081208181556001810182905590610d4b600283018261401c565b5050336000908152600360205260408120805460ff1916815590610d72600183018261401c565b505050565b81610d8181611863565b6001600160a01b038316600081815260036020526040808220805460ff191686151590811790915590519092917fd36edbcfd3cf0c7e5c30d627b9ecd4f382efd1b67914b0c5bfd86d22f7fce7ec91a3505050565b60026001541415610df95760405162461bcd60e51b815260040161056190615206565b600260015582610e0881611a76565b83610e1281611a9c565b610e1b85612231565b610e375760405162461bcd60e51b815260040161056190614d3a565b610e61857f00000000000000000000000000000000000000000000000000000000000000006122f0565b6001600160a01b0380871660009081526002602090815260408083207f00000000000000000000000000000000000000000000000000000000000000009094168352929052205410610ec55760405162461bcd60e51b815260040161056190614e0e565b610ecf8585611adc565b610ed7613f95565b610ee2868686612339565b9050610eed81611e33565b6000610ef882612010565b9050600080610f0784896120ce565b6001600160a01b03808c166000908152600260209081526040808320938e16835292905220600101549193509150610f45828563ffffffff6123b716565b10610f625760405162461bcd60e51b815260040161056190614ee8565b610f6c89896123dc565b83606001516001600160a01b031684604001516001600160a01b031685600001516001600160a01b03167f54e9e24dab7ba662ede90396b0de464467c3d65f95485171a60381185219f10b87602001513387878a6040516108df959493929190614b50565b82610fdb81611863565b610feb838363ffffffff61188916565b60005b835181101561046d5782818151811061100357fe5b602002602001015160026000876001600160a01b03166001600160a01b03168152602001908152602001600020600086848151811061103e57fe5b60200260200101516001600160a01b03166001600160a01b031681526020019081526020016000206002018190555083818151811061107957fe5b60200260200101516001600160a01b0316856001600160a01b03167f494b5ab169c256bf87dcb623a3aad604068fa9981497dc90b28a32d1c8b402118584815181106110c157fe5b60200260200101516040516110d69190615298565b60405180910390a3600101610fee565b826110f081611863565b611100838363ffffffff61188916565b60005b835181101561046d5761113d8585838151811061111c57fe5b602002602001015185848151811061113057fe5b602002602001015161241e565b82818151811061114957fe5b602002602001015160036000876001600160a01b03166001600160a01b03168152602001908152602001600020600201600086848151811061118757fe5b60200260200101516001600160a01b03166001600160a01b0316815260200190815260200160002060006101000a81548160ff0219169083151502179055508381815181106111d257fe5b60200260200101516001600160a01b0316856001600160a01b03167f9c16a21ea9b0ddbc4da31a1ba6f5f7b7d3ed17c6d36eef4d1bab2c9a7f070cea85848151811061121a57fe5b602002602001015160405161122f9190614b22565b60405180910390a3600101611103565b803361124b82826125ce565b82611255816125f4565b6060846001600160a01b031663802758606040518163ffffffff1660e01b815260040160006040518083038186803b15801561129057600080fd5b505afa1580156112a4573d6000803e3d6000fd5b505050506040513d6000823e601f3d908101601f191682016040526112cc9190810190614373565b905060005b8151811015611377576112e261403a565b8282815181106112ee57fe5b60200260200101519050806060015160ff1660001461131f5760405162461bcd60e51b815260040161056190615005565b61132c81604001516126b5565b6001600160a01b0380891660008181526002602081815260408084208851871685528083528185209790975593835290815294519092168252919092528120600301556001016112d1565b506113f1856001600160a01b0316635230c3966040518163ffffffff1660e01b815260040160206040518083038186803b1580156113b457600080fd5b505afa1580156113c8573d6000803e3d6000fd5b505050506040513d601f19601f820116820180604052508101906113ec9190614963565b6126b5565b6001600160a01b03861660008181526004602081905260408083209490945583516307ff078f60e11b815293519293630ffe0f1e938183019392909182900301818387803b15801561144257600080fd5b505af1158015611456573d6000803e3d6000fd5b505050505050505050565b60608161146d816117f0565b6001600160a01b038316600090815260046020908152604091829020600201805483518184028101840190945280845290918301828280156114d857602002820191906000526020600020905b81546001600160a01b031681526001909101906020018083116114ba575b505050505091505b50919050565b6004602052600090815260409020805460019091015482565b6000808361150c816117f0565b60405163df5e9b2960e01b81526001600160a01b0386169063df5e9b29906115389087906004016149ea565b60206040518083038186803b15801561155057600080fd5b505afa158015611564573d6000803e3d6000fd5b505050506040513d601f19601f820116820180604052508101906115889190614473565b6115a45760405162461bcd60e51b8152600401610561906151cf565b6000856001600160a01b03166318160ddd6040518163ffffffff1660e01b815260040160206040518083038186803b1580156115df57600080fd5b505afa1580156115f3573d6000803e3d6000fd5b505050506040513d601f19601f820116820180604052508101906116179190614963565b90506116248686836126db565b9350935050509250929050565b60608161163d816117f0565b6001600160a01b038316600090815260036020908152604091829020600101805483518184028101840190945280845290918301828280156114d8576020028201919060005260206000209081546001600160a01b031681526001909101906020018083116114ba575050505050915050919050565b6000546001600160a01b031681565b806116cc81611a76565b6116d582612833565b80156117325750611706827f00000000000000000000000000000000000000000000000000000000000000006128e8565b611730837f00000000000000000000000000000000000000000000000000000000000000006122f0565b115b61174e5760405162461bcd60e51b815260040161056190614fce565b6001600160a01b0382166000908152600460205260409020600101546117ab906117869061177a612993565b9063ffffffff6123b716565b6001600160a01b0384166000908152600460205260409020549063ffffffff6129a016565b6001600160a01b038316600081815260046020526040808220849055517fe4c448aaaad94925b669914540bde1ea0123c0b2320e4cf6ea0ad7a1818a1c989190a35050565b6117f9816129be565b6118155760405162461bcd60e51b815260040161056190614c4d565b50565b6001600160a01b0382166000908152600360205260408120805460ff168061033e57506001600160a01b038316600090815260028201602052604090205460ff169150505b92915050565b61186d8133612ac2565b6117f05760405162461bcd60e51b815260040161056190615198565b80518251146118aa5760405162461bcd60e51b815260040161056190614bb0565b6118b382612b50565b5050565b6060808685146118d95760405162461bcd60e51b815260040161056190614bb0565b885183146118f95760405162461bcd60e51b81526004016105619061523d565b61193e8888808060200260200160405190810160405280939291908181526020018383602002808284376000920191909152508d9392505063ffffffff612b97169050565b91506119b686868080602002602001604051908101604052809392919081815260200183836020028082843760009201919091525050604080516020808a02828101820190935289825290935089925088918291850190849080828437600092019190915250929392505063ffffffff612c88169050565b90506119c182612d55565b156119de5760405162461bcd60e51b815260040161056190614f56565b97509795505050505050565b600080836001600160a01b031663a7bdad03846040518263ffffffff1660e01b8152600401611a1991906149ea565b60006040518083038186803b158015611a3157600080fd5b505afa158015611a45573d6000803e3d6000fd5b505050506040513d6000823e601f3d908101601f19168201604052611a6d91908101906142d8565b51119392505050565b611a808133611818565b6118155760405162461bcd60e51b815260040161056190614c95565b6001600160a01b03811660009081526003602052604090205460ff1615611815573332146118155760405162461bcd60e51b815260040161056190614c16565b7f00000000000000000000000000000000000000000000000000000000000000006001600160a01b0316816001600160a01b03161415611b2e5760405162461bcd60e51b815260040161056190614f1f565b611bc18160046000856001600160a01b03166001600160a01b03168152602001908152602001600020600201805480602002602001604051908101604052809291908181526020018280548015611bae57602002820191906000526020600020905b81546001600160a01b03168152600190910190602001808311611b90575b5050505050612e0490919063ffffffff16565b611bdd5760405162461bcd60e51b815260040161056190614e45565b611be561407e565b6001600160a01b038381166000908152600260208181526040808420948716845293815291839020835160c081018552815481526001808301548286015282840154828701526003830154606083015260048301805487519281161561010002600019011694909404601f8101869004860282018601909652858152909491936080860193919290830182828015611cbe5780601f10611c9357610100808354040283529160200191611cbe565b820191906000526020600020905b815481529060010190602001808311611ca157829003601f168201915b505050918352505060058201805460408051602060026001851615610100026000190190941693909304601f8101849004840282018401909252818152938201939291830182828015611d525780601f10611d2757610100808354040283529160200191611d52565b820191906000526020600020905b815481529060010190602001808311611d3557829003601f168201915b505050505081525050905042611d79826040015183606001516123b790919063ffffffff16565b1115611d975760405162461bcd60e51b815260040161056190614d71565b611db06001600160a01b0384168363ffffffff6119ea16565b15610d725760405162461bcd60e51b815260040161056190615005565b611dd5613f95565b611de184846001612e1a565b9050806080015115611e045760c081015160e08201526101008101829052611e2c565b610120810151611e1b90839063ffffffff61312416565b60e082015260c08101516101008201525b9392505050565b611ece816040015182602001516001600160a01b031663334fc2896040518163ffffffff1660e01b815260040160206040518083038186803b158015611e7857600080fd5b505afa158015611e8c573d6000803e3d6000fd5b505050506040513d601f19601f82011682018060405250810190611eb09190614265565b60e084015184516001600160a01b031692919063ffffffff61313a16565b600080606083602001516001600160a01b031663e869b69b85604001518660600151876000015188608001518960e001518a61010001518b61016001516040518863ffffffff1660e01b8152600401611f2d97969594939291906149fe565b60006040518083038186803b158015611f4557600080fd5b505afa158015611f59573d6000803e3d6000fd5b505050506040513d6000823e601f3d908101601f19168201604052611f819190810190614281565b86516040516347b7819960e11b815293965091945092506001600160a01b031690638f6f033290611fba90869086908690600401614a6e565b600060405180830381600087803b158015611fd457600080fd5b505af1158015611fe8573d6000803e3d6000fd5b505050506040513d6000823e601f3d908101601f1916820160405261046d919081019061448f565b6000806120ac83610140015184606001516001600160a01b03166370a0823186600001516040518263ffffffff1660e01b815260040161205091906149ea565b60206040518083038186803b15801561206857600080fd5b505afa15801561207c573d6000803e3d6000fd5b505050506040513d601f19601f820116820180604052508101906120a09190614963565b9063ffffffff61320916565b90506120b960008261324b565b91506114e083600001518460600151846132e0565b600080600061210485604001518660a0015187610120015188600001516001600160a01b0316613387909392919063ffffffff16565b50509050600061213b86606001518760a0015188610140015189600001516001600160a01b0316613387909392919063ffffffff16565b5050610120870151909150612156908363ffffffff61320916565b93506121708661014001518261320990919063ffffffff16565b95516001600160a01b0390811660009081526002602090815260408083209890931682529690965290942042600390910155509093915050565b6040516373b2e76b60e11b81526000906001600160a01b0383169063e765ced6906121d9908490600401615298565b60206040518083038186803b1580156121f157600080fd5b505afa158015612205573d6000803e3d6000fd5b505050506040513d601f19601f820116820180604052508101906122299190614265565b90505b919050565b6001600160a01b0381166000908152600460209081526040808320600201805482518185028101850190935280835260609383018282801561229c57602002820191906000526020600020905b81546001600160a01b0316815260019091019060200180831161227e575b50939450600093505050505b81518110156122e6576122ce848383815181106122c157fe5b6020026020010151613478565b156122de5760009250505061222c565b6001016122a8565b5060019392505050565b6000611e2c836001600160a01b03166366cb8d2f846040518263ffffffff1660e01b815260040161232191906149ea565b60206040518083038186803b1580156113b457600080fd5b612341613f95565b61234d84846000612e1a565b9050600080612381867f00000000000000000000000000000000000000000000000000000000000000008560a001516134d3565b93509350505061239a818361320990919063ffffffff16565b60e084015250506101008101919091526001608082015292915050565b600082820183811015611e2c5760405162461bcd60e51b815260040161056190614ccc565b60006123e883836122f0565b905060006123f684846128e8565b9050808211156124185760405162461bcd60e51b815260040161056190614bdf565b50505050565b8080156124b957506124b78260036000866001600160a01b03166001600160a01b03168152602001908152602001600020600101805480602002602001604051908101604052809291908181526020018280548015611bae576020028201919060005260206000209081546001600160a01b03168152600190910190602001808311611b90575050505050612e0490919063ffffffff16565b155b15612504576001600160a01b0383811660009081526003602090815260408220600190810180549182018155835291200180546001600160a01b031916918416919091179055610d72565b8015801561259e575061259e8260036000866001600160a01b03166001600160a01b03168152602001908152602001600020600101805480602002602001604051908101604052809291908181526020018280548015611bae576020028201919060005260206000209081546001600160a01b03168152600190910190602001808311611b90575050505050612e0490919063ffffffff16565b15610d72576001600160a01b0383166000908152600360205260409020610d72906001018363ffffffff61352a16565b6125d88282612ac2565b6118b35760405162461bcd60e51b815260040161056190615198565b600054604051631d3af8fb60e21b81526001600160a01b03909116906374ebe3ec906126249084906004016149ea565b60206040518083038186803b15801561263c57600080fd5b505afa158015612650573d6000803e3d6000fd5b505050506040513d601f19601f820116820180604052508101906126749190614473565b6126905760405162461bcd60e51b815260040161056190615155565b61269981613656565b6118155760405162461bcd60e51b815260040161056190614d03565b6000808212156126d75760405162461bcd60e51b815260040161056190614e7c565b5090565b6000805460405163792aa04f60e01b8152829182916001600160a01b039091169063792aa04f906127129030908590600401614a55565b60206040518083038186803b15801561272a57600080fd5b505afa15801561273e573d6000803e3d6000fd5b505050506040513d601f19601f820116820180604052508101906127629190614963565b6001600160a01b038088166000908152600260209081526040808320938a1683529290529081206001015491925080808061279e8b8b8b6134d3565b9350935093509350828414156127c65760405162461bcd60e51b8152600401610561906150aa565b8181109750876128105761280b6127fe6127e2886120a0612993565b6127f2848663ffffffff61320916565b9063ffffffff6129a016565b869063ffffffff61312416565b612823565b6128236127fe838363ffffffff61320916565b9650505050505050935093915050565b6001600160a01b0381166000908152600460209081526040808320600201805482518185028101850190935280835260609383018282801561289e57602002820191906000526020600020905b81546001600160a01b03168152600190910190602001808311612880575b50939450600093505050505b81518110156122e6576128d0848383815181106128c357fe5b6020026020010151613685565b156128e05760009250505061222c565b6001016128aa565b6000611e2c60046000856001600160a01b03166001600160a01b0316815260200190815260200160002060000154612987612955866001600160a01b0316635230c3966040518163ffffffff1660e01b815260040160206040518083038186803b1580156113b457600080fd5b6001600160a01b038088166000908152600260209081526040808320938a16835292905220549063ffffffff61371216565b9063ffffffff61374c16565b670de0b6b3a76400005b90565b6000611e2c8261298785670de0b6b3a764000063ffffffff61371216565b60008054604051631d3af8fb60e21b81526001600160a01b03909116906374ebe3ec906129ef9085906004016149ea565b60206040518083038186803b158015612a0757600080fd5b505afa158015612a1b573d6000803e3d6000fd5b505050506040513d601f19601f82011682018060405250810190612a3f9190614473565b801561222957506040516335fc6c9f60e21b81526001600160a01b0383169063d7f1b27c90612a729030906004016149ea565b60206040518083038186803b158015612a8a57600080fd5b505afa158015612a9e573d6000803e3d6000fd5b505050506040513d601f19601f820116820180604052508101906122299190614473565b6000816001600160a01b0316836001600160a01b031663481c6a756040518163ffffffff1660e01b815260040160206040518083038186803b158015612b0757600080fd5b505afa158015612b1b573d6000803e3d6000fd5b505050506040513d601f19601f82011682018060405250810190612b3f9190614265565b6001600160a01b0316149392505050565b6000815111612b715760405162461bcd60e51b8152600401610561906150d6565b612b7a81612d55565b156118155760405162461bcd60e51b815260040161056190614dd7565b8151815160609190828183016001600160401b0381118015612bb857600080fd5b50604051908082528060200260200182016040528015612be2578160200160208202803683370190505b50905060005b83811015612c3057868181518110612bfc57fe5b6020026020010151828281518110612c1057fe5b6001600160a01b0390921660209283029190910190910152600101612be8565b5060005b82811015612c7e57858181518110612c4857fe5b60200260200101518282860181518110612c5e57fe5b6001600160a01b0390921660209283029190910190910152600101612c34565b5095945050505050565b8151815160609190828183016001600160401b0381118015612ca957600080fd5b50604051908082528060200260200182016040528015612cd3578160200160208202803683370190505b50905060005b83811015612d1457868181518110612ced57fe5b6020026020010151828281518110612d0157fe5b6020908102919091010152600101612cd9565b5060005b82811015612c7e57858181518110612d2c57fe5b60200260200101518282860181518110612d4257fe5b6020908102919091010152600101612d18565b600080825111612d775760405162461bcd60e51b815260040161056190615274565b60005b6001835103811015612dfb576000838281518110612d9457fe5b6020026020010151905060008260010190505b8451811015612df157848181518110612dbc57fe5b60200260200101516001600160a01b0316826001600160a01b03161415612de9576001935050505061222c565b600101612da7565b5050600101612d7a565b50600092915050565b600080612e11848461378e565b95945050505050565b612e22613f95565b6001600160a01b038416808252604080516318160ddd60e01b815290516318160ddd91600480820192602092909190829003018186803b158015612e6557600080fd5b505afa158015612e79573d6000803e3d6000fd5b505050506040513d601f19601f82011682018060405250810190612e9d9190614963565b60a0820152612eac84846137f4565b6001600160a01b03908116602083810191909152858216600090815260028083526040808320948816835293835290839020600501805484516001821615610100026000190190911692909204601f810184900484028301840190945283825290929091830182828015612f615780601f10612f3657610100808354040283529160200191612f61565b820191906000526020600020905b815481529060010190602001808311612f4457829003601f168201915b50505050508161016001819052508115612f9157612f8484848360a001516126db565b60c0830152151560808201525b806080015115612fd7576001600160a01b0380841660408301527f000000000000000000000000000000000000000000000000000000000000000016606082015261300f565b6001600160a01b037f000000000000000000000000000000000000000000000000000000000000000081166040830152831660608201525b80604001516001600160a01b03166370a08231856040518263ffffffff1660e01b815260040161303f91906149ea565b60206040518083038186803b15801561305757600080fd5b505afa15801561306b573d6000803e3d6000fd5b505050506040513d601f19601f8201168201806040525081019061308f9190614963565b61012082015260608101516040516370a0823160e01b81526001600160a01b03909116906370a08231906130c79087906004016149ea565b60206040518083038186803b1580156130df57600080fd5b505afa1580156130f3573d6000803e3d6000fd5b505050506040513d601f19601f820116820180604052508101906131179190614963565b6101408201529392505050565b60008183106131335781611e2c565b5090919050565b6060828260405160240161314f929190614a55565b60408051601f198184030181529181526020820180516001600160e01b031663095ea7b360e01b179052516347b7819960e11b81529091506001600160a01b03861690638f6f0332906131ab9087906000908690600401614a6e565b600060405180830381600087803b1580156131c557600080fd5b505af11580156131d9573d6000803e3d6000fd5b505050506040513d6000823e601f3d908101601f19168201604052613201919081019061448f565b505050505050565b6000611e2c83836040518060400160405280601e81526020017f536166654d6174683a207375627472616374696f6e206f766572666c6f7700008152506138ab565b6000805460405163792aa04f60e01b815282916001600160a01b03169063792aa04f9061327e9030908890600401614a55565b60206040518083038186803b15801561329657600080fd5b505afa1580156132aa573d6000803e3d6000fd5b505050506040513d601f19601f820116820180604052508101906132ce9190614963565b905061033e838263ffffffff6138d716565b8015610d7257610d72826000809054906101000a90046001600160a01b03166001600160a01b031663469048406040518163ffffffff1660e01b815260040160206040518083038186803b15801561333757600080fd5b505afa15801561334b573d6000803e3d6000fd5b505050506040513d601f19601f8201168201806040525081019061336f9190614265565b6001600160a01b03861691908463ffffffff6138f516565b600080600080866001600160a01b03166370a08231896040518263ffffffff1660e01b81526004016133b991906149ea565b60206040518083038186803b1580156133d157600080fd5b505afa1580156133e5573d6000803e3d6000fd5b505050506040513d601f19601f820116820180604052508101906134099190614963565b9050600061343c896001600160a01b03166366cb8d2f8a6040518263ffffffff1660e01b815260040161232191906149ea565b9050600082156134595761345288888585613a37565b905061345d565b5060005b6134688a8a83613a7a565b9199909850909650945050505050565b60007f00000000000000000000000000000000000000000000000000000000000000006001600160a01b0316826001600160a01b031614158015611e2c57506134c183836122f0565b6134cb84846128e8565b109392505050565b60008060008060006134e588886122f0565b905060006134f389896128e8565b90508181613507898363ffffffff613bf816565b6135178a8563ffffffff613c0a16565b9550955095509550505093509350935093565b6000806135908480548060200260200160405190810160405280929190818152602001828054801561358557602002820191906000526020600020905b81546001600160a01b03168152600190910190602001808311613567575b50505050508461378e565b91509150806135b15760405162461bcd60e51b815260040161056190614b81565b835460001901828114613623578481815481106135ca57fe5b9060005260206000200160009054906101000a90046001600160a01b03168584815481106135f457fe5b9060005260206000200160006101000a8154816001600160a01b0302191690836001600160a01b031602179055505b8480548061362d57fe5b600082815260209020810160001990810180546001600160a01b03191690550190555050505050565b6040516353bae5f760e01b81526000906001600160a01b038316906353bae5f790612a729030906004016149ea565b60007f00000000000000000000000000000000000000000000000000000000000000006001600160a01b0316826001600160a01b031614156136c95750600061185d565b60006136d584846128e8565b905060006136e385856122f0565b9050600082116136f65780821415612e11565b6137088282600163ffffffff613c4916565b1595945050505050565b6000826137215750600061185d565b8282028284828161372e57fe5b0414611e2c5760405162461bcd60e51b815260040161056190614f8d565b6000611e2c83836040518060400160405280601a81526020017f536166654d6174683a206469766973696f6e206279207a65726f000000000000815250613c81565b81516000908190815b818110156137e157846001600160a01b03168682815181106137b557fe5b60200260200101516001600160a01b031614156137d9579250600191506137ed9050565b600101613797565b50600019600092509250505b9250929050565b6001600160a01b0382811660009081526002602081815260408084209486168452938152838320600401805485516001821615610100026000190190911693909304601f81018390048302840183019095528483529293611e2c93918301828280156138a15780601f10613876576101008083540402835291602001916138a1565b820191906000526020600020905b81548152906001019060200180831161388457829003601f168201915b5050505050613cb8565b600081848411156138cf5760405162461bcd60e51b81526004016105619190614b3d565b505050900390565b6000611e2c670de0b6b3a7640000612987858563ffffffff61371216565b8015612418576040516370a0823160e01b81526000906001600160a01b038516906370a082319061392a9088906004016149ea565b60206040518083038186803b15801561394257600080fd5b505afa158015613956573d6000803e3d6000fd5b505050506040513d601f19601f8201168201806040525081019061397a9190614963565b905061398885858585613ccf565b6040516370a0823160e01b81526000906001600160a01b038616906370a08231906139b79089906004016149ea565b60206040518083038186803b1580156139cf57600080fd5b505afa1580156139e3573d6000803e3d6000fd5b505050506040513d601f19601f82011682018060405250810190613a079190614963565b9050613a19828463ffffffff61320916565b81146132015760405162461bcd60e51b81526004016105619061503c565b600080613a5a613a4d848863ffffffff6138d716565b869063ffffffff61320916565b9050613a70866127f2868463ffffffff61320916565b9695505050505050565b6000613a868484613d46565b905080158015613a965750600082115b15613b0d57613aa584846119ea565b613b08576040516304e3532760e41b81526001600160a01b03851690634e35327090613ad59086906004016149ea565b600060405180830381600087803b158015613aef57600080fd5b505af1158015613b03573d6000803e3d6000fd5b505050505b613b8a565b808015613b18575081155b15613b8a57613b2784846119ea565b613b8a57604051636f86c89760e01b81526001600160a01b03851690636f86c89790613b579086906004016149ea565b600060405180830381600087803b158015613b7157600080fd5b505af1158015613b85573d6000803e3d6000fd5b505050505b836001600160a01b0316632ba57d1784613ba385613dcd565b6040518363ffffffff1660e01b8152600401613bc0929190614a55565b600060405180830381600087803b158015613bda57600080fd5b505af1158015613bee573d6000803e3d6000fd5b5050505050505050565b6000611e2c838363ffffffff6138d716565b6000821580613c17575081155b15613c245750600061185d565b611e2c600161177a670de0b6b3a7640000612987836120a0898963ffffffff61371216565b6000613c5b838363ffffffff6123b716565b8411158015613c795750613c75838363ffffffff61320916565b8410155b949350505050565b60008183613ca25760405162461bcd60e51b81526004016105619190614b3d565b506000838581613cae57fe5b0495945050505050565b600080613cc483613df2565b9050611e2c81613dfd565b80156124185760608282604051602401613cea929190614a55565b60408051601f198184030181529181526020820180516001600160e01b031663a9059cbb60e01b179052516347b7819960e11b81529091506001600160a01b03861690638f6f0332906131ab9087906000908690600401614a6e565b600080836001600160a01b03166366cb8d2f846040518263ffffffff1660e01b8152600401613d7591906149ea565b60206040518083038186803b158015613d8d57600080fd5b505afa158015613da1573d6000803e3d6000fd5b505050506040513d601f19601f82011682018060405250810190613dc59190614963565b139392505050565b6000600160ff1b82106126d75760405162461bcd60e51b81526004016105619061510d565b805160209091012090565b600080548190613e15906001600160a01b03166121aa565b6001600160a01b031663e6d642c530856040518363ffffffff1660e01b8152600401613e42929190614a55565b60206040518083038186803b158015613e5a57600080fd5b505afa158015613e6e573d6000803e3d6000fd5b505050506040513d601f19601f82011682018060405250810190613e929190614265565b90506001600160a01b0381166122295760405162461bcd60e51b815260040161056190614da8565b828054600181600116156101000203166002900490600052602060002090601f016020900481019282601f10613efb57805160ff1916838001178555613f28565b82800160010185558215613f28579182015b82811115613f28578251825591602001919060010190613f0d565b506126d79291506140b4565b828054828255906000526020600020908101928215613f89579160200282015b82811115613f8957825182546001600160a01b0319166001600160a01b03909116178255602090920191600190910190613f54565b506126d79291506140ce565b60405180610180016040528060006001600160a01b0316815260200160006001600160a01b0316815260200160006001600160a01b0316815260200160006001600160a01b03168152602001600015158152602001600081526020016000815260200160008152602001600081526020016000815260200160008152602001606081525090565b508054600082559060005260206000209081019061181591906140b4565b6040518060a0016040528060006001600160a01b0316815260200160006001600160a01b0316815260200160008152602001600060ff168152602001606081525090565b6040518060c001604052806000815260200160008152602001600081526020016000815260200160608152602001606081525090565b61299d91905b808211156126d757600081556001016140ba565b61299d91905b808211156126d75780546001600160a01b03191681556001016140d4565b805161185d81615380565b60008083601f84011261410e578182fd5b5081356001600160401b03811115614124578182fd5b60208301915083602080830285010111156137ed57600080fd5b600082601f83011261414e578081fd5b813561416161415c82615312565b6152ec565b81815291506020808301908481018184028601820187101561418257600080fd5b60005b848110156141aa57813561419881615380565b84529282019290820190600101614185565b505050505092915050565b803561185d81615395565b600082601f8301126141d0578081fd5b81356141de61415c82615331565b91508082528360208285010111156141f557600080fd5b8060208401602084013760009082016020015292915050565b600082601f83011261421e578081fd5b815161422c61415c82615331565b915080825283602082850101111561424357600080fd5b610341816020840160208601615354565b805160ff8116811461185d57600080fd5b600060208284031215614276578081fd5b8151611e2c81615380565b600080600060608486031215614295578182fd5b83516142a081615380565b6020850151604086015191945092506001600160401b038111156142c2578182fd5b6142ce8682870161420e565b9150509250925092565b600060208083850312156142ea578182fd5b82516001600160401b038111156142ff578283fd5b80840185601f820112614310578384fd5b8051915061432061415c83615312565b828152838101908285018585028401860189101561433c578687fd5b8693505b8484101561436757805161435381615380565b835260019390930192918501918501614340565b50979650505050505050565b60006020808385031215614385578182fd5b82516001600160401b038082111561439b578384fd5b81850186601f8201126143ac578485fd5b805192506143bc61415c84615312565b83815284810190828601875b86811015614464578151850160a080601f19838f030112156143e8578a8bfd5b6143f1816152ec565b6143fd8e8c85016140f2565b815261440c8e604085016140f2565b8b82015260608084015160408301526144288f60808601614254565b90820152828201518981111561443c578c8dfd5b61444a8f8d8387010161420e565b6080830152508652505092870192908701906001016143c8565b50909998505050505050505050565b600060208284031215614484578081fd5b8151611e2c81615395565b6000602082840312156144a0578081fd5b81516001600160401b038111156144b5578182fd5b61033e8482850161420e565b6000602082840312156144d2578081fd5b8135611e2c81615380565b600080604083850312156144ef578182fd5b82356144fa81615380565b9150602083013561450a81615380565b809150509250929050565b60008060008060008060008060a0898b031215614530578586fd5b883561453b81615380565b975060208901356001600160401b0380821115614556578788fd5b6145628c838d016140fd565b909950975060408b013591508082111561457a578586fd5b6145868c838d016140fd565b909750955060608b013591508082111561459e578485fd5b506145ab8b828c016140fd565b999c989b50969995989497949560800135949350505050565b6000806000606084860312156145d8578081fd5b83356145e381615380565b92506020848101356001600160401b03808211156145ff578384fd5b61460b8883890161413e565b94506040870135915080821115614620578384fd5b5080860187601f820112614632578384fd5b8035915061464261415c83615312565b82815283810190828501858502840186018b101561465e578687fd5b8693505b84841015614688576146748b826141b5565b835260019390930192918501918501614662565b5080955050505050509250925092565b6000806000606084860312156146ac578081fd5b83356146b781615380565b92506020848101356001600160401b03808211156146d3578384fd5b6146df8883890161413e565b945060408701359150808211156146f4578384fd5b5080860187601f820112614706578384fd5b8035915061471661415c83615312565b82815283810190828501865b8581101561474b576147398c8884358801016141c0565b84529286019290860190600101614722565b505080955050505050509250925092565b600080600060608486031215614770578081fd5b833561477b81615380565b92506020848101356001600160401b0380821115614797578384fd5b6147a38883890161413e565b945060408701359150808211156147b8578384fd5b5080860187601f8201126147ca578384fd5b803591506147da61415c83615312565b82815283810190828501865b8581101561474b576147fd8c8884358801016141c0565b845292860192908601906001016147e6565b600080600060608486031215614823578081fd5b833561482e81615380565b92506020848101356001600160401b038082111561484a578384fd5b6148568883890161413e565b9450604087013591508082111561486b578384fd5b5080860187601f82011261487d578384fd5b8035915061488d61415c83615312565b82815283810190828501858502840186018b10156148a9578687fd5b8693505b848410156146885780358352600193909301929185019185016148ad565b600080604083850312156148dd578182fd5b82356148e881615380565b9150602083013561450a81615395565b60008060006060848603121561490c578081fd5b833561491781615380565b9250602084013561492781615380565b929592945050506040919091013590565b6000806040838503121561494a578182fd5b823561495581615380565b946020939093013593505050565b600060208284031215614974578081fd5b5051919050565b6000815180845260208085019450808401835b838110156149b35781516001600160a01b03168752958201959082019060010161498e565b509495945050505050565b600081518084526149d6816020860160208601615354565b601f01601f19169290920160200192915050565b6001600160a01b0391909116815260200190565b6001600160a01b03888116825287811660208301528616604082015284151560608201526080810184905260a0810183905260e060c08201819052600090614a48908301846149be565b9998505050505050505050565b6001600160a01b03929092168252602082015260400190565b600060018060a01b038516825283602083015260606040830152612e1160608301846149be565b6001600160a01b0383168152604060208201819052600090613c79908301846149be565b600060208252611e2c602083018461497b565b600060408252614adf604083018561497b565b828103602084810191909152845180835285820192820190845b81811015614b1557845183529383019391830191600101614af9565b5090979650505050505050565b901515815260200190565b9115158252602082015260400190565b600060208252611e2c60208301846149be565b6001600160a01b03958616815293909416602084015260408301919091526060820152608081019190915260a00190565b60208082526015908201527420b2323932b9b9903737ba1034b71030b93930bc9760591b604082015260600190565b602080825260159082015274082e4e4c2f240d8cadccee8d040dad2e6dac2e8c6d605b1b604082015260600190565b6020808252601a908201527f43616e206e6f74206578636565642074617267657420756e6974000000000000604082015260600190565b6020808252601a908201527f43616c6c6572206d75737420626520454f412041646472657373000000000000604082015260600190565b60208082526028908201527f4d75737420626520612076616c696420616e6420696e697469616c697a65642060408201526729b2ba2a37b5b2b760c11b606082015260800190565b6020808252601e908201527f41646472657373206e6f74207065726d697474656420746f2074726164650000604082015260600190565b6020808252601b908201527f536166654d6174683a206164646974696f6e206f766572666c6f770000000000604082015260600190565b6020808252601e908201527f4d7573742062652070656e64696e6720696e697469616c697a6174696f6e0000604082015260600190565b6020808252601f908201527f53656c6c206f746865722073657420636f6d706f6e656e747320666972737400604082015260600190565b6020808252601e908201527f436f6d706f6e656e7420636f6f6c206f666620696e2070726f67726573730000604082015260600190565b60208082526015908201527426bab9ba103132903b30b634b21030b230b83a32b960591b604082015260600190565b6020808252601a908201527f43616e6e6f74206475706c696361746520616464726573736573000000000000604082015260600190565b60208082526019908201527f574554482069732062656c6f772074617267657420756e697400000000000000604082015260600190565b6020808252601f908201527f436f6d706f6e656e74206e6f742070617274206f6620726562616c616e636500604082015260600190565b6020808252818101527f53616665436173743a2076616c7565206d75737420626520706f736974697665604082015260600190565b6020808252601a908201527f556e7265636f676e697a65642065786368616e6765206e616d65000000000000604082015260600190565b6020808252601d908201527f547261646520616d6f756e74203e206d61782074726164652073697a65000000604082015260600190565b6020808252601d908201527f43616e206e6f74206578706c696369746c792074726164652057455448000000604082015260600190565b6020808252601b908201527f43616e6e6f74206475706c696361746520636f6d706f6e656e74730000000000604082015260600190565b60208082526021908201527f536166654d6174683a206d756c7469706c69636174696f6e206f766572666c6f6040820152607760f81b606082015260800190565b6020808252601b908201527f54617267657473206e6f74206d6574206f7220455448203d7e20300000000000604082015260600190565b6020808252601e908201527f45787465726e616c20706f736974696f6e73206e6f7420616c6c6f7765640000604082015260600190565b6020808252601d908201527f496e76616c696420706f7374207472616e736665722062616c616e6365000000604082015260600190565b6020808252601d908201527f5461726765742070657263656e74616765206d757374206265203e2030000000604082015260600190565b60208082526012908201527115185c99d95d08185b1c9958591e481b595d60721b604082015260600190565b60208082526018908201527f4172726179206c656e677468206d757374206265203e20300000000000000000604082015260600190565b60208082526028908201527f53616665436173743a2076616c756520646f65736e27742066697420696e2061604082015267371034b73a191a9b60c11b606082015260800190565b60208082526023908201527f4d75737420626520636f6e74726f6c6c65722d656e61626c656420536574546f60408201526235b2b760e91b606082015260800190565b6020808252601c908201527f4d7573742062652074686520536574546f6b656e206d616e6167657200000000604082015260600190565b60208082526018908201527f436f6d706f6e656e74206e6f74207265636f676e697a65640000000000000000604082015260600190565b6020808252601f908201527f5265656e7472616e637947756172643a207265656e7472616e742063616c6c00604082015260600190565b6020808252601e908201527f4f6c6420436f6d706f6e656e74732074617267657473206d697373696e670000604082015260600190565b6020808252600a90820152694120697320656d70747960b01b604082015260600190565b90815260200190565b918252602082015260400190565b600087825286602083015285604083015284606083015260c060808301526152da60c08301856149be565b82810360a0840152614a4881856149be565b6040518181016001600160401b038111828210171561530a57600080fd5b604052919050565b60006001600160401b03821115615327578081fd5b5060209081020190565b60006001600160401b03821115615346578081fd5b50601f01601f191660200190565b60005b8381101561536f578181015183820152602001615357565b838111156124185750506000910152565b6001600160a01b038116811461181557600080fd5b801515811461181557600080fdfea2646970667358221220f33fbeb476a1b1fa308b456ced659091b784b16629aadee9c15ed71ed74d83b964736f6c634300060a0033",
    "linkReferences": {},
    "deployedLinkReferences": {}
}