{
  "_format": "hh-sol-artifact-1",
  "contractName": "IssuanceModule",
  "sourceName": "contracts/protocol/modules/IssuanceModule.sol",
  "abi": [
    {
      "inputs": [
        {
          "internalType": "contract IController",
          "name": "_controller",
          "type": "address"
        }
      ],
      "stateMutability": "nonpayable",
      "type": "constructor"
    },
    {
      "anonymous": false,
      "inputs": [
        {
          "indexed": true,
          "internalType": "contract ISetToken",
          "name": "_setToken",
          "type": "address"
        },
        {
          "indexed": false,
          "internalType": "address",
          "name": "_newFeeRecipient",
          "type": "address"
        }
      ],
      "name": "FeeRecipientUpdated",
      "type": "event"
    },
    {
      "anonymous": false,
      "inputs": [
        {
          "indexed": true,
          "internalType": "contract ISetToken",
          "name": "_setToken",
          "type": "address"
        },
        {
          "indexed": false,
          "internalType": "uint256",
          "name": "_newIssueFee",
          "type": "uint256"
        }
      ],
      "name": "IssueFeeUpdated",
      "type": "event"
    },
    {
      "anonymous": false,
      "inputs": [
        {
          "indexed": true,
          "internalType": "contract ISetToken",
          "name": "_setToken",
          "type": "address"
        },
        {
          "indexed": false,
          "internalType": "uint256",
          "name": "_newRedeemFee",
          "type": "uint256"
        }
      ],
      "name": "RedeemFeeUpdated",
      "type": "event"
    },
    {
      "anonymous": false,
      "inputs": [
        {
          "indexed": true,
          "internalType": "contract ISetToken",
          "name": "_setToken",
          "type": "address"
        },
        {
          "indexed": true,
          "internalType": "address",
          "name": "_issuer",
          "type": "address"
        },
        {
          "indexed": true,
          "internalType": "address",
          "name": "_to",
          "type": "address"
        },
        {
          "indexed": false,
          "internalType": "address",
          "name": "_hookContract",
          "type": "address"
        },
        {
          "indexed": false,
          "internalType": "uint256",
          "name": "_quantity",
          "type": "uint256"
        },
        {
          "indexed": false,
          "internalType": "uint256",
          "name": "_managerFee",
          "type": "uint256"
        },
        {
          "indexed": false,
          "internalType": "uint256",
          "name": "_protocolFee",
          "type": "uint256"
        }
      ],
      "name": "SetTokenIssued",
      "type": "event"
    },
    {
      "anonymous": false,
      "inputs": [
        {
          "indexed": true,
          "internalType": "contract ISetToken",
          "name": "_setToken",
          "type": "address"
        },
        {
          "indexed": true,
          "internalType": "address",
          "name": "_redeemer",
          "type": "address"
        },
        {
          "indexed": true,
          "internalType": "address",
          "name": "_to",
          "type": "address"
        },
        {
          "indexed": false,
          "internalType": "uint256",
          "name": "_quantity",
          "type": "uint256"
        },
        {
          "indexed": false,
          "internalType": "uint256",
          "name": "_managerFee",
          "type": "uint256"
        },
        {
          "indexed": false,
          "internalType": "uint256",
          "name": "_protocolFee",
          "type": "uint256"
        }
      ],
      "name": "SetTokenRedeemed",
      "type": "event"
    },
    {
      "inputs": [
        {
          "internalType": "contract ISetToken",
          "name": "_setToken",
          "type": "address"
        },
        {
          "internalType": "uint256",
          "name": "_quantity",
          "type": "uint256"
        },
        {
          "internalType": "bool",
          "name": "_isIssue",
          "type": "bool"
        }
      ],
      "name": "calculateTotalFees",
      "outputs": [
        {
          "internalType": "uint256",
          "name": "totalQuantity",
          "type": "uint256"
        },
        {
          "internalType": "uint256",
          "name": "managerFee",
          "type": "uint256"
        },
        {
          "internalType": "uint256",
          "name": "protocolFee",
          "type": "uint256"
        }
      ],
      "stateMutability": "view",
      "type": "function",
      "gas": "0x01ba8140"
    },
    {
      "inputs": [],
      "name": "controller",
      "outputs": [
        {
          "internalType": "contract IController",
          "name": "",
          "type": "address"
        }
      ],
      "stateMutability": "view",
      "type": "function",
      "gas": "0x01ba8140"
    },
    {
      "inputs": [
        {
          "internalType": "contract ISetToken",
          "name": "_setToken",
          "type": "address"
        }
      ],
      "name": "getModuleIssuanceHooks",
      "outputs": [
        {
          "internalType": "address[]",
          "name": "",
          "type": "address[]"
        }
      ],
      "stateMutability": "view",
      "type": "function",
      "gas": "0x01ba8140"
    },
    {
      "inputs": [
        {
          "internalType": "contract ISetToken",
          "name": "_setToken",
          "type": "address"
        },
        {
          "internalType": "uint256",
          "name": "_quantity",
          "type": "uint256"
        }
      ],
      "name": "getRequiredComponentIssuanceUnits",
      "outputs": [
        {
          "internalType": "address[]",
          "name": "",
          "type": "address[]"
        },
        {
          "internalType": "uint256[]",
          "name": "",
          "type": "uint256[]"
        },
        {
          "internalType": "uint256[]",
          "name": "",
          "type": "uint256[]"
        }
      ],
      "stateMutability": "view",
      "type": "function",
      "gas": "0x01ba8140"
    },
    {
      "inputs": [
        {
          "internalType": "contract ISetToken",
          "name": "_setToken",
          "type": "address"
        },
        {
          "internalType": "uint256",
          "name": "_quantity",
          "type": "uint256"
        }
      ],
      "name": "getRequiredComponentRedemptionUnits",
      "outputs": [
        {
          "internalType": "address[]",
          "name": "",
          "type": "address[]"
        },
        {
          "internalType": "uint256[]",
          "name": "",
          "type": "uint256[]"
        },
        {
          "internalType": "uint256[]",
          "name": "",
          "type": "uint256[]"
        }
      ],
      "stateMutability": "view",
      "type": "function",
      "gas": "0x01ba8140"
    },
    {
      "inputs": [
        {
          "internalType": "contract ISetToken",
          "name": "_setToken",
          "type": "address"
        },
        {
          "internalType": "uint256",
          "name": "_maxManagerFee",
          "type": "uint256"
        },
        {
          "internalType": "uint256",
          "name": "_managerIssueFee",
          "type": "uint256"
        },
        {
          "internalType": "uint256",
          "name": "_managerRedeemFee",
          "type": "uint256"
        },
        {
          "internalType": "address",
          "name": "_feeRecipient",
          "type": "address"
        },
        {
          "internalType": "contract IManagerIssuanceHook",
          "name": "_managerIssuanceHook",
          "type": "address"
        }
      ],
      "name": "initialize",
      "outputs": [],
      "stateMutability": "nonpayable",
      "type": "function",
      "gas": "0x01ba8140"
    },
    {
      "inputs": [
        {
          "internalType": "contract ISetToken",
          "name": "_setToken",
          "type": "address"
        },
        {
          "internalType": "address",
          "name": "_hook",
          "type": "address"
        }
      ],
      "name": "isModuleIssuanceHook",
      "outputs": [
        {
          "internalType": "bool",
          "name": "",
          "type": "bool"
        }
      ],
      "stateMutability": "view",
      "type": "function",
      "gas": "0x01ba8140"
    },
    {
      "inputs": [
        {
          "internalType": "contract ISetToken",
          "name": "",
          "type": "address"
        }
      ],
      "name": "issuanceSettings",
      "outputs": [
        {
          "internalType": "uint256",
          "name": "maxManagerFee",
          "type": "uint256"
        },
        {
          "internalType": "uint256",
          "name": "managerIssueFee",
          "type": "uint256"
        },
        {
          "internalType": "uint256",
          "name": "managerRedeemFee",
          "type": "uint256"
        },
        {
          "internalType": "address",
          "name": "feeRecipient",
          "type": "address"
        },
        {
          "internalType": "contract IManagerIssuanceHook",
          "name": "managerIssuanceHook",
          "type": "address"
        }
      ],
      "stateMutability": "view",
      "type": "function",
      "gas": "0x01ba8140"
    },
    {
      "inputs": [
        {
          "internalType": "contract ISetToken",
          "name": "_setToken",
          "type": "address"
        },
        {
          "internalType": "uint256",
          "name": "_quantity",
          "type": "uint256"
        },
        {
          "internalType": "address",
          "name": "_to",
          "type": "address"
        }
      ],
      "name": "issue",
      "outputs": [],
      "stateMutability": "nonpayable",
      "type": "function",
      "gas": "0x01ba8140"
    },
    {
      "inputs": [
        {
          "internalType": "contract ISetToken",
          "name": "_setToken",
          "type": "address"
        },
        {
          "internalType": "uint256",
          "name": "_quantity",
          "type": "uint256"
        },
        {
          "internalType": "address",
          "name": "_to",
          "type": "address"
        }
      ],
      "name": "redeem",
      "outputs": [],
      "stateMutability": "nonpayable",
      "type": "function",
      "gas": "0x01ba8140"
    },
    {
      "inputs": [
        {
          "internalType": "contract ISetToken",
          "name": "_setToken",
          "type": "address"
        }
      ],
      "name": "registerToIssuanceModule",
      "outputs": [],
      "stateMutability": "nonpayable",
      "type": "function",
      "gas": "0x01ba8140"
    },
    {
      "inputs": [],
      "name": "removeModule",
      "outputs": [],
      "stateMutability": "nonpayable",
      "type": "function",
      "gas": "0x01ba8140"
    },
    {
      "inputs": [
        {
          "internalType": "contract ISetToken",
          "name": "_setToken",
          "type": "address"
        }
      ],
      "name": "unregisterFromIssuanceModule",
      "outputs": [],
      "stateMutability": "nonpayable",
      "type": "function",
      "gas": "0x01ba8140"
    },
    {
      "inputs": [
        {
          "internalType": "contract ISetToken",
          "name": "_setToken",
          "type": "address"
        },
        {
          "internalType": "address",
          "name": "_newFeeRecipient",
          "type": "address"
        }
      ],
      "name": "updateFeeRecipient",
      "outputs": [],
      "stateMutability": "nonpayable",
      "type": "function",
      "gas": "0x01ba8140"
    },
    {
      "inputs": [
        {
          "internalType": "contract ISetToken",
          "name": "_setToken",
          "type": "address"
        },
        {
          "internalType": "uint256",
          "name": "_newIssueFee",
          "type": "uint256"
        }
      ],
      "name": "updateIssueFee",
      "outputs": [],
      "stateMutability": "nonpayable",
      "type": "function",
      "gas": "0x01ba8140"
    },
    {
      "inputs": [
        {
          "internalType": "contract ISetToken",
          "name": "_setToken",
          "type": "address"
        },
        {
          "internalType": "uint256",
          "name": "_newRedeemFee",
          "type": "uint256"
        }
      ],
      "name": "updateRedeemFee",
      "outputs": [],
      "stateMutability": "nonpayable",
      "type": "function",
      "gas": "0x01ba8140"
    }
  ],
  "bytecode": "0x60806040523480156200001157600080fd5b5060405162003eb438038062003eb483398101604081905262000034916200005e565b600080546001600160a01b0319166001600160a01b0392909216919091179055600180556200008e565b60006020828403121562000070578081fd5b81516001600160a01b038116811462000087578182fd5b9392505050565b613e16806200009e6000396000f3fe608060405234801561001057600080fd5b50600436106101005760003560e01c8063847ef08d11610097578063cd3c753911610066578063cd3c753914610221578063d9b1b6e014610245578063e079962014610258578063f77c47911461026b57610100565b8063847ef08d146101d15780638dda4037146101d9578063bf9fe138146101fb578063cb38b2231461020e57610100565b806363082446116100d357806363082446146101785780636b8e53b6146101985780636d78f47a146101ab5780636dd86aa9146101be57610100565b806308bc0e1114610105578063131e26b91461012e5780635c833bfd146101505780635d98c37314610165575b600080fd5b6101186101133660046131de565b610280565b60405161012591906134ec565b60405180910390f35b61014161013c366004613232565b6102f9565b604051610125939291906134ff565b61016361015e36600461325d565b6104ea565b005b6101636101733660046131fa565b6106ff565b61018b6101863660046131fa565b6107df565b6040516101259190613536565b6101416101a6366004613232565b610813565b6101636101b936600461325d565b610844565b6101636101cc366004613232565b610a62565b610163610b2e565b6101ec6101e736600461329e565b610bb1565b60405161012593929190613d25565b6101636102093660046132d4565b610d87565b61016361021c366004613232565b610f0a565b61023461022f3660046131de565b610fd5565b604051610125959493929190613d3b565b6101636102533660046131de565b611011565b6101636102663660046131de565b6110c9565b61027361117f565b604051610125919061342b565b6001600160a01b0381166000908152600260209081526040918290206005018054835181840281018401909452808452606093928301828280156102ed57602002820191906000526020600020905b81546001600160a01b031681526001909101906020018083116102cf575b50505050509050919050565b6060806060600061030c86866001610bb1565b50509050856001600160a01b03166318160ddd6040518163ffffffff1660e01b815260040160206040518083038186803b15801561034957600080fd5b505afa15801561035d573d6000803e3d6000fd5b505050506040513d601f19601f820116820180604052508101906103819190613359565b61039d576103918682600161118e565b935093509350506104e3565b60608060606103ab896112e1565b8251929550909350915060608167ffffffffffffffff811180156103ce57600080fd5b506040519080825280602002602001820160405280156103f8578160200160208202803683370190505b50905060608267ffffffffffffffff8111801561041457600080fd5b5060405190808252806020026020018201604052801561043e578160200160208202803683370190505b50905060005b86518110156104d0576104738887838151811061045d57fe5b60200260200101516116fe90919063ffffffff16565b83828151811061047f57fe5b6020026020010181815250506104b18886838151811061049b57fe5b602002602001015161176890919063ffffffff16565b8282815181106104bd57fe5b6020908102919091010152600101610444565b5094985096509294506104e39350505050565b9250925092565b600260015414156105165760405162461bcd60e51b815260040161050d90613ca2565b60405180910390fd5b60026001558261052581611786565b600083116105455760405162461bcd60e51b815260040161050d906136b7565b61054f84846117ae565b6000846001600160a01b03166318160ddd6040518163ffffffff1660e01b815260040160206040518083038186803b15801561058a57600080fd5b505afa15801561059e573d6000803e3d6000fd5b505050506040513d601f19601f820116820180604052508101906105c29190613359565b604051632770a7eb60e21b81529091506001600160a01b03861690639dc29fac906105f3903390889060040161343f565b600060405180830381600087803b15801561060d57600080fd5b505af1158015610621573d6000803e3d6000fd5b50505050600080600061063688886000610bb1565b925092509250606080606061064d8b87600061118e565b919450925090506000610666888863ffffffff6118b516565b90506106788c88600087868d876118f7565b6106898c888c600088888e886119b6565b6106948c8787611a76565b50505050856001600160a01b0316336001600160a01b0316896001600160a01b03167f54f4ed50e49638053e1655b45ee7ece434edd150e6771ac0aaedb8355be13a338a86866040516106e993929190613d25565b60405180910390a4505060018055505050505050565b8161070981611be6565b6001600160a01b03821661072f5760405162461bcd60e51b815260040161050d906139fd565b6001600160a01b038084166000908152600260205260409020600301548382169116141561076f5760405162461bcd60e51b815260040161050d906139c6565b6001600160a01b038381166000818152600260205260409081902060030180546001600160a01b0319169386169390931790925590517faaebcf1bfa00580e41d966056b48521fa9f202645c86d4ddf28113e617c1b1d3906107d290859061342b565b60405180910390a2505050565b6001600160a01b038083166000908152600260209081526040808320938516835260069093019052205460ff165b92915050565b6060806060600061082686866000610bb1565b505090506108368682600061118e565b935093509350509250925092565b600260015414156108675760405162461bcd60e51b815260040161050d90613ca2565b60026001558261087681611786565b600083116108965760405162461bcd60e51b815260040161050d90613793565b60006108a485853386611c0c565b90506108b08585611cad565b6000856001600160a01b03166318160ddd6040518163ffffffff1660e01b815260040160206040518083038186803b1580156108eb57600080fd5b505afa1580156108ff573d6000803e3d6000fd5b505050506040513d601f19601f820116820180604052508101906109239190613359565b9050600080600061093689896001610bb1565b925092509250606080606061094d8c87600161118e565b919450925090506000610966888863ffffffff611dae16565b90506109798d888d600188888e886119b6565b6109898d88600187868d876118f7565b6109948d8787611a76565b50506040516340c10f1960e01b81526001600160a01b038c1692506340c10f1991506109c6908a908c9060040161343f565b600060405180830381600087803b1580156109e057600080fd5b505af11580156109f4573d6000803e3d6000fd5b50505050866001600160a01b0316336001600160a01b03168a6001600160a01b03167f1abc43bc3dd8b6c8bb9bcf1a14a84f83981bf5335700ef07758efefcb03a8c75888c8787604051610a4b94939291906134c6565b60405180910390a450506001805550505050505050565b81610a6c81611be6565b6001600160a01b038316600090815260026020526040902054821115610aa45760405162461bcd60e51b815260040161050d906135d8565b6001600160a01b03831660009081526002602081905260409091200154821415610ae05760405162461bcd60e51b815260040161050d9061360f565b6001600160a01b03831660008181526002602081905260409182902001849055517f676eda176d6aa20e9aa09b9ee131487c90646cd2b951176f75bd6fccdc026177906107d2908590613d1c565b3360009081526002602052604090206005015415610b5e5760405162461bcd60e51b815260040161050d90613c5f565b3360009081526002602081905260408220828155600181018390559081018290556003810180546001600160a01b0319908116909155600482018054909116905590610bad6005830182612f5c565b5050565b6000806000610bbe612f7a565b6001600160a01b03808816600090815260026020818152604092839020835160c0810185528154815260018201548184015292810154838501526003810154851660608401526004810154909416608083015260058401805484518184028101840190955280855292949360a08601939092830182828015610c6957602002820191906000526020600020905b81546001600160a01b03168152600190910190602001808311610c4b575b5050509190925250506000805460405163792aa04f60e01b815293945090926001600160a01b03909116915063792aa04f90610cab903090859060040161343f565b60206040518083038186803b158015610cc357600080fd5b505afa158015610cd7573d6000803e3d6000fd5b505050506040513d601f19601f82011682018060405250810190610cfb9190613359565b9050600086610d0e578260400151610d14565b82602001515b90506000610d28828a63ffffffff61176816565b9050610d3a818463ffffffff61176816565b9450610d4c818663ffffffff6118b516565b955087610d6857610d63898263ffffffff6118b516565b610d78565b610d78898263ffffffff611dae16565b96505050505093509350939050565b8533610d938282611dd3565b87610d9d81611df9565b87871115610dbd5760405162461bcd60e51b815260040161050d90613984565b87861115610ddd5760405162461bcd60e51b815260040161050d90613cd9565b6040805160c08101825289815260208082018a90528183018990526001600160a01b0388811660608401528716608083015282516000808252918101909352909160a08301915090526001600160a01b03808b1660009081526002602081815260409283902085518155858201516001820155928501519183019190915560608401516003830180549185166001600160a01b031992831617905560808501516004840180549190951691161790925560a083015180519192610ea892600585019290910190612fc2565b50905050886001600160a01b0316630ffe0f1e6040518163ffffffff1660e01b8152600401600060405180830381600087803b158015610ee757600080fd5b505af1158015610efb573d6000803e3d6000fd5b50505050505050505050505050565b81610f1481611be6565b6001600160a01b038316600090815260026020526040902054821115610f4c5760405162461bcd60e51b815260040161050d9061375c565b6001600160a01b038316600090815260026020526040902060010154821415610f875760405162461bcd60e51b815260040161050d9061390e565b6001600160a01b03831660008181526002602052604090819020600101849055517fd1de57b1db6a29967f337d6f744b7811624dabf2be924c65708336a81678d077906107d2908590613d1c565b60026020819052600091825260409091208054600182015492820154600383015460049093015491939290916001600160a01b03918216911685565b8061101b81611eba565b8161102581611786565b6001600160a01b038316600090815260026020908152604080832033845260060190915290205460ff161561106c5760405162461bcd60e51b815260040161050d90613a7b565b50506001600160a01b03166000908152600260209081526040808320600581018054600181810183559186528486200180546001600160a01b0319163390811790915585526006909101909252909120805460ff19169091179055565b806110d381611eba565b816110dd81611786565b6001600160a01b038316600090815260026020908152604080832033845260060190915290205460ff166111235760405162461bcd60e51b815260040161050d90613687565b6001600160a01b038316600090815260026020526040902061114e906005013363ffffffff611ffc16565b50506001600160a01b031660009081526002602090815260408083203384526006019091529020805460ff19169055565b6000546001600160a01b031681565b6060806060806060806111a089612128565b8251929550909350915060608167ffffffffffffffff811180156111c357600080fd5b506040519080825280602002602001820160405280156111ed578160200160208202803683370190505b50905060608267ffffffffffffffff8111801561120957600080fd5b50604051908082528060200260200182016040528015611233578160200160208202803683370190505b50905060005b86518110156112cd578a61125c576112578c87838151811061049b57fe5b61126c565b61126c8c87838151811061045d57fe5b83828151811061127857fe5b6020026020010181815250508a61129e576112998c86838151811061045d57fe5b6112ae565b6112ae8c86838151811061049b57fe5b8282815181106112ba57fe5b6020908102919091010152600101611239565b50949b909a50939850929650505050505050565b606080606080846001600160a01b03166399d50d5d6040518163ffffffff1660e01b815260040160006040518083038186803b15801561132057600080fd5b505afa158015611334573d6000803e3d6000fd5b505050506040513d6000823e601f3d908101601f1916820160405261135c919081019061308b565b805190915060608167ffffffffffffffff8111801561137a57600080fd5b506040519080825280602002602001820160405280156113a4578160200160208202803683370190505b50905060608267ffffffffffffffff811180156113c057600080fd5b506040519080825280602002602001820160405280156113ea578160200160208202803683370190505b5090506000886001600160a01b03166318160ddd6040518163ffffffff1660e01b815260040160206040518083038186803b15801561142857600080fd5b505afa15801561143c573d6000803e3d6000fd5b505050506040513d601f19601f820116820180604052508101906114609190613359565b905060005b85518110156116ef57600086828151811061147c57fe5b60200260200101519050600061151c611517836001600160a01b03166370a082318f6040518263ffffffff1660e01b81526004016114ba919061342b565b60206040518083038186803b1580156114d257600080fd5b505afa1580156114e6573d6000803e3d6000fd5b505050506040513d601f19601f8201168201806040525081019061150a9190613359565b869063ffffffff6124b416565b6124c6565b60405163a7bdad0360e01b81529091506000906060906001600160a01b038f169063a7bdad039061155190879060040161342b565b60006040518083038186803b15801561156957600080fd5b505afa15801561157d573d6000803e3d6000fd5b505050506040513d6000823e601f3d908101601f191682016040526115a5919081019061308b565b80519091501561168e5760005b815181101561168c5760008f6001600160a01b03166322ebeba4878585815181106115d957fe5b60200260200101516040518363ffffffff1660e01b81526004016115fe929190613458565b60206040518083038186803b15801561161657600080fd5b505afa15801561162a573d6000803e3d6000fd5b505050506040513d601f19601f8201168201806040525081019061164e9190613359565b9050600081131561167057611669858263ffffffff6124ef16565b9450611683565b611680848263ffffffff6124ef16565b93505b506001016115b2565b505b61169783612535565b8886815181106116a357fe5b60209081029190910101526116c86116c38360001963ffffffff61255716565b612535565b8786815181106116d457fe5b60209081029190910101525050600190920191506114659050565b50939891975095509350505050565b600082158061170b575081155b156117185750600061080d565b6117616001611755670de0b6b3a76400006117498361173d898963ffffffff6125c216565b9063ffffffff6118b516565b9063ffffffff6125fc16565b9063ffffffff611dae16565b9392505050565b6000611761670de0b6b3a7640000611749858563ffffffff6125c216565b61178f8161263e565b6117ab5760405162461bcd60e51b815260040161050d9061363f565b50565b6001600160a01b03821660009081526002602090815260409182902060050180548351818402810184019094528084526060939283018282801561181b57602002820191906000526020600020905b81546001600160a01b031681526001909101906020018083116117fd575b50939450600093505050505b81518110156118af5781818151811061183c57fe5b60200260200101516001600160a01b0316633fe6106b85856040518363ffffffff1660e01b815260040161187192919061343f565b600060405180830381600087803b15801561188b57600080fd5b505af115801561189f573d6000803e3d6000fd5b5050600190920191506118279050565b50505050565b600061176183836040518060400160405280601e81526020017f536166654d6174683a207375627472616374696f6e206f766572666c6f770000815250612742565b60005b84518110156119ac57600085828151811061191157fe5b60200260200101519050600085838151811061192957fe5b6020026020010151905060008111156119a257871561197c576119518a8a846001600061276e565b61196c6001600160a01b038b1683338463ffffffff61291e16565b6119778a83866129f3565b6119a2565b61198882338c84612b2d565b6119948a838784612b85565b6119a28a8a8460008061276e565b50506001016118fa565b5050505050505050565b60005b8451811015611a6b5760008582815181106119d057fe5b6020026020010151905060008583815181106119e857fe5b602002602001015190506000811115611a61578715611a2c57611a0d82338d84612b2d565b611a198b838784612b85565b611a278b8b8460018061276e565b611a61565b611a3b8b8b846000600161276e565b611a566001600160a01b038c16838b8463ffffffff61291e16565b611a618b83866129f3565b50506001016119b9565b505050505050505050565b8115611be1576001600160a01b03808416600081815260026020526040908190206003015490516340c10f1960e01b815291926340c10f1992611ac19290911690869060040161343f565b600060405180830381600087803b158015611adb57600080fd5b505af1158015611aef573d6000803e3d6000fd5b505050506000811115611be157826001600160a01b03166340c10f196000809054906101000a90046001600160a01b03166001600160a01b031663469048406040518163ffffffff1660e01b815260040160206040518083038186803b158015611b5857600080fd5b505afa158015611b6c573d6000803e3d6000fd5b505050506040513d601f19601f82011682018060405250810190611b90919061306f565b836040518363ffffffff1660e01b8152600401611bae92919061343f565b600060405180830381600087803b158015611bc857600080fd5b505af1158015611bdc573d6000803e3d6000fd5b505050505b505050565b611bf08133612c6c565b6117865760405162461bcd60e51b815260040161050d90613b81565b6001600160a01b038085166000908152600260205260408120600401549091168015611c9f5760405163a045808360e01b81526001600160a01b0382169063a045808390611c64908990899089908990600401613541565b600060405180830381600087803b158015611c7e57600080fd5b505af1158015611c92573d6000803e3d6000fd5b5050505080915050611ca5565b60009150505b949350505050565b6001600160a01b038216600090815260026020908152604091829020600501805483518184028101840190945280845260609392830182828015611d1a57602002820191906000526020600020905b81546001600160a01b03168152600190910190602001808311611cfc575b50939450600093505050505b81518110156118af57818181518110611d3b57fe5b60200260200101516001600160a01b031663c153dd0785856040518363ffffffff1660e01b8152600401611d7092919061343f565b600060405180830381600087803b158015611d8a57600080fd5b505af1158015611d9e573d6000803e3d6000fd5b505060019092019150611d269050565b6000828201838110156117615760405162461bcd60e51b815260040161050d906136ee565b611ddd8282612c6c565b610bad5760405162461bcd60e51b815260040161050d90613b81565b600054604051631d3af8fb60e21b81526001600160a01b03909116906374ebe3ec90611e2990849060040161342b565b60206040518083038186803b158015611e4157600080fd5b505afa158015611e55573d6000803e3d6000fd5b505050506040513d601f19601f82011682018060405250810190611e799190613136565b611e955760405162461bcd60e51b815260040161050d90613b3e565b611e9e81612cfa565b6117ab5760405162461bcd60e51b815260040161050d90613725565b6002604051631ade272960e11b81526001600160a01b038316906335bc4e5290611ee890339060040161342b565b60206040518083038186803b158015611f0057600080fd5b505afa158015611f14573d6000803e3d6000fd5b505050506040513d601f19601f82011682018060405250810190611f38919061333a565b6002811115611f4357fe5b14611f605760405162461bcd60e51b815260040161050d90613896565b6000546040516342f6e38960e01b81526001600160a01b03909116906342f6e38990611f9090339060040161342b565b60206040518083038186803b158015611fa857600080fd5b505afa158015611fbc573d6000803e3d6000fd5b505050506040513d601f19601f82011682018060405250810190611fe09190613136565b6117ab5760405162461bcd60e51b815260040161050d90613afa565b6000806120628480548060200260200160405190810160405280929190818152602001828054801561205757602002820191906000526020600020905b81546001600160a01b03168152600190910190602001808311612039575b505050505084612d29565b91509150806120835760405162461bcd60e51b815260040161050d906135a9565b8354600019018281146120f55784818154811061209c57fe5b9060005260206000200160009054906101000a90046001600160a01b03168584815481106120c657fe5b9060005260206000200160006101000a8154816001600160a01b0302191690836001600160a01b031602179055505b848054806120ff57fe5b600082815260209020810160001990810180546001600160a01b03191690550190555050505050565b606080606080846001600160a01b03166399d50d5d6040518163ffffffff1660e01b815260040160006040518083038186803b15801561216757600080fd5b505afa15801561217b573d6000803e3d6000fd5b505050506040513d6000823e601f3d908101601f191682016040526121a3919081019061308b565b805190915060608167ffffffffffffffff811180156121c157600080fd5b506040519080825280602002602001820160405280156121eb578160200160208202803683370190505b50905060608267ffffffffffffffff8111801561220757600080fd5b50604051908082528060200260200182016040528015612231578160200160208202803683370190505b50905060005b84518110156124a457600085828151811061224e57fe5b6020026020010151905060008a6001600160a01b03166366cb8d2f836040518263ffffffff1660e01b8152600401612286919061342b565b60206040518083038186803b15801561229e57600080fd5b505afa1580156122b2573d6000803e3d6000fd5b505050506040513d601f19601f820116820180604052508101906122d69190613359565b60405163a7bdad0360e01b81529091506000906060906001600160a01b038e169063a7bdad039061230b90879060040161342b565b60006040518083038186803b15801561232357600080fd5b505afa158015612337573d6000803e3d6000fd5b505050506040513d6000823e601f3d908101601f1916820160405261235f919081019061308b565b8051909150156124485760005b81518110156124465760008e6001600160a01b03166322ebeba48785858151811061239357fe5b60200260200101516040518363ffffffff1660e01b81526004016123b8929190613458565b60206040518083038186803b1580156123d057600080fd5b505afa1580156123e4573d6000803e3d6000fd5b505050506040513d601f19601f820116820180604052508101906124089190613359565b9050600081131561242a57612423858263ffffffff6124ef16565b945061243d565b61243a848263ffffffff6124ef16565b93505b5060010161236c565b505b61245183612535565b87868151811061245d57fe5b602090810291909101015261247d6116c38360001963ffffffff61255716565b86868151811061248957fe5b60209081029190910101525050600190920191506122379050565b5092979096509194509092505050565b6000611761828463ffffffff612d8f16565b6000600160ff1b82106124eb5760405162461bcd60e51b815260040161050d90613ab2565b5090565b60008282018183128015906125045750838112155b80612519575060008312801561251957508381125b6117615760405162461bcd60e51b815260040161050d906137ca565b6000808212156124eb5760405162461bcd60e51b815260040161050d90613861565b6000826125665750600061080d565b8260001914801561257a5750600160ff1b82145b156125975760405162461bcd60e51b815260040161050d9061393d565b828202828482816125a457fe5b05146117615760405162461bcd60e51b815260040161050d9061393d565b6000826125d15750600061080d565b828202828482816125de57fe5b04146117615760405162461bcd60e51b815260040161050d906138cd565b600061176183836040518060400160405280601a81526020017f536166654d6174683a206469766973696f6e206279207a65726f000000000000815250612dad565b60008054604051631d3af8fb60e21b81526001600160a01b03909116906374ebe3ec9061266f90859060040161342b565b60206040518083038186803b15801561268757600080fd5b505afa15801561269b573d6000803e3d6000fd5b505050506040513d601f19601f820116820180604052508101906126bf9190613136565b801561080d57506040516335fc6c9f60e21b81526001600160a01b0383169063d7f1b27c906126f290309060040161342b565b60206040518083038186803b15801561270a57600080fd5b505afa15801561271e573d6000803e3d6000fd5b505050506040513d601f19601f8201168201806040525081019061080d9190613136565b600081848411156127665760405162461bcd60e51b815260040161050d9190613596565b505050900390565b60405163a7bdad0360e01b81526060906001600160a01b0387169063a7bdad039061279d90879060040161342b565b60006040518083038186803b1580156127b557600080fd5b505afa1580156127c9573d6000803e3d6000fd5b505050506040513d6000823e601f3d908101601f191682016040526127f1919081019061308b565b805190915083156128905760005b8181101561288a5782818151811061281357fe5b60200260200101516001600160a01b0316630fb96b21898989886040518563ffffffff1660e01b815260040161284c949392919061356c565b600060405180830381600087803b15801561286657600080fd5b505af115801561287a573d6000803e3d6000fd5b5050600190920191506127ff9050565b50611bdc565b60005b818110156119ac578281815181106128a757fe5b60200260200101516001600160a01b031663c137f4d7898989886040518563ffffffff1660e01b81526004016128e0949392919061356c565b600060405180830381600087803b1580156128fa57600080fd5b505af115801561290e573d6000803e3d6000fd5b5050600190920191506128939050565b80156118af576060828260405160240161293992919061343f565b60408051601f198184030181529181526020820180516001600160e01b031663a9059cbb60e01b179052516347b7819960e11b81529091506001600160a01b03861690638f6f0332906129959087906000908690600401613496565b600060405180830381600087803b1580156129af57600080fd5b505af11580156129c3573d6000803e3d6000fd5b505050506040513d6000823e601f3d908101601f191682016040526129eb9190810190613152565b505050505050565b6040516370a0823160e01b81526000906001600160a01b038416906370a0823190612a2290879060040161342b565b60206040518083038186803b158015612a3a57600080fd5b505afa158015612a4e573d6000803e3d6000fd5b505050506040513d601f19601f82011682018060405250810190612a729190613359565b90506000612af5856001600160a01b03166366cb8d2f866040518263ffffffff1660e01b8152600401612aa5919061342b565b60206040518083038186803b158015612abd57600080fd5b505afa158015612ad1573d6000803e3d6000fd5b505050506040513d601f19601f820116820180604052508101906116c39190613359565b9050612b07838263ffffffff6116fe16565b821015612b265760405162461bcd60e51b815260040161050d90613c02565b5050505050565b6118af846323b872dd60e01b858585604051602401612b4e93929190613472565b60408051601f198184030181529190526020810180516001600160e01b03166001600160e01b031990931692909217909152612de4565b6040516370a0823160e01b81526000906001600160a01b038516906370a0823190612bb490889060040161342b565b60206040518083038186803b158015612bcc57600080fd5b505afa158015612be0573d6000803e3d6000fd5b505050506040513d601f19601f82011682018060405250810190612c049190613359565b90506000612c37866001600160a01b03166366cb8d2f876040518263ffffffff1660e01b8152600401612aa5919061342b565b9050612c4d83611755868463ffffffff6116fe16565b8210156129eb5760405162461bcd60e51b815260040161050d9061380b565b6000816001600160a01b0316836001600160a01b031663481c6a756040518163ffffffff1660e01b815260040160206040518083038186803b158015612cb157600080fd5b505afa158015612cc5573d6000803e3d6000fd5b505050506040513d601f19601f82011682018060405250810190612ce9919061306f565b6001600160a01b0316149392505050565b6040516353bae5f760e01b81526000906001600160a01b038316906353bae5f7906126f290309060040161342b565b81516000908190815b81811015612d7c57846001600160a01b0316868281518110612d5057fe5b60200260200101516001600160a01b03161415612d7457925060019150612d889050565b600101612d32565b50600019600092509250505b9250929050565b60006117618261174985670de0b6b3a764000063ffffffff6125c216565b60008183612dce5760405162461bcd60e51b815260040161050d9190613596565b506000838581612dda57fe5b0495945050505050565b6060612e39826040518060400160405280602081526020017f5361666545524332303a206c6f772d6c6576656c2063616c6c206661696c6564815250856001600160a01b0316612e739092919063ffffffff16565b805190915015611be15780806020019051810190612e579190613136565b611be15760405162461bcd60e51b815260040161050d90613bb8565b6060611ca5848460008585612e8785612f1d565b612ea35760405162461bcd60e51b815260040161050d90613a44565b60006060866001600160a01b03168587604051612ec0919061340f565b60006040518083038185875af1925050503d8060008114612efd576040519150601f19603f3d011682016040523d82523d6000602084013e612f02565b606091505b5091509150612f12828286612f23565b979650505050505050565b3b151590565b60608315612f32575081611761565b825115612f425782518084602001fd5b8160405162461bcd60e51b815260040161050d9190613596565b50805460008255906000526020600020908101906117ab9190613023565b6040518060c0016040528060008152602001600081526020016000815260200160006001600160a01b0316815260200160006001600160a01b03168152602001606081525090565b828054828255906000526020600020908101928215613017579160200282015b8281111561301757825182546001600160a01b0319166001600160a01b03909116178255602090920191600190910190612fe2565b506124eb929150613040565b61303d91905b808211156124eb5760008155600101613029565b90565b61303d91905b808211156124eb5780546001600160a01b0319168155600101613046565b805161080d81613dbd565b600060208284031215613080578081fd5b815161176181613dbd565b6000602080838503121561309d578182fd5b825167ffffffffffffffff808211156130b4578384fd5b81850186601f8201126130c5578485fd5b80519250818311156130d5578485fd5b83830291506130e5848301613d6a565b8381528481019082860184840187018a10156130ff578788fd5b8794505b85851015613129576131158a82613064565b835260019490940193918601918601613103565b5098975050505050505050565b600060208284031215613147578081fd5b815161176181613dd2565b600060208284031215613163578081fd5b815167ffffffffffffffff8082111561317a578283fd5b81840185601f82011261318b578384fd5b805192508183111561319b578384fd5b6131ae601f8401601f1916602001613d6a565b91508282528560208483010111156131c4578384fd5b6131d5836020840160208401613d91565b50949350505050565b6000602082840312156131ef578081fd5b813561176181613dbd565b6000806040838503121561320c578081fd5b823561321781613dbd565b9150602083013561322781613dbd565b809150509250929050565b60008060408385031215613244578182fd5b823561324f81613dbd565b946020939093013593505050565b600080600060608486031215613271578081fd5b833561327c81613dbd565b925060208401359150604084013561329381613dbd565b809150509250925092565b6000806000606084860312156132b2578283fd5b83356132bd81613dbd565b925060208401359150604084013561329381613dd2565b60008060008060008060c087890312156132ec578182fd5b86356132f781613dbd565b9550602087013594506040870135935060608701359250608087013561331c81613dbd565b915060a087013561332c81613dbd565b809150509295509295509295565b60006020828403121561334b578081fd5b815160038110611761578182fd5b60006020828403121561336a578081fd5b5051919050565b6000815180845260208085019450808401835b838110156133a95781516001600160a01b031687529582019590820190600101613384565b509495945050505050565b6000815180845260208085019450808401835b838110156133a9578151875295820195908201906001016133c7565b600081518084526133fb816020860160208601613d91565b601f01601f19169290920160200192915050565b60008251613421818460208701613d91565b9190910192915050565b6001600160a01b0391909116815260200190565b6001600160a01b03929092168252602082015260400190565b6001600160a01b0392831681529116602082015260400190565b6001600160a01b039384168152919092166020820152604081019190915260600190565b600060018060a01b0385168252836020830152606060408301526134bd60608301846133e3565b95945050505050565b6001600160a01b0394909416845260208401929092526040830152606082015260800190565b6000602082526117616020830184613371565b6000606082526135126060830186613371565b828103602084015261352481866133b4565b8381036040850152612f1281866133b4565b901515815260200190565b6001600160a01b03948516815260208101939093529083166040830152909116606082015260800190565b6001600160a01b039485168152602081019390935292166040820152901515606082015260800190565b60006020825261176160208301846133e3565b60208082526015908201527420b2323932b9b9903737ba1034b71030b93930bc9760591b604082015260600190565b6020808252601f908201527f52656465656d206665652063616e277420657863656564206d6178696d756d00604082015260600190565b60208082526016908201527514d85b59481c995919595b48199959481c185cdcd95960521b604082015260600190565b60208082526028908201527f4d75737420626520612076616c696420616e6420696e697469616c697a65642060408201526729b2ba2a37b5b2b760c11b606082015260800190565b60208082526016908201527526b7b23ab632903737ba103932b3b4b9ba32b932b21760511b604082015260600190565b6020808252601b908201527f52656465656d207175616e74697479206d757374206265203e20300000000000604082015260600190565b6020808252601b908201527f536166654d6174683a206164646974696f6e206f766572666c6f770000000000604082015260600190565b6020808252601e908201527f4d7573742062652070656e64696e6720696e697469616c697a6174696f6e0000604082015260600190565b6020808252601e908201527f4973737565206665652063616e277420657863656564206d6178696d756d0000604082015260600190565b6020808252601a908201527f4973737565207175616e74697479206d757374206265203e2030000000000000604082015260600190565b60208082526021908201527f5369676e6564536166654d6174683a206164646974696f6e206f766572666c6f6040820152607760f81b606082015260800190565b60208082526036908201527f496e76616c6964207472616e7366657220696e2e20526573756c747320696e206040820152753ab73232b931b7b63630ba32b930b634bd30ba34b7b760511b606082015260800190565b6020808252818101527f53616665436173743a2076616c7565206d75737420626520706f736974697665604082015260600190565b60208082526018908201527f4f6e6c7920746865206d6f64756c652063616e2063616c6c0000000000000000604082015260600190565b60208082526021908201527f536166654d6174683a206d756c7469706c69636174696f6e206f766572666c6f6040820152607760f81b606082015260800190565b60208082526015908201527414d85b59481a5cdcdd5948199959481c185cdcd959605a1b604082015260600190565b60208082526027908201527f5369676e6564536166654d6174683a206d756c7469706c69636174696f6e206f604082015266766572666c6f7760c81b606082015260800190565b60208082526022908201527f4973737565206665652063616e277420657863656564206d6178696d756d2066604082015261656560f01b606082015260800190565b60208082526019908201527f53616d652066656520726563697069656e742070617373656400000000000000604082015260600190565b60208082526027908201527f46656520526563697069656e74206d757374206265206e6f6e2d7a65726f206160408201526632323932b9b99760c91b606082015260800190565b6020808252601d908201527f416464726573733a2063616c6c20746f206e6f6e2d636f6e7472616374000000604082015260600190565b6020808252601a908201527f4d6f64756c6520616c726561647920726567697374657265642e000000000000604082015260600190565b60208082526028908201527f53616665436173743a2076616c756520646f65736e27742066697420696e2061604082015267371034b73a191a9b60c11b606082015260800190565b60208082526024908201527f4d6f64756c65206d75737420626520656e61626c6564206f6e20636f6e74726f604082015263363632b960e11b606082015260800190565b60208082526023908201527f4d75737420626520636f6e74726f6c6c65722d656e61626c656420536574546f60408201526235b2b760e91b606082015260800190565b6020808252601c908201527f4d7573742062652074686520536574546f6b656e206d616e6167657200000000604082015260600190565b6020808252602a908201527f5361666545524332303a204552433230206f7065726174696f6e20646964206e6040820152691bdd081cdd58d8d9595960b21b606082015260800190565b60208082526037908201527f496e76616c6964207472616e73666572206f75742e20526573756c747320696e60408201527f20756e646572636f6c6c61746572616c697a6174696f6e000000000000000000606082015260800190565b60208082526023908201527f52656769737465726564206d6f64756c6573206d7573742062652072656d6f7660408201526232b21760e91b606082015260800190565b6020808252601f908201527f5265656e7472616e637947756172643a207265656e7472616e742063616c6c00604082015260600190565b60208082526023908201527f52656465656d206665652063616e277420657863656564206d6178696d756d2060408201526266656560e81b606082015260800190565b90815260200190565b9283526020830191909152604082015260600190565b948552602085019390935260408401919091526001600160a01b03908116606084015216608082015260a00190565b60405181810167ffffffffffffffff81118282101715613d8957600080fd5b604052919050565b60005b83811015613dac578181015183820152602001613d94565b838111156118af5750506000910152565b6001600160a01b03811681146117ab57600080fd5b80151581146117ab57600080fdfea264697066735822122010cd348e710799e26d715c6bd6149780fc59a05f37da2be118c2ba945dff723364736f6c634300060a0033",
  "linkReferences": {},
  "deployedLinkReferences": {}
}