{
  "_format": "hh-sol-artifact-1",
  "contractName": "Morpho",
  "sourceName": "contracts/protocol/integration/lib/Morpho.sol",
  "abi": [
    {
      "inputs": [
        {
          "internalType": "contract IMorpho",
          "name": "_morpho",
          "type": "IMorpho"
        },
        {
          "components": [
            {
              "internalType": "address",
              "name": "loanToken",
              "type": "address"
            },
            {
              "internalType": "address",
              "name": "collateralToken",
              "type": "address"
            },
            {
              "internalType": "address",
              "name": "oracle",
              "type": "address"
            },
            {
              "internalType": "address",
              "name": "irm",
              "type": "address"
            },
            {
              "internalType": "uint256",
              "name": "lltv",
              "type": "uint256"
            }
          ],
          "internalType": "struct MarketParams",
          "name": "_marketParams",
          "type": "tuple"
        },
        {
          "internalType": "uint256",
          "name": "_assets",
          "type": "uint256"
        },
        {
          "internalType": "uint256",
          "name": "_shares",
          "type": "uint256"
        },
        {
          "internalType": "address",
          "name": "_onBehalfOf",
          "type": "address"
        },
        {
          "internalType": "address",
          "name": "_receiver",
          "type": "address"
        }
      ],
      "name": "getBorrowCalldata",
      "outputs": [
        {
          "internalType": "address",
          "name": "",
          "type": "address"
        },
        {
          "internalType": "uint256",
          "name": "",
          "type": "uint256"
        },
        {
          "internalType": "bytes",
          "name": "",
          "type": "bytes"
        }
      ],
      "stateMutability": "pure",
      "type": "function",
      "gas": "0xa7d8c0"
    },
    {
      "inputs": [
        {
          "internalType": "contract IMorpho",
          "name": "_morpho",
          "type": "IMorpho"
        },
        {
          "components": [
            {
              "internalType": "address",
              "name": "loanToken",
              "type": "address"
            },
            {
              "internalType": "address",
              "name": "collateralToken",
              "type": "address"
            },
            {
              "internalType": "address",
              "name": "oracle",
              "type": "address"
            },
            {
              "internalType": "address",
              "name": "irm",
              "type": "address"
            },
            {
              "internalType": "uint256",
              "name": "lltv",
              "type": "uint256"
            }
          ],
          "internalType": "struct MarketParams",
          "name": "_marketParams",
          "type": "tuple"
        },
        {
          "internalType": "uint256",
          "name": "_assets",
          "type": "uint256"
        },
        {
          "internalType": "uint256",
          "name": "_shares",
          "type": "uint256"
        },
        {
          "internalType": "address",
          "name": "_onBehalfOf",
          "type": "address"
        }
      ],
      "name": "getRepayCalldata",
      "outputs": [
        {
          "internalType": "address",
          "name": "",
          "type": "address"
        },
        {
          "internalType": "uint256",
          "name": "",
          "type": "uint256"
        },
        {
          "internalType": "bytes",
          "name": "",
          "type": "bytes"
        }
      ],
      "stateMutability": "pure",
      "type": "function",
      "gas": "0xa7d8c0"
    },
    {
      "inputs": [
        {
          "internalType": "contract IMorpho",
          "name": "_morpho",
          "type": "IMorpho"
        },
        {
          "components": [
            {
              "internalType": "address",
              "name": "loanToken",
              "type": "address"
            },
            {
              "internalType": "address",
              "name": "collateralToken",
              "type": "address"
            },
            {
              "internalType": "address",
              "name": "oracle",
              "type": "address"
            },
            {
              "internalType": "address",
              "name": "irm",
              "type": "address"
            },
            {
              "internalType": "uint256",
              "name": "lltv",
              "type": "uint256"
            }
          ],
          "internalType": "struct MarketParams",
          "name": "_marketParams",
          "type": "tuple"
        },
        {
          "internalType": "uint256",
          "name": "_assets",
          "type": "uint256"
        },
        {
          "internalType": "address",
          "name": "_onBehalfOf",
          "type": "address"
        },
        {
          "internalType": "bytes",
          "name": "_data",
          "type": "bytes"
        }
      ],
      "name": "getSupplyCollateralCalldata",
      "outputs": [
        {
          "internalType": "address",
          "name": "",
          "type": "address"
        },
        {
          "internalType": "uint256",
          "name": "",
          "type": "uint256"
        },
        {
          "internalType": "bytes",
          "name": "",
          "type": "bytes"
        }
      ],
      "stateMutability": "pure",
      "type": "function",
      "gas": "0xa7d8c0"
    },
    {
      "inputs": [
        {
          "internalType": "contract IMorpho",
          "name": "_morpho",
          "type": "IMorpho"
        },
        {
          "components": [
            {
              "internalType": "address",
              "name": "loanToken",
              "type": "address"
            },
            {
              "internalType": "address",
              "name": "collateralToken",
              "type": "address"
            },
            {
              "internalType": "address",
              "name": "oracle",
              "type": "address"
            },
            {
              "internalType": "address",
              "name": "irm",
              "type": "address"
            },
            {
              "internalType": "uint256",
              "name": "lltv",
              "type": "uint256"
            }
          ],
          "internalType": "struct MarketParams",
          "name": "_marketParams",
          "type": "tuple"
        },
        {
          "internalType": "uint256",
          "name": "_assets",
          "type": "uint256"
        },
        {
          "internalType": "address",
          "name": "_onBehalfOf",
          "type": "address"
        },
        {
          "internalType": "address",
          "name": "_receiver",
          "type": "address"
        }
      ],
      "name": "getWithdrawCollateralCalldata",
      "outputs": [
        {
          "internalType": "address",
          "name": "",
          "type": "address"
        },
        {
          "internalType": "uint256",
          "name": "",
          "type": "uint256"
        },
        {
          "internalType": "bytes",
          "name": "",
          "type": "bytes"
        }
      ],
      "stateMutability": "pure",
      "type": "function",
      "gas": "0xa7d8c0"
    }
  ],
  "bytecode": "0x610a43610026600b82828239805160001a60731461001957fe5b30600052607381538281f3fe73000000000000000000000000000000000000000030146080604052600436106100925760003560e01c806342b71c941161006557806342b71c9414610124578063853704c814610144578063a5d2a3cc14610157578063c946b87f1461016a57610092565b80630c18de95146100975780632d379e12146100c2578063354efce3146100e4578063401fe5c414610104575b600080fd5b6100aa6100a53660046106cd565b61017d565b6040516100b993929190610854565b60405180910390f35b8180156100ce57600080fd5b506100e26100dd36600461073e565b6101d8565b005b8180156100f057600080fd5b506100e26100ff36600461078e565b61027d565b81801561011057600080fd5b506100e261011f36600461073e565b610321565b81801561013057600080fd5b506100e261013f36600461073e565b610330565b6100aa610152366004610558565b61034e565b6100aa61016536600461067c565b6103a6565b6100aa6101783660046105c0565b610410565b600080606080888888888860405160240161019c9594939291906108f2565b60408051601f198184030181529190526020810180516001600160e01b03166350d8cd4b60e01b179052999a60009a9950975050505050505050565b60606101e98484846000898a61017d565b6040516347b7819960e11b81529093506001600160a01b0388169250638f6f0332915061021f9087906000908690600401610854565b600060405180830381600087803b15801561023957600080fd5b505af115801561024d573d6000803e3d6000fd5b505050506040513d6000823e601f3d908101601f1916820160405261027591908101906104dd565b505050505050565b606061028c858585858a6103a6565b6040516347b7819960e11b81529093506001600160a01b0389169250638f6f033291506102c29088906000908690600401610854565b600060405180830381600087803b1580156102dc57600080fd5b505af11580156102f0573d6000803e3d6000fd5b505050506040513d6000823e601f3d908101601f1916820160405261031891908101906104dd565b50505050505050565b60606101e9848484888961034e565b604080516020810190915260008152606061028c8585858986610410565b6000806060808787878760405160240161036b949392919061087b565b60408051601f198184030181529190526020810180516001600160e01b0316638720316d60e01b179052989960009998509650505050505050565b6040805160208101825260008082529151829160609182906103d4908a908a908a908a90879060240161092e565b60408051601f198184030181529190526020810180516001600160e01b03166320b76e8160e01b179052999a60009a9950975050505050505050565b6000806060808787878760405160240161042d94939291906108af565b60408051601f198184030181529190526020810180516001600160e01b031663238d657960e01b179052989960009998509650505050505050565b600060a08284031215610479578081fd5b61048360a061097a565b90508135610490816109f5565b815260208201356104a0816109f5565b602082015260408201356104b3816109f5565b604082015260608201356104c6816109f5565b806060830152506080820135608082015292915050565b6000602082840312156104ee578081fd5b815167ffffffffffffffff811115610504578182fd5b80830184601f820112610515578283fd5b8051915061052a610525836109a1565b61097a565b82815285602084840101111561053e578384fd5b61054f8360208301602085016109c5565b95945050505050565b60008060008060006101208688031215610570578081fd5b853561057b816109f5565b945061058a8760208801610468565b935060c0860135925060e08601356105a1816109f5565b91506101008601356105b2816109f5565b809150509295509295909350565b600080600080600061012086880312156105d8578081fd5b85356105e3816109f5565b94506105f28760208801610468565b935060c0860135925060e0860135610609816109f5565b915061010086013567ffffffffffffffff811115610625578182fd5b80870188601f820112610636578283fd5b80359150610646610525836109a1565b82815289602084840101111561065a578384fd5b8260208301602083013783602084830101528093505050509295509295909350565b60008060008060006101208688031215610694578081fd5b853561069f816109f5565b94506106ae8760208801610468565b935060c0860135925060e086013591506101008601356105b2816109f5565b60008060008060008061014087890312156106e6578081fd5b86356106f1816109f5565b95506107008860208901610468565b945060c0870135935060e0870135925061010087013561071f816109f5565b9150610120870135610730816109f5565b809150509295509295509295565b6000806000806101008587031215610754578384fd5b843561075f816109f5565b9350602085013561076f816109f5565b925061077e8660408701610468565b9396929550929360e00135925050565b600080600080600061012086880312156107a6578081fd5b85356107b1816109f5565b945060208601356107c1816109f5565b93506107d08760408801610468565b9497939650939460e08101359450610100013592915050565b600081518084526108018160208601602086016109c5565b601f01601f19169290920160200192915050565b80516001600160a01b03908116835260208083015182169084015260408083015182169084015260608083015190911690830152608090810151910152565b600060018060a01b03851682528360208301526060604083015261054f60608301846107e9565b610100810161088a8287610815565b60a08201949094526001600160a01b0392831660c0820152911660e090910152919050565b60006101006108be8388610815565b60a083018690526001600160a01b03851660c084015260e083018190526108e7818401856107e9565b979650505050505050565b61012081016109018288610815565b60a082019590955260c08101939093526001600160a01b0391821660e08401521661010090910152919050565b600061012061093d8389610815565b60a0830187905260c083018690526001600160a01b03851660e0840152610100830181905261096e818401856107e9565b98975050505050505050565b60405181810167ffffffffffffffff8111828210171561099957600080fd5b604052919050565b600067ffffffffffffffff8211156109b7578081fd5b50601f01601f191660200190565b60005b838110156109e05781810151838201526020016109c8565b838111156109ef576000848401525b50505050565b6001600160a01b0381168114610a0a57600080fd5b5056fea2646970667358221220f242801c9e5eb2db4c453065b6af30ec2b4ac53704f7607c2e4d6711303a798b64736f6c634300060a0033",
  "linkReferences": {},
  "deployedLinkReferences": {}
}