{
  "_format": "hh-sol-artifact-1",
  "contractName": "PreciseUnitOracle",
  "sourceName": "contracts/protocol/integration/oracles/PreciseUnitOracle.sol",
  "abi": [
    {
      "inputs": [
        {
          "internalType": "string",
          "name": "_dataDescription",
          "type": "string"
        }
      ],
      "stateMutability": "nonpayable",
      "type": "constructor"
    },
    {
      "inputs": [],
      "name": "dataDescription",
      "outputs": [
        {
          "internalType": "string",
          "name": "",
          "type": "string"
        }
      ],
      "stateMutability": "view",
      "type": "function",
      "gas": "0xa7d8c0"
    },
    {
      "inputs": [],
      "name": "read",
      "outputs": [
        {
          "internalType": "uint256",
          "name": "",
          "type": "uint256"
        }
      ],
      "stateMutability": "pure",
      "type": "function",
      "gas": "0xa7d8c0"
    }
  ],
  "bytecode": "0x608060405234801561001057600080fd5b506040516103583803806103588339818101604052602081101561003357600080fd5b810190808051604051939291908464010000000082111561005357600080fd5b90830190602082018581111561006857600080fd5b825164010000000081118282018810171561008257600080fd5b82525081516020918201929091019080838360005b838110156100af578181015183820152602001610097565b50505050905090810190601f1680156100dc5780820380516001836020036101000a031916815260200191505b50604052505081516100f6915060009060208401906100fd565b5050610198565b828054600181600116156101000203166002900490600052602060002090601f016020900481019282601f1061013e57805160ff191683800117855561016b565b8280016001018555821561016b579182015b8281111561016b578251825591602001919060010190610150565b5061017792915061017b565b5090565b61019591905b808211156101775760008155600101610181565b90565b6101b1806101a76000396000f3fe608060405234801561001057600080fd5b50600436106100365760003560e01c806357de26a41461003b57806358d6562914610055575b600080fd5b6100436100d2565b60408051918252519081900360200190f35b61005d6100e1565b6040805160208082528351818301528351919283929083019185019080838360005b8381101561009757818101518382015260200161007f565b50505050905090810190601f1680156100c45780820380516001836020036101000a031916815260200191505b509250505060405180910390f35b60006100dc61016f565b905090565b6000805460408051602060026001851615610100026000190190941693909304601f810184900484028201840190925281815292918301828280156101675780601f1061013c57610100808354040283529160200191610167565b820191906000526020600020905b81548152906001019060200180831161014a57829003601f168201915b505050505081565b670de0b6b3a76400009056fea26469706673582212209ab59efe6d709a1b1941f523fb188a5ea6954c970398ad1c459dbf1e51d026f764736f6c634300060a0033",
  "linkReferences": {},
  "deployedLinkReferences": {}
}