{
  "_format": "hh-sol-artifact-1",
  "contractName": "RebasingComponentModule",
  "sourceName": "contracts/protocol/modules/v1/RebasingComponentModule.sol",
  "abi": [
    {
      "inputs": [
        {
          "internalType": "contract IController",
          "name": "_controller",
          "type": "address"
        }
      ],
      "stateMutability": "nonpayable",
      "type": "constructor"
    },
    {
      "anonymous": false,
      "inputs": [
        {
          "indexed": true,
          "internalType": "address",
          "name": "previousOwner",
          "type": "address"
        },
        {
          "indexed": true,
          "internalType": "address",
          "name": "newOwner",
          "type": "address"
        }
      ],
      "name": "OwnershipTransferred",
      "type": "event"
    },
    {
      "anonymous": false,
      "inputs": [
        {
          "indexed": true,
          "internalType": "contract ISetToken",
          "name": "_setToken",
          "type": "address"
        },
        {
          "indexed": true,
          "internalType": "bool",
          "name": "_isAdded",
          "type": "bool"
        },
        {
          "indexed": false,
          "internalType": "contract IERC20[]",
          "name": "_components",
          "type": "address[]"
        }
      ],
      "name": "RebasingComponentsUpdated",
      "type": "event"
    },
    {
      "inputs": [
        {
          "internalType": "contract ISetToken",
          "name": "_setToken",
          "type": "address"
        },
        {
          "internalType": "contract IERC20[]",
          "name": "_newRebasingComponents",
          "type": "address[]"
        }
      ],
      "name": "addRebasingComponents",
      "outputs": [],
      "stateMutability": "nonpayable",
      "type": "function",
      "gas": "0xa7d8c0"
    },
    {
      "inputs": [
        {
          "internalType": "contract ISetToken",
          "name": "_setToken",
          "type": "address"
        },
        {
          "internalType": "uint256",
          "name": "",
          "type": "uint256"
        },
        {
          "internalType": "contract IERC20",
          "name": "",
          "type": "address"
        },
        {
          "internalType": "bool",
          "name": "",
          "type": "bool"
        }
      ],
      "name": "componentIssueHook",
      "outputs": [],
      "stateMutability": "nonpayable",
      "type": "function",
      "gas": "0xa7d8c0"
    },
    {
      "inputs": [
        {
          "internalType": "contract ISetToken",
          "name": "_setToken",
          "type": "address"
        },
        {
          "internalType": "uint256",
          "name": "",
          "type": "uint256"
        },
        {
          "internalType": "contract IERC20",
          "name": "",
          "type": "address"
        },
        {
          "internalType": "bool",
          "name": "",
          "type": "bool"
        }
      ],
      "name": "componentRedeemHook",
      "outputs": [],
      "stateMutability": "nonpayable",
      "type": "function",
      "gas": "0xa7d8c0"
    },
    {
      "inputs": [],
      "name": "controller",
      "outputs": [
        {
          "internalType": "contract IController",
          "name": "",
          "type": "address"
        }
      ],
      "stateMutability": "view",
      "type": "function",
      "gas": "0xa7d8c0"
    },
    {
      "inputs": [
        {
          "internalType": "contract ISetToken",
          "name": "_setToken",
          "type": "address"
        }
      ],
      "name": "getRebasingComponents",
      "outputs": [
        {
          "internalType": "address[]",
          "name": "",
          "type": "address[]"
        }
      ],
      "stateMutability": "view",
      "type": "function",
      "gas": "0xa7d8c0"
    },
    {
      "inputs": [
        {
          "internalType": "contract ISetToken",
          "name": "_setToken",
          "type": "address"
        },
        {
          "internalType": "contract IERC20[]",
          "name": "_rebasingComponents",
          "type": "address[]"
        }
      ],
      "name": "initialize",
      "outputs": [],
      "stateMutability": "nonpayable",
      "type": "function",
      "gas": "0xa7d8c0"
    },
    {
      "inputs": [
        {
          "internalType": "contract ISetToken",
          "name": "_setToken",
          "type": "address"
        },
        {
          "internalType": "address",
          "name": "",
          "type": "address"
        },
        {
          "internalType": "uint256",
          "name": "",
          "type": "uint256"
        },
        {
          "internalType": "address",
          "name": "",
          "type": "address"
        },
        {
          "internalType": "address",
          "name": "",
          "type": "address"
        }
      ],
      "name": "invokePreIssueHook",
      "outputs": [],
      "stateMutability": "nonpayable",
      "type": "function",
      "gas": "0xa7d8c0"
    },
    {
      "inputs": [
        {
          "internalType": "contract ISetToken",
          "name": "_setToken",
          "type": "address"
        },
        {
          "internalType": "uint256",
          "name": "",
          "type": "uint256"
        },
        {
          "internalType": "address",
          "name": "",
          "type": "address"
        },
        {
          "internalType": "address",
          "name": "",
          "type": "address"
        }
      ],
      "name": "invokePreRedeemHook",
      "outputs": [],
      "stateMutability": "nonpayable",
      "type": "function",
      "gas": "0xa7d8c0"
    },
    {
      "inputs": [
        {
          "internalType": "contract ISetToken",
          "name": "_setToken",
          "type": "address"
        },
        {
          "internalType": "uint256",
          "name": "",
          "type": "uint256"
        }
      ],
      "name": "moduleIssueHook",
      "outputs": [],
      "stateMutability": "nonpayable",
      "type": "function",
      "gas": "0xa7d8c0"
    },
    {
      "inputs": [
        {
          "internalType": "contract ISetToken",
          "name": "_setToken",
          "type": "address"
        },
        {
          "internalType": "uint256",
          "name": "",
          "type": "uint256"
        }
      ],
      "name": "moduleRedeemHook",
      "outputs": [],
      "stateMutability": "nonpayable",
      "type": "function",
      "gas": "0xa7d8c0"
    },
    {
      "inputs": [],
      "name": "owner",
      "outputs": [
        {
          "internalType": "address",
          "name": "",
          "type": "address"
        }
      ],
      "stateMutability": "view",
      "type": "function",
      "gas": "0xa7d8c0"
    },
    {
      "inputs": [
        {
          "internalType": "contract ISetToken",
          "name": "",
          "type": "address"
        },
        {
          "internalType": "contract IERC20",
          "name": "",
          "type": "address"
        }
      ],
      "name": "rebasingComponentEnabled",
      "outputs": [
        {
          "internalType": "bool",
          "name": "",
          "type": "bool"
        }
      ],
      "stateMutability": "view",
      "type": "function",
      "gas": "0xa7d8c0"
    },
    {
      "inputs": [
        {
          "internalType": "contract ISetToken",
          "name": "_setToken",
          "type": "address"
        },
        {
          "internalType": "contract IDebtIssuanceModule",
          "name": "_debtIssuanceModule",
          "type": "address"
        }
      ],
      "name": "registerToModule",
      "outputs": [],
      "stateMutability": "nonpayable",
      "type": "function",
      "gas": "0xa7d8c0"
    },
    {
      "inputs": [],
      "name": "removeModule",
      "outputs": [],
      "stateMutability": "nonpayable",
      "type": "function",
      "gas": "0xa7d8c0"
    },
    {
      "inputs": [
        {
          "internalType": "contract ISetToken",
          "name": "_setToken",
          "type": "address"
        },
        {
          "internalType": "contract IERC20[]",
          "name": "_rebasingComponents",
          "type": "address[]"
        }
      ],
      "name": "removeRebasingComponents",
      "outputs": [],
      "stateMutability": "nonpayable",
      "type": "function",
      "gas": "0xa7d8c0"
    },
    {
      "inputs": [],
      "name": "renounceOwnership",
      "outputs": [],
      "stateMutability": "nonpayable",
      "type": "function",
      "gas": "0xa7d8c0"
    },
    {
      "inputs": [
        {
          "internalType": "contract ISetToken",
          "name": "_setToken",
          "type": "address"
        }
      ],
      "name": "sync",
      "outputs": [],
      "stateMutability": "nonpayable",
      "type": "function",
      "gas": "0xa7d8c0"
    },
    {
      "inputs": [
        {
          "internalType": "address",
          "name": "newOwner",
          "type": "address"
        }
      ],
      "name": "transferOwnership",
      "outputs": [],
      "stateMutability": "nonpayable",
      "type": "function",
      "gas": "0xa7d8c0"
    }
  ],
  "bytecode": "0x60806040523480156200001157600080fd5b506040516200211a3803806200211a8339810160408190526200003491620000b6565b600080546001600160a01b0319166001600160a01b038316178155600180556200005d620000b2565b600280546001600160a01b0319166001600160a01b038316908117909155604051919250906000907f8be0079c531659141344cd1fd0a4f28419497f9722a3daafe3b4186f6b6457e0908290a35050620000e6565b3390565b600060208284031215620000c8578081fd5b81516001600160a01b0381168114620000df578182fd5b9392505050565b61202480620000f66000396000f3fe608060405234801561001057600080fd5b50600436106101165760003560e01c8063946d9204116100a2578063c153dd0711610071578063c153dd071461016c578063d002630114610203578063f2fde38b14610223578063f77c479114610236578063fb42e7ec1461023e57610116565b8063946d9204146101ca5780639b19c2bf146101dd578063a5841194146101f0578063c137f4d71461011b57610116565b80635b136512116100e95780635b1365121461017f57806366c8d1f814610192578063715018a6146101a5578063847ef08d146101ad5780638da5cb5b146101b557610116565b80630fb96b211461011b5780632d49104a1461013057806335c2b333146101595780633fe6106b1461016c575b600080fd5b61012e610129366004611a6b565b610251565b005b61014361013e3660046117a9565b610262565b6040516101509190611b16565b60405180910390f35b61012e610167366004611905565b6102d8565b61012e61017a3660046119ee565b6102f1565b61012e61018d3660046119b6565b610304565b61012e6101a0366004611905565b610412565b61012e610526565b61012e6105a5565b6101bd6107a0565b6040516101509190611ae9565b61012e6101d8366004611905565b6107b0565b61012e6101eb366004611a19565b610924565b61012e6101fe3660046117a9565b610933565b6102166102113660046119b6565b610bc7565b6040516101509190611b63565b61012e6102313660046117a9565b610be7565b6101bd610c9e565b61012e61024c36600461189e565b610cad565b8361025b81610cc0565b5050505050565b6001600160a01b0381166000908152600460209081526040918290208054835181840281018401909452808452606093928301828280156102cc57602002820191906000526020600020905b81546001600160a01b031681526001909101906020018083116102ae575b50505050509050919050565b816102e281610e05565b6102ec8383610e50565b505050565b816102fb81610cc0565b6102ec83610933565b8161030e81610e05565b6040516335fc6c9f60e21b81526001600160a01b0384169063d7f1b27c9061033a908590600401611ae9565b60206040518083038186803b15801561035257600080fd5b505afa158015610366573d6000803e3d6000fd5b505050506040513d601f19601f8201168201806040525081019061038a9190611882565b6103af5760405162461bcd60e51b81526004016103a690611d21565b60405180910390fd5b6040516306cd8db760e51b81526001600160a01b0383169063d9b1b6e0906103db908690600401611ae9565b600060405180830381600087803b1580156103f557600080fd5b505af1158015610409573d6000803e3d6000fd5b50505050505050565b8161041c81610e05565b60005b82518110156104db57600083828151811061043657fe5b6020908102919091018101516001600160a01b0380881660009081526003845260408082209284168252919093529091205490915060ff1661048a5760405162461bcd60e51b81526004016103a690611f4d565b6001600160a01b0380861660008181526003602090815260408083209486168352938152838220805460ff191690559181526004909152206104d2908263ffffffff610f7216565b5060010161041f565b5060001515836001600160a01b03167f4350523f9d22b1cba0809180a64bb309a4840366d65bcea72c1316cfa80528ac846040516105199190611b16565b60405180910390a3505050565b61052e61109e565b6002546001600160a01b0390811691161461055b5760405162461bcd60e51b81526004016103a690611ddb565b6002546040516000916001600160a01b0316907f8be0079c531659141344cd1fd0a4f28419497f9722a3daafe3b4186f6b6457e0908390a3600280546001600160a01b0319169055565b336105af81610e2b565b336105b981610933565b6001600160a01b03811660009081526004602090815260409182902080548351818402810184019094528084526060939283018282801561062357602002820191906000526020600020905b81546001600160a01b03168152600190910190602001808311610605575b50939450600093505050505b815181101561068657600082828151811061064657fe5b6020908102919091018101516001600160a01b03808716600090815260038452604080822092909316815292529020805460ff191690555060010161062f565b506001600160a01b03821660009081526004602052604081206106a891611776565b6060826001600160a01b031663b2494df36040518163ffffffff1660e01b815260040160006040518083038186803b1580156106e357600080fd5b505afa1580156106f7573d6000803e3d6000fd5b505050506040513d6000823e601f3d908101601f1916820160405261071f91908101906117e1565b905060005b815181101561025b5781818151811061073957fe5b60200260200101516001600160a01b031663e0799620856040518263ffffffff1660e01b815260040161076c9190611ae9565b600060405180830381600087803b15801561078657600080fd5b505af1925050508015610797575060015b50600101610724565b6002546001600160a01b03165b90565b81336107bc82826110a2565b836107c6816110cc565b846001600160a01b0316630ffe0f1e6040518163ffffffff1660e01b8152600401600060405180830381600087803b15801561080157600080fd5b505af1158015610815573d6000803e3d6000fd5b505050506060856001600160a01b031663b2494df36040518163ffffffff1660e01b815260040160006040518083038186803b15801561085457600080fd5b505afa158015610868573d6000803e3d6000fd5b505050506040513d6000823e601f3d908101601f1916820160405261089091908101906117e1565b905060005b8151811015610911578181815181106108aa57fe5b60200260200101516001600160a01b031663d9b1b6e0886040518263ffffffff1660e01b81526004016108dd9190611ae9565b600060405180830381600087803b1580156108f757600080fd5b505af1925050508015610908575060015b50600101610895565b5061091c8686610e50565b505050505050565b8361092e81610cc0565b61025b855b600260015414156109565760405162461bcd60e51b81526004016103a690611f16565b60026001558061096581610e2b565b6000826001600160a01b03166318160ddd6040518163ffffffff1660e01b815260040160206040518083038186803b1580156109a057600080fd5b505afa1580156109b4573d6000803e3d6000fd5b505050506040513d601f19601f820116820180604052508101906109d89190611ad1565b90508015610bbe576001600160a01b038316600090815260046020908152604091829020805483518184028101840190945280845260609392830182828015610a4a57602002820191906000526020600020905b81546001600160a01b03168152600190910190602001808311610a2c575b50939450600093505050505b8151811015610bbb576000828281518110610a6d57fe5b602002602001015190506000610afd876001600160a01b03166366cb8d2f846040518263ffffffff1660e01b8152600401610aa89190611ae9565b60206040518083038186803b158015610ac057600080fd5b505afa158015610ad4573d6000803e3d6000fd5b505050506040513d601f19601f82011682018060405250810190610af89190611ad1565b61118d565b90506000610b8d86846001600160a01b03166370a082318b6040518263ffffffff1660e01b8152600401610b319190611ae9565b60206040518083038186803b158015610b4957600080fd5b505afa158015610b5d573d6000803e3d6000fd5b505050506040513d601f19601f82011682018060405250810190610b819190611ad1565b9063ffffffff6111b316565b9050808214610bb057610bb06001600160a01b038916848363ffffffff6111e616565b505050600101610a56565b50505b50506001805550565b600360209081526000928352604080842090915290825290205460ff1681565b610bef61109e565b6002546001600160a01b03908116911614610c1c5760405162461bcd60e51b81526004016103a690611ddb565b6001600160a01b038116610c425760405162461bcd60e51b81526004016103a690611c38565b6002546040516001600160a01b038084169216907f8be0079c531659141344cd1fd0a4f28419497f9722a3daafe3b4186f6b6457e090600090a3600280546001600160a01b0319166001600160a01b0392909216919091179055565b6000546001600160a01b031681565b84610cb781610cc0565b61091c86610933565b6002604051631ade272960e11b81526001600160a01b038316906335bc4e5290610cee903390600401611ae9565b60206040518083038186803b158015610d0657600080fd5b505afa158015610d1a573d6000803e3d6000fd5b505050506040513d601f19601f82011682018060405250810190610d3e9190611ab2565b6002811115610d4957fe5b14610d665760405162461bcd60e51b81526004016103a690611cea565b6000546040516342f6e38960e01b81526001600160a01b03909116906342f6e38990610d96903390600401611ae9565b60206040518083038186803b158015610dae57600080fd5b505afa158015610dc2573d6000803e3d6000fd5b505050506040513d601f19601f82011682018060405250810190610de69190611882565b610e025760405162461bcd60e51b81526004016103a690611e58565b50565b610e0f8133611364565b610e2b5760405162461bcd60e51b81526004016103a690611edf565b610e34816113f2565b610e025760405162461bcd60e51b81526004016103a690611bf0565b60005b8151811015610f28576000828281518110610e6a57fe5b6020908102919091018101516001600160a01b0380871660009081526003845260408082209284168252919093529091205490915060ff1615610ebf5760405162461bcd60e51b81526004016103a690611d58565b6001600160a01b03808516600081815260036020908152604080832095909416808352948152838220805460ff19166001908117909155928252600481529281208054808401825590825292902090910180546001600160a01b03191690921790915501610e53565b5060011515826001600160a01b03167f4350523f9d22b1cba0809180a64bb309a4840366d65bcea72c1316cfa80528ac83604051610f669190611b16565b60405180910390a35050565b600080610fd884805480602002602001604051908101604052809291908181526020018280548015610fcd57602002820191906000526020600020905b81546001600160a01b03168152600190910190602001808311610faf575b5050505050846114f6565b9150915080610ff95760405162461bcd60e51b81526004016103a690611bc1565b83546000190182811461106b5784818154811061101257fe5b9060005260206000200160009054906101000a90046001600160a01b031685848154811061103c57fe5b9060005260206000200160006101000a8154816001600160a01b0302191690836001600160a01b031602179055505b8480548061107557fe5b600082815260209020810160001990810180546001600160a01b03191690550190555050505050565b3390565b6110ac8282611364565b6110c85760405162461bcd60e51b81526004016103a690611edf565b5050565b600054604051631d3af8fb60e21b81526001600160a01b03909116906374ebe3ec906110fc908490600401611ae9565b60206040518083038186803b15801561111457600080fd5b505afa158015611128573d6000803e3d6000fd5b505050506040513d601f19601f8201168201806040525081019061114c9190611882565b6111685760405162461bcd60e51b81526004016103a690611e9c565b6111718161155c565b610e025760405162461bcd60e51b81526004016103a690611c7e565b6000808212156111af5760405162461bcd60e51b81526004016103a690611cb5565b5090565b60006111dd826111d185670de0b6b3a764000063ffffffff61158b16565b9063ffffffff6115c516565b90505b92915050565b60006111f28484611607565b9050801580156112025750600082115b1561127957611211848461168e565b611274576040516304e3532760e41b81526001600160a01b03851690634e35327090611241908690600401611ae9565b600060405180830381600087803b15801561125b57600080fd5b505af115801561126f573d6000803e3d6000fd5b505050505b6112f6565b808015611284575081155b156112f657611293848461168e565b6112f657604051636f86c89760e01b81526001600160a01b03851690636f86c897906112c3908690600401611ae9565b600060405180830381600087803b1580156112dd57600080fd5b505af11580156112f1573d6000803e3d6000fd5b505050505b836001600160a01b0316632ba57d178461130f8561171a565b6040518363ffffffff1660e01b815260040161132c929190611afd565b600060405180830381600087803b15801561134657600080fd5b505af115801561135a573d6000803e3d6000fd5b5050505050505050565b6000816001600160a01b0316836001600160a01b031663481c6a756040518163ffffffff1660e01b815260040160206040518083038186803b1580156113a957600080fd5b505afa1580156113bd573d6000803e3d6000fd5b505050506040513d601f19601f820116820180604052508101906113e191906117c5565b6001600160a01b0316149392505050565b60008054604051631d3af8fb60e21b81526001600160a01b03909116906374ebe3ec90611423908590600401611ae9565b60206040518083038186803b15801561143b57600080fd5b505afa15801561144f573d6000803e3d6000fd5b505050506040513d601f19601f820116820180604052508101906114739190611882565b80156111e057506040516335fc6c9f60e21b81526001600160a01b0383169063d7f1b27c906114a6903090600401611ae9565b60206040518083038186803b1580156114be57600080fd5b505afa1580156114d2573d6000803e3d6000fd5b505050506040513d601f19601f820116820180604052508101906111e09190611882565b81516000908190815b8181101561154957846001600160a01b031686828151811061151d57fe5b60200260200101516001600160a01b03161415611541579250600191506115559050565b6001016114ff565b50600019600092509250505b9250929050565b6040516353bae5f760e01b81526000906001600160a01b038316906353bae5f7906114a6903090600401611ae9565b60008261159a575060006111e0565b828202828482816115a757fe5b04146111dd5760405162461bcd60e51b81526004016103a690611d9a565b60006111dd83836040518060400160405280601a81526020017f536166654d6174683a206469766973696f6e206279207a65726f00000000000081525061173f565b600080836001600160a01b03166366cb8d2f846040518263ffffffff1660e01b81526004016116369190611ae9565b60206040518083038186803b15801561164e57600080fd5b505afa158015611662573d6000803e3d6000fd5b505050506040513d601f19601f820116820180604052508101906116869190611ad1565b139392505050565b600080836001600160a01b031663a7bdad03846040518263ffffffff1660e01b81526004016116bd9190611ae9565b60006040518083038186803b1580156116d557600080fd5b505afa1580156116e9573d6000803e3d6000fd5b505050506040513d6000823e601f3d908101601f1916820160405261171191908101906117e1565b51119392505050565b6000600160ff1b82106111af5760405162461bcd60e51b81526004016103a690611e10565b600081836117605760405162461bcd60e51b81526004016103a69190611b6e565b50600083858161176c57fe5b0495945050505050565b5080546000825590600052602060002090810190610e0291906107ad91905b808211156111af5760008155600101611795565b6000602082840312156117ba578081fd5b81356111dd81611fcb565b6000602082840312156117d6578081fd5b81516111dd81611fcb565b600060208083850312156117f3578182fd5b825167ffffffffffffffff811115611809578283fd5b80840185601f82011261181a578384fd5b8051915061182f61182a83611fab565b611f84565b828152838101908285018585028401860189101561184b578687fd5b8693505b8484101561187657805161186281611fcb565b83526001939093019291850191850161184f565b50979650505050505050565b600060208284031215611893578081fd5b81516111dd81611fe0565b600080600080600060a086880312156118b5578081fd5b85356118c081611fcb565b945060208601356118d081611fcb565b93506040860135925060608601356118e781611fcb565b915060808601356118f781611fcb565b809150509295509295909350565b60008060408385031215611917578182fd5b823561192281611fcb565b915060208381013567ffffffffffffffff81111561193e578283fd5b80850186601f82011261194f578384fd5b8035915061195f61182a83611fab565b82815283810190828501858502840186018a101561197b578687fd5b8693505b848410156119a657803561199281611fcb565b83526001939093019291850191850161197f565b5080955050505050509250929050565b600080604083850312156119c8578182fd5b82356119d381611fcb565b915060208301356119e381611fcb565b809150509250929050565b60008060408385031215611a00578182fd5b8235611a0b81611fcb565b946020939093013593505050565b60008060008060808587031215611a2e578384fd5b8435611a3981611fcb565b9350602085013592506040850135611a5081611fcb565b91506060850135611a6081611fcb565b939692955090935050565b60008060008060808587031215611a80578182fd5b8435611a8b81611fcb565b9350602085013592506040850135611aa281611fcb565b91506060850135611a6081611fe0565b600060208284031215611ac3578081fd5b8151600381106111dd578182fd5b600060208284031215611ae2578081fd5b5051919050565b6001600160a01b0391909116815260200190565b6001600160a01b03929092168252602082015260400190565b6020808252825182820181905260009190848201906040850190845b81811015611b575783516001600160a01b031683529284019291840191600101611b32565b50909695505050505050565b901515815260200190565b6000602080835283518082850152825b81811015611b9a57858101830151858201604001528201611b7e565b81811115611bab5783604083870101525b50601f01601f1916929092016040019392505050565b60208082526015908201527420b2323932b9b9903737ba1034b71030b93930bc9760591b604082015260600190565b60208082526028908201527f4d75737420626520612076616c696420616e6420696e697469616c697a65642060408201526729b2ba2a37b5b2b760c11b606082015260800190565b60208082526026908201527f4f776e61626c653a206e6577206f776e657220697320746865207a65726f206160408201526564647265737360d01b606082015260800190565b6020808252601e908201527f4d7573742062652070656e64696e6720696e697469616c697a6174696f6e0000604082015260600190565b6020808252818101527f53616665436173743a2076616c7565206d75737420626520706f736974697665604082015260600190565b60208082526018908201527f4f6e6c7920746865206d6f64756c652063616e2063616c6c0000000000000000604082015260600190565b60208082526018908201527f49737375616e6365206e6f7420696e697469616c697a65640000000000000000604082015260600190565b60208082526022908201527f5265626173696e6720636f6d706f6e656e7420616c726561647920656e61626c604082015261195960f21b606082015260800190565b60208082526021908201527f536166654d6174683a206d756c7469706c69636174696f6e206f766572666c6f6040820152607760f81b606082015260800190565b6020808252818101527f4f776e61626c653a2063616c6c6572206973206e6f7420746865206f776e6572604082015260600190565b60208082526028908201527f53616665436173743a2076616c756520646f65736e27742066697420696e2061604082015267371034b73a191a9b60c11b606082015260800190565b60208082526024908201527f4d6f64756c65206d75737420626520656e61626c6564206f6e20636f6e74726f604082015263363632b960e11b606082015260800190565b60208082526023908201527f4d75737420626520636f6e74726f6c6c65722d656e61626c656420536574546f60408201526235b2b760e91b606082015260800190565b6020808252601c908201527f4d7573742062652074686520536574546f6b656e206d616e6167657200000000604082015260600190565b6020808252601f908201527f5265656e7472616e637947756172643a207265656e7472616e742063616c6c00604082015260600190565b6020808252601e908201527f5265626173696e6720636f6d706f6e656e74206e6f7420656e61626c65640000604082015260600190565b60405181810167ffffffffffffffff81118282101715611fa357600080fd5b604052919050565b600067ffffffffffffffff821115611fc1578081fd5b5060209081020190565b6001600160a01b0381168114610e0257600080fd5b8015158114610e0257600080fdfea2646970667358221220df924066d527d897128b3ab46a512df66aa488cf4184e9a6c6009427fe4492bd64736f6c634300060a0033",
  "linkReferences": {},
  "deployedLinkReferences": {}
}