{
  "_format": "hh-sol-artifact-1",
  "contractName": "SetValuer",
  "sourceName": "contracts/protocol/SetValuer.sol",
  "abi": [
    {
      "inputs": [
        {
          "internalType": "contract IController",
          "name": "_controller",
          "type": "address"
        }
      ],
      "stateMutability": "nonpayable",
      "type": "constructor"
    },
    {
      "inputs": [
        {
          "internalType": "contract ISetToken",
          "name": "_setToken",
          "type": "address"
        },
        {
          "internalType": "address",
          "name": "_component",
          "type": "address"
        },
        {
          "internalType": "address",
          "name": "_quoteAsset",
          "type": "address"
        }
      ],
      "name": "calculateComponentValuation",
      "outputs": [
        {
          "internalType": "uint256",
          "name": "",
          "type": "uint256"
        }
      ],
      "stateMutability": "view",
      "type": "function",
      "gas": "0xa7d8c0"
    },
    {
      "inputs": [
        {
          "internalType": "contract ISetToken",
          "name": "_setToken",
          "type": "address"
        },
        {
          "internalType": "address",
          "name": "_quoteAsset",
          "type": "address"
        }
      ],
      "name": "calculateSetTokenValuation",
      "outputs": [
        {
          "internalType": "uint256",
          "name": "",
          "type": "uint256"
        }
      ],
      "stateMutability": "view",
      "type": "function",
      "gas": "0xa7d8c0"
    },
    {
      "inputs": [],
      "name": "controller",
      "outputs": [
        {
          "internalType": "contract IController",
          "name": "",
          "type": "address"
        }
      ],
      "stateMutability": "view",
      "type": "function",
      "gas": "0xa7d8c0"
    }
  ],
  "bytecode": "0x608060405234801561001057600080fd5b50604051610ef5380380610ef583398101604081905261002f91610054565b600080546001600160a01b0319166001600160a01b0392909216919091179055610082565b600060208284031215610065578081fd5b81516001600160a01b038116811461007b578182fd5b9392505050565b610e64806100916000396000f3fe608060405234801561001057600080fd5b50600436106100415760003560e01c80636101c54014610046578063c8a389841461006f578063f77c479114610082575b600080fd5b610059610054366004610b4b565b610097565b6040516100669190610de6565b60405180910390f35b61005961007d366004610b83565b61046d565b61008a61081b565b6040516100669190610c06565b6000805481906100af906001600160a01b031661082a565b90506000816001600160a01b031663342833546040518163ffffffff1660e01b815260040160206040518083038186803b1580156100ec57600080fd5b505afa158015610100573d6000803e3d6000fd5b505050506040513d601f19601f820116820180604052508101906101249190610a64565b90506060856001600160a01b03166399d50d5d6040518163ffffffff1660e01b815260040160006040518083038186803b15801561016157600080fd5b505afa158015610175573d6000803e3d6000fd5b505050506040513d6000823e601f3d908101601f1916820160405261019d9190810190610a80565b90506000805b825181101561039d5760008382815181106101ba57fe5b602002602001015190506000866001600160a01b031663ac41865a83886040518363ffffffff1660e01b81526004016101f4929190610c1a565b60206040518083038186803b15801561020c57600080fd5b505afa158015610220573d6000803e3d6000fd5b505050506040513d601f19601f820116820180604052508101906102449190610bcd565b905060008a6001600160a01b031663eaf993e1846040518263ffffffff1660e01b81526004016102749190610c06565b60206040518083038186803b15801561028c57600080fd5b505afa1580156102a0573d6000803e3d6000fd5b505050506040513d601f19601f820116820180604052508101906102c49190610bcd565b90506000836001600160a01b031663313ce5676040518163ffffffff1660e01b815260040160206040518083038186803b15801561030157600080fd5b505afa158015610315573d6000803e3d6000fd5b505050506040513d601f19601f820116820180604052508101906103399190610be5565b60ff169050600a81900a600061035e610351836108aa565b859063ffffffff6108d316565b90506103898861037d610370886108aa565b849063ffffffff61090416565b9063ffffffff61092216565b975050600190950194506101a39350505050565b50856001600160a01b0316836001600160a01b03161461045757604051635620c32d60e11b81526000906001600160a01b0386169063ac41865a906103e8908a908890600401610c1a565b60206040518083038186803b15801561040057600080fd5b505afa158015610414573d6000803e3d6000fd5b505050506040513d601f19601f820116820180604052508101906104389190610bcd565b9050610453610446826108aa565b839063ffffffff6108d316565b9150505b61046081610968565b9450505050505b92915050565b60405163df5e9b2960e01b81526000906001600160a01b0385169063df5e9b299061049c908690600401610c06565b60206040518083038186803b1580156104b457600080fd5b505afa1580156104c8573d6000803e3d6000fd5b505050506040513d601f19601f820116820180604052508101906104ec9190610b2b565b6105115760405162461bcd60e51b815260040161050890610daf565b60405180910390fd5b60008054610527906001600160a01b031661082a565b90506000816001600160a01b031663342833546040518163ffffffff1660e01b815260040160206040518083038186803b15801561056457600080fd5b505afa158015610578573d6000803e3d6000fd5b505050506040513d601f19601f8201168201806040525081019061059c9190610a64565b9050600080836001600160a01b031663ac41865a88856040518363ffffffff1660e01b81526004016105cf929190610c1a565b60206040518083038186803b1580156105e757600080fd5b505afa1580156105fb573d6000803e3d6000fd5b505050506040513d601f19601f8201168201806040525081019061061f9190610bcd565b90506000886001600160a01b031663eaf993e1896040518263ffffffff1660e01b815260040161064f9190610c06565b60206040518083038186803b15801561066757600080fd5b505afa15801561067b573d6000803e3d6000fd5b505050506040513d601f19601f8201168201806040525081019061069f9190610bcd565b90506000886001600160a01b031663313ce5676040518163ffffffff1660e01b815260040160206040518083038186803b1580156106dc57600080fd5b505afa1580156106f0573d6000803e3d6000fd5b505050506040513d601f19601f820116820180604052508101906107149190610be5565b60ff169050600a81900a600061072c610351836108aa565b905061074761073a866108aa565b829063ffffffff61090416565b9550896001600160a01b0316876001600160a01b03161461080257604051635620c32d60e11b81526000906001600160a01b038a169063ac41865a90610793908e908c90600401610c1a565b60206040518083038186803b1580156107ab57600080fd5b505afa1580156107bf573d6000803e3d6000fd5b505050506040513d601f19601f820116820180604052508101906107e39190610bcd565b90506107fe6107f1826108aa565b889063ffffffff6108d316565b9650505b61080b86610968565b9c9b505050505050505050505050565b6000546001600160a01b031681565b6040516373b2e76b60e11b81526000906001600160a01b0383169063e765ced69061085a90600190600401610de6565b60206040518083038186803b15801561087257600080fd5b505afa158015610886573d6000803e3d6000fd5b505050506040513d601f19601f820116820180604052508101906104679190610a64565b6000600160ff1b82106108cf5760405162461bcd60e51b815260040161050890610d32565b5090565b60006108fd826108f185670de0b6b3a764000063ffffffff61098a16565b9063ffffffff6109f516565b9392505050565b60006108fd670de0b6b3a76400006108f1858563ffffffff61098a16565b60008282018183128015906109375750838112155b8061094c575060008312801561094c57508381125b6108fd5760405162461bcd60e51b815260040161050890610c34565b6000808212156108cf5760405162461bcd60e51b815260040161050890610c75565b60008261099957506000610467565b826000191480156109ad5750600160ff1b82145b156109ca5760405162461bcd60e51b815260040161050890610ceb565b828202828482816109d757fe5b05146108fd5760405162461bcd60e51b815260040161050890610ceb565b600081610a145760405162461bcd60e51b815260040161050890610d7a565b81600019148015610a285750600160ff1b83145b15610a455760405162461bcd60e51b815260040161050890610caa565b6000828481610a5057fe5b05949350505050565b805161046781610e16565b600060208284031215610a75578081fd5b81516108fd81610e16565b60006020808385031215610a92578182fd5b825167ffffffffffffffff80821115610aa9578384fd5b81850186601f820112610aba578485fd5b8051925081831115610aca578485fd5b8383029150610ada848301610def565b8381528481019082860184840187018a1015610af4578788fd5b8794505b85851015610b1e57610b0a8a82610a59565b835260019490940193918601918601610af8565b5098975050505050505050565b600060208284031215610b3c578081fd5b815180151581146108fd578182fd5b60008060408385031215610b5d578081fd5b8235610b6881610e16565b91506020830135610b7881610e16565b809150509250929050565b600080600060608486031215610b97578081fd5b8335610ba281610e16565b92506020840135610bb281610e16565b91506040840135610bc281610e16565b809150509250925092565b600060208284031215610bde578081fd5b5051919050565b600060208284031215610bf6578081fd5b815160ff811681146108fd578182fd5b6001600160a01b0391909116815260200190565b6001600160a01b0392831681529116602082015260400190565b60208082526021908201527f5369676e6564536166654d6174683a206164646974696f6e206f766572666c6f6040820152607760f81b606082015260800190565b6020808252818101527f53616665436173743a2076616c7565206d75737420626520706f736974697665604082015260600190565b60208082526021908201527f5369676e6564536166654d6174683a206469766973696f6e206f766572666c6f6040820152607760f81b606082015260800190565b60208082526027908201527f5369676e6564536166654d6174683a206d756c7469706c69636174696f6e206f604082015266766572666c6f7760c81b606082015260800190565b60208082526028908201527f53616665436173743a2076616c756520646f65736e27742066697420696e2061604082015267371034b73a191a9b60c11b606082015260800190565b6020808252818101527f5369676e6564536166654d6174683a206469766973696f6e206279207a65726f604082015260600190565b60208082526019908201527f436f6d706f6e656e74206e6f7420696e20536574546f6b656e00000000000000604082015260600190565b90815260200190565b60405181810167ffffffffffffffff81118282101715610e0e57600080fd5b604052919050565b6001600160a01b0381168114610e2b57600080fd5b5056fea264697066735822122065ff5e8ecddcbf4aa684288461b56febd2669852205db5864eab9506f49ed77b64736f6c634300060a0033",
  "linkReferences": {},
  "deployedLinkReferences": {}
}