{
  "_format": "hh-sol-artifact-1",
  "contractName": "SingleIndexModule",
  "sourceName": "contracts/protocol/modules/SingleIndexModule.sol",
  "abi": [
    {
      "inputs": [
        {
          "internalType": "contract IController",
          "name": "_controller",
          "type": "address"
        },
        {
          "internalType": "contract IWETH",
          "name": "_weth",
          "type": "address"
        },
        {
          "internalType": "address",
          "name": "_uniswapRouter",
          "type": "address"
        },
        {
          "internalType": "address",
          "name": "_sushiswapRouter",
          "type": "address"
        },
        {
          "internalType": "address",
          "name": "_balancerProxy",
          "type": "address"
        }
      ],
      "stateMutability": "nonpayable",
      "type": "constructor"
    },
    {
      "anonymous": false,
      "inputs": [
        {
          "indexed": true,
          "internalType": "bool",
          "name": "_status",
          "type": "bool"
        }
      ],
      "name": "AnyoneTradeUpdated",
      "type": "event"
    },
    {
      "anonymous": false,
      "inputs": [
        {
          "indexed": true,
          "internalType": "address",
          "name": "_component",
          "type": "address"
        },
        {
          "indexed": false,
          "internalType": "uint256",
          "name": "_newExchange",
          "type": "uint256"
        }
      ],
      "name": "AssetExchangeUpdated",
      "type": "event"
    },
    {
      "anonymous": false,
      "inputs": [
        {
          "indexed": true,
          "internalType": "address",
          "name": "_component",
          "type": "address"
        },
        {
          "indexed": false,
          "internalType": "uint256",
          "name": "_newCoolOffPeriod",
          "type": "uint256"
        }
      ],
      "name": "CoolOffPeriodUpdated",
      "type": "event"
    },
    {
      "anonymous": false,
      "inputs": [
        {
          "indexed": true,
          "internalType": "address",
          "name": "_component",
          "type": "address"
        },
        {
          "indexed": false,
          "internalType": "uint256",
          "name": "_newUnit",
          "type": "uint256"
        },
        {
          "indexed": false,
          "internalType": "uint256",
          "name": "_positionMultiplier",
          "type": "uint256"
        }
      ],
      "name": "TargetUnitsUpdated",
      "type": "event"
    },
    {
      "anonymous": false,
      "inputs": [
        {
          "indexed": true,
          "internalType": "address",
          "name": "_executor",
          "type": "address"
        },
        {
          "indexed": true,
          "internalType": "address",
          "name": "_sellComponent",
          "type": "address"
        },
        {
          "indexed": true,
          "internalType": "address",
          "name": "_buyComponent",
          "type": "address"
        },
        {
          "indexed": false,
          "internalType": "uint256",
          "name": "_amountSold",
          "type": "uint256"
        },
        {
          "indexed": false,
          "internalType": "uint256",
          "name": "_amountBought",
          "type": "uint256"
        }
      ],
      "name": "TradeExecuted",
      "type": "event"
    },
    {
      "anonymous": false,
      "inputs": [
        {
          "indexed": true,
          "internalType": "address",
          "name": "_component",
          "type": "address"
        },
        {
          "indexed": false,
          "internalType": "uint256",
          "name": "_newMaximum",
          "type": "uint256"
        }
      ],
      "name": "TradeMaximumUpdated",
      "type": "event"
    },
    {
      "anonymous": false,
      "inputs": [
        {
          "indexed": true,
          "internalType": "address",
          "name": "_trader",
          "type": "address"
        },
        {
          "indexed": false,
          "internalType": "bool",
          "name": "_status",
          "type": "bool"
        }
      ],
      "name": "TraderStatusUpdated",
      "type": "event"
    },
    {
      "inputs": [],
      "name": "anyoneTrade",
      "outputs": [
        {
          "internalType": "bool",
          "name": "",
          "type": "bool"
        }
      ],
      "stateMutability": "view",
      "type": "function"
    },
    {
      "inputs": [
        {
          "internalType": "address",
          "name": "",
          "type": "address"
        }
      ],
      "name": "assetInfo",
      "outputs": [
        {
          "internalType": "uint256",
          "name": "targetUnit",
          "type": "uint256"
        },
        {
          "internalType": "uint256",
          "name": "maxSize",
          "type": "uint256"
        },
        {
          "internalType": "uint256",
          "name": "coolOffPeriod",
          "type": "uint256"
        },
        {
          "internalType": "uint256",
          "name": "lastTradeTimestamp",
          "type": "uint256"
        },
        {
          "internalType": "uint256",
          "name": "exchange",
          "type": "uint256"
        }
      ],
      "stateMutability": "view",
      "type": "function"
    },
    {
      "inputs": [],
      "name": "balancerProxy",
      "outputs": [
        {
          "internalType": "address",
          "name": "",
          "type": "address"
        }
      ],
      "stateMutability": "view",
      "type": "function"
    },
    {
      "inputs": [],
      "name": "controller",
      "outputs": [
        {
          "internalType": "contract IController",
          "name": "",
          "type": "address"
        }
      ],
      "stateMutability": "view",
      "type": "function"
    },
    {
      "inputs": [],
      "name": "getRebalanceComponents",
      "outputs": [
        {
          "internalType": "address[]",
          "name": "",
          "type": "address[]"
        }
      ],
      "stateMutability": "view",
      "type": "function"
    },
    {
      "inputs": [
        {
          "internalType": "address[]",
          "name": "_components",
          "type": "address[]"
        }
      ],
      "name": "getTargetUnits",
      "outputs": [
        {
          "internalType": "uint256[]",
          "name": "",
          "type": "uint256[]"
        }
      ],
      "stateMutability": "view",
      "type": "function"
    },
    {
      "inputs": [],
      "name": "index",
      "outputs": [
        {
          "internalType": "contract ISetToken",
          "name": "",
          "type": "address"
        }
      ],
      "stateMutability": "view",
      "type": "function"
    },
    {
      "inputs": [
        {
          "internalType": "contract ISetToken",
          "name": "_index",
          "type": "address"
        }
      ],
      "name": "initialize",
      "outputs": [],
      "stateMutability": "nonpayable",
      "type": "function"
    },
    {
      "inputs": [],
      "name": "positionMultiplier",
      "outputs": [
        {
          "internalType": "uint256",
          "name": "",
          "type": "uint256"
        }
      ],
      "stateMutability": "view",
      "type": "function"
    },
    {
      "inputs": [],
      "name": "raiseAssetTargets",
      "outputs": [],
      "stateMutability": "nonpayable",
      "type": "function"
    },
    {
      "inputs": [
        {
          "internalType": "uint256",
          "name": "",
          "type": "uint256"
        }
      ],
      "name": "rebalanceComponents",
      "outputs": [
        {
          "internalType": "address",
          "name": "",
          "type": "address"
        }
      ],
      "stateMutability": "view",
      "type": "function"
    },
    {
      "inputs": [],
      "name": "removeModule",
      "outputs": [],
      "stateMutability": "nonpayable",
      "type": "function"
    },
    {
      "inputs": [
        {
          "internalType": "address[]",
          "name": "_components",
          "type": "address[]"
        },
        {
          "internalType": "uint256[]",
          "name": "_coolOffPeriods",
          "type": "uint256[]"
        }
      ],
      "name": "setCoolOffPeriods",
      "outputs": [],
      "stateMutability": "nonpayable",
      "type": "function"
    },
    {
      "inputs": [
        {
          "internalType": "address[]",
          "name": "_components",
          "type": "address[]"
        },
        {
          "internalType": "uint256[]",
          "name": "_exchanges",
          "type": "uint256[]"
        }
      ],
      "name": "setExchanges",
      "outputs": [],
      "stateMutability": "nonpayable",
      "type": "function"
    },
    {
      "inputs": [
        {
          "internalType": "address[]",
          "name": "_components",
          "type": "address[]"
        },
        {
          "internalType": "uint256[]",
          "name": "_tradeMaximums",
          "type": "uint256[]"
        }
      ],
      "name": "setTradeMaximums",
      "outputs": [],
      "stateMutability": "nonpayable",
      "type": "function"
    },
    {
      "inputs": [
        {
          "internalType": "address[]",
          "name": "_newComponents",
          "type": "address[]"
        },
        {
          "internalType": "uint256[]",
          "name": "_newComponentsTargetUnits",
          "type": "uint256[]"
        },
        {
          "internalType": "uint256[]",
          "name": "_oldComponentsTargetUnits",
          "type": "uint256[]"
        },
        {
          "internalType": "uint256",
          "name": "_positionMultiplier",
          "type": "uint256"
        }
      ],
      "name": "startRebalance",
      "outputs": [],
      "stateMutability": "nonpayable",
      "type": "function"
    },
    {
      "inputs": [],
      "name": "sushiswapRouter",
      "outputs": [
        {
          "internalType": "address",
          "name": "",
          "type": "address"
        }
      ],
      "stateMutability": "view",
      "type": "function"
    },
    {
      "inputs": [
        {
          "internalType": "address",
          "name": "_component",
          "type": "address"
        }
      ],
      "name": "trade",
      "outputs": [],
      "stateMutability": "nonpayable",
      "type": "function"
    },
    {
      "inputs": [
        {
          "internalType": "address",
          "name": "",
          "type": "address"
        }
      ],
      "name": "tradeAllowList",
      "outputs": [
        {
          "internalType": "bool",
          "name": "",
          "type": "bool"
        }
      ],
      "stateMutability": "view",
      "type": "function"
    },
    {
      "inputs": [
        {
          "internalType": "address",
          "name": "_component",
          "type": "address"
        }
      ],
      "name": "tradeRemainingWETH",
      "outputs": [],
      "stateMutability": "nonpayable",
      "type": "function"
    },
    {
      "inputs": [],
      "name": "uniswapRouter",
      "outputs": [
        {
          "internalType": "address",
          "name": "",
          "type": "address"
        }
      ],
      "stateMutability": "view",
      "type": "function"
    },
    {
      "inputs": [
        {
          "internalType": "bool",
          "name": "_status",
          "type": "bool"
        }
      ],
      "name": "updateAnyoneTrade",
      "outputs": [],
      "stateMutability": "nonpayable",
      "type": "function"
    },
    {
      "inputs": [
        {
          "internalType": "address[]",
          "name": "_traders",
          "type": "address[]"
        },
        {
          "internalType": "bool[]",
          "name": "_statuses",
          "type": "bool[]"
        }
      ],
      "name": "updateTraderStatus",
      "outputs": [],
      "stateMutability": "nonpayable",
      "type": "function"
    },
    {
      "inputs": [],
      "name": "weth",
      "outputs": [
        {
          "internalType": "contract IWETH",
          "name": "",
          "type": "address"
        }
      ],
      "stateMutability": "view",
      "type": "function"
    }
  ],
  "bytecode": "0x60806040523480156200001157600080fd5b50604051620040683803806200406883398101604081905262000034916200009b565b600080546001600160a01b03199081166001600160a01b0397881617909155600180556007805482169587169590951790945560088054851693861693909317909255600980548416918516919091179055600a8054909216921691909117905562000133565b600080600080600060a08688031215620000b3578081fd5b8551620000c0816200011a565b6020870151909550620000d3816200011a565b6040870151909450620000e6816200011a565b6060870151909350620000f9816200011a565b60808701519092506200010c816200011a565b809150509295509295909350565b6001600160a01b03811681146200013057600080fd5b50565b613f2580620001436000396000f3fe608060405234801561001057600080fd5b50600436106101585760003560e01c806395550981116100c3578063d1472f1d1161007c578063d1472f1d146102b8578063d1bfa023146102cb578063d1da9334146102de578063e9240c2d146102f1578063eebd30ff146102f9578063f77c47911461030157610158565b80639555098114610240578063a6d68db214610253578063b46f72a414610268578063c39dba4714610288578063c4d66de814610290578063cbeef022146102a357610158565b80635230c396116101155780635230c396146101d15780635a41aeb2146101e65780636d182ed6146101f9578063735de9f71461020c578063847ef08d146102145780638b0dcb4e1461021c57610158565b8063056ba0561461015d5780632986c0e5146101725780633fc8cef31461019057806344385891146101985780634afdd22f146101ab5780634e362459146101be575b600080fd5b61017061016b366004613115565b610309565b005b61017a6103de565b6040516101879190613595565b60405180910390f35b61017a6103f2565b6101706101a63660046131f4565b610401565b6101706101b93660046131f4565b610574565b6101706101cc366004613468565b6106b7565b6101d9610751565b6040516101879190613ce9565b6101706101f43660046131f4565b610757565b61017061020736600461318c565b61089a565b61017a610a48565b610170610a57565b61022f61022a366004613115565b610a59565b604051610187959493929190613d3c565b61017a61024e3660046134f2565b610a88565b61025b610aaf565b604051610187919061361a565b61027b61027636600461314d565b610b12565b604051610187919061362d565b61017a610c4a565b61017061029e366004613115565b610c59565b6102ab610ed5565b6040516101879190613671565b6101706102c6366004613115565b610ede565b6102ab6102d9366004613115565b61113f565b6101706102ec36600461321f565b611154565b61017a61145b565b61017061146a565b61017a611597565b600260015414156103355760405162461bcd60e51b815260040161032c90613c8e565b60405180910390fd5b600260015533610344816115a6565b6103605760405162461bcd60e51b815260040161032c906137cf565b33321461037f5760405162461bcd60e51b815260040161032c9061371b565b610388826115da565b6000806103948461171a565b9150915081156103ad576103a8848261190a565b6103b7565b6103b78482611a71565b5050506001600160a01b031660009081526002602052604090204260039091015560018055565b60065461010090046001600160a01b031681565b6007546001600160a01b031681565b60065461010090046001600160a01b031661041c8133611bde565b6104385760405162461bcd60e51b815260040161032c90613bd0565b61044181611c6c565b61045d5760405162461bcd60e51b815260040161032c90613752565b61046985858585611d70565b60005b8481101561056c57600084848381811061048257fe5b6020029190910135915050600481106104ad5760405162461bcd60e51b815260040161032c9061379a565b8484838181106104b957fe5b90506020020135600260008989868181106104d057fe5b90506020020160208101906104e59190613115565b6001600160a01b0316815260208101919091526040016000206004015586868381811061050e57fe5b90506020020160208101906105239190613115565b6001600160a01b03167f6cda250e3510d021217be0a4cf0d0cafcf6a1d8fd88758881e22dda86026565a8260405161055b9190613ce9565b60405180910390a25060010161046c565b505050505050565b60065461010090046001600160a01b031661058f8133611bde565b6105ab5760405162461bcd60e51b815260040161032c90613bd0565b6105b481611c6c565b6105d05760405162461bcd60e51b815260040161032c90613752565b6105dc85858585611d70565b60005b8481101561056c578383828181106105f357fe5b905060200201356002600088888581811061060a57fe5b905060200201602081019061061f9190613115565b6001600160a01b0316815260208101919091526040016000206001015585858281811061064857fe5b905060200201602081019061065d9190613115565b6001600160a01b03167f8ed585a5166d974578dfb366fb290f0ebbd201018644122adaef2f4f224f375485858481811061069357fe5b905060200201356040516106a79190613ce9565b60405180910390a26001016105df565b60065461010090046001600160a01b03166106d28133611bde565b6106ee5760405162461bcd60e51b815260040161032c90613bd0565b6106f781611c6c565b6107135760405162461bcd60e51b815260040161032c90613752565b6006805460ff19168315159081179091556040517f0fc54d8c9cf44d4c689906554c60dce4f6b9fb1ff4e4b362349967b912ec230090600090a25050565b60045481565b60065461010090046001600160a01b03166107728133611bde565b61078e5760405162461bcd60e51b815260040161032c90613bd0565b61079781611c6c565b6107b35760405162461bcd60e51b815260040161032c90613752565b6107bf85858585611d70565b60005b8481101561056c578383828181106107d657fe5b90506020020135600260008888858181106107ed57fe5b90506020020160208101906108029190613115565b6001600160a01b0316815260208101919091526040016000206002015585858281811061082b57fe5b90506020020160208101906108409190613115565b6001600160a01b03167fa06538565669c334f2748499277e2747fc102fe777bcec613a9f9836cc96030e85858481811061087657fe5b9050602002013560405161088a9190613ce9565b60405180910390a26001016107c2565b60065461010090046001600160a01b03166108b58133611bde565b6108d15760405162461bcd60e51b815260040161032c90613bd0565b6108da81611c6c565b6108f65760405162461bcd60e51b815260040161032c90613752565b8382146109155760405162461bcd60e51b815260040161032c906136ec565b836109325760405162461bcd60e51b815260040161032c90613b0e565b61096e858580806020026020016040519081016040528093929190818152602001838360200280828437600092019190915250611e0b92505050565b1561098b5760405162461bcd60e51b815260040161032c90613a61565b60005b8481101561056c5760008686838181106109a457fe5b90506020020160208101906109b99190613115565b905060008585848181106109c957fe5b90506020020160208101906109de9190613468565b6001600160a01b03831660008181526005602052604090819020805460ff191684151517905551919250907f2151742bf02141f8d0d719bc4154470f2b1f5111a182b4170a872b671411126190610a36908490613671565b60405180910390a2505060010161098e565b6008546001600160a01b031681565b565b600260208190526000918252604090912080546001820154928201546003830154600490930154919392909185565b60038181548110610a9557fe5b6000918252602090912001546001600160a01b0316905081565b60606003805480602002602001604051908101604052809291908181526020018280548015610b0757602002820191906000526020600020905b81546001600160a01b03168152600190910190602001808311610ae9575b505050505090505b90565b60606000610ba4600660019054906101000a90046001600160a01b03166001600160a01b0316635230c3966040518163ffffffff1660e01b815260040160206040518083038186803b158015610b6757600080fd5b505afa158015610b7b573d6000803e3d6000fd5b505050506040513d601f19601f82011682018060405250810190610b9f91906134da565b611eba565b90506060836001600160401b0381118015610bbe57600080fd5b50604051908082528060200260200182016040528015610be8578160200160208202803683370190505b50905060005b84811015610c3f57610c20868683818110610c0557fe5b9050602002016020810190610c1a9190613115565b84611ee0565b828281518110610c2c57fe5b6020908102919091010152600101610bee565b509150505b92915050565b600a546001600160a01b031681565b8033610c658282611bde565b610c815760405162461bcd60e51b815260040161032c90613bd0565b600054604051631d3af8fb60e21b815284916001600160a01b0316906374ebe3ec90610cb1908490600401613595565b60206040518083038186803b158015610cc957600080fd5b505afa158015610cdd573d6000803e3d6000fd5b505050506040513d601f19601f82011682018060405250810190610d019190613484565b610d1d5760405162461bcd60e51b815260040161032c90613b8d565b610d2681611f25565b610d425760405162461bcd60e51b815260040161032c9061383d565b60065461010090046001600160a01b031615610d705760405162461bcd60e51b815260040161032c90613a32565b6060846001600160a01b031663802758606040518163ffffffff1660e01b815260040160006040518083038186803b158015610dab57600080fd5b505afa158015610dbf573d6000803e3d6000fd5b505050506040513d6000823e601f3d908101601f19168201604052610de7919081019061335d565b905060005b8151811015610e5357610dfd612f75565b828281518110610e0957fe5b60200260200101519050610e208160400151611eba565b81516001600160a01b03908116600090815260026020526040808220939093559251168252812060030155600101610dec565b5084600660016101000a8154816001600160a01b0302191690836001600160a01b03160217905550846001600160a01b0316630ffe0f1e6040518163ffffffff1660e01b8152600401600060405180830381600087803b158015610eb657600080fd5b505af1158015610eca573d6000803e3d6000fd5b505050505050505050565b60065460ff1681565b60026001541415610f015760405162461bcd60e51b815260040161032c90613c8e565b600260015533610f10816115a6565b610f2c5760405162461bcd60e51b815260040161032c906137cf565b333214610f4b5760405162461bcd60e51b815260040161032c9061371b565b610f53611f54565b610f6f5760405162461bcd60e51b815260040161032c90613c3c565b610f78826115da565b6000610f838361171a565b6006546040516370a0823160e01b8152919350600092506001600160a01b03808716926370a0823192610fc0926101009091041690600401613595565b60206040518083038186803b158015610fd857600080fd5b505afa158015610fec573d6000803e3d6000fd5b505050506040513d601f19601f8201168201806040525081019061101091906134da565b6007546006546040516370a0823160e01b81529293506000926001600160a01b03928316926370a08231926110519261010090910490911690600401613595565b60206040518083038186803b15801561106957600080fd5b505afa15801561107d573d6000803e3d6000fd5b505050506040513d601f19601f820116820180604052508101906110a191906134da565b6007546001600160a01b038781166000908152600260205260409020600401549293506110d79291169087906001908590612043565b6007546000906110f2906001600160a01b03168784866121de565b9150508381106111145760405162461bcd60e51b815260040161032c90613977565b5050506001600160a01b03909216600090815260026020526040902042600390910155505060018055565b60056020526000908152604090205460ff1681565b60065461010090046001600160a01b031661116f8133611bde565b61118b5760405162461bcd60e51b815260040161032c90613bd0565b61119481611c6c565b6111b05760405162461bcd60e51b815260040161032c90613752565b8685146111cf5760405162461bcd60e51b815260040161032c906136ec565b6060600660019054906101000a90046001600160a01b03166001600160a01b03166399d50d5d6040518163ffffffff1660e01b815260040160006040518083038186803b15801561121f57600080fd5b505afa158015611233573d6000803e3d6000fd5b505050506040513d6000823e601f3d908101601f1916820160405261125b91908101906132bd565b8051909150841461127e5760405162461bcd60e51b815260040161032c906138b5565b60606112c58a8a80806020026020016040519081016040528093929190818152602001838360200280828437600092019190915250869392505063ffffffff61233e169050565b9050606061133f89898080602002602001604051908101604052809392919081815260200183836020028082843760009201919091525050604080516020808d0282810182019093528c82529093508c92508b918291850190849080828437600092019190915250929392505063ffffffff61242f169050565b905061134a82611e0b565b156113675760405162461bcd60e51b815260040161032c906139ba565b60005b825181101561143457600083828151811061138157fe5b60200260200101519050600083838151811061139957fe5b60209081029190910101516007549091506001600160a01b03838116911614156113d55760405162461bcd60e51b815260040161032c90613874565b6001600160a01b03821660008181526002602052604090819020839055517ffdd15d607f52297e9a37790659c4861b2aa4d97f31337e60a84b4dca6acc99cd906114229084908c90613cf2565b60405180910390a2505060010161136a565b508151611448906003906020850190612fb9565b5050506004929092555050505050505050565b6009546001600160a01b031681565b6002600154141561148d5760405162461bcd60e51b815260040161032c90613c8e565b60026001553361149c816115a6565b6114b85760405162461bcd60e51b815260040161032c906137cf565b6114c06124fc565b801561155657506006546007546040516366cb8d2f60e01b815260009261010090046001600160a01b03908116926366cb8d2f926115049290911690600401613595565b60206040518083038186803b15801561151c57600080fd5b505afa158015611530573d6000803e3d6000fd5b505050506040513d601f19601f8201168201806040525081019061155491906134da565b135b6115725760405162461bcd60e51b815260040161032c9061368f565b60045461158d90670de998704354400063ffffffff6125e216565b6004555060018055565b6000546001600160a01b031681565b60065460009060ff16806115d257506001600160a01b03821660009081526005602052604090205460ff165b90505b919050565b61164781600380548060200260200160405190810160405280929190818152602001828054801561163457602002820191906000526020600020905b81546001600160a01b03168152600190910190602001808311611616575b505050505061260090919063ffffffff16565b6116635760405162461bcd60e51b815260040161032c90613a98565b61166b61301a565b506001600160a01b038116600090815260026020818152604092839020835160a0810185528154815260018201549281019290925291820154928101929092526003810154606083015260040154608082018190526116dc5760405162461bcd60e51b815260040161032c9061390b565b426116f88260400151836060015161261690919063ffffffff16565b11156117165760405162461bcd60e51b815260040161032c90613c07565b5050565b6000806000600660019054906101000a90046001600160a01b03166001600160a01b03166318160ddd6040518163ffffffff1660e01b815260040160206040518083038186803b15801561176d57600080fd5b505afa158015611781573d6000803e3d6000fd5b505050506040513d601f19601f820116820180604052508101906117a591906134da565b6001600160a01b03808616600090815260026020908152604080832060010154600654825163291861cb60e11b815292519697509095939461180a946101009092041692635230c3969260048082019391829003018186803b158015610b6757600080fd5b6006546040516366cb8d2f60e01b815291925060009161185f9161010090046001600160a01b0316906366cb8d2f90611847908b90600401613595565b60206040518083038186803b158015610b6757600080fd5b9050600061186d8884611ee0565b90508082141561188f5760405162461bcd60e51b815260040161032c90613ae2565b60006118a1868463ffffffff61263b16565b905060006118b5878463ffffffff61264d16565b90508181116118e55760006118e06118d3848463ffffffff6126a416565b889063ffffffff6126e616565b6118fa565b60016118fa6118d3838563ffffffff6126a416565b9850985050505050505050915091565b6006546040516370a0823160e01b81526000916001600160a01b03808616926370a0823192611943926101009091041690600401613595565b60206040518083038186803b15801561195b57600080fd5b505afa15801561196f573d6000803e3d6000fd5b505050506040513d601f19601f8201168201806040525081019061199391906134da565b6007546006546040516370a0823160e01b81529293506000926001600160a01b03928316926370a08231926119d49261010090910490911690600401613595565b60206040518083038186803b1580156119ec57600080fd5b505afa158015611a00573d6000803e3d6000fd5b505050506040513d601f19601f82011682018060405250810190611a2491906134da565b6007546001600160a01b03868116600090815260026020526040812060040154939450611a5993919092169187918790612043565b60075461056c906001600160a01b03168583856121de565b6007546006546040516370a0823160e01b81526000926001600160a01b03908116926370a0823192611aaf9261010090920490911690600401613595565b60206040518083038186803b158015611ac757600080fd5b505afa158015611adb573d6000803e3d6000fd5b505050506040513d601f19601f82011682018060405250810190611aff91906134da565b6006546040516370a0823160e01b81529192506000916001600160a01b03808716926370a0823192611b3d9261010090920490911690600401613595565b60206040518083038186803b158015611b5557600080fd5b505afa158015611b69573d6000803e3d6000fd5b505050506040513d601f19601f82011682018060405250810190611b8d91906134da565b6007546001600160a01b03808716600090815260026020526040902060040154929350611bc592879291909116906001908790612043565b60075461056c9085906001600160a01b031683856121de565b6000816001600160a01b0316836001600160a01b031663481c6a756040518163ffffffff1660e01b815260040160206040518083038186803b158015611c2357600080fd5b505afa158015611c37573d6000803e3d6000fd5b505050506040513d601f19601f82011682018060405250810190611c5b9190613131565b6001600160a01b0316149392505050565b60008054604051631d3af8fb60e21b81526001600160a01b03909116906374ebe3ec90611c9d908590600401613595565b60206040518083038186803b158015611cb557600080fd5b505afa158015611cc9573d6000803e3d6000fd5b505050506040513d601f19601f82011682018060405250810190611ced9190613484565b80156115d257506040516335fc6c9f60e21b81526001600160a01b0383169063d7f1b27c90611d20903090600401613595565b60206040518083038186803b158015611d3857600080fd5b505afa158015611d4c573d6000803e3d6000fd5b505050506040513d601f19601f820116820180604052508101906115d29190613484565b828114611d8f5760405162461bcd60e51b815260040161032c906136ec565b82611dac5760405162461bcd60e51b815260040161032c90613b0e565b611de8848480806020026020016040519081016040528093929190818152602001838360200280828437600092019190915250611e0b92505050565b15611e055760405162461bcd60e51b815260040161032c906139ba565b50505050565b600080825111611e2d5760405162461bcd60e51b815260040161032c90613cc5565b60005b6001835103811015611eb1576000838281518110611e4a57fe5b6020026020010151905060008260010190505b8451811015611ea757848181518110611e7257fe5b60200260200101516001600160a01b0316826001600160a01b03161415611e9f57600193505050506115d5565b600101611e5d565b5050600101611e30565b50600092915050565b600080821215611edc5760405162461bcd60e51b815260040161032c90613942565b5090565b6004546001600160a01b0383166000908152600260205260408120549091611f1e91611f12908563ffffffff6126fc16565b9063ffffffff61273616565b9392505050565b6040516353bae5f760e01b81526000906001600160a01b038316906353bae5f790611d20903090600401613595565b600080611fa8600660019054906101000a90046001600160a01b03166001600160a01b0316635230c3966040518163ffffffff1660e01b815260040160206040518083038186803b158015610b6757600080fd5b905060005b60035481101561203a57600060038281548110611fc657fe5b60009182526020822001546006546040516366cb8d2f60e01b81526001600160a01b03928316945061201092610100909204909116906366cb8d2f90611847908690600401613595565b61201a8386611ee0565b1090508015612030576000945050505050610b0f565b5050600101611fad565b50600191505090565b6007546006546040516370a0823160e01b81526000926001600160a01b03908116926370a08231926120819261010090920490911690600401613595565b60206040518083038186803b15801561209957600080fd5b505afa1580156120ad573d6000803e3d6000fd5b505050506040513d601f19601f820116820180604052508101906120d191906134da565b905060006060600384146120f1576120ec8888888888612778565b6120fe565b6120fe88888888876128fe565b60075491935091506000906001600160a01b038a81169116146121215785612123565b835b6006549091506121439061010090046001600160a01b03168a85846129cb565b6006546040516347b7819960e11b81526101009091046001600160a01b031690638f6f03329061217c90869060009087906004016135f3565b600060405180830381600087803b15801561219657600080fd5b505af11580156121aa573d6000803e3d6000fd5b505050506040513d6000823e601f3d908101601f191682016040526121d291908101906134a0565b50505050505050505050565b6000806000600660019054906101000a90046001600160a01b03166001600160a01b03166318160ddd6040518163ffffffff1660e01b815260040160206040518083038186803b15801561223157600080fd5b505afa158015612245573d6000803e3d6000fd5b505050506040513d601f19601f8201168201806040525081019061226991906134da565b60065490915060009061228c9061010090046001600160a01b0316898489612a92565b50506006549091506000906122b19061010090046001600160a01b0316898589612a92565b509091506122c79050878363ffffffff6126a416565b94506122d9818763ffffffff6126a416565b9350876001600160a01b0316896001600160a01b0316336001600160a01b03167f3fcfb2f2e0146d5be7268f9e4cd3c4c0ce3428f68805db227b7fc378db7519ac888860405161232a929190613cf2565b60405180910390a450505094509492505050565b8151815160609190828183016001600160401b038111801561235f57600080fd5b50604051908082528060200260200182016040528015612389578160200160208202803683370190505b50905060005b838110156123d7578681815181106123a357fe5b60200260200101518282815181106123b757fe5b6001600160a01b039092166020928302919091019091015260010161238f565b5060005b82811015612425578581815181106123ef57fe5b6020026020010151828286018151811061240557fe5b6001600160a01b03909216602092830291909101909101526001016123db565b5095945050505050565b8151815160609190828183016001600160401b038111801561245057600080fd5b5060405190808252806020026020018201604052801561247a578160200160208202803683370190505b50905060005b838110156124bb5786818151811061249457fe5b60200260200101518282815181106124a857fe5b6020908102919091010152600101612480565b5060005b82811015612425578581815181106124d357fe5b602002602001015182828601815181106124e957fe5b60209081029190910101526001016124bf565b600080612550600660019054906101000a90046001600160a01b03166001600160a01b0316635230c3966040518163ffffffff1660e01b815260040160206040518083038186803b158015610b6757600080fd5b905060005b60035481101561203a5760006003828154811061256e57fe5b60009182526020822001546006546040516366cb8d2f60e01b81526001600160a01b0392831694506125b892610100909204909116906366cb8d2f90611847908690600401613595565b6125c28386611ee0565b14801591506125d8576000945050505050610b0f565b5050600101612555565b6000611f1e82611f1285670de0b6b3a764000063ffffffff6126fc16565b60008061260d8484612b83565b95945050505050565b600082820183811015611f1e5760405162461bcd60e51b815260040161032c90613806565b6000611f1e838363ffffffff612be916565b600082158061265a575081155b1561266757506000610c44565b611f1e6001612698670de0b6b3a7640000611f128361268c898963ffffffff6126fc16565b9063ffffffff6126a416565b9063ffffffff61261616565b6000611f1e83836040518060400160405280601e81526020017f536166654d6174683a207375627472616374696f6e206f766572666c6f770000815250612c07565b60008183106126f55781611f1e565b5090919050565b60008261270b57506000610c44565b8282028284828161271857fe5b0414611f1e5760405162461bcd60e51b815260040161032c906139f1565b6000611f1e83836040518060400160405280601a81526020017f536166654d6174683a206469766973696f6e206279207a65726f000000000000815250612c33565b600060608160018414612796576009546001600160a01b03166127a3565b6008546001600160a01b03165b604080516002808252606080830184529394508392602083019080368337019050509050600088156127f357604051806080016040528060438152602001613e3060439139925060019050612819565b604051806080016040528060438152602001613e73604391399250612816612c6a565b90505b8a8260008151811061282757fe5b60200260200101906001600160a01b031690816001600160a01b031681525050898260018151811061285557fe5b6001600160a01b03928316602091820292909201015260065460609185918b9185918791610100909104166128914260b463ffffffff61261616565b6040516024016128a5959493929190613d00565b60408051601f1981840301815290829052916128c091613579565b6040519081900390206020820180516001600160e01b03166001600160e01b0319909216919091179052949650939450505050509550959350505050565b600a546000906060906001600160a01b0316818387612936576040518060600160405280603a8152602001613eb6603a913986612952565b604051806060016040528060398152602001613df76039913960015b915091506060828b8b8a8560036040516024016129739594939291906135a9565b60408051601f19818403018152908290529161298e91613579565b6040519081900390206020820180516001600160e01b03166001600160e01b03199092169190911790529395509293505050509550959350505050565b606082826040516024016129e09291906135da565b60408051601f198184030181529181526020820180516001600160e01b031663095ea7b360e01b179052516347b7819960e11b81529091506001600160a01b03861690638f6f033290612a3c90879060009086906004016135f3565b600060405180830381600087803b158015612a5657600080fd5b505af1158015612a6a573d6000803e3d6000fd5b505050506040513d6000823e601f3d908101601f1916820160405261056c91908101906134a0565b600080600080866001600160a01b03166370a08231896040518263ffffffff1660e01b8152600401612ac49190613595565b60206040518083038186803b158015612adc57600080fd5b505afa158015612af0573d6000803e3d6000fd5b505050506040513d601f19601f82011682018060405250810190612b1491906134da565b90506000612b47896001600160a01b03166366cb8d2f8a6040518263ffffffff1660e01b81526004016118479190613595565b905060008215612b6457612b5d88888585612c70565b9050612b68565b5060005b612b738a8a83612cbf565b9199909850909650945050505050565b81516000908190815b81811015612bd657846001600160a01b0316868281518110612baa57fe5b60200260200101516001600160a01b03161415612bce57925060019150612be29050565b600101612b8c565b50600019600092509250505b9250929050565b6000611f1e670de0b6b3a7640000611f12858563ffffffff6126fc16565b60008184841115612c2b5760405162461bcd60e51b815260040161032c919061367c565b505050900390565b60008183612c545760405162461bcd60e51b815260040161032c919061367c565b506000838581612c6057fe5b0495945050505050565b60001990565b600080612c93612c86848863ffffffff612be916565b869063ffffffff6126a416565b9050612cb586612ca9868463ffffffff6126a416565b9063ffffffff6125e216565b9695505050505050565b6000612ccb8484612e3d565b905080158015612cdb5750600082115b15612d5257612cea8484612ec4565b612d4d576040516304e3532760e41b81526001600160a01b03851690634e35327090612d1a908690600401613595565b600060405180830381600087803b158015612d3457600080fd5b505af1158015612d48573d6000803e3d6000fd5b505050505b612dcf565b808015612d5d575081155b15612dcf57612d6c8484612ec4565b612dcf57604051636f86c89760e01b81526001600160a01b03851690636f86c89790612d9c908690600401613595565b600060405180830381600087803b158015612db657600080fd5b505af1158015612dca573d6000803e3d6000fd5b505050505b836001600160a01b0316632ba57d1784612de885612f50565b6040518363ffffffff1660e01b8152600401612e059291906135da565b600060405180830381600087803b158015612e1f57600080fd5b505af1158015612e33573d6000803e3d6000fd5b5050505050505050565b600080836001600160a01b03166366cb8d2f846040518263ffffffff1660e01b8152600401612e6c9190613595565b60206040518083038186803b158015612e8457600080fd5b505afa158015612e98573d6000803e3d6000fd5b505050506040513d601f19601f82011682018060405250810190612ebc91906134da565b139392505050565b600080836001600160a01b031663a7bdad03846040518263ffffffff1660e01b8152600401612ef39190613595565b60006040518083038186803b158015612f0b57600080fd5b505afa158015612f1f573d6000803e3d6000fd5b505050506040513d6000823e601f3d908101601f19168201604052612f4791908101906132bd565b51119392505050565b6000600160ff1b8210611edc5760405162461bcd60e51b815260040161032c90613b45565b6040518060a0016040528060006001600160a01b0316815260200160006001600160a01b0316815260200160008152602001600060ff168152602001606081525090565b82805482825590600052602060002090810192821561300e579160200282015b8281111561300e57825182546001600160a01b0319166001600160a01b03909116178255602090920191600190910190612fd9565b50611edc929150613049565b6040518060a0016040528060008152602001600081526020016000815260200160008152602001600081525090565b610b0f91905b80821115611edc5780546001600160a01b031916815560010161304f565b60008083601f84011261307e578182fd5b5081356001600160401b03811115613094578182fd5b6020830191508360208083028501011115612be257600080fd5b600082601f8301126130be578081fd5b81516001600160401b038111156130d3578182fd5b6130e6601f8201601f1916602001613d5f565b91508082528360208285010111156130fd57600080fd5b61310e816020840160208601613da4565b5092915050565b600060208284031215613126578081fd5b8135611f1e81613dd0565b600060208284031215613142578081fd5b8151611f1e81613dd0565b6000806020838503121561315f578081fd5b82356001600160401b03811115613174578182fd5b6131808582860161306d565b90969095509350505050565b600080600080604085870312156131a1578182fd5b84356001600160401b03808211156131b7578384fd5b6131c38883890161306d565b909650945060208701359150808211156131db578384fd5b506131e88782880161306d565b95989497509550505050565b60008060008060408587031215613209578384fd5b84356001600160401b03808211156131b7578586fd5b60008060008060008060006080888a031215613239578283fd5b87356001600160401b038082111561324f578485fd5b61325b8b838c0161306d565b909950975060208a0135915080821115613273578485fd5b61327f8b838c0161306d565b909750955060408a0135915080821115613297578485fd5b506132a48a828b0161306d565b989b979a50959894979596606090950135949350505050565b600060208083850312156132cf578182fd5b82516001600160401b038111156132e4578283fd5b80840185601f8201126132f5578384fd5b8051915061330a61330583613d85565b613d5f565b8281528381019082850185850284018601891015613326578687fd5b8693505b8484101561335157805161333d81613dd0565b83526001939093019291850191850161332a565b50979650505050505050565b6000602080838503121561336f578182fd5b82516001600160401b0380821115613385578384fd5b81850186601f820112613396578485fd5b805192506133a661330584613d85565b83815284810190828601875b86811015613459578151850160a080601f19838f030112156133d2578a8bfd5b6133db81613d5f565b8a8301516133e881613dd0565b81526040838101516133f981613dd0565b808d84015250606080850151828401526080850151915060ff8216821461341e578d8efd5b8201528282015189811115613431578c8dfd5b61343f8f8d838701016130ae565b6080830152508652505092870192908701906001016133b2565b50909998505050505050505050565b600060208284031215613479578081fd5b8135611f1e81613de8565b600060208284031215613495578081fd5b8151611f1e81613de8565b6000602082840312156134b1578081fd5b81516001600160401b038111156134c6578182fd5b6134d2848285016130ae565b949350505050565b6000602082840312156134eb578081fd5b5051919050565b600060208284031215613503578081fd5b5035919050565b6000815180845260208085019450808401835b838110156135425781516001600160a01b03168752958201959082019060010161351d565b509495945050505050565b60008151808452613565816020860160208601613da4565b601f01601f19169290920160200192915050565b6000825161358b818460208701613da4565b9190910192915050565b6001600160a01b0391909116815260200190565b6001600160a01b03958616815293909416602084015260408301919091526060820152608081019190915260a00190565b6001600160a01b03929092168252602082015260400190565b600060018060a01b03851682528360208301526060604083015261260d606083018461354d565b600060208252611f1e602083018461350a565b6020808252825182820181905260009190848201906040850190845b8181101561366557835183529284019291840191600101613649565b50909695505050505050565b901515815260200190565b600060208252611f1e602083018461354d565b6020808252603e908201527f54617267657473206d757374206265206d657420616e64204554482072656d6160408201527f696e696e6720696e206f7264657220746f207261697365207461726765740000606082015260800190565b602080825260159082015274082e4e4c2f240d8cadccee8d040dad2e6dac2e8c6d605b1b604082015260600190565b6020808252601a908201527f43616c6c6572206d75737420626520454f412041646472657373000000000000604082015260600190565b60208082526028908201527f4d75737420626520612076616c696420616e6420696e697469616c697a65642060408201526729b2ba2a37b5b2b760c11b606082015260800190565b6020808252818101527f556e7265636f676e697a65642065786368616e6765206964656e746966696572604082015260600190565b6020808252601e908201527f41646472657373206e6f74207065726d697474656420746f2074726164650000604082015260600190565b6020808252601b908201527f536166654d6174683a206164646974696f6e206f766572666c6f770000000000604082015260600190565b6020808252601e908201527f4d7573742062652070656e64696e6720696e697469616c697a6174696f6e0000604082015260600190565b60208082526021908201527f574554482063616e6e6f7420626520616e20696e64657820636f6d706f6e656e6040820152601d60fa1b606082015260800190565b60208082526036908201527f4e657720616c6c6f636174696f6e206d75737420686176652074617267657420604082015275666f7220616c6c206f6c6420636f6d706f6e656e747360501b606082015260800190565b6020808252601a908201527f45786368616e6765206d75737420626520737065636966696564000000000000604082015260600190565b6020808252818101527f53616665436173743a2076616c7565206d75737420626520706f736974697665604082015260600190565b60208082526023908201527f54726164652073697a6520657863656564732074726164652073697a65206c696040820152621b5a5d60ea1b606082015260800190565b6020808252601b908201527f43616e6e6f74206475706c696361746520636f6d706f6e656e74730000000000604082015260600190565b60208082526021908201527f536166654d6174683a206d756c7469706c69636174696f6e206f766572666c6f6040820152607760f81b606082015260800190565b6020808252601590820152744d6f64756c6520616c726561647920696e2075736560581b604082015260600190565b60208082526018908201527f43616e6e6f74206475706c696361746520747261646572730000000000000000604082015260600190565b6020808252602a908201527f50617373656420636f6d706f6e656e74206e6f7420696e636c7564656420696e60408201526920726562616c616e636560b01b606082015260800190565b60208082526012908201527115185c99d95d08185b1c9958591e481b595d60721b604082015260600190565b60208082526018908201527f4172726179206c656e677468206d757374206265203e20300000000000000000604082015260600190565b60208082526028908201527f53616665436173743a2076616c756520646f65736e27742066697420696e2061604082015267371034b73a191a9b60c11b606082015260800190565b60208082526023908201527f4d75737420626520636f6e74726f6c6c65722d656e61626c656420536574546f60408201526235b2b760e91b606082015260800190565b6020808252601c908201527f4d7573742062652074686520536574546f6b656e206d616e6167657200000000604082015260600190565b6020808252818101527f436f6f6c206f666620706572696f6420686173206e6f7420656c61707365642e604082015260600190565b60208082526032908201527f4d7573742073656c6c20616c6c2073656c6c61626c6520746f6b656e73206265604082015271199bdc994818d85b8818994818d85b1b195960721b606082015260800190565b6020808252601f908201527f5265656e7472616e637947756172643a207265656e7472616e742063616c6c00604082015260600190565b6020808252600a90820152694120697320656d70747960b01b604082015260600190565b90815260200190565b918252602082015260400190565b600086825285602083015260a06040830152613d1f60a083018661350a565b6001600160a01b0394909416606083015250608001529392505050565b948552602085019390935260408401919091526060830152608082015260a00190565b6040518181016001600160401b0381118282101715613d7d57600080fd5b604052919050565b60006001600160401b03821115613d9a578081fd5b5060209081020190565b60005b83811015613dbf578181015183820152602001613da7565b83811115611e055750506000910152565b6001600160a01b0381168114613de557600080fd5b50565b8015158114613de557600080fdfe736d617274537761704578616374496e28616464726573732c616464726573732c75696e743235362c75696e743235362c75696e7432353629737761704578616374546f6b656e73466f72546f6b656e732875696e743235362c75696e743235362c616464726573735b5d2c616464726573732c75696e743235362973776170546f6b656e73466f724578616374546f6b656e732875696e743235362c75696e743235362c616464726573735b5d2c616464726573732c75696e7432353629736d6172745377617045786163744f757428616464726573732c616464726573732c75696e743235362c75696e743235362c75696e7432353629a26469706673582212209540378373efed840290392ddbdd7a1ccc2ca2f45992033e902ea9031b45a7b464736f6c634300060a0033",
  "linkReferences": {},
  "deployedLinkReferences": {}
}