{
    "_format": "hh-sol-artifact-1",
    "contractName": "SlippageIssuanceModule",
    "sourceName": "contracts/protocol/modules/v1/SlippageIssuanceModule.sol",
    "abi": [
        {
            "inputs": [
                {
                    "internalType": "contract IController",
                    "name": "_controller",
                    "type": "address"
                }
            ],
            "stateMutability": "nonpayable",
            "type": "constructor"
        },
        {
            "anonymous": false,
            "inputs": [
                {
                    "indexed": true,
                    "internalType": "contract ISetToken",
                    "name": "_setToken",
                    "type": "address"
                },
                {
                    "indexed": false,
                    "internalType": "address",
                    "name": "_newFeeRecipient",
                    "type": "address"
                }
            ],
            "name": "FeeRecipientUpdated",
            "type": "event"
        },
        {
            "anonymous": false,
            "inputs": [
                {
                    "indexed": true,
                    "internalType": "contract ISetToken",
                    "name": "_setToken",
                    "type": "address"
                },
                {
                    "indexed": false,
                    "internalType": "uint256",
                    "name": "_newIssueFee",
                    "type": "uint256"
                }
            ],
            "name": "IssueFeeUpdated",
            "type": "event"
        },
        {
            "anonymous": false,
            "inputs": [
                {
                    "indexed": true,
                    "internalType": "contract ISetToken",
                    "name": "_setToken",
                    "type": "address"
                },
                {
                    "indexed": false,
                    "internalType": "uint256",
                    "name": "_newRedeemFee",
                    "type": "uint256"
                }
            ],
            "name": "RedeemFeeUpdated",
            "type": "event"
        },
        {
            "anonymous": false,
            "inputs": [
                {
                    "indexed": true,
                    "internalType": "contract ISetToken",
                    "name": "_setToken",
                    "type": "address"
                },
                {
                    "indexed": true,
                    "internalType": "address",
                    "name": "_issuer",
                    "type": "address"
                },
                {
                    "indexed": true,
                    "internalType": "address",
                    "name": "_to",
                    "type": "address"
                },
                {
                    "indexed": false,
                    "internalType": "address",
                    "name": "_hookContract",
                    "type": "address"
                },
                {
                    "indexed": false,
                    "internalType": "uint256",
                    "name": "_quantity",
                    "type": "uint256"
                },
                {
                    "indexed": false,
                    "internalType": "uint256",
                    "name": "_managerFee",
                    "type": "uint256"
                },
                {
                    "indexed": false,
                    "internalType": "uint256",
                    "name": "_protocolFee",
                    "type": "uint256"
                }
            ],
            "name": "SetTokenIssued",
            "type": "event"
        },
        {
            "anonymous": false,
            "inputs": [
                {
                    "indexed": true,
                    "internalType": "contract ISetToken",
                    "name": "_setToken",
                    "type": "address"
                },
                {
                    "indexed": true,
                    "internalType": "address",
                    "name": "_redeemer",
                    "type": "address"
                },
                {
                    "indexed": true,
                    "internalType": "address",
                    "name": "_to",
                    "type": "address"
                },
                {
                    "indexed": false,
                    "internalType": "uint256",
                    "name": "_quantity",
                    "type": "uint256"
                },
                {
                    "indexed": false,
                    "internalType": "uint256",
                    "name": "_managerFee",
                    "type": "uint256"
                },
                {
                    "indexed": false,
                    "internalType": "uint256",
                    "name": "_protocolFee",
                    "type": "uint256"
                }
            ],
            "name": "SetTokenRedeemed",
            "type": "event"
        },
        {
            "inputs": [
                {
                    "internalType": "contract ISetToken",
                    "name": "_setToken",
                    "type": "address"
                },
                {
                    "internalType": "uint256",
                    "name": "_quantity",
                    "type": "uint256"
                },
                {
                    "internalType": "bool",
                    "name": "_isIssue",
                    "type": "bool"
                }
            ],
            "name": "calculateTotalFees",
            "outputs": [
                {
                    "internalType": "uint256",
                    "name": "totalQuantity",
                    "type": "uint256"
                },
                {
                    "internalType": "uint256",
                    "name": "managerFee",
                    "type": "uint256"
                },
                {
                    "internalType": "uint256",
                    "name": "protocolFee",
                    "type": "uint256"
                }
            ],
            "stateMutability": "view",
            "type": "function",
            "gas": "0xa7d8c0"
        },
        {
            "inputs": [],
            "name": "controller",
            "outputs": [
                {
                    "internalType": "contract IController",
                    "name": "",
                    "type": "address"
                }
            ],
            "stateMutability": "view",
            "type": "function",
            "gas": "0xa7d8c0"
        },
        {
            "inputs": [
                {
                    "internalType": "contract ISetToken",
                    "name": "_setToken",
                    "type": "address"
                }
            ],
            "name": "getModuleIssuanceHooks",
            "outputs": [
                {
                    "internalType": "address[]",
                    "name": "",
                    "type": "address[]"
                }
            ],
            "stateMutability": "view",
            "type": "function",
            "gas": "0xa7d8c0"
        },
        {
            "inputs": [
                {
                    "internalType": "contract ISetToken",
                    "name": "_setToken",
                    "type": "address"
                },
                {
                    "internalType": "uint256",
                    "name": "_quantity",
                    "type": "uint256"
                }
            ],
            "name": "getRequiredComponentIssuanceUnits",
            "outputs": [
                {
                    "internalType": "address[]",
                    "name": "",
                    "type": "address[]"
                },
                {
                    "internalType": "uint256[]",
                    "name": "",
                    "type": "uint256[]"
                },
                {
                    "internalType": "uint256[]",
                    "name": "",
                    "type": "uint256[]"
                }
            ],
            "stateMutability": "view",
            "type": "function",
            "gas": "0xa7d8c0"
        },
        {
            "inputs": [
                {
                    "internalType": "contract ISetToken",
                    "name": "_setToken",
                    "type": "address"
                },
                {
                    "internalType": "uint256",
                    "name": "_quantity",
                    "type": "uint256"
                }
            ],
            "name": "getRequiredComponentIssuanceUnitsOffChain",
            "outputs": [
                {
                    "internalType": "address[]",
                    "name": "",
                    "type": "address[]"
                },
                {
                    "internalType": "uint256[]",
                    "name": "",
                    "type": "uint256[]"
                },
                {
                    "internalType": "uint256[]",
                    "name": "",
                    "type": "uint256[]"
                }
            ],
            "stateMutability": "nonpayable",
            "type": "function",
            "gas": "0xa7d8c0"
        },
        {
            "inputs": [
                {
                    "internalType": "contract ISetToken",
                    "name": "_setToken",
                    "type": "address"
                },
                {
                    "internalType": "uint256",
                    "name": "_quantity",
                    "type": "uint256"
                }
            ],
            "name": "getRequiredComponentRedemptionUnits",
            "outputs": [
                {
                    "internalType": "address[]",
                    "name": "",
                    "type": "address[]"
                },
                {
                    "internalType": "uint256[]",
                    "name": "",
                    "type": "uint256[]"
                },
                {
                    "internalType": "uint256[]",
                    "name": "",
                    "type": "uint256[]"
                }
            ],
            "stateMutability": "view",
            "type": "function",
            "gas": "0xa7d8c0"
        },
        {
            "inputs": [
                {
                    "internalType": "contract ISetToken",
                    "name": "_setToken",
                    "type": "address"
                },
                {
                    "internalType": "uint256",
                    "name": "_quantity",
                    "type": "uint256"
                }
            ],
            "name": "getRequiredComponentRedemptionUnitsOffChain",
            "outputs": [
                {
                    "internalType": "address[]",
                    "name": "",
                    "type": "address[]"
                },
                {
                    "internalType": "uint256[]",
                    "name": "",
                    "type": "uint256[]"
                },
                {
                    "internalType": "uint256[]",
                    "name": "",
                    "type": "uint256[]"
                }
            ],
            "stateMutability": "nonpayable",
            "type": "function",
            "gas": "0xa7d8c0"
        },
        {
            "inputs": [
                {
                    "internalType": "contract ISetToken",
                    "name": "_setToken",
                    "type": "address"
                },
                {
                    "internalType": "uint256",
                    "name": "_maxManagerFee",
                    "type": "uint256"
                },
                {
                    "internalType": "uint256",
                    "name": "_managerIssueFee",
                    "type": "uint256"
                },
                {
                    "internalType": "uint256",
                    "name": "_managerRedeemFee",
                    "type": "uint256"
                },
                {
                    "internalType": "address",
                    "name": "_feeRecipient",
                    "type": "address"
                },
                {
                    "internalType": "contract IManagerIssuanceHook",
                    "name": "_managerIssuanceHook",
                    "type": "address"
                }
            ],
            "name": "initialize",
            "outputs": [],
            "stateMutability": "nonpayable",
            "type": "function",
            "gas": "0xa7d8c0"
        },
        {
            "inputs": [
                {
                    "internalType": "contract ISetToken",
                    "name": "_setToken",
                    "type": "address"
                },
                {
                    "internalType": "address",
                    "name": "_hook",
                    "type": "address"
                }
            ],
            "name": "isModuleIssuanceHook",
            "outputs": [
                {
                    "internalType": "bool",
                    "name": "",
                    "type": "bool"
                }
            ],
            "stateMutability": "view",
            "type": "function",
            "gas": "0xa7d8c0"
        },
        {
            "inputs": [
                {
                    "internalType": "contract ISetToken",
                    "name": "",
                    "type": "address"
                }
            ],
            "name": "issuanceSettings",
            "outputs": [
                {
                    "internalType": "uint256",
                    "name": "maxManagerFee",
                    "type": "uint256"
                },
                {
                    "internalType": "uint256",
                    "name": "managerIssueFee",
                    "type": "uint256"
                },
                {
                    "internalType": "uint256",
                    "name": "managerRedeemFee",
                    "type": "uint256"
                },
                {
                    "internalType": "address",
                    "name": "feeRecipient",
                    "type": "address"
                },
                {
                    "internalType": "contract IManagerIssuanceHook",
                    "name": "managerIssuanceHook",
                    "type": "address"
                }
            ],
            "stateMutability": "view",
            "type": "function",
            "gas": "0xa7d8c0"
        },
        {
            "inputs": [
                {
                    "internalType": "contract ISetToken",
                    "name": "",
                    "type": "address"
                },
                {
                    "internalType": "uint256",
                    "name": "",
                    "type": "uint256"
                },
                {
                    "internalType": "address",
                    "name": "",
                    "type": "address"
                }
            ],
            "name": "issue",
            "outputs": [],
            "stateMutability": "nonpayable",
            "type": "function",
            "gas": "0xa7d8c0"
        },
        {
            "inputs": [
                {
                    "internalType": "contract ISetToken",
                    "name": "_setToken",
                    "type": "address"
                },
                {
                    "internalType": "uint256",
                    "name": "_setQuantity",
                    "type": "uint256"
                },
                {
                    "internalType": "address[]",
                    "name": "_checkedComponents",
                    "type": "address[]"
                },
                {
                    "internalType": "uint256[]",
                    "name": "_maxTokenAmountsIn",
                    "type": "uint256[]"
                },
                {
                    "internalType": "address",
                    "name": "_to",
                    "type": "address"
                }
            ],
            "name": "issueWithSlippage",
            "outputs": [],
            "stateMutability": "nonpayable",
            "type": "function",
            "gas": "0xa7d8c0"
        },
        {
            "inputs": [
                {
                    "internalType": "contract ISetToken",
                    "name": "",
                    "type": "address"
                },
                {
                    "internalType": "uint256",
                    "name": "",
                    "type": "uint256"
                },
                {
                    "internalType": "address",
                    "name": "",
                    "type": "address"
                }
            ],
            "name": "redeem",
            "outputs": [],
            "stateMutability": "nonpayable",
            "type": "function",
            "gas": "0xa7d8c0"
        },
        {
            "inputs": [
                {
                    "internalType": "contract ISetToken",
                    "name": "_setToken",
                    "type": "address"
                },
                {
                    "internalType": "uint256",
                    "name": "_setQuantity",
                    "type": "uint256"
                },
                {
                    "internalType": "address[]",
                    "name": "_checkedComponents",
                    "type": "address[]"
                },
                {
                    "internalType": "uint256[]",
                    "name": "_minTokenAmountsOut",
                    "type": "uint256[]"
                },
                {
                    "internalType": "address",
                    "name": "_to",
                    "type": "address"
                }
            ],
            "name": "redeemWithSlippage",
            "outputs": [],
            "stateMutability": "nonpayable",
            "type": "function",
            "gas": "0xa7d8c0"
        },
        {
            "inputs": [
                {
                    "internalType": "contract ISetToken",
                    "name": "_setToken",
                    "type": "address"
                }
            ],
            "name": "registerToIssuanceModule",
            "outputs": [],
            "stateMutability": "nonpayable",
            "type": "function",
            "gas": "0xa7d8c0"
        },
        {
            "inputs": [],
            "name": "removeModule",
            "outputs": [],
            "stateMutability": "nonpayable",
            "type": "function",
            "gas": "0xa7d8c0"
        },
        {
            "inputs": [
                {
                    "internalType": "contract ISetToken",
                    "name": "_setToken",
                    "type": "address"
                }
            ],
            "name": "unregisterFromIssuanceModule",
            "outputs": [],
            "stateMutability": "nonpayable",
            "type": "function",
            "gas": "0xa7d8c0"
        },
        {
            "inputs": [
                {
                    "internalType": "contract ISetToken",
                    "name": "_setToken",
                    "type": "address"
                },
                {
                    "internalType": "address",
                    "name": "_newFeeRecipient",
                    "type": "address"
                }
            ],
            "name": "updateFeeRecipient",
            "outputs": [],
            "stateMutability": "nonpayable",
            "type": "function",
            "gas": "0xa7d8c0"
        },
        {
            "inputs": [
                {
                    "internalType": "contract ISetToken",
                    "name": "_setToken",
                    "type": "address"
                },
                {
                    "internalType": "uint256",
                    "name": "_newIssueFee",
                    "type": "uint256"
                }
            ],
            "name": "updateIssueFee",
            "outputs": [],
            "stateMutability": "nonpayable",
            "type": "function",
            "gas": "0xa7d8c0"
        },
        {
            "inputs": [
                {
                    "internalType": "contract ISetToken",
                    "name": "_setToken",
                    "type": "address"
                },
                {
                    "internalType": "uint256",
                    "name": "_newRedeemFee",
                    "type": "uint256"
                }
            ],
            "name": "updateRedeemFee",
            "outputs": [],
            "stateMutability": "nonpayable",
            "type": "function",
            "gas": "0xa7d8c0"
        }
    ],
    "bytecode": "0x60806040523480156200001157600080fd5b506040516200475e3803806200475e83398101604081905262000034916200005e565b600080546001600160a01b0319166001600160a01b0392909216919091179055600180556200008e565b60006020828403121562000070578081fd5b81516001600160a01b038116811462000087578182fd5b9392505050565b6146c0806200009e6000396000f3fe608060405234801561001057600080fd5b506004361061012c5760003560e01c8063750ab7a8116100ad578063cb38b22311610071578063cb38b22314610286578063cd3c753914610299578063d9b1b6e0146102bd578063e0799620146102d0578063f77c4791146102e35761012c565b8063750ab7a8146102235780637cbe104014610236578063847ef08d146102495780638dda403714610251578063bf9fe138146102735761012c565b8063607ad89f116100f4578063607ad89f146101b757806363082446146101ca5780636b8e53b6146101ea5780636d78f47a146101fd5780636dd86aa9146102105761012c565b806308bc0e1114610131578063131e26b91461015a57806357aa792e1461017c5780635c833bfd1461018f5780635d98c373146101a4575b600080fd5b61014461013f3660046137fe565b6102f8565b6040516101519190613bde565b60405180910390f35b61016d610168366004613852565b610372565b60405161015193929190613bf1565b61016d61018a366004613852565b6103a3565b6101a261019d36600461387d565b6103ea565b005b6101a26101b236600461381a565b61040b565b61016d6101c5366004613852565b6104eb565b6101dd6101d836600461381a565b6104fd565b6040516101519190613c33565b61016d6101f8366004613852565b610531565b6101a261020b36600461387d565b610554565b6101a261021e366004613852565b61056c565b6101a26102313660046138be565b610638565b6101a26102443660046138be565b6107aa565b6101a2610930565b61026461025f3660046139ac565b6109b3565b604051610151939291906145b1565b6101a26102813660046139e2565b610b89565b6101a2610294366004613852565b610d0c565b6102ac6102a73660046137fe565b610dd7565b6040516101519594939291906145c7565b6101a26102cb3660046137fe565b610e13565b6101a26102de3660046137fe565b610ecb565b6102eb610f81565b6040516101519190613b1d565b6001600160a01b03811660009081526002602090815260409182902060050180548351818402810184019094528084526060939283018282801561036557602002820191906000526020600020905b81546001600160a01b03168152600190910190602001808311610347575b505050505090505b919050565b60608060606000610385868660016109b3565b5050905061039586826001610f90565b935093509350509250925092565b60608080600160006103b68787846109b3565b505090506060806103c889848661110d565b915091506103d98984868585611490565b965096509650505050509250925092565b60405162461bcd60e51b8152600401610402906142d8565b60405180910390fd5b816104158161166c565b6001600160a01b03821661043b5760405162461bcd60e51b815260040161040290614291565b6001600160a01b038084166000908152600260205260409020600301548382169116141561047b5760405162461bcd60e51b81526004016104029061425a565b6001600160a01b038381166000818152600260205260409081902060030180546001600160a01b0319169386169390931790925590517faaebcf1bfa00580e41d966056b48521fa9f202645c86d4ddf28113e617c1b1d3906104de908590613b1d565b60405180910390a2505050565b606080806000806103b68787836109b3565b6001600160a01b038083166000908152600260209081526040808320938516835260069093019052205460ff165b92915050565b60608060606000610544868660006109b3565b5050905061039586826000610f90565b60405162461bcd60e51b81526004016104029061450a565b816105768161166c565b6001600160a01b0383166000908152600260205260409020548211156105ae5760405162461bcd60e51b815260040161040290613d21565b6001600160a01b038316600090815260026020819052604090912001548214156105ea5760405162461bcd60e51b815260040161040290613dcd565b6001600160a01b03831660008181526002602081905260409182902001849055517f676eda176d6aa20e9aa09b9ee131487c90646cd2b951176f75bd6fccdc026177906104de9085906145a8565b6002600154141561065b5760405162461bcd60e51b8152600401610402906144d3565b60026001558461066a81611692565b6106758585856116ba565b60008080806106858a8a836109b3565b9250925092506106958a8461172e565b604051632770a7eb60e21b81526001600160a01b038b1690639dc29fac906106c39033908d90600401613b31565b600060405180830381600087803b1580156106dd57600080fd5b505af11580156106f1573d6000803e3d6000fd5b5050505060608060606107058d8789610f90565b9250925092506107188b8b85858b61182f565b6107258d8789868561192e565b6107338d878b8a87876119cc565b61073e8d8686611b9b565b886001600160a01b0316336001600160a01b03168e6001600160a01b03167f54f4ed50e49638053e1655b45ee7ece434edd150e6771ac0aaedb8355be13a338f898960405161078f939291906145b1565b60405180910390a45050600180555050505050505050505050565b600260015414156107cd5760405162461bcd60e51b8152600401610402906144d3565b6002600155846107dc81611692565b6107e78585856116ba565b60006107f587873386611d06565b90506001600080806108088b8b866109b3565b9250925092506108188b84611da7565b60608060606108288e8789610f90565b92509250925061083b8c8c85858b61182f565b6108498e878c8a87876119cc565b6108568e8789868561192e565b6108618e8686611b9b565b50506040516340c10f1960e01b81526001600160a01b038d1691506340c10f1990610892908a908e90600401613b31565b600060405180830381600087803b1580156108ac57600080fd5b505af11580156108c0573d6000803e3d6000fd5b50505050866001600160a01b0316336001600160a01b03168c6001600160a01b03167f1abc43bc3dd8b6c8bb9bcf1a14a84f83981bf5335700ef07758efefcb03a8c75888e87876040516109179493929190613bb8565b60405180910390a4505060018055505050505050505050565b33600090815260026020526040902060050154156109605760405162461bcd60e51b815260040161040290614490565b3360009081526002602081905260408220828155600181018390559081018290556003810180546001600160a01b03199081169091556004820180549091169055906109af6005830182613461565b5050565b60008060006109c061347f565b6001600160a01b03808816600090815260026020818152604092839020835160c0810185528154815260018201548184015292810154838501526003810154851660608401526004810154909416608083015260058401805484518184028101840190955280855292949360a08601939092830182828015610a6b57602002820191906000526020600020905b81546001600160a01b03168152600190910190602001808311610a4d575b5050509190925250506000805460405163792aa04f60e01b815293945090926001600160a01b03909116915063792aa04f90610aad9030908590600401613b31565b60206040518083038186803b158015610ac557600080fd5b505afa158015610ad9573d6000803e3d6000fd5b505050506040513d601f19601f82011682018060405250810190610afd9190613a67565b9050600086610b10578260400151610b16565b82602001515b90506000610b2a828a63ffffffff611ea816565b9050610b3c818463ffffffff611ea816565b9450610b4e818663ffffffff611ed916565b955087610b6a57610b65898263ffffffff611ed916565b610b7a565b610b7a898263ffffffff611f0116565b96505050505093509350939050565b8533610b958282611f26565b87610b9f81611f4c565b87871115610bbf5760405162461bcd60e51b8152600401610402906141e1565b87861115610bdf5760405162461bcd60e51b815260040161040290614541565b6040805160c08101825289815260208082018a90528183018990526001600160a01b0388811660608401528716608083015282516000808252918101909352909160a08301915090526001600160a01b03808b1660009081526002602081815260409283902085518155858201516001820155928501519183019190915560608401516003830180549185166001600160a01b031992831617905560808501516004840180549190951691161790925560a083015180519192610caa926005850192909101906134c7565b50905050886001600160a01b0316630ffe0f1e6040518163ffffffff1660e01b8152600401600060405180830381600087803b158015610ce957600080fd5b505af1158015610cfd573d6000803e3d6000fd5b50505050505050505050505050565b81610d168161166c565b6001600160a01b038316600090815260026020526040902054821115610d4e5760405162461bcd60e51b815260040161040290613ee3565b6001600160a01b038316600090815260026020526040902060010154821415610d895760405162461bcd60e51b81526004016104029061416b565b6001600160a01b03831660008181526002602052604090819020600101849055517fd1de57b1db6a29967f337d6f744b7811624dabf2be924c65708336a81678d077906104de9085906145a8565b60026020819052600091825260409091208054600182015492820154600383015460049093015491939290916001600160a01b03918216911685565b80610e1d8161200d565b81610e2781611692565b6001600160a01b038316600090815260026020908152604080832033845260060190915290205460ff1615610e6e5760405162461bcd60e51b81526004016104029061430f565b50506001600160a01b03166000908152600260209081526040808320600581018054600181810183559186528486200180546001600160a01b0319163390811790915585526006909101909252909120805460ff19169091179055565b80610ed58161200d565b81610edf81611692565b6001600160a01b038316600090815260026020908152604080832033845260060190915290205460ff16610f255760405162461bcd60e51b815260040161040290613e45565b6001600160a01b0383166000908152600260205260409020610f50906005013363ffffffff61214f16565b50506001600160a01b031660009081526002602090815260408083203384526006019091529020805460ff19169055565b6000546001600160a01b031681565b606080606080606080610fa28961227b565b825192955090935091506060816001600160401b0381118015610fc457600080fd5b50604051908082528060200260200182016040528015610fee578160200160208202803683370190505b5090506060826001600160401b038111801561100957600080fd5b50604051908082528060200260200182016040528015611033578160200160208202803683370190505b50905060005b86518110156110f9578a6110725761106d8c87838151811061105757fe5b6020026020010151611ea890919063ffffffff16565b611098565b6110988c87838151811061108257fe5b602002602001015161260590919063ffffffff16565b8382815181106110a457fe5b6020026020010181815250508a6110ca576110c58c86838151811061108257fe5b6110da565b6110da8c86838151811061105757fe5b8282815181106110e657fe5b6020908102919091010152600101611039565b50949b909a50939850929650505050505050565b6060806000856001600160a01b03166399d50d5d6040518163ffffffff1660e01b815260040160006040518083038186803b15801561114b57600080fd5b505afa15801561115f573d6000803e3d6000fd5b505050506040513d6000823e601f3d908101601f19168201604052611187919081019061365c565b5190506060816001600160401b03811180156111a257600080fd5b506040519080825280602002602001820160405280156111cc578160200160208202803683370190505b5090506060826001600160401b03811180156111e757600080fd5b50604051908082528060200260200182016040528015611211578160200160208202803683370190505b506001600160a01b0389166000908152600260209081526040918290206005018054835181840281018401909452808452939450606093909183018282801561128357602002820191906000526020600020905b81546001600160a01b03168152600190910190602001808311611265575b50939450600093505050505b8151811015611481576060808961133c578383815181106112ac57fe5b60200260200101516001600160a01b031663d23cd5648d8d6040518363ffffffff1660e01b81526004016112e1929190613b31565b600060405180830381600087803b1580156112fb57600080fd5b505af115801561130f573d6000803e3d6000fd5b505050506040513d6000823e601f3d908101601f1916820160405261133791908101906136f7565b6113d3565b83838151811061134857fe5b60200260200101516001600160a01b031663fc62d9fe8d8d6040518363ffffffff1660e01b815260040161137d929190613b31565b600060405180830381600087803b15801561139757600080fd5b505af11580156113ab573d6000803e3d6000fd5b505050506040513d6000823e601f3d908101601f191682016040526113d391908101906136f7565b909250905060005b878110156114765761141c8382815181106113f257fe5b602002602001015188838151811061140657fe5b602002602001015161265c90919063ffffffff16565b87828151811061142857fe5b60200260200101818152505061145782828151811061144357fe5b602002602001015187838151811061140657fe5b86828151811061146357fe5b60209081029190910101526001016113db565b50505060010161128f565b50919890975095505050505050565b6060806060806060806114a28b61227b565b925092509250606083516001600160401b03811180156114c157600080fd5b506040519080825280602002602001820160405280156114eb578160200160208202803683370190505b509050606084516001600160401b038111801561150757600080fd5b50604051908082528060200260200182016040528015611531578160200160208202803683370190505b50905060005b85518110156116575760006115896115848d848151811061155457fe5b602002602001015161157889868151811061156b57fe5b60200260200101516126a2565b9063ffffffff61265c16565b6126cb565b90508c6115a5576115a0818f63ffffffff611ea816565b6115b5565b6115b5818f63ffffffff61260516565b8483815181106115c157fe5b60200260200101818152505060006116046115848d85815181106115e157fe5b60200260200101516115f889878151811061156b57fe5b9063ffffffff6126ed16565b90508d6116235761161e8f8261260590919063ffffffff16565b611636565b6116368f82611ea890919063ffffffff16565b84848151811061164257fe5b60209081029190910101525050600101611537565b50939c909b5092995091975050505050505050565b6116768133612733565b6116925760405162461bcd60e51b815260040161040290614415565b61169b816127c1565b6116b75760405162461bcd60e51b815260040161040290613dfd565b50565b600083116116da5760405162461bcd60e51b815260040161040290613f1a565b8151815181146116fc5760405162461bcd60e51b815260040161040290613d58565b80156117285761170b836128c5565b156117285760405162461bcd60e51b815260040161040290614000565b50505050565b6001600160a01b03821660009081526002602090815260409182902060050180548351818402810184019094528084526060939283018282801561179b57602002820191906000526020600020905b81546001600160a01b0316815260019091019060200180831161177d575b50939450600093505050505b8151811015611728578181815181106117bc57fe5b60200260200101516001600160a01b0316633fe6106b85856040518363ffffffff1660e01b81526004016117f1929190613b31565b600060405180830381600087803b15801561180b57600080fd5b505af115801561181f573d6000803e3d6000fd5b5050600190920191506117a79050565b60005b85518110156119265760008061186488848151811061184d57fe5b60200260200101518761297490919063ffffffff16565b91509150806118855760405162461bcd60e51b815260040161040290614037565b83156118d65784828151811061189757fe5b60200260200101518784815181106118ab57fe5b602002602001015110156118d15760405162461bcd60e51b815260040161040290614079565b61191c565b8482815181106118e257fe5b60200260200101518784815181106118f657fe5b6020026020010151111561191c5760405162461bcd60e51b815260040161040290613d87565b5050600101611832565b505050505050565b60005b825181101561192657600083828151811061194857fe5b60200260200101519050600083838151811061196057fe5b6020026020010151905060008111156119c25785156119a857611988888884600160006129da565b6119a36001600160a01b03891683338463ffffffff612c6216565b6119c2565b6119b482338a84612da4565b6119c28888846000806129da565b5050600101611931565b6119f06040518060400160405280600381526020016231203d60e81b815250612db0565b60005b8251811015611b92576000838281518110611a0a57fe5b60200260200101519050611a37604051806040016040528060028152602001611e9960f11b815250612db0565b6000838381518110611a4557fe5b60200260200101519050611a8460405180604001604052806013815260200172031b7b6b837b732b73a28bab0b73a34ba3c9d1606d1b81525082612df3565b8015611b8857611aad604051806040016040528060028152602001613d3360f01b815250612db0565b8515611b1857611ad6604051806040016040528060028152602001610f4d60f21b815250612db0565b611ae282338b84612da4565b611b05604051806040016040528060028152602001613d3560f01b815250612db0565b611b138989846001806129da565b611b88565b611b3b604051806040016040528060028152602001611e9b60f11b815250612db0565b611b4a898984600060016129da565b611b6d604051806040016040528060028152602001613d3760f01b815250612db0565b611b886001600160a01b038a1683898463ffffffff612c6216565b50506001016119f3565b50505050505050565b8115611d01576001600160a01b03808416600081815260026020526040908190206003015490516340c10f1960e01b815291926340c10f1992611be692909116908690600401613b31565b600060405180830381600087803b158015611c0057600080fd5b505af1158015611c14573d6000803e3d6000fd5b505050506000811115611d0157826001600160a01b03166340c10f196000809054906101000a90046001600160a01b03166001600160a01b031663469048406040518163ffffffff1660e01b815260040160206040518083038186803b158015611c7d57600080fd5b505afa158015611c91573d6000803e3d6000fd5b505050506040513d601f19601f82011682018060405250810190611cb59190613640565b836040518363ffffffff1660e01b8152600401611cd3929190613b31565b600060405180830381600087803b158015611ced57600080fd5b505af1158015611b92573d6000803e3d6000fd5b505050565b6001600160a01b038085166000908152600260205260408120600401549091168015611d995760405163a045808360e01b81526001600160a01b0382169063a045808390611d5e908990899089908990600401613c3e565b600060405180830381600087803b158015611d7857600080fd5b505af1158015611d8c573d6000803e3d6000fd5b5050505080915050611d9f565b60009150505b949350505050565b6001600160a01b038216600090815260026020908152604091829020600501805483518184028101840190945280845260609392830182828015611e1457602002820191906000526020600020905b81546001600160a01b03168152600190910190602001808311611df6575b50939450600093505050505b815181101561172857818181518110611e3557fe5b60200260200101516001600160a01b031663c153dd0785856040518363ffffffff1660e01b8152600401611e6a929190613b31565b600060405180830381600087803b158015611e8457600080fd5b505af1158015611e98573d6000803e3d6000fd5b505060019092019150611e209050565b6000611ed2670de0b6b3a7640000611ec6858563ffffffff612e3816565b9063ffffffff612e7216565b9392505050565b600082821115611efb5760405162461bcd60e51b815260040161040290613f92565b50900390565b600082820183811015611ed25760405162461bcd60e51b815260040161040290613e75565b611f308282612733565b6109af5760405162461bcd60e51b815260040161040290614415565b600054604051631d3af8fb60e21b81526001600160a01b03909116906374ebe3ec90611f7c908490600401613b1d565b60206040518083038186803b158015611f9457600080fd5b505afa158015611fa8573d6000803e3d6000fd5b505050506040513d601f19601f82011682018060405250810190611fcc9190613757565b611fe85760405162461bcd60e51b8152600401610402906143d2565b611ff181612ea4565b6116b75760405162461bcd60e51b815260040161040290613eac565b6002604051631ade272960e11b81526001600160a01b038316906335bc4e529061203b903390600401613b1d565b60206040518083038186803b15801561205357600080fd5b505afa158015612067573d6000803e3d6000fd5b505050506040513d601f19601f8201168201806040525081019061208b9190613a48565b600281111561209657fe5b146120b35760405162461bcd60e51b8152600401610402906140f3565b6000546040516342f6e38960e01b81526001600160a01b03909116906342f6e389906120e3903390600401613b1d565b60206040518083038186803b1580156120fb57600080fd5b505afa15801561210f573d6000803e3d6000fd5b505050506040513d601f19601f820116820180604052508101906121339190613757565b6116b75760405162461bcd60e51b81526004016104029061438e565b6000806121b5848054806020026020016040519081016040528092919081815260200182805480156121aa57602002820191906000526020600020905b81546001600160a01b0316815260019091019060200180831161218c575b505050505084612974565b91509150806121d65760405162461bcd60e51b815260040161040290613cf2565b835460001901828114612248578481815481106121ef57fe5b9060005260206000200160009054906101000a90046001600160a01b031685848154811061221957fe5b9060005260206000200160006101000a8154816001600160a01b0302191690836001600160a01b031602179055505b8480548061225257fe5b600082815260209020810160001990810180546001600160a01b03191690550190555050505050565b606080606080846001600160a01b03166399d50d5d6040518163ffffffff1660e01b815260040160006040518083038186803b1580156122ba57600080fd5b505afa1580156122ce573d6000803e3d6000fd5b505050506040513d6000823e601f3d908101601f191682016040526122f6919081019061365c565b80519091506060816001600160401b038111801561231357600080fd5b5060405190808252806020026020018201604052801561233d578160200160208202803683370190505b5090506060826001600160401b038111801561235857600080fd5b50604051908082528060200260200182016040528015612382578160200160208202803683370190505b50905060005b84518110156125f557600085828151811061239f57fe5b6020026020010151905060008a6001600160a01b03166366cb8d2f836040518263ffffffff1660e01b81526004016123d79190613b1d565b60206040518083038186803b1580156123ef57600080fd5b505afa158015612403573d6000803e3d6000fd5b505050506040513d601f19601f820116820180604052508101906124279190613a67565b60405163a7bdad0360e01b81529091506000906060906001600160a01b038e169063a7bdad039061245c908790600401613b1d565b60006040518083038186803b15801561247457600080fd5b505afa158015612488573d6000803e3d6000fd5b505050506040513d6000823e601f3d908101601f191682016040526124b0919081019061365c565b8051909150156125995760005b81518110156125975760008e6001600160a01b03166322ebeba4878585815181106124e457fe5b60200260200101516040518363ffffffff1660e01b8152600401612509929190613b4a565b60206040518083038186803b15801561252157600080fd5b505afa158015612535573d6000803e3d6000fd5b505050506040513d601f19601f820116820180604052508101906125599190613a67565b9050600081131561257b57612574858263ffffffff61265c16565b945061258e565b61258b848263ffffffff61265c16565b93505b506001016124bd565b505b6125a2836126cb565b8786815181106125ae57fe5b60209081029190910101526125ce6115848360001963ffffffff612ed316565b8686815181106125da57fe5b60209081029190910101525050600190920191506123889050565b5092979096509194509092505050565b6000821580612612575081155b1561261f5750600061052b565b611ed26001612650670de0b6b3a7640000611ec683612644898963ffffffff612e3816565b9063ffffffff611ed916565b9063ffffffff611f0116565b60008282018183128015906126715750838112155b80612686575060008312801561268657508381125b611ed25760405162461bcd60e51b815260040161040290613f51565b6000600160ff1b82106126c75760405162461bcd60e51b815260040161040290614346565b5090565b6000808212156126c75760405162461bcd60e51b8152600401610402906140be565b60008183038183128015906127025750838113155b80612717575060008312801561271757508381135b611ed25760405162461bcd60e51b81526004016104029061444c565b6000816001600160a01b0316836001600160a01b031663481c6a756040518163ffffffff1660e01b815260040160206040518083038186803b15801561277857600080fd5b505afa15801561278c573d6000803e3d6000fd5b505050506040513d601f19601f820116820180604052508101906127b09190613640565b6001600160a01b0316149392505050565b60008054604051631d3af8fb60e21b81526001600160a01b03909116906374ebe3ec906127f2908590600401613b1d565b60206040518083038186803b15801561280a57600080fd5b505afa15801561281e573d6000803e3d6000fd5b505050506040513d601f19601f820116820180604052508101906128429190613757565b801561052b57506040516335fc6c9f60e21b81526001600160a01b0383169063d7f1b27c90612875903090600401613b1d565b60206040518083038186803b15801561288d57600080fd5b505afa1580156128a1573d6000803e3d6000fd5b505050506040513d601f19601f8201168201806040525081019061052b9190613757565b6000808251116128e75760405162461bcd60e51b815260040161040290614584565b60005b600183510381101561296b57600083828151811061290457fe5b6020026020010151905060008260010190505b84518110156129615784818151811061292c57fe5b60200260200101516001600160a01b0316826001600160a01b03161415612959576001935050505061036d565b600101612917565b50506001016128ea565b50600092915050565b81516000908190815b818110156129c757846001600160a01b031686828151811061299b57fe5b60200260200101516001600160a01b031614156129bf579250600191506129d39050565b60010161297d565b50600019600092509250505b9250929050565b6129fe6040518060400160405280600381526020016203d31360ec1b815250612db0565b60405163a7bdad0360e01b81526060906001600160a01b0387169063a7bdad0390612a2d908790600401613b1d565b60006040518083038186803b158015612a4557600080fd5b505afa158015612a59573d6000803e3d6000fd5b505050506040513d6000823e601f3d908101601f19168201604052612a81919081019061365c565b9050612aa7604051806040016040528060038152602001623d313160e81b815250612db0565b80516040805180820190915260038152621e989960e91b6020820152612acc90612db0565b8315612b8a57612af6604051806040016040528060038152602001623d313360e81b815250612db0565b60005b81811015612b8457828181518110612b0d57fe5b60200260200101516001600160a01b0316630fb96b21898989886040518563ffffffff1660e01b8152600401612b469493929190613c69565b600060405180830381600087803b158015612b6057600080fd5b505af1158015612b74573d6000803e3d6000fd5b505060019092019150612af99050565b50612c3e565b612bae604051806040016040528060038152602001620f4c4d60ea1b815250612db0565b60005b81811015612c3c57828181518110612bc557fe5b60200260200101516001600160a01b031663c137f4d7898989886040518563ffffffff1660e01b8152600401612bfe9493929190613c69565b600060405180830381600087803b158015612c1857600080fd5b505af1158015612c2c573d6000803e3d6000fd5b505060019092019150612bb19050565b505b611b92604051806040016040528060038152602001623d313560e81b815250612db0565b8015611728576040516370a0823160e01b81526000906001600160a01b038516906370a0823190612c97908890600401613b1d565b60206040518083038186803b158015612caf57600080fd5b505afa158015612cc3573d6000803e3d6000fd5b505050506040513d601f19601f82011682018060405250810190612ce79190613a67565b9050612cf585858585612f3e565b6040516370a0823160e01b81526000906001600160a01b038616906370a0823190612d24908990600401613b1d565b60206040518083038186803b158015612d3c57600080fd5b505afa158015612d50573d6000803e3d6000fd5b505050506040513d601f19601f82011682018060405250810190612d749190613a67565b9050612d86828463ffffffff611ed916565b81146119265760405162461bcd60e51b815260040161040290614223565b6117288484848461300b565b6116b781604051602401612dc49190613c93565b60408051601f198184030181529190526020810180516001600160e01b031663104c13eb60e21b1790526133fb565b6109af8282604051602401612e09929190613cd0565b60408051601f198184030181529190526020810180516001600160e01b03166309710a9d60e41b1790526133fb565b600082612e475750600061052b565b82820282848281612e5457fe5b0414611ed25760405162461bcd60e51b81526004016104029061412a565b6000808211612e935760405162461bcd60e51b815260040161040290613fc9565b818381612e9c57fe5b049392505050565b6040516353bae5f760e01b81526000906001600160a01b038316906353bae5f790612875903090600401613b1d565b600082612ee25750600061052b565b82600019148015612ef65750600160ff1b82145b15612f135760405162461bcd60e51b81526004016104029061419a565b82820282848281612f2057fe5b0514611ed25760405162461bcd60e51b81526004016104029061419a565b80156117285760608282604051602401612f59929190613b31565b60408051601f198184030181529181526020820180516001600160e01b031663a9059cbb60e01b179052516347b7819960e11b81529091506001600160a01b03861690638f6f033290612fb59087906000908690600401613b88565b600060405180830381600087803b158015612fcf57600080fd5b505af1158015612fe3573d6000803e3d6000fd5b505050506040513d6000823e601f3d908101601f191682016040526119269190810190613773565b8015611728576040516370a0823160e01b81526000906001600160a01b038616906370a0823190613040908690600401613b1d565b60206040518083038186803b15801561305857600080fd5b505afa15801561306c573d6000803e3d6000fd5b505050506040513d601f19601f820116820180604052508101906130909190613a67565b90506000856001600160a01b03166370a08231866040518263ffffffff1660e01b81526004016130c09190613b1d565b60206040518083038186803b1580156130d857600080fd5b505afa1580156130ec573d6000803e3d6000fd5b505050506040513d601f19601f820116820180604052508101906131109190613a67565b905061313a604051806040016040528060068152602001652fba37b5b2b760d11b8152508761341c565b613161604051806040016040528060058152602001645f66726f6d60d81b8152508661341c565b613186604051806040016040528060038152602001625f746f60e81b8152508561341c565b6131b1604051806040016040528060098152602001685f7175616e7469747960b81b81525084612df3565b6131e460405180604001604052806011815260200170032bc34b9ba34b733a130b630b731b29d1607d1b81525083612df3565b6132146040518060400160405280600e81526020016d02fb33937b6a130b630b731b29d160951b81525082612df3565b6040516323b872dd60e01b81526001600160a01b038716906323b872dd9061324490889088908890600401613b64565b602060405180830381600087803b15801561325e57600080fd5b505af1158015613272573d6000803e3d6000fd5b505050506040513d601f19601f820116820180604052508101906132969190613757565b506132c46040518060400160405280600c81526020016b3d3d3d3d3d31203d3d3d3d3d60a01b815250612db0565b6040516370a0823160e01b81526000906001600160a01b038816906370a08231906132f3908890600401613b1d565b60206040518083038186803b15801561330b57600080fd5b505afa15801561331f573d6000803e3d6000fd5b505050506040513d601f19601f820116820180604052508101906133439190613a67565b90506133736040518060400160405280600c81526020016b03732bba130b630b731b29d160a51b81525082612df3565b6133a06040518060400160405280600c81526020016b3d3d3d3d3d32203d3d3d3d3d60a01b815250612db0565b6133b0838563ffffffff611f0116565b81146133ce5760405162461bcd60e51b815260040161040290614223565b611b926040518060400160405280600c81526020016b3d3d3d3d3d33203d3d3d3d3d60a01b815250612db0565b80516a636f6e736f6c652e6c6f67602083016000808483855afa5050505050565b6109af8282604051602401613432929190613ca6565b60408051601f198184030181529190526020810180516001600160e01b031663319af33360e01b1790526133fb565b50805460008255906000526020600020908101906116b79190613528565b6040518060c0016040528060008152602001600081526020016000815260200160006001600160a01b0316815260200160006001600160a01b03168152602001606081525090565b82805482825590600052602060002090810192821561351c579160200282015b8281111561351c57825182546001600160a01b0319166001600160a01b039091161782556020909201916001909101906134e7565b506126c7929150613545565b61354291905b808211156126c7576000815560010161352e565b90565b61354291905b808211156126c75780546001600160a01b031916815560010161354b565b803561052b81614667565b600082601f830112613584578081fd5b81516135976135928261461c565b6145f6565b8181529150602080830190848101818402860182018710156135b857600080fd5b60005b848110156135d7578151845292820192908201906001016135bb565b505050505092915050565b600082601f8301126135f2578081fd5b81356136006135928261461c565b81815291506020808301908481018184028601820187101561362157600080fd5b60005b848110156135d757813584529282019290820190600101613624565b600060208284031215613651578081fd5b8151611ed281614667565b6000602080838503121561366e578182fd5b82516001600160401b03811115613683578283fd5b80840185601f820112613694578384fd5b805191506136a46135928361461c565b82815283810190828501858502840186018910156136c0578687fd5b8693505b848410156136eb5780516136d781614667565b8352600193909301929185019185016136c4565b50979650505050505050565b60008060408385031215613709578081fd5b82516001600160401b038082111561371f578283fd5b61372b86838701613574565b93506020850151915080821115613740578283fd5b5061374d85828601613574565b9150509250929050565b600060208284031215613768578081fd5b8151611ed28161467c565b600060208284031215613784578081fd5b81516001600160401b038082111561379a578283fd5b81840185601f8201126137ab578384fd5b80519250818311156137bb578384fd5b6137ce601f8401601f19166020016145f6565b91508282528560208483010111156137e4578384fd5b6137f583602084016020840161463b565b50949350505050565b60006020828403121561380f578081fd5b8135611ed281614667565b6000806040838503121561382c578182fd5b823561383781614667565b9150602083013561384781614667565b809150509250929050565b60008060408385031215613864578182fd5b823561386f81614667565b946020939093013593505050565b600080600060608486031215613891578081fd5b833561389c81614667565b92506020840135915060408401356138b381614667565b809150509250925092565b600080600080600060a086880312156138d5578283fd5b85356138e081614667565b9450602086810135945060408701356001600160401b0380821115613903578586fd5b8189018a601f820112613914578687fd5b803592506139246135928461461c565b83815284810190828601868602840187018e101561394057898afd5b8993505b8584101561396a576139568e82613569565b835260019390930192918601918601613944565b50975050506060890135925080831115613982578384fd5b5050613990888289016135e2565b9250506139a08760808801613569565b90509295509295909350565b6000806000606084860312156139c0578081fd5b83356139cb81614667565b92506020840135915060408401356138b38161467c565b60008060008060008060c087890312156139fa578384fd5b8635613a0581614667565b95506020870135945060408701359350606087013592506080870135613a2a81614667565b915060a0870135613a3a81614667565b809150509295509295509295565b600060208284031215613a59578081fd5b815160038110611ed2578182fd5b600060208284031215613a78578081fd5b5051919050565b6000815180845260208085019450808401835b83811015613ab75781516001600160a01b031687529582019590820190600101613a92565b509495945050505050565b6000815180845260208085019450808401835b83811015613ab757815187529582019590820190600101613ad5565b60008151808452613b0981602086016020860161463b565b601f01601f19169290920160200192915050565b6001600160a01b0391909116815260200190565b6001600160a01b03929092168252602082015260400190565b6001600160a01b0392831681529116602082015260400190565b6001600160a01b039384168152919092166020820152604081019190915260600190565b600060018060a01b038516825283602083015260606040830152613baf6060830184613af1565b95945050505050565b6001600160a01b0394909416845260208401929092526040830152606082015260800190565b600060208252611ed26020830184613a7f565b600060608252613c046060830186613a7f565b8281036020840152613c168186613ac2565b8381036040850152613c288186613ac2565b979650505050505050565b901515815260200190565b6001600160a01b03948516815260208101939093529083166040830152909116606082015260800190565b6001600160a01b039485168152602081019390935292166040820152901515606082015260800190565b600060208252611ed26020830184613af1565b600060408252613cb96040830185613af1565b905060018060a01b03831660208301529392505050565b600060408252613ce36040830185613af1565b90508260208301529392505050565b60208082526015908201527420b2323932b9b9903737ba1034b71030b93930bc9760591b604082015260600190565b6020808252601f908201527f52656465656d206665652063616e277420657863656564206d6178696d756d00604082015260600190565b602080825260159082015274082e4e4c2f240d8cadccee8d040dad2e6dac2e8c6d605b1b604082015260600190565b60208082526026908201527f546f6f2066657720746f6b656e732072657475726e656420666f72207265646560408201526536b83a34b7b760d11b606082015260800190565b60208082526016908201527514d85b59481c995919595b48199959481c185cdcd95960521b604082015260600190565b60208082526028908201527f4d75737420626520612076616c696420616e6420696e697469616c697a65642060408201526729b2ba2a37b5b2b760c11b606082015260800190565b60208082526016908201527526b7b23ab632903737ba103932b3b4b9ba32b932b21760511b604082015260600190565b6020808252601b908201527f536166654d6174683a206164646974696f6e206f766572666c6f770000000000604082015260600190565b6020808252601e908201527f4d7573742062652070656e64696e6720696e697469616c697a6174696f6e0000604082015260600190565b6020808252601e908201527f4973737565206665652063616e277420657863656564206d6178696d756d0000604082015260600190565b6020808252601d908201527f536574546f6b656e207175616e74697479206d757374206265203e2030000000604082015260600190565b60208082526021908201527f5369676e6564536166654d6174683a206164646974696f6e206f766572666c6f6040820152607760f81b606082015260800190565b6020808252601e908201527f536166654d6174683a207375627472616374696f6e206f766572666c6f770000604082015260600190565b6020808252601a908201527f536166654d6174683a206469766973696f6e206279207a65726f000000000000604082015260600190565b6020808252601a908201527f43616e6e6f74206475706c696361746520616464726573736573000000000000604082015260600190565b60208082526022908201527f4c696d69742070617373656420666f7220696e76616c696420636f6d706f6e656040820152611b9d60f21b606082015260800190565b60208082526025908201527f546f6f206d616e7920746f6b656e7320726571756972656420666f722069737360408201526475616e636560d81b606082015260800190565b6020808252818101527f53616665436173743a2076616c7565206d75737420626520706f736974697665604082015260600190565b60208082526018908201527f4f6e6c7920746865206d6f64756c652063616e2063616c6c0000000000000000604082015260600190565b60208082526021908201527f536166654d6174683a206d756c7469706c69636174696f6e206f766572666c6f6040820152607760f81b606082015260800190565b60208082526015908201527414d85b59481a5cdcdd5948199959481c185cdcd959605a1b604082015260600190565b60208082526027908201527f5369676e6564536166654d6174683a206d756c7469706c69636174696f6e206f604082015266766572666c6f7760c81b606082015260800190565b60208082526022908201527f4973737565206665652063616e277420657863656564206d6178696d756d2066604082015261656560f01b606082015260800190565b6020808252601d908201527f496e76616c696420706f7374207472616e736665722062616c616e6365000000604082015260600190565b60208082526019908201527f53616d652066656520726563697069656e742070617373656400000000000000604082015260600190565b60208082526027908201527f46656520526563697069656e74206d757374206265206e6f6e2d7a65726f206160408201526632323932b9b99760c91b606082015260800190565b6020808252601f908201527f43616c6c2072656465656d57697468536c69707061676520696e737465616400604082015260600190565b6020808252601a908201527f4d6f64756c6520616c726561647920726567697374657265642e000000000000604082015260600190565b60208082526028908201527f53616665436173743a2076616c756520646f65736e27742066697420696e2061604082015267371034b73a191a9b60c11b606082015260800190565b60208082526024908201527f4d6f64756c65206d75737420626520656e61626c6564206f6e20636f6e74726f604082015263363632b960e11b606082015260800190565b60208082526023908201527f4d75737420626520636f6e74726f6c6c65722d656e61626c656420536574546f60408201526235b2b760e91b606082015260800190565b6020808252601c908201527f4d7573742062652074686520536574546f6b656e206d616e6167657200000000604082015260600190565b60208082526024908201527f5369676e6564536166654d6174683a207375627472616374696f6e206f766572604082015263666c6f7760e01b606082015260800190565b60208082526023908201527f52656769737465726564206d6f64756c6573206d7573742062652072656d6f7660408201526232b21760e91b606082015260800190565b6020808252601f908201527f5265656e7472616e637947756172643a207265656e7472616e742063616c6c00604082015260600190565b6020808252601e908201527f43616c6c20697373756557697468536c69707061676520696e73746561640000604082015260600190565b60208082526023908201527f52656465656d206665652063616e277420657863656564206d6178696d756d2060408201526266656560e81b606082015260800190565b6020808252600a90820152694120697320656d70747960b01b604082015260600190565b90815260200190565b9283526020830191909152604082015260600190565b948552602085019390935260408401919091526001600160a01b03908116606084015216608082015260a00190565b6040518181016001600160401b038111828210171561461457600080fd5b604052919050565b60006001600160401b03821115614631578081fd5b5060209081020190565b60005b8381101561465657818101518382015260200161463e565b838111156117285750506000910152565b6001600160a01b03811681146116b757600080fd5b80151581146116b757600080fdfea26469706673582212203c3ae5bd6f0cd5fce9483fc94dca11cf7f3ba1a6579cf0f09293b66b15b829de64736f6c634300060a0033",
    "linkReferences": {},
    "deployedLinkReferences": {}
}