{
  "_format": "hh-sol-artifact-1",
  "contractName": "StreamingFeeModule",
  "sourceName": "contracts/protocol/modules/StreamingFeeModule.sol",
  "abi": [
    {
      "inputs": [
        {
          "internalType": "contract IController",
          "name": "_controller",
          "type": "address"
        }
      ],
      "stateMutability": "nonpayable",
      "type": "constructor"
    },
    {
      "anonymous": false,
      "inputs": [
        {
          "indexed": true,
          "internalType": "address",
          "name": "_setToken",
          "type": "address"
        },
        {
          "indexed": false,
          "internalType": "uint256",
          "name": "_managerFee",
          "type": "uint256"
        },
        {
          "indexed": false,
          "internalType": "uint256",
          "name": "_protocolFee",
          "type": "uint256"
        }
      ],
      "name": "FeeActualized",
      "type": "event"
    },
    {
      "anonymous": false,
      "inputs": [
        {
          "indexed": true,
          "internalType": "address",
          "name": "_setToken",
          "type": "address"
        },
        {
          "indexed": false,
          "internalType": "address",
          "name": "_newFeeRecipient",
          "type": "address"
        }
      ],
      "name": "FeeRecipientUpdated",
      "type": "event"
    },
    {
      "anonymous": false,
      "inputs": [
        {
          "indexed": true,
          "internalType": "address",
          "name": "_setToken",
          "type": "address"
        },
        {
          "indexed": false,
          "internalType": "uint256",
          "name": "_newStreamingFee",
          "type": "uint256"
        }
      ],
      "name": "StreamingFeeUpdated",
      "type": "event"
    },
    {
      "inputs": [
        {
          "internalType": "contract ISetToken",
          "name": "_setToken",
          "type": "address"
        }
      ],
      "name": "accrueFee",
      "outputs": [],
      "stateMutability": "nonpayable",
      "type": "function"
    },
    {
      "inputs": [],
      "name": "controller",
      "outputs": [
        {
          "internalType": "contract IController",
          "name": "",
          "type": "address"
        }
      ],
      "stateMutability": "view",
      "type": "function"
    },
    {
      "inputs": [
        {
          "internalType": "contract ISetToken",
          "name": "",
          "type": "address"
        }
      ],
      "name": "feeStates",
      "outputs": [
        {
          "internalType": "address",
          "name": "feeRecipient",
          "type": "address"
        },
        {
          "internalType": "uint256",
          "name": "maxStreamingFeePercentage",
          "type": "uint256"
        },
        {
          "internalType": "uint256",
          "name": "streamingFeePercentage",
          "type": "uint256"
        },
        {
          "internalType": "uint256",
          "name": "lastStreamingFeeTimestamp",
          "type": "uint256"
        }
      ],
      "stateMutability": "view",
      "type": "function"
    },
    {
      "inputs": [
        {
          "internalType": "contract ISetToken",
          "name": "_setToken",
          "type": "address"
        }
      ],
      "name": "getFee",
      "outputs": [
        {
          "internalType": "uint256",
          "name": "",
          "type": "uint256"
        }
      ],
      "stateMutability": "view",
      "type": "function"
    },
    {
      "inputs": [
        {
          "internalType": "contract ISetToken",
          "name": "_setToken",
          "type": "address"
        },
        {
          "components": [
            {
              "internalType": "address",
              "name": "feeRecipient",
              "type": "address"
            },
            {
              "internalType": "uint256",
              "name": "maxStreamingFeePercentage",
              "type": "uint256"
            },
            {
              "internalType": "uint256",
              "name": "streamingFeePercentage",
              "type": "uint256"
            },
            {
              "internalType": "uint256",
              "name": "lastStreamingFeeTimestamp",
              "type": "uint256"
            }
          ],
          "internalType": "struct StreamingFeeModule.FeeState",
          "name": "_settings",
          "type": "tuple"
        }
      ],
      "name": "initialize",
      "outputs": [],
      "stateMutability": "nonpayable",
      "type": "function"
    },
    {
      "inputs": [],
      "name": "removeModule",
      "outputs": [],
      "stateMutability": "nonpayable",
      "type": "function"
    },
    {
      "inputs": [
        {
          "internalType": "contract ISetToken",
          "name": "_setToken",
          "type": "address"
        },
        {
          "internalType": "address",
          "name": "_newFeeRecipient",
          "type": "address"
        }
      ],
      "name": "updateFeeRecipient",
      "outputs": [],
      "stateMutability": "nonpayable",
      "type": "function"
    },
    {
      "inputs": [
        {
          "internalType": "contract ISetToken",
          "name": "_setToken",
          "type": "address"
        },
        {
          "internalType": "uint256",
          "name": "_newFee",
          "type": "uint256"
        }
      ],
      "name": "updateStreamingFee",
      "outputs": [],
      "stateMutability": "nonpayable",
      "type": "function"
    }
  ],
  "bytecode": "0x608060405234801561001057600080fd5b506040516115b93803806115b983398101604081905261002f91610058565b600080546001600160a01b0319166001600160a01b039290921691909117905560018055610086565b600060208284031215610069578081fd5b81516001600160a01b038116811461007f578182fd5b9392505050565b611524806100956000396000f3fe608060405234801561001057600080fd5b50600436106100885760003560e01c80638e7bdd481161005b5780638e7bdd48146100d0578063b88c9148146100fc578063eb78e5ee1461011c578063f77c47911461012f57610088565b80632f3eec491461008d57806345cb3fde146100a25780635d98c373146100b5578063847ef08d146100c8575b600080fd5b6100a061009b366004610f9b565b610144565b005b6100a06100b036600461107e565b610249565b6100a06100c3366004610fb7565b610324565b6100a06103f8565b6100e36100de366004610f9b565b61042a565b6040516100f394939291906110ee565b60405180910390f35b61010f61010a366004610f9b565b61045d565b6040516100f39190611114565b6100a061012a366004610fef565b61046e565b61013761067b565b6040516100f391906110c1565b600260015414156101705760405162461bcd60e51b815260040161016790611491565b60405180910390fd5b60026001558061017f8161068a565b61019b5760405162461bcd60e51b8152600401610167906111a7565b60008060006101a98561078e565b11156101e65760006101ba856107ad565b905060006101c886836107ff565b90506101d486826108bf565b90945092506101e38683610ad9565b50505b6001600160a01b0384166000818152600260205260409081902042600390910155517faca81f8dfdb5e554ef873ba451d1ca28d6701b3d9c3ab5e56c699ae0b37bade19061023790859085906114c8565b60405180910390a25050600180555050565b81336102558282610bdb565b6102715760405162461bcd60e51b815260040161016790611425565b8361027b8161068a565b6102975760405162461bcd60e51b8152600401610167906111a7565b6102a085610c69565b84106102be5760405162461bcd60e51b815260040161016790611226565b6102c785610144565b6001600160a01b03851660008181526002602081905260409182902001869055517fa648920efd9baafceb9a4c0163ddc4d7c9df1d0f9a58f8e376bd0ec68e0f749890610315908790611114565b60405180910390a25050505050565b81336103308282610bdb565b61034c5760405162461bcd60e51b815260040161016790611425565b836103568161068a565b6103725760405162461bcd60e51b8152600401610167906111a7565b6001600160a01b0384166103985760405162461bcd60e51b815260040161016790611326565b6001600160a01b038581166000818152600260205260409081902080546001600160a01b0319169388169390931790925590517faaebcf1bfa00580e41d966056b48521fa9f202645c86d4ddf28113e617c1b1d3906103159087906110c1565b336000908152600260208190526040822080546001600160a01b03191681556001810183905590810182905560030155565b600260208190526000918252604090912080546001820154928201546003909201546001600160a01b0390911692919084565b6000610468826107ad565b92915050565b813361047a8282610bdb565b6104965760405162461bcd60e51b815260040161016790611425565b600054604051631d3af8fb60e21b815285916001600160a01b0316906374ebe3ec906104c69084906004016110c1565b60206040518083038186803b1580156104de57600080fd5b505afa1580156104f2573d6000803e3d6000fd5b505050506040513d601f19601f820116820180604052508101906105169190610f7b565b6105325760405162461bcd60e51b8152600401610167906113e2565b61053b81610c87565b6105575760405162461bcd60e51b8152600401610167906111ef565b83516001600160a01b031661057e5760405162461bcd60e51b815260040161016790611326565b610586610cb6565b8460200151106105a85760405162461bcd60e51b815260040161016790611170565b8360200151846040015111156105d05760405162461bcd60e51b81526004016101679061136d565b42606085019081526001600160a01b0386811660008181526002602081815260408084208b5181546001600160a01b0319169716969096178655908a01516001860155808a015191850191909155935160039093019290925582516307ff078f60e11b815292519092630ffe0f1e92600480830193919282900301818387803b15801561065c57600080fd5b505af1158015610670573d6000803e3d6000fd5b505050505050505050565b6000546001600160a01b031681565b60008054604051631d3af8fb60e21b81526001600160a01b03909116906374ebe3ec906106bb9085906004016110c1565b60206040518083038186803b1580156106d357600080fd5b505afa1580156106e7573d6000803e3d6000fd5b505050506040513d601f19601f8201168201806040525081019061070b9190610f7b565b801561046857506040516335fc6c9f60e21b81526001600160a01b0383169063d7f1b27c9061073e9030906004016110c1565b60206040518083038186803b15801561075657600080fd5b505afa15801561076a573d6000803e3d6000fd5b505050506040513d601f19601f820116820180604052508101906104689190610f7b565b6001600160a01b03166000908152600260208190526040909120015490565b6000806107c96107bc84610cc2565b429063ffffffff610ce016565b90506107f86301e187e06107ec6107df8661078e565b849063ffffffff610d2216565b9063ffffffff610d5c16565b9392505050565b600080836001600160a01b03166318160ddd6040518163ffffffff1660e01b815260040160206040518083038186803b15801561083b57600080fd5b505afa15801561084f573d6000803e3d6000fd5b505050506040513d601f19601f8201168201806040525081019061087391906110a9565b90506000610887848363ffffffff610d2216565b905060006108a385610897610cb6565b9063ffffffff610ce016565b90506108b5828263ffffffff610d5c16565b9695505050505050565b60008060008060009054906101000a90046001600160a01b03166001600160a01b031663469048406040518163ffffffff1660e01b815260040160206040518083038186803b15801561091157600080fd5b505afa158015610925573d6000803e3d6000fd5b505050506040513d601f19601f820116820180604052508101906109499190610f5f565b6000805460405163792aa04f60e01b815292935090916001600160a01b039091169063792aa04f9061098190309085906004016110d5565b60206040518083038186803b15801561099957600080fd5b505afa1580156109ad573d6000803e3d6000fd5b505050506040513d601f19601f820116820180604052508101906109d191906110a9565b905060006109e5868363ffffffff610d9e16565b905060006109f9878363ffffffff610ce016565b9050876001600160a01b03166340c10f19610a138a610dbc565b836040518363ffffffff1660e01b8152600401610a319291906110d5565b600060405180830381600087803b158015610a4b57600080fd5b505af1158015610a5f573d6000803e3d6000fd5b505050506000821115610acd576040516340c10f1960e01b81526001600160a01b038916906340c10f1990610a9a90879086906004016110d5565b600060405180830381600087803b158015610ab457600080fd5b505af1158015610ac8573d6000803e3d6000fd5b505050505b97909650945050505050565b6000826001600160a01b0316635230c3966040518163ffffffff1660e01b815260040160206040518083038186803b158015610b1457600080fd5b505afa158015610b28573d6000803e3d6000fd5b505050506040513d601f19601f82011682018060405250810190610b4c91906110a9565b90506000610b74610b67610b6285610897610cb6565b610dda565b839063ffffffff610e0316565b60405163c2de0e9d60e01b81529091506001600160a01b0385169063c2de0e9d90610ba3908490600401611114565b600060405180830381600087803b158015610bbd57600080fd5b505af1158015610bd1573d6000803e3d6000fd5b5050505050505050565b6000816001600160a01b0316836001600160a01b031663481c6a756040518163ffffffff1660e01b815260040160206040518083038186803b158015610c2057600080fd5b505afa158015610c34573d6000803e3d6000fd5b505050506040513d601f19601f82011682018060405250810190610c589190610f5f565b6001600160a01b0316149392505050565b6001600160a01b031660009081526002602052604090206001015490565b6040516353bae5f760e01b81526000906001600160a01b038316906353bae5f79061073e9030906004016110c1565b670de0b6b3a764000090565b6001600160a01b031660009081526002602052604090206003015490565b60006107f883836040518060400160405280601e81526020017f536166654d6174683a207375627472616374696f6e206f766572666c6f770000815250610e2d565b600082610d3157506000610468565b82820282848281610d3e57fe5b04146107f85760405162461bcd60e51b81526004016101679061129e565b60006107f883836040518060400160405280601a81526020017f536166654d6174683a206469766973696f6e206279207a65726f000000000000815250610e59565b60006107f8670de0b6b3a76400006107ec858563ffffffff610d2216565b6001600160a01b039081166000908152600260205260409020541690565b6000600160ff1b8210610dff5760405162461bcd60e51b81526004016101679061139a565b5090565b60006107f8670de0b6b3a7640000610e21858563ffffffff610e9016565b9063ffffffff610efb16565b60008184841115610e515760405162461bcd60e51b8152600401610167919061111d565b505050900390565b60008183610e7a5760405162461bcd60e51b8152600401610167919061111d565b506000838581610e8657fe5b0495945050505050565b600082610e9f57506000610468565b82600019148015610eb35750600160ff1b82145b15610ed05760405162461bcd60e51b8152600401610167906112df565b82820282848281610edd57fe5b05146107f85760405162461bcd60e51b8152600401610167906112df565b600081610f1a5760405162461bcd60e51b81526004016101679061145c565b81600019148015610f2e5750600160ff1b83145b15610f4b5760405162461bcd60e51b81526004016101679061125d565b6000828481610f5657fe5b05949350505050565b600060208284031215610f70578081fd5b81516107f8816114d6565b600060208284031215610f8c578081fd5b815180151581146107f8578182fd5b600060208284031215610fac578081fd5b81356107f8816114d6565b60008060408385031215610fc9578081fd5b8235610fd4816114d6565b91506020830135610fe4816114d6565b809150509250929050565b60008082840360a0811215611002578283fd5b833561100d816114d6565b92506080601f1982011215611020578182fd5b506040516080810181811067ffffffffffffffff82111715611040578283fd5b6040526020840135611051816114d6565b80825250604084013560208201526060840135604082015260808401356060820152809150509250929050565b60008060408385031215611090578182fd5b823561109b816114d6565b946020939093013593505050565b6000602082840312156110ba578081fd5b5051919050565b6001600160a01b0391909116815260200190565b6001600160a01b03929092168252602082015260400190565b6001600160a01b0394909416845260208401929092526040830152606082015260800190565b90815260200190565b6000602080835283518082850152825b818110156111495785810183015185820160400152820161112d565b8181111561115a5783604083870101525b50601f01601f1916929092016040019392505050565b60208082526017908201527f4d617820666565206d757374206265203c20313030252e000000000000000000604082015260600190565b60208082526028908201527f4d75737420626520612076616c696420616e6420696e697469616c697a65642060408201526729b2ba2a37b5b2b760c11b606082015260800190565b6020808252601e908201527f4d7573742062652070656e64696e6720696e697469616c697a6174696f6e0000604082015260600190565b60208082526019908201527f466565206d757374206265206c657373207468616e206d617800000000000000604082015260600190565b60208082526021908201527f5369676e6564536166654d6174683a206469766973696f6e206f766572666c6f6040820152607760f81b606082015260800190565b60208082526021908201527f536166654d6174683a206d756c7469706c69636174696f6e206f766572666c6f6040820152607760f81b606082015260800190565b60208082526027908201527f5369676e6564536166654d6174683a206d756c7469706c69636174696f6e206f604082015266766572666c6f7760c81b606082015260800190565b60208082526027908201527f46656520526563697069656e74206d757374206265206e6f6e2d7a65726f206160408201526632323932b9b99760c91b606082015260800190565b6020808252601390820152722332b29036bab9ba103132901e1e9036b0bc1760691b604082015260600190565b60208082526028908201527f53616665436173743a2076616c756520646f65736e27742066697420696e2061604082015267371034b73a191a9b60c11b606082015260800190565b60208082526023908201527f4d75737420626520636f6e74726f6c6c65722d656e61626c656420536574546f60408201526235b2b760e91b606082015260800190565b6020808252601c908201527f4d7573742062652074686520536574546f6b656e206d616e6167657200000000604082015260600190565b6020808252818101527f5369676e6564536166654d6174683a206469766973696f6e206279207a65726f604082015260600190565b6020808252601f908201527f5265656e7472616e637947756172643a207265656e7472616e742063616c6c00604082015260600190565b918252602082015260400190565b6001600160a01b03811681146114eb57600080fd5b5056fea2646970667358221220ebb83e961ef5da2dbef08644cf2345047463c1155e259d84e05f04d6b79bd77764736f6c634300060a0033",
  "linkReferences": {},
  "deployedLinkReferences": {}
}