{
  "_format": "hh-sol-artifact-1",
  "contractName": "WrapModuleV2",
  "sourceName": "contracts/protocol/modules/v1/WrapModuleV2.sol",
  "abi": [
    {
      "inputs": [
        {
          "internalType": "contract IController",
          "name": "_controller",
          "type": "address"
        },
        {
          "internalType": "contract IWETH",
          "name": "_weth",
          "type": "address"
        }
      ],
      "stateMutability": "nonpayable",
      "type": "constructor"
    },
    {
      "anonymous": false,
      "inputs": [
        {
          "indexed": true,
          "internalType": "contract ISetToken",
          "name": "_setToken",
          "type": "address"
        },
        {
          "indexed": true,
          "internalType": "address",
          "name": "_underlyingToken",
          "type": "address"
        },
        {
          "indexed": true,
          "internalType": "address",
          "name": "_wrappedToken",
          "type": "address"
        },
        {
          "indexed": false,
          "internalType": "uint256",
          "name": "_underlyingQuantity",
          "type": "uint256"
        },
        {
          "indexed": false,
          "internalType": "uint256",
          "name": "_wrappedQuantity",
          "type": "uint256"
        },
        {
          "indexed": false,
          "internalType": "string",
          "name": "_integrationName",
          "type": "string"
        }
      ],
      "name": "ComponentUnwrapped",
      "type": "event"
    },
    {
      "anonymous": false,
      "inputs": [
        {
          "indexed": true,
          "internalType": "contract ISetToken",
          "name": "_setToken",
          "type": "address"
        },
        {
          "indexed": true,
          "internalType": "address",
          "name": "_underlyingToken",
          "type": "address"
        },
        {
          "indexed": true,
          "internalType": "address",
          "name": "_wrappedToken",
          "type": "address"
        },
        {
          "indexed": false,
          "internalType": "uint256",
          "name": "_underlyingQuantity",
          "type": "uint256"
        },
        {
          "indexed": false,
          "internalType": "uint256",
          "name": "_wrappedQuantity",
          "type": "uint256"
        },
        {
          "indexed": false,
          "internalType": "string",
          "name": "_integrationName",
          "type": "string"
        }
      ],
      "name": "ComponentWrapped",
      "type": "event"
    },
    {
      "inputs": [],
      "name": "controller",
      "outputs": [
        {
          "internalType": "contract IController",
          "name": "",
          "type": "address"
        }
      ],
      "stateMutability": "view",
      "type": "function",
      "gas": "0xa7d8c0"
    },
    {
      "inputs": [
        {
          "internalType": "contract ISetToken",
          "name": "_setToken",
          "type": "address"
        }
      ],
      "name": "initialize",
      "outputs": [],
      "stateMutability": "nonpayable",
      "type": "function",
      "gas": "0xa7d8c0"
    },
    {
      "inputs": [],
      "name": "removeModule",
      "outputs": [],
      "stateMutability": "nonpayable",
      "type": "function",
      "gas": "0xa7d8c0"
    },
    {
      "inputs": [
        {
          "internalType": "contract ISetToken",
          "name": "_setToken",
          "type": "address"
        },
        {
          "internalType": "address",
          "name": "_underlyingToken",
          "type": "address"
        },
        {
          "internalType": "address",
          "name": "_wrappedToken",
          "type": "address"
        },
        {
          "internalType": "uint256",
          "name": "_wrappedUnits",
          "type": "uint256"
        },
        {
          "internalType": "string",
          "name": "_integrationName",
          "type": "string"
        },
        {
          "internalType": "bytes",
          "name": "_unwrapData",
          "type": "bytes"
        }
      ],
      "name": "unwrap",
      "outputs": [],
      "stateMutability": "nonpayable",
      "type": "function",
      "gas": "0xa7d8c0"
    },
    {
      "inputs": [
        {
          "internalType": "contract ISetToken",
          "name": "_setToken",
          "type": "address"
        },
        {
          "internalType": "address",
          "name": "_wrappedToken",
          "type": "address"
        },
        {
          "internalType": "uint256",
          "name": "_wrappedUnits",
          "type": "uint256"
        },
        {
          "internalType": "string",
          "name": "_integrationName",
          "type": "string"
        },
        {
          "internalType": "bytes",
          "name": "_unwrapData",
          "type": "bytes"
        }
      ],
      "name": "unwrapWithEther",
      "outputs": [],
      "stateMutability": "nonpayable",
      "type": "function",
      "gas": "0xa7d8c0"
    },
    {
      "inputs": [],
      "name": "weth",
      "outputs": [
        {
          "internalType": "contract IWETH",
          "name": "",
          "type": "address"
        }
      ],
      "stateMutability": "view",
      "type": "function",
      "gas": "0xa7d8c0"
    },
    {
      "inputs": [
        {
          "internalType": "contract ISetToken",
          "name": "_setToken",
          "type": "address"
        },
        {
          "internalType": "address",
          "name": "_underlyingToken",
          "type": "address"
        },
        {
          "internalType": "address",
          "name": "_wrappedToken",
          "type": "address"
        },
        {
          "internalType": "uint256",
          "name": "_underlyingUnits",
          "type": "uint256"
        },
        {
          "internalType": "string",
          "name": "_integrationName",
          "type": "string"
        },
        {
          "internalType": "bytes",
          "name": "_wrapData",
          "type": "bytes"
        }
      ],
      "name": "wrap",
      "outputs": [],
      "stateMutability": "nonpayable",
      "type": "function",
      "gas": "0xa7d8c0"
    },
    {
      "inputs": [
        {
          "internalType": "contract ISetToken",
          "name": "_setToken",
          "type": "address"
        },
        {
          "internalType": "address",
          "name": "_wrappedToken",
          "type": "address"
        },
        {
          "internalType": "uint256",
          "name": "_underlyingUnits",
          "type": "uint256"
        },
        {
          "internalType": "string",
          "name": "_integrationName",
          "type": "string"
        },
        {
          "internalType": "bytes",
          "name": "_wrapData",
          "type": "bytes"
        }
      ],
      "name": "wrapWithEther",
      "outputs": [],
      "stateMutability": "nonpayable",
      "type": "function",
      "gas": "0xa7d8c0"
    }
  ],
  "bytecode": "0x60806040523480156200001157600080fd5b506040516200221d3803806200221d83398101604081905262000034916200006a565b600080546001600160a01b039384166001600160a01b0319918216179091556001805560028054929093169116179055620000c1565b600080604083850312156200007d578182fd5b82516200008a81620000a8565b60208401519092506200009d81620000a8565b809150509250929050565b6001600160a01b0381168114620000be57600080fd5b50565b61214c80620000d16000396000f3fe608060405234801561001057600080fd5b50600436106100885760003560e01c80638c72ef231161005b5780638c72ef23146100db578063aa0770bc146100ee578063c4d66de814610101578063f77c47911461011457610088565b806310ac16d71461008d5780633231b2d7146100a25780633fc8cef3146100b5578063847ef08d146100d3575b600080fd5b6100a061009b366004611baf565b61011c565b005b6100a06100b0366004611b07565b6101e6565b6100bd61029b565b6040516100ca9190611c87565b60405180910390f35b6100a06102aa565b6100a06100e9366004611baf565b6102ac565b6100a06100fc366004611b07565b610356565b6100a061010f366004611aeb565b6103f3565b6100bd610518565b600260015414156101485760405162461bcd60e51b815260040161013f90612009565b60405180910390fd5b60026001558561015781610527565b600254600090819061017c90879087908c906001600160a01b03168c8c8a6001610575565b6002546040519294509092506001600160a01b03808b169291811691908c16907f266efe8e5e4e2e7e407c4814a2818ef8e990768c61e67315ac34a8d3555b438e906101cf90879087908d908d90612049565b60405180910390a450506001805550505050505050565b600260015414156102095760405162461bcd60e51b815260040161013f90612009565b60026001558661021881610527565b60008061022c86868c8c8c8c8a6000610575565b91509150876001600160a01b0316896001600160a01b03168b6001600160a01b03167f266efe8e5e4e2e7e407c4814a2818ef8e990768c61e67315ac34a8d3555b438e85858b8b6040516102839493929190612049565b60405180910390a45050600180555050505050505050565b6002546001600160a01b031681565b565b600260015414156102cf5760405162461bcd60e51b815260040161013f90612009565b6002600155856102de81610527565b600254600090819061030390879087908c906001600160a01b03168c8c8a600161080c565b6002546040519294509092506001600160a01b03808b169291811691908c16907f0e631fe8e26e2b6c2ce8c4c55eca1d769c98bb4b5539068aec9ada0a3b429afe906101cf90879087908d908d90612049565b600260015414156103795760405162461bcd60e51b815260040161013f90612009565b60026001558661038881610527565b60008061039c86868c8c8c8c8a600061080c565b91509150876001600160a01b0316896001600160a01b03168b6001600160a01b03167f0e631fe8e26e2b6c2ce8c4c55eca1d769c98bb4b5539068aec9ada0a3b429afe85858b8b6040516102839493929190612049565b80336103ff82826109dc565b600054604051631d3af8fb60e21b81526001600160a01b03909116906374ebe3ec9061042f908690600401611c87565b60206040518083038186803b15801561044757600080fd5b505afa15801561045b573d6000803e3d6000fd5b505050506040513d601f19601f8201168201806040525081019061047f9190611a90565b61049b5760405162461bcd60e51b815260040161013f90611f8f565b6104a483610a06565b6104c05760405162461bcd60e51b815260040161013f90611de8565b826001600160a01b0316630ffe0f1e6040518163ffffffff1660e01b8152600401600060405180830381600087803b1580156104fb57600080fd5b505af115801561050f573d6000803e3d6000fd5b50505050505050565b6000546001600160a01b031681565b6105318133610a8b565b61054d5760405162461bcd60e51b815260040161013f90611fd2565b61055681610b19565b6105725760405162461bcd60e51b815260040161013f90611da0565b50565b600080610583888887610bcd565b6000806105918a8a8a610c5d565b915091506000610618888c6001600160a01b03166318160ddd6040518163ffffffff1660e01b815260040160206040518083038186803b1580156105d457600080fd5b505afa1580156105e8573d6000803e3d6000fd5b505050506040513d601f19601f8201168201806040525081019061060c9190611c43565b9063ffffffff610d6c16565b9050600061065b8e8e8080601f016020809104026020016040519081016040528093929190818152602001838380828437600092019190915250610d8592505050565b9050861561068857600254610683906001600160a01b038e811691168463ffffffff610d9c16565b610722565b6107228b826001600160a01b031663de68a3da8e8e6040518363ffffffff1660e01b81526004016106ba929190611c9b565b60206040518083038186803b1580156106d257600080fd5b505afa1580156106e6573d6000803e3d6000fd5b505050506040513d601f19601f8201168201806040525081019061070a9190611971565b6001600160a01b038f1691908563ffffffff610e6816565b6107ab8c8289610732578d6107a3565b836001600160a01b0316631878d1f16040518163ffffffff1660e01b815260040160206040518083038186803b15801561076b57600080fd5b505afa15801561077f573d6000803e3d6000fd5b505050506040513d601f19601f820116820180604052508101906107a39190611971565b8d868d610f37565b6000806107b98e8e8e610c5d565b915091506107c98e8e888561105c565b6107d58e8d878461105c565b6107e5868363ffffffff61118216565b6107f5828763ffffffff61118216565b975097505050505050509850989650505050505050565b60008061081a888787610bcd565b6000806108288a8a8a610c5d565b91509150600061086b888c6001600160a01b03166318160ddd6040518163ffffffff1660e01b815260040160206040518083038186803b1580156105d457600080fd5b905060006108ae8e8e8080601f016020809104026020016040519081016040528093929190818152602001838380828437600092019190915250610d8592505050565b90506108e28a826001600160a01b031663de68a3da8e8e6040518363ffffffff1660e01b81526004016106ba929190611c9b565b61096b8c82896108f2578d610963565b836001600160a01b0316631878d1f16040518163ffffffff1660e01b815260040160206040518083038186803b15801561092b57600080fd5b505afa15801561093f573d6000803e3d6000fd5b505050506040513d601f19601f820116820180604052508101906109639190611971565b8d868d6111c4565b861561099257600254610992906001600160a01b038e81169116813163ffffffff6111fd16565b6000806109a08e8e8e610c5d565b915091506109b08e8e888561105c565b6109bc8e8d878461105c565b6109cc828763ffffffff61118216565b6107f5868363ffffffff61118216565b6109e68282610a8b565b610a025760405162461bcd60e51b815260040161013f90611fd2565b5050565b6040516353bae5f760e01b81526000906001600160a01b038316906353bae5f790610a35903090600401611c87565b60206040518083038186803b158015610a4d57600080fd5b505afa158015610a61573d6000803e3d6000fd5b505050506040513d601f19601f82011682018060405250810190610a859190611a90565b92915050565b6000816001600160a01b0316836001600160a01b031663481c6a756040518163ffffffff1660e01b815260040160206040518083038186803b158015610ad057600080fd5b505afa158015610ae4573d6000803e3d6000fd5b505050506040513d601f19601f82011682018060405250810190610b089190611971565b6001600160a01b0316149392505050565b60008054604051631d3af8fb60e21b81526001600160a01b03909116906374ebe3ec90610b4a908590600401611c87565b60206040518083038186803b158015610b6257600080fd5b505afa158015610b76573d6000803e3d6000fd5b505050506040513d601f19601f82011682018060405250810190610b9a9190611a90565b8015610a8557506040516335fc6c9f60e21b81526001600160a01b0383169063d7f1b27c90610a35903090600401611c87565b60008111610bed5760405162461bcd60e51b815260040161013f90611e4e565b610c066001600160a01b0384168363ffffffff61125516565b610c225760405162461bcd60e51b815260040161013f90611d57565b610c3c6001600160a01b038416838363ffffffff6112dc16565b610c585760405162461bcd60e51b815260040161013f90611f05565b505050565b6000806000846001600160a01b03166370a08231876040518263ffffffff1660e01b8152600401610c8e9190611c87565b60206040518083038186803b158015610ca657600080fd5b505afa158015610cba573d6000803e3d6000fd5b505050506040513d601f19601f82011682018060405250810190610cde9190611c43565b90506000846001600160a01b03166370a08231886040518263ffffffff1660e01b8152600401610d0e9190611c87565b60206040518083038186803b158015610d2657600080fd5b505afa158015610d3a573d6000803e3d6000fd5b505050506040513d601f19601f82011682018060405250810190610d5e9190611c43565b919791965090945050505050565b6000610d7e838363ffffffff61136d16565b9392505050565b600080610d9183611397565b9050610d7e816113a2565b606081604051602401610daf9190612040565b60408051601f198184030181529181526020820180516001600160e01b0316632e1a7d4d60e01b179052516347b7819960e11b81529091506001600160a01b03851690638f6f033290610e0b9086906000908690600401611d14565b600060405180830381600087803b158015610e2557600080fd5b505af1158015610e39573d6000803e3d6000fd5b505050506040513d6000823e601f3d908101601f19168201604052610e619190810190611ab0565b5050505050565b60608282604051602401610e7d929190611cfb565b60408051601f198184030181529181526020820180516001600160e01b031663095ea7b360e01b179052516347b7819960e11b81529091506001600160a01b03861690638f6f033290610ed99087906000908690600401611d14565b600060405180830381600087803b158015610ef357600080fd5b505af1158015610f07573d6000803e3d6000fd5b505050506040513d6000823e601f3d908101601f19168201604052610f2f9190810190611ab0565b505050505050565b6000806060876001600160a01b031663d91462ca8888888d896040518663ffffffff1660e01b8152600401610f70959493929190611cb5565b60006040518083038186803b158015610f8857600080fd5b505afa158015610f9c573d6000803e3d6000fd5b505050506040513d6000823e601f3d908101601f19168201604052610fc4919081019061198d565b925092509250886001600160a01b0316638f6f03328484846040518463ffffffff1660e01b8152600401610ffa93929190611d14565b600060405180830381600087803b15801561101457600080fd5b505af1158015611028573d6000803e3d6000fd5b505050506040513d6000823e601f3d908101601f191682016040526110509190810190611ab0565b50505050505050505050565b600061116683836110e7886001600160a01b03166366cb8d2f896040518263ffffffff1660e01b81526004016110929190611c87565b60206040518083038186803b1580156110aa57600080fd5b505afa1580156110be573d6000803e3d6000fd5b505050506040513d601f19601f820116820180604052508101906110e29190611c43565b61145f565b886001600160a01b03166318160ddd6040518163ffffffff1660e01b815260040160206040518083038186803b15801561112057600080fd5b505afa158015611134573d6000803e3d6000fd5b505050506040513d601f19601f820116820180604052508101906111589190611c43565b92919063ffffffff61148516565b9050610e616001600160a01b038616858363ffffffff6114d416565b6000610d7e83836040518060400160405280601e81526020017f536166654d6174683a207375627472616374696f6e206f766572666c6f770000815250611652565b6000806060876001600160a01b03166390f0f9388888888d896040518663ffffffff1660e01b8152600401610f70959493929190611cb5565b6040805160048082526024820183526020820180516001600160e01b0316630d0e30db60e41b17905291516347b7819960e11b815290916001600160a01b03861691638f6f033291610e0b9187918791879101611d14565b600080836001600160a01b03166366cb8d2f846040518263ffffffff1660e01b81526004016112849190611c87565b60206040518083038186803b15801561129c57600080fd5b505afa1580156112b0573d6000803e3d6000fd5b505050506040513d601f19601f820116820180604052508101906112d49190611c43565b139392505050565b60006112e78261167e565b6040516366cb8d2f60e01b81526001600160a01b038616906366cb8d2f90611313908790600401611c87565b60206040518083038186803b15801561132b57600080fd5b505afa15801561133f573d6000803e3d6000fd5b505050506040513d601f19601f820116820180604052508101906113639190611c43565b1215949350505050565b6000610d7e670de0b6b3a764000061138b858563ffffffff6116a316565b9063ffffffff6116dd16565b805160209091012090565b6000805481906113ba906001600160a01b031661171f565b6001600160a01b031663e6d642c530856040518363ffffffff1660e01b81526004016113e7929190611cfb565b60206040518083038186803b1580156113ff57600080fd5b505afa158015611413573d6000803e3d6000fd5b505050506040513d601f19601f820116820180604052508101906114379190611971565b90506001600160a01b038116610a855760405162461bcd60e51b815260040161013f90611e1f565b6000808212156114815760405162461bcd60e51b815260040161013f90611e8f565b5090565b6000806114a861149b848863ffffffff61136d16565b869063ffffffff61118216565b90506114ca866114be868463ffffffff61118216565b9063ffffffff61179e16565b9695505050505050565b60006114e08484611255565b9050801580156114f05750600082115b15611567576114ff84846117bc565b611562576040516304e3532760e41b81526001600160a01b03851690634e3532709061152f908690600401611c87565b600060405180830381600087803b15801561154957600080fd5b505af115801561155d573d6000803e3d6000fd5b505050505b6115e4565b808015611572575081155b156115e45761158184846117bc565b6115e457604051636f86c89760e01b81526001600160a01b03851690636f86c897906115b1908690600401611c87565b600060405180830381600087803b1580156115cb57600080fd5b505af11580156115df573d6000803e3d6000fd5b505050505b836001600160a01b0316632ba57d17846115fd8561167e565b6040518363ffffffff1660e01b815260040161161a929190611cfb565b600060405180830381600087803b15801561163457600080fd5b505af1158015611648573d6000803e3d6000fd5b5050505050505050565b600081848411156116765760405162461bcd60e51b815260040161013f9190611d44565b505050900390565b6000600160ff1b82106114815760405162461bcd60e51b815260040161013f90611f47565b6000826116b257506000610a85565b828202828482816116bf57fe5b0414610d7e5760405162461bcd60e51b815260040161013f90611ec4565b6000610d7e83836040518060400160405280601a81526020017f536166654d6174683a206469766973696f6e206279207a65726f000000000000815250611848565b6040516373b2e76b60e11b81526000906001600160a01b0383169063e765ced69061174e908490600401612040565b60206040518083038186803b15801561176657600080fd5b505afa15801561177a573d6000803e3d6000fd5b505050506040513d601f19601f82011682018060405250810190610a859190611971565b6000610d7e8261138b85670de0b6b3a764000063ffffffff6116a316565b600080836001600160a01b031663a7bdad03846040518263ffffffff1660e01b81526004016117eb9190611c87565b60006040518083038186803b15801561180357600080fd5b505afa158015611817573d6000803e3d6000fd5b505050506040513d6000823e601f3d908101601f1916820160405261183f91908101906119e5565b51119392505050565b600081836118695760405162461bcd60e51b815260040161013f9190611d44565b50600083858161187557fe5b0495945050505050565b8051610a8581612101565b600082601f83011261189a578081fd5b81356118ad6118a8826120ad565b612086565b91508082528360208285010111156118c457600080fd5b8060208401602084013760009082016020015292915050565b600082601f8301126118ed578081fd5b81516118fb6118a8826120ad565b915080825283602082850101111561191257600080fd5b6119238160208401602086016120d1565b5092915050565b60008083601f84011261193b578182fd5b50813567ffffffffffffffff811115611952578182fd5b60208301915083602082850101111561196a57600080fd5b9250929050565b600060208284031215611982578081fd5b8151610d7e81612101565b6000806000606084860312156119a1578182fd5b83516119ac81612101565b60208501516040860151919450925067ffffffffffffffff8111156119cf578182fd5b6119db868287016118dd565b9150509250925092565b600060208083850312156119f7578182fd5b825167ffffffffffffffff80821115611a0e578384fd5b81850186601f820112611a1f578485fd5b8051925081831115611a2f578485fd5b8383029150611a3f848301612086565b8381528481019082860184840187018a1015611a59578788fd5b8794505b85851015611a8357611a6f8a8261187f565b835260019490940193918601918601611a5d565b5098975050505050505050565b600060208284031215611aa1578081fd5b81518015158114610d7e578182fd5b600060208284031215611ac1578081fd5b815167ffffffffffffffff811115611ad7578182fd5b611ae3848285016118dd565b949350505050565b600060208284031215611afc578081fd5b8135610d7e81612101565b600080600080600080600060c0888a031215611b21578283fd5b8735611b2c81612101565b96506020880135611b3c81612101565b95506040880135611b4c81612101565b945060608801359350608088013567ffffffffffffffff80821115611b6f578485fd5b611b7b8b838c0161192a565b909550935060a08a0135915080821115611b93578283fd5b50611ba08a828b0161188a565b91505092959891949750929550565b60008060008060008060a08789031215611bc7578182fd5b8635611bd281612101565b95506020870135611be281612101565b945060408701359350606087013567ffffffffffffffff80821115611c05578384fd5b611c118a838b0161192a565b90955093506080890135915080821115611c29578283fd5b50611c3689828a0161188a565b9150509295509295509295565b600060208284031215611c54578081fd5b5051919050565b60008151808452611c738160208601602086016120d1565b601f01601f19169290920160200192915050565b6001600160a01b0391909116815260200190565b6001600160a01b0392831681529116602082015260400190565b6001600160a01b0386811682528581166020830152604082018590528316606082015260a060808201819052600090611cf090830184611c5b565b979650505050505050565b6001600160a01b03929092168252602082015260400190565b600060018060a01b038516825283602083015260606040830152611d3b6060830184611c5b565b95945050505050565b600060208252610d7e6020830184611c5b565b60208082526029908201527f5461726765742064656661756c7420706f736974696f6e206d7573742062652060408201526818dbdb5c1bdb995b9d60ba1b606082015260800190565b60208082526028908201527f4d75737420626520612076616c696420616e6420696e697469616c697a65642060408201526729b2ba2a37b5b2b760c11b606082015260800190565b6020808252601e908201527f4d7573742062652070656e64696e6720696e697469616c697a6174696f6e0000604082015260600190565b60208082526015908201527426bab9ba103132903b30b634b21030b230b83a32b960591b604082015260600190565b60208082526021908201527f54617267657420706f736974696f6e20756e697473206d757374206265203e206040820152600360fc1b606082015260800190565b6020808252818101527f53616665436173743a2076616c7565206d75737420626520706f736974697665604082015260600190565b60208082526021908201527f536166654d6174683a206d756c7469706c69636174696f6e206f766572666c6f6040820152607760f81b606082015260800190565b60208082526022908201527f556e69742063616e742062652067726561746572207468616e206578697374696040820152616e6760f01b606082015260800190565b60208082526028908201527f53616665436173743a2076616c756520646f65736e27742066697420696e2061604082015267371034b73a191a9b60c11b606082015260800190565b60208082526023908201527f4d75737420626520636f6e74726f6c6c65722d656e61626c656420536574546f60408201526235b2b760e91b606082015260800190565b6020808252601c908201527f4d7573742062652074686520536574546f6b656e206d616e6167657200000000604082015260600190565b6020808252601f908201527f5265656e7472616e637947756172643a207265656e7472616e742063616c6c00604082015260600190565b90815260200190565b60008582528460208301526060604083015282606083015282846080840137818301608090810191909152601f909201601f191601019392505050565b60405181810167ffffffffffffffff811182821017156120a557600080fd5b604052919050565b600067ffffffffffffffff8211156120c3578081fd5b50601f01601f191660200190565b60005b838110156120ec5781810151838201526020016120d4565b838111156120fb576000848401525b50505050565b6001600160a01b038116811461057257600080fdfea2646970667358221220d85cc0cf8b88b97f2a1ce864f4abc8a211e9548f1c8c149931a51d9d6894aa2664736f6c634300060a0033",
  "linkReferences": {},
  "deployedLinkReferences": {}
}