{
  "_format": "hh-sol-artifact-1",
  "contractName": "WrapModuleV2",
  "sourceName": "contracts/protocol/modules/v1/WrapModuleV2.sol",
  "abi": [
    {
      "inputs": [
        {
          "internalType": "contract IController",
          "name": "_controller",
          "type": "address"
        },
        {
          "internalType": "contract IWETH",
          "name": "_weth",
          "type": "address"
        }
      ],
      "stateMutability": "nonpayable",
      "type": "constructor"
    },
    {
      "anonymous": false,
      "inputs": [
        {
          "indexed": true,
          "internalType": "contract ISetToken",
          "name": "_setToken",
          "type": "address"
        },
        {
          "indexed": true,
          "internalType": "address",
          "name": "_underlyingToken",
          "type": "address"
        },
        {
          "indexed": true,
          "internalType": "address",
          "name": "_wrappedToken",
          "type": "address"
        },
        {
          "indexed": false,
          "internalType": "uint256",
          "name": "_underlyingQuantity",
          "type": "uint256"
        },
        {
          "indexed": false,
          "internalType": "uint256",
          "name": "_wrappedQuantity",
          "type": "uint256"
        },
        {
          "indexed": false,
          "internalType": "string",
          "name": "_integrationName",
          "type": "string"
        }
      ],
      "name": "ComponentUnwrapped",
      "type": "event"
    },
    {
      "anonymous": false,
      "inputs": [
        {
          "indexed": true,
          "internalType": "contract ISetToken",
          "name": "_setToken",
          "type": "address"
        },
        {
          "indexed": true,
          "internalType": "address",
          "name": "_underlyingToken",
          "type": "address"
        },
        {
          "indexed": true,
          "internalType": "address",
          "name": "_wrappedToken",
          "type": "address"
        },
        {
          "indexed": false,
          "internalType": "uint256",
          "name": "_underlyingQuantity",
          "type": "uint256"
        },
        {
          "indexed": false,
          "internalType": "uint256",
          "name": "_wrappedQuantity",
          "type": "uint256"
        },
        {
          "indexed": false,
          "internalType": "string",
          "name": "_integrationName",
          "type": "string"
        }
      ],
      "name": "ComponentWrapped",
      "type": "event"
    },
    {
      "inputs": [],
      "name": "controller",
      "outputs": [
        {
          "internalType": "contract IController",
          "name": "",
          "type": "address"
        }
      ],
      "stateMutability": "view",
      "type": "function",
      "gas": "0xa7d8c0"
    },
    {
      "inputs": [
        {
          "internalType": "contract ISetToken",
          "name": "_setToken",
          "type": "address"
        }
      ],
      "name": "initialize",
      "outputs": [],
      "stateMutability": "nonpayable",
      "type": "function",
      "gas": "0xa7d8c0"
    },
    {
      "inputs": [],
      "name": "removeModule",
      "outputs": [],
      "stateMutability": "nonpayable",
      "type": "function",
      "gas": "0xa7d8c0"
    },
    {
      "inputs": [
        {
          "internalType": "contract ISetToken",
          "name": "_setToken",
          "type": "address"
        },
        {
          "internalType": "address",
          "name": "_underlyingToken",
          "type": "address"
        },
        {
          "internalType": "address",
          "name": "_wrappedToken",
          "type": "address"
        },
        {
          "internalType": "uint256",
          "name": "_wrappedUnits",
          "type": "uint256"
        },
        {
          "internalType": "string",
          "name": "_integrationName",
          "type": "string"
        },
        {
          "internalType": "bytes",
          "name": "_unwrapData",
          "type": "bytes"
        }
      ],
      "name": "unwrap",
      "outputs": [],
      "stateMutability": "nonpayable",
      "type": "function",
      "gas": "0xa7d8c0"
    },
    {
      "inputs": [
        {
          "internalType": "contract ISetToken",
          "name": "_setToken",
          "type": "address"
        },
        {
          "internalType": "address",
          "name": "_wrappedToken",
          "type": "address"
        },
        {
          "internalType": "uint256",
          "name": "_wrappedUnits",
          "type": "uint256"
        },
        {
          "internalType": "string",
          "name": "_integrationName",
          "type": "string"
        },
        {
          "internalType": "bytes",
          "name": "_unwrapData",
          "type": "bytes"
        }
      ],
      "name": "unwrapWithEther",
      "outputs": [],
      "stateMutability": "nonpayable",
      "type": "function",
      "gas": "0xa7d8c0"
    },
    {
      "inputs": [],
      "name": "weth",
      "outputs": [
        {
          "internalType": "contract IWETH",
          "name": "",
          "type": "address"
        }
      ],
      "stateMutability": "view",
      "type": "function",
      "gas": "0xa7d8c0"
    },
    {
      "inputs": [
        {
          "internalType": "contract ISetToken",
          "name": "_setToken",
          "type": "address"
        },
        {
          "internalType": "address",
          "name": "_underlyingToken",
          "type": "address"
        },
        {
          "internalType": "address",
          "name": "_wrappedToken",
          "type": "address"
        },
        {
          "internalType": "uint256",
          "name": "_underlyingUnits",
          "type": "uint256"
        },
        {
          "internalType": "string",
          "name": "_integrationName",
          "type": "string"
        },
        {
          "internalType": "bytes",
          "name": "_wrapData",
          "type": "bytes"
        }
      ],
      "name": "wrap",
      "outputs": [],
      "stateMutability": "nonpayable",
      "type": "function",
      "gas": "0xa7d8c0"
    },
    {
      "inputs": [
        {
          "internalType": "contract ISetToken",
          "name": "_setToken",
          "type": "address"
        },
        {
          "internalType": "address",
          "name": "_wrappedToken",
          "type": "address"
        },
        {
          "internalType": "uint256",
          "name": "_underlyingUnits",
          "type": "uint256"
        },
        {
          "internalType": "string",
          "name": "_integrationName",
          "type": "string"
        },
        {
          "internalType": "bytes",
          "name": "_wrapData",
          "type": "bytes"
        }
      ],
      "name": "wrapWithEther",
      "outputs": [],
      "stateMutability": "nonpayable",
      "type": "function",
      "gas": "0xa7d8c0"
    }
  ],
  "bytecode": "0x60806040523480156200001157600080fd5b50604051620023223803806200232283398101604081905262000034916200006a565b600080546001600160a01b039384166001600160a01b0319918216179091556001805560028054929093169116179055620000c1565b600080604083850312156200007d578182fd5b82516200008a81620000a8565b60208401519092506200009d81620000a8565b809150509250929050565b6001600160a01b0381168114620000be57600080fd5b50565b61225180620000d16000396000f3fe608060405234801561001057600080fd5b50600436106100885760003560e01c80638c72ef231161005b5780638c72ef23146100db578063aa0770bc146100ee578063c4d66de814610101578063f77c47911461011457610088565b806310ac16d71461008d5780633231b2d7146100a25780633fc8cef3146100b5578063847ef08d146100d3575b600080fd5b6100a061009b366004611cb4565b61011c565b005b6100a06100b0366004611c0c565b6101e6565b6100bd61029b565b6040516100ca9190611d8c565b60405180910390f35b6100a06102aa565b6100a06100e9366004611cb4565b6102ac565b6100a06100fc366004611c0c565b610356565b6100a061010f366004611bf0565b6103f3565b6100bd610518565b600260015414156101485760405162461bcd60e51b815260040161013f9061210e565b60405180910390fd5b60026001558561015781610527565b600254600090819061017c90879087908c906001600160a01b03168c8c8a6001610575565b6002546040519294509092506001600160a01b03808b169291811691908c16907f266efe8e5e4e2e7e407c4814a2818ef8e990768c61e67315ac34a8d3555b438e906101cf90879087908d908d9061214e565b60405180910390a450506001805550505050505050565b600260015414156102095760405162461bcd60e51b815260040161013f9061210e565b60026001558661021881610527565b60008061022c86868c8c8c8c8a6000610575565b91509150876001600160a01b0316896001600160a01b03168b6001600160a01b03167f266efe8e5e4e2e7e407c4814a2818ef8e990768c61e67315ac34a8d3555b438e85858b8b604051610283949392919061214e565b60405180910390a45050600180555050505050505050565b6002546001600160a01b031681565b565b600260015414156102cf5760405162461bcd60e51b815260040161013f9061210e565b6002600155856102de81610527565b600254600090819061030390879087908c906001600160a01b03168c8c8a600161080c565b6002546040519294509092506001600160a01b03808b169291811691908c16907f0e631fe8e26e2b6c2ce8c4c55eca1d769c98bb4b5539068aec9ada0a3b429afe906101cf90879087908d908d9061214e565b600260015414156103795760405162461bcd60e51b815260040161013f9061210e565b60026001558661038881610527565b60008061039c86868c8c8c8c8a600061080c565b91509150876001600160a01b0316896001600160a01b03168b6001600160a01b03167f0e631fe8e26e2b6c2ce8c4c55eca1d769c98bb4b5539068aec9ada0a3b429afe85858b8b604051610283949392919061214e565b80336103ff8282610ae1565b600054604051631d3af8fb60e21b81526001600160a01b03909116906374ebe3ec9061042f908690600401611d8c565b60206040518083038186803b15801561044757600080fd5b505afa15801561045b573d6000803e3d6000fd5b505050506040513d601f19601f8201168201806040525081019061047f9190611b95565b61049b5760405162461bcd60e51b815260040161013f90612094565b6104a483610b0b565b6104c05760405162461bcd60e51b815260040161013f90611eed565b826001600160a01b0316630ffe0f1e6040518163ffffffff1660e01b8152600401600060405180830381600087803b1580156104fb57600080fd5b505af115801561050f573d6000803e3d6000fd5b50505050505050565b6000546001600160a01b031681565b6105318133610b90565b61054d5760405162461bcd60e51b815260040161013f906120d7565b61055681610c1e565b6105725760405162461bcd60e51b815260040161013f90611ea5565b50565b600080610583888887610cd2565b6000806105918a8a8a610d62565b915091506000610618888c6001600160a01b03166318160ddd6040518163ffffffff1660e01b815260040160206040518083038186803b1580156105d457600080fd5b505afa1580156105e8573d6000803e3d6000fd5b505050506040513d601f19601f8201168201806040525081019061060c9190611d48565b9063ffffffff610e7116565b9050600061065b8e8e8080601f016020809104026020016040519081016040528093929190818152602001838380828437600092019190915250610e8a92505050565b9050861561068857600254610683906001600160a01b038e811691168463ffffffff610ea116565b610722565b6107228b826001600160a01b031663de68a3da8e8e6040518363ffffffff1660e01b81526004016106ba929190611da0565b60206040518083038186803b1580156106d257600080fd5b505afa1580156106e6573d6000803e3d6000fd5b505050506040513d601f19601f8201168201806040525081019061070a9190611a76565b6001600160a01b038f1691908563ffffffff610f6d16565b6107ab8c8289610732578d6107a3565b836001600160a01b0316631878d1f16040518163ffffffff1660e01b815260040160206040518083038186803b15801561076b57600080fd5b505afa15801561077f573d6000803e3d6000fd5b505050506040513d601f19601f820116820180604052508101906107a39190611a76565b8d868d61103c565b6000806107b98e8e8e610d62565b915091506107c98e8e8885611161565b6107d58e8d8784611161565b6107e5868363ffffffff61128716565b6107f5828763ffffffff61128716565b975097505050505050509850989650505050505050565b60008061081a888787610cd2565b6000806108288a8a8a610d62565b91509150600061086b888c6001600160a01b03166318160ddd6040518163ffffffff1660e01b815260040160206040518083038186803b1580156105d457600080fd5b905060006108ae8e8e8080601f016020809104026020016040519081016040528093929190818152602001838380828437600092019190915250610e8a92505050565b905061094c8a826001600160a01b031663de68a3da8e8e6040518363ffffffff1660e01b81526004016108e2929190611da0565b60206040518083038186803b1580156108fa57600080fd5b505afa15801561090e573d6000803e3d6000fd5b505050506040513d601f19601f820116820180604052508101906109329190611a76565b6001600160a01b038f16919060001963ffffffff610f6d16565b6109d58c828961095c578d6109cd565b836001600160a01b0316631878d1f16040518163ffffffff1660e01b815260040160206040518083038186803b15801561099557600080fd5b505afa1580156109a9573d6000803e3d6000fd5b505050506040513d601f19601f820116820180604052508101906109cd9190611a76565b8d868d6112c9565b86156109fc576002546109fc906001600160a01b038e81169116813163ffffffff61130216565b610a978a826001600160a01b031663de68a3da8e8e6040518363ffffffff1660e01b8152600401610a2e929190611da0565b60206040518083038186803b158015610a4657600080fd5b505afa158015610a5a573d6000803e3d6000fd5b505050506040513d601f19601f82011682018060405250810190610a7e9190611a76565b6001600160a01b038f169190600063ffffffff610f6d16565b600080610aa58e8e8e610d62565b91509150610ab58e8e8885611161565b610ac18e8d8784611161565b610ad1828763ffffffff61128716565b6107f5868363ffffffff61128716565b610aeb8282610b90565b610b075760405162461bcd60e51b815260040161013f906120d7565b5050565b6040516353bae5f760e01b81526000906001600160a01b038316906353bae5f790610b3a903090600401611d8c565b60206040518083038186803b158015610b5257600080fd5b505afa158015610b66573d6000803e3d6000fd5b505050506040513d601f19601f82011682018060405250810190610b8a9190611b95565b92915050565b6000816001600160a01b0316836001600160a01b031663481c6a756040518163ffffffff1660e01b815260040160206040518083038186803b158015610bd557600080fd5b505afa158015610be9573d6000803e3d6000fd5b505050506040513d601f19601f82011682018060405250810190610c0d9190611a76565b6001600160a01b0316149392505050565b60008054604051631d3af8fb60e21b81526001600160a01b03909116906374ebe3ec90610c4f908590600401611d8c565b60206040518083038186803b158015610c6757600080fd5b505afa158015610c7b573d6000803e3d6000fd5b505050506040513d601f19601f82011682018060405250810190610c9f9190611b95565b8015610b8a57506040516335fc6c9f60e21b81526001600160a01b0383169063d7f1b27c90610b3a903090600401611d8c565b60008111610cf25760405162461bcd60e51b815260040161013f90611f53565b610d0b6001600160a01b0384168363ffffffff61135a16565b610d275760405162461bcd60e51b815260040161013f90611e5c565b610d416001600160a01b038416838363ffffffff6113e116565b610d5d5760405162461bcd60e51b815260040161013f9061200a565b505050565b6000806000846001600160a01b03166370a08231876040518263ffffffff1660e01b8152600401610d939190611d8c565b60206040518083038186803b158015610dab57600080fd5b505afa158015610dbf573d6000803e3d6000fd5b505050506040513d601f19601f82011682018060405250810190610de39190611d48565b90506000846001600160a01b03166370a08231886040518263ffffffff1660e01b8152600401610e139190611d8c565b60206040518083038186803b158015610e2b57600080fd5b505afa158015610e3f573d6000803e3d6000fd5b505050506040513d601f19601f82011682018060405250810190610e639190611d48565b919791965090945050505050565b6000610e83838363ffffffff61147216565b9392505050565b600080610e968361149c565b9050610e83816114a7565b606081604051602401610eb49190612145565b60408051601f198184030181529181526020820180516001600160e01b0316632e1a7d4d60e01b179052516347b7819960e11b81529091506001600160a01b03851690638f6f033290610f109086906000908690600401611e19565b600060405180830381600087803b158015610f2a57600080fd5b505af1158015610f3e573d6000803e3d6000fd5b505050506040513d6000823e601f3d908101601f19168201604052610f669190810190611bb5565b5050505050565b60608282604051602401610f82929190611e00565b60408051601f198184030181529181526020820180516001600160e01b031663095ea7b360e01b179052516347b7819960e11b81529091506001600160a01b03861690638f6f033290610fde9087906000908690600401611e19565b600060405180830381600087803b158015610ff857600080fd5b505af115801561100c573d6000803e3d6000fd5b505050506040513d6000823e601f3d908101601f191682016040526110349190810190611bb5565b505050505050565b6000806060876001600160a01b031663d91462ca8888888d896040518663ffffffff1660e01b8152600401611075959493929190611dba565b60006040518083038186803b15801561108d57600080fd5b505afa1580156110a1573d6000803e3d6000fd5b505050506040513d6000823e601f3d908101601f191682016040526110c99190810190611a92565b925092509250886001600160a01b0316638f6f03328484846040518463ffffffff1660e01b81526004016110ff93929190611e19565b600060405180830381600087803b15801561111957600080fd5b505af115801561112d573d6000803e3d6000fd5b505050506040513d6000823e601f3d908101601f191682016040526111559190810190611bb5565b50505050505050505050565b600061126b83836111ec886001600160a01b03166366cb8d2f896040518263ffffffff1660e01b81526004016111979190611d8c565b60206040518083038186803b1580156111af57600080fd5b505afa1580156111c3573d6000803e3d6000fd5b505050506040513d601f19601f820116820180604052508101906111e79190611d48565b611564565b886001600160a01b03166318160ddd6040518163ffffffff1660e01b815260040160206040518083038186803b15801561122557600080fd5b505afa158015611239573d6000803e3d6000fd5b505050506040513d601f19601f8201168201806040525081019061125d9190611d48565b92919063ffffffff61158a16565b9050610f666001600160a01b038616858363ffffffff6115d916565b6000610e8383836040518060400160405280601e81526020017f536166654d6174683a207375627472616374696f6e206f766572666c6f770000815250611757565b6000806060876001600160a01b03166390f0f9388888888d896040518663ffffffff1660e01b8152600401611075959493929190611dba565b6040805160048082526024820183526020820180516001600160e01b0316630d0e30db60e41b17905291516347b7819960e11b815290916001600160a01b03861691638f6f033291610f109187918791879101611e19565b600080836001600160a01b03166366cb8d2f846040518263ffffffff1660e01b81526004016113899190611d8c565b60206040518083038186803b1580156113a157600080fd5b505afa1580156113b5573d6000803e3d6000fd5b505050506040513d601f19601f820116820180604052508101906113d99190611d48565b139392505050565b60006113ec82611783565b6040516366cb8d2f60e01b81526001600160a01b038616906366cb8d2f90611418908790600401611d8c565b60206040518083038186803b15801561143057600080fd5b505afa158015611444573d6000803e3d6000fd5b505050506040513d601f19601f820116820180604052508101906114689190611d48565b1215949350505050565b6000610e83670de0b6b3a7640000611490858563ffffffff6117a816565b9063ffffffff6117e216565b805160209091012090565b6000805481906114bf906001600160a01b0316611824565b6001600160a01b031663e6d642c530856040518363ffffffff1660e01b81526004016114ec929190611e00565b60206040518083038186803b15801561150457600080fd5b505afa158015611518573d6000803e3d6000fd5b505050506040513d601f19601f8201168201806040525081019061153c9190611a76565b90506001600160a01b038116610b8a5760405162461bcd60e51b815260040161013f90611f24565b6000808212156115865760405162461bcd60e51b815260040161013f90611f94565b5090565b6000806115ad6115a0848863ffffffff61147216565b869063ffffffff61128716565b90506115cf866115c3868463ffffffff61128716565b9063ffffffff6118a316565b9695505050505050565b60006115e5848461135a565b9050801580156115f55750600082115b1561166c5761160484846118c1565b611667576040516304e3532760e41b81526001600160a01b03851690634e35327090611634908690600401611d8c565b600060405180830381600087803b15801561164e57600080fd5b505af1158015611662573d6000803e3d6000fd5b505050505b6116e9565b808015611677575081155b156116e95761168684846118c1565b6116e957604051636f86c89760e01b81526001600160a01b03851690636f86c897906116b6908690600401611d8c565b600060405180830381600087803b1580156116d057600080fd5b505af11580156116e4573d6000803e3d6000fd5b505050505b836001600160a01b0316632ba57d178461170285611783565b6040518363ffffffff1660e01b815260040161171f929190611e00565b600060405180830381600087803b15801561173957600080fd5b505af115801561174d573d6000803e3d6000fd5b5050505050505050565b6000818484111561177b5760405162461bcd60e51b815260040161013f9190611e49565b505050900390565b6000600160ff1b82106115865760405162461bcd60e51b815260040161013f9061204c565b6000826117b757506000610b8a565b828202828482816117c457fe5b0414610e835760405162461bcd60e51b815260040161013f90611fc9565b6000610e8383836040518060400160405280601a81526020017f536166654d6174683a206469766973696f6e206279207a65726f00000000000081525061194d565b6040516373b2e76b60e11b81526000906001600160a01b0383169063e765ced690611853908490600401612145565b60206040518083038186803b15801561186b57600080fd5b505afa15801561187f573d6000803e3d6000fd5b505050506040513d601f19601f82011682018060405250810190610b8a9190611a76565b6000610e838261149085670de0b6b3a764000063ffffffff6117a816565b600080836001600160a01b031663a7bdad03846040518263ffffffff1660e01b81526004016118f09190611d8c565b60006040518083038186803b15801561190857600080fd5b505afa15801561191c573d6000803e3d6000fd5b505050506040513d6000823e601f3d908101601f191682016040526119449190810190611aea565b51119392505050565b6000818361196e5760405162461bcd60e51b815260040161013f9190611e49565b50600083858161197a57fe5b0495945050505050565b8051610b8a81612206565b600082601f83011261199f578081fd5b81356119b26119ad826121b2565b61218b565b91508082528360208285010111156119c957600080fd5b8060208401602084013760009082016020015292915050565b600082601f8301126119f2578081fd5b8151611a006119ad826121b2565b9150808252836020828501011115611a1757600080fd5b611a288160208401602086016121d6565b5092915050565b60008083601f840112611a40578182fd5b50813567ffffffffffffffff811115611a57578182fd5b602083019150836020828501011115611a6f57600080fd5b9250929050565b600060208284031215611a87578081fd5b8151610e8381612206565b600080600060608486031215611aa6578182fd5b8351611ab181612206565b60208501516040860151919450925067ffffffffffffffff811115611ad4578182fd5b611ae0868287016119e2565b9150509250925092565b60006020808385031215611afc578182fd5b825167ffffffffffffffff80821115611b13578384fd5b81850186601f820112611b24578485fd5b8051925081831115611b34578485fd5b8383029150611b4484830161218b565b8381528481019082860184840187018a1015611b5e578788fd5b8794505b85851015611b8857611b748a82611984565b835260019490940193918601918601611b62565b5098975050505050505050565b600060208284031215611ba6578081fd5b81518015158114610e83578182fd5b600060208284031215611bc6578081fd5b815167ffffffffffffffff811115611bdc578182fd5b611be8848285016119e2565b949350505050565b600060208284031215611c01578081fd5b8135610e8381612206565b600080600080600080600060c0888a031215611c26578283fd5b8735611c3181612206565b96506020880135611c4181612206565b95506040880135611c5181612206565b945060608801359350608088013567ffffffffffffffff80821115611c74578485fd5b611c808b838c01611a2f565b909550935060a08a0135915080821115611c98578283fd5b50611ca58a828b0161198f565b91505092959891949750929550565b60008060008060008060a08789031215611ccc578182fd5b8635611cd781612206565b95506020870135611ce781612206565b945060408701359350606087013567ffffffffffffffff80821115611d0a578384fd5b611d168a838b01611a2f565b90955093506080890135915080821115611d2e578283fd5b50611d3b89828a0161198f565b9150509295509295509295565b600060208284031215611d59578081fd5b5051919050565b60008151808452611d788160208601602086016121d6565b601f01601f19169290920160200192915050565b6001600160a01b0391909116815260200190565b6001600160a01b0392831681529116602082015260400190565b6001600160a01b0386811682528581166020830152604082018590528316606082015260a060808201819052600090611df590830184611d60565b979650505050505050565b6001600160a01b03929092168252602082015260400190565b600060018060a01b038516825283602083015260606040830152611e406060830184611d60565b95945050505050565b600060208252610e836020830184611d60565b60208082526029908201527f5461726765742064656661756c7420706f736974696f6e206d7573742062652060408201526818dbdb5c1bdb995b9d60ba1b606082015260800190565b60208082526028908201527f4d75737420626520612076616c696420616e6420696e697469616c697a65642060408201526729b2ba2a37b5b2b760c11b606082015260800190565b6020808252601e908201527f4d7573742062652070656e64696e6720696e697469616c697a6174696f6e0000604082015260600190565b60208082526015908201527426bab9ba103132903b30b634b21030b230b83a32b960591b604082015260600190565b60208082526021908201527f54617267657420706f736974696f6e20756e697473206d757374206265203e206040820152600360fc1b606082015260800190565b6020808252818101527f53616665436173743a2076616c7565206d75737420626520706f736974697665604082015260600190565b60208082526021908201527f536166654d6174683a206d756c7469706c69636174696f6e206f766572666c6f6040820152607760f81b606082015260800190565b60208082526022908201527f556e69742063616e742062652067726561746572207468616e206578697374696040820152616e6760f01b606082015260800190565b60208082526028908201527f53616665436173743a2076616c756520646f65736e27742066697420696e2061604082015267371034b73a191a9b60c11b606082015260800190565b60208082526023908201527f4d75737420626520636f6e74726f6c6c65722d656e61626c656420536574546f60408201526235b2b760e91b606082015260800190565b6020808252601c908201527f4d7573742062652074686520536574546f6b656e206d616e6167657200000000604082015260600190565b6020808252601f908201527f5265656e7472616e637947756172643a207265656e7472616e742063616c6c00604082015260600190565b90815260200190565b60008582528460208301526060604083015282606083015282846080840137818301608090810191909152601f909201601f191601019392505050565b60405181810167ffffffffffffffff811182821017156121aa57600080fd5b604052919050565b600067ffffffffffffffff8211156121c8578081fd5b50601f01601f191660200190565b60005b838110156121f15781810151838201526020016121d9565b83811115612200576000848401525b50505050565b6001600160a01b038116811461057257600080fdfea2646970667358221220b74cb8bf8b1b683f7230edee69bf2aa18acdd9dcd7570ea74858e3ab7106f5b764736f6c634300060a0033",
  "linkReferences": {},
  "deployedLinkReferences": {}
}