{
    "_format": "hh-sol-artifact-1",
    "contractName": "AaveV2LendingPoolMock",
    "sourceName": "contracts/mocks/AaveV2LendingPoolMock.sol",
    "abi": [
        {
            "anonymous": false,
            "inputs": [
                {
                    "indexed": true,
                    "internalType": "address",
                    "name": "reserve",
                    "type": "address"
                },
                {
                    "indexed": false,
                    "internalType": "address",
                    "name": "user",
                    "type": "address"
                },
                {
                    "indexed": true,
                    "internalType": "address",
                    "name": "onBehalfOf",
                    "type": "address"
                },
                {
                    "indexed": false,
                    "internalType": "uint256",
                    "name": "amount",
                    "type": "uint256"
                },
                {
                    "indexed": false,
                    "internalType": "uint256",
                    "name": "borrowRateMode",
                    "type": "uint256"
                },
                {
                    "indexed": false,
                    "internalType": "uint256",
                    "name": "borrowRate",
                    "type": "uint256"
                },
                {
                    "indexed": true,
                    "internalType": "uint16",
                    "name": "referral",
                    "type": "uint16"
                }
            ],
            "name": "Borrow",
            "type": "event"
        },
        {
            "anonymous": false,
            "inputs": [
                {
                    "indexed": true,
                    "internalType": "address",
                    "name": "reserve",
                    "type": "address"
                },
                {
                    "indexed": false,
                    "internalType": "address",
                    "name": "user",
                    "type": "address"
                },
                {
                    "indexed": true,
                    "internalType": "address",
                    "name": "onBehalfOf",
                    "type": "address"
                },
                {
                    "indexed": false,
                    "internalType": "uint256",
                    "name": "amount",
                    "type": "uint256"
                },
                {
                    "indexed": true,
                    "internalType": "uint16",
                    "name": "referral",
                    "type": "uint16"
                }
            ],
            "name": "Deposit",
            "type": "event"
        },
        {
            "anonymous": false,
            "inputs": [
                {
                    "indexed": true,
                    "internalType": "address",
                    "name": "target",
                    "type": "address"
                },
                {
                    "indexed": true,
                    "internalType": "address",
                    "name": "initiator",
                    "type": "address"
                },
                {
                    "indexed": true,
                    "internalType": "address",
                    "name": "asset",
                    "type": "address"
                },
                {
                    "indexed": false,
                    "internalType": "uint256",
                    "name": "amount",
                    "type": "uint256"
                },
                {
                    "indexed": false,
                    "internalType": "uint256",
                    "name": "premium",
                    "type": "uint256"
                },
                {
                    "indexed": false,
                    "internalType": "uint16",
                    "name": "referralCode",
                    "type": "uint16"
                }
            ],
            "name": "FlashLoan",
            "type": "event"
        },
        {
            "anonymous": false,
            "inputs": [
                {
                    "indexed": true,
                    "internalType": "address",
                    "name": "collateralAsset",
                    "type": "address"
                },
                {
                    "indexed": true,
                    "internalType": "address",
                    "name": "debtAsset",
                    "type": "address"
                },
                {
                    "indexed": true,
                    "internalType": "address",
                    "name": "user",
                    "type": "address"
                },
                {
                    "indexed": false,
                    "internalType": "uint256",
                    "name": "debtToCover",
                    "type": "uint256"
                },
                {
                    "indexed": false,
                    "internalType": "uint256",
                    "name": "liquidatedCollateralAmount",
                    "type": "uint256"
                },
                {
                    "indexed": false,
                    "internalType": "address",
                    "name": "liquidator",
                    "type": "address"
                },
                {
                    "indexed": false,
                    "internalType": "bool",
                    "name": "receiveAToken",
                    "type": "bool"
                }
            ],
            "name": "LiquidationCall",
            "type": "event"
        },
        {
            "anonymous": false,
            "inputs": [],
            "name": "Paused",
            "type": "event"
        },
        {
            "anonymous": false,
            "inputs": [
                {
                    "indexed": true,
                    "internalType": "address",
                    "name": "reserve",
                    "type": "address"
                },
                {
                    "indexed": true,
                    "internalType": "address",
                    "name": "user",
                    "type": "address"
                }
            ],
            "name": "RebalanceStableBorrowRate",
            "type": "event"
        },
        {
            "anonymous": false,
            "inputs": [
                {
                    "indexed": true,
                    "internalType": "address",
                    "name": "reserve",
                    "type": "address"
                },
                {
                    "indexed": true,
                    "internalType": "address",
                    "name": "user",
                    "type": "address"
                },
                {
                    "indexed": true,
                    "internalType": "address",
                    "name": "repayer",
                    "type": "address"
                },
                {
                    "indexed": false,
                    "internalType": "uint256",
                    "name": "amount",
                    "type": "uint256"
                }
            ],
            "name": "Repay",
            "type": "event"
        },
        {
            "anonymous": false,
            "inputs": [
                {
                    "indexed": true,
                    "internalType": "address",
                    "name": "reserve",
                    "type": "address"
                },
                {
                    "indexed": false,
                    "internalType": "uint256",
                    "name": "liquidityRate",
                    "type": "uint256"
                },
                {
                    "indexed": false,
                    "internalType": "uint256",
                    "name": "stableBorrowRate",
                    "type": "uint256"
                },
                {
                    "indexed": false,
                    "internalType": "uint256",
                    "name": "variableBorrowRate",
                    "type": "uint256"
                },
                {
                    "indexed": false,
                    "internalType": "uint256",
                    "name": "liquidityIndex",
                    "type": "uint256"
                },
                {
                    "indexed": false,
                    "internalType": "uint256",
                    "name": "variableBorrowIndex",
                    "type": "uint256"
                }
            ],
            "name": "ReserveDataUpdated",
            "type": "event"
        },
        {
            "anonymous": false,
            "inputs": [
                {
                    "indexed": true,
                    "internalType": "address",
                    "name": "reserve",
                    "type": "address"
                },
                {
                    "indexed": true,
                    "internalType": "address",
                    "name": "user",
                    "type": "address"
                }
            ],
            "name": "ReserveUsedAsCollateralDisabled",
            "type": "event"
        },
        {
            "anonymous": false,
            "inputs": [
                {
                    "indexed": true,
                    "internalType": "address",
                    "name": "reserve",
                    "type": "address"
                },
                {
                    "indexed": true,
                    "internalType": "address",
                    "name": "user",
                    "type": "address"
                }
            ],
            "name": "ReserveUsedAsCollateralEnabled",
            "type": "event"
        },
        {
            "anonymous": false,
            "inputs": [
                {
                    "indexed": true,
                    "internalType": "address",
                    "name": "reserve",
                    "type": "address"
                },
                {
                    "indexed": true,
                    "internalType": "address",
                    "name": "user",
                    "type": "address"
                },
                {
                    "indexed": false,
                    "internalType": "uint256",
                    "name": "rateMode",
                    "type": "uint256"
                }
            ],
            "name": "Swap",
            "type": "event"
        },
        {
            "anonymous": false,
            "inputs": [],
            "name": "Unpaused",
            "type": "event"
        },
        {
            "anonymous": false,
            "inputs": [
                {
                    "indexed": true,
                    "internalType": "address",
                    "name": "reserve",
                    "type": "address"
                },
                {
                    "indexed": true,
                    "internalType": "address",
                    "name": "user",
                    "type": "address"
                },
                {
                    "indexed": true,
                    "internalType": "address",
                    "name": "to",
                    "type": "address"
                },
                {
                    "indexed": false,
                    "internalType": "uint256",
                    "name": "amount",
                    "type": "uint256"
                }
            ],
            "name": "Withdraw",
            "type": "event"
        },
        {
            "inputs": [],
            "name": "FLASHLOAN_PREMIUM_TOTAL",
            "outputs": [
                {
                    "internalType": "uint256",
                    "name": "",
                    "type": "uint256"
                }
            ],
            "stateMutability": "view",
            "type": "function"
        },
        {
            "inputs": [],
            "name": "LENDINGPOOL_REVISION",
            "outputs": [
                {
                    "internalType": "uint256",
                    "name": "",
                    "type": "uint256"
                }
            ],
            "stateMutability": "view",
            "type": "function"
        },
        {
            "inputs": [],
            "name": "MAX_NUMBER_RESERVES",
            "outputs": [
                {
                    "internalType": "uint256",
                    "name": "",
                    "type": "uint256"
                }
            ],
            "stateMutability": "view",
            "type": "function"
        },
        {
            "inputs": [],
            "name": "MAX_STABLE_RATE_BORROW_SIZE_PERCENT",
            "outputs": [
                {
                    "internalType": "uint256",
                    "name": "",
                    "type": "uint256"
                }
            ],
            "stateMutability": "view",
            "type": "function"
        },
        {
            "inputs": [
                {
                    "internalType": "address",
                    "name": "asset",
                    "type": "address"
                },
                {
                    "internalType": "uint256",
                    "name": "amount",
                    "type": "uint256"
                },
                {
                    "internalType": "uint256",
                    "name": "interestRateMode",
                    "type": "uint256"
                },
                {
                    "internalType": "uint16",
                    "name": "referralCode",
                    "type": "uint16"
                },
                {
                    "internalType": "address",
                    "name": "onBehalfOf",
                    "type": "address"
                }
            ],
            "name": "borrow",
            "outputs": [],
            "stateMutability": "nonpayable",
            "type": "function"
        },
        {
            "inputs": [
                {
                    "internalType": "address",
                    "name": "asset",
                    "type": "address"
                },
                {
                    "internalType": "uint256",
                    "name": "amount",
                    "type": "uint256"
                },
                {
                    "internalType": "address",
                    "name": "onBehalfOf",
                    "type": "address"
                },
                {
                    "internalType": "uint16",
                    "name": "referralCode",
                    "type": "uint16"
                }
            ],
            "name": "deposit",
            "outputs": [],
            "stateMutability": "nonpayable",
            "type": "function"
        },
        {
            "inputs": [
                {
                    "internalType": "address",
                    "name": "asset",
                    "type": "address"
                },
                {
                    "internalType": "address",
                    "name": "from",
                    "type": "address"
                },
                {
                    "internalType": "address",
                    "name": "to",
                    "type": "address"
                },
                {
                    "internalType": "uint256",
                    "name": "amount",
                    "type": "uint256"
                },
                {
                    "internalType": "uint256",
                    "name": "balanceFromBefore",
                    "type": "uint256"
                },
                {
                    "internalType": "uint256",
                    "name": "balanceToBefore",
                    "type": "uint256"
                }
            ],
            "name": "finalizeTransfer",
            "outputs": [],
            "stateMutability": "nonpayable",
            "type": "function"
        },
        {
            "inputs": [
                {
                    "internalType": "address",
                    "name": "receiverAddress",
                    "type": "address"
                },
                {
                    "internalType": "address[]",
                    "name": "assets",
                    "type": "address[]"
                },
                {
                    "internalType": "uint256[]",
                    "name": "amounts",
                    "type": "uint256[]"
                },
                {
                    "internalType": "uint256[]",
                    "name": "modes",
                    "type": "uint256[]"
                },
                {
                    "internalType": "address",
                    "name": "onBehalfOf",
                    "type": "address"
                },
                {
                    "internalType": "bytes",
                    "name": "params",
                    "type": "bytes"
                },
                {
                    "internalType": "uint16",
                    "name": "referralCode",
                    "type": "uint16"
                }
            ],
            "name": "flashLoan",
            "outputs": [],
            "stateMutability": "nonpayable",
            "type": "function"
        },
        {
            "inputs": [
                {
                    "internalType": "address",
                    "name": "receiverAddress",
                    "type": "address"
                },
                {
                    "internalType": "address[]",
                    "name": "assets",
                    "type": "address[]"
                },
                {
                    "internalType": "uint256[]",
                    "name": "amounts",
                    "type": "uint256[]"
                },
                {
                    "internalType": "uint256[]",
                    "name": "premiums",
                    "type": "uint256[]"
                },
                {
                    "internalType": "bytes",
                    "name": "params",
                    "type": "bytes"
                }
            ],
            "name": "flashLoanMock",
            "outputs": [],
            "stateMutability": "nonpayable",
            "type": "function"
        },
        {
            "inputs": [],
            "name": "getAddressesProvider",
            "outputs": [
                {
                    "internalType": "contract ILendingPoolAddressesProvider",
                    "name": "",
                    "type": "address"
                }
            ],
            "stateMutability": "view",
            "type": "function"
        },
        {
            "inputs": [
                {
                    "internalType": "address",
                    "name": "asset",
                    "type": "address"
                }
            ],
            "name": "getConfiguration",
            "outputs": [
                {
                    "components": [
                        {
                            "internalType": "uint256",
                            "name": "data",
                            "type": "uint256"
                        }
                    ],
                    "internalType": "struct DataTypes.ReserveConfigurationMap",
                    "name": "",
                    "type": "tuple"
                }
            ],
            "stateMutability": "view",
            "type": "function"
        },
        {
            "inputs": [
                {
                    "internalType": "address",
                    "name": "asset",
                    "type": "address"
                }
            ],
            "name": "getReserveData",
            "outputs": [
                {
                    "components": [
                        {
                            "components": [
                                {
                                    "internalType": "uint256",
                                    "name": "data",
                                    "type": "uint256"
                                }
                            ],
                            "internalType": "struct DataTypes.ReserveConfigurationMap",
                            "name": "configuration",
                            "type": "tuple"
                        },
                        {
                            "internalType": "uint128",
                            "name": "liquidityIndex",
                            "type": "uint128"
                        },
                        {
                            "internalType": "uint128",
                            "name": "variableBorrowIndex",
                            "type": "uint128"
                        },
                        {
                            "internalType": "uint128",
                            "name": "currentLiquidityRate",
                            "type": "uint128"
                        },
                        {
                            "internalType": "uint128",
                            "name": "currentVariableBorrowRate",
                            "type": "uint128"
                        },
                        {
                            "internalType": "uint128",
                            "name": "currentStableBorrowRate",
                            "type": "uint128"
                        },
                        {
                            "internalType": "uint40",
                            "name": "lastUpdateTimestamp",
                            "type": "uint40"
                        },
                        {
                            "internalType": "address",
                            "name": "aTokenAddress",
                            "type": "address"
                        },
                        {
                            "internalType": "address",
                            "name": "stableDebtTokenAddress",
                            "type": "address"
                        },
                        {
                            "internalType": "address",
                            "name": "variableDebtTokenAddress",
                            "type": "address"
                        },
                        {
                            "internalType": "address",
                            "name": "interestRateStrategyAddress",
                            "type": "address"
                        },
                        {
                            "internalType": "uint8",
                            "name": "id",
                            "type": "uint8"
                        }
                    ],
                    "internalType": "struct DataTypes.ReserveData",
                    "name": "",
                    "type": "tuple"
                }
            ],
            "stateMutability": "view",
            "type": "function"
        },
        {
            "inputs": [
                {
                    "internalType": "address",
                    "name": "asset",
                    "type": "address"
                }
            ],
            "name": "getReserveNormalizedIncome",
            "outputs": [
                {
                    "internalType": "uint256",
                    "name": "",
                    "type": "uint256"
                }
            ],
            "stateMutability": "view",
            "type": "function"
        },
        {
            "inputs": [
                {
                    "internalType": "address",
                    "name": "asset",
                    "type": "address"
                }
            ],
            "name": "getReserveNormalizedVariableDebt",
            "outputs": [
                {
                    "internalType": "uint256",
                    "name": "",
                    "type": "uint256"
                }
            ],
            "stateMutability": "view",
            "type": "function"
        },
        {
            "inputs": [],
            "name": "getReservesList",
            "outputs": [
                {
                    "internalType": "address[]",
                    "name": "",
                    "type": "address[]"
                }
            ],
            "stateMutability": "view",
            "type": "function"
        },
        {
            "inputs": [
                {
                    "internalType": "address",
                    "name": "user",
                    "type": "address"
                }
            ],
            "name": "getUserAccountData",
            "outputs": [
                {
                    "internalType": "uint256",
                    "name": "totalCollateralETH",
                    "type": "uint256"
                },
                {
                    "internalType": "uint256",
                    "name": "totalDebtETH",
                    "type": "uint256"
                },
                {
                    "internalType": "uint256",
                    "name": "availableBorrowsETH",
                    "type": "uint256"
                },
                {
                    "internalType": "uint256",
                    "name": "currentLiquidationThreshold",
                    "type": "uint256"
                },
                {
                    "internalType": "uint256",
                    "name": "ltv",
                    "type": "uint256"
                },
                {
                    "internalType": "uint256",
                    "name": "healthFactor",
                    "type": "uint256"
                }
            ],
            "stateMutability": "view",
            "type": "function"
        },
        {
            "inputs": [
                {
                    "internalType": "address",
                    "name": "user",
                    "type": "address"
                }
            ],
            "name": "getUserConfiguration",
            "outputs": [
                {
                    "components": [
                        {
                            "internalType": "uint256",
                            "name": "data",
                            "type": "uint256"
                        }
                    ],
                    "internalType": "struct DataTypes.UserConfigurationMap",
                    "name": "",
                    "type": "tuple"
                }
            ],
            "stateMutability": "view",
            "type": "function"
        },
        {
            "inputs": [
                {
                    "internalType": "address",
                    "name": "asset",
                    "type": "address"
                },
                {
                    "internalType": "address",
                    "name": "aTokenAddress",
                    "type": "address"
                },
                {
                    "internalType": "address",
                    "name": "stableDebtAddress",
                    "type": "address"
                },
                {
                    "internalType": "address",
                    "name": "variableDebtAddress",
                    "type": "address"
                },
                {
                    "internalType": "address",
                    "name": "interestRateStrategyAddress",
                    "type": "address"
                }
            ],
            "name": "initReserve",
            "outputs": [],
            "stateMutability": "nonpayable",
            "type": "function"
        },
        {
            "inputs": [
                {
                    "internalType": "contract ILendingPoolAddressesProvider",
                    "name": "provider",
                    "type": "address"
                }
            ],
            "name": "initialize",
            "outputs": [],
            "stateMutability": "nonpayable",
            "type": "function"
        },
        {
            "inputs": [
                {
                    "internalType": "address",
                    "name": "collateralAsset",
                    "type": "address"
                },
                {
                    "internalType": "address",
                    "name": "debtAsset",
                    "type": "address"
                },
                {
                    "internalType": "address",
                    "name": "user",
                    "type": "address"
                },
                {
                    "internalType": "uint256",
                    "name": "debtToCover",
                    "type": "uint256"
                },
                {
                    "internalType": "bool",
                    "name": "receiveAToken",
                    "type": "bool"
                }
            ],
            "name": "liquidationCall",
            "outputs": [],
            "stateMutability": "nonpayable",
            "type": "function"
        },
        {
            "inputs": [],
            "name": "paused",
            "outputs": [
                {
                    "internalType": "bool",
                    "name": "",
                    "type": "bool"
                }
            ],
            "stateMutability": "view",
            "type": "function"
        },
        {
            "inputs": [
                {
                    "internalType": "address",
                    "name": "asset",
                    "type": "address"
                },
                {
                    "internalType": "address",
                    "name": "user",
                    "type": "address"
                }
            ],
            "name": "rebalanceStableBorrowRate",
            "outputs": [],
            "stateMutability": "nonpayable",
            "type": "function"
        },
        {
            "inputs": [
                {
                    "internalType": "address",
                    "name": "asset",
                    "type": "address"
                },
                {
                    "internalType": "uint256",
                    "name": "amount",
                    "type": "uint256"
                },
                {
                    "internalType": "uint256",
                    "name": "rateMode",
                    "type": "uint256"
                },
                {
                    "internalType": "address",
                    "name": "onBehalfOf",
                    "type": "address"
                }
            ],
            "name": "repay",
            "outputs": [
                {
                    "internalType": "uint256",
                    "name": "",
                    "type": "uint256"
                }
            ],
            "stateMutability": "nonpayable",
            "type": "function"
        },
        {
            "inputs": [
                {
                    "internalType": "address",
                    "name": "asset",
                    "type": "address"
                },
                {
                    "internalType": "uint256",
                    "name": "configuration",
                    "type": "uint256"
                }
            ],
            "name": "setConfiguration",
            "outputs": [],
            "stateMutability": "nonpayable",
            "type": "function"
        },
        {
            "inputs": [
                {
                    "internalType": "bool",
                    "name": "val",
                    "type": "bool"
                }
            ],
            "name": "setPause",
            "outputs": [],
            "stateMutability": "nonpayable",
            "type": "function"
        },
        {
            "inputs": [
                {
                    "internalType": "address",
                    "name": "asset",
                    "type": "address"
                },
                {
                    "internalType": "address",
                    "name": "rateStrategyAddress",
                    "type": "address"
                }
            ],
            "name": "setReserveInterestRateStrategyAddress",
            "outputs": [],
            "stateMutability": "nonpayable",
            "type": "function"
        },
        {
            "inputs": [
                {
                    "internalType": "address",
                    "name": "asset",
                    "type": "address"
                },
                {
                    "internalType": "bool",
                    "name": "useAsCollateral",
                    "type": "bool"
                }
            ],
            "name": "setUserUseReserveAsCollateral",
            "outputs": [],
            "stateMutability": "nonpayable",
            "type": "function"
        },
        {
            "inputs": [
                {
                    "internalType": "address",
                    "name": "asset",
                    "type": "address"
                },
                {
                    "internalType": "uint256",
                    "name": "rateMode",
                    "type": "uint256"
                }
            ],
            "name": "swapBorrowRateMode",
            "outputs": [],
            "stateMutability": "nonpayable",
            "type": "function"
        },
        {
            "inputs": [
                {
                    "internalType": "address",
                    "name": "asset",
                    "type": "address"
                },
                {
                    "internalType": "uint256",
                    "name": "amount",
                    "type": "uint256"
                },
                {
                    "internalType": "address",
                    "name": "to",
                    "type": "address"
                }
            ],
            "name": "withdraw",
            "outputs": [
                {
                    "internalType": "uint256",
                    "name": "",
                    "type": "uint256"
                }
            ],
            "stateMutability": "nonpayable",
            "type": "function"
        }
    ],
    "bytecode": "0x60806040526000805534801561001457600080fd5b506157f280620000256000396000f3fe608060405234801561001057600080fd5b50600436106101ce5760003560e01c8063a415bcad11610104578063cd112382116100a2578063e82fec2f11610071578063e82fec2f146103e0578063e8eda9df146103e8578063f8119d51146103fb578063fe65acfe14610403576101ce565b8063cd11238214610392578063d15e0053146103a5578063d1946dbc146103b8578063d5ed3933146103cd576101ce565b8063bedb86fb116100de578063bedb86fb14610334578063bf92857c14610347578063c44b11f71461036c578063c4d66de81461037f576101ce565b8063a415bcad146102fb578063ab9c4b5d1461030e578063b8d2927614610321576101ce565b80635a3b74b9116101715780637a708e921161014b5780637a708e92146102ba5780637a85f038146102cd5780638afaff02146102e057806394ba89a2146102e8576101ce565b80635a3b74b91461027f5780635c975abb1461029257806369328dec146102a7576101ce565b806335ea6a75116101ad57806335ea6a7514610219578063386497fd146102395780634417a5831461024c578063573ade811461026c576101ce565b8062a718a9146101d3578063074b2e43146101e85780631d2118f914610206575b600080fd5b6101e66101e136600461496c565b610418565b005b6101f06105ee565b6040516101fd91906156e9565b60405180910390f35b6101e66102143660046148c4565b6105f4565b61022c61022736600461488c565b61062d565b6040516101fd91906154fe565b6101f061024736600461488c565b61070f565b61025f61025a36600461488c565b610736565b6040516101fd91906154f4565b6101f061027a366004614cdf565b610769565b6101e661028d366004614bf5565b610a95565b61029a610c5a565b6040516101fd919061533a565b6101f06102b5366004614c4d565b610c63565b6101e66102c83660046148fc565b610f8d565b6101e66102db366004614b21565b61106f565b6101f0611148565b6101e66102f6366004614c22565b61114d565b6101e6610309366004614d28565b6114ba565b6101e661031c366004614a29565b61153a565b6101e661032f366004614c22565b611c0e565b6101e6610342366004614d67565b611c32565b61035a61035536600461488c565b611cad565b6040516101fd9695949392919061573b565b61025f61037a36600461488c565b611da9565b6101e661038d36600461488c565b611ddc565b6101e66103a03660046148c4565b611e84565b6101f06103b336600461488c565b6120fa565b6103c061211b565b6040516101fd91906152ed565b6101e66103db3660046149c5565b6121c0565b6101f0612409565b6101e66103f6366004614c8e565b61240f565b6101f061263c565b61040b612642565b6040516101fd9190614fdf565b610420612651565b6034546040805163712d917160e01b815290516000926001600160a01b03169163712d9171916004808301926020929190829003018186803b15801561046557600080fd5b505afa158015610479573d6000803e3d6000fd5b505050506040513d601f19601f8201168201806040525081019061049d91906148a8565b905060006060826001600160a01b031688888888886040516024016104c6959493929190615067565b60408051601f198184030181529181526020820180516001600160e01b031662a718a960e01b179052516104fa9190614fc3565b600060405180830381855af49150503d8060008114610535576040519150601f19603f3d011682016040523d82523d6000602084013e61053a565b606091505b50915091508160405180604001604052806002815260200161323360f01b815250906105825760405162461bcd60e51b81526004016105799190615345565b60405180910390fd5b50600060608280602001905181019061059b9190614db7565b9150915081600014816040516020016105b49190614fc3565b604051602081830303815290604052906105e15760405162461bcd60e51b81526004016105799190615345565b5050505050505050505050565b603b5490565b6105fc61268f565b6001600160a01b03918216600090815260356020526040902060070180546001600160a01b03191691909216179055565b6106356145da565b506001600160a01b0381811660009081526035602090815260409182902082516101a08101845281546101808201908152815260018201546001600160801b0380821694830194909452600160801b908190048416948201949094526002820154808416606083015284900483166080820152600382015492831660a08201529290910464ffffffffff1660c08301526004810154831660e0830152600581015483166101008301526006810154831661012083015260070154918216610140820152600160a01b90910460ff166101608201525b919050565b6001600160a01b03811660009081526035602052604081206107309061274e565b92915050565b61073e614645565b506001600160a01b031660009081526036602090815260409182902082519182019092529054815290565b6000610773612651565b6001600160a01b0385166000908152603560205260408120908061079785846127cb565b9150915060008660028111156107a957fe5b60405163fa0c214960e01b815290915073__$de8c0cf1a7d7c36c802af9a64fb9d86036$__9063fa0c2149906107ed9087908c9086908c908a908a906004016156a5565b60006040518083038186803b15801561080557600080fd5b505af4158015610819573d6000803e3d6000fd5b5060009250600191506108299050565b82600281111561083557fe5b146108405782610842565b835b90508089101561084f5750875b610858856128e0565b600182600281111561086657fe5b14156108d7576005850154604051632770a7eb60e21b81526001600160a01b0390911690639dc29fac906108a0908a908590600401615024565b600060405180830381600087803b1580156108ba57600080fd5b505af11580156108ce573d6000803e3d6000fd5b50505050610955565b60068501546001860154604051637a94c56560e11b81526001600160a01b039092169163f5298aca91610922918b918691600160801b9091046001600160801b03169060040161503d565b600060405180830381600087803b15801561093c57600080fd5b505af1158015610950573d6000803e3d6000fd5b505050505b60048501546001600160a01b0316610971868c838560006129ad565b6109858261097f8787612d15565b90612d3a565b6109bd5760078601546001600160a01b03891660009081526036602052604081206109bd929091600160a01b90910460ff1690612d7c565b6109d26001600160a01b038c16338385612dec565b6040516388dd91a160e01b81526001600160a01b038216906388dd91a190610a009033908690600401615024565b600060405180830381600087803b158015610a1a57600080fd5b505af1158015610a2e573d6000803e3d6000fd5b50505050336001600160a01b0316886001600160a01b03168c6001600160a01b03167f4cdde6e09bb755c9a5589ebaec640bbfedff1362d4b255ebf8339782b9942faa85604051610a7f91906156e9565b60405180910390a4509998505050505050505050565b610a9d612651565b6001600160a01b03808316600090815260356020818152604080842033855260368352938190206038546034548351631f94a27560e31b81529351969773__$de8c0cf1a7d7c36c802af9a64fb9d86036$__97635fa297e5978a978d978d9792969295603795939493169263fca513a892600480840193919291829003018186803b158015610b2b57600080fd5b505afa158015610b3f573d6000803e3d6000fd5b505050506040513d601f19601f82011682018060405250810190610b6391906148a8565b6040518963ffffffff1660e01b8152600401610b8698979695949392919061561f565b60006040518083038186803b158015610b9e57600080fd5b505af4158015610bb2573d6000803e3d6000fd5b505050506007810154336000908152603660205260409020610bde91600160a01b900460ff1684612e4a565b8115610c1e5760405133906001600160a01b038516907e058a56ea94653cdf4f152d227ace22d4c00ad99e2a43f58cb7d9e3feb295f290600090a3610c55565b60405133906001600160a01b038516907f44c58d81365b66dd4b1a7f36c25aa97b8c71c361ee4937adc1a00000227db5dd90600090a35b505050565b60395460ff1690565b6000610c6d612651565b6001600160a01b0380851660009081526035602052604080822060048082015492516370a0823160e01b8152919492909216929183916370a0823191610cb591339101614fdf565b60206040518083038186803b158015610ccd57600080fd5b505afa158015610ce1573d6000803e3d6000fd5b505050506040513d601f19601f82011682018060405250810190610d059190614d9f565b905085600019811415610d155750805b73__$de8c0cf1a7d7c36c802af9a64fb9d86036$__63d09db04a898385603560366000336001600160a01b03166001600160a01b031681526020019081526020016000206037603854603460009054906101000a90046001600160a01b03166001600160a01b031663fca513a86040518163ffffffff1660e01b815260040160206040518083038186803b158015610dac57600080fd5b505afa158015610dc0573d6000803e3d6000fd5b505050506040513d601f19601f82011682018060405250810190610de491906148a8565b6040518963ffffffff1660e01b8152600401610e07989796959493929190615190565b60006040518083038186803b158015610e1f57600080fd5b505af4158015610e33573d6000803e3d6000fd5b50505050610e40846128e0565b610e4e8489856000856129ad565b81811415610eb8576007840154336000908152603660205260408120610e81929091600160a01b90910460ff1690612e4a565b60405133906001600160a01b038a16907f44c58d81365b66dd4b1a7f36c25aa97b8c71c361ee4937adc1a00000227db5dd90600090a35b6001840154604051636b81068560e11b81526001600160a01b0385169163d7020d0a91610ef99133918b9187916001600160801b0390911690600401614ff3565b600060405180830381600087803b158015610f1357600080fd5b505af1158015610f27573d6000803e3d6000fd5b50505050856001600160a01b0316336001600160a01b0316896001600160a01b03167f3115d1449a7b732c986cba18244e897a450f61e1bb8d589cd2e69e6c8924f9f784604051610f7891906156e9565b60405180910390a493505050505b9392505050565b610f9561268f565b610f9e85612ec0565b6040518060400160405280600281526020016106e760f31b81525090610fd75760405162461bcd60e51b81526004016105799190615345565b506001600160a01b038516600090815260356020526040908190209051630acce25f60e21b815273__$22cd43a9dda9ce44e9b92ba393b88fb9ac$__91632b33897c9161102f919088908890889088906004016155f1565b60006040518083038186803b15801561104757600080fd5b505af415801561105b573d6000803e3d6000fd5b5050505061106885612ef9565b5050505050565b604051632483d72160e21b8152899081906001600160a01b0382169063920f5c84906110af908d908d908d908d908d908d908a908e908e906004016151fc565b602060405180830381600087803b1580156110c957600080fd5b505af11580156110dd573d6000803e3d6000fd5b505050506040513d601f19601f820116820180604052508101906111019190614d83565b604051806040016040528060028152602001611b1b60f11b8152509061113a5760405162461bcd60e51b81526004016105799190615345565b505050505050505050505050565b600281565b611155612651565b6001600160a01b0382166000908152603560205260408120908061117933846127cb565b91509150600084600281111561118b57fe5b3360009081526036602052604090819020905163a8695b1d60e01b815291925073__$de8c0cf1a7d7c36c802af9a64fb9d86036$__9163a8695b1d916111dc91889190889088908890600401615661565b60006040518083038186803b1580156111f457600080fd5b505af4158015611208573d6000803e3d6000fd5b50505050611215846128e0565b600181600281111561122357fe5b1415611333576005840154604051632770a7eb60e21b81526001600160a01b0390911690639dc29fac9061125d9033908790600401615024565b600060405180830381600087803b15801561127757600080fd5b505af115801561128b573d6000803e3d6000fd5b505050506006840154600185015460405163b3f1c93d60e01b81526001600160a01b039092169163b3f1c93d916112db91339182918991600160801b90046001600160801b031690600401614ff3565b602060405180830381600087803b1580156112f557600080fd5b505af1158015611309573d6000803e3d6000fd5b505050506040513d601f19601f8201168201806040525081019061132d9190614d83565b50611449565b60068401546001850154604051637a94c56560e11b81526001600160a01b039092169163f5298aca9161137e9133918791600160801b9091046001600160801b03169060040161503d565b600060405180830381600087803b15801561139857600080fd5b505af11580156113ac573d6000803e3d6000fd5b505050506005840154600385015460405163b3f1c93d60e01b81526001600160a01b039092169163b3f1c93d916113f5913391829188916001600160801b031690600401614ff3565b602060405180830381600087803b15801561140f57600080fd5b505af1158015611423573d6000803e3d6000fd5b505050506040513d601f19601f820116820180604052508101906114479190614d83565b505b600484015461146790859088906001600160a01b03166000806129ad565b336001600160a01b0316866001600160a01b03167fea368a40e9570069bb8e6511d668293ad2e1f03b0d982431fd223de9f3b70ca6876040516114aa91906156e9565b60405180910390a3505050505050565b6114c2612651565b6001600160a01b038086166000818152603560209081526040918290208251610100810184529384523391840191909152848416918301919091526060820187905260808201869052600481015490921660a082015261ffff841660c0820152600160e082015261153290613002565b505050505050565b611542612651565b61154a614658565b6115b78b8b8080602002602001604051908101604052809392919081815260200183836020028082843760009201919091525050604080516020808f0282810182019093528e82529093508e92508d9182918501908490808284376000920191909152506134fb92505050565b60608a67ffffffffffffffff811180156115d057600080fd5b506040519080825280602002602001820160405280156115fa578160200160208202803683370190505b50905060608b67ffffffffffffffff8111801561161657600080fd5b50604051908082528060200260200182016040528015611640578160200160208202803683370190505b506001600160a01b038f1684526000604085015290505b60408301518c111561180457603560008e8e866040015181811061167757fe5b905060200201602081019061168c919061488c565b6001600160a01b03166001600160a01b0316815260200190815260200160002060040160009054906101000a90046001600160a01b0316828460400151815181106116d357fe5b60200260200101906001600160a01b031690816001600160a01b03168152505061172a612710611724603b548e8e886040015181811061170f57fe5b9050602002013561353990919063ffffffff16565b90613573565b8184604001518151811061173a57fe5b6020026020010181815250508183604001518151811061175657fe5b60200260200101516001600160a01b0316634efecaa58f8d8d876040015181811061177d57fe5b905060200201356040518363ffffffff1660e01b81526004016117a1929190615024565b602060405180830381600087803b1580156117bb57600080fd5b505af11580156117cf573d6000803e3d6000fd5b505050506040513d601f19601f820116820180604052508101906117f39190614d9f565b506040830180516001019052611657565b82600001516001600160a01b031663920f5c848e8e8e8e86338d8d6040518963ffffffff1660e01b815260040161184298979695949392919061525c565b602060405180830381600087803b15801561185c57600080fd5b505af1158015611870573d6000803e3d6000fd5b505050506040513d601f19601f820116820180604052508101906118949190614d83565b604051806040016040528060028152602001611b1b60f11b815250906118cd5760405162461bcd60e51b81526004016105799190615345565b50600060408401525b60408301518c1115611bfe578c8c84604001518181106118f257fe5b9050602002016020810190611907919061488c565b6001600160a01b0316606084015260408301518b908b9081811061192757fe5b905060200201358360a00181815250508083604001518151811061194757fe5b60200260200101518360c00181815250508183604001518151811061196857fe5b60209081029190910101516001600160a01b0316608084015260c083015160a084015161199491612d15565b60e08401526000898985604001518181106119ab57fe5b9050602002013560028111156119bd57fe5b60028111156119c857fe5b1415611afa5760608301516001600160a01b031660009081526035602052604090206119f3906128e0565b611a9383608001516001600160a01b03166318160ddd6040518163ffffffff1660e01b815260040160206040518083038186803b158015611a3357600080fd5b505afa158015611a47573d6000803e3d6000fd5b505050506040513d601f19601f82011682018060405250810190611a6b9190614d9f565b60c085015160608601516001600160a01b0316600090815260356020526040902091906135b5565b6060830151608084015160e08501516001600160a01b0383166000908152603560205260408120611ac9949093909290916129ad565b611af58e84608001518560e0015186606001516001600160a01b0316612dec909392919063ffffffff16565b611b89565b611b8960405180610100016040528085606001516001600160a01b03168152602001336001600160a01b03168152602001896001600160a01b031681526020018560a0015181526020018b8b8760400151818110611b5457fe5b90506020020135815260200185608001516001600160a01b031681526020018661ffff16815260200160001515815250613002565b82606001516001600160a01b0316336001600160a01b03168f6001600160a01b03167f631042c832b07452973831137f2d73e395028b44b250dedc5abb0ee766e168ac8660a001518760c0015189604051611be6939291906156f2565b60405180910390a460408301805160010190526118d6565b5050505050505050505050505050565b611c1661268f565b6001600160a01b03909116600090815260356020526040902055565b611c3a61268f565b6039805460ff1916821515179081905560ff1615611c80576040517f9e87fac88ff661f02d44f95383c817fece4bce600a3dab7a54406878b965e75290600090a1611caa565b6040517fa45f47fdea8a1efdd9029a5691c7f759c32b7c698632b563573e155625d1693390600090a15b50565b600080600080600080611d86876035603660008b6001600160a01b03166001600160a01b031681526020019081526020016000206040518060200160405290816000820154815250506037603854603460009054906101000a90046001600160a01b03166001600160a01b031663fca513a86040518163ffffffff1660e01b815260040160206040518083038186803b158015611d4957600080fd5b505afa158015611d5d573d6000803e3d6000fd5b505050506040513d601f19601f82011682018060405250810190611d8191906148a8565b613672565b93995091975090945092509050611d9e868684613b33565b935091939550919395565b611db1614645565b506001600160a01b031660009081526035602090815260409182902082519182019092529054815290565b6000611de6613b67565b60015490915060ff1680611dfd5750611dfd613b6c565b80611e09575060005481115b611e255760405162461bcd60e51b815260040161057990615425565b60015460ff16158015611e44576001805460ff19168117905560008290555b603480546001600160a01b0319166001600160a01b0385161790556109c4603a556009603b556080603c558015610c55576001805460ff19169055505050565b611e8c612651565b6001600160a01b038083166000908152603560205260408082206005810154600682015460048084015494516370a0823160e01b81529396928316959183169490921692909185916370a0823191611ee6918a9101614fdf565b60206040518083038186803b158015611efe57600080fd5b505afa158015611f12573d6000803e3d6000fd5b505050506040513d601f19601f82011682018060405250810190611f369190614d9f565b60405163548cad0960e01b815290915073__$de8c0cf1a7d7c36c802af9a64fb9d86036$__9063548cad0990611f789088908b908990899089906004016155f1565b60006040518083038186803b158015611f9057600080fd5b505af4158015611fa4573d6000803e3d6000fd5b50505050611fb1856128e0565b604051632770a7eb60e21b81526001600160a01b03851690639dc29fac90611fdf9089908590600401615024565b600060405180830381600087803b158015611ff957600080fd5b505af115801561200d573d6000803e3d6000fd5b505050600386015460405163b3f1c93d60e01b81526001600160a01b038716925063b3f1c93d91612050918a91829187916001600160801b031690600401614ff3565b602060405180830381600087803b15801561206a57600080fd5b505af115801561207e573d6000803e3d6000fd5b505050506040513d601f19601f820116820180604052508101906120a29190614d83565b506120b18588846000806129ad565b856001600160a01b0316876001600160a01b03167f9f439ae0c81e41a04d3fdfe07aed54e6a179fb0db15be7702eb66fa8ef6f530060405160405180910390a350505050505050565b6001600160a01b038116600090815260356020526040812061073090613b72565b60608060385467ffffffffffffffff8111801561213757600080fd5b50604051908082528060200260200182016040528015612161578160200160208202803683370190505b50905060005b6038548110156121ba5760008181526037602052604090205482516001600160a01b039091169083908390811061219a57fe5b6001600160a01b0390921660209283029190910190910152600101612167565b50905090565b6121c8612651565b6001600160a01b038681166000908152603560209081526040918290206004015482518084019093526002835261363360f01b9183019190915290911633146122245760405162461bcd60e51b81526004016105799190615345565b506122e085603560366000896001600160a01b03166001600160a01b031681526020019081526020016000206037603854603460009054906101000a90046001600160a01b03166001600160a01b031663fca513a86040518163ffffffff1660e01b815260040160206040518083038186803b1580156122a357600080fd5b505afa1580156122b7573d6000803e3d6000fd5b505050506040513d601f19601f820116820180604052508101906122db91906148a8565b613bd1565b6001600160a01b03868116600090815260356020526040902060070154600160a01b900460ff1690858116908716146124005761231d8385612d3a565b612389576001600160a01b0386166000908152603660205260408120906123479082908490612e4a565b866001600160a01b0316886001600160a01b03167f44c58d81365b66dd4b1a7f36c25aa97b8c71c361ee4937adc1a00000227db5dd60405160405180910390a3505b8115801561239657508315155b15612400576001600160a01b03851660009081526036602052604090206123bf81836001612e4a565b856001600160a01b0316886001600160a01b03167e058a56ea94653cdf4f152d227ace22d4c00ad99e2a43f58cb7d9e3feb295f260405160405180910390a3505b50505050505050565b603a5490565b612417612651565b6001600160a01b038416600090815260356020526040908190209051630eca322b60e01b815273__$de8c0cf1a7d7c36c802af9a64fb9d86036$__90630eca322b906124699084908890600401615697565b60006040518083038186803b15801561248157600080fd5b505af4158015612495573d6000803e3d6000fd5b5050505060048101546001600160a01b03166124b0826128e0565b6124be8287838860006129ad565b6124d36001600160a01b038716338388612dec565b6001820154604051630ab714fb60e11b81526000916001600160a01b0384169163156e29f6916125159189918b916001600160801b039091169060040161503d565b602060405180830381600087803b15801561252f57600080fd5b505af1158015612543573d6000803e3d6000fd5b505050506040513d601f19601f820116820180604052508101906125679190614d83565b905080156125e15760078301546001600160a01b03861660009081526036602052604090206125a191600160a01b900460ff166001612e4a565b846001600160a01b0316876001600160a01b03167e058a56ea94653cdf4f152d227ace22d4c00ad99e2a43f58cb7d9e3feb295f260405160405180910390a35b8361ffff16856001600160a01b0316886001600160a01b03167fde6857219544bb5b7746f48ed30be6386fefc61b2f864cacf559893bf50fd951338a60405161262b929190615024565b60405180910390a450505050505050565b603c5490565b6034546001600160a01b031690565b6039546040805180820190915260028152610d8d60f21b60208201529060ff1615611caa5760405162461bcd60e51b81526004016105799190615345565b603454604080516385c858b160e01b8152905133926001600160a01b0316916385c858b1916004808301926020929190829003018186803b1580156126d357600080fd5b505afa1580156126e7573d6000803e3d6000fd5b505050506040513d601f19601f8201168201806040525081019061270b91906148a8565b6001600160a01b03161460405180604001604052806002815260200161323760f01b81525090611caa5760405162461bcd60e51b81526004016105799190615345565b600381015460009064ffffffffff600160801b909104811690421681141561278c5750506001810154600160801b90046001600160801b031661070a565b600183015460028401546000916127c3916001600160801b03600160801b928390048116926127bd92041685613c47565b90613c54565b949350505050565b60058101546040516370a0823160e01b815260009182916001600160a01b03909116906370a0823190612802908790600401614fdf565b60206040518083038186803b15801561281a57600080fd5b505afa15801561282e573d6000803e3d6000fd5b505050506040513d601f19601f820116820180604052508101906128529190614d9f565b60068401546040516370a0823160e01b81526001600160a01b03909116906370a0823190612884908890600401614fdf565b60206040518083038186803b15801561289c57600080fd5b505afa1580156128b0573d6000803e3d6000fd5b505050506040513d601f19601f820116820180604052508101906128d49190614d9f565b915091505b9250929050565b60068101546040805163b1bf962d60e01b815290516000926001600160a01b03169163b1bf962d916004808301926020929190829003018186803b15801561292757600080fd5b505afa15801561293b573d6000803e3d6000fd5b505050506040513d601f19601f8201168201806040525081019061295f9190614d9f565b60018301546003840154919250600160801b8082046001600160801b03908116939216910464ffffffffff1660008061299b8787868887613ce7565b91509150612400878787858588613e44565b6129b56146a4565b60058601546001600160a01b031680825260408051637b98f4df60e11b8152815163f731e9be92600480840193919291829003018186803b1580156129f957600080fd5b505afa158015612a0d573d6000803e3d6000fd5b505050506040513d601f19601f82011682018060405250810190612a319190614e5e565b60c083015260408083019190915260018701546006880154825163b1bf962d60e01b81529251612ad693600160801b9093046001600160801b0316926001600160a01b039092169163b1bf962d916004808301926020929190829003018186803b158015612a9e57600080fd5b505afa158015612ab2573d6000803e3d6000fd5b505050506040513d601f19601f820116820180604052508101906127bd9190614d9f565b60e082018190526007870154604083015160c08401516001600160a01b03909216926329db497d9289928992899289929190612b118f614007565b6040518963ffffffff1660e01b8152600401612b349897969594939291906150e8565b60606040518083038186803b158015612b4c57600080fd5b505afa158015612b60573d6000803e3d6000fd5b505050506040513d601f19601f82011682018060405250810190612b849190614e81565b60a0840152608083015260608201819052604080518082019091526002815261353360f01b6020820152906001600160801b031015612bd65760405162461bcd60e51b81526004016105799190615345565b506080810151604080518082019091526002815261353560f01b6020820152906001600160801b031015612c1d5760405162461bcd60e51b81526004016105799190615345565b5060a08101516040805180820190915260028152610d4d60f21b6020820152906001600160801b031015612c645760405162461bcd60e51b81526004016105799190615345565b506060810151600287018054608084015160038a0180546001600160801b03199081166001600160801b038085169190911790925560a08701519316818616178116600160801b84831681029190911790945560018b01546040516001600160a01b038c16967f804c9b842b2748a22bb64b345453a3de7ca54a6ca45ce00d415894979e22897a96612d05969195949193808316939190049091169061570c565b60405180910390a2505050505050565b600082820183811015610f865760405162461bcd60e51b815260040161057990615378565b6000610f8683836040518060400160405280601e81526020017f536166654d6174683a207375627472616374696f6e206f766572666c6f770000815250614012565b604080518082019091526002815261373760f01b602082015260808310612db65760405162461bcd60e51b81526004016105799190615345565b508160020281612dc7576000612dca565b60015b60ff16901b826002026001901b19846000015416178360000181905550505050565b612e44846323b872dd60e01b858585604051602401612e0d9392919061509b565b60408051601f198184030181529190526020810180516001600160e01b03166001600160e01b03199093169290921790915261403e565b50505050565b604080518082019091526002815261373760f01b602082015260808310612e845760405162461bcd60e51b81526004016105799190615345565b508160020260010181612e98576000612e9b565b60015b60ff16901b826002026001016001901b19846000015416178360000181905550505050565b6000813f7fc5d2460186f7233c927e7db2dcc703c0e500b653ca82273b7bfad8045d85a4708181148015906127c3575050151592915050565b603854603c54604080518082019091526002815261363560f01b6020820152908210612f385760405162461bcd60e51b81526004016105799190615345565b506001600160a01b038216600090815260356020526040812060070154600160a01b900460ff16151580612fa157506000805260376020527fa0a618d80eda9243166be83cb7421d97e9dab6ddddd3c70ac7a6b4440256e8e7546001600160a01b038481169116145b905080610c5557506001600160a01b03919091166000818152603560209081526040808320600701805460ff60a01b1916600160a01b60ff8816021790558483526037909152902080546001600160a01b0319169091179055600101603855565b80516001600160a01b0390811660009081526035602090815260408083208186015185168452603683528184206034548351631f94a27560e31b81529351929691959491169263fca513a89260048083019392829003018186803b15801561306957600080fd5b505afa15801561307d573d6000803e3d6000fd5b505050506040513d601f19601f820116820180604052508101906130a191906148a8565b905060006131426130b185614123565b600a0a6117248760600151856001600160a01b031663b3596f078a600001516040518263ffffffff1660e01b81526004016130ec9190614fdf565b60206040518083038186803b15801561310457600080fd5b505afa158015613118573d6000803e3d6000fd5b505050506040513d601f19601f8201168201806040525081019061313c9190614d9f565b90613539565b905073__$de8c0cf1a7d7c36c802af9a64fb9d86036$__63721a92f986600001518688604001518960600151868b60800151603a5460358c60376038548e6040518d63ffffffff1660e01b81526004016131a79c9b9a9998979695949392919061512c565b60006040518083038186803b1580156131bf57600080fd5b505af41580156131d3573d6000803e3d6000fd5b505050506131e0846128e0565b6000806001876080015160028111156131f557fe5b600281111561320057fe5b14156132b5576003860154600587015460208901516040808b015160608c0151915163b3f1c93d60e01b81526001600160801b0390951696506001600160a01b039093169363b3f1c93d9361325c9392909188906004016150bf565b602060405180830381600087803b15801561327657600080fd5b505af115801561328a573d6000803e3d6000fd5b505050506040513d601f19601f820116820180604052508101906132ae9190614d83565b9050613364565b600686015460208801516040808a015160608b015160018b0154925163b3f1c93d60e01b81526001600160a01b039095169463b3f1c93d9461330f9490939291600160801b9091046001600160801b031690600401614ff3565b602060405180830381600087803b15801561332957600080fd5b505af115801561333d573d6000803e3d6000fd5b505050506040513d601f19601f820116820180604052508101906133619190614d83565b90505b8015613386576007860154613386908690600160a01b900460ff166001612d7c565b6133b587600001518860a0015160008a60e001516133a55760006133ab565b8a606001515b8a939291906129ad565b8660e001511561344d578660a001516001600160a01b0316634efecaa5886020015189606001516040518363ffffffff1660e01b81526004016133f9929190615024565b602060405180830381600087803b15801561341357600080fd5b505af1158015613427573d6000803e3d6000fd5b505050506040513d601f19601f8201168201806040525081019061344b9190614d9f565b505b8660c0015161ffff1687604001516001600160a01b031688600001516001600160a01b03167fc6a898309e823ee50bac64e45ca8adba6690e99e7841c45d754e2a38e9019d9b8a602001518b606001518c60800151600160028111156134af57fe5b8e6080015160028111156134bf57fe5b60028111156134ca57fe5b146134e95760028d0154600160801b90046001600160801b03166134eb565b885b60405161262b94939291906151d6565b805182511460405180604001604052806002815260200161373360f01b81525090610c555760405162461bcd60e51b81526004016105799190615345565b60008261354857506000610730565b8282028284828161355557fe5b0414610f865760405162461bcd60e51b8152600401610579906153e4565b6000610f8683836040518060400160405280601a81526020017f536166654d6174683a206469766973696f6e206279207a65726f00000000000081525061412d565b60006135d26135c384614164565b6135cc84614164565b906141b4565b905060006135e86135e161425f565b8390612d15565b60018601549091506136049082906001600160801b0316613c54565b604080518082019091526002815261353160f01b60208201529091506001600160801b038211156136485760405162461bcd60e51b81526004016105799190615345565b5060019490940180546001600160801b0319166001600160801b0390951694909417909355505050565b60008060008060006136826146f2565b61368b8a61426f565b156136a9576000806000806000199550955095509550955050613b25565b600060e08201525b878160e001511015613a845760e08101516136cd908b90614274565b6136d657613a74565b60e0810151600090815260208a81526040808320546001600160a01b03166101e085018190528352908d9052902061370d816142c5565b506080860181905260c08601929092525060a0840191909152600a0a60208301526101e082015160405163b3596f0760e01b81526001600160a01b038a169163b3596f079161375f9190600401614fdf565b60206040518083038186803b15801561377757600080fd5b505afa15801561378b573d6000803e3d6000fd5b505050506040513d601f19601f820116820180604052508101906137af9190614d9f565b825260c0820151158015906137cf575060e08201516137cf908c906142f0565b156138ed578060040160009054906101000a90046001600160a01b03166001600160a01b03166370a082318e6040518263ffffffff1660e01b81526004016138179190614fdf565b60206040518083038186803b15801561382f57600080fd5b505afa158015613843573d6000803e3d6000fd5b505050506040513d601f19601f820116820180604052508101906138679190614d9f565b6040830181905260208301518351600092613886929161172491613539565b6101208401519091506138999082612d15565b61012084015260a08301516138bf906138b3908390613539565b61016085015190612d15565b61016084015260c08301516138e5906138d9908390613539565b61018085015190612d15565b610180840152505b60e08201516138fd908c90614348565b15613a72578060050160009054906101000a90046001600160a01b03166001600160a01b03166370a082318e6040518263ffffffff1660e01b81526004016139459190614fdf565b60206040518083038186803b15801561395d57600080fd5b505afa158015613971573d6000803e3d6000fd5b505050506040513d601f19601f820116820180604052508101906139959190614d9f565b826060018181525050613a3f8160060160009054906101000a90046001600160a01b03166001600160a01b03166370a082318f6040518263ffffffff1660e01b81526004016139e49190614fdf565b60206040518083038186803b1580156139fc57600080fd5b505afa158015613a10573d6000803e3d6000fd5b505050506040513d601f19601f82011682018060405250810190613a349190614d9f565b606084015190612d15565b6060830181905260208301518351613a6b92613a5f929161172491613539565b61014084015190612d15565b6101408301525b505b60e08101805160010190526136b1565b600081610120015111613a98576000613aad565b610120810151610160820151613aad91613573565b610160820152610120810151613ac4576000613ad9565b610120810151610180820151613ad991613573565b6101808201819052610120820151610140830151613af692614399565b610100820181905261012082015161014083015161016084015161018090940151919850965091945090925090505b965096509650965096915050565b600080613b4085846143bd565b905083811015613b54576000915050610f86565b613b5e8185612d3a565b95945050505050565b600290565b303b1590565b600381015460009064ffffffffff600160801b9091048116904216811415613ba957505060018101546001600160801b031661070a565b600183015460028401546000916127c3916001600160801b03918216916127bd91168561442c565b604080516020810190915284548152600090613bf39088908890878787613672565b945050505050670de0b6b3a7640000811015604051806040016040528060018152602001601b60f91b81525090613c3d5760405162461bcd60e51b81526004016105799190615345565b5050505050505050565b6000610f8683834261446a565b6000821580613c61575081155b15613c6e57506000610730565b816b019d971e4fe8401e740000001981613c8457fe5b0483111560405180604001604052806002815260200161068760f31b81525090613cc15760405162461bcd60e51b81526004016105799190615345565b506b033b2e3c9fd0803ce80000006002815b048385020181613cdf57fe5b049392505050565b600285015460009081906001600160801b031685858215613e15576000613d0e848861442c565b9050613d1a818a613c54565b604080518082019091526002815261353160f01b60208201529093506001600160801b03841115613d5e5760405162461bcd60e51b81526004016105799190615345565b5060018b0180546001600160801b0319166001600160801b0385161790558915613e135760028b0154600090613da490600160801b90046001600160801b031689613c47565b9050613db0818a613c54565b6040805180820190915260028152611a9960f11b60208201529093506001600160801b03841115613df45760405162461bcd60e51b81526004016105799190615345565b505060018b0180546001600160801b03808516600160801b0291161790555b505b600399909901805464ffffffffff60801b1916600160801b4264ffffffffff1602179055989650505050505050565b613e4c61478c565b613e5587614007565b6101208201819052613e675750611532565b8660050160009054906101000a90046001600160a01b03166001600160a01b031663797743386040518163ffffffff1660e01b815260040160806040518083038186803b158015613eb757600080fd5b505afa158015613ecb573d6000803e3d6000fd5b505050506040513d601f19601f82011682018060405250810190613eef9190614eae565b64ffffffffff1661014085015260a084015282526020820152613f128686613c54565b6080820152613f218684613c54565b606082015260a0810151610140820151613f43919064ffffffffff851661446a565b60c082018190526020820151613f5891613c54565b60408201819052608082015182516060840151613f7d939261097f9290918391612d15565b60e08201819052610120820151613f9491906143bd565b61010082018190521561240057600480880154610100830151604051637df5bd3b60e01b81526001600160a01b0390921692637df5bd3b92613fd99291899101615697565b600060405180830381600087803b158015613ff357600080fd5b505af11580156105e1573d6000803e3d6000fd5b5460401c61ffff1690565b600081848411156140365760405162461bcd60e51b81526004016105799190615345565b505050900390565b614050826001600160a01b0316612ec0565b61406c5760405162461bcd60e51b8152600401610579906154bd565b60006060836001600160a01b0316836040516140889190614fc3565b6000604051808303816000865af19150503d80600081146140c5576040519150601f19603f3d011682016040523d82523d6000602084013e6140ca565b606091505b5091509150816140ec5760405162461bcd60e51b8152600401610579906153af565b805115612e4457808060200190518101906141079190614d83565b612e445760405162461bcd60e51b815260040161057990615473565b5460301c60ff1690565b6000818361414e5760405162461bcd60e51b81526004016105799190615345565b50600083858161415a57fe5b0495945050505050565b6000633b9aca0082810290839082041460405180604001604052806002815260200161068760f31b815250906141ad5760405162461bcd60e51b81526004016105799190615345565b5092915050565b604080518082019091526002815261035360f41b6020820152600090826141ee5760405162461bcd60e51b81526004016105799190615345565b5060408051808201909152600280825261068760f31b60208301528304906b033b2e3c9fd0803ce800000082190485111561423c5760405162461bcd60e51b81526004016105799190615345565b5082816b033b2e3c9fd0803ce80000008602018161425657fe5b04949350505050565b6b033b2e3c9fd0803ce800000090565b511590565b60006080821060405180604001604052806002815260200161373760f01b815250906142b35760405162461bcd60e51b81526004016105799190615345565b50509051600360029092021c16151590565b5461ffff80821692601083901c821692602081901c831692603082901c60ff169260409290921c1690565b60006080821060405180604001604052806002815260200161373760f01b8152509061432f5760405162461bcd60e51b81526004016105799190615345565b5050815160016002830281019190911c16151592915050565b60006080821060405180604001604052806002815260200161373760f01b815250906143875760405162461bcd60e51b81526004016105799190615345565b50509051600160029092021c16151590565b6000826143a95750600019610f86565b6127c3836143b786856143bd565b90614540565b60008215806143ca575081155b156143d757506000610730565b8161138819816143e357fe5b0483111560405180604001604052806002815260200161068760f31b815250906144205760405162461bcd60e51b81526004016105799190615345565b50612710600281613cd3565b6000806144404264ffffffffff8516612d3a565b90506127c361444d61425f565b6301e1338061445c8785613539565b8161446357fe5b0490612d15565b60008061447e8364ffffffffff8616612d3a565b9050806144955761448d61425f565b915050610f86565b60001981016000600283116144ab5760006144b0565b600283035b90506301e13380870460006144c58280613c54565b905060006144d38284613c54565b9050600060026144e78461313c8a8a613539565b816144ee57fe5b049050600060066145058461313c89818d8d613539565b8161450c57fe5b0490506145308161452a84816145228a8e613539565b61452a61425f565b90612d15565b9c9b505050505050505050505050565b604080518082019091526002815261035360f41b60208201526000908261457a5760405162461bcd60e51b81526004016105799190615345565b5060408051808201909152600280825261068760f31b6020830152830490670de0b6b3a76400008219048511156145c45760405162461bcd60e51b81526004016105799190615345565b508281670de0b6b3a76400008602018161425657fe5b6040518061018001604052806145ee614645565b815260006020820181905260408201819052606082018190526080820181905260a0820181905260c0820181905260e082018190526101008201819052610120820181905261014082018190526101609091015290565b6040518060200160405280600081525090565b6040805161012081018252600080825260208201819052918101829052606081018290526080810182905260a0810182905260c0810182905260e0810182905261010081019190915290565b60405180610100016040528060006001600160a01b03168152602001600081526020016000815260200160008152602001600081526020016000815260200160008152602001600081525090565b604051806102400160405280600081526020016000815260200160008152602001600081526020016000815260200160008152602001600081526020016000815260200160008152602001600081526020016000815260200160008152602001600081526020016000815260200160001515815260200160006001600160a01b031681526020016000151581526020016000151581525090565b60405180610160016040528060008152602001600081526020016000815260200160008152602001600081526020016000815260200160008152602001600081526020016000815260200160008152602001600064ffffffffff1681525090565b803561073081615799565b60008083601f840112614809578182fd5b50813567ffffffffffffffff811115614820578182fd5b60208301915083602080830285010111156128d957600080fd5b60008083601f84011261484b578182fd5b50813567ffffffffffffffff811115614862578182fd5b6020830191508360208285010111156128d957600080fd5b803561ffff8116811461073057600080fd5b60006020828403121561489d578081fd5b8135610f8681615799565b6000602082840312156148b9578081fd5b8151610f8681615799565b600080604083850312156148d6578081fd5b82356148e181615799565b915060208301356148f181615799565b809150509250929050565b600080600080600060a08688031215614913578081fd5b853561491e81615799565b9450602086013561492e81615799565b9350604086013561493e81615799565b9250606086013561494e81615799565b9150608086013561495e81615799565b809150509295509295909350565b600080600080600060a08688031215614983578081fd5b853561498e81615799565b9450602086013561499e81615799565b935060408601356149ae81615799565b925060608601359150608086013561495e816157ae565b60008060008060008060c087890312156149dd578081fd5b86356149e881615799565b955060208701356149f881615799565b94506040870135614a0881615799565b959894975094956060810135955060808101359460a0909101359350915050565b600080600080600080600080600080600060e08c8e031215614a49578485fd5b614a538d8d6147ed565b9a5067ffffffffffffffff8060208e01351115614a6e578586fd5b614a7e8e60208f01358f016147f8565b909b50995060408d0135811015614a93578586fd5b614aa38e60408f01358f016147f8565b909950975060608d0135811015614ab8578586fd5b614ac88e60608f01358f016147f8565b9097509550614ada8e60808f016147ed565b94508060a08e01351115614aec578384fd5b50614afd8d60a08e01358e0161483a565b9093509150614b0f8d60c08e0161487a565b90509295989b509295989b9093969950565b600080600080600080600080600060a08a8c031215614b3e578283fd5b8935614b4981615799565b985060208a013567ffffffffffffffff80821115614b65578485fd5b614b718d838e016147f8565b909a50985060408c0135915080821115614b89578485fd5b614b958d838e016147f8565b909850965060608c0135915080821115614bad578485fd5b614bb98d838e016147f8565b909650945060808c0135915080821115614bd1578384fd5b50614bde8c828d0161483a565b915080935050809150509295985092959850929598565b60008060408385031215614c07578182fd5b8235614c1281615799565b915060208301356148f1816157ae565b60008060408385031215614c34578182fd5b8235614c3f81615799565b946020939093013593505050565b600080600060608486031215614c61578081fd5b8335614c6c81615799565b9250602084013591506040840135614c8381615799565b809150509250925092565b60008060008060808587031215614ca3578182fd5b8435614cae81615799565b9350602085013592506040850135614cc581615799565b9150614cd4866060870161487a565b905092959194509250565b60008060008060808587031215614cf4578182fd5b8435614cff81615799565b935060208501359250604085013591506060850135614d1d81615799565b939692955090935050565b600080600080600060a08688031215614d3f578283fd5b8535614d4a81615799565b9450602086013593506040860135925061494e876060880161487a565b600060208284031215614d78578081fd5b8135610f86816157ae565b600060208284031215614d94578081fd5b8151610f86816157ae565b600060208284031215614db0578081fd5b5051919050565b60008060408385031215614dc9578182fd5b82519150602083015167ffffffffffffffff80821115614de7578283fd5b818501915085601f830112614dfa578283fd5b815181811115614e08578384fd5b604051601f8201601f191681016020018381118282101715614e28578586fd5b604052818152838201602001881015614e3f578485fd5b614e50826020830160208701615763565b809450505050509250929050565b60008060408385031215614e70578182fd5b505080516020909101519092909150565b600080600060608486031215614e95578081fd5b8351925060208401519150604084015190509250925092565b60008060008060808587031215614ec3578182fd5b845193506020850151925060408501519150606085015164ffffffffff81168114614d1d578182fd5b6001600160a01b03169052565b60008284526020808501945082825b85811015614f36578135614f1b81615799565b6001600160a01b031687529582019590820190600101614f08565b509495945050505050565b81835260006001600160fb1b03831115614f59578081fd5b6020830280836020870137939093016020019283525090919050565b60008284528282602086013780602084860101526020601f19601f85011685010190509392505050565b519052565b6001600160801b03169052565b64ffffffffff169052565b60ff169052565b60008251614fd5818460208701615763565b9190910192915050565b6001600160a01b0391909116815260200190565b6001600160a01b03948516815292909316602083015260408201526001600160801b03909116606082015260800190565b6001600160a01b03929092168252602082015260400190565b6001600160a01b0393909316835260208301919091526001600160801b0316604082015260600190565b6001600160a01b03958616815293851660208501529190931660408301526060820192909252901515608082015260a00190565b6001600160a01b039384168152919092166020820152604081019190915260600190565b6001600160a01b0394851681529290931660208301526040820152606081019190915260800190565b6001600160a01b03988916815296909716602087015260408601949094526060850192909252608084015260a083015260c082015260e08101919091526101000190565b6001600160a01b039c8d168152602081019b909b52988b1660408b015260608a0197909752608089019590955260a088019390935260c087019190915260e08601526101008501526101208401526101408301529091166101608201526101800190565b6001600160a01b039889168152602081019790975260408701959095526060860193909352608085019190915260a084015260c083015290911660e08201526101000190565b6001600160a01b0394909416845260208401929092526040830152606082015260800190565b600060a0825261521060a083018b8d614ef9565b8281036020840152615223818a8c614f41565b9050828103604084015261523881888a614f41565b6001600160a01b038716606085015283810360808501529050614530818587614f75565b600060a0825261527060a083018a8c614ef9565b602083820381850152615284828a8c614f41565b84810360408601528851808252828a01935090820190845b818110156152b85784518352938301939183019160010161529c565b50506001600160a01b038816606086015284810360808601526152dc818789614f75565b9d9c50505050505050505050505050565b6020808252825182820181905260009190848201906040850190845b8181101561532e5783516001600160a01b031683529284019291840191600101615309565b50909695505050505050565b901515815260200190565b6000602082528251806020840152615364816040850160208701615763565b601f01601f19169190910160400192915050565b6020808252601b908201527f536166654d6174683a206164646974696f6e206f766572666c6f770000000000604082015260600190565b6020808252818101527f5361666545524332303a206c6f772d6c6576656c2063616c6c206661696c6564604082015260600190565b60208082526021908201527f536166654d6174683a206d756c7469706c69636174696f6e206f766572666c6f6040820152607760f81b606082015260800190565b6020808252602e908201527f436f6e747261637420696e7374616e63652068617320616c726561647920626560408201526d195b881a5b9a5d1a585b1a5e995960921b606082015260800190565b6020808252602a908201527f5361666545524332303a204552433230206f7065726174696f6e20646964206e6040820152691bdd081cdd58d8d9595960b21b606082015260800190565b6020808252601f908201527f5361666545524332303a2063616c6c20746f206e6f6e2d636f6e747261637400604082015260600190565b9051815260200190565b600061018082019050615512828451614f9f565b60208301516155246020840182614fa4565b5060408301516155376040840182614fa4565b50606083015161554a6060840182614fa4565b50608083015161555d6080840182614fa4565b5060a083015161557060a0840182614fa4565b5060c083015161558360c0840182614fb1565b5060e083015161559660e0840182614eec565b50610100808401516155aa82850182614eec565b5050610120808401516155bf82850182614eec565b5050610140808401516155d482850182614eec565b5050610160808401516155e982850182614fbc565b505092915050565b9485526001600160a01b03938416602086015291831660408501528216606084015216608082015260a00190565b9788526001600160a01b03968716602089015294151560408801526060870193909352608086019190915260a085015260c08401521660e08201526101000190565b600060a0820190508682528560208301528460408301528360608301526156878361578f565b8260808301529695505050505050565b918252602082015260400190565b8681526020810186905260c081016156bc8661578f565b60408201959095526001600160a01b03939093166060840152608083019190915260a09091015292915050565b90815260200190565b928352602083019190915261ffff16604082015260600190565b948552602085019390935260408401919091526001600160801b03908116606084015216608082015260a00190565b958652602086019490945260408501929092526060840152608083015260a082015260c00190565b60005b8381101561577e578181015183820152602001615766565b83811115612e445750506000910152565b60038110611caa57fe5b6001600160a01b0381168114611caa57600080fd5b8015158114611caa57600080fdfea2646970667358221220629574ab24bc7e49cf066231162630681a8048c8a825aa83cf7294aa1224f5cb64736f6c634300060c0033",
    "linkReferences": {
        "contracts/protocol/libraries/logic/ReserveLogic.sol": {
            "ReserveLogic": [
                {
                    "length": 20,
                    "start": 4133
                }
            ]
        },
        "contracts/protocol/libraries/logic/ValidationLogic.sol": {
            "ValidationLogic": [
                {
                    "length": 20,
                    "start": 2016
                },
                {
                    "length": 20,
                    "start": 2817
                },
                {
                    "length": 20,
                    "start": 3388
                },
                {
                    "length": 20,
                    "start": 4562
                },
                {
                    "length": 20,
                    "start": 8045
                },
                {
                    "length": 20,
                    "start": 9316
                },
                {
                    "length": 20,
                    "start": 12651
                }
            ]
        }
    },
    "deployedLinkReferences": {
        "contracts/protocol/libraries/logic/ReserveLogic.sol": {
            "ReserveLogic": [
                {
                    "length": 20,
                    "start": 4096
                }
            ]
        },
        "contracts/protocol/libraries/logic/ValidationLogic.sol": {
            "ValidationLogic": [
                {
                    "length": 20,
                    "start": 1979
                },
                {
                    "length": 20,
                    "start": 2780
                },
                {
                    "length": 20,
                    "start": 3351
                },
                {
                    "length": 20,
                    "start": 4525
                },
                {
                    "length": 20,
                    "start": 8008
                },
                {
                    "length": 20,
                    "start": 9279
                },
                {
                    "length": 20,
                    "start": 12614
                }
            ]
        }
    }
}